:1000000044C100006FC100006DC100006BC1000061
:1000100069C1000067C1000065C1000063C1000044
:1000200061C100005FC100005DC100005BC1000054
:1000300059C1000057C1000055C1000053C1000064
:1000400051C100004FC100004DC100004BC1000074
:1000500049C1000047C1000045C100000C94232A9B
:1000600041C100000C94342D0C94882E3BC100003B
:1000700039C1000037C1000035C1000033C10000A4
:1000800031C100002FC100002DC100002BC10000B4
:100090000C94742D0C94C72E25C100000C9472286A
:1000A00021C100001FC100001DC100001BC10000D4
:1000B00019C1000017C1000015C1000013C10000E4
:1000C00011C100000FC100000DC100000C94B42D3F
:1000D0000C94062F07C100000C94F42D0C94452FAE
:1000E00001C100005254435F75692D2D3E61637458
:1000F000696F6E2D2D3E43616E63656C00467265BF
:100100006520536372616D203D005254435F7569F1
:100110002D2D3E616374696F6E2D2D3E7570646187
:100120007465004D61696E5F55492D2D3E536574B0
:1001300055702D2D3E466C6F775F73656E736F72D1
:10014000004D61696E5F55492D2D3E5365745570A4
:100150002D2D3E54656D705F73656E736F72000078
:10016000002100240027002A002D00300033000168
:10017000010000040107010A0100002200250028F7
:10018000002B002E003100340002010000050108A0
:10019000010B01000020002300260029002C002F65
:1001A00000320000010000030106010901050505F8
:1001B00005070508080808020202020A0A080804DE
:1001C000040404010101010101010103030303030C
:1001D000030303040707070C0C0C0C0C0C0C0C029B
:1001E00002020206060606060606060B0B0B0B0BA2
:1001F0000B0B0B010210202008081020401020409B
:1002000080020102010804020101020408102040DA
:1002100080804020100804020180040201804020F8
:100220001008040201080402010102040810204021
:100230008001020408102040800000090A02080B17
:100240000C0D070603040100000000000000000080
:10025000000000000000000000000000000000009E
:10026000000000000011100F00000000000000005E
:10027000000000000000000000000000000000007E
:10028000830814241827B7307E0811241FBECFEF2F
:10029000D1E2DEBFCDBF00E00CBF18E0A0E0B2E0CD
:1002A000ECE4F1E700E00BBF02C007900D92A6312D
:1002B000B107D9F71BBE12E1A6E1B8E001C01D925B
:1002C000A232B107E1F712E0C8E8D2E004C02297F9
:1002D000FE010E948B38C038D107C9F70E94EE3169
:1002E0000C949A388DCE1F93FC0199278827BC0166
:1002F000E89411911032E9F3193010F01E30C8F370
:100300001B3249F01D3241F4689405C064D0610F7E
:10031000711D811D911D119110531A30B8F33EF4D7
:1003200090958095709561957F4F8F4F9F4F1F914E
:100330000895FB01DC0102C001900D924150504034
:10034000D8F70895FC018191861721F08823D9F709
:10035000992708953197CF010895FB01DC018D9114
:10036000019080190110D9F3990B0895FB01DC016C
:1003700001900D920020E1F70895FB01DC0141504E
:10038000504030F08D910190801919F40020B9F798
:10039000881B990B0895FB019F01E8944230C4F03B
:1003A0004532B4F44A3029F497FB1EF490958195B8
:1003B0009F4F642F77270E947538805D8A330CF039
:1003C000895D8193CB010097A1F716F45DE251930B
:1003D0001082C9012AC0592F482F372F262F660FA8
:1003E000771F881F991F660F771F881F991F620F3D
:1003F000731F841F951F660F771F881F991F08950D
:10040000FB019F01423074F0453264F4642F77277A
:100410000E947538805D8A330CF0895D8193CB0131
:100420000097A1F71082C90100C0DC01FC01672F11
:1004300071917723E1F7329704C07C916D937083BB
:100440006291AE17BF07C8F30895EF92FF920F9322
:100450001F937C0100E012E00A96B8010E94313639
:10046000C7014096B8010E943136C7014696B801CF
:100470000E943136C7014C96B8010E943136C7013F
:100480008E96B8010E943136C701C496B8010E9409
:100490003136C701CA96B8010E943136C701805C67
:1004A0009F4FB8010E943136F70117A216A21F9183
:1004B0000F91FF90EF900895CF92EF920F93CF930B
:1004C000DF938130910509F07CC56F5F7F4F09F0A4
:1004D0000FC686E198E00E94C92684ED98E068E0A6
:1004E00049E024E005E056E0E52E37E0C32E0E9407
:1004F0009C2580EF98E060E072E00E94313686EF44
:1005000098E060E072E00E9431368CEF98E060E0A5
:1005100072E00E94313684E099E061E072E00E946E
:1005200031368AE099E068E372E00E94313680E17A
:1005300099E061E872E00E94313686E199E06AEC68
:1005400072E00E9431368CE199E060EF72E00E9427
:10055000313682E299E067E473E00E94313688E246
:1005600099E06BE773E00E9431368EE299E065EA2C
:1005700073E00E94313684E399E06DEC73E00E94F1
:10058000313685E499E061DF8CE899E066EF73E04D
:100590000E94313682E999E069EF73E00E943136BA
:1005A00088E999E06CEF73E00E9431368EE999E0BA
:1005B0006FEF73E00E94313684EA99E062E074E004
:1005C0000E9431368AEA99E065E074E00E94313693
:1005D00080EB99E068E074E00E94313686EB99E0A8
:1005E0006BE074E00E9431368CEB99E06EE074E0D1
:1005F0000E94313682EC99E061E174E00E9431366C
:1006000088EC99E064E174E00E9431368EEC99E068
:1006100067E174E00E94313684ED99E066EF73E0A3
:100620000E9431368AED99E069EF73E00E9431361D
:1006300080EE99E06CEF73E00E94313686EE99E02F
:100640006FEF73E00E9431368CEE99E062E074E067
:100650000E94313682EF99E065E074E00E94313605
:1006600088EF99E068E074E00E9431368EEF99E0FF
:100670006BE074E00E94313684E09AE06EE074E052
:100680000E9431368AE09AE061E174E00E943136DE
:1006900080E19AE064E174E00E94313686E19AE0FC
:1006A00067E174E00E9431368CE19AE06AE174E01F
:1006B0000E94313682E29AE06DE174E00E943136A8
:1006C00088E29AE060E274E00E9431368EE29AE0BD
:1006D00063E274E00E94313684E39AE066E274E0FB
:1006E0000E9431368AE39AE069E274E00E94313672
:1006F00080E49AE06CE274E00E94313686E49AE08D
:100700006FE274E00E9431368CE49AE062E374E0B8
:100710000E94313682E59AE065E374E00E9431364A
:1007200088E59AE068E374E00E9431368EE59AE04D
:100730006BE374E00E94313684E69AE06EE374E085
:100740000E9431368AE69AE061E474E00E94313614
:1007500080E79AE064E474E00E94313686E79AE02C
:1007600067E474E00E9431368CE79AE06AE474E052
:100770000E94313682E89AE06DE474E00E943136DE
:1007800088E89AE060E574E00E9431368EE89AE0ED
:1007900063E574E00E94313684E99AE065E574E02F
:1007A0000E9431368AE99AE067E574E00E943136AA
:1007B00080EA9AE069E574E00E94313686EA9AE0C0
:1007C0006BE574E00E9431368CEA9AE06DE574E0E6
:1007D0000E94313682EB9AE06FE574E00E94313678
:1007E00088EB9AE061E674E00E9431368EEB9AE085
:1007F00063E674E00E94313684EC9AE065E674E0CA
:100800000E9431368AEC9AE067E674E00E94313645
:1008100080ED9AE066EF73E00E94313686ED9AE053
:1008200069EF73E00E9431368CED9AE06CEF73E073
:100830000E94313682EE9AE06FEF73E00E9431360B
:1008400088EE9AE062E074E00E9431368EEE9AE023
:1008500065E074E00E94313684EF9AE068E074E06D
:100860000E9431368AEF9AE06BE074E00E943136E4
:1008700080E09BE06EE074E00E94313686E09BE011
:1008800061E174E00E9431368CE09BE064E174E049
:100890000E94313682E19BE067E174E00E943136CC
:1008A00088E19BE06AE174E00E9431368EE19BE0D2
:1008B0006DE174E00E94313684E29BE060E274E016
:1008C0000E9431368AE29BE063E274E00E94313696
:1008D00080E39BE066E274E00E94313686E39BE0B1
:1008E00069E274E00E9431368CE39BE06CE274E0D4
:1008F0000E94313682E49BE06FE274E00E94313660
:1009000088E49BE062E374E00E9431368EE49BE071
:1009100065E374E00E94313684E59BE068E374E0AF
:100920000E9431368AE59BE067E674E00E9431362A
:1009300080E69BE066EF73E00E94313686E69BE03E
:1009400069EF73E00E9431368CE69BE06CEF73E058
:100950000E94313682E79BE06FEF73E00E943136F0
:1009600088E79BE062E074E00E9431368EE79BE00E
:1009700065E074E00E94313684E89BE068E074E052
:100980000E9431368AE89BE06BE074E00E943136C9
:1009900080E99BE06EE074E00E94313686E99BE0DE
:1009A00061E174E00E9431368CE99BE064E174E01F
:1009B0000E94313682EA9BE067E174E00E943136A2
:1009C00088EA9BE06AE174E00E9431368EEA9BE09F
:1009D0006DE174E00E94313684EB9BE060E274E0EC
:1009E0000E9431368AEB9BE063E274E00E9431366C
:1009F00080EC9BE066E274E00E94313686EC9BE07E
:100A000069E274E00E9431368CEC9BE06CE274E0A9
:100A10000E94313682ED9BE06FE274E00E94313635
:100A200088ED9BE062E374E00E9431368EED9BE03E
:100A300065E374E00E94313684EE9BE068E374E085
:100A40000E9431368AEE9BE06BE374E00E943136FF
:100A500080EF9BE06EE374E00E94313686EF9BE00E
:100A600061E474E00E9431368CEF9BE064E474E052
:100A70000E94313682E09CE067E474E00E943136E7
:100A800088E09CE06AE474E00E9431368EE09CE0ED
:100A90006DE474E00E94313684E19CE060E574E02E
:100AA0000E9431368AE19CE06AE674E00E943136A9
:100AB00080E29CE06DE674E00E94313686E29CE0C4
:100AC00060E774E00E9431368CE29CE063E774E0FA
:100AD0000E94313682E39CE066E774E00E94313682
:100AE00088E39CE069E774E00E9431368EE39CE085
:100AF0006CE774E00E94313684E49CE06FE774E0B8
:100B00000E9431368AE49CE062E874E00E9431364B
:100B100080E59CE065E874E00E94313686E59CE063
:100B200068E874E00E9431368CE59CE06BE874E084
:100B30000E94313682E69CE06EE874E00E94313615
:100B400088E69CE061E974E00E9431368EE69CE024
:100B500064E974E00E94313684E79CE067E974E060
:100B60000E9431368AE79CE06AE974E00E943136DF
:100B700080E89CE06DE974E00E94313686E89CE0F4
:100B800060EA74E00E9431368CE89CE063EA74E02D
:100B90000E94313682E99CE066EA74E00E943136B8
:100BA00088E99CE069EA74E00E9431368EE99CE0B5
:100BB0006CEA74E00E94313684EA9CE06FEA74E0EB
:100BC0000E9431368AEA9CE062EB74E00E94313682
:100BD00080EB9CE065EB74E00E94313686EB9CE094
:100BE00068EB74E00E9431368CEB9CE06BEB74E0B8
:100BF0000E94313682EC9CE063E574E00E9431365D
:100C000088EC9CE065E574E00E9431368EEC9CE057
:100C100067E574E00E94313684ED9CE069E574E09C
:100C20000E9431368AED9CE06BE574E00E9431361B
:100C300080EE9CE06DE574E00E94313686EE9CE02B
:100C40006FE574E00E9431368CEE9CE061E674E062
:100C50000E94313682EF9CE063E674E00E943136F8
:100C600088EF9CE065E674E00E9431368EEF9CE0F0
:100C70006EEB74E00E94313684E09DE060EC74E03D
:100C80000E9431368AE09DE062EC74E00E943136C9
:100C900080E19DE064EC74E00E94313686E19DE0E5
:100CA00066EC74E00E9431368CE19DE068EC74E003
:100CB0000E94313682E29DE06AEC74E00E94313697
:100CC00088E29DE06CEC74E00E9431368EE29DE09B
:100CD0006EEC74E00E94313684E39DE060ED74E0D8
:100CE0000E9431368AE39DE062ED74E00E94313665
:100CF00080E49DE064ED74E00E94313686E49DE07E
:100D000066ED74E00E9431368CE49DE068ED74E09D
:100D10000E94313682E59DE06AED74E00E94313632
:100D200088E59DE06CED74E00E9431368EE59DE033
:100D30006EED74E00E94313684E69DE060EE74E072
:100D40000E9431368AE69DE062EE74E00E94313600
:100D500080E79DE064EE74E00E94313686E79DE016
:100D600066EE74E00E9431368CE79DE068EE74E038
:100D70000E94313682E89DE06AEE74E00E943136CE
:100D800088E89DE06CEE74E00E9431368EE89DE0CC
:100D90006EEE74E00E94313684E99DE060EF74E00D
:100DA0000E9431368AE99DE062EF74E00E9431369C
:100DB00080EA9DE064EF74E00E94313686EA9DE0AF
:100DC00066EF74E00E9431368CEA9DE068EF74E0D3
:100DD0000E94313682EB9DE06AEF74E00E9431366A
:100DE00088EB9DE06CEF74E00E9431368EEB9DE065
:100DF0006EEF74E00E94313684EC9DE060E075E0B7
:100E00000E9431368AEC9DE062E075E00E94313646
:100E100080ED9DE064E075E00E94313686ED9DE056
:100E200066E075E00E9431368CED9DE068E075E08B
:100E30000E94313682EE9DE06AE075E00E94313614
:100E400088EE9DE06CE075E00E9431368EEE9DE00C
:100E50006EE075E00E94313684EF9DE060E175E060
:100E60000E9431368AEF9DE062E175E00E943136E2
:100E700080E09EE064E175E00E94313686E09EE00D
:100E800066E175E00E9431368CE09EE068E175E035
:100E90000E94313682E19EE06AE175E00E943136BF
:100EA00088E19EE06CE175E00E9431368EE19EE0C3
:100EB0006EE175E00E94313684E29EE060E275E00A
:100EC0000E9431368AE29EE062E275E00E9431368D
:100ED00080E39EE064E275E00E94313686E39EE0A6
:100EE00063E574E00E9431368CE39EE065E574E0D2
:100EF0000E94313682E49EE067E574E00E9431365C
:100F000088E49EE069E574E00E9431368EE49EE05C
:100F10006BE574E00E94313684E59EE06DE574E097
:100F20000E9431368AE59EE06FE574E00E9431361A
:100F300080E69EE061E674E00E94313686E69EE03F
:100F400063E674E00E9431368CE69EE065E674E06C
:100F50000E94313682E79EE066E275E00E943136FB
:100F600088E79EE068E275E00E9431368EE79EE0F9
:100F70006AE275E00E94313684E89EE06EE275E038
:100F80000E9431368AE89EE062E375E00E943136C5
:100F900080E99EE066E375E00E94313686E99EE0D6
:100FA0006AE375E00E9431368CE99EE06EE375E0FD
:100FB0000E94313682EA9EE062E475E00E9431369A
:100FC00097C0892B09F094C06F5F7F4F09F090C0E4
:100FD000C2EADEE0CE010E942A3726978EE0C837AB
:100FE000D807C1F7C8E7DEE0CE010E942A3726976E
:100FF0008CE0C83FD807C1F7C8EFDCE0CE010E9403
:101000002A3726978CE0CC3BD807C1F7CCEBDCE045
:10101000CE010E942A3726978BE0C435D807C1F746
:10102000C4E5DBE0CE010E942A3726978AE0C43C63
:10103000D807C1F7C4ECDAE0CE010E942A37269720
:101040008AE0C838D807C1F7C8E8DAE0CE010E94C4
:101050002A37269789E0CE3CD807C1F7CEECD9E0F5
:10106000CE010E942A37269789E0C638D807C1F7F3
:1010700085E899E00E942A378FE799E00E942A3795
:1010800089E799E00E942A3783E799E00E942A378E
:1010900081E699E00E942A378BE599E00E942A3781
:1010A00085E599E00E942A378FE499E00E942A376B
:1010B000C4E3D9E0CE010E942A37269789E0C631E1
:1010C000D807C1F7C6E1D9E0CE010E942A3726979A
:1010D00088E0CE3FD807C1F78CEF98E00E942A370E
:1010E00086EF98E00E942A3780EF98E00E942A3726
:1010F000DF91CF910F91EF90CF90089580E090E035
:101100006FEF7FEFD9C981E090E06FEF7FEFD4C937
:10111000BC0185E991E10C948D32EF92FF920F931F
:101120001F93DF93CF93CDB7DEB7C257D0400FB632
:10113000F894DEBF0FBECDBF89EE98E00E948A23EF
:10114000882309F47DC1CE01019660E072E00E941F
:101150003136B7E0EB2EF12CEC0EFD1EC70160E03E
:1011600072E00E9431368E01035F1F4FC80160910B
:10117000EB084AE00E947836C701B8010E940537A3
:10118000C8010E942A378B859C85019791F48E01B6
:101190000D5E1F4FC80160E30E94A836C801B70169
:1011A0000E94FE35BC01C7010E940537C8010E949C
:1011B0002F378E01075E1F4FA7E0EA2EF12CEC0EB1
:1011C000FD1EC801B7010E942237C80166E475E020
:1011D0000E94E435BC0180EF98E00E940537C80109
:1011E0000E942F378E01015E1F4FC8016091EA08EF
:1011F0004AE00E947836C701B8010E940537C8014D
:101200000E942A378B859C85019791F48E010B5D96
:101210001F4FC80160E30E94A836C801B7010E94B1
:10122000FE35BC01C7010E940537C8010E942F3757
:101230008E01055D1F4FC80160EF78E00E942237E4
:10124000F7E0EF2EF12CEC0EFD1EC801B7010E9455
:10125000FE3566E475E00E94E435BC0180EF98E05D
:101260000E940537C8010E942F378E010F5C1F4F67
:10127000C8016091E9084AE00E947836C701B801C8
:101280000E940537C8010E942A378B859C850197EB
:1012900091F48E01095C1F4FC80160E30E94A836DB
:1012A000C801B7010E94FE35BC01C7010E94053785
:1012B000C8010E942F378E01035C1F4FC80160EFE9
:1012C00078E00E942237E7E0EE2EF12CEC0EFD1EB6
:1012D000C801B7010E94FE35BC0180EF98E00E9472
:1012E0000537C8010E942F378E010D5B1F4FC801C3
:1012F0006091EE084AE00E947836C701B8010E946A
:101300000537C8010E942A378B859C85019791F487
:101310008E01075B1F4FC80160E30E94A836C80119
:10132000B7010E94FE35BC01C7010E940537C80104
:101330000E942F378E01015B1F4F77E0E72EF12CC3
:10134000EC0EFD1EC801B7010E942237C80168E4F7
:1013500075E00E94E435BC0186EF98E00E940537F5
:10136000C8010E942F378E010B5A1F4FC801609190
:10137000ED084AE00E947836C701B8010E9405379F
:10138000C8010E942A378B859C85019791F48E01B4
:10139000055A1F4FC80160E30E94A836C801B70173
:1013A0000E94FE35BC01C7010E940537C8010E949A
:1013B0002F378E010F591F4FC80166EF78E00E944A
:1013C000223767E0E62EF12CEC0EFD1EC801B701B6
:1013D0000E94FE3568E475E00E94E435BC0186EFAA
:1013E00098E00E940537C8010E942F378E010959E5
:1013F0001F4FC80166EF78E00E9422376091EF0826
:1014000070E06E54784FC8010E94C635BC0186EF6B
:1014100098E00E940537C8010E942F376091EC08C0
:1014200086E0689FB00111246258714F8CEF98E0FC
:101430000E940537C7010E942A37CE01019616C0C7
:101440008091AB0E882339F085E991E16AE475E07B
:101450000E94B3330DC08E0103591F4FC80169E7C5
:1014600075E00E943136C80153DEC8010E942A3758
:10147000CE58DF4F0FB6F894DEBF0FBECDBFCF9171
:10148000DF911F910F91FF90EF9008954F925F921F
:101490006F927F928F929F92AF92BF92CF92DF9284
:1014A000EF92FF920F931F93DF93CF93CDB7DEB7E9
:1014B000A4970FB6F894DEBF0FBECDBF3C01A62E99
:1014C0008E010F5F1F4FC80160E072E00E9431364D
:1014D000CE01079660E072E00E943136BAE04B2EF2
:1014E000512C460C571CF30126A137A1ADE0EA2E82
:1014F000F12CEC0EFD1EC701B201A9012F5F3F4F79
:101500000E94C036C801B7010E940537C7010E947A
:101510002A37EE24FF24C02E012FB701660F771F54
:101520006E0D7F1D660F771F6250734F8C2D902FAD
:101530000E94BA34882341F4F0E4EF16F10421F05C
:101540000894E11CF11CE9CFAA2051F08FE3E816C2
:10155000F1041CF080E090E00BC0C701019608C0C8
:10156000E114F10419F48FE390E002C0C701019780
:1015700057E0852E912C8C0E9D1EBC01660F771FA7
:10158000680F791F660F771F6250734FC4010E9466
:10159000053723E1A22EB12CAC0EBD1EF30126A10E
:1015A00037A1C501B20140E050E00E94C03699E188
:1015B000C92ED12CCC0EDD1EC601B5010E942237EA
:1015C000C601B4010E94FE358C018FE1E82EF12C9A
:1015D000EC0EFD1EF30146A157A14F5F5F4F26851C
:1015E0003785C701B2010E94C036C801B7010E9409
:1015F000FE35BC018E010F5F1F4FC8010E940537E9
:10160000C7010E942A37C6010E942F37C5010E94D8
:101610002A37C201B8010E940537C4010E942A3747
:10162000C8010E942A37A4960FB6F894DEBF0FBEF9
:10163000CDBFCF91DF911F910F91FF90EF90DF9081
:10164000CF90BF90AF909F908F907F906F905F9062
:101650004F9008954F925F926F927F928F929F92D8
:10166000AF92BF92CF92DF92EF92FF920F931F93B0
:10167000DF93CF93CDB7DEB7A4970FB6F894DEBF54
:101680000FBECDBF3C01D62E7E010894E11CF11C9B
:10169000C70160E072E00E943136CE01079660E03B
:1016A00072E00E9431366AE0462E512C460C571CDF
:1016B000F30126A137A18E01035F1F4FC801B201BC
:1016C000A9012F5F3F4F0E94C036C701B8010E9499
:1016D0000537C8010E942A37C7010E94D933DD208F
:1016E00049F0693071051CF080E090E00BC0CB013F
:1016F000019608C0161617061CF089E090E002C09B
:10170000CB01019757E0852E912C8C0E9D1EBC01BC
:10171000660F771F680F791F660F771F6E53734F21
:10172000C4010E94053723E1A22EB12CAC0EBD1ED0
:10173000F30126A137A1C501B20140E050E00E94AB
:10174000C03699E1C92ED12CCC0EDD1EC601B501E3
:101750000E942237C601B4010E94FE358C018FE140
:10176000E82EF12CEC0EFD1EF30146A157A14F5FB0
:101770005F4F26853785C701B2010E94C036C80178
:10178000B7010E94FE35BC018E010F5F1F4FC801DB
:101790000E940537C7010E942A37C6010E942F37D1
:1017A000C5010E942A37C201B8010E940537C40151
:1017B0000E942A37C8010E942A37A4960FB6F894CF
:1017C000DEBF0FBECDBFCF91DF911F910F91FF9074
:1017D000EF90DF90CF90BF90AF909F908F907F90D1
:1017E0006F905F904F9008954F925F926F927F92AB
:1017F0008F929F92AF92BF92CF92DF92EF92FF9221
:101800000F931F93DF93CF93CDB7DEB7A4970FB697
:10181000F894DEBF0FBECDBF3C01D62E7E010894EA
:10182000E11CF11CC70160E072E00E943136CE017C
:10183000079660E072E00E9431360AE0402E512C9B
:10184000460C571CF30126A137A18E01035F1F4FE1
:10185000C801B201A9012E5F3F4F0E94C036C701E7
:10186000B8010E940537C8010E942A37C7010E94AB
:10187000D933DD2049F06B3371051CF080E090E036
:101880000BC0CB01019608C0161617061CF08BE39F
:1018900090E002C0CB01019717E0812E912C8C0EB5
:1018A0009D1EBC01660F771F680F791F660F771F9B
:1018B000665A744FC4010E940537F3E1AF2EB12C74
:1018C000AC0EBD1EF30126A137A1C501B20140E057
:1018D00050E00E94C036E9E1CE2ED12CCC0EDD1EA8
:1018E000C601B5010E942237C601B4010E94FE352F
:1018F0008C017FE1E72EF12CEC0EFD1EF30146A1D9
:1019000057A14E5F5F4F26853785C701B2010E9400
:10191000C036C801B7010E94FE35BC018E010F5FC1
:101920001F4FC8010E940537C7010E942A37C60110
:101930000E942F37C5010E942A37C201B8010E94B8
:101940000537C4010E942A37C8010E942A37A4968D
:101950000FB6F894DEBF0FBECDBFCF91DF911F91C0
:101960000F91FF90EF90DF90CF90BF90AF909F903E
:101970008F907F906F905F904F9008954F925F92FD
:101980006F927F928F929F92AF92BF92CF92DF928F
:10199000EF92FF920F931F93DF93CF93CDB7DEB7F4
:1019A000A4970FB6F894DEBF0FBECDBF3C01D62E74
:1019B0007E010894E11CF11CC70160E072E00E9406
:1019C0003136CE01079660E072E00E9431366AE05F
:1019D000462E512C460C571CF30126A137A18E012F
:1019E000035F1F4FC801B201A9012E5F3F4F0E9444
:1019F000C036C701B8010E940537C8010E942A37C6
:101A0000C7010E94D933DD2049F0673171051CF010
:101A100080E090E00BC0CB01019608C016161706B7
:101A20001CF087E190E002C0CB01019757E0852EC2
:101A3000912C8C0E9D1EBC01660F771F680F791FBD
:101A4000660F771F6653754FC4010E94053723E167
:101A5000A22EB12CAC0EBD1EF30126A137A1C501EB
:101A6000B20140E050E00E94C03699E1C92ED12C6D
:101A7000CC0EDD1EC601B5010E942237C601B4019D
:101A80000E94FE358C018FE1E82EF12CEC0EFD1E3C
:101A9000F30146A157A14E5F5F4F26853785C701E9
:101AA000B2010E94C036C801B7010E94FE35BC01D8
:101AB0008E010F5F1F4FC8010E940537C7010E94AA
:101AC0002A37C6010E942F37C5010E942A37C2015A
:101AD000B8010E940537C4010E942A37C8010E943C
:101AE0002A37A4960FB6F894DEBF0FBECDBFCF91B4
:101AF000DF911F910F91FF90EF90DF90CF90BF90FB
:101B0000AF909F908F907F906F905F904F900895CF
:101B10004F925F926F927F928F929F92AF92BF92FD
:101B2000CF92DF92EF92FF920F931F93DF93CF93A9
:101B3000CDB7DEB7A4970FB6F894DEBF0FBECDBF0A
:101B40003C01A62E8E010F5F1F4FC80160E072E0BE
:101B50000E943136CE01079660E072E00E94313675
:101B60005AE0452E512C460C571CF30126A137A1F3
:101B70004DE0E42EF12CEC0EFD1EC701B201A901CF
:101B80002D5F3F4F0E94C036C801B7010E94053744
:101B9000C7010E942A37EE24FF24C02E012FB7016F
:101BA000660F771F6E0D7F1D660F771F6258714F8E
:101BB0008C2D902F0E94BA34882341F4F6E0EF1662
:101BC000F10421F00894E11CF11CE9CFAA2051F0A6
:101BD00086E0E816F1041CF080E090E00BC0C7013D
:101BE000019608C0E114F10419F486E090E002C007
:101BF000C701019717E0812E912C8C0E9D1EBC0110
:101C0000660F771F680F791F660F771F6258714F35
:101C1000C4010E940537F3E1AF2EB12CAC0EBD1EFE
:101C2000F30126A137A1C501B20140E050E00E94B6
:101C3000C036E9E1CE2ED12CCC0EDD1EC601B50199
:101C40000E942237C601B4010E94FE358C017FE15B
:101C5000E72EF12CEC0EFD1EF30146A157A14D5FBE
:101C60005F4F26853785C701B2010E94C036C80183
:101C7000B7010E94FE35BC018E010F5F1F4FC801E6
:101C80000E940537C7010E942A37C6010E942F37DC
:101C9000C5010E942A37C201B8010E940537C4015C
:101CA0000E942A37C8010E942A37A4960FB6F894DA
:101CB000DEBF0FBECDBFCF91DF911F910F91FF907F
:101CC000EF90DF90CF90BF90AF909F908F907F90DC
:101CD0006F905F904F9008954F925F926F927F92B6
:101CE0008F929F92AF92BF92CF92DF92EF92FF922C
:101CF0000F931F93DF93CF93CDB7DEB7A4970FB6A3
:101D0000F894DEBF0FBECDBF3C01D62E7E010894F5
:101D1000E11CF11CC70160E072E00E943136CE0187
:101D2000079660E072E00E9431361AE0412E512C95
:101D3000460C571CF30126A137A18E01035F1F4FEC
:101D4000C801B201A9012F5F3F4F0E94C036C701F1
:101D5000B8010E940537C8010E942A37C7010E94B6
:101D6000D933DD2049F0693071051CF080E090E046
:101D70000BC0CB01019608C0161617061CF089E0AF
:101D800090E002C0CB010197B7E08B2E912C8C0E16
:101D90009D1EBC01660F771F680F791F660F771FA6
:101DA0006257754FC4010E940537E3E1AE2EB12C96
:101DB000AC0EBD1EF30126A137A1C501B20140E062
:101DC00050E00E94C03679E1C72ED12CCC0EDD1E2A
:101DD000C601B5010E942237C601B4010E94FE353A
:101DE0008C016FE1E62EF12CEC0EFD1EF30146A1F5
:101DF00057A14F5F5F4F26853785C701B2010E940B
:101E0000C036C801B7010E94FE35BC018E010F5FCC
:101E10001F4FC8010E940537C7010E942A37C6011B
:101E20000E942F37C5010E942A37C201B8010E94C3
:101E30000537C4010E942A37C8010E942A37A49698
:101E40000FB6F894DEBF0FBECDBFCF91DF911F91CB
:101E50000F91FF90EF90DF90CF90BF90AF909F9049
:101E60008F907F906F905F904F9008954F925F9208
:101E70006F927F928F929F92AF92BF92CF92DF929A
:101E8000EF92FF920F931F93DF93CF93CDB7DEB7FF
:101E9000A4970FB6F894DEBF0FBECDBF3C01D62E7F
:101EA0007E010894E11CF11CC70160E072E00E9411
:101EB0003136CE01079660E072E00E9431366AE06A
:101EC000462E512C460C571CF30126A137A18E013A
:101ED000035F1F4FC801B201A9012E5F3F4F0E944F
:101EE000C036C701B8010E940537C8010E942A37D1
:101EF000C7010E94D9339B0121503040DD2041F0C1
:101F00002E3131051CF080E090E00AC0CB0108C002
:101F1000121613061CF08EE190E002C0C901019771
:101F200057E0852E912C8C0E9D1EBC01660F771FED
:101F3000680F791F660F771F6C52764FC4010E949D
:101F4000053723E1A22EB12CAC0EBD1EF30126A154
:101F500037A1C501B20140E050E00E94C03699E1CE
:101F6000C92ED12CCC0EDD1EC601B5010E94223730
:101F7000C601B4010E94FE358C018FE1E82EF12CE0
:101F8000EC0EFD1EF30146A157A14E5F5F4F268563
:101F90003785C701B2010E94C036C801B7010E944F
:101FA000FE35BC018E010F5F1F4FC8010E9405372F
:101FB000C7010E942A37C6010E942F37C5010E941F
:101FC0002A37C201B8010E940537C4010E942A378E
:101FD000C8010E942A37A4960FB6F894DEBF0FBE40
:101FE000CDBFCF91DF911F910F91FF90EF90DF90C8
:101FF000CF90BF90AF909F908F907F906F905F90A9
:102000004F9008950F931F938823D1F086E198E0B5
:1020100048EE53E060E070E02DE838E003E010E0C7
:102020000E94BC26992787FD909590930309809381
:10203000020985E991E169EA75E00E94B33306C0BF
:1020400086E198E0609102090E9422261F910F917B
:1020500008950F931F938091A80E6623C9F08823DB
:1020600009F586E198E044EF51E060E070E02EEC85
:1020700031E102E010E00E94BC26992787FD90958F
:102080009093AA0E8093A90E81E08093A80E0AC0B7
:10209000813041F486E198E06091A90E0E942226E9
:1020A0001092A80E1F910F91089580913B09909175
:1020B0003C099093400980933F0980E00E94E52A03
:1020C0009C0190933C0980933B0940913F095091BA
:1020D0004009841B950B05960B9798F581E080933A
:1020E0003A09C9018C589040099718F483E090E0B0
:1020F0001EC0C90185549140099718F484E090E00E
:1021000016C0C9010496099718F485E090E00FC045
:10211000C901855F9140099718F482E090E007C0FB
:10212000225E32402930310538F481E090E090930E
:102130003E0980933D09089510923E0910923D0991
:1021400004C050933C0940933B0910923A0908950A
:102150000F931F9380913B0990913C099093400904
:1021600080933F0980E00E94E52A90933C09809388
:102170003B0920913F0930914009821B930B97FF47
:1021800003C0909581959F4F0597A4F086E198E054
:102190004AE050E060E070E025E530E105E010E065
:1021A0000E94AF26992787FD9095909344098093CC
:1021B000430904C030933C0920933B091F910F91C0
:1021C00008950F931F93882351F18FEF93E090931D
:1021D0003C0980933B0986E198E044E150E060E0EF
:1021E00070E028EA30E102E010E00E94BC26992766
:1021F00087FD9095909342098093410985E991E18B
:102200006EEB75E00E94B13385E991E144E150E065
:1022100060E070E02AE030E00E94293306C086E1E9
:1022200098E0609141090E9422261F910F91089524
:102230004F925F926F927F928F929F92AF92BF92D6
:10224000CF92DF92EF92FF920F931F93DF93CF9382
:10225000CDB7DEB768970FB6F894DEBF0FBECDBF1F
:102260003C0184ED98E060E142E020E00E94FE2421
:1022700084ED98E00E94F92484ED98E060E040E06D
:102280000E94CB24B301665C7F4F84ED98E00E94EE
:10229000493284ED98E060E041E00E94CB248091D7
:1022A000DD07BAE04B2E512C460C571CF30142A11E
:1022B00053A1882309F446C0A0E18A2E912C860CF4
:1022C000971C26A137A16E010894C11CD11CC60120
:1022D000B2010E94C03677E0E72EF12CEC0EFD1E15
:1022E000C701B6010E942237B3016A5E7F4FC70162
:1022F0000E94FE355C018E01035F1F4FF30146A172
:1023000057A14F5F5F4F24A135A1C801B2010E94C0
:10231000C036C501B8010E94FE35BC01C4010E944F
:102320000537C8010E942A37C7010E942F37C6010E
:102330000E942A3784ED98E0B4010E94493210923D
:10234000DD0715C08E010D5E1F4FF30124A135A1DD
:10235000C801B2010E94C03684ED98E0B8010E9425
:102360004932C8010E942A3781E08093DD076896D0
:102370000FB6F894DEBF0FBECDBFCF91DF911F9196
:102380000F91FF90EF90DF90CF90BF90AF909F9014
:102390008F907F906F905F904F90089585E499E0C3
:1023A00047CF2F923F924F925F926F927F928F9280
:1023B0009F92AF92BF92CF92DF92EF92FF920F93D4
:1023C0001F93DF93CF93CDB7DEB766970FB6F89420
:1023D000DEBF0FBECDBF2C016B013A013C8B2B8BB6
:1023E0001801FE8AED8ADA011D921C9201E010E0CC
:1023F0001FC0F301808191819C01220F331F280FA0
:10240000391F220F331FD20115968D919C9116977B
:10241000820F931FB6010E94F234F3014081518173
:10242000882381F44F5F5F4F518340830F5F1F4FBD
:10243000D20111968D919C91129780179107CCF63D
:1024400080E0A3C09A01220F331F240F351F220FF3
:10245000331FF20185819681820F931F6CE20E94E7
:1024600061345C010894A11CB11CD3018D919C9135
:102470009C01220F331F280F391F220F331FF20137
:1024800085819681820F931F6CE2A5010E944334DF
:102490006C014C010894811C911CD3018D919C917D
:1024A0009C01220F331F280F391F220F331FF20107
:1024B00085819681820F931F6CE2A4010E944334B0
:1024C0007C01D3012D913C91C901880F991F820F86
:1024D000931F880F991FF20165817681680F791F1C
:1024E0008E010F5F1F4FC801A50196010E94C036E3
:1024F000C101B8010E940537C8010E942A378E0128
:10250000095F1F4FD3012D913C91C901880F991F7D
:10251000820F931F880F991FF20165817681680FE2
:10252000791FC801A40197010E94C0368B899C893C
:10253000B8010E940537C8010E942A37D3012D91A6
:102540003C91C901880F991F820F931F880F991F13
:10255000D2011596ED91FC911697E80FF91F8E01A7
:10256000035F1F4F0894E11CF11C24813581C801D1
:10257000BF01A7010E94C0368D899E89B8010E94C3
:102580000537C8010E942A3781E066960FB6F89495
:10259000DEBF0FBECDBFCF91DF911F910F91FF9096
:1025A000EF90DF90CF90BF90AF909F908F907F90F3
:1025B0006F905F904F903F902F9008952F923F9291
:1025C0004F925F926F927F928F929F92AF92BF9243
:1025D000CF92DF92EF92FF920F931F93DF93CF93EF
:1025E000CDB7DEB7ED970FB6F894DEBF0FBECDBF07
:1025F0009AAF89AF5B015CAF4BAF2DAF1A821982E6
:1026000083E0282E312C2C0E3D1EC10160E072E0CB
:102610000E94313609E0402E512C4C0E5D1EC20145
:1026200060E072E00E9431361FE0812E912C8C0E0A
:102630009D1EC40160E072E00E943136B5E1CB2EF0
:10264000D12CCC0EDD1EC6016BAD7CAD0E941A37BD
:1026500089AD9AADB601AE014F5F5F4F9101820126
:1026600074019FDE182FC6010E942A37112309F436
:102670008DC0C20161E60E9461349C018FEF2F3F43
:10268000380709F483C0A3E06A2E712C620E731E12
:10269000EDADEE2309F468C0FBE1CF2ED12CCC0EBA
:1026A000DD1EC601B40140E050E00E94C036E1E208
:1026B000EE2EF12CEC0EFD1EC701B6010E94223752
:1026C000C701B5010E94FE355C018E01095D1F4FF7
:1026D0002B893C89C801B401A3010E94C036C50101
:1026E000B8010E94FE35BC01C4010E940537C80133
:1026F0000E942A37C7010E942F37C6010E942A373D
:1027000029813A81C901880F991F820F931F880F71
:10271000991FE9ADFAAD05811681080F191F5DE219
:10272000E52EF12CEC0EFD1EC7016BAD7CAD0E94B9
:102730002237C7016CE20E94D535B2010E94FE35F6
:102740006CE20E94D535B1010E94FE356CE20E9418
:10275000D535B4010E94FE35BC01C8010E94053781
:10276000C7010E942F3710C08E010D5C1F4FC8019A
:10277000B401A90193010E94C036C501B8010E94AD
:102780000537C8010E942A3711E001C010E0CE01D0
:102790000F960E942A37CE0109960E942A37CE0151
:1027A00003960E942A37812FED960FB6F894DEBF6C
:1027B0000FBECDBFCF91DF911F910F91FF90EF9092
:1027C000DF90CF90BF90AF909F908F907F906F9051
:1027D0005F904F903F902F9008952F923F924F928D
:1027E0005F926F927F928F929F92AF92BF92CF92A1
:1027F000DF92EF92FF920F931F93DF93CF93CDB7AA
:10280000DEB7ED970FB6F894DEBF0FBECDBF9AAF1F
:1028100089AF5B015CAF4BAF2DAF1A821982B3E079
:102820002B2E312C2C0E3D1EC10160E072E00E9467
:102830003136A9E04A2E512C4C0E5D1EC20160E0DB
:1028400072E00E943136FFE08F2E912C8C0E9D1E7F
:10285000C40160E072E00E943136E5E1CE2ED12C59
:10286000CC0EDD1EC6016BAD7CAD0E941A3789AD62
:102870009AADB601AE014F5F5F4F910182017401C5
:1028800090DD182FC6010E942A37112309F48DC04C
:10289000C20168E40E9461349C018FEF2F3F38072A
:1028A00009F483C075E0672E712C620E731EEDADC6
:1028B000EE2309F468C06BE1C62ED12CCC0EDD1ED0
:1028C000C601B40140E050E00E94C03651E2E52E5E
:1028D000F12CEC0EFD1EC701B6010E942237C70184
:1028E000B5010E94FE355C018E01095D1F4F2B89E9
:1028F0003C89C801B401A3010E94C036C501B801DA
:102900000E94FE35BC01C4010E940537C8010E9427
:102910002A37C7010E942F37C6010E942A37298112
:102920003A81C901880F991F820F931F880F991F41
:10293000E9ADFAAD05811681080F191F9DE2E92E58
:10294000F12CEC0EFD1EC7016BAD7CAD0E94223751
:10295000C7016CE20E94D535B2010E94FE356CE2DF
:102960000E94D535B1010E94FE356CE20E94D5353A
:10297000B4010E94FE35BC01C8010E940537C701A1
:102980000E942F3710C08E010D5C1F4FC801B4018B
:10299000A90193010E94C036C501B8010E94053704
:1029A000C8010E942A3711E001C010E0CE010F9645
:1029B0000E942A37CE0109960E942A37CE0103963B
:1029C0000E942A37812FED960FB6F894DEBF0FBE16
:1029D000CDBFCF91DF911F910F91FF90EF90DF90CE
:1029E000CF90BF90AF909F908F907F906F905F90AF
:1029F0004F903F902F9008952F923F924F925F9269
:102A00006F927F928F929F92AF92BF92CF92DF92FE
:102A1000EF92FF920F931F93DF93CF93CDB7DEB763
:102A2000ED970FB6F894DEBF0FBECDBF9AAF89AF5A
:102A30005B015CAF4BAF2DAF1A821982B3E02B2E36
:102A4000312C2C0E3D1EC10160E072E00E94313637
:102A5000A9E04A2E512C4C0E5D1EC20160E072E0CE
:102A60000E943136FFE08F2E912C8C0E9D1EC401EA
:102A700060E072E00E943136E5E1CE2ED12CCC0E22
:102A8000DD1EC6016BAD7CAD0E941A3789AD9AADD3
:102A9000B601AE014F5F5F4F91018201740181DC8D
:102AA000182FC6010E942A37112309F48DC0C201D4
:102AB0006DE60E9461349C018FEF2F3F380709F4C7
:102AC00083C07AE0672E712C620E731EEDADEE238B
:102AD00009F468C06BE1C62ED12CCC0EDD1EC601F8
:102AE000B40140E050E00E94C03651E2E52EF12CE6
:102AF000EC0EFD1EC701B6010E942237C701B501C9
:102B00000E94FE355C018E01095D1F4F2B893C89B7
:102B1000C801B401A3010E94C036C501B8010E94DA
:102B2000FE35BC01C4010E940537C8010E942A3746
:102B3000C7010E942F37C6010E942A3729813A8196
:102B4000C901880F991F820F931F880F991FE9AD44
:102B5000FAAD05811681080F191F8DE2E82EF12CC0
:102B6000EC0EFD1EC7016BAD7CAD0E942237C70184
:102B70006CE20E94D535B2010E94FE356CE20E94E3
:102B8000D535B1010E94FE356CE20E94D535B40105
:102B90000E94FE35BC01C8010E940537C7010E9492
:102BA0002F3710C08E010D5C1F4FC801B401A90161
:102BB00093010E94C036C501B8010E940537C801C3
:102BC0000E942A3711E001C010E0CE010F960E944A
:102BD0002A37CE0109960E942A37CE0103960E9419
:102BE0002A37812FED960FB6F894DEBF0FBECDBF0A
:102BF000CF91DF911F910F91FF90EF90DF90CF90D9
:102C0000BF90AF909F908F907F906F905F904F900C
:102C10003F902F9008950F931F93CF93DF938B01D5
:102C2000EA01C801BE010E94C433FC0180818032E8
:102C300021F0D7FD02C02197F4CFCE01DF91CF91D3
:102C40001F910F9108950F931F93CF93DF938B01E3
:102C5000EA01C801BE010E94C433FC0180818032B8
:102C600021F4D7FD02C02197F4CFCE01DF91CF919F
:102C70001F910F9108950F931F93CF93DF938B01B3
:102C8000EA01C801BE010E94C433FC018081803288
:102C900049F4F801848195810196C817D90710F489
:102CA0002196EFCFCE01DF91CF911F910F91089523
:102CB0002F923F924F925F926F927F928F929F924C
:102CC000AF92BF92CF92DF92EF92FF920F931F933A
:102CD000DF93CF93CDB7DEB7C254D0400FB6F89490
:102CE000DEBF0FBECDBF3C015B01CE01019660E0AF
:102CF00072E00E943136C5016CE20E9461347C01B1
:102D00008E01095F1F4FC801B50140E050E09701F7
:102D10000E94C036C301C496B8010E940537C8019D
:102D20000E942A370894E11CF11CC5016CE2A7013E
:102D30000E9443346C013CE1232E312C260C371CBD
:102D40008E01035F1F4FC801B501A70196010E94C4
:102D5000C036C101B8010E940537C8010E942A3758
:102D60000894C11CD11CC5016CE2A6010E94433429
:102D70007C012AE3822E912C860C971C8E010D5E1D
:102D80001F4FC801B501A60197010E94C036C401BA
:102D9000B8010E940537C8010E942A379AE0492EDF
:102DA000512C460C571C8FE1C82ED12CCC0EDD1EA9
:102DB000C60162ED75E00E9449368E01075E1F4F25
:102DC0000894E11CF11CF50124813581C801B5018D
:102DD000A7010E94C036C601B8010E94FE35BC01A1
:102DE000C2010E940537C8010E942A37C6010E940D
:102DF0002F37F3018685978595A384A3C2016BEED7
:102E000075E00E94A6358E010B5D1F4FC801B2010F
:102E10000E941A37C301B80140E050E02CDFF301F3
:102E200093A382A3C8010E942A37F30182A193A130
:102E300097A386A384ED98E060E142E020E00E9441
:102E4000FE2484ED98E00E94F92484ED98E060E08F
:102E500040E00E94CB2484ED98E0B4010E94493206
:102E600084ED98E060E041E00E94CB24F30184A16E
:102E700095A122A133A1821B930B26A137A14097D4
:102E80000CF10BE2E02EF12CEC0EFD1EC701B2019D
:102E9000A901215F3F4F0E94C0368E010F5C1F4F7A
:102EA000C801B7010E942237C8016EE30E94D535E0
:102EB000BC0184ED98E00E944932C8010E942F377E
:102EC000C70110C08E01095C1F4FC801B201A901E2
:102ED000205F3F4F0E94C03684ED98E0B8010E9409
:102EE0004932C8010E942A37C10160E076E00E94A1
:102EF0006434882319F081E090E009C0C1016DECD1
:102F000075E00E946434882349F083E090E0F30187
:102F100090878783C30160E09CD84BC082E090E03B
:102F2000F30190878783C30161E093D81DE3412EAD
:102F3000512C4C0E5D1E06C0F30186A197A101968F
:102F400097A386A3F30126A137A182A193A1281BF1
:102F5000390BC201B101A9012F5F3F4F0E94C0365A
:102F6000C20166E275E00E946434882311F400E037
:102F70000BC000E0F30182A193A10E9626A137A118
:102F8000821793070CF001E0C2010E942A37002348
:102F900099F6F301818593012A5E3F4F882321F042
:102FA000C90166E275E003C0C90165E076E00E94F0
:102FB0006136CE0101960E942A37CE5BDF4F0FB6F5
:102FC000F894DEBF0FBECDBFCF91DF911F910F915F
:102FD000FF90EF90DF90CF90BF90AF909F908F9039
:102FE0007F906F905F904F903F902F900895BF9289
:102FF000CF92DF92EF92FF920F931F93DF93CF93C5
:1030000000D000D0CDB7DEB77C01B62E6901FC013F
:10301000168305838E96BA010E940537F701148244
:103020001382F1E0CF16D10419F00894C108D10839
:10303000F701D282C182F701B18686E490E0E80E02
:10304000F91EF70110828AEB9FEFE80EF91EF701D7
:10305000658176818E010F5F1F4FC8010E941A376C
:10306000C701B80125DEC8010E942A3726960FB68F
:10307000F894DEBF0FBECDBFCF91DF911F910F91AE
:10308000FF90EF90DF90CF90BF900895EF92FF9266
:103090000F931F93DF93CF93CDB7DEB7A4970FB6EF
:1030A000F894DEBF0FBECDBFCE01019660E072E0A6
:1030B0000E94313685E991E140E855E260E070E038
:1030C0000E94842FCE01079667E076E00E94313699
:1030D000CE010D9662E176E00E943136CE01439634
:1030E0006DE176E00E94313681E06BD881E00E948C
:1030F000021081E08093450949E1E42EF12CEC0EA9
:10310000FD1EC7016AE276E00E94313685E499E04F
:1031100061E0A70124E030E004E019E068DFC701C6
:103120000E942A3789E08093EE0887E08093ED08BB
:103130008DE28093EF0880E18093EB088FE080932D
:10314000EA088BE18093E90882E08093EC0889EE3D
:1031500098E00E943D23882371F48E01015E1F4F89
:10316000C80162E376E00E943136C8010E948808F7
:10317000C8010E942A37CE0143960E942A37CE0109
:103180000D960E942A37CE0107960E942A37CE015B
:1031900001960E942A37A4960FB6F894DEBF0FBEA0
:1031A000CDBFCF91DF911F910F91FF90EF900895C8
:1031B0004F925F926F927F928F929F92AF92BF9247
:1031C000CF92DF92EF92FF920F931F93DF93CF93F3
:1031D000CDB7DEB7E0970FB6F894DEBF0FBECDBF18
:1031E0003C01D62E7E010894E11CF11CC70160E071
:1031F00072E00E943136CE01079660E072E00E94D4
:103200003136BAE04B2E512C460C571CF30126A147
:1032100037A18E01035F1F4FC801B201A9012E5FC4
:103220003F4F0E94C036C701B8010E940537C80150
:103230000E942A3785E991E1B7010E948D32C701CA
:103240000E94D9334B015C018B010150104085E98C
:1032500091E1B8014AE050E00E949433DD2041F052
:103260000B3011051CF080E090E00AC0C40108C0DA
:10327000101611061CF08BE090E002C0C801019707
:10328000A7E08A2E912C8C0E9D1EBC01660F771F25
:10329000680F791F660F771F6457764FC4010E942D
:1032A000053785E991E1B4010E948D3285E991E10C
:1032B00063E476E00E94B133F30166A177A185E96A
:1032C00091E14AE050E00E94943385E991E16FE496
:1032D00076E00E94B1338E010D5E1F4FF30126A1EF
:1032E00037A1C801B20140E050E00E94C03685E934
:1032F00091E1B8010E944932C8010E942A3785E94C
:1033000091E16EE576E00E94B1338E01075E1F4FBA
:10331000F30146A157A14E5F5F4F26853785C8014F
:10332000B2010E94C03685E991E1B8010E9449329C
:10333000C8010E942A3785E991E165E776E00E949D
:10334000B3336FE1A62EB12CAC0EBD1EF30126A146
:1033500037A1C501B20140E050E00E94C03655E2FD
:10336000E52EF12CEC0EFD1EC701B5010E9422379F
:10337000C701B4010E94FE356C018E01055D1F4F2F
:10338000F30146A157A14E5F5F4F26853785C801DF
:10339000B2010E94C036C601B8010E94FE35BC01D0
:1033A0006E010894C11CD11CC6010E940537C801DA
:1033B0000E942A37C7010E942F37C5010E942A3771
:1033C00085E991E165E776E00E94B13385E991E115
:1033D000B2010E94493285E991E165E776E00E94F9
:1033E000B33385E991E165E776E00E94B13385E981
:1033F00091E1B6010E94493285E991E165E776E005
:103400000E94B333C201B6010E94053785E991E1FC
:1034100065E776E00E94B13385E991E1B2010E944F
:10342000493285E991E165E776E00E94B333C40152
:103430000E942A37C6010E942A37E0960FB6F894F8
:10344000DEBF0FBECDBFCF91DF911F910F91FF90D7
:10345000EF90DF90CF90BF90AF909F908F907F9034
:103460006F905F904F9008958F929F92AF92BF920E
:10347000CF92DF92EF92FF920F931F93DF93CF9340
:10348000CDB7DEB7CC5FD0400FB6F894DEBF0FBE2D
:10349000CDBF5C01DC01DC90B1E0DB1609F038C681
:1034A000FC01878190858230910509F427C2833021
:1034B000910509F427C4019709F02AC6D50196960B
:1034C0008D909C90979780913D0990913E09833013
:1034D000910509F4EDC18430910544F481309105E2
:1034E00009F4A8C1029709F013C6C4C0843091053D
:1034F00009F4EDC1059709F00BC6EAE0CE2ED12CF8
:10350000CA0CDB1C8E010F5F1F4FC801B6010E9461
:103510001A37F50146A157A1C80160E20E94433461
:10352000D50197969C938E939697C8010E942A374F
:10353000F50126A137A184A195A1281739071CF010
:1035400097A286A2E5C58E01095F1F4FC801B6018B
:103550000E941A37D50196964D915C919797C501B7
:10356000B80189DBF50197A386A3C8010E942A3719
:1035700084ED98E060E142E020E00E94FE2484EDCA
:1035800098E00E94F92484ED98E060E040E00E9419
:10359000CB24B501665C7F4F84ED98E00E944932F0
:1035A00084ED98E060E041E00E94CB24D50196963E
:1035B0002D913C919797F901709694968D919C91DD
:1035C000959792964D915C919397E817F9071CF5A2
:1035D0004217530784F473E1E72EF12CEC0EFD1E25
:1035E000C7016CE30E94A836F50126A137A18E0120
:1035F000035F1F4FDCC069E1E62EF12CEC0EFD1ECF
:10360000C701B601A901215F3F4F0E94C0368E015C
:10361000015E1F4F69C04217530744F55BE2E52E78
:10362000F12CEC0EFD1EC7016CE30E94A836D501FB
:1036300096962D913C9197978E010B5D1F4FC80177
:10364000B601A901215F3F4F0E94C036C701B801F2
:103650000E94FE35BC0184ED98E00E944932C80109
:103660000E942A37C7010E942F3752C58E010F5C76
:103670001F4FD4C084ED98E060E142E020E00E945A
:10368000FE2484ED98E00E94F92484ED98E060E047
:1036900040E00E94CB24B501665C7F4F84ED98E04A
:1036A0000E94493284ED98E060E041E00E94CB2422
:1036B000F50126A137A182A193A14AE0C42ED12C05
:1036C000CA0CDB1C821793070CF107E3E02EF12CE8
:1036D000EC0EFD1EC701B601A901215F3F4F0E94FC
:1036E000C0368E01035C1F4FC801B7010E9422370C
:1036F000C8016EE30E94D535BC0184ED98E00E94BC
:103700004932C8010E942F37C701ECC48E010D5BFE
:103710001F4FC801B6010E941A37D50196964D91E8
:103720005C91979741505040C501B8018CDAF50182
:1037300097A386A3C8010E942A378E01075B1F4FFB
:10374000C801B6010E941A37D50196964D915C9139
:103750009797C501B8015FDA0196F50197A386A393
:10376000C8010E942A37D50196962D913C919797D2
:10377000F901709694968D919C91959792964D91A2
:103780005C919397E817F9078CF542175307F4F407
:1037900015E5E12EF12CEC0EFD1EC7016CE30E9435
:1037A000A836F50126A137A18E01015B1F4FC80184
:1037B000B601A901225F3F4F0E94C036C701B80180
:1037C0000E94FE356EE30E94D53544CFBBE5EB2E5B
:1037D000F12CEC0EFD1EC701B601A901215F3F4F80
:1037E0000E94C0368E010F591F4F7ECF42175307DC
:1037F00094F4ADE6EA2EF12CEC0EFD1EC7016CE34D
:103800000E94A836D50196962D913C9197978E01EE
:1038100009591F4F14CF8E010D581F4FC801B60113
:10382000A9019F010E94C03684ED98E0B8010E9472
:10383000493219C2F50191A680A6FAE0EF2EF12CCB
:10384000EA0CFB1C8E0107581F4FC801B7010E94EC
:103850001A37D50196964D915C919797C80160E211
:103860000E944334F50193A782A7C8010E942A371A
:103870008E0101581F4FD50198964D915C919997F3
:103880009A962D913C919B97C801B7010E94C03632
:10389000C501805C9F4FB8010E940537C8010E9496
:1038A0002A37E6E4F0E0AE0EBF1ED501DC9230C44C
:1038B000F501238134812115310509F429C42150F2
:1038C0003040348323838E010B571F4FBBC1D5017A
:1038D00013962D913C91149711968D919C9112976E
:1038E0002817390709F414C42F5F3F4F14963C93EF
:1038F0002E9313978E0105571F4F59C100913D0913
:1039000010913E0905301105E1F5F50126A137A119
:1039100082A193A10E968217930724F02F5F3F4F49
:1039200037A326A38501045E1F4FD50196966D919E
:103930007C91979792968D919C919397681B790BA8
:10394000C8010E94C433FC0180818D3209F0CDC3CF
:10395000F50126A137A182A193A10E9682179307A4
:103960000CF4C3C32F5F3F4F37A326A3DECF2150F4
:103970003040240F351FD50197963C932E93969790
:10398000C7C3F50166A177A142A153A10230110579
:1039900059F54617570724F46150704077A366A382
:1039A0008501045E1F4FD50196966D917C91979786
:1039B00092968D919C919397681B790BC8010E94F8
:1039C000C433FC0180818D3209F0A2C3F50126A128
:1039D00037A182A193A1821793070CF099C32150BC
:1039E000304037A326A3DFCFECE18E2E912C8A0C3A
:1039F0009B1C641B750BC4010E94C433FC01E08155
:103A0000ED36A9F4D50119968C91882309F080C36D
:103A10000330110529F00430110509F026C103C057
:103A2000C50161E002C0C50160E0C2DB1EC1E43631
:103A3000A9F4F5018185882309F06AC303301105D3
:103A400029F00430110509F010C103C0C50161E07F
:103A500002C0C50160E00E94360F07C1E937B1F42A
:103A6000D50119968C91882309F052C303301105B2
:103A700029F00430110509F0F8C003C0C50161E068
:103A800002C0C50160E00E946C0EEFC0E136A9F4EF
:103A9000F5018185882309F03BC30330110529F026
:103AA0000430110509F0E1C003C0C50161E002C0A6
:103AB000C50160E00E94880DD8C0E834B1F4D5019A
:103AC00019968C91882309F023C30330110529F03E
:103AD0000430110509F0C9C003C0C50161E002C08E
:103AE000C50160E00E94BE0CC0C0ED34A9F4F50130
:103AF0008185882309F00CC30330110529F00430B7
:103B0000110509F0B2C003C0C50161E002C0C501E2
:103B100060E00E94F40BA9C0E332B1F4D50119961C
:103B20008C91882309F0F4C20330110529F0043088
:103B3000110509F09AC003C0C50161E002C0C501CA
:103B400060E00E942A0B91C0E334A9F4F50181855D
:103B5000882309F0DDC20330110529F00430110576
:103B600009F083C003C0C50161E002C0C50160E087
:103B70000E94460A7AC0E535B9F50330110529F0EF
:103B80000430110509F0C4C21EC0D50113962D9151
:103B90003C9114972115310509F4BAC221503040E7
:103BA00014963C932E9313978E010F561F4FC90105
:103BB000880F991F820F931F880F991F15966D917B
:103BC0007C91169748C0F5012381348181819281CF
:103BD0002817390709F49CC22F5F3F4F3483238392
:103BE0008E0109561F4F2EC0E43409F091C20330F4
:103BF000110529F00430110509F08AC213C0D5015E
:103C000013962D913C9114972115310509F480C22A
:103C10002150304014963C932E9313978E010356F7
:103C20001F4FC5CFF50123813481818192812817EF
:103C3000390709F46DC22F5F3F4F348323838E0110
:103C40000D551F4FC901880F991F820F931F880FB1
:103C5000991F65817681680F791FC8010E941A3704
:103C6000C501B80125D8C8013DC27FEAC72ED12CB5
:103C7000CC0EDD1EB501665F7F4FC6010E941A376C
:103C8000C6010E94EA33D50113962D913C911497F9
:103C9000C901880F991F820F931F880F991F1596CE
:103CA0000D911C911697080F191F49EAE42EF12C6B
:103CB000EC0EFD1EE4E3F0E0AE0EBF1EC701B50141
:103CC0000E942237C7016CE20E94D535B4010E94E0
:103CD000FE356CE20E94D53526E030E0A20EB31E20
:103CE000B5010E94FE356CE20E94D535B6010E94F6
:103CF000FE35BC01C8010E940537C7010E942F375D
:103D0000C601F0C13FEA832E912C8C0E9D1EC4018A
:103D100060E072E00E94313680913D0990913E0949
:103D20008330910509F49AC18430910524F40297F7
:103D300009F0D5C128C18430910509F4ACC10597BB
:103D400009F0CDC1D50196968D919C91979740969B
:103D500097969C938E93969794962D913C919597D8
:103D60002817390724F497963C932E9396972AE0C8
:103D7000C22ED12CCA0CDB1CF50166A177A1C601AD
:103D80000E94C433FC0180818032D1F0D501969627
:103D90006D917C919797C6010E94C433FC0180818C
:103DA000803209F43FC0F50126A137A182A193A179
:103DB00082179307BCF52150304037A326A3E6CFE6
:103DC000D50196966D917C919797C6010E94C43358
:103DD000FC018081803269F4F50126A137A182A11E
:103DE00093A1821793072CF42150304037A326A3C8
:103DF000E7CFD50196966D917C919797C6010E9469
:103E0000C433FC018081803269F0F50126A137A11D
:103E100082A193A1821793072CF42150304037A33D
:103E200026A3E7CFD50196962D913C919797929630
:103E30008D919C91939794964D915C9195972817AD
:103E40003907D9F5F90170969FEA892E912C8C0ECD
:103E50009D1EE417F50704F585EBE82EF12CEC0E1A
:103E6000FD1EC701B601A901215F3F4F0E94C03668
:103E70008E0105541F4FC801B7010E942237C801A7
:103E80006EE30E94D535BC01C4010E940537C8010C
:103E90000E942F37C7010EC08E010F531F4FC8015C
:103EA000B601A9019F010E94C036C401B8010E9459
:103EB0000537C8010E942A3753C02F5F3F4FF501D5
:103EC00037A326A3205F3F4F0FEA802E912C8C0E44
:103ED0009D1E2417350704F51DECE12EF12CEC0E88
:103EE000FD1EC7016CE30E94A836D50196962D9160
:103EF0003C9197978E0109531F4FC801B601A90144
:103F0000225F3F4F0E94C036C701B8010E94FE35B4
:103F10006EE30E94D5351AC0B9EDEB2EF12CEC0EF4
:103F2000FD1EC7016CE30E94A836F50126A137A14A
:103F30008E010D521F4FC801B601A901215F3F4FED
:103F40000E94C036C701B8010E94FE35BC01C40101
:103F50000E940537C8010E942A37C7010E942F37E7
:103F600084ED98E060E142E020E048D584ED98E0FF
:103F700040D584ED98E060E040E00DD52AE330E0E4
:103F8000A20EB31E59C0D50192962D913C919397E4
:103F900097963C932E939697F901709694968D91EF
:103FA0009C919597AAE0CA2ED12CCA0CDB1CE8176D
:103FB000F90704F57FEDE72EF12CEC0EFD1EC7018D
:103FC000B601A901215F3F4F0E94C0368E010B51FF
:103FD0001F4FC801B7010E942237C8016EE30E943B
:103FE000D535BC01C4010E940537C8010E942F3796
:103FF000C7010EC08E0105511F4FC801B601A901AE
:104000009F010E94C036C401B8010E940537C80153
:104010000E942A3784ED98E060E142E020E0EED48F
:1040200084ED98E0E6D484ED98E060E040E0B3D41D
:10403000EAE3F0E0AE0EBF1E84ED98E0B5010E9409
:10404000493284ED98E060E041E0A5D484ED98E049
:10405000BE0161557F4F0E94493241C0D501139680
:104060002D913C91149721153105C9F12150304013
:1040700014963C932E9313978E010F501F4FC90136
:10408000880F991F820F931F880F991F15966D91A6
:104090007C91169718C0F50123813481818192812A
:1040A00028173907E1F02F5F3F4F348323838E01B8
:1040B00009501F4FC901880F991F820F931F880F46
:1040C000991F65817681680F791FC8010E941A3790
:1040D000C501B8010E945816C8010E942A37CE01B6
:1040E00081559F4F0E942A3713C0D50192964D915A
:1040F0005C91939790962D913C91919796968D9186
:104100009C919797841B950B8217930708F02FCCEF
:10411000C450DF4F0FB6F894DEBF0FBECDBFCF91B6
:10412000DF911F910F91FF90EF90DF90CF90BF90A4
:10413000AF909F908F900895CF92DF92EF92FF9271
:104140000F931F93DF93CF93CDB7DEB7C759D040FE
:104150000FB6F894DEBF0FBECDBF86E198E088D5DC
:1041600080913A09813061F410923A0960913D09D9
:1041700070913E096115710519F085E499E074D9D3
:1041800080918B09813009F055C283E799E06AE29A
:1041900076E00E946434882309F4A1C089E799E09D
:1041A00067E776E00E946434882309F48AC085E8D2
:1041B00099E06DE776E00E946434882309F45EC0DC
:1041C00062E0E62EF12CEC0EFD1EC70161E876E000
:1041D0000E94313685E499E060E0A70125E030E0F7
:1041E0000CE119E00E94F717C7010E942A378E01DF
:1041F000085F1F4FC8016BE876E00E94313685E406
:1042000099E066EF78E0A80121E00E94FC14C80163
:104210000E942A375EE0E52EF12CEC0EFD1EC70150
:1042200060EF78E040E050E025E030E00E94C036EA
:104230008E010C5E1F4FC80160E976E00E943136A6
:1042400085E499E0B701A80121E00E94ED13C801BF
:104250000E942A37C7010E942A378E01065E1F4F2F
:10426000C80165E976E00E94313685E499E06CEF9B
:1042700078E0A80121E00E94DE12D9C185E899E02A
:1042800069E976E00E946434882329F085E991E1A8
:1042900061E471E00CC085E899E065EA76E00E948F
:1042A0006434882339F085E991E163E271E00E948A
:1042B0007B32C0C18E01005E1F4FC80161EB76E00A
:1042C000B1C18E010A5D1F4FC8016FEE76E00E94FA
:1042D0003136C8010E948808C8010E942A3783E746
:1042E00099E061E876E00E946434882309F494C17F
:1042F00085E991E169E779E00E948D3289E799E0EB
:1043000066E277E00E946434882309F461C185E89D
:1043100099E06DE277E00E946434882309F42DC1AE
:1043200085E991E16AE071E00E947B3285E991E1E3
:104330006DEF70E00E94263260911E1270911F1284
:10434000CE0101966115710521F4BC0162527241E2
:1043500004C09C01261B370BB90185E991E14AE0B5
:1043600050E00E943B33CE018C9660E072E00E94E8
:10437000313642E3C42ED12CCC0EDD1EC60160E0E6
:1043800072E00E943136CE01C89660E072E00E9471
:1043900031363EE3E32EF12CEC0EFD1EC70160E04A
:1043A00072E00E9431368E010C5B1F4FC8016BE832
:1043B00076E00E94313685E499E0B601A80120E05C
:1043C0000E94FC14C8010E942A378E01065B1F4F11
:1043D000C801B60140E050E022E030E00E94C03663
:1043E000C701B8010E940537C8010E942A37C701DA
:1043F0000E94D9336093EE088E01005B1F4FC80105
:10440000B60143E050E025E030E00E94C036C7012D
:10441000B8010E940537C8010E942A37C7010E94CF
:10442000D9336093ED088E010A5A1F4F2EA93FA978
:10443000C801B60146E050E00E94C036C701B8018D
:104440000E940537C8010E942A37C7010E94D9334C
:10445000625B6093EF088E01045A1F4FC80160E948
:1044600076E00E94313685E499E060EF78E0A801BB
:1044700020E00E94ED13C8010E942A378E010E59D8
:104480001F4FC80160EF78E040E050E022E030E0EC
:104490000E94C036C701B8010E940537C8010E94BA
:1044A0002A37C7010E94D9336093EB088E0108595F
:1044B0001F4FC80160EF78E043E050E025E030E0B6
:1044C0000E94C036C701B8010E940537C8010E948A
:1044D0002A37C7010E94D9336093EA081092E9088D
:1044E0008E0102591F4FC80165E976E00E943136FE
:1044F00085E499E06CEF78E0A80120E00E94DE12EC
:10450000C8010E942A3700E010E0C801880F991FF7
:10451000800F911F880F991F8258914F6CEF78E0A0
:104520000E94BA34882329F40F5F1F4F073011050A
:1045300061F70093EC0889EE98E09FD0882371F42E
:104540008E010C581F4FC80162E376E00E9431369D
:10455000C8010E948808C8010E942A37CE01CE9661
:104560000E942A37CE01C8960E942A37CE01C296F1
:104570000E942A37CE018C9637C085E899E064E323
:1045800077E00E9464348823E1F085E991E164EEEC
:1045900070E00E947B32AAE7EA2EF12CEC0EFD1EA1
:1045A000C7016AE276E00E94313685E499E061E075
:1045B000A70124E030E004E019E00E94F717C701EA
:1045C00013C08E0100581F4FC8016BE377E006C08F
:1045D0008E010A571F4FC8016EE777E00E943136FF
:1045E000C8010E948808C8010E942A37FCE8EF2E03
:1045F000F12CEC0EFD1EC7016AE276E00E94313616
:1046000085E499E061E0A70124E030E004E019E0EE
:104610000E94F717C7010CC08E010E561F4FC8012C
:1046200064EB77E00E943136C8010E948808C80117
:104630000E942A3710928B09C956DF4F0FB6F894A3
:10464000DEBF0FBECDBFCF91DF911F910F91FF90C5
:10465000EF90DF90CF900895482F6AE00E943438A1
:10466000282F30E084E0220F331F8A95E1F7842F52
:104670000E943438892F820F08950F931F938C0165
:1046800082EF9EE068E670E099D382EF9EE060E002
:1046900016D4F8018081E0DF682F82EF9EE00FD40E
:1046A000F8018181D9DF682F82EF9EE008D4F801FC
:1046B0008281D2DF682F82EF9EE001D4F8018381EE
:1046C000CBDF682F82EF9EE0FAD3F8018481C4DF4C
:1046D000682F82EF9EE0F3D3F8018581BDDF682F5C
:1046E00082EF9EE0ECD3F80186818E51B5DF682F12
:1046F00082EF9EE0E4D382EF9EE022D4882321F073
:104700001092AB0E80E003C081E08093AB0E1F914E
:104710000F9108950F931F93CF93DF93EC0182EFD6
:104720009EE068E670E04AD382EF9EE060E0C7D387
:1047300082EF9EE005D4882319F01092AB0E0FC0D3
:1047400081E08093AB0E82EF9EE068E670E047E088
:1047500050E004D482EF9EE03BD3079714F480E04E
:104760005EC082EF9EE03DD3082F8F7782958F70D9
:104770001AE0819FC0011124202F2F70280F288359
:1047800082EF9EE02ED3282F22952F70219F90013B
:1047900011248F70820F898382EF9EE022D3282F0D
:1047A0002F7322952F70219F900111248F70820FFB
:1047B0008A8382EF9EE015D3282F22952F70219FA8
:1047C000900111248F70820F8B8382EF9EE009D3BA
:1047D000282F22952F70219F900111248F70820F16
:1047E0008C8382EF9EE0FDD2282F22952F70219F8F
:1047F000900111248F70820F8D8382EF9EE0F1D2A1
:10480000282F2F70225E82958F70819FC001112406
:10481000280F2E83802F8095881F8827881FDF917F
:10482000CF911F910F91089582EF9EE099C30F934E
:104830001F938C01FC01868160E0AED781E090E09F
:1048400058D6F801868161E0A7D781E090E051D683
:10485000F801868160E0A0D784E690E04AD61F91F7
:104860000F910895CF92DF92EF92FF920F931F93D3
:10487000CF93DF93D82EC92E282F392FC9018C0151
:10488000C0E0D0E0E62EFF24F801878161E0D1D6B8
:10489000B7010C2E02C0759567950A94E2F7617016
:1048A000F801878179D721960F5F1F4FC830D10556
:1048B00059F78D2D9C2DBBDFDF91CF911F910F916B
:1048C000FF90EF90DF90CF900895CF92DF92EF921C
:1048D000FF920F931F93CF93DF93D82EC92E282FCB
:1048E000392FC9018C01C0E0D0E0E62EFF24F80189
:1048F000878161E09ED6B7010C2E02C07595679541
:104900000A94E2F76170F801878146D721960F5F1C
:104910001F4FC430D10559F78D2D9C2D88DFDF91B5
:10492000CF911F910F91FF90EF90DF90CF9008955E
:104930001F93CF93DF93EC01162F8C81642F2CD71C
:104940008D818F3F11F060E027D78F8584FF04C0F1
:10495000CE01612F87DF0CC0612F70E084E0759578
:1049600067958A95E1F7CE01B0DFCE01612FADDF0B
:10497000DF91CF911F91089541E0DADF81E090E06F
:10498000089540E0D5CFFC016089862F8460808B3C
:104990006C60CF01F6CFDF93CF93CDB7DEB728970A
:1049A0000FB6F894DEBF0FBECDBF9C01FE0131965D
:1049B000ADEEB7E088E00D9001928150E1F7F9018A
:1049C0008389481710F0482F4150E42FF0E0EE0F94
:1049D000FF1FEC0FFD1F8181680F6068C901D1DFE7
:1049E00028960FB6F894DEBF0FBECDBFCF91DF91F2
:1049F000089561E0C6DF80ED97E07BC5CF93DF933C
:104A0000EC01423018F08F8588608F874B8B1C8AB1
:104A1000222329F0413019F48F8584608F8780E547
:104A200093EC67D58C8160E0B7D68E8160E0B4D618
:104A30008D818F3F11F060E0AFD66F8564FD16C0A9
:104A4000CE0163E042DF84E991E153D5CE0163E01A
:104A50003CDF84E991E14DD5CE0163E036DF86E9A4
:104A600090E047D5CE0162E030DF11C06062CE0138
:104A700088DF84E991E13DD56F856062CE0181DFF9
:104A800086E990E036D56F856062CE017ADF6F856A
:104A90006062CE0176DF84E0888BCE0174DFCE01C8
:104AA000A8DF82E0898BCE0166E06BDFDF91CF91DA
:104AB00008956F927F928F92AF92CF92EF920F9361
:104AC0001F93DF93CF93CDB7DEB73C01162F842F12
:104AD000F301448325830683E782C086A18682860C
:104AE0009E8593879F8594879889958799899687CE
:104AF00061E09FD5F30185818F3F11F061E099D589
:104B0000F301868161E095D5112319F0F301178631
:104B100003C080E1F3018787C30160E141E020E049
:104B20006DDFCF91DF911F910F91EF90CF90AF90FC
:104B30008F907F906F9008958F92AF92CF92EF9267
:104B40000F931F93CF93DF93DC01362F542F722FD7
:104B5000102FAE2C8C2C13961C921E92129789EE5D
:104B600097E011969C938E9300D00F92EDB7FEB70D
:104B70003196CDB7DEB71982118212821382CD0130
:104B800061E0432F2FEF052FE72EC12E92DF0F900C
:104B90000F900F900F90DF91CF911F910F91EF9099
:104BA000CF90AF908F900895FC0110820895EF92FE
:104BB000FF920F931F93CF93DF93EC018CD47B0173
:104BC0008C018B859C85AD85BE85A8019701281B2E
:104BD000390B4A0B5B0B89819A81AB81BC81281709
:104BE00039074A075B07E8F08881813019F0823085
:104BF00079F406C0E985FA8589899A89199508C0EA
:104C000060E08885882309F461E068878F81C4D5D6
:104C1000EB86FC860D871E878F8598890196988B79
:104C20008F872D813E8137FD06C08F859889821739
:104C300093070CF01882DF91CF911F910F91FF9095
:104C4000EF900895AC016A3088F4262F332727FDB2
:104C5000309583E190E0289FF001299FF00D389F67
:104C6000F00D1124E40FF51F10826EEF862F0895CA
:104C7000CF92DF92EF92FF920F931F93CF93DF9328
:104C80007C018C01C0E0D0E083E1C82ED12CF8017A
:104C90008081882351F0CC9DC001CD9D900DDC9D7D
:104CA000900D11248E0D9F1D82DF21960D5E1F4FEA
:104CB000CA30D10561F7DF91CF911F910F91FF901D
:104CC000EF90DF90CF900895AF92BF92CF92DF9296
:104CD000EF92FF920F931F93CF93DF93DC01690153
:104CE000E8015701FC01FF248081882341F0F394FF
:104CF00073968AE0F816C1F7FF24FA9424C02F2D8A
:104D0000332727FD309583E190E0289F8001299F7C
:104D1000100D389F100D11240A0F1B1F81E0F801A0
:104D200080834183528363837483D683C583D28611
:104D3000C186D1D3F8016387748785879687108AE7
:104D40001786B28AA18A8F2DDF91CF911F910F9183
:104D5000FF90EF90DF90CF90BF90AF900895EF92CB
:104D6000FF920F931F93780101E010E0ADDF1F91D8
:104D70000F91FF90EF900895EF92FF920F931F9382
:104D800078010FEF1FEFA0DF1F910F91FF90EF90C1
:104D900008950F931F93CF93DF93EC0100E010E091
:104DA000CE01800F911F00DF0D5E1F4F0E3B1105DE
:104DB000B9F7DF91CF911F910F91089581E0809312
:104DC000F10E6093CE0E1092EF0E1092F00E089539
:104DD0002091CD0E30E08091CC0E281B3109C90105
:104DE00008954091CC0E8091CD0E481718F02FEF0A
:104DF0003FEF0AC0E42FF0E0E455F14F8081282F07
:104E000030E04F5F4093CC0EC9010895E091CC0E85
:104E10008091CD0EE81718F0EFEFFFEF06C0F0E03D
:104E2000E455F14F8081E82FF0E0CF010895089517
:104E30001092F50E1092F40E88EE93E0A0E0B0E030
:104E40008093F60E9093F70EA093F80EB093F90EA0
:104E500089EF97E09093F30E8093F20E0895CF922E
:104E6000DF92EF92FF920F931F93CF93DF937C011A
:104E70006B018A018091F10E8823A1F0C0E0D0E09F
:104E80000DC0D701ED91FC91D601AC0FBD1F019073
:104E9000F081E02DC7016C9119952196C017D107BB
:104EA00080F303C0CB01642F02D1C801DF91CF9101
:104EB0001F910F91FF90EF90DF90CF900895DF93B7
:104EC000CF930F92CDB7DEB7FC0169838091F10ECD
:104ED0008823C9F08091F00E803238F081E090E0B4
:104EE0009383828320E030E014C08091EF0EE82F9E
:104EF000F0E0E153F14F998190838F5F8093EF0E43
:104F00008093F00E04C0CE01019661E0D0D021E084
:104F100030E0C9010F90CF91DF9108950F93062FD4
:104F20008091CE0E6FEC7EE04091F00E21E06AD0D1
:104F30001092EF0E1092F00E1092F10E0F91089554
:104F400061E0ECCF413208F040E2862F6CEA7EE06F
:104F500010D01092CC0E8093CD0E089521E0F2CFA8
:104F60001092CC0E1092CD0E1092EF0E1092F00E09
:104F70004EC2382F413210F040E042C08091FE0E08
:104F80008823E1F791E09093FE0E2093000F8FEFBE
:104F900080936B0F1092260F41504093270F4F5F65
:104FA0009093FF0E8091FF0E330F832B8093FF0EA3
:104FB0008091010F813041F41092010F8091FF0E1A
:104FC0008093BB0085EC01C085EE8093BC0080918E
:104FD000FE0E8130E1F38091260F841710F440918A
:104FE000260F20E030E00AC0FB01E20FF31FD901D9
:104FF000AA5FB04F8C9180832F5F3F4F2417A0F39F
:10500000842F08950F931F93582F122F413210F0C1
:1050100081E04AC08091FE0E8823E1F782E0809310
:10502000FE0E0093000F8FEF80936B0F1092260FF0
:105030004093270FA6E0BFE0FB0102C081918D9352
:105040008E2F861B8417D0F31092FF0E8091FF0ED7
:10505000550F852B8093FF0E8091010F813041F415
:105060001092010F8091FF0E8093BB0085EC01C070
:1050700085EE8093BC00112321F08091FE0E8230DA
:10508000E1F380916B0F8F3F11F480E00DC08091B0
:105090006B0F803211F482E007C080916B0F803378
:1050A00011F084E001C083E01F910F910895482F13
:1050B000613210F081E008958091FE0E843011F08D
:1050C00082E008956093490FA8E2BFE0842F9C011D
:1050D000F90102C081918D938E2F841B8617D0F326
:1050E00080E008951F920F920FB60F920BB60F92A9
:1050F00011242F933F934F935F936F937F938F93DD
:105100009F93AF93BF93EF93FF938091B90090E08B
:10511000887F90708036910509F4F2C08136910540
:10512000CCF58832910509F47BC089329105B4F43D
:105130008031910509F46FC0813191053CF40097ED
:1051400009F447C1089709F04FC165C0883191053E
:1051500009F466C0809709F047C182C08034910588
:1051600009F4A4C08134910544F48033910509F415
:1051700082C0C89709F038C189C08035910509F40B
:1051800089C08835910509F496C08834910509F0E5
:105190002BC1AEC08839910509F413C18939910535
:1051A000ECF48837910509F4ABC0893791054CF4CC
:1051B0008836910509F4A4C08037910509F014C11F
:1051C0009FC08838910509F4FCC08039910509F425
:1051D0009DC08038910509F007C198C0803B9105BA
:1051E00009F4C6C0813B91054CF4803A910509F45D
:1051F0009FC0883A910509F0F7C0BAC0803C91057C
:1052000009F4E3C0883C910509F4DFC0883B9105AF
:1052100009F0EAC0C2C08091FF0E8093BB00CFC0EE
:105220009091260F8091270F981768F49091260F80
:10523000E92FF0E0EA5FF04F80818093BB009F5F31
:105240009093260FBCC08091000F882309F44BC0B7
:1052500085ED8093BC008091BC0084FDFCCFC2C072
:1052600080E280936B0F85ED8093BC008091BC0041
:1052700084FDFCCFB7C080E380936B0F85ED8093F6
:10528000BC008091BC0084FDFCCFACC088E380935F
:105290006B0F9BC08091260F9091BB00E82FF0E030
:1052A000EA5FF04F90838F5F8093260F9091260FD7
:1052B0008091270F82C08091260F9091BB00E82F2C
:1052C000F0E0EA5FF04F90838F5F8093260F80912C
:1052D000000F882341F085ED8093BC008091BC00D5
:1052E00084FDFCCF7FC081E08093010F84EA6EC013
:1052F00085ED8093BC008091BC0084FDFCCF72C022
:1053000083E08093FE0E10926A0F59C080916A0F5D
:10531000803208F056C080916A0F9091BB00E82F50
:10532000F0E0E65BF04F90838F5F80936A0F47C099
:1053300080916A0F803230F4E0916A0FF0E0E65B12
:10534000F04F108285ED8093BC008091BC0084FDFD
:10535000FCCF1092FE0E60916A0FE091040FF09165
:10536000050F8AE49FE070E0199510926A0F2DC036
:1053700084E08093FE0E1092480F1092490FE09146
:10538000020FF091030F19958091490F882329F49A
:1053900081E08093490F1092280F9091480FE92FD8
:1053A000F0E0E85DF04F80818093BB009F5F9093B9
:1053B000480F9091480F8091490F981710F485EC91
:1053C00001C085E88093BC000FC085EC8093BC00D1
:1053D00009C010926B0F85ED8093BC008091BC00DA
:1053E00084FDFCCF1092FE0EFF91EF91BF91AF9123
:1053F0009F918F917F916F915F914F913F912F91ED
:105400000F900BBE0F900FBE0F901F90189510922B
:10541000FE0E81E08093000F1092010F84E161E0A5
:10542000BBD185E161E0B8D1E9EBF0E080818E7F0E
:10543000808380818D7F808388E48093B80085E4B9
:105440008093BC0008951F920F920FB60F92112403
:105450002F933F938F939F93AF93BF938091700F40
:105460009091710FA091720FB091730F3091740FE2
:105470000196A11DB11D232F2D5F2D3720F02D5733
:105480000196A11DB11D2093740F8093700F90930E
:10549000710FA093720FB093730F80916C0F909166
:1054A0006D0FA0916E0FB0916F0F0196A11DB11DF0
:1054B00080936C0F90936D0FA0936E0FB0936F0F4E
:1054C000BF91AF919F918F913F912F910F900FBE00
:1054D0000F901F9018958FB7F8942091700F30910E
:1054E000710F4091720F5091730F8FBFB901CA01B4
:1054F0000895019739F0880F991F880F991F029717
:105500000197F1F70895789484B5826084BD84B5DD
:10551000816084BD85B5826085BD85B5816085BDAE
:10552000EEE6F0E0808181608083E1E8F0E01082C7
:10553000808182608083808181608083E0E8F0E008
:10554000808181608083E1EBF0E0808184608083F2
:10555000E0EBF0E0808181608083E1E9F0E0808130
:1055600082608083808181608083E0E9F0E08081D7
:1055700081608083E1EAF0E08081826080838081C5
:1055800081608083E0EAF0E0808181608083E1E2F5
:10559000F1E0808182608083808181608083E0E2AD
:1055A000F1E0808181608083EAE7F0E080818460BF
:1055B000808380818260808380818160808380811C
:1055C000806880831092C1000895382F863308F0D8
:1055D000365320917B00832F86958695869590E0A3
:1055E0008170907043E0880F991F4A95E1F7277FFB
:1055F000282B20937B0037708091DE078295880FDF
:10560000880F807C832B80937C0080917A0080645B
:1056100080937A0080917A0086FDFCCF20917800FB
:1056200040917900942F80E030E0282B392BC9017C
:105630000895CF93DF93482F50E0CA018D509E4FBD
:10564000FC01349143555E4FFA018491882369F13E
:1056500090E0880F991FFC01E15AFE4FA591B4918B
:10566000FC01E758FE4FC591D491662351F42FB742
:10567000F8948C91932F909589238C93888189231A
:105680000BC0623061F42FB7F8948C91932F9095F2
:1056900089238C938881832B88832FBF06C09FB773
:1056A000F8948C91832B8C939FBFDF91CF910895B9
:1056B000893009F449C08A30A0F4843051F1853032
:1056C00040F4823079F1833000F5813009F063C015
:1056D00026C0873079F1883098F5863009F05BC0B4
:1056E00025C08D3009F442C08E3028F48B30B1F1E2
:1056F0008C30C0F52DC0803109F442C0813109F4ED
:1057000045C08F3009F047C037C0809180008F7747
:1057100003C0809180008F7D80938000089584B5C0
:105720008F7702C084B58F7D84BD08958091B000CD
:105730008F7703C08091B0008F7D8093B000089573
:10574000809190008F7707C0809190008F7D03C07B
:1057500080919000877F8093900008958091A000B1
:105760008F7707C08091A0008F7D03C08091A0003B
:10577000877F8093A0000895809120018F7703C0D8
:10578000809120018F7D80932001089580912001D8
:10579000877F809320010895FF920F931F93F62E29
:1057A000482F50E0CA01875C9D4FFC012491CA013B
:1057B0008D509E4FFC01149143555E4FFA010491A8
:1057C0000023C1F0222311F0822F72DFE02FF0E0DE
:1057D000EE0FFF1FE758FE4FA591B4919FB7F894C5
:1057E000FF2021F48C911095812302C08C91812B94
:1057F0008C939FBF1F910F91FF9008950F931F935C
:10580000CF93DF93BC018230910510F462E070E029
:10581000E0912012F091211240E050E0A0E0B0E0D1
:1058200024C08081918186179707D0F0861797074B
:1058300071F482819381109729F013969C938E9333
:1058400012972CC0909321128093201227C04115EB
:10585000510519F08417950718F48D01AC01EF017B
:10586000DF01828193819C01F9013097D1F64115C6
:105870005105F9F0CA01861B970B8430910580F41D
:105880008A819B810115110521F0F80193838283A0
:1058900004C09093211280932012FE01329645C0DD
:1058A000FE01E80FF91F6193719302979983888332
:1058B0003CC080911E1290911F12892B41F480915F
:1058C000E1079091E20790931F1280931E1240917E
:1058D000E3075091E4074115510541F44DB75EB718
:1058E0008091DF079091E007481B590B20911E1211
:1058F00030911F1224173507B0F4CA01821B930B95
:105900008617970780F0AB014E5F5F4F84179507AE
:1059100050F0420F531F50931F1240931E12F90173
:105920006193719302C0E0E0F0E0CF01DF91CF918D
:105930001F910F910895CF93DF939C01009709F475
:105940008FC0EC0122971B821A8260912012709105
:1059500021126115710581F488819981820F931F4D
:1059600020911E1230911F122817390739F5D09354
:105970001F12C0931E1274C0DB0140E050E0AC1750
:10598000BD0708F1BB83AA83FE0121913191E20F8B
:10599000F31FAE17BF0779F48D919C911197280FD3
:1059A000391F2E5F3F4F3983288312968D919C912A
:1059B00013979B838A834115510571F4D09321126B
:1059C000C09320124DC012968D919C911397AD01FA
:1059D000009711F0DC01D3CFDA011396DC93CE935C
:1059E0001297FA0121913191E20FF31FCE17DF07D1
:1059F00069F488819981280F391F2E5F3F4FFA0182
:105A0000318320838A819B8193838283E0E0F0E06D
:105A1000DB0112968D919C911397009719F0BC01B0
:105A2000FD01F6CFAB014E5F5F4FDB018D919C9185
:105A3000840F951F20911E1230911F1228173907CD
:105A400079F4309729F4109221121092201202C09A
:105A5000138212824250504050931F1240931E12E4
:105A6000DF91CF91089508951F920F920FB60F9274
:105A70000BB60F9211242F933F934F938F939F93C5
:105A8000EF93FF938091C00082FD1DC04091C6003E
:105A90002091B50F3091B60F2F5F3F4F2F733070AD
:105AA0008091B70F9091B80F2817390771F0E091E6
:105AB000B50FF091B60FEB58F04F40833093B60F0F
:105AC0002093B50F02C08091C600FF91EF919F9186
:105AD0008F914F913F912F910F900BBE0F900FBE62
