:100000006EC1000099C1000097C1000095C10000B9
:1000100093C1000091C100008FC100008DC100009C
:100020008BC1000089C1000087C1000085C10000AC
:1000300083C1000081C100007FC100007DC10000BC
:100040007BC1000079C1000077C1000075C10000CC
:1000500073C1000071C100006FC100000C94144016
:100060006BC100000C9425430C94794465C10000D9
:1000700063C1000061C100005FC100005DC10000FC
:100080005BC1000059C1000057C1000055C100000C
:100090000C9465430C94B8444FC100000C94633E2B
:1000A0004BC1000049C1000047C1000045C100002C
:1000B00043C1000041C100003FC100003DC100003C
:1000C0003BC1000039C1000037C100000C94A543BA
:1000D0000C94F74431C100000C94E5430C94364570
:1000E0002BC100005254435F75692D2D3E6163742E
:1000F000696F6E2D2D3E43616E63656C00467265BF
:100100006520536372616D203D005254435F7569F1
:100110002D2D3E616374696F6E2D2D3E7570646187
:100120007465004D61696E5F55492D2D3E536574B0
:1001300055702D2D3E466C6F775F73656E736F72D1
:10014000004D61696E5F55492D2D3E5365745570A4
:100150002D2D3E54656D705F73656E736F7200690F
:100160006E697469616C697A6174696F6E20646F1D
:100170006E652E00696E697469616C697A61746973
:100180006F6E206661696C656421006572726F72C2
:10019000206F70656E696E6720534446696C653DDB
:1001A000007C3C3E5E2B3D3F2F5B5D3B2C2A225C5E
:1001B0000000002100240027002A002D0030003319
:1001C0000001010000040107010A010000220025CE
:1001D0000028002B002E0031003400020100000531
:1001E0000108010B01000020002300260029002C3B
:1001F000002F003200000100000301060109010583
:10020000050505070508080808020202020A0A088F
:1002100008040404040101010101010101030303B5
:100220000303030303040707070C0C0C0C0C0C0C52
:100230000C0202020206060606060606060B0B0B59
:100240000B0B0B0B0B010210202008081020401094
:10025000204080020102010804020101020408108A
:1002600020408080402010080402018004020180A8
:1002700040201008040201080402010102040810D1
:1002800020408001020408102040800000090A027A
:10029000080B0C0D0706030401000000000000001D
:1002A000000000000000000000000000000000004E
:1002B0000000000000000011100F0000000000000E
:1002C000000000000000000000000000000000002E
:1002D0000000E108C125FD28093DA846DC081124DD
:1002E0001FBECFEFD1E2DEBFCDBF00E00CBF18E0F4
:1002F000A0E0B2E0E8E8FDE900E00BBF02C0079033
:100300000D92A23CB107D9F71BBE15E1A2ECB8E0F3
:1003100001C01D92A734B107E1F712E0CCEDD2E0A5
:1003200004C02297FE010E94A94EC23DD107C9F721
:100330000E94DF470C94B84E63CE1F93FC019927AF
:100340008827BC01E89411911032E9F3193010F0BC
:100350001E30C8F31B3249F01D3241F4689405C0C9
:1003600080D0610F711D811D911D119110531A30A4
:10037000B8F33EF490958095709561957F4F8F4FBF
:100380009F4F1F910895FB01DC0104C08D910190E6
:10039000801921F441505040C8F7881B990B0895EB
:1003A000FB01DC0102C001900D9241505040D8F792
:1003B0000895FC018191861721F08823D9F79927A8
:1003C00008953197CF010895FB01DC018D910190D3
:1003D00080190110D9F3990B0895FB01DC010190FC
:1003E0000D920020E1F70895FB01DC0141505040DF
:1003F00030F08D910190801919F40020B9F7881B15
:10040000990B0895FB01DC014150504048F00190E8
:100410000D920020C9F701C01D9241505040E0F7F5
:100420000895FB019F01E8944230C4F04532B4F4D2
:100430004A3029F497FB1EF4909581959F4F642FC5
:1004400077270E94934E805D8A330CF0895D8193FB
:10045000CB010097A1F716F45DE251931082C90118
:100460002AC0592F482F372F262F660F771F881F36
:10047000991F660F771F881F991F620F731F841FB4
:10048000951F660F771F881F991F0895FB019F0115
:10049000423074F0453264F4642F77270E94934E03
:1004A000805D8A330CF0895D8193CB010097A1F7C1
:1004B0001082C90100C0DC01FC01672F7191772314
:1004C000E1F7329704C07C916D9370836291AE170F
:1004D000BF07C8F30895EF92FF920F931F937C011B
:1004E00000E012E00A96B8010E944F4CC701409606
:1004F000B8010E944F4CC7014696B8010E944F4C6C
:10050000C7014C96B8010E944F4CC7018E96B801A6
:100510000E944F4CC701C496B8010E944F4CC701BE
:10052000CA96B8010E944F4CC701805C9F4FB8012A
:100530000E944F4CF70117A216A21F910F91FF9036
:10054000EF900895CF92EF920F93CF93DF93813086
:10055000910509F08CC56F5F7F4F09F027C682ECCB
:1005600098E00E949B278DED98E00E94BA3C8BE9B1
:1005700099E068E049E024E005E056E0E52E37E048
:10058000C32E0E94632787EB99E060E072E00E942F
:100590004F4C8DEB99E060E072E00E944F4C83EC91
:1005A00099E060E072E00E944F4C8BEC99E061E0D2
:1005B00072E00E944F4C81ED99E068E372E00E9486
:1005C0004F4C87ED99E061E872E00E944F4C8DED51
:1005D00099E06AEC72E00E944F4C83EE99E060EF84
:1005E00072E00E944F4C89EE99E067E473E00E944C
:1005F0004F4C8FEE99E06BE773E00E944F4C85EF14
:1006000099E065EA73E00E944F4C8BEF99E06DEC46
:1006100073E00E944F4C81E09AE066EF73E00E9425
:100620004F4C87E09AE06CE374E00E944F4C88E105
:100630009AE051DF8FE59AE062E774E00E944F4C48
:1006400085E69AE065E774E00E944F4C8BE69AE0FD
:1006500068E774E00E944F4C81E79AE06BE774E032
:100660000E944F4C87E79AE06EE774E00E944F4C7F
:100670008DE79AE061E874E00E944F4C83E89AE0CD
:1006800064E874E00E944F4C89E89AE067E874E0FF
:100690000E944F4C8FE89AE06AE874E00E944F4C49
:1006A00085E99AE06DE874E00E944F4C8BE99AE08E
:1006B00060E974E00E944F4C81EA9AE063E974E0DB
:1006C0000E944F4C87EA9AE062E774E00E944F4C28
:1006D0008DEA9AE065E774E00E944F4C83EB9AE064
:1006E00068E774E00E944F4C89EB9AE06BE774E096
:1006F0000E944F4C8FEB9AE06EE774E00E944F4CE3
:1007000085EC9AE061E874E00E944F4C8BEC9AE033
:1007100064E874E00E944F4C81ED9AE067E874E071
:100720000E944F4C87ED9AE06AE874E00E944F4CBB
:100730008DED9AE06DE874E00E944F4C83EE9AE0F4
:1007400060E974E00E944F4C89EE9AE063E974E03E
:100750000E944F4C8FEE9AE066E974E00E944F4C85
:1007600085EF9AE069E974E00E944F4C8BEF9AE0C4
:100770006CE974E00E944F4C81E09BE06FE974E00B
:100780000E944F4C87E09BE062EA74E00E944F4C6D
:100790008DE09BE065EA74E00E944F4C83E19BE0B2
:1007A00068EA74E00E944F4C89E19BE06BEA74E0D8
:1007B0000E944F4C8FE19BE06EEA74E00E944F4C28
:1007C00085E29BE061EB74E00E944F4C8BE29BE082
:1007D00064EB74E00E944F4C81E39BE067EB74E0B4
:1007E0000E944F4C87E39BE06AEB74E00E944F4C01
:1007F0008DE39BE06DEB74E00E944F4C83E49BE043
:1008000060EC74E00E944F4C89E49BE063EC74E080
:100810000E944F4C8FE49BE066EC74E00E944F4CCA
:1008200085E59BE069EC74E00E944F4C8BE59BE012
:100830006CEC74E00E944F4C81E69BE06FEC74E03E
:100840000E944F4C87E69BE061ED74E00E944F4CA4
:100850008DE69BE063ED74E00E944F4C83E79BE0E4
:1008600065ED74E00E944F4C89E79BE067ED74E012
:100870000E944F4C8FE79BE069ED74E00E944F4C63
:1008800085E89BE06BED74E00E944F4C8BE89BE0A9
:100890006DED74E00E944F4C81E99BE06FED74E0D8
:1008A0000E944F4C87E99BE061EE74E00E944F4C40
:1008B0008DE99BE063EE74E00E944F4C83EA9BE07D
:1008C00062E774E00E944F4C89EA9BE065E774E0C0
:1008D0000E944F4C8FEA9BE068E774E00E944F4C07
:1008E00085EB9BE06BE774E00E944F4C8BEB9BE049
:1008F0006EE774E00E944F4C81EC9BE061E874E08D
:100900000E944F4C87EC9BE064E874E00E944F4CDF
:100910008DEC9BE067E874E00E944F4C83ED9BE018
:100920006AE874E00E944F4C89ED9BE06DE874E04A
:100930000E944F4C8FED9BE060E974E00E944F4CA9
:1009400085EE9BE063E974E00E944F4C8BEE9BE0E8
:1009500066E974E00E944F4C81EF9BE069E974E026
:100960000E944F4C87EF9BE06CE974E00E944F4C73
:100970008DEF9BE06FE974E00E944F4C83E09CE0B8
:1009800062EA74E00E944F4C89E09CE065EA74E002
:100990000E944F4C8FE09CE068EA74E00E944F4C4C
:1009A00085E19CE06BEA74E00E944F4C8BE19CE097
:1009B0006EEA74E00E944F4C81E29CE061EB74E0CF
:1009C0000E944F4C87E29CE064EB74E00E944F4C25
:1009D0008DE29CE063EE74E00E944F4C83E39CE068
:1009E00062E774E00E944F4C89E39CE065E774E0A5
:1009F0000E944F4C8FE39CE068E774E00E944F4CEC
:100A000085E49CE06BE774E00E944F4C8BE49CE033
:100A10006EE774E00E944F4C81E59CE061E874E071
:100A20000E944F4C87E59CE064E874E00E944F4CC4
:100A30008DE59CE067E874E00E944F4C83E69CE003
:100A40006AE874E00E944F4C89E69CE06DE874E02F
:100A50000E944F4C8FE69CE060E974E00E944F4C8E
:100A600085E79CE063E974E00E944F4C8BE79CE0D3
:100A700066E974E00E944F4C81E89CE069E974E00B
:100A80000E944F4C87E89CE06CE974E00E944F4C58
:100A90008DE89CE06FE974E00E944F4C83E99CE094
:100AA00062EA74E00E944F4C89E99CE065EA74E0D8
:100AB0000E944F4C8FE99CE068EA74E00E944F4C22
:100AC00085EA9CE06BEA74E00E944F4C8BEA9CE064
:100AD0006EEA74E00E944F4C81EB9CE061EB74E0A5
:100AE0000E944F4C87EB9CE064EB74E00E944F4CFB
:100AF0008DEB9CE067EB74E00E944F4C83EC9CE034
:100B00006AEB74E00E944F4C89EC9CE06DEB74E062
:100B10000E944F4C8FEC9CE060EC74E00E944F4CC4
:100B200085ED9CE063EC74E00E944F4C8BED9CE003
:100B300066EC74E00E944F4C81EE9CE069EC74E03E
:100B40000E944F4C87EE9CE06CEC74E00E944F4C8E
:100B50008DEE9CE066EE74E00E944F4C83EF9CE0CB
:100B600069EE74E00E944F4C89EF9CE06CEE74E0FB
:100B70000E944F4C8FEF9CE06FEE74E00E944F4C50
:100B800085E09DE062EF74E00E944F4C8BE09DE0B9
:100B900065EF74E00E944F4C81E19DE068EF74E0E6
:100BA0000E944F4C87E19DE06BEF74E00E944F4C38
:100BB0008DE19DE06EEF74E00E944F4C83E29DE07A
:100BC00061E075E00E944F4C89E29DE064E075E0D1
:100BD0000E944F4C8FE29DE067E075E00E944F4C11
:100BE00085E39DE06AE075E00E944F4C8BE39DE059
:100BF0006DE075E00E944F4C81E49DE060E175E09E
:100C00000E944F4C87E49DE063E175E00E944F4CE9
:100C10008DE49DE066E175E00E944F4C83E59DE028
:100C200069E175E00E944F4C89E59DE06CE175E05B
:100C30000E944F4C8FE59DE06FE175E00E944F4CA4
:100C400085E69DE062E275E00E944F4C8BE69DE0F8
:100C500065E275E00E944F4C81E79DE068E275E037
:100C60000E944F4C87E79DE06BE275E00E944F4C7D
:100C70008DE79DE06EE275E00E944F4C83E89DE0B9
:100C800061E375E00E944F4C89E89DE064E375E004
:100C90000E944F4C8FE89DE067E375E00E944F4C47
:100CA00085E99DE06FEC74E00E944F4C8BE99DE07C
:100CB00061ED74E00E944F4C81EA9DE063ED74E0C9
:100CC0000E944F4C87EA9DE065ED74E00E944F4C16
:100CD0008DEA9DE067ED74E00E944F4C83EB9DE050
:100CE00069ED74E00E944F4C89EB9DE06BED74E080
:100CF0000E944F4C8FEB9DE06DED74E00E944F4CD5
:100D000085EC9DE06FED74E00E944F4C8BEC9DE014
:100D100061EE74E00E944F4C81ED9DE06AE375E066
:100D20000E944F4C87ED9DE06CE375E00E944F4CB4
:100D30008DED9DE06EE375E00E944F4C83EE9DE0EB
:100D400060E475E00E944F4C89EE9DE062E475E03E
:100D50000E944F4C8FEE9DE064E475E00E944F4C82
:100D600085EF9DE066E475E00E944F4C8BEF9DE0BF
:100D700068E475E00E944F4C81E09EE06AE475E013
:100D80000E944F4C87E09EE06CE475E00E944F4C5F
:100D90008DE09EE06EE475E00E944F4C83E19EE0A2
:100DA00060E575E00E944F4C89E19EE062E575E0E8
:100DB0000E944F4C8FE19EE064E575E00E944F4C2D
:100DC00085E29EE066E575E00E944F4C8BE29EE076
:100DD00068E575E00E944F4C81E39EE06AE575E0AE
:100DE0000E944F4C87E39EE06CE575E00E944F4CFB
:100DF0008DE39EE06EE575E00E944F4C83E49EE03B
:100E000060E675E00E944F4C89E49EE062E675E082
:100E10000E944F4C8FE49EE064E675E00E944F4CC8
:100E200085E59EE066E675E00E944F4C8BE59EE00E
:100E300068E675E00E944F4C81E69EE06AE675E048
:100E40000E944F4C87E69EE06CE675E00E944F4C96
:100E50008DE69EE06EE675E00E944F4C83E79EE0D3
:100E600060E775E00E944F4C89E79EE062E775E01D
:100E70000E944F4C8FE79EE064E775E00E944F4C64
:100E800085E89EE066E775E00E944F4C8BE89EE0A7
:100E900068E775E00E944F4C81E99EE06AE775E0E3
:100EA0000E944F4C87E99EE06CE775E00E944F4C32
:100EB0008DE99EE06EE775E00E944F4C83EA9EE06C
:100EC00060E875E00E944F4C89EA9EE062E875E0B8
:100ED0000E944F4C8FEA9EE064E875E00E944F4C00
:100EE00085EB9EE066E875E00E944F4C8BEB9EE040
:100EF00068E875E00E944F4C81EC9EE06AE875E07E
:100F00000E944F4C87EC9EE06CE875E00E944F4CCD
:100F10008DEC9EE06EE875E00E944F4C83ED9EE004
:100F200060E975E00E944F4C89ED9EE062E975E052
:100F30000E944F4C8FED9EE064E975E00E944F4C9B
:100F400085EE9EE066E975E00E944F4C8BEE9EE0D8
:100F500068E975E00E944F4C81EF9EE06AE975E018
:100F60000E944F4C87EF9EE06CE975E00E944F4C69
:100F70008DEF9EE06EE975E00E944F4C83E09FE0AC
:100F800060EA75E00E944F4C89E09FE06FEC74E0EE
:100F90000E944F4C8FE09FE061ED74E00E944F4C47
:100FA00085E19FE063ED74E00E944F4C8BE19FE090
:100FB00065ED74E00E944F4C81E29FE067ED74E0C4
:100FC0000E944F4C87E29FE069ED74E00E944F4C15
:100FD0008DE29FE06BED74E00E944F4C83E39FE055
:100FE0006DED74E00E944F4C89E39FE06FED74E07B
:100FF0000E944F4C8FE39FE061EE74E00E944F4CE3
:1010000085E49FE062EA75E00E944F4C8BE49FE02C
:1010100064EA75E00E944F4C81E59FE066EA75E066
:101020000E944F4C87E59FE06AEA75E00E944F4CB2
:101030008DE59FE06EEA75E00E944F4C83E69FE0ED
:1010400062EB75E00E944F4C89E69FE066EB75E02D
:101050000E944F4C8FE69FE06AEB75E00E944F4C78
:1010600085E79FE06EEB75E00E944F4C9FC0892B97
:1010700009F09CC06F5F7F4F09F098C0C5E7DFE0C3
:10108000CE010E94484D26978FE0CB34D807C1F798
:10109000CBE4DFE0CE010E94484D26978DE0CB3CAB
:1010A000D807C1F7CBECDDE0CE010E94484D269772
:1010B0008DE0CF38D807C1F7CFE8DDE0CE010E9440
:1010C000484D26978CE0C732D807C1F7C7E2DCE06D
:1010D000CE010E94484D26978BE0C739D807C1F74B
:1010E000C7E9DBE0CE010E94484D26978BE0CB3567
:1010F000D807C1F7CBE5DBE0CE010E94484D26972B
:101100008AE0C13AD807C1F7C1EADAE0CE010E940D
:10111000484D26978AE0C935D807C1F788E59AE097
:101120000E94484D82E59AE00E94484D8CE49AE086
:101130000E94484D86E49AE00E94484D84E39AE07C
:101140000E94484D8EE29AE00E94484D88E29AE063
:101150000E94484D82E29AE00E94484D87E09AE062
:101160000E94484D81E09AE00E94484DCBEFD9E0C3
:10117000CE010E94484D269789E0CD3DD807C1F7A2
:10118000CDEDD9E0CE010E94484D269789E0C53CBF
:10119000D807C1F783EC99E00E94484D8DEB99E0A8
:1011A0000E94484D87EB99E00E94484DDF91CF9116
:1011B0000F91EF90CF90089580E090E06FEF7FEF78
:1011C000C1C981E090E06FEF7FEFBCC9BC018AEB41
:1011D00094E10C947E48EF92FF920F931F93DF935C
:1011E000CF93CDB7DEB7C257D0400FB6F894DEBF6D
:1011F0000FBECDBF80EB99E00E942B25882309F418
:101200007DC1CE01019660E072E00E944F4CB7E0D4
:10121000EB2EF12CEC0EFD1EC70160E072E00E9487
:101220004F4C8E01035F1F4FC8016091B2094AE025
:101230000E94964CC701B8010E94234DC8010E942C
:10124000484D8B859C85019791F48E010D5E1F4F53
:10125000C80160E30E94C64CC801B7010E941C4C43
:10126000BC01C7010E94234DC8010E944D4D8E0153
:10127000075E1F4FA7E0EA2EF12CEC0EFD1EC80101
:10128000B7010E94404DC80162EC75E00E94024C1B
:10129000BC0187EB99E00E94234DC8010E944D4D8F
:1012A0008E01015E1F4FC8016091B1094AE00E94A2
:1012B000964CC701B8010E94234DC8010E94484DB9
:1012C0008B859C85019791F48E010B5D1F4FC801A2
:1012D00060E30E94C64CC801B7010E941C4CBC01CF
:1012E000C7010E94234DC8010E944D4D8E01055D2E
:1012F0001F4FC80167EB79E00E94404DF7E0EF2EE9
:10130000F12CEC0EFD1EC801B7010E941C4C62ECD2
:1013100075E00E94024CBC0187EB99E00E94234DCE
:10132000C8010E944D4D8E010F5C1F4FC801609196
:10133000B0094AE00E94964CC701B8010E94234DB3
:10134000C8010E94484D8B859C85019791F48E01C0
:10135000095C1F4FC80160E30E94C64CC801B70179
:101360000E941C4CBC01C7010E94234DC8010E9471
:101370004D4D8E01035C1F4FC80167EB79E00E9461
:10138000404DE7E0EE2EF12CEC0EFD1EC801B7013A
:101390000E941C4CBC0187EB99E00E94234DC801C0
:1013A0000E944D4D8E010D5B1F4FC8016091B50924
:1013B0004AE00E94964CC701B8010E94234DC80123
:1013C0000E94484D8B859C85019791F48E01075BA7
:1013D0001F4FC80160E30E94C64CC801B7010E94BC
:1013E0001C4CBC01C7010E94234DC8010E944D4DF9
:1013F0008E01015B1F4F77E0E72EF12CEC0EFD1EF6
:10140000C801B7010E94404DC80164EC75E00E941C
:10141000024CBC018DEB99E00E94234DC8010E9453
:101420004D4D8E010B5A1F4FC8016091B4094AE01F
:101430000E94964CC701B8010E94234DC8010E942A
:10144000484D8B859C85019791F48E01055A1F4F5D
:10145000C80160E30E94C64CC801B7010E941C4C41
:10146000BC01C7010E94234DC8010E944D4D8E0151
:101470000F591F4FC8016DEB79E00E94404D67E0A6
:10148000E62EF12CEC0EFD1EC801B7010E941C4C8B
:1014900064EC75E00E94024CBC018DEB99E00E9467
:1014A000234DC8010E944D4D8E0109591F4FC8019F
:1014B0006DEB79E00E94404D6091B60970E06E548A
:1014C000784FC8010E94E44BBC018DEB99E00E946B
:1014D000234DC8010E944D4D6091B30986E0689F7D
:1014E000B00111246F5A704F83EC99E00E94234D94
:1014F000C7010E94484DCE01019616C080917E0F13
:10150000882339F08AEB94E166EC75E00E94A449E7
:101510000DC08E0103591F4FC80165EF75E00E9491
:101520004F4CC80153DEC8010E94484DCE58DF4FD2
:101530000FB6F894DEBF0FBECDBFCF91DF911F91E4
:101540000F91FF90EF9008954F925F926F927F926C
:101550008F929F92AF92BF92CF92DF92EF92FF92C3
:101560000F931F93DF93CF93CDB7DEB7A4970FB63A
:10157000F894DEBF0FBECDBF3C01A62E8E010F5FDB
:101580001F4FC80160E072E00E944F4CCE010796E9
:1015900060E072E00E944F4CBAE04B2E512C460C9A
:1015A000571CF30126A137A1ADE0EA2EF12CEC0E79
:1015B000FD1EC701B201A9012F5F3F4F0E94DE4C03
:1015C000C801B7010E94234DC7010E94484DEE2477
:1015D000FF24C02E012FB701660F771F6E0D7F1DF0
:1015E000660F771F6F52724F8C2D902F0E94D84A32
:1015F000882341F4F0E4EF16F10421F00894E11C93
:10160000F11CE9CFAA2051F08FE3E816F1041CF099
:1016100080E090E00BC0C701019608C0E114F1041E
:1016200019F48FE390E002C0C701019757E0852EBF
:10163000912C8C0E9D1EBC01660F771F680F791FC1
:10164000660F771F6F52724FC4010E94234D23E132
:10165000A22EB12CAC0EBD1EF30126A137A1C501EF
:10166000B20140E050E00E94DE4C99E1C92ED12C3D
:10167000CC0EDD1EC601B5010E94404DC601B4016D
:101680000E941C4C8C018FE1E82EF12CEC0EFD1E0B
:10169000F30146A157A14F5F5F4F26853785C701EC
:1016A000B2010E94DE4CC801B7010E941C4CBC0173
:1016B0008E010F5F1F4FC8010E94234DC7010E947A
:1016C000484DC6010E944D4DC5010E94484DC201C2
:1016D000B8010E94234DC4010E94484DC8010E94D8
:1016E000484DA4960FB6F894DEBF0FBECDBFCF9184
:1016F000DF911F910F91FF90EF90DF90CF90BF90FF
:10170000AF909F908F907F906F905F904F900895D3
:101710004F925F926F927F928F929F92AF92BF9201
:10172000CF92DF92EF92FF920F931F93DF93CF93AD
:10173000CDB7DEB7A4970FB6F894DEBF0FBECDBF0E
:101740003C01D62E7E010894E11CF11CC70160E02B
:1017500072E00E944F4CCE01079660E072E00E945A
:101760004F4C6AE0462E512C460C571CF30126A123
:1017700037A18E01035F1F4FC801B201A9012F5F7E
:101780003F4F0E94DE4CC701B8010E94234DC801A3
:101790000E94484DC7010E94CA49DD2049F06930C6
:1017A00071051CF080E090E00BC0CB01019608C0F1
:1017B000161617061CF089E090E002C0CB010197D5
:1017C00057E0852E912C8C0E9D1EBC01660F771F55
:1017D000680F791F660F771F6B56724FC4010E9406
:1017E000234D23E1A22EB12CAC0EBD1EF30126A188
:1017F00037A1C501B20140E050E00E94DE4C99E102
:10180000C92ED12CCC0EDD1EC601B5010E94404D63
:10181000C601B4010E941C4C8C018FE1E82EF12C12
:10182000EC0EFD1EF30146A157A14F5F5F4F2685C9
:101830003785C701B2010E94DE4CC801B7010E9482
:101840001C4CBC018E010F5F1F4FC8010E94234D2D
:10185000C7010E94484DC6010E944D4DC5010E941E
:10186000484DC201B8010E94234DC4010E94484D59
:10187000C8010E94484DA4960FB6F894DEBF0FBE73
:10188000CDBFCF91DF911F910F91FF90EF90DF902F
:10189000CF90BF90AF909F908F907F906F905F9010
:1018A0004F9008954F925F926F927F928F929F9286
:1018B000AF92BF92CF92DF92EF92FF920F931F935E
:1018C000DF93CF93CDB7DEB7A4970FB6F894DEBF02
:1018D0000FBECDBF3C01D62E7E010894E11CF11C49
:1018E000C70160E072E00E944F4CCE01079660E0B5
:1018F00072E00E944F4C0AE0402E512C460C571CBF
:10190000F30126A137A18E01035F1F4FC801B20169
:10191000A9012E5F3F4F0E94DE4CC701B8010E9413
:10192000234DC8010E94484DC7010E94CA49DD20CD
:1019300049F06B3371051CF080E090E00BC0CB01E7
:10194000019608C0161617061CF08BE390E002C043
:10195000CB01019717E0812E912C8C0E9D1EBC01AE
:10196000660F771F680F791F660F771F635D734FD0
:10197000C4010E94234DF3E1AF2EB12CAC0EBD1E6D
:10198000F30126A137A1C501B20140E050E00E9459
:10199000DE4CE9E1CE2ED12CCC0EDD1EC601B50108
:1019A0000E94404DC601B4010E941C4C8C017FE195
:1019B000E72EF12CEC0EFD1EF30146A157A14E5F60
:1019C0005F4F26853785C701B2010E94DE4CC801F2
:1019D000B7010E941C4CBC018E010F5F1F4FC80154
:1019E0000E94234DC7010E94484DC6010E944D4DE3
:1019F000C5010E94484DC201B8010E94234DC40197
:101A00000E94484DC8010E94484DA4960FB6F89414
:101A1000DEBF0FBECDBFCF91DF911F910F91FF9021
:101A2000EF90DF90CF90BF90AF909F908F907F907E
:101A30006F905F904F9008954F925F926F927F9258
:101A40008F929F92AF92BF92CF92DF92EF92FF92CE
:101A50000F931F93DF93CF93CDB7DEB7A4970FB645
:101A6000F894DEBF0FBECDBF3C01D62E7E01089498
:101A7000E11CF11CC70160E072E00E944F4CCE01F6
:101A8000079660E072E00E944F4C6AE0462E512CAF
:101A9000460C571CF30126A137A18E01035F1F4F8F
:101AA000C801B201A9012E5F3F4F0E94DE4CC70161
:101AB000B8010E94234DC8010E94484DC7010E94F1
:101AC000CA49DD2049F0673171051CF080E090E0E3
:101AD0000BC0CB01019608C0161617061CF087E153
:101AE00090E002C0CB01019757E0852E912C8C0E1F
:101AF0009D1EBC01660F771F680F791F660F771F49
:101B00006356744FC4010E94234D23E1A22EB12CD1
:101B1000AC0EBD1EF30126A137A1C501B20140E004
:101B200050E00E94DE4C99E1C92ED12CCC0EDD1E76
:101B3000C601B5010E94404DC601B4010E941C4C73
:101B40008C018FE1E82EF12CEC0EFD1EF30146A175
:101B500057A14E5F5F4F26853785C701B2010E94AE
:101B6000DE4CC801B7010E941C4CBC018E010F5F06
:101B70001F4FC8010E94234DC7010E94484DC60156
:101B80000E944D4DC5010E94484DC201B8010E94FE
:101B9000234DC4010E94484DC8010E94484DA4969F
:101BA0000FB6F894DEBF0FBECDBFCF91DF911F916E
:101BB0000F91FF90EF90DF90CF90BF90AF909F90EC
:101BC0008F907F906F905F904F9008954F925F92AB
:101BD0006F927F928F929F92AF92BF92CF92DF923D
:101BE000EF92FF920F931F93DF93CF93CDB7DEB7A2
:101BF000A4970FB6F894DEBF0FBECDBF3C01A62E52
:101C00008E010F5F1F4FC80160E072E00E944F4CD1
:101C1000CE01079660E072E00E944F4C5AE0452EDC
:101C2000512C460C571CF30126A137A14DE0E42EA0
:101C3000F12CEC0EFD1EC701B201A9012D5F3F4F33
:101C40000E94DE4CC801B7010E94234DC7010E94CB
:101C5000484DEE24FF24C02E012FB701660F771FD9
:101C60006E0D7F1D660F771F6F5A704F8C2D902F52
:101C70000E94D84A882341F4F6E0EF16F10421F0DF
:101C80000894E11CF11CE9CFAA2051F086E0E81687
:101C9000F1041CF080E090E00BC0C701019608C081
:101CA000E114F10419F486E090E002C0C701019745
:101CB00017E0812E912C8C0E9D1EBC01660F771FA4
:101CC000680F791F660F771F6F5A704FC4010E940B
:101CD000234DF3E1AF2EB12CAC0EBD1EF30126A1B6
:101CE00037A1C501B20140E050E00E94DE4CE9E1BD
:101CF000CE2ED12CCC0EDD1EC601B5010E94404D6A
:101D0000C601B4010E941C4C8C017FE1E72EF12C2E
:101D1000EC0EFD1EF30146A157A14D5F5F4F2685D6
:101D20003785C701B2010E94DE4CC801B7010E948D
:101D30001C4CBC018E010F5F1F4FC8010E94234D38
:101D4000C7010E94484DC6010E944D4DC5010E9429
:101D5000484DC201B8010E94234DC4010E94484D64
:101D6000C8010E94484DA4960FB6F894DEBF0FBE7E
:101D7000CDBFCF91DF911F910F91FF90EF90DF903A
:101D8000CF90BF90AF909F908F907F906F905F901B
:101D90004F9008954F925F926F927F928F929F9291
:101DA000AF92BF92CF92DF92EF92FF920F931F9369
:101DB000DF93CF93CDB7DEB7A4970FB6F894DEBF0D
:101DC0000FBECDBF3C01D62E7E010894E11CF11C54
:101DD000C70160E072E00E944F4CCE01079660E0C0
:101DE00072E00E944F4C1AE0412E512C460C571CB9
:101DF000F30126A137A18E01035F1F4FC801B20175
:101E0000A9012F5F3F4F0E94DE4CC701B8010E941D
:101E1000234DC8010E94484DC7010E94CA49DD20D8
:101E200049F0693071051CF080E090E00BC0CB01F7
:101E3000019608C0161617061CF089E090E002C053
:101E4000CB010197B7E08B2E912C8C0E9D1EBC010F
:101E5000660F771F680F791F660F771F6F59744FD2
:101E6000C4010E94234DE3E1AE2EB12CAC0EBD1E89
:101E7000F30126A137A1C501B20140E050E00E9464
:101E8000DE4C79E1C72ED12CCC0EDD1EC601B5018A
:101E90000E94404DC601B4010E941C4C8C016FE1B0
:101EA000E62EF12CEC0EFD1EF30146A157A14F5F6B
:101EB0005F4F26853785C701B2010E94DE4CC801FD
:101EC000B7010E941C4CBC018E010F5F1F4FC8015F
:101ED0000E94234DC7010E94484DC6010E944D4DEE
:101EE000C5010E94484DC201B8010E94234DC401A2
:101EF0000E94484DC8010E94484DA4960FB6F89420
:101F0000DEBF0FBECDBFCF91DF911F910F91FF902C
:101F1000EF90DF90CF90BF90AF909F908F907F9089
:101F20006F905F904F9008954F925F926F927F9263
:101F30008F929F92AF92BF92CF92DF92EF92FF92D9
:101F40000F931F93DF93CF93CDB7DEB7A4970FB650
:101F5000F894DEBF0FBECDBF3C01D62E7E010894A3
:101F6000E11CF11CC70160E072E00E944F4CCE0101
:101F7000079660E072E00E944F4C6AE0462E512CBA
:101F8000460C571CF30126A137A18E01035F1F4F9A
:101F9000C801B201A9012E5F3F4F0E94DE4CC7016C
:101FA000B8010E94234DC8010E94484DC7010E94FC
:101FB000CA499B0121503040DD2041F02E313105CE
:101FC0001CF080E090E00AC0CB0108C01216130696
:101FD0001CF08EE190E002C0C901019757E0852E08
:101FE000912C8C0E9D1EBC01660F771F680F791F08
:101FF000660F771F6955754FC4010E94234D23E179
:10200000A22EB12CAC0EBD1EF30126A137A1C50135
:10201000B20140E050E00E94DE4C99E1C92ED12C83
:10202000CC0EDD1EC601B5010E94404DC601B401B3
:102030000E941C4C8C018FE1E82EF12CEC0EFD1E51
:10204000F30146A157A14E5F5F4F26853785C70133
:10205000B2010E94DE4CC801B7010E941C4CBC01B9
:102060008E010F5F1F4FC8010E94234DC7010E94C0
:10207000484DC6010E944D4DC5010E94484DC20108
:10208000B8010E94234DC4010E94484DC8010E941E
:10209000484DA4960FB6F894DEBF0FBECDBFCF91CA
:1020A000DF911F910F91FF90EF90DF90CF90BF9045
:1020B000AF909F908F907F906F905F904F9008951A
:1020C0000F931F938823D1F08DED98E048EE53E0F5
:1020D00060E070E02BEE38E003E010E00E94AD3CE1
:1020E000992787FD90959093CA098093C9098AEB37
:1020F00094E165E276E00E94A44906C08DED98E087
:102100006091C9090E94133C1F910F9108950F938C
:102110001F9380917B0F6623C9F0882309F58DED0D
:1021200098E044EF51E060E070E02DE133E102E03F
:1021300010E00E94AD3C992787FD909590937D0F0C
:1021400080937C0F81E080937B0F0AC0813041F443
:102150008DED98E060917C0F0E94133C10927B0FF4
:102160001F910F91089580910E0A90910F0A9093FC
:10217000130A8093120A80E00E94D6409C0190933B
:102180000F0A80930E0A4091120A5091130A841B81
:10219000950B05960B9798F581E080930D0AC90180
:1021A0008C589040099718F483E090E01EC0C90154
:1021B00085549140099718F484E090E016C0C90155
:1021C0000496099718F485E090E00FC0C901855F77
:1021D0009140099718F482E090E007C0225E3240F7
:1021E0002930310538F481E090E09093110A809312
:1021F000100A08951092110A1092100A04C0509308
:102200000F0A40930E0A10920D0A08950F931F9320
:1022100080910E0A90910F0A9093130A8093120AEC
:1022200080E00E94D64090930F0A80930E0A20917E
:10223000120A3091130A821B930B97FF03C09095EB
:1022400081959F4F0597A4F08DED98E04AE050E00E
:1022500060E070E023EB30E105E010E00E94A03C7C
:10226000992787FD90959093170A8093160A04C0CA
:1022700030930F0A20930E0A1F910F9108950F9328
:102280001F93882351F18FEF93E090930F0A80936F
:102290000E0A8DED98E044E150E060E070E026E049
:1022A00031E102E010E00E94AD3C992787FD909556
:1022B0009093150A8093140A8AEB94E16AE376E01E
:1022C0000E94A2498AEB94E144E150E060E070E0B2
:1022D0002AE030E00E941A4906C08DED98E0609136
:1022E000140A0E94133C1F910F9108956F927F92E0
:1022F0008F929F92AF92BF92DF92EF92FF920F93D5
:102300001F93DF93CF93CDB7DEB7C654D0400FB63F
:10231000F894DEBF0FBECDBF5C013B014A01D22E57
:102320007E010894E11CF11CC701B50140E050E0BA
:1023300028E030E00E94DE4C8E01095F1F4FC8018B
:10234000B7010E94404DC80169E476E00E94024C4A
:10235000BC01C5010E94234DC8010E944D4DC7011B
:102360000E94484DDD2039F08E01035F1F4FC801E8
:102370006EE476E006C08E010D5E1F4FC80165E574
:1023800076E00E94674CC801B5010E941C4CBC015C
:10239000C5010E94234DC8010E944D4D8E01075E6C
:1023A0001F4FC501B80142E150E020E030E00E943B
:1023B000344A8FE79FE0B8010E94E529882329F07D
:1023C0008FE79FE0B8010E94DB29CE018C966FE772
:1023D0007FE0AE01475E5F4F23E10E940A2B8EA58E
:1023E0009FA59093C5088093C40888A999A9AAA914
:1023F000BBA98093C6089093C708A093C808B09360
:10240000C9088CA99DA9AEA9BFA98093CA089093B9
:10241000CB08A093CC08B093CD08AEECB8E0FE0199
:10242000F8968DE001900D928150E1F7FE01EB5B93
:10243000FF4F808191819093DC088093DB0882ECD0
:1024400098E00E94EA278823F9F0EE2476E0D72E60
:1024500010C0ED9C80011124080D191D8AEB94E138
:10246000B8010E947E4882EC98E0B8010E947E4844
:10247000E3948E2D90E0861597055CF382EC98E04E
:102480000E94F72781E00EC08AEB94E16BE871E0CF
:102490000E9417488AEB94E1BE01675E7F4F0E945D
:1024A000A44980E0CA5BDF4F0FB6F894DEBF0FBED1
:1024B000CDBFCF91DF911F910F91FF90EF90DF90F3
:1024C000BF90AF909F908F907F906F9008954F92A4
:1024D0005F926F927F928F929F92AF92BF92CF92B4
:1024E000DF92EF92FF920F931F93DF93CF93CDB7BD
:1024F000DEB768970FB6F894DEBF0FBECDBF3C01C4
:102500008BE999E060E142E020E00E94B9268BE986
:1025100099E00E94B3268BE999E060E040E00E94D8
:102520008526B301665C7F4F8BE999E00E943A48AB
:102530008BE999E060E041E00E94852680916D087A
:10254000BAE04B2E512C460C571CF30142A153A16B
:10255000882309F446C0A0E18A2E912C860C971C92
:1025600026A137A16E010894C11CD11CC601B2017D
:102570000E94DE4CE7E0EE2EF12CEC0EFD1EC701B2
:10258000B6010E94404DB3016A5E7F4FC7010E94B1
:102590001C4C5C018E01035F1F4FF30146A157A144
:1025A0004F5F5F4F24A135A1C801B2010E94DE4CEC
:1025B000C501B8010E941C4CBC01C4010E94234DFE
:1025C000C8010E94484DC7010E944D4DC6010E949E
:1025D000484D8BE999E0B4010E943A4810926D0889
:1025E00015C08E010D5E1F4FF30124A135A1C80156
:1025F000B2010E94DE4C8BE999E0B8010E943A4892
:10260000C8010E94484D81E080936D0868960FB61E
:10261000F894DEBF0FBECDBFCF91DF911F910F9118
:10262000FF90EF90DF90CF90BF90AF909F908F90F2
:102630007F906F905F904F90089588E19AE047CF28
:102640002F923F924F925F926F927F928F929F92C2
:10265000AF92BF92CF92DF92EF92FF920F931F93B0
:10266000DF93CF93CDB7DEB766970FB6F894DEBF92
:102670000FBECDBF2C016B013A013C8B2B8B180197
:10268000FE8AED8ADA011D921C9201E010E01FC063
:10269000F301808191819C01220F331F280F391F84
:1026A000220F331FD20115968D919C911697820FA0
:1026B000931FB6010E94104BF30140815181882382
:1026C00081F44F5F5F4F518340830F5F1F4FD201F3
:1026D00011968D919C91129780179107CCF680E00E
:1026E000A3C09A01220F331F240F351F220F331F5F
:1026F000F20185819681820F931F6CE20E947F4ACE
:102700005C010894A11CB11CD3018D919C919C018A
:10271000220F331F280F391F220F331FF20185812B
:102720009681820F931F6CE2A5010E94614A6C01A1
:102730004C010894811C911CD3018D919C919C01AA
:10274000220F331F280F391F220F331FF2018581FB
:102750009681820F931F6CE2A4010E94614A7C0162
:10276000D3012D913C91C901880F991F820F931FAE
:10277000880F991FF20165817681680F791F8E019C
:102780000F5F1F4FC801A50196010E94DE4CC101D9
:10279000B8010E94234DC8010E94484D8E01095F77
:1027A0001F4FD3012D913C91C901880F991F820FB2
:1027B000931F880F991FF20165817681680F791F39
:1027C000C801A40197010E94DE4C8B899C89B80145
:1027D0000E94234DC8010E94484DD3012D913C9188
:1027E000C901880F991F820F931F880F991FD2016B
:1027F0001596ED91FC911697E80FF91F8E01035F76
:102800001F4F0894E11CF11C24813581C801BF01D0
:10281000A7010E94DE4C8D899E89B8010E94234D3C
:10282000C8010E94484D81E066960FB6F894DEBF5D
:102830000FBECDBFCF91DF911F910F91FF90EF9011
:10284000DF90CF90BF90AF909F908F907F906F90D0
:102850005F904F903F902F9008952F923F924F920C
:102860005F926F927F928F929F92AF92BF92CF9220
:10287000DF92EF92FF920F931F93DF93CF93CDB729
:10288000DEB7ED970FB6F894DEBF0FBECDBF9AAF9F
:1028900089AF5B015CAF4BAF2DAF1A82198283E029
:1028A000282E312C2C0E3D1EC10160E072E00E94EA
:1028B0004F4C09E0402E512C4C0E5D1EC20160E0D1
:1028C00072E00E944F4C1FE0812E912C8C0E9D1EB9
:1028D000C40160E072E00E944F4CB5E1CB2ED12CD8
:1028E000CC0EDD1EC6016BAD7CAD0E94384D89ADAE
:1028F0009AADB601AE014F5F5F4F91018201740145
:102900009FDE182FC6010E94484D112309F48DC087
:10291000C20161E60E947F4A9C018FEF2F3F38077A
:1029200009F483C0A3E06A2E712C620E731EEDAD14
:10293000EE2309F468C0FBE1CF2ED12CCC0EDD1EB6
:10294000C601B40140E050E00E94DE4CE1E2EE2E10
:10295000F12CEC0EFD1EC701B6010E94404DC701CF
:10296000B5010E941C4C5C018E01095D1F4F2B8933
:102970003C89C801B401A3010E94DE4CC501B80125
:102980000E941C4CBC01C4010E94234DC8010E943E
:10299000484DC7010E944D4DC6010E94484D2981F6
:1029A0003A81C901880F991F820F931F880F991FC1
:1029B000E9ADFAAD05811681080F191F5DE2E52E1C
:1029C000F12CEC0EFD1EC7016BAD7CAD0E94404D9D
:1029D000C7016CE20E94F34BB2010E941C4C6CE2F6
:1029E0000E94F34BB1010E941C4C6CE20E94F34B1D
:1029F000B4010E941C4CBC01C8010E94234DC701B8
:102A00000E944D4D10C08E010D5C1F4FC801B401D6
:102A1000A90193010E94DE4CC501B8010E94234D1B
:102A2000C8010E94484D11E001C010E0CE010F9690
:102A30000E94484DCE0109960E94484DCE01039652
:102A40000E94484D812FED960FB6F894DEBF0FBE61
:102A5000CDBFCF91DF911F910F91FF90EF90DF904D
:102A6000CF90BF90AF909F908F907F906F905F902E
:102A70004F903F902F9008952F923F924F925F92E8
:102A80006F927F928F929F92AF92BF92CF92DF927E
:102A9000EF92FF920F931F93DF93CF93CDB7DEB7E3
:102AA000ED970FB6F894DEBF0FBECDBF9AAF89AFDA
:102AB0005B015CAF4BAF2DAF1A821982B3E02B2EB6
:102AC000312C2C0E3D1EC10160E072E00E944F4C83
:102AD000A9E04A2E512C4C0E5D1EC20160E072E04E
:102AE0000E944F4CFFE08F2E912C8C0E9D1EC40136
:102AF00060E072E00E944F4CE5E1CE2ED12CCC0E6E
:102B0000DD1EC6016BAD7CAD0E94384D89AD9AAD1E
:102B1000B601AE014F5F5F4F91018201740190DDFC
:102B2000182FC6010E94484D112309F48DC0C2011F
:102B300068E40E947F4A9C018FEF2F3F380709F419
:102B400083C075E0672E712C620E731EEDADEE230F
:102B500009F468C06BE1C62ED12CCC0EDD1EC60177
:102B6000B40140E050E00E94DE4C51E2E52EF12C31
:102B7000EC0EFD1EC701B6010E94404DC701B50114
:102B80000E941C4C5C018E01095D1F4F2B893C8902
:102B9000C801B401A3010E94DE4CC501B8010E9426
:102BA0001C4CBC01C4010E94234DC8010E94484D29
:102BB000C7010E944D4DC6010E94484D29813A81AE
:102BC000C901880F991F820F931F880F991FE9ADC4
:102BD000FAAD05811681080F191F9DE2E92EF12C2F
:102BE000EC0EFD1EC7016BAD7CAD0E94404DC701D0
:102BF0006CE20E94F34BB2010E941C4C6CE20E94FA
:102C0000F34BB1010E941C4C6CE20E94F34BB401E7
:102C10000E941C4CBC01C8010E94234DC7010E94A8
:102C20004D4D10C08E010D5C1F4FC801B401A901AC
:102C300093010E94DE4CC501B8010E94234DC801DA
:102C40000E94484D11E001C010E0CE010F960E9495
:102C5000484DCE0109960E94484DCE0103960E9430
:102C6000484D812FED960FB6F894DEBF0FBECDBF55
:102C7000CF91DF911F910F91FF90EF90DF90CF9058
:102C8000BF90AF909F908F907F906F905F904F908C
:102C90003F902F9008952F923F924F925F926F92A4
:102CA0007F928F929F92AF92BF92CF92DF92EF92DC
:102CB000FF920F931F93DF93CF93CDB7DEB7ED97BE
:102CC0000FB6F894DEBF0FBECDBF9AAF89AF5B01E0
:102CD0005CAF4BAF2DAF1A821982B3E02B2E312C93
:102CE0002C0E3D1EC10160E072E00E944F4CA9E035
:102CF0004A2E512C4C0E5D1EC20160E072E00E9413
:102D00004F4CFFE08F2E912C8C0E9D1EC40160E075
:102D100072E00E944F4CE5E1CE2ED12CCC0EDD1E90
:102D2000C6016BAD7CAD0E94384D89AD9AADB60140
:102D3000AE014F5F5F4F91018201740181DC182F5A
:102D4000C6010E94484D112309F48DC0C2016DE6F1
:102D50000E947F4A9C018FEF2F3F380709F483C000
:102D60007AE0672E712C620E731EEDADEE2309F42E
:102D700068C06BE1C62ED12CCC0EDD1EC601B4019D
:102D800040E050E00E94DE4C51E2E52EF12CEC0ECA
:102D9000FD1EC701B6010E94404DC701B5010E944A
:102DA0001C4C5C018E01095D1F4F2B893C89C801B9
:102DB000B401A3010E94DE4CC501B8010E941C4C65
:102DC000BC01C4010E94234DC8010E94484DC701A7
:102DD0000E944D4DC6010E94484D29813A81C9018A
:102DE000880F991F820F931F880F991FE9ADFAADC5
:102DF00005811681080F191F8DE2E82EF12CEC0ECB
:102E0000FD1EC7016BAD7CAD0E94404DC7016CE259
:102E10000E94F34BB2010E941C4C6CE20E94F34BE7
:102E2000B1010E941C4C6CE20E94F34BB4010E9461
:102E30001C4CBC01C8010E94234DC7010E944D4D8E
:102E400010C08E010D5C1F4FC801B401A901930190
:102E50000E94DE4CC501B8010E94234DC8010E94AA
:102E6000484D11E001C010E0CE010F960E94484D80
:102E7000CE0109960E94484DCE0103960E94484D0E
:102E8000812FED960FB6F894DEBF0FBECDBFCF9168
:102E9000DF911F910F91FF90EF90DF90CF90BF9047
:102EA000AF909F908F907F906F905F904F903F90EA
:102EB0002F9008950F931F93CF93DF938B01EA0117
:102EC000C801BE010E94B549FC018081803221F019
:102ED000D7FD02C02197F4CFCE01DF91CF911F9192
:102EE0000F9108950F931F93CF93DF938B01EA0106
:102EF000C801BE010E94B549FC018081803221F4E5
:102F0000D7FD02C02197F4CFCE01DF91CF911F9161
:102F10000F9108950F931F93CF93DF938B01EA01D5
:102F2000C801BE010E94B549FC018081803249F48C
:102F3000F801848195810196C817D90710F421966C
:102F4000EFCFCE01DF91CF911F910F9108952F9276
:102F50003F924F925F926F927F928F929F92AF9229
:102F6000BF92CF92DF92EF92FF920F931F93DF9366
:102F7000CF93CDB7DEB7C254D0400FB6F894DEBFC2
:102F80000FBECDBF3C015B01CE01019660E072E057
:102F90000E944F4CC5016CE20E947F4A7C018E0169
:102FA000095F1F4FC801B50140E050E097010E9442
:102FB000DE4CC301C496B8010E94234DC8010E9493
:102FC000484D0894E11CF11CC5016CE2A7010E9468
:102FD000614A6C013CE1232E312C260C371C8E01FA
:102FE000035F1F4FC801B501A70196010E94DE4C87
:102FF000C101B8010E94234DC8010E94484D0894A8
:10300000C11CD11CC5016CE2A6010E94614A7C0171
:103010002AE3822E912C860C971C8E010D5E1F4F89
:10302000C801B501A60197010E94DE4CC401B80198
:103030000E94234DC8010E94484D9AE0492E512C10
:10304000460C571C8FE1C82ED12CCC0EDD1EC601BC
:1030500060E676E00E94674C8E01075E1F4F089481
:10306000E11CF11CF50124813581C801B501A701DE
:103070000E94DE4CC601B8010E941C4CBC01C2017A
:103080000E94234DC8010E94484DC6010E944D4D2B
:10309000F3018685978595A384A3C20169E776E04D
:1030A0000E94C44B8E010B5D1F4FC801B2010E94EC
:1030B000384DC301B80140E050E02CDFF30193A389
:1030C00082A3C8010E94484DF30182A193A197A356
:1030D00086A38BE999E060E142E020E00E94B926F6
:1030E0008BE999E00E94B3268BE999E060E040E02B
:1030F0000E9485268BE999E0B4010E943A488BE949
:1031000099E060E041E00E948526F30184A195A149
:1031100022A133A1821B930B26A137A140970CF16A
:103120000BE2E02EF12CEC0EFD1EC701B201A9014D
:10313000215F3F4F0E94DE4C8E010F5C1F4FC80184
:10314000B7010E94404DC8016EE30E94F34BBC01E1
:103150008BE999E00E943A48C8010E944D4DC70191
:1031600010C08E01095C1F4FC801B201A901205F88
:103170003F4F0E94DE4C8BE999E0B8010E943A482B
:10318000C8010E94484DC1016EE876E00E94824A63
:10319000882319F081E090E009C0C1016BE576E079
:1031A0000E94824A882351F083E090E0F3019087E7
:1031B0008783C30160E00E9487104CC082E090E0EA
:1031C000F30190878783C30161E00E9487101DE3AC
:1031D000412E512C4C0E5D1E06C0F30186A197A115
:1031E000019697A386A3F30126A137A182A193A1FB
:1031F000281B390BC201B101A9012F5F3F4F0E946B
:10320000DE4CC20162EA75E00E94824A882311F412
:1032100000E00BC000E0F30182A193A10E9626A16D
:1032200037A1821793070CF001E0C2010E94484DBC
:10323000002399F6F301818593012A5E3F4F88238D
:1032400021F0C90162EA75E003C0C90163E976E0D3
:103250000E947F4CCE0101960E94484DCE5BDF4F0D
:103260000FB6F894DEBF0FBECDBFCF91DF911F9197
:103270000F91FF90EF90DF90CF90BF90AF909F9015
:103280008F907F906F905F904F903F902F90089518
:10329000BF92CF92DF92EF92FF920F931F93DF9333
:1032A000CF9300D000D0CDB7DEB77C01B62E690138
:1032B000FC01168305838E96BA010E94234DF70107
:1032C00014821382F1E0CF16D10419F00894C108DA
:1032D000D108F701D282C182F701B18686E490E07D
:1032E000E80EF91EF70110828AEB9FEFE80EF91E37
:1032F000F701658176818E010F5F1F4FC8010E9423
:10330000384DC701B80123DEC8010E94484D2696FA
:103310000FB6F894DEBF0FBECDBFCF91DF911F91E6
:103320000F91FF90EF90DF90CF90BF900895EF92B4
:10333000FF920F931F93DF93CF93CDB7DEB7E09744
:103340000FB6F894DEBF0FBECDBFCE01019660E090
:1033500072E00E944F4C8AEB94E140E855E260E055
:1033600070E00E947545CE01079665E976E00E94FF
:103370004F4CCE010D9660EA76E00E944F4CCE0194
:1033800043966BEA76E00E944F4C85E361E00E9431
:103390000A418FE79FE065E30E942A2C882329F4E5
:1033A0008AEB94E164E771E004C08AEB94E16FE595
:1033B00071E00E946C487E010894E11CF11CC70179
:1033C00068EB76E00E947F4C8E01075E1F4FC801BC
:1033D000B7010E94384DC80164E070E04BEC59E041
:1033E00021E00E947611C8010E94484D8E01015EC5
:1033F0001F4FC801B7010E94384DC80164E070E05A
:103400004BEC59E020E00E947611C8010E94484D23
:1034100081E00E943F1181E00E94601081E0809372
:10342000180A45E2E42EF12CEC0EFD1EC70168EBF4
:1034300076E00E944F4C88E19AE061E0A70124E029
:1034400030E00BEC19E024DFC7010E94484D89E011
:103450008093B50987E08093B4098DE28093B60923
:1034600080E18093B2098FE08093B1098BE1809372
:10347000B00982E08093B30980EB99E00E94D424E4
:10348000882371F48E01055D1F4FC80160EC76E062
:103490000E944F4CC8010E94E608C8010E94484D96
:1034A000CE0143960E94484DCE010D960E94484D94
:1034B000CE0107960E94484DCE0101960E94484DCC
:1034C000E0960FB6F894DEBF0FBECDBFCF91DF916F
:1034D0001F910F91FF90EF9008954F925F926F921E
:1034E0007F928F929F92AF92BF92CF92DF92EF9294
:1034F000FF920F931F93DF93CF93CDB7DEB7E09783
:103500000FB6F894DEBF0FBECDBF3C01D62E7E01B4
:103510000894E11CF11CC70160E072E00E944F4C6E
:10352000CE01079660E072E00E944F4CBAE04B2E4D
:10353000512C460C571CF30126A137A18E01035FC5
:103540001F4FC801B201A9012E5F3F4F0E94DE4C00
:10355000C701B8010E94234DC8010E94484D8AEB63
:1035600094E1B7010E947E48C7010E94CA494B01FD
:103570005C018B01015010408AEB94E1B8014AE0F4
:1035800050E00E948549DD2041F00B3011051CF010
:1035900080E090E00AC0C40108C0101611061CF0BB
:1035A0008BE090E002C0C8010197A7E08A2E912C21
:1035B0008C0E9D1EBC01660F771F680F791F660F6A
:1035C000771F615A754FC4010E94234D8AEB94E125
:1035D000B4010E947E488AEB94E161ED76E00E949E
:1035E000A249F30166A177A18AEB94E14AE050E099
:1035F0000E9485498AEB94E16DED76E00E94A24934
:103600008E010D5E1F4FF30126A137A1C801B20143
:1036100040E050E00E94DE4C8AEB94E1B8010E9449
:103620003A48C8010E94484D8AEB94E16CEE76E07E
:103630000E94A2498E01075E1F4FF30146A157A1C8
:103640004E5F5F4F26853785C801B2010E94DE4C70
:103650008AEB94E1B8010E943A48C8010E94484DA3
:103660008AEB94E163E077E00E94A4496FE1A62E23
:10367000B12CAC0EBD1EF30126A137A1C501B201CC
:1036800040E050E00E94DE4C55E2E52EF12CEC0EBD
:10369000FD1EC701B5010E94404DC701B4010E9443
:1036A0001C4C6C018E01055D1F4FF30146A157A113
:1036B0004E5F5F4F26853785C801B2010E94DE4C00
:1036C000C601B8010E941C4CBC016E010894C11CCB
:1036D000D11CC6010E94234DC8010E94484DC7015C
:1036E0000E944D4DC5010E94484D8AEB94E163E074
:1036F00077E00E94A2498AEB94E1B2010E943A4825
:103700008AEB94E163E077E00E94A4498AEB94E1BC
:1037100063E077E00E94A2498AEB94E1B6010E943F
:103720003A488AEB94E163E077E00E94A449C20141
:10373000B6010E94234D8AEB94E163E077E00E949A
:10374000A2498AEB94E1B2010E943A488AEB94E1E3
:1037500063E077E00E94A449C4010E94484DC6017D
:103760000E94484DE0960FB6F894DEBF0FBECDBF65
:10377000CF91DF911F910F91FF90EF90DF90CF904D
:10378000BF90AF909F908F907F906F905F904F9081
:1037900008958F929F92AF92BF92CF92DF92EF9255
:1037A000FF920F931F93DF93CF93CDB7DEB7CC5F1C
:1037B000D0400FB6F894DEBF0FBECDBF5C01DC0178
:1037C000DC90B1E0DB1609F039C6FC0187819085F9
:1037D0008230910509F427C28330910509F428C489
:1037E000019709F02BC6D50196968D909C909797DE
:1037F0008091100A9091110A8330910509F4EDC16E
:103800008430910544F48130910509F4A8C10297F0
:1038100009F014C6C4C08430910509F4EDC10597C0
:1038200009F00CC6EAE0CE2ED12CCA0CDB1C8E01AE
:103830000F5F1F4FC801B6010E94384DF50146A128
:1038400057A1C80160E20E94614AD50197969C93F6
:103850008E939697C8010E94484DF50126A137A185
:1038600084A195A1281739071CF097A286A2E6C566
:103870008E01095F1F4FC801B6010E94384DD50166
:1038800096964D915C919797C501B80143DBF50180
:1038900097A386A3C8010E94484D8BE999E060E197
:1038A00042E020E00E94B9268BE999E00E94B3260D
:1038B0008BE999E060E040E00E948526B501665CF6
:1038C0007F4F8BE999E00E943A488BE999E060E0EC
:1038D00041E00E948526D50196962D913C919797BF
:1038E000F901709694968D919C91959792964D9131
:1038F0005C919397E817F9071CF54217530784F476
:1039000073E1E72EF12CEC0EFD1EC7016CE30E9463
:10391000C64CF50126A137A18E01035F1F4FDCC005
:1039200069E1E62EF12CEC0EFD1EC701B601A901DE
:10393000215F3F4F0E94DE4C8E01015E1F4F69C028
:103940004217530744F55BE2E52EF12CEC0EFD1E09
:10395000C7016CE30E94C64CD50196962D913C910F
:1039600097978E010B5D1F4FC801B601A901215F1A
:103970003F4F0E94DE4CC701B8010E941C4CBC01A5
:103980008BE999E00E943A48C8010E94484DC7015E
:103990000E944D4D53C58E010F5C1F4FD4C08BE963
:1039A00099E060E142E020E00E94B9268BE999E0CD
:1039B0000E94B3268BE999E060E040E00E948526F2
:1039C000B501665C7F4F8BE999E00E943A488BE92C
:1039D00099E060E041E00E948526F50126A137A12B
:1039E00082A193A14AE0C42ED12CCA0CDB1C821701
:1039F00093070CF107E3E02EF12CEC0EFD1EC7013E
:103A0000B601A901215F3F4F0E94DE4C8E01035C8D
:103A10001F4FC801B7010E94404DC8016EE30E94CC
:103A2000F34BBC018BE999E00E943A48C8010E941F
:103A30004D4DC701EDC48E010D5B1F4FC801B6018E
:103A40000E94384DD50196964D915C9197974150C3
:103A50005040C501B80146DAF50197A386A3C80115
:103A60000E94484D8E01075B1F4FC801B6010E949E
:103A7000384DD50196964D915C919797C501B80147
:103A800019DA0196F50197A386A3C8010E94484D53
:103A9000D50196962D913C919797F9017096949641
:103AA0008D919C91959792964D915C919397E81783
:103AB000F9078CF542175307F4F415E5E12EF12CC4
:103AC000EC0EFD1EC7016CE30E94C64CF50126A159
:103AD00037A18E01015B1F4FC801B601A901225F0A
:103AE0003F4F0E94DE4CC701B8010E941C4C6EE3A0
:103AF0000E94F34B44CFBBE5EB2EF12CEC0EFD1EE8
:103B0000C701B601A901215F3F4F0E94DE4C8E0123
:103B10000F591F4F7ECF4217530794F4ADE6EA2E9C
:103B2000F12CEC0EFD1EC7016CE30E94C64CD501C2
:103B300096962D913C9197978E0109591F4F14CF5E
:103B40008E010D581F4FC801B601A9019F010E94A7
:103B5000DE4C8BE999E0B8010E943A481AC2F5019F
:103B600091A680A6FAE0EF2EF12CEA0CFB1C8E0148
:103B700007581F4FC801B7010E94384DD5019696CE
:103B80004D915C919797C80160E20E94614AF501EE
:103B900093A782A7C8010E94484D8E0101581F4F6C
:103BA000D50198964D915C9199979A962D913C915B
:103BB0009B97C801B7010E94DE4CC501805C9F4FF6
:103BC000B8010E94234DC8010E94484DE6E4F0E090
:103BD000AE0EBF1ED501DC9231C4F50123813481C4
:103BE0002115310509F42AC4215030403483238340
:103BF0008E010B571F4FBBC1D50113962D913C91E0
:103C0000149711968D919C9112972817390709F4F2
:103C100015C42F5F3F4F14963C932E9313978E013C
:103C200005571F4F59C10091100A1091110A053014
:103C30001105E1F5F50126A137A182A193A10E9608
:103C40008217930724F02F5F3F4F37A326A38501E8
:103C5000045E1F4FD50196966D917C919797929631
:103C60008D919C919397681B790BC8010E94B5496F
:103C7000FC0180818D3209F0CEC3F50126A137A168
:103C800082A193A10E96821793070CF4C4C32F5FF1
:103C90003F4F37A326A3DECF21503040240F351FDE
:103CA000D50197963C932E939697C8C3F50166A1CC
:103CB00077A142A153A10230110559F546175707C4
:103CC00024F46150704077A366A38501045E1F4F02
:103CD000D50196966D917C91979792968D919C9136
:103CE0009397681B790BC8010E94B549FC0180813C
:103CF0008D3209F0A3C3F50126A137A182A193A1BA
:103D0000821793070CF09AC32150304037A326A3A3
:103D1000DFCFECE18E2E912C8A0C9B1C641B750B63
:103D2000C4010E94B549FC01E081ED36A9F4D5013A
:103D300019968C91882309F081C30330110529F06D
:103D40000430110509F027C103C0C50161E002C0BC
:103D5000C50160E0C2DB1FC1E436A9F4F50181852D
:103D6000882309F06BC30330110529F004301105D5
:103D700009F011C103C0C50161E002C0C50160E0E6
:103D80000E94940F08C1E937B1F4D50119968C91BE
:103D9000882309F053C30330110529F004301105BD
:103DA00009F0F9C003C0C50161E002C0C50160E0CF
:103DB0000E94CA0EF0C0E136A9F4F501818588237E
:103DC00009F03CC30330110529F00430110509F056
:103DD000E2C003C0C50161E002C0C50160E00E940D
:103DE000E60DD9C0E834B1F4D50119968C91882339
:103DF00009F024C30330110529F00430110509F03E
:103E0000CAC003C0C50161E002C0C50160E00E94F4
:103E10001C0DC1C0ED34A9F4F5018185882309F09A
:103E20000DC30330110529F00430110509F0B3C0AA
:103E300003C0C50161E002C0C50160E00E94520CF0
:103E4000AAC0E332B1F4D50119968C91882309F008
:103E5000F5C20330110529F00430110509F09BC0AB
:103E600003C0C50161E002C0C50160E00E94880B8B
:103E700092C0E334A9F4F5018185882309F0DEC2FC
:103E80000330110529F00430110509F084C003C086
:103E9000C50161E002C0C50160E00E94A40A7BC0C8
:103EA000E535B9F50330110529F00430110509F0A5
:103EB000C5C21EC0D50113962D913C9114972115B2
:103EC000310509F4BBC22150304014963C932E9327
:103ED00013978E010F561F4FC901880F991F820F2C
:103EE000931F880F991F15966D917C91169748C066
:103EF000F50123813481818192812817390709F4E2
:103F00009DC22F5F3F4F348323838E0109561F4F7D
:103F10002EC0E43409F092C20330110529F00430B8
:103F2000110509F08BC213C0D50113962D913C9158
:103F300014972115310509F481C22150304014969F
:103F40003C932E9313978E0103561F4FC5CFF50157
:103F500023813481818192812817390709F46EC247
:103F60002F5F3F4F348323838E010D551F4FC901AF
:103F7000880F991F820F931F880F991F6581768183
:103F8000680F791FC8010E94384DC501B8010E9411
:103F9000A717C8013DC27FEAC72ED12CCC0EDD1E6B
:103FA000B501665F7F4FC6010E94384DC6010E9471
:103FB000DB49D50113962D913C911497C901880FC7
:103FC000991F820F931F880F991F15960D911C91B1
:103FD0001697080F191F49EAE42EF12CEC0EFD1E6E
:103FE000E4E3F0E0AE0EBF1EC701B5010E94404DF4
:103FF000C7016CE20E94F34BB4010E941C4C6CE2BE
:104000000E94F34B26E030E0A20EB31EB5010E94E1
:104010001C4C6CE20E94F34BB6010E941C4CBC018C
:10402000C8010E94234DC7010E944D4DC601F0C139
:104030003FEA832E912C8C0E9D1EC40160E072E03D
:104040000E944F4C8091100A9091110A8330910583
:1040500009F49AC18430910524F4029709F0D5C17E
:1040600028C18430910509F4ACC1059709F0CDC190
:10407000D50196968D919C919797409697969C9393
:104080008E93969794962D913C9195972817390782
:1040900024F497963C932E9396972AE0C22ED12C27
:1040A000CA0CDB1CF50166A177A1C6010E94B549C7
:1040B000FC0180818032D1F0D50196966D917C9182
:1040C0009797C6010E94B549FC018081803209F4AE
:1040D0003FC0F50126A137A182A193A182179307C2
:1040E000BCF52150304037A326A3E6CFD5019696E4
:1040F0006D917C919797C6010E94B549FC01808122
:10410000803269F4F50126A137A182A193A182171B
:1041100093072CF42150304037A326A3E7CFD501D5
:1041200096966D917C919797C6010E94B549FC01C6
:104130008081803269F0F50126A137A182A193A187
:10414000821793072CF42150304037A326A3E7CFE2
:10415000D50196962D913C91979792968D919C9131
:10416000939794964D915C91959728173907D9F5B7
:10417000F90170969FEA892E912C8C0E9D1EE417F2
:10418000F50704F585EBE82EF12CEC0EFD1EC701BA
:10419000B601A901215F3F4F0E94DE4C8E010554FC
:1041A0001F4FC801B7010E94404DC8016EE30E9435
:1041B000F34BBC01C4010E94234DC8010E944D4D28
:1041C000C7010EC08E010F531F4FC801B601A901D0
:1041D0009F010E94DE4CC401B8010E94234DC8011A
:1041E0000E94484D53C02F5F3F4FF50137A326A3D0
:1041F000205F3F4F0FEA802E912C8C0E9D1E2417BE
:10420000350704F51DECE12EF12CEC0EFD1EC70167
:104210006CE30E94C64CD50196962D913C919797E0
:104220008E0109531F4FC801B601A901225F3F4FFC
:104230000E94DE4CC701B8010E941C4C6EE30E9434
:10424000F34B1AC0B9EDEB2EF12CEC0EFD1EC7019D
:104250006CE30E94C64CF50126A137A18E010D52D8
:104260001F4FC801B601A901215F3F4F0E94DE4CDC
:10427000C701B8010E941C4CBC01C4010E94234D1F
:10428000C8010E94484DC7010E944D4D8BE999E03D
:1042900060E142E020E06DD58BE999E064D58BE9DF
:1042A00099E060E040E031D52AE330E0A20EB31E91
:1042B00059C0D50192962D913C91939797963C9336
:1042C0002E939697F901709694968D919C9195975F
:1042D000AAE0CA2ED12CCA0CDB1CE817F90704F59A
:1042E0007FEDE72EF12CEC0EFD1EC701B601A901F2
:1042F000215F3F4F0E94DE4C8E010B511F4FC801C2
:10430000B7010E94404DC8016EE30E94F34BBC010F
:10431000C4010E94234DC8010E944D4DC7010EC02B
:104320008E0105511F4FC801B601A9019F010E94CE
:10433000DE4CC401B8010E94234DC8010E94484DC3
:104340008BE999E060E142E020E013D58BE999E048
:104350000AD58BE999E060E040E0D7D4EAE3F0E0E9
:10436000AE0EBF1E8BE999E0B5010E943A488BE979
:1043700099E060E041E0C9D48BE999E0BE01615564
:104380007F4F0E943A4841C0D50113962D913C9130
:10439000149721153105C9F12150304014963C93F2
:1043A0002E9313978E010F501F4FC901880F991F2D
:1043B000820F931F880F991F15966D917C91169708
:1043C00018C0F50123813481818192812817390732
:1043D000E1F02F5F3F4F348323838E0109501F4F3D
:1043E000C901880F991F820F931F880F991F65813C
:1043F0007681680F791FC8010E94384DC501B80148
:104400000E94A717C8010E94484DCE0181559F4FB9
:104410000E94484D13C0D50192964D915C9193979F
:1044200090962D913C91919796968D919C9197970E
:10443000841B950B8217930708F02ECCC450DF4FD6
:104440000FB6F894DEBF0FBECDBFCF91DF911F91A5
:104450000F91FF90EF90DF90CF90BF90AF909F9023
:104460008F900895CF92DF92EF92FF920F931F9358
:10447000DF93CF93CDB7DEB7C759D0400FB6F894CE
:10448000DEBF0FBECDBF8DED98E00E94293C80912C
:104490000D0A813061F410920D0A6091100A70913A
:1044A000110A6115710519F088E19AE072D98091BD
:1044B0005E0A813009F055C286E49AE068EB76E046
:1044C0000E94824A882309F4A1C08CE49AE065E046
:1044D00077E00E94824A882309F48AC088E59AE03E
:1044E0006BE077E00E94824A882309F45EC062E0B4
:1044F000E62EF12CEC0EFD1EC7016FE077E00E9466
:104500004F4C88E19AE060E0A70125E030E003EE3F
:1045100019E00E944819C7010E94484D8E01085FAA
:104520001F4FC80169E177E00E944F4C88E19AE093
:104530006DEB79E0A80121E00E944B16C8010E94B2
:10454000484D5EE0E52EF12CEC0EFD1EC70167EB39
:1045500079E040E050E025E030E00E94DE4C8E0142
:104560000C5E1F4FC8016EE177E00E944F4C88E15E
:104570009AE0B701A80121E00E943C15C8010E9401
:10458000484DC7010E94484D8E01065E1F4FC8016D
:1045900063E277E00E944F4C88E19AE063EC79E0B7
:1045A000A80121E00E942D14D9C188E59AE067E2B4
:1045B00077E00E94824A882329F08AEB94E161E443
:1045C00071E00CC088E59AE063E377E00E94824ADC
:1045D000882339F08AEB94E163E271E00E946C4831
:1045E000C0C18E01005E1F4FC8016FE377E0B1C10B
:1045F0008E010A5D1F4FC8016DE777E00E944F4CA6
:10460000C8010E94E608C8010E94484D86E49AE06D
:104610006FE077E00E94824A882309F494C18AEB14
:1046200094E16CE47AE00E947E488CE49AE064EBCA
:1046300077E00E94824A882309F461C188E59AE004
:104640006BEB77E00E94824A882309F42DC18AEB44
:1046500094E16AE071E00E946C488AEB94E16DEFAE
:1046600070E00E9417486091431570914415CE0187
:1046700001966115710521F4BC016754754104C0B0
:104680009C01261B370BB9018AEB94E14AE050E00C
:104690000E942C49CE018C9660E072E00E944F4C43
:1046A00042E3C42ED12CCC0EDD1EC60160E072E0C8
:1046B0000E944F4CCE01C89660E072E00E944F4CC1
:1046C0003EE3E32EF12CEC0EFD1EC70160E072E02C
:1046D0000E944F4C8E010C5B1F4FC80169E177E0CF
:1046E0000E944F4C88E19AE0B601A80120E00E94A8
:1046F0004B16C8010E94484D8E01065B1F4FC80132
:10470000B60140E050E022E030E00E94DE4CC701FC
:10471000B8010E94234DC8010E94484DC7010E9464
:10472000CA496093B5098E01005B1F4FC801B601ED
:1047300043E050E025E030E00E94DE4CC701B801C4
:104740000E94234DC8010E94484DC7010E94CA49DA
:104750006093B4098E010A5A1F4F2EA93FA9C801C0
:10476000B60146E050E00E94DE4CC701B8010E944D
:10477000234DC8010E94484DC7010E94CA49625B8F
:104780006093B6098E01045A1F4FC8016EE177E0AD
:104790000E944F4C88E19AE067EB79E0A80120E0A5
:1047A0000E943C15C8010E94484D8E010E591F4FB2
:1047B000C80167EB79E040E050E022E030E00E9481
:1047C000DE4CC701B8010E94234DC8010E94484D2C
:1047D000C7010E94CA496093B2098E0108591F4F50
:1047E000C80167EB79E043E050E025E030E00E944B
:1047F000DE4CC701B8010E94234DC8010E94484DFC
:10480000C7010E94CA496093B1091092B0098E0194
:1048100002591F4FC80163E277E00E944F4C88E1C4
:104820009AE063EC79E0A80120E00E942D14C80111
:104830000E94484D00E010E0C801880F991F800FCA
:10484000911F880F991F8F5A904F63EC79E00E9457
:10485000D84A882329F40F5F1F4F0730110561F7ED
:104860000093B30980EB99E09FD0882371F48E0107
:104870000C581F4FC80160EC76E00E944F4CC801F5
:104880000E94E608C8010E94484DCE01CE960E94C3
:10489000484DCE01C8960E94484DCE01C2960E9456
:1048A000484DCE018C9637C088E59AE062EC77E0FF
:1048B0000E94824A8823E1F08AEB94E164EE70E082
:1048C0000E946C48AAE7EA2EF12CEC0EFD1EC701EF
:1048D00068EB76E00E944F4C88E19AE061E0A70126
:1048E00024E030E00BEC19E00E944819C70113C026
:1048F0008E0100581F4FC80169EC77E006C08E0199
:104900000A571F4FC8016CE078E00E944F4CC80165
:104910000E94E608C8010E94484DFCE8EF2EF12CE9
:10492000EC0EFD1EC70168EB76E00E944F4C88E15B
:104930009AE061E0A70124E030E00BEC19E00E946E
:104940004819C7010CC08E010E561F4FC80162E402
:1049500078E00E944F4CC8010E94E608C8010E94FE
:10496000484D10925E0AC956DF4F0FB6F894DEBF6D
:104970000FBECDBFCF91DF911F910F91FF90EF90B0
:10498000DF90CF900895482F6AE00E94524E282F62
:1049900030E084E0220F331F8A95E1F7842F0E94D4
:1049A000524E892F820F08950F931F938C0187E138
:1049B00092E168E670E00E94CF3C87E192E160E01E
:1049C0000E94503DF8018081DEDF682F87E192E18F
:1049D0000E94503DF8018181D6DF682F87E192E186
:1049E0000E94503DF8018281CEDF682F87E192E17D
:1049F0000E94503DF8018381C6DF682F87E192E174
:104A00000E94503DF8018481BEDF682F87E192E16A
:104A10000E94503DF8018581B6DF682F87E192E161
:104A20000E94503DF80186818E51ADDF682F87E1ED
:104A300092E10E94503D87E192E10E94913D8823DE
:104A400021F010927E0F80E003C081E080937E0F02
:104A50001F910F9108950F931F93CF93DF93EC0154
:104A600087E192E168E670E00E94CF3C87E192E145
:104A700060E00E94503D87E192E10E94913D8823D1
:104A800019F010927E0F11C081E080937E0F87E1B4
:104A900092E168E670E047E050E00E949F3D87E1C8
:104AA00092E10E94D93C079714F480E065C087E149
:104AB00092E10E94E23C082F8F7782958F701AE076
:104AC000819FC0011124202F2F70280F288387E198
:104AD00092E10E94E23C282F22952F70219F9001A5
:104AE00011248F70820F898387E192E10E94E23C5A
:104AF000282F2F7322952F70219F900111248F70E2
:104B0000820F8A8387E192E10E94E23C282F22955E
:104B10002F70219F900111248F70820F8B8387E16A
:104B200092E10E94E23C282F22952F70219F900154
:104B300011248F70820F8C8387E192E10E94E23C06
:104B4000282F22952F70219F900111248F70820FA2
:104B50008D8387E192E10E94E23C282F2F70225E34
:104B600082958F70819FC0011124280F2E83802F82
:104B70008095881F8827881FDF91CF911F910F9103
:104B8000089587E192E10C94A13D0F931F938C014E
:104B9000FC01868160E00E94BD4181E090E00E94BE
:104BA0006A40F801868161E00E94BD4181E090E0A9
:104BB0000E946A40F801868160E00E94BD4184E65F
:104BC00090E00E946A401F910F910895CF92DF926A
:104BD000EF92FF920F931F93CF93DF93D82EC92E9E
:104BE000282F392FC9018C01C0E0D0E0E62EFF2428
:104BF000F801878161E00E940A41B7010C2E02C0D2
:104C0000759567950A94E2F76170F80187810E94B3
:104C1000BD4121960F5F1F4FC830D10549F78D2D3B
:104C20009C2DB3DFDF91CF911F910F91FF90EF90FB
:104C3000DF90CF900895CF92DF92EF92FF920F9383
:104C40001F93CF93DF93D82EC92E282F392FC90158
:104C50008C01C0E0D0E0E62EFF24F801878161E0FE
:104C60000E940A41B7010C2E02C0759567950A94FF
:104C7000E2F76170F80187810E94BD4121960F5FC4
:104C80001F4FC430D10549F78D2D9C2D7EDFDF915C
:104C9000CF911F910F91FF90EF90DF90CF900895EB
:104CA0001F93CF93DF93EC01162F8C81642F0E940A
:104CB000BD418D818F3F19F060E00E94BD418F851D
:104CC00084FF04C0CE01612F81DF0CC0612F70E032
:104CD00084E0759567958A95E1F7CE01ACDFCE014A
:104CE000612FA9DFDF91CF911F91089541E0D8DFB7
:104CF00081E090E0089540E0D3CFFC016089862FE9
:104D00008460808B6C60CF01F6CFDF93CF93CDB7FB
:104D1000DEB728970FB6F894DEBF0FBECDBF9C015B
:104D2000FE013196A1E8B8E088E00D900192815033
:104D3000E1F7F9018389481710F0482F4150E42F1B
:104D4000F0E0EE0FFF1FEC0FFD1F8181680F606820
:104D5000C901D1DF28960FB6F894DEBF0FBECDBFD4
:104D6000CF91DF91089561E0C6DF80ED97E00C946C
:104D70006A40CF93DF93EC01423018F08F85886052
:104D80008F874B8B1C8A222329F0413019F48F85A1
:104D900084608F8780E593EC0E946A408C8160E09C
:104DA0000E94BD418E8160E00E94BD418D818F3F98
:104DB00019F060E00E94BD416F8564FD19C0CE010D
:104DC00063E039DF84E991E10E946A40CE0163E04B
:104DD00032DF84E991E10E946A40CE0163E02BDF7B
:104DE00086E990E00E946A40CE0162E024DF13C0B1
:104DF0006062CE0180DF84E991E10E946A406F85A4
:104E00006062CE0178DF86E990E00E946A406F859B
:104E10006062CE0170DF6F856062CE016CDF84E07E
:104E2000888BCE016ADFCE019EDF82E0898BCE01C6
:104E300066E061DFDF91CF9108956F927F928F924C
:104E4000AF92CF92EF920F931F93DF93CF93CDB793
:104E5000DEB73C01162F842FF3014483258306839C
:104E6000E782C086A18682869E8593879F859487E8
:104E7000988995879989968761E00E940A41F30194
:104E800085818F3F19F061E00E940A41F30186811C
:104E900061E00E940A41112319F0F301178603C053
:104EA00080E1F3018787C30160E141E020E061DF39
:104EB000CF91DF911F910F91EF90CF90AF908F9096
:104EC0007F906F9008958F92AF92CF92EF920F9351
:104ED0001F93CF93DF93DC01362F542F722F102FA7
:104EE000AE2C8C2C13961C921E9212978DE798E094
:104EF00011969C938E9300D00F92EDB7FEB731962A
:104F0000CDB7DEB71982118212821382CD0161E022
:104F1000432F2FEF052FE72EC12E8FDF0F900F901D
:104F20000F900F90DF91CF911F910F91EF90CF9045
:104F3000AF908F900895FC011382128288EE93E067
:104F4000A0E0B0E084839583A683B7838DE898E0E2
:104F500091838083128E118E14860895DF93CF93F0
:104F60000F92CDB7DEB7FC016983A081B1811296A3
:104F70002D913C911397BE016F5F7F4F41E050E050
:104F8000F90119950F90CF91DF910895DC015996A1
:104F9000ED91FC915A97309719F420E030E018C059
:104FA000238934894589568982859385A485B58569
:104FB000281B390B4A0B5B0B2030B0E83B07B0E0F5
:104FC0004B07B0E05B0720F02FEF3FE740E050E0F9
:104FD000C9010895DC015996ED91FC915A973097DB
:104FE00011F480E008958581811181E00895CF93C7
:104FF000DF93EC01898D9A8D009741F00E949730E4
:10500000898D9A8D0E948C421A8E198EDF91CF91D4
:105010000895FC01818D928D009711F00C944F3012
:105020000895DF93CF930F92CDB7DEB7FC01818D4A
:10503000928D009749F0BE016F5F7F4F41E050E0D5
:105040000E948231019719F02FEF3FEF03C0898151
:10505000282F30E0C9010F90CF91DF910895EF9292
:10506000FF920F931F93DF93CF930F92CDB7DEB7CD
:105070007C01DC0159968D919C915A97009719F407
:1050800000E010E01EC0BE016F5F7F4F41E050E0C6
:105090000E948231019719F00FEF1FEF12C0898132
:1050A000082F10E0D7015996ED91FC915A9742854F
:1050B0005385648575854150504060407040CF01F4
:1050C00029D7C8010F90CF91DF911F910F91FF90C9
:1050D000EF900895CF93DF93EC01E98DFA8D30972F
:1050E00061F013821282CF010E94BF339C01E98DCF
:1050F000FA8D82819381892B31F081E090E09B834E
:105100008A8320E030E0C901DF91CF910895EF92CA
:10511000FF920F931F93CF93DF93EC01F62EE72EB0
:105120008A011B821A8288EE93E0A0E0B0E08C83B3
:105130009D83AE83BF838DE898E0998388838DE15A
:1051400090E00E94EF419A8F898F009791F0DC01E7
:105150008F2D9E2D9C01F9018DE101900D928150C2
:10516000E1F7CE010C96B8014CE050E00E9402023B
:10517000188EDF91CF911F910F91FF90EF900895BE
:105180000F931F93CF93DF938C01FB01C081D181DB
:10519000FC01EC0FFD1F80818F3209F421969801EC
:1051A0002C0F3D1FA0E0B0E00BC0FA01EA0FFB1F7F
:1051B0008083119621962F5F3F4FAC30B10531F0BF
:1051C000F90180818F3211F0882379F7A40FB51F80
:1051D0001C92F801EC0FFD1F80818F3209F421969B
:1051E000FB01D183C083C00FD11F8881811181E071
:1051F000DF91CF911F910F9108951092840F10921B
:10520000850F1092880F10928A0F82E090E0A0E044
:10521000B0E080938B0F90938C0FA0938D0FB09381
:105220008E0F1092A20F1092AC0F1092AB0F8DE95F
:1052300098E09093AA0F8093A90F1092AE0F089553
:10524000EF92FF921F93DF93CF93CDB7DEB76D97A9
:105250000FB6F894DEBF0FBECDBF9C01AB011C8220
:105260001B828DE998E09A8389831E827E010894CF
:10527000E11CF11CC701B90121E00E94E135182FA2
:10528000882311F0C70153D7812F6D960FB6F8947C
:10529000DEBF0FBECDBFCF91DF911F91FF90EF908A
:1052A00008952F923F924F925F926F927F928F92CA
:1052B0009F92BF92CF92DF92EF92FF920F931F9334
:1052C000DF93CF93CDB7DEB7C954D0400FB6F89473
:1052D000DEBF0FBECDBF1C017B012A0139011B8A35
:1052E0001A8A8DE998E0998B888B1D8A18AA1FA6C7
:1052F0009EA78DA71AAA1A8219828B0120E1C22EBD
:10530000D12CCC0EDD1E93E0892E912C8C0E9D1E8F
:1053100003C0C80186016C01C101BE016F5F7F4FF0
:10532000A4012EDFB82E40E0882309F441E0C80133
:10533000B4019301F2011995882331F40E151F056C
:1053400001F1C801F4D61DC0BB20A1F0C601B8010F
:10535000A40121E00E94E135B82E0E151F0511F0C1
:10536000C801E5D6BB2069F00E151F0591F6CE01E8
:105370008D96D0CF0E151F0511F0C801D8D681E04B
:1053800001C080E0C75BDF4F0FB6F894DEBF0FBEF1
:10539000CDBFCF91DF911F910F91FF90EF90DF90E4
:1053A000CF90BF909F908F907F906F905F904F9025
:1053B0003F902F9008959B01BC01665D7F4FC9010E
:1053C00043E55CE220E030E06CCF9B01BC01665D10
:1053D0007F4FC90140E259E220E030E062CF2F92D6
:1053E0003F924F925F926F927F928F929F92AF9275
:1053F000BF92CF92DF92EF92FF920F931F93DF93B2
:10540000CF93CDB7DEB7C754D0400FB6F894DEBF08
:105410000FBECDBF582E492EFB013A01190184A5BC
:1054200095A5998B888B2DE938E03F872E8786A537
:105430008A8B87A58B8B80A991A9A2A9B3A98C8BF4
:105440009D8BAE8BBF8B84A995A9A6A9B7A9888F80
:10545000998FAA8FBB8F80AD91ADA2ADB3AD8C8F6C
:105460009D8FAE8FBF8F84AD88A3FD968191919162
:10547000A191B19189A39AA3ABA3BCA3819191916E
:10548000A191B1918DA39EA3AFA3B8A78081918173
:105490009AA789A71EA61DA63CA72BA718AA7A0122
:1054A0008E01025F1F4F3BE2A32EB12CAC0EBD1E3E
:1054B0004E010894811C911C33C0D7018C918F320E
:1054C00021F40894E11CF11C2BC0422F4E194D30E1
:1054D00008F04CE0C42EDD24C401B701A6010E94EF
:1054E0000202F401EC0DFD1D1082C50120D6C5019C
:1054F000B801A40121E00E94E135882351F4E52D93
:10550000F42D138212828DE998E0918380831582B5
:1055100065C0EC0CFD1CC8010AD6C50158018C0100
:10552000C7016FE270E00E94D9019C01009729F643
:10553000E618F708F101F182E082E52DF42DD8019B
:1055400012968D919C911397938382838DE998E0B5
:105550009183808314968C911497848315968C91F3
:105560001597858316962D913D914D915C911997D4
:1055700026833783408751871A962D913D914D910F
:105580005C911D9722873387448755871E962D91FE
:105590003D914D915C91519726873787408B518B78
:1055A00052968C915297828B53962D913D914D91AD
:1055B0005C915697238B348B458B568B57962D9148
:1055C0003D914D915C915A97278B308F418F528F2F
:1055D0005B968D919C915C97948F838F852D942DF4
:1055E000C95BDF4F0FB6F894DEBF0FBECDBFCF91C2
:1055F000DF911F910F91FF90EF90DF90CF90BF90C0
:10560000AF909F908F907F906F905F904F903F9062
:105610002F9008959F92AF92BF92CF92DF92EF9218
:10562000FF920F931F93DF93CF93CDB7DEB7C6578B
:10563000D0400FB6F894DEBF0FBECDBFC82E992E56
:105640008A01D22E43E0A42EB12CAC0EBD1EC501A2
:10565000A8019E012F5F3F4FC2DEE980FA80E00E75
:10566000F11EF70180814DE958E02885882309F073
:105670003FC08D819E819BA38AA359A348A38F819C
:105680008CA32DA389859A85AB85BC858EA39FA30A
:10569000A8A7B9A78D859E85AF85B8898AA79BA73E
:1056A000ACA7BDA789899A89AB89BC898EA79FA71A
:1056B000A8ABB9AB8D898AAB8E899F89A88DB98D2E
:1056C0008BAB9CABADABBEAB8A8D9B8DAC8DBD8DDA
:1056D0008FAB98AFA9AFBAAF8E8D9F8D9CAF8BAFBC
:1056E0008C2D992DBE01605E7F4F4AE658E09CC02C
:1056F000FE01FF96118210825EAF4DAFFE01EE5BA0
:10570000FF4F10822223A9F02250CE01CD962230E5
:1057100048F469EA7FE0A7012D2D0E94E135882336
:1057200071F407C0B501A7012D2D0E94E135882332
:1057300021F48C2D992DFFDB78C0C501F8D4F6E05B
:10574000DF2251F0FE01E05BFF4F40815181628119
:105750007381CE01CD96DED39E01265A3F4FFE01C6
:10576000FF9680819181F901938382838DE998E08E
:1057700091838083FE01EF5BFF4F8081F901848379
:10578000FE01EE5BFF4F8081F9018583FE01ED5B39
:10579000FF4F80819181A281B381F9018683978334
:1057A000A087B187FE01E95BFF4F80819181A281D3
:1057B000B381F90182879387A487B587FE01E55BF2
:1057C000FF4F80819181A281B381F90186879787FC
:1057D000A08BB18BFE01E15BFF4F8081F901828BD1
:1057E000FE01E05BFF4F80819181A281B381F901CD
:1057F000838B948BA58BB68BFE01EC5AFF4F808177
:105800009181A281B381F901878B908FA18FB28F93
:10581000FE01E85AFF4F80819181F901948F838FB7
:105820008C2D992DB901A70172DC8C2D992DCA58A8
:10583000DF4F0FB6F894DEBF0FBECDBFCF91DF9123
:105840001F910F91FF90EF90DF90CF90BF90AF909E
:105850009F9008950F931F93CF93DF93EC01462FF2
:1058600061E04ED28823C9F08E01045F1F4FC8014A
:10587000BE0141E00E94A537882339F4C801BE016A
:1058800040E00E94A537882341F0CE018A96B801F6
:1058900094D6882319F081E001C080E0DF91CF9198
:1058A0001F910F910895442311F481E008950C9401
:1058B000E236FC01673020F086E1858380E00895C0
:1058C000262F30E060FD02C0663019F48DB58E7F62
:1058D00002C08DB581608DBD8CB58C7F8CBD4CB503
:1058E00022FD02C090E001C092E036952795822FFC
:1058F0008170842B892B8CBD81E00895FF920F93DA
:105900001F93CF93DF938B010E945C40EB01FF2438
:10591000FA94FEBC0DB407FEFDCF8EB58F3F11F497
:1059200081E008C00E945C406C1B7D0B6017710712
:1059300080F380E0DF91CF911F910F91FF90089548
:10594000FC01848160E00C94BD41FC01848161E034
:105950000C94BD41DC016EBDFA0120E030E00DB4D5
:1059600007FEFDCF80818EBD0DB407FEFDCF818186
:105970008EBD2E5F3F4F329682E02030380779F798
:105980000DB407FEFDCF8FEF8EBD0DB407FEFDCF2A
:105990008FEF8EBD0DB407FEFDCF8FEF8EBD0DB422
:1059A00007FEFDCF8EB51A968C931A978F718530AE
:1059B00011F481E0089581E115968C931597CD013E
:1059C000C4DF80E00895FF920F931F93CF93DF937E
:1059D000EC010E945C408B01FF24FA9409C00E94F4
:1059E0005C40601B710B6D52714010F08FE00DC078
:1059F000FEBC0DB407FEFDCF8EB58A878F3F79F3CD
:105A00008E3F11F481E005C08DE08D83CE019DDFD6
:105A100080E0DF91CF911F910F91FF900895CF9378
:105A2000DF93EC018E818823C9F08FEF8EBD2F812B
:105A300038854FEF04C00DB407FEFDCF4EBD2F5F7C
:105A40003F4FC901019781509240A8F338872F83B7
:105A50000DB407FEFDCFCE0178DF1E82DF91CF911E
:105A60000895DF92EF92FF920F931F93CF93DF93EE
:105A7000EC01D62E79018A01D2DFCE0161DFCE01A1
:105A80006CE271E03BDF8D2D80648EBD0DB407FEAE
:105A9000FDCF28E130E0D801C701022E04C0B69541
:105AA000A795979587950A94D2F78EBD0DB407FEFA
:105AB000FDCF285030408FEF283F380761F7DD20B9
:105AC00011F485E906C088E0D81611F487E801C012
:105AD0008FEF8EBD0DB407FEFDCF90E02FEF2EBDF2
