:10000000B0C10000DBC10000D9C10000D7C10000B1
:10001000D5C10000D3C10000D1C10000CFC1000094
:10002000CDC10000CBC10000C9C10000C7C10000A4
:10003000C5C10000C3C10000C1C10000BFC10000B4
:10004000BDC10000BBC10000B9C10000B7C10000C4
:10005000B5C10000B3C10000B1C100000C945E4105
:10006000ADC100000C946F440C94C345A7C10000BF
:10007000A5C10000A3C10000A1C100009FC10000F4
:100080009DC100009BC1000099C1000097C1000004
:100090000C94AF440C94024691C100000C94AD3F07
:1000A0008DC100008BC1000089C1000087C1000024
:1000B00085C1000083C1000081C100007FC1000034
:1000C0007DC100007BC1000079C100000C94EF44A9
:1000D0000C94414673C100000C942F450C9480464B
:1000E0006DC100005254435F75692D2D3E616374EC
:1000F000696F6E2D2D3E43616E63656C00467265BF
:100100006520536372616D203D005254435F7569F1
:100110002D2D3E616374696F6E2D2D3E7570646187
:100120007465004D61696E5F55492D2D3E536574B0
:1001300055702D2D3E466C6F775F73656E736F72D1
:10014000004D61696E5F55492D2D3E5365745570A4
:100150002D2D3E54656D705F73656E736F72007206
:10016000657475726E65642066726F6D205265618C
:1001700064537472696E67417272617953443D00D1
:1001800063616C6C696E6720526561645374726957
:100190006E67417272617900696E697469616C6938
:1001A0007A6174696F6E20646F6E652E00696E6986
:1001B0007469616C697A6174696F6E206661696CDB
:1001C000656421006572726F7220696E20526561EC
:1001D00064537472696E67417272617953442C2062
:1001E000646964206E6F742066696E642066696C51
:1001F00065206F7220636F756C64206E6F74206F62
:1002000070656E2069742E20534446696C653D000C
:100210006572726F72206F70656E696E67205344ED
:1002200046696C653D007C3C3E5E2B3D3F2F5B5D2F
:100230003B2C2A225C0000002100240027002A0019
:100240002D003000330001010000040107010A0104
:1002500000002200250028002B002E003100340071
:1002600002010000050108010B010000200023002D
:10027000260029002C002F0032000001000003019D
:100280000601090105050505070508080808020219
:1002900002020A0A08080404040401010101010120
:1002A00001010303030303030303040707070C0C03
:1002B0000C0C0C0C0C0C02020202060606060606CA
:1002C00006060B0B0B0B0B0B0B0B0102102020086F
:1002D00008102040102040800201020108040201A1
:1002E0000102040810204080804020100804020110
:1002F0008004020180402010080402010804020169
:1003000001020408102040800102040810204080EF
:100310000000090A02080B0C0D0706030401000087
:1003200000000000000000000000000000000000CD
:1003300000000000000000000000000011100F008D
:1003400000000000000000000000000000000000AD
:1003500000000000000051090B27472A533EF247D6
:100360004C0911241FBECFEFD1E2DEBFCDBF00E0AC
:100370000CBF19E0A0E0B2E0ECE1F0EA00E00BBF56
:1003800002C007900D92AC30B107D9F71BBE15E142
:10039000ACE0B9E001C01D92A53BB107E1F713E065
:1003A000C0E6D3E004C02297FE010E94F34FC63599
:1003B000D107C9F70E9429490C94025021CE1F93FE
:1003C000FC0199278827BC01E89411911032E9F3C8
:1003D000193010F01E30C8F31B3249F01D3241F4C1
:1003E000689405C080D0610F711D811D911D119110
:1003F00010531A30B8F33EF490958095709561953E
:100400007F4F8F4F9F4F1F910895FB01DC0104C068
:100410008D910190801921F441505040C8F7881BFC
:10042000990B0895FB01DC0102C001900D9241502F
:100430005040D8F70895FC018191861721F0882358
:10044000D9F7992708953197CF010895FB01DC0171
:100450008D91019080190110D9F3990B0895FB013A
:10046000DC0101900D920020E1F70895FB01DC0111
:100470004150504030F08D910190801919F40020C6
:10048000B9F7881B990B0895FB01DC0141505040DE
:1004900048F001900D920020C9F701C01D92415013
:1004A0005040E0F70895FB019F01E8944230C4F00A
:1004B0004532B4F44A3029F497FB1EF490958195A7
:1004C0009F4F642F77270E94DD4F805D8A330CF0A9
:1004D000895D8193CB010097A1F716F45DE25193FA
:1004E0001082C9012AC0592F482F372F262F660F97
:1004F000771F881F991F660F771F881F991F620F2C
:10050000731F841F951F660F771F881F991F0895FB
:10051000FB019F01423074F0453264F4642F772769
:100520000E94DD4F805D8A330CF0895D8193CB01A1
:100530000097A1F71082C90100C0DC01FC01672F00
:1005400071917723E1F7329704C07C916D937083AA
:100550006291AE17BF07C8F30895EF92FF920F9311
:100560001F937C0100E012E00A96B8010E94994DA9
:10057000C7014096B8010E94994DC7014696B8013F
:100580000E94994DC7014C96B8010E94994DC70130
:100590008E96B8010E94994DC701C496B8010E9479
:1005A000994DC701CA96B8010E94994DC701805C58
:1005B0009F4FB8010E94994DF70117A216A21F91F3
:1005C0000F91FF90EF900895CF92EF920F93CF93FA
:1005D000DF938130910509F0B0C56F5F7F4F09F05F
:1005E00055C68CE099E00E94E52887E299E00E94D8
:1005F000043E85EE99E068E049E024E005E056E03D
:10060000E52E37E0C32E0E94AD2881E09AE060E03D
:1006100072E00E94994D87E09AE060E072E00E94EB
:10062000994D8DE09AE060E072E00E94994D85E17D
:100630009AE061E072E00E94994D8BE19AE068E3F4
:1006400072E00E94994D81E29AE061E872E00E94B6
:10065000994D87E29AE06AEC72E00E94994D8DE232
:100660009AE060EF72E00E94994D83E39AE067E4BC
:1006700073E00E94994D89E39AE06BE773E00E9472
:10068000994D8FE39AE065EA73E00E94994D85E405
:100690009AE06DEC73E00E94994D8BE49AE066EF6E
:1006A00073E00E94994D81E59AE06CE374E00E944A
:1006B000994D87E59AE062E774E00E94994D8DE5D7
:1006C0009AE062E774E00E94994D83E69AE062E75F
:1006D00074E00E94994D89E69AE062E774E00E9416
:1006E000994D8FE69AE062E774E00E94994D85E7A4
:1006F0009AE062E774E00E94994D86E89AE02DDF67
:100700008DEC9AE063EC74E00E94994D83ED9AE0E1
:1007100066EC74E00E94994D89ED9AE069EC74E012
:100720000E94994D8FED9AE06CEC74E00E94994D17
:1007300085EE9AE06FEC74E00E94994D8BEE9AE0A2
:1007400062ED74E00E94994D81EF9AE065ED74E0EE
:100750000E94994D87EF9AE068ED74E00E94994DF0
:100760008DEF9AE06BED74E00E94994D83E09BE081
:100770006EED74E00E94994D89E09BE061EE74E0BB
:100780000E94994D8FE09BE064EE74E00E94994DC9
:1007900085E19BE063EC74E00E94994D8BE19BE066
:1007A00066EC74E00E94994D81E29BE069EC74E094
:1007B0000E94994D87E29BE06CEC74E00E94994D99
:1007C0008DE29BE06FEC74E00E94994D83E39BE027
:1007D00062ED74E00E94994D89E39BE065ED74E061
:1007E0000E94994D8FE39BE068ED74E00E94994D63
:1007F00085E49BE06BED74E00E94994D8BE49BE0F7
:100800006EED74E00E94994D81E59BE061EE74E02D
:100810000E94994D87E59BE064EE74E00E94994D3B
:100820008DE59BE067EE74E00E94994D83E69BE0C6
:100830006AEE74E00E94994D89E69BE06DEE74E0EB
:100840000E94994D8FE69BE060EF74E00E94994D05
:1008500085E79BE063EF74E00E94994D8BE79BE096
:1008600066EF74E00E94994D81E89BE069EF74E0C7
:100870000E94994D87E89BE06CEF74E00E94994DCF
:100880008DE89BE06FEF74E00E94994D83E99BE057
:1008900062E075E00E94994D89E99BE065E075E0B2
:1008A0000E94994D8FE99BE068E075E00E94994DA8
:1008B00085EA9BE06BE075E00E94994D8BEA9BE036
:1008C0006EE075E00E94994D81EB9BE061E175E07F
:1008D0000E94994D87EB9BE064E175E00E94994D81
:1008E0008DEB9BE067E175E00E94994D83EC9BE006
:1008F0006AE175E00E94994D89EC9BE06DE175E03D
:100900000E94994D8FEC9BE060E275E00E94994D4A
:1009100085ED9BE062E275E00E94994D8BED9BE0D6
:1009200064E275E00E94994D81EE9BE066E275E01D
:100930000E94994D87EE9BE068E275E00E94994D18
:100940008DEE9BE06AE275E00E94994D83EF9BE09B
:100950006CE275E00E94994D89EF9BE06EE275E0D4
:100960000E94994D8FEF9BE060E375E00E94994DE6
:1009700085E09CE062E375E00E94994D8BE09CE08D
:1009800064E375E00E94994D81E19CE063EC74E0C2
:100990000E94994D87E19CE066EC74E00E94994DBD
:1009A0008DE19CE069EC74E00E94994D83E29CE04B
:1009B0006CEC74E00E94994D89E29CE06FEC74E06D
:1009C0000E94994D8FE29CE062ED74E00E94994D87
:1009D00085E39CE065ED74E00E94994D8BE39CE01B
:1009E00068ED74E00E94994D81E49CE06BED74E049
:1009F0000E94994D87E49CE06EED74E00E94994D51
:100A00008DE49CE061EE74E00E94994D83E59CE0EA
:100A100064EE74E00E94994D89E59CE067EE74E015
:100A20000E94994D8FE59CE06AEE74E00E94994D1A
:100A300085E69CE06DEE74E00E94994D8BE69CE0AB
:100A400060EF74E00E94994D81E79CE063EF74E0F1
:100A50000E94994D87E79CE066EF74E00E94994DF3
:100A60008DE79CE069EF74E00E94994D83E89CE07B
:100A70006CEF74E00E94994D89E89CE06FEF74E0A0
:100A80000E94994D8FE89CE062E075E00E94994DCC
:100A900085E99CE065E075E00E94994D8BE99CE05A
:100AA00064E375E00E94994D81EA9CE063EC74E098
:100AB0000E94994D87EA9CE066EC74E00E94994D93
:100AC0008DEA9CE069EC74E00E94994D83EB9CE018
:100AD0006CEC74E00E94994D89EB9CE06FEC74E043
:100AE0000E94994D8FEB9CE062ED74E00E94994D5D
:100AF00085EC9CE065ED74E00E94994D8BEC9CE0E8
:100B000068ED74E00E94994D81ED9CE06BED74E01E
:100B10000E94994D87ED9CE06EED74E00E94994D26
:100B20008DED9CE061EE74E00E94994D83EE9CE0B7
:100B300064EE74E00E94994D89EE9CE067EE74E0EB
:100B40000E94994D8FEE9CE06AEE74E00E94994DF0
:100B500085EF9CE06DEE74E00E94994D8BEF9CE078
:100B600060EF74E00E94994D81E09DE063EF74E0D6
:100B70000E94994D87E09DE066EF74E00E94994DD8
:100B80008DE09DE069EF74E00E94994D83E19DE066
:100B90006CEF74E00E94994D89E19DE06FEF74E085
:100BA0000E94994D8FE19DE062E075E00E94994DB1
:100BB00085E29DE065E075E00E94994D8BE29DE045
:100BC00068E075E00E94994D81E39DE06BE075E07F
:100BD0000E94994D87E39DE06EE075E00E94994D7B
:100BE0008DE39DE061E175E00E94994D83E49DE015
:100BF00064E175E00E94994D89E49DE067E175E04C
:100C00000E94994D8FE49DE06AE175E00E94994D44
:100C100085E59DE06DE175E00E94994D8BE59DE0D5
:100C200067E375E00E94994D81E69DE06AE375E017
:100C30000E94994D87E69DE06DE375E00E94994D15
:100C40008DE69DE060E475E00E94994D83E79DE0AC
:100C500063E475E00E94994D89E79DE066E475E0E4
:100C60000E94994D8FE79DE069E475E00E94994DDF
:100C700085E89DE06CE475E00E94994D8BE89DE06D
:100C80006FE475E00E94994D81E99DE062E575E0B1
:100C90000E94994D87E99DE065E575E00E94994DB8
:100CA0008DE99DE068E575E00E94994D83EA9DE03D
:100CB0006BE575E00E94994D89EA9DE06EE575E06F
:100CC0000E94994D8FEA9DE061E675E00E94994D82
:100CD00085EB9DE064E675E00E94994D8BEB9DE00D
:100CE00067E675E00E94994D81EC9DE06AE675E04B
:100CF0000E94994D87EC9DE06DE675E00E94994D4C
:100D00008DEC9DE060E775E00E94994D83ED9DE0DC
:100D100063E775E00E94994D89ED9DE066E775E017
:100D20000E94994D8FED9DE069E775E00E94994D15
:100D300085EE9DE06CE775E00E94994D8BEE9DE09D
:100D40006FE775E00E94994D81EF9DE062E875E0E4
:100D50000E94994D87EF9DE065E875E00E94994DEE
:100D60008DEF9DE068E875E00E94994D83E09EE07C
:100D700060E275E00E94994D89E09EE062E275E0D4
:100D80000E94994D8FE09EE064E275E00E94994DCB
:100D900085E19EE066E275E00E94994D8BE19EE060
:100DA00068E275E00E94994D81E29EE06AE275E09A
:100DB0000E94994D87E29EE06CE275E00E94994D99
:100DC0008DE29EE06EE275E00E94994D83E39EE025
:100DD00060E375E00E94994D89E39EE062E375E06F
:100DE0000E94994D8FE39EE06BE875E00E94994D5B
:100DF00085E49EE06DE875E00E94994D8BE49EE0ED
:100E00006FE875E00E94994D81E59EE061E975E02B
:100E10000E94994D87E59EE063E975E00E94994D37
:100E20008DE59EE065E975E00E94994D83E69EE0C0
:100E300067E975E00E94994D89E69EE069E975E0F1
:100E40000E94994D8FE69EE06BE975E00E94994DF6
:100E500085E79EE06DE975E00E94994D8BE79EE085
:100E60006FE975E00E94994D81E89EE061EA75E0C6
:100E70000E94994D87E89EE063EA75E00E94994DD3
:100E80008DE89EE065EA75E00E94994D83E99EE059
:100E900067EA75E00E94994D89E99EE069EA75E08C
:100EA0000E94994D8FE99EE06BEA75E00E94994D92
:100EB00085EA9EE06DEA75E00E94994D8BEA9EE01E
:100EC0006FEA75E00E94994D81EB9EE061EB75E061
:100ED0000E94994D87EB9EE063EB75E00E94994D6F
:100EE0008DEB9EE065EB75E00E94994D83EC9EE0F2
:100EF00067EB75E00E94994D89EC9EE069EB75E027
:100F00000E94994D8FEC9EE06BEB75E00E94994D2D
:100F100085ED9EE06DEB75E00E94994D8BED9EE0B6
:100F20006FEB75E00E94994D81EE9EE061EC75E0FB
:100F30000E94994D87EE9EE063EC75E00E94994D0A
:100F40008DEE9EE065EC75E00E94994D83EF9EE08A
:100F500067EC75E00E94994D89EF9EE069EC75E0C1
:100F60000E94994D8FEF9EE06BEC75E00E94994DC9
:100F700085E09FE06DEC75E00E94994D8BE09FE06D
:100F80006FEC75E00E94994D81E19FE061ED75E0A5
:100F90000E94994D87E19FE063ED75E00E94994DB5
:100FA0008DE19FE065ED75E00E94994D83E29FE041
:100FB00067ED75E00E94994D89E29FE069ED75E06B
:100FC0000E94994D8FE29FE06BED75E00E94994D74
:100FD00085E39FE06DED75E00E94994D8BE39FE006
:100FE0006FED75E00E94994D81E49FE061EE75E040
:100FF0000E94994D87E49FE063EE75E00E94994D51
:101000008DE49FE065EE75E00E94994D83E59FE0D9
:1010100067EE75E00E94994D89E59FE069EE75E005
:101020000E94994D8FE59FE06BEE75E00E94994D0F
:1010300085E69FE06DEE75E00E94994D8BE69FE09E
:101040006FEE75E00E94994D81E79FE061EF75E0DA
:101050000E94994D87E79FE060E275E00E94994DFC
:101060008DE79FE062E275E00E94994D83E89FE082
:1010700064E275E00E94994D89E89FE066E275E0C0
:101080000E94994D8FE89FE068E275E00E94994DBB
:1010900085E99FE06AE275E00E94994D8BE99FE047
:1010A0006CE275E00E94994D81EA9FE06EE275E086
:1010B0000E94994D87EA9FE060E375E00E94994D98
:1010C0008DEA9FE062E375E00E94994D83EB9FE01B
:1010D00063EF75E00E94994D89EB9FE065EF75E045
:1010E0000E94994D8FEB9FE067EF75E00E94994D4C
:1010F00085EC9FE06BEF75E00E94994D8BEC9FE0D3
:101100006FEF75E00E94994D81ED9FE063E076E01E
:101110000E94994D87ED9FE067E076E00E94994D2F
:101120008DED9FE06BE076E00E94994D83EE9FE0AD
:101130006FE076E00E94994DA9C0892B09F0A6C006
:101140006F5F7F4F09F0A2C0C3EEDFE0CE010E94C7
:10115000924E26978FE0C93BD807C1F7C9EBDFE075
:10116000CE010E94924E26978EE0C933D807C1F770
:10117000C9E3DEE0CE010E94924E26978DE0CD3F7E
:10118000D807C1F7CDEFDDE0CE010E94924E269741
:101190008CE0C539D807C1F7C5E9DCE0CE010E9473
:1011A000924E26978CE0C530D807C1F7C5E0DCE049
:1011B000CE010E94924E26978BE0C93CD807C1F71A
:1011C000C9ECDBE0CE010E94924E26978BE0CF3037
:1011D000D807C1F7CFE0DBE0CE010E94924E269700
:1011E0008AE0C73CD807C1F786EC9AE00E94924E8D
:1011F00080EC9AE00E94924E8AEB9AE00E94924E16
:1012000084EB9AE00E94924E82EA9AE00E94924E0B
:101210008CE99AE00E94924E86E99AE00E94924EF2
:1012200080E99AE00E94924EC5E7DAE0CE010E9482
:10123000924E26978AE0C135D807C1F781E59AE03A
:101240000E94924E8BE49AE00E94924EC5E4DAE04E
:10125000CE010E94924E26978AE0C732D807C1F786
:10126000C7E2DAE0CE010E94924E26978AE0CF30A4
:10127000D807C1F78DE09AE00E94924E87E09AE08D
:101280000E94924E81E09AE00E94924EDF91CF91AF
:101290000F91EF90CF90089580E090E06FEF7FEF97
:1012A00093C981E090E06FEF7FEF8EC9BC0188E2C7
:1012B00095E10C94C849EF92FF920F931F93DF932F
:1012C000CF93CDB7DEB7C257D0400FB6F894DEBF8C
:1012D0000FBECDBF8AEF99E00E947526882309F4DE
:1012E0007DC1CE01019660E072E00E94994DB7E0A9
:1012F000EB2EF12CEC0EFD1EC70160E072E00E94A7
:10130000994D8E01035F1F4FC8016091FC094AE0AF
:101310000E94E04DC701B8010E946D4EC8010E94B5
:10132000924E8B859C85019791F48E010D5E1F4F27
:10133000C80160E30E94104EC801B7010E94664DCB
:10134000BC01C7010E946D4EC8010E94974E8E01DC
:10135000075E1F4FA7E0EA2EF12CEC0EFD1EC80120
:10136000B7010E948A4EC80163E176E00E944C4DAD
:10137000BC0181E09AE00E946D4EC8010E94974E28
:101380008E01015E1F4FC8016091FB094AE00E9477
:10139000E04DC701B8010E946D4EC8010E94924EF7
:1013A0008B859C85019791F48E010B5D1F4FC801C1
:1013B00060E30E94104EC801B7010E94664DBC0157
:1013C000C7010E946D4EC8010E94974E8E01055DB7
:1013D0001F4FC80161E07AE00E948A4EF7E0EF2ECD
:1013E000F12CEC0EFD1EC801B7010E94664D63E1B1
:1013F00076E00E944C4DBC0181E09AE00E946D4E67
:10140000C8010E94974E8E010F5C1F4FC80160916A
:10141000FA094AE00E94E04DC701B8010E946D4EF2
:10142000C8010E94924E8B859C85019791F48E0194
:10143000095C1F4FC80160E30E94104EC801B7014C
:101440000E94664DBC01C7010E946D4EC8010E94FA
:10145000974E8E01035C1F4FC80161E07AE00E9445
:101460008A4EE7E0EE2EF12CEC0EFD1EC801B7010E
:101470000E94664DBC0181E09AE00E946D4EC80159
:101480000E94974E8E010D5B1F4FC8016091FF09AE
:101490004AE00E94E04DC701B8010E946D4EC801AC
:1014A0000E94924E8B859C85019791F48E01075B7B
:1014B0001F4FC80160E30E94104EC801B7010E948F
:1014C000664DBC01C7010E946D4EC8010E94974E37
:1014D0008E01015B1F4F77E0E72EF12CEC0EFD1E15
:1014E000C801B7010E948A4EC80165E176E00E94FA
:1014F0004C4DBC0187E09AE00E946D4EC8010E94ED
:10150000974E8E010B5A1F4FC8016091FE094AE0A9
:101510000E94E04DC701B8010E946D4EC8010E94B3
:10152000924E8B859C85019791F48E01055A1F4F31
:10153000C80160E30E94104EC801B7010E94664DC9
:10154000BC01C7010E946D4EC8010E94974E8E01DA
:101550000F591F4FC80167E07AE00E948A4E67E08A
:10156000E62EF12CEC0EFD1EC801B7010E94664D5F
:1015700065E176E00E944C4DBC0187E09AE00E9454
:101580006D4EC8010E94974E8E0109591F4FC80128
:1015900067E07AE00E948A4E6091000A70E06E5423
:1015A000784FC8010E942E4DBC0187E09AE00E944E
:1015B0006D4EC8010E94974E6091FD0986E0689FBC
:1015C000B00111246154704F8DE09AE00E946D4E7D
:1015D000C7010E94924ECE01019616C08091EC0F79
:1015E000882339F088E295E167E176E00E94EE4ACF
:1015F0000DC08E0103591F4FC80166E476E00E94BA
:10160000994DC80153DEC8010E94924ECE58DF4F5B
:101610000FB6F894DEBF0FBECDBFCF91DF911F9103
:101620000F91FF90EF9008954F925F926F927F928B
:101630008F929F92AF92BF92CF92DF92EF92FF92E2
:101640000F931F93DF93CF93CDB7DEB7A4970FB659
:10165000F894DEBF0FBECDBF3C01A62E8E010F5FFA
:101660001F4FC80160E072E00E94994DCE010796BD
:1016700060E072E00E94994DBAE04B2E512C460C6E
:10168000571CF30126A137A1ADE0EA2EF12CEC0E98
:10169000FD1EC701B201A9012F5F3F4F0E94284ED6
:1016A000C801B7010E946D4EC7010E94924EEE2400
:1016B000FF24C02E012FB701660F771F6E0D7F1D0F
:1016C000660F771F615C714F8C2D902F0E94224C0A
:1016D000882341F4F0E4EF16F10421F00894E11CB2
:1016E000F11CE9CFAA2051F08FE3E816F1041CF0B9
:1016F00080E090E00BC0C701019608C0E114F1043E
:1017000019F48FE390E002C0C701019757E0852EDE
:10171000912C8C0E9D1EBC01660F771F680F791FE0
:10172000660F771F615C714FC4010E946D4E23E10B
:10173000A22EB12CAC0EBD1EF30126A137A1C5010E
:10174000B20140E050E00E94284E99E1C92ED12C10
:10175000CC0EDD1EC601B5010E948A4EC601B40141
:101760000E94664D8C018FE1E82EF12CEC0EFD1EDF
:10177000F30146A157A14F5F5F4F26853785C7010B
:10178000B2010E94284EC801B7010E94664DBC01FB
:101790008E010F5F1F4FC8010E946D4EC7010E944E
:1017A000924EC6010E94974EC5010E94924EC20100
:1017B000B8010E946D4EC4010E94924EC8010E9461
:1017C000924EA4960FB6F894DEBF0FBECDBFCF9158
:1017D000DF911F910F91FF90EF90DF90CF90BF901E
:1017E000AF909F908F907F906F905F904F900895F3
:1017F0004F925F926F927F928F929F92AF92BF9221
:10180000CF92DF92EF92FF920F931F93DF93CF93CC
:10181000CDB7DEB7A4970FB6F894DEBF0FBECDBF2D
:101820003C01D62E7E010894E11CF11CC70160E04A
:1018300072E00E94994DCE01079660E072E00E942E
:10184000994D6AE0462E512C460C571CF30126A1F7
:1018500037A18E01035F1F4FC801B201A9012F5F9D
:101860003F4F0E94284EC701B8010E946D4EC8012B
:101870000E94924EC7010E94144BDD2049F069304E
:1018800071051CF080E090E00BC0CB01019608C010
:10189000161617061CF089E090E002C0CB010197F4
:1018A00057E0852E912C8C0E9D1EBC01660F771F74
:1018B000680F791F660F771F6D5F714FC4010E941B
:1018C0006D4E23E1A22EB12CAC0EBD1EF30126A15C
:1018D00037A1C501B20140E050E00E94284E99E1D5
:1018E000C92ED12CCC0EDD1EC601B5010E948A4E38
:1018F000C601B4010E94664D8C018FE1E82EF12CE7
:10190000EC0EFD1EF30146A157A14F5F5F4F2685E8
:101910003785C701B2010E94284EC801B7010E9455
:10192000664DBC018E010F5F1F4FC8010E946D4EB6
:10193000C7010E94924EC6010E94974EC5010E94A7
:10194000924EC201B8010E946D4EC4010E94924E97
:10195000C8010E94924EA4960FB6F894DEBF0FBE47
:10196000CDBFCF91DF911F910F91FF90EF90DF904E
:10197000CF90BF90AF909F908F907F906F905F902F
:101980004F9008954F925F926F927F928F929F92A5
:10199000AF92BF92CF92DF92EF92FF920F931F937D
:1019A000DF93CF93CDB7DEB7A4970FB6F894DEBF21
:1019B0000FBECDBF3C01D62E7E010894E11CF11C68
:1019C000C70160E072E00E94994DCE01079660E089
:1019D00072E00E94994D0AE0402E512C460C571C93
:1019E000F30126A137A18E01035F1F4FC801B20189
:1019F000A9012E5F3F4F0E94284EC701B8010E94E7
:101A00006D4EC8010E94924EC7010E94144BDD200A
:101A100049F06B3371051CF080E090E00BC0CB0106
:101A2000019608C0161617061CF08BE390E002C062
:101A3000CB01019717E0812E912C8C0E9D1EBC01CD
:101A4000660F771F680F791F660F771F6556734FF4
:101A5000C4010E946D4EF3E1AF2EB12CAC0EBD1E41
:101A6000F30126A137A1C501B20140E050E00E9478
:101A7000284EE9E1CE2ED12CCC0EDD1EC601B501DB
:101A80000E948A4EC601B4010E94664D8C017FE11E
:101A9000E72EF12CEC0EFD1EF30146A157A14E5F7F
:101AA0005F4F26853785C701B2010E94284EC801C5
:101AB000B7010E94664DBC018E010F5F1F4FC80128
:101AC0000E946D4EC7010E94924EC6010E94974E21
:101AD000C5010E94924EC201B8010E946D4EC40120
:101AE0000E94924EC8010E94924EA4960FB6F8949E
:101AF000DEBF0FBECDBFCF91DF911F910F91FF9041
:101B0000EF90DF90CF90BF90AF909F908F907F909D
:101B10006F905F904F9008954F925F926F927F9277
:101B20008F929F92AF92BF92CF92DF92EF92FF92ED
:101B30000F931F93DF93CF93CDB7DEB7A4970FB664
:101B4000F894DEBF0FBECDBF3C01D62E7E010894B7
:101B5000E11CF11CC70160E072E00E94994DCE01CA
:101B6000079660E072E00E94994D6AE0462E512C83
:101B7000460C571CF30126A137A18E01035F1F4FAE
:101B8000C801B201A9012E5F3F4F0E94284EC70134
:101B9000B8010E946D4EC8010E94924EC7010E947A
:101BA000144BDD2049F0673171051CF080E090E0B6
:101BB0000BC0CB01019608C0161617061CF087E172
:101BC00090E002C0CB01019757E0852E912C8C0E3E
:101BD0009D1EBC01660F771F680F791F660F771F68
:101BE000655F734FC4010E946D4E23E1A22EB12C9C
:101BF000AC0EBD1EF30126A137A1C501B20140E024
:101C000050E00E94284E99E1C92ED12CCC0EDD1E49
:101C1000C601B5010E948A4EC601B4010E94664DFC
:101C20008C018FE1E82EF12CEC0EFD1EF30146A194
:101C300057A14E5F5F4F26853785C701B2010E94CD
:101C4000284EC801B7010E94664DBC018E010F5F8E
:101C50001F4FC8010E946D4EC7010E94924EC601DF
:101C60000E94974EC5010E94924EC201B8010E9487
:101C70006D4EC4010E94924EC8010E94924EA496DD
:101C80000FB6F894DEBF0FBECDBFCF91DF911F918D
:101C90000F91FF90EF90DF90CF90BF90AF909F900B
:101CA0008F907F906F905F904F9008954F925F92CA
:101CB0006F927F928F929F92AF92BF92CF92DF925C
:101CC000EF92FF920F931F93DF93CF93CDB7DEB7C1
:101CD000A4970FB6F894DEBF0FBECDBF3C01A62E71
:101CE0008E010F5F1F4FC80160E072E00E94994DA6
:101CF000CE01079660E072E00E94994D5AE0452EB1
:101D0000512C460C571CF30126A137A14DE0E42EBF
:101D1000F12CEC0EFD1EC701B201A9012D5F3F4F52
:101D20000E94284EC801B7010E946D4EC7010E9453
:101D3000924EEE24FF24C02E012FB701660F771FAD
:101D40006E0D7F1D660F771F6154704F8C2D902F85
:101D50000E94224C882341F4F6E0EF16F10421F0B2
:101D60000894E11CF11CE9CFAA2051F086E0E816A6
:101D7000F1041CF080E090E00BC0C701019608C0A0
:101D8000E114F10419F486E090E002C0C701019764
:101D900017E0812E912C8C0E9D1EBC01660F771FC3
:101DA000680F791F660F771F6154704FC4010E943E
:101DB0006D4EF3E1AF2EB12CAC0EBD1EF30126A18A
:101DC00037A1C501B20140E050E00E94284EE9E190
:101DD000CE2ED12CCC0EDD1EC601B5010E948A4E3E
:101DE000C601B4010E94664D8C017FE1E72EF12C03
:101DF000EC0EFD1EF30146A157A14D5F5F4F2685F6
:101E00003785C701B2010E94284EC801B7010E9460
:101E1000664DBC018E010F5F1F4FC8010E946D4EC1
:101E2000C7010E94924EC6010E94974EC5010E94B2
:101E3000924EC201B8010E946D4EC4010E94924EA2
:101E4000C8010E94924EA4960FB6F894DEBF0FBE52
:101E5000CDBFCF91DF911F910F91FF90EF90DF9059
:101E6000CF90BF90AF909F908F907F906F905F903A
:101E70004F9008954F925F926F927F928F929F92B0
:101E8000AF92BF92CF92DF92EF92FF920F931F9388
:101E9000DF93CF93CDB7DEB7A4970FB6F894DEBF2C
:101EA0000FBECDBF3C01D62E7E010894E11CF11C73
:101EB000C70160E072E00E94994DCE01079660E094
:101EC00072E00E94994D1AE0412E512C460C571C8D
:101ED000F30126A137A18E01035F1F4FC801B20194
:101EE000A9012F5F3F4F0E94284EC701B8010E94F1
:101EF0006D4EC8010E94924EC7010E94144BDD2016
:101F000049F0693071051CF080E090E00BC0CB0116
:101F1000019608C0161617061CF089E090E002C072
:101F2000CB010197B7E08B2E912C8C0E9D1EBC012E
:101F3000660F771F680F791F660F771F6153744F05
:101F4000C4010E946D4EE3E1AE2EB12CAC0EBD1E5D
:101F5000F30126A137A1C501B20140E050E00E9483
:101F6000284E79E1C72ED12CCC0EDD1EC601B5015D
:101F70000E948A4EC601B4010E94664D8C016FE139
:101F8000E62EF12CEC0EFD1EF30146A157A14F5F8A
:101F90005F4F26853785C701B2010E94284EC801D0
:101FA000B7010E94664DBC018E010F5F1F4FC80133
:101FB0000E946D4EC7010E94924EC6010E94974E2C
:101FC000C5010E94924EC201B8010E946D4EC4012B
:101FD0000E94924EC8010E94924EA4960FB6F894A9
:101FE000DEBF0FBECDBFCF91DF911F910F91FF904C
:101FF000EF90DF90CF90BF90AF909F908F907F90A9
:102000006F905F904F9008954F925F926F927F9282
:102010008F929F92AF92BF92CF92DF92EF92FF92F8
:102020000F931F93DF93CF93CDB7DEB7A4970FB66F
:10203000F894DEBF0FBECDBF3C01D62E7E010894C2
:10204000E11CF11CC70160E072E00E94994DCE01D5
:10205000079660E072E00E94994D6AE0462E512C8E
:10206000460C571CF30126A137A18E01035F1F4FB9
:10207000C801B201A9012E5F3F4F0E94284EC7013F
:10208000B8010E946D4EC8010E94924EC7010E9485
:10209000144B9B0121503040DD2041F02E313105A1
:1020A0001CF080E090E00AC0CB0108C012161306B5
:1020B0001CF08EE190E002C0C901019757E0852E27
:1020C000912C8C0E9D1EBC01660F771F680F791F27
:1020D000660F771F6B5E744FC4010E946D4E23E143
:1020E000A22EB12CAC0EBD1EF30126A137A1C50155
:1020F000B20140E050E00E94284E99E1C92ED12C57
:10210000CC0EDD1EC601B5010E948A4EC601B40187
:102110000E94664D8C018FE1E82EF12CEC0EFD1E25
:10212000F30146A157A14E5F5F4F26853785C70152
:10213000B2010E94284EC801B7010E94664DBC0141
:102140008E010F5F1F4FC8010E946D4EC7010E9494
:10215000924EC6010E94974EC5010E94924EC20146
:10216000B8010E946D4EC4010E94924EC8010E94A7
:10217000924EA4960FB6F894DEBF0FBECDBFCF919E
:10218000DF911F910F91FF90EF90DF90CF90BF9064
:10219000AF909F908F907F906F905F904F90089539
:1021A0000F931F938823D1F087E299E048EE53E024
:1021B00060E070E02BE539E003E010E00E94F73DBD
:1021C000992787FD90959093140A8093130A88E2CB
:1021D00095E166E776E00E94EE4A06C087E299E064
:1021E0006091130A0E945D3D1F910F9108950F9316
:1021F0001F938091E90F6623C9F0882309F587E2D0
:1022000099E044EF51E060E070E02BE534E102E05A
:1022100010E00E94F73D992787FD90959093EB0F72
:102220008093EA0F81E08093E90F0AC0813041F486
:1022300087E299E06091EA0F0E945D3D1092E90FFC
:102240001F910F91089580917C0A90917D0A90933F
:10225000810A8093800A80E00E9420429C01909332
:102260007D0A80937C0A4091800A5091810A841BE8
:10227000950B05960B9798F581E080937B0AC90131
:102280008C589040099718F483E090E01EC0C90173
:1022900085549140099718F484E090E016C0C90174
:1022A0000496099718F485E090E00FC0C901855F96
:1022B0009140099718F482E090E007C0225E324016
:1022C0002930310538F481E090E090937F0A8093C3
:1022D0007E0A089510927F0A10927E0A04C05093DD
:1022E0007D0A40937C0A10927B0A08950F931F93F6
:1022F00080917C0A90917D0A9093810A8093800A54
:1023000080E00E94204290937D0A80937C0A209175
:10231000800A3091810A821B930B97FF03C090952E
:1023200081959F4F0597A4F087E299E04AE050E03D
:1023300060E070E023E231E105E010E00E94EA3D58
:10234000992787FD90959093850A8093840A04C00D
:1023500030937D0A20937C0A1F910F9108950F936B
:102360001F93882351F18FEF93E090937D0A809320
:102370007C0A87E299E044E150E060E070E026E703
:1023800031E102E010E00E94F73D992787FD90952A
:102390009093830A8093820A88E295E16BE876E065
:1023A0000E94EC4A88E295E144E150E060E070E090
:1023B0002AE030E00E94644A06C087E299E060911A
:1023C000820A0E945D3D1F910F9108959F92AF92E6
:1023D000BF92CF92DF92EF92FF920F931F93DF9302
:1023E000CF93CDB7DEB7C054D0400FB6F894DEBF60
:1023F0000FBECDBF6C01962EF7E0EF2EF12CEC0E48
:10240000FD1EC7016AE976E00E94B14D8E010F5FA3
:102410001F4FC801B60140E050E028E030E00E94C4
:10242000284EC701B8010E94664D60EA76E00E941E
:102430004C4DBC01C6010E946D4EC8010E94924ED7
:10244000C7010E94974E8E010D5E1F4FC601B80155
:1024500042E150E020E030E00E947E4B8DEE9FE0B4
:10246000B8010E942F2B882309F48EC0CE018696D6
:102470006DEE7FE0A80121E00E94542C88A599A56B
:1024800090930F0980930E098AA59BA5ACA5BDA5C5
:102490008093100990931109A0931209B093130926
:1024A0008EA59FA5A8A9B9A9809314099093150991
:1024B000A0931609B0931709A8E1B9E0FE01F296BE
:1024C0008DE001900D928150E1F7FE01FF96808131
:1024D000918190932609809325098CE099E00E94D0
:1024E0003429882309F450C0FF24E6E0DE2E7DE085
:1024F000A72EB12CAC0EBD1E2CC0FD9C800111245A
:10250000095A154FC80160E072E00E94C94DCC2401
:102510008CE099E00E945B29E82E8DE0E81699F0A6
:10252000C501B8010E948A4EC5016E2D0E943D4D25
:10253000BC01C8010E946D4EC5010E94974EC39414
:1025400080E5C81629F788E295E1B8010E94C849DC
:10255000F394F91490F28CE099E00E944129692DDE
:10256000862FC05CDF4F0FB6F894DEBF0FBECDBF25
:10257000CF91DF911F910F91FF90EF90DF90CF905F
:10258000BF90AF909F90089588E295E164EC71E070
:102590000E94614988E295E1BE016D5E7F4F0E9415
:1025A000EE4A60E0DDCF8F929F92AF92BF92CF92C2
:1025B000DF92EF92FF920F931F93DF93CF93CDB7EC
:1025C000DEB7EA970FB6F894DEBF0FBECDBF6C0141
:1025D0004B015A01B7E0EB2EF12CEC0EFD1EC701AA
:1025E0006AE976E00E94B14D8E010F5F1F4FC8016E
:1025F000B60140E050E028E030E00E94284EC701DC
:10260000B8010E94664D60EA76E00E944C4DBC0124
:10261000C6010E946D4EC8010E94924EC7010E94E1
:10262000974E8E01035F1F4FC601B80142E150E093
:1026300020E030E00E947E4B8DEE9FE0B8010E94CA
:102640002F2B882329F08DEE9FE0B8010E94252BC7
:10265000CE0180966DEE7FE0AE01435F5F4F23E1D8
:102660000E94542C8AA19BA190930F0980930E097C
:102670008CA19DA1AEA1BFA18093100990931109D7
:10268000A0931209B093130988A599A5AAA5BBA583
:102690008093140990931509A0931609B093170914
:1026A000A8E1B9E0FE01BC968DE001900D92815049
:1026B000E1F789AD9AAD90932609809325098CE0C6
:1026C00099E00E9434298823F9F0EE24A6E0CA2E6E
:1026D00010C0EC9C800111240A0D1B1D88E295E1BD
:1026E000B8010E94C8498CE099E0B8010E94C8492D
:1026F000E3948E2D90E0881599055CF38CE099E0C9
:102700000E94412981E00EC088E295E160E172E01B
:102710000E94614988E295E1BE01635F7F4F0E949C
:10272000EE4A80E0EA960FB6F894DEBF0FBECDBF4A
:10273000CF91DF911F910F91FF90EF90DF90CF909D
:10274000BF90AF909F908F9008954F925F926F923D
:102750007F928F929F92AF92BF92CF92DF92EF9231
:10276000FF920F931F93DF93CF93CDB7DEB7689798
:102770000FB6F894DEBF0FBECDBF3C0185EE99E0E9
:1027800060E142E020E00E94032885EE99E00E948B
:10279000FD2785EE99E060E040E00E94CF27B3017D
:1027A000665C7F4F85EE99E00E94844985EE99E052
:1027B00060E041E00E94CF278091B7089AE0492E5F
:1027C000512C460C571CF30142A153A1882309F454
:1027D00046C000E1802E912C860C971C26A137A1C3
:1027E0006E010894C11CD11CC601B2010E94284E82
:1027F00017E0E12EF12CEC0EFD1EC701B6010E9480
:102800008A4EB3016A5E7F4FC7010E94664D5C012C
:102810008E01035F1F4FF30146A157A14F5F5F4F2A
:1028200024A135A1C801B2010E94284EC501B801FA
:102830000E94664DBC01C4010E946D4EC8010E94F9
:10284000924EC7010E94974EC6010E94924E85EE9D
:1028500099E0B4010E9484491092B70815C08E0116
:102860000D5E1F4FF30124A135A1C801B2010E94E2
:10287000284E85EE99E0B8010E948449C8010E9463
:10288000924E81E08093B70868960FB6F894DEBF49
:102890000FBECDBFCF91DF911F910F91FF90EF90B1
:1028A000DF90CF90BF90AF909F908F907F906F9070
:1028B0005F904F90089586E89AE047CF4F925F92DD
:1028C0006F927F928F929F92AF92BF92CF92DF9240
:1028D000EF92FF920F931F93DF93CF93CDB7DEB7A5
:1028E000E0970FB6F894DEBF0FBECDBF3C01D62EE9
:1028F0007E010894E11CF11CC70160E072E00E94B7
:10290000994DCE01079660E072E00E94994D7AE001
:10291000472E512C460C571CF30126A137A18E01DE
:10292000035F1F4FC801B201A9012E5F3F4F0E94F4
:10293000284EC701B8010E946D4EC8010E94924EF8
:1029400088E295E1B7010E94C849C7010E94144B73
:102950004B015C018B010150104088E295E1B80108
:102960004AE050E00E94CF4ADD2041F00B301105D3
:102970001CF080E090E00AC0C40108C010161106E7
:102980001CF08BE090E002C0C801019767E0862E42
:10299000912C8C0E9D1EBC01660F771F680F791F4E
:1029A000660F771F6353754FC4010E946D4E88E216
:1029B00095E1B4010E94C84988E295E165EA76E0B4
:1029C0000E94EC4AF30166A177A188E295E14AE012
:1029D00050E00E94CF4A88E295E161EB76E00E94E8
:1029E000EC4A8E010D5E1F4FF30126A137A1C801ED
:1029F000B20140E050E00E94284E88E295E1B80123
:102A00000E948449C8010E94924E88E295E160ECE0
:102A100076E00E94EC4A8E01075E1F4FF30146A14B
:102A200057A14E5F5F4F26853785C801B2010E94CE
:102A3000284E88E295E1B8010E948449C8010E94AD
:102A4000924E88E295E167ED76E00E94EE4A3FE122
:102A5000A32EB12CAC0EBD1EF30126A137A1C501DA
:102A6000B20140E050E00E94284E25E2E22EF12C17
:102A7000EC0EFD1EC701B5010E948A4EC701B401CC
:102A80000E94664D6C018E01055D1F4FF30146A14A
:102A900057A14E5F5F4F26853785C801B2010E945E
:102AA000284EC601B8010E94664DBC016E01089413
:102AB000C11CD11CC6010E946D4EC8010E94924EDD
:102AC000C7010E94974EC5010E94924E88E295E18F
:102AD00067ED76E00E94EC4A88E295E1B2010E943F
:102AE000844988E295E167ED76E00E94EE4A88E24B
:102AF00095E167ED76E00E94EC4A88E295E1B60147
:102B00000E94844988E295E167ED76E00E94EE4AF2
:102B1000C201B6010E946D4E88E295E167ED76E054
:102B20000E94EC4A88E295E1B2010E94844988E261
:102B300095E167ED76E00E94EE4AC4010E94924E54
:102B4000C6010E94924EE0960FB6F894DEBF0FBE0B
:102B5000CDBFCF91DF911F910F91FF90EF90DF904C
:102B6000CF90BF90AF909F908F907F906F905F902D
:102B70004F9008952F923F924F925F926F927F9263
:102B80008F929F92AF92BF92CF92DF92EF92FF927D
:102B90000F931F93DF93CF93CDB7DEB766970FB632
:102BA000F894DEBF0FBECDBF2C016B013A013C8B08
:102BB0002B8B1801FE8AED8ADA011D921C9201E02E
:102BC00010E01FC0F301808191819C01220F331F0F
:102BD000280F391F220F331FD20115968D919C911A
:102BE0001697820F931FB6010E945A4CF301408141
:102BF0005181882381F44F5F5F4F518340830F5F82
:102C00001F4FD20111968D919C91129780179107B9
:102C1000CCF680E0A3C09A01220F331F240F351F8A
:102C2000220F331FF20185819681820F931F6CE280
:102C30000E94C94B5C010894A11CB11CD3018D9169
:102C40009C919C01220F331F280F391F220F331F25
:102C5000F20185819681820F931F6CE2A5010E948B
:102C6000AB4B6C014C010894811C911CD3018D91DC
:102C70009C919C01220F331F280F391F220F331FF5
:102C8000F20185819681820F931F6CE2A4010E945C
:102C9000AB4B7C01D3012D913C91C901880F991F49
:102CA000820F931F880F991FF20165817681680F4B
:102CB000791F8E010F5F1F4FC801A50196010E9469
:102CC000284EC101B8010E946D4EC8010E94924E6B
:102CD0008E01095F1F4FD3012D913C91C901880FCF
:102CE000991F820F931F880F991FF20165817681CA
:102CF000680F791FC801A40197010E94284E8B8993
:102D00009C89B8010E946D4EC8010E94924ED30169
:102D10002D913C91C901880F991F820F931F880F35
:102D2000991FD2011596ED91FC911697E80FF91FA6
:102D30008E01035F1F4F0894E11CF11C2481358133
:102D4000C801BF01A7010E94284E8D899E89B80144
:102D50000E946D4EC8010E94924E81E066960FB6A9
:102D6000F894DEBF0FBECDBFCF91DF911F910F91C1
:102D7000FF90EF90DF90CF90BF90AF909F908F909B
:102D80007F906F905F904F903F902F9008952F927B
:102D90003F924F925F926F927F928F929F92AF92EB
:102DA000BF92CF92DF92EF92FF920F931F93DF9328
:102DB000CF93CDB7DEB7ED970FB6F894DEBF0FBE59
:102DC000CDBF9AAF89AF5B015CAF4BAF2DAF1A821D
:102DD0001982E3E02E2E312C2C0E3D1EC10160E045
:102DE00072E00E94994D79E0472E512C4C0E5D1EE9
:102DF000C20160E072E00E94994D6FE0862E912C36
:102E00008C0E9D1EC40160E072E00E94994D55E158
:102E1000C52ED12CCC0EDD1EC6016BAD7CAD0E9443
:102E2000824E89AD9AADB601AE014F5F5F4F910101
:102E3000820174019FDE182FC6010E94924E112359
:102E400009F48DC0C20161E60E94C94B9C018FEF5D
:102E50002F3F380709F483C043E0642E712C620EC3
:102E6000731EEDADEE2309F468C09BE1C92ED12C91
:102E7000CC0EDD1EC601B40140E050E00E94284E99
:102E800081E2E82EF12CEC0EFD1EC701B6010E9476
:102E90008A4EC701B5010E94664D5C018E01095D35
:102EA0001F4F2B893C89C801B401A3010E94284E01
:102EB000C501B8010E94664DBC01C4010E946D4E5F
:102EC000C8010E94924EC7010E94974EC6010E94FF
:102ED000924E29813A81C901880F991F820F931F51
:102EE000880F991FE9ADFAAD05811681080F191FEA
:102EF000BDE2EB2EF12CEC0EFD1EC7016BAD7CADDF
:102F00000E948A4EC7016CE20E943D4DB2010E94B0
:102F1000664D6CE20E943D4DB1010E94664D6CE22F
:102F20000E943D4DB4010E94664DBC01C8010E9443
:102F30006D4EC7010E94974E10C08E010D5C1F4F51
:102F4000C801B401A90193010E94284EC501B8012E
:102F50000E946D4EC8010E94924E11E001C010E027
:102F6000CE010F960E94924ECE0109960E94924E7B
:102F7000CE0103960E94924E812FED960FB6F894E3
:102F8000DEBF0FBECDBFCF91DF911F910F91FF909C
:102F9000EF90DF90CF90BF90AF909F908F907F90F9
:102FA0006F905F904F903F902F9008952F923F9297
:102FB0004F925F926F927F928F929F92AF92BF9249
:102FC000CF92DF92EF92FF920F931F93DF93CF93F5
:102FD000CDB7DEB7ED970FB6F894DEBF0FBECDBF0D
:102FE0009AAF89AF5B015CAF4BAF2DAF1A821982EC
:102FF00043E0242E312C2C0E3D1EC10160E072E016
:103000000E94994D39E0432E512C4C0E5D1EC20199
:1030100060E072E00E94994D2FE0822E912C8C0E80
:103020009D1EC40160E072E00E94994D95E1C92E99
:10303000D12CCC0EDD1EC6016BAD7CAD0E94824E44
:1030400089AD9AADB601AE014F5F5F4F910182012C
:10305000740190DD182FC6010E94924E112309F4CD
:103060008DC0C20168E40E94C94B9C018FEF2F3FC5
:10307000380709F483C085E0682E712C620E731E38
:10308000EDADEE2309F468C00BE1C02ED12CCC0EBF
:10309000DD1EC601B40140E050E00E94284E11E25E
:1030A000E12EF12CEC0EFD1EC701B6010E948A4EE6
:1030B000C701B5010E94664D5C018E01095D1F4F7D
:1030C0002B893C89C801B401A3010E94284EC50187
:1030D000B8010E94664DBC01C4010E946D4EC8013A
:1030E0000E94924EC7010E94974EC6010E94924EC6
:1030F00029813A81C901880F991F820F931F880F78
:10310000991FE9ADFAAD05811681080F191FFDE27F
:10311000EF2EF12CEC0EFD1EC7016BAD7CAD0E94B5
:103120008A4EC7016CE20E943D4DB2010E94664D7D
:103130006CE20E943D4DB1010E94664D6CE20E941E
:103140003D4DB4010E94664DBC01C8010E946D4E08
:10315000C7010E94974E10C08E010D5C1F4FC80121
:10316000B401A90193010E94284EC501B8010E9433
:103170006D4EC8010E94924E11E001C010E0CE01D8
:103180000F960E94924ECE0109960E94924ECE0159
:1031900003960E94924E812FED960FB6F894DEBFF3
:1031A0000FBECDBFCF91DF911F910F91FF90EF9098
:1031B000DF90CF90BF90AF909F908F907F906F9057
:1031C0005F904F903F902F9008952F923F924F9293
:1031D0005F926F927F928F929F92AF92BF92CF92A7
:1031E000DF92EF92FF920F931F93DF93CF93CDB7B0
:1031F000DEB7ED970FB6F894DEBF0FBECDBF9AAF26
:1032000089AF5B015CAF4BAF2DAF1A82198283E0AF
:10321000282E312C2C0E3D1EC10160E072E00E9470
:10322000994D09E0402E512C4C0E5D1EC20160E00C
:1032300072E00E94994D1FE0812E912C8C0E9D1EF4
:10324000C40160E072E00E94994DB5E1CB2ED12C13
:10325000CC0EDD1EC6016BAD7CAD0E94824E89ADE9
:103260009AADB601AE014F5F5F4F910182017401CB
:1032700081DC182FC6010E94924E112309F48DC0E3
:10328000C2016DE60E94C94B9C018FEF2F3F3807AA
:1032900009F483C0AAE06A2E712C620E731EEDAD94
:1032A000EE2309F468C0FBE1CF2ED12CCC0EDD1E3D
:1032B000C601B40140E050E00E94284EE1E2EE2E4B
:1032C000F12CEC0EFD1EC701B6010E948A4EC7010B
:1032D000B5010E94664D5C018E01095D1F4F2B896F
:1032E0003C89C801B401A3010E94284EC501B80160
:1032F0000E94664DBC01C4010E946D4EC8010E942F
:10330000924EC7010E94974EC6010E94924E29819B
:103310003A81C901880F991F820F931F880F991F47
:10332000E9ADFAAD05811681080F191F5DE2E52EA2
:10333000F12CEC0EFD1EC7016BAD7CAD0E948A4ED8
:10334000C7016CE20E943D4DB2010E94664D6CE2E5
:103350000E943D4DB1010E94664D6CE20E943D4DC0
:10336000B4010E94664DBC01C8010E946D4EC701A8
:103370000E94974E10C08E010D5C1F4FC801B40112
:10338000A90193010E94284EC501B8010E946D4E0B
:10339000C8010E94924E11E001C010E0CE010F96CC
:1033A0000E94924ECE0109960E94924ECE01039643
:1033B0000E94924E812FED960FB6F894DEBF0FBE9D
:1033C000CDBFCF91DF911F910F91FF90EF90DF90D4
:1033D000CF90BF90AF909F908F907F906F905F90B5
:1033E0004F903F902F9008950F931F93CF93DF93AB
:1033F0008B01EA01C801BE010E94FF4AFC018081E5
:10340000803221F0D7FD02C02197F4CFCE01DF91A9
:10341000CF911F910F9108950F931F93CF93DF9337
:103420008B01EA01C801BE010E94FF4AFC018081B4
:10343000803221F4D7FD02C02197F4CFCE01DF9175
:10344000CF911F910F9108950F931F93CF93DF9307
:103450008B01EA01C801BE010E94FF4AFC01808184
:10346000803249F4F801848195810196C817D90703
:1034700010F42196EFCFCE01DF91CF911F910F91E4
:1034800008952F923F924F925F926F927F928F9208
:103490009F92AF92BF92CF92DF92EF92FF920F93E3
:1034A0001F93DF93CF93CDB7DEB7C254D0400FB692
:1034B000F894DEBF0FBECDBF3C015B01CE0101968B
:1034C00060E072E00E94994DC5016CE20E94C94B18
:1034D0007C018E01095F1F4FC801B50140E050E03B
:1034E00097010E94284EC301C496B8010E946D4EF8
:1034F000C8010E94924E0894E11CF11CC5016CE2C7
:10350000A7010E94AB4B6C01ECE12E2E312C260C56
:10351000371C8E01035F1F4FC801B501A70196013B
:103520000E94284EC101B8010E946D4EC8010E9440
:10353000924E0894C11CD11CC5016CE2A6010E94E8
:10354000AB4B7C017AE3872E912C860C971C8E0165
:103550000D5E1F4FC801B501A60197010E94284EBC
:10356000C401B8010E946D4EC8010E94924E6AE0EB
:10357000462E512C460C571C5FE1C52ED12CCC0E8B
:10358000DD1EC6016EED76E00E94B14D8E01075E34
:103590001F4F0894E11CF11CF50124813581C801FD
:1035A000B501A7010E94284EC601B8010E94664DD0
:1035B000BC01C2010E946D4EC8010E94924EC6011C
:1035C0000E94974EF3018685978595A384A3C20137
:1035D00067EF76E00E940E4D8E010B5D1F4FC80114
:1035E000B2010E94824EC301B80140E050E02CDFDE
:1035F000F30193A382A3C8010E94924EF30182A11A
:1036000093A197A386A385EE99E060E142E020E0D4
:103610000E94032885EE99E00E94FD2785EE99E03F
:1036200060E040E00E94CF2785EE99E0B4010E945F
:10363000844985EE99E060E041E00E94CF27F301E4
:1036400084A195A122A133A1821B930B26A137A1AE
:1036500040970CF14BE2E42EF12CEC0EFD1EC7015D
:10366000B201A901215F3F4F0E94284E8E010F5CDD
:103670001F4FC801B7010E948A4EC8016EE30E9425
:103680003D4DBC0185EE99E00E948449C8010E942D
:10369000974EC70110C08E01095C1F4FC801B201CF
:1036A000A901205F3F4F0E94284E85EE99E0B801A6
:1036B0000E948449C8010E94924EC1016CE077E0EB
:1036C0000E94CC4B882319F081E090E009C0C10131
:1036D00069ED76E00E94CC4B882351F083E090E0C6
:1036E000F30190878783C30160E00E94F7104CC00C
:1036F00082E090E0F30190878783C30161E00E943C
:10370000F7109DE3492E512C4C0E5D1E06C0F301AF
:1037100086A197A1019697A386A3F30126A137A1BD
:1037200082A193A1281B390BC201B101A9012F5F0E
:103730003F4F0E94284EC20163EF75E00E94CC4BC0
:10374000882311F400E00BC000E0F30182A193A1F3
:103750000E9626A137A1821793070CF001E0C20153
:103760000E94924E002399F6F301818593012A5E0F
:103770003F4F882321F0C90163EF75E003C0C90101
:1037800061E177E00E94C94DCE0101960E94924E00
:10379000CE5BDF4F0FB6F894DEBF0FBECDBFCF912B
:1037A000DF911F910F91FF90EF90DF90CF90BF902E
:1037B000AF909F908F907F906F905F904F903F90D1
:1037C0002F9008958F929F92AF92BF92CF92DF92E7
:1037D000EF92FF920F931F93DF93CF93CDB7DEB796
:1037E000CC5FD0400FB6F894DEBF0FBECDBF5C01FA
:1037F000DC01DC90B1E0DB1609F038C6FC01878102
:1038000090858230910509F427C28330910509F42F
:1038100028C4019709F02AC6D50196968D909C90F0
:10382000979780917E0A90917F0A8330910509F4E1
:10383000EDC18430910544F48130910509F4A8C1AB
:10384000029709F013C6C4C08430910509F4EDC194
:10385000059709F00BC6EAE0CE2ED12CCA0CDB1C72
:103860008E010F5F1F4FC801B6010E94824EF50105
:1038700046A157A1C80160E20E94AB4BD5019796C3
:103880009C938E939697C8010E94924EF50126A1B3
:1038900037A184A195A1281739071CF097A286A209
:1038A000E5C58E01095F1F4FC801B6010E94824E17
:1038B000D50196964D915C919797C501B801C4DDED
:1038C000F50197A386A3C8010E94924E85EE99E068
:1038D00060E142E020E00E94032885EE99E00E942A
:1038E000FD2785EE99E060E040E00E94CF27B5011A
:1038F000665C7F4F85EE99E00E94844985EE99E0F1
:1039000060E041E00E94CF27D50196962D913C9131
:103910009797F901709694968D919C9195979296B0
:103920004D915C919397E817F9071CF542175307DF
:1039300084F473E1E72EF12CEC0EFD1EC7016CE35D
:103940000E94104EF50126A137A18E01035F1F4F83
:10395000DCC069E1E62EF12CEC0EFD1EC701B601BC
:10396000A901215F3F4F0E94284E8E01015E1F4F2B
:1039700069C04217530744F55BE2E52EF12CEC0ECB
:10398000FD1EC7016CE30E94104ED50196962D9145
:103990003C9197978E010B5D1F4FC801B601A9019D
:1039A000215F3F4F0E94284EC701B8010E94664D1B
:1039B000BC0185EE99E00E948449C8010E94924EA4
:1039C000C7010E94974E52C58E010F5C1F4FD4C095
:1039D00085EE99E060E142E020E00E94032885EE58
:1039E00099E00E94FD2785EE99E060E040E00E94AA
:1039F000CF27B501665C7F4F85EE99E00E94844930
:103A000085EE99E060E041E00E94CF27F50126A114
:103A100037A182A193A14AE0C42ED12CCA0CDB1C91
:103A2000821793070CF197E3E92EF12CEC0EFD1EA3
:103A3000C701B601A901215F3F4F0E94284E8E01A8
:103A4000035C1F4FC801B7010E948A4EC8016EE394
:103A50000E943D4DBC0185EE99E00E948449C80159
:103A60000E94974EC701ECC48E010D5B1F4FC80129
:103A7000B6010E94824ED50196964D915C91979722
:103A800041505040C501B801C7DCF50197A386A39A
:103A9000C8010E94924E8E01075B1F4FC801B601FC
:103AA0000E94824ED50196964D915C919797C501E3
:103AB000B8019ADC0196F50197A386A3C8010E947C
:103AC000924ED50196962D913C919797F90170965B
:103AD00094968D919C91959792964D915C91939728
:103AE000E817F9078CF542175307F4F485E5E82E3B
:103AF000F12CEC0EFD1EC7016CE30E94104EF50187
:103B000026A137A18E01015B1F4FC801B601A90193
:103B1000225F3F4F0E94284EC701B8010E94664DA8
:103B20006EE30E943D4D44CF0BE5E02EF12CEC0EF0
:103B3000FD1EC701B601A901215F3F4F0E94284E1B
:103B40008E010F591F4F7ECF4217530794F41DE685
:103B5000E12EF12CEC0EFD1EC7016CE30E94104E0D
:103B6000D50196962D913C9197978E0109591F4F3B
:103B700014CF8E010D581F4FC801B601A9019F0136
:103B80000E94284E85EE99E0B8010E9484491AC22D
:103B9000F50191A680A6BAE0EB2EF12CEA0CFB1CF5
:103BA0008E0107581F4FC801B7010E94824ED501F0
:103BB00096964D915C919797C80160E20E94AB4B3D
:103BC000F50193A782A7C8010E94924E8E01015869
:103BD0001F4FD50198964D915C9199979A962D918A
:103BE0003C919B97C801B7010E94284EC501805C9B
:103BF0009F4FB8010E946D4EC8010E94924EE6E4AC
:103C0000F0E0AE0EBF1ED501DC9230C4F501238179
:103C100034812115310509F429C421503040348301
:103C200023838E010B571F4FBCC1D50113962D91D5
:103C30003C91149711968D919C91129728173907F2
:103C400009F414C42F5F3F4F14963C932E9313979F
:103C50008E0105571F4F5AC100917E0A10917F0AAD
:103C600005301105E1F5F50126A137A182A193A147
:103C70000E968217930724F02F5F3F4F37A326A39A
:103C80008501045E1F4FD50196966D917C919797A3
:103C900092968D919C919397681B790BC8010E9415
:103CA000FF4AFC0180818D3209F0CDC3F50126A1C8
:103CB00037A182A193A10E96821793070CF4C3C378
:103CC0002F5F3F4F37A326A3DECF21503040240F74
:103CD000351FD50197963C932E939697C7C3F50150
:103CE00066A177A142A153A10230110559F54617EB
:103CF000570724F46150704077A366A38501045EE2
:103D00001F4FD50196966D917C91979792968D91C4
:103D10009C919397681B790BC8010E94FF4AFC0194
:103D200080818D3209F0A2C3F50126A137A182A1BD
:103D300093A1821793070CF099C32150304037A309
:103D400026A3DFCFACE18A2E912C8A0C9B1C641B2E
:103D5000750BC4010E94FF4AFC01E081ED36B1F40D
:103D6000D50119968C91882309F080C30330110581
:103D700029F00430110509F027C103C0C50161E035
:103D800002C0C50160E00E945E141EC1E436A9F4C1
:103D9000F5018185882309F069C30330110529F0F5
:103DA0000430110509F010C103C0C50161E002C073
:103DB000C50160E00E94041007C1E937B1F4D501E4
:103DC00019968C91882309F051C30330110529F00D
:103DD0000430110509F0F8C003C0C50161E002C05C
:103DE000C50160E00E943A0FEFC0E136A9F4F50189
:103DF0008185882309F03AC30330110529F0043086
:103E0000110509F0E1C003C0C50161E002C0C501B0
:103E100060E00E94560ED8C0E834B1F4D50119967E
:103E20008C91882309F022C30330110529F0043056
:103E3000110509F0C9C003C0C50161E002C0C50198
:103E400060E00E948C0DC0C0ED34A9F4F5018185BD
:103E5000882309F00BC30330110529F00430110544
:103E600009F0B2C003C0C50161E002C0C50160E055
:103E70000E94C20CA9C0E332B1F4D50119968C910D
:103E8000882309F0F3C20330110529F0043011052D
:103E900009F09AC003C0C50161E002C0C50160E03D
:103EA0000E94F80B91C0E334A9F4F50181858823C1
:103EB00009F0DCC20330110529F00430110509F0C6
:103EC00083C003C0C50161E002C0C50160E00E947B
:103ED000140B7AC0E535B9F50330110529F004302B
:103EE000110509F0C3C21EC0D50113962D913C9156
:103EF00014972115310509F4B9C2215030401496A8
:103F00003C932E9313978E010F561F4FC901880FB4
:103F1000991F820F931F880F991F15966D917C91A1
:103F2000169748C0F5012381348181819281281739
:103F3000390709F49BC22F5F3F4F348323838E01DF
:103F400009561F4F2EC0E43409F090C2033011050A
:103F500029F00430110509F089C213C0D501139668
:103F60002D913C9114972115310509F47FC2215000
:103F7000304014963C932E9313978E0103561F4F97
:103F8000C5CFF501238134818181928128173907BA
:103F900009F46CC22F5F3F4F348323838E010D558C
:103FA0001F4FC901880F991F820F931F880F991FF8
:103FB00065817681680F791FC8010E94824EC50114
:103FC000B8015FDAC8013CC25FEAC52ED12CCC0E25
:103FD000DD1EB501665F7F4FC6010E94824EC6019D
:103FE0000E94254BD50113962D913C911497C90140
:103FF000880F991F820F931F880F991F15960D9197
:104000001C911697080F191F89EAE82EF12CEC0E67
:10401000FD1EE4E3F0E0AE0EBF1EC701B5010E9435
:104020008A4EC7016CE20E943D4DB4010E94664D6C
:104030006CE20E943D4D26E030E0A20EB31EB501B9
:104040000E94664D6CE20E943D4DB6010E94664D95
:10405000BC01C8010E946D4EC7010E94974EC60167
:10406000EFC10FEA802E912C8C0E9D1EC40160E0E2
:1040700072E00E94994D80917E0A90917F0A833070
:10408000910509F49AC18430910524F4029709F04E
:10409000D4C128C18430910509F4ACC1059709F059
:1040A000CCC1D50196968D919C9197974096979605
:1040B0009C938E93969794962D913C919597281763
:1040C000390724F497963C932E9396971AE0C12EC5
:1040D000D12CCA0CDB1CF50166A177A1C6010E9498
:1040E000FF4AFC0180818032D1F0D50196966D9116
:1040F0007C919797C6010E94FF4AFC018081803223
:1041000009F43FC0F50126A137A182A193A182172E
:104110009307BCF52150304037A326A3E6CFD50145
:1041200096966D917C919797C6010E94FF4AFC017B
:104130008081803269F4F50126A137A182A193A183
:10414000821793072CF42150304037A326A3E7CFE2
:10415000D50196966D917C919797C6010E94FF4A72
:10416000FC018081803269F0F50126A137A182A18E
:1041700093A1821793072CF42150304037A326A334
:10418000E7CFD50196962D913C91979792968D9178
:104190009C91939794964D915C9195972817390728
:1041A000D9F5F9017096BFEA8B2E912C8C0E9D1ECD
:1041B000E417F50704F5A5EBEA2EF12CEC0EFD1E35
:1041C000C701B601A901215F3F4F0E94284E8E0111
:1041D00005541F4FC801B7010E948A4EC8016EE303
:1041E0000E943D4DBC01C4010E946D4EC8010E9459
:1041F000974EC7010EC08E010F531F4FC801B60165
:10420000A9019F010E94284EC401B8010E946D4E71
:10421000C8010E94924E53C02F5F3F4FF50137A354
:1042200026A3205F3F4FFFEA8F2E912C8C0E9D1E00
:104230002417350704F5EDECEE2EF12CEC0EFD1EE7
:10424000C7016CE30E94104ED50196962D913C91CA
:1042500097978E0109531F4FC801B601A901225F2C
:104260003F4F0E94284EC701B8010E94664D6EE381
:104270000E943D4D1AC079EDE72EF12CEC0EFD1E8B
:10428000C7016CE30E94104EF50126A137A18E01F3
:104290000D521F4FC801B601A901215F3F4F0E9477
:1042A000284EC701B8010E94664DBC01C4010E949E
:1042B0006D4EC8010E94924EC7010E94974E85EE36
:1042C00099E060E142E020E09ED685EE99E095D647
:1042D00085EE99E060E040E062D62AE330E0A20E8D
:1042E000B31E59C0D50192962D913C919397979604
:1042F0003C932E939697F901709694968D919C918C
:1043000095976AE0C62ED12CCA0CDB1CE817F9077A
:1043100004F55FEDE52EF12CEC0EFD1EC701B60194
:10432000A901215F3F4F0E94284E8E010B511F4F64
:10433000C801B7010E948A4EC8016EE30E943D4D3C
:10434000BC01C4010E946D4EC8010E94974EC70176
:104350000EC08E0105511F4FC801B601A9019F0172
:104360000E94284EC401B8010E946D4EC8010E94EF
:10437000924E85EE99E060E142E020E044D685EE81
:1043800099E03BD685EE99E060E040E008D6EAE3AC
:10439000F0E0AE0EBF1E85EE99E0B5010E948449A3
:1043A00085EE99E060E041E0FAD585EE99E0BE0146
:1043B00061557F4F0E94844940C0D50113962D91CD
:1043C0003C91149721153105C1F1215030401496CC
:1043D0003C932E9313978E010F501F4FC901880FE6
:1043E000991F820F931F880F991F15966D917C91CD
:1043F000169718C0F5012381348181819281281795
:104400003907D9F02F5F3F4F348323838E01095042
:104410001F4FC901880F991F820F931F880F991F83
:1044200065817681680F791FC8010E94824EC5019F
:10443000B80127D8C8010E94924ECE0181559F4FE6
:104440000E94924E13C0D50192964D915C91939724
:1044500090962D913C91919796968D919C919797DE
:10446000841B950B8217930708F02FCCC450DF4FA5
:104470000FB6F894DEBF0FBECDBFCF91DF911F9175
:104480000F91FF90EF90DF90CF90BF90AF909F90F3
:104490008F900895BF92CF92DF92EF92FF920F9389
:1044A0001F93DF93CF9300D000D0CDB7DEB77C0150
:1044B000B62E6901FC01168305838E96BA010E940F
:1044C0006D4EF70114821382F1E0CF16D10419F07A
:1044D0000894C108D108F701D282C182F701B186E0
:1044E00086E490E0E80EF91EF70110828AEB9FEF58
:1044F000E80EF91EF701658176818E010F5F1F4F6F
:10450000C8010E94824EC701B8010E94411AC80129
:104510000E94924E26960FB6F894DEBF0FBECDBF16
:10452000CF91DF911F910F91FF90EF90DF90CF908F
:10453000BF900895CF92DF92EF92FF920F931F9357
:10454000DF93CF93CDB7DEB7C759D0400FB6F894FD
:10455000DEBF0FBECDBF87E299E00E94733D809120
:104560007B0A813061F410927B0A60917E0A70911F
:104570007F0A6115710519F086E89AE023D98091C8
:10458000CC0A813009F052C284EB9AE063E177E013
:104590000E94CC4B882309F4A0C08AEB9AE06BE11F
:1045A00077E00E94CC4B882309F489C086EC9AE01E
:1045B00061E277E00E94CC4B882309F45DC062E0A1
:1045C000E62EF12CEC0EFD1EC70165E277E00E949D
:1045D000994D86E89AE060E0A70125E030E00DE221
:1045E0001AE058DFC7010E94924E8E01085F1F4FEC
:1045F000C8016FE277E00E94994D86E89AE067E093
:104600007AE0A80121E00E94E518C8010E94924EBC
:104610005EE0E52EF12CEC0EFD1EC70161E07AE0B4
:1046200040E050E025E030E00E94284E8E010C5E14
:104630001F4FC80164E377E00E94994D86E89AE035
:10464000B701A80121E00E94D617C8010E94924E2E
:10465000C7010E94924E8E01065E1F4FC80169E39A
:1046600077E00E94994D86E89AE06DE07AE0A80133
:1046700021E00E94C716D7C186EC9AE06DE377E08F
:104680000E94CC4B882329F088E295E161E471E037
:104690000CC086EC9AE069E477E00E94CC4B88235A
:1046A00039F088E295E163E271E00E94B649BEC14B
:1046B0008E01005E1F4FC80165E577E0AFC18E0136
:1046C0000A5D1F4FC80163E977E00E94994DC80158
:1046D0000E945609C8010E94924E84EB9AE065E25E
:1046E00077E00E94CC4B882309F492C188E295E1DF
:1046F0006AEB7AE00E94C8498AEB9AE06AEC77E0BC
:104700000E94CC4B882309F460C186EC9AE061EDED
:1047100077E00E94CC4B882309F42DC188E295E113
:104720006AE071E00E94B64988E295E16DEF70E0C1
:104730000E9461496091B1157091B215CE01019648
:104740006115710521F4BC01655B754104C09C01D4
:10475000261B370BB90188E295E14AE050E00E9440
:10476000764ACE018C9660E072E00E94994D42E359
:10477000C42ED12CCC0EDD1EC60160E072E00E947A
:10478000994DCE01C89660E072E00E94994D3EE3DB
:10479000E32EF12CEC0EFD1EC70160E072E00E94DA
:1047A000994D8E010C5B1F4FC8016FE277E00E94AC
:1047B000994D86E89AE0B601A80120E00E94E5182C
:1047C000C8010E94924E8E01065B1F4FC801B601C0
:1047D00040E050E022E030E00E94284EC701B801DE
:1047E0000E946D4EC8010E94924EC7010E94144B58
:1047F0006093FF098E01005B1F4FC801B60143E0C3
:1048000050E025E030E00E94284EC701B8010E9428
:104810006D4EC8010E94924EC7010E94144B6093D6
:10482000FE098E010A5A1F4F2EA93FA9C801B601E1
:1048300046E050E00E94284EC701B8010E946D4E2C
:10484000C8010E94924EC7010E94144B625B6093A4
:10485000000A8E01045A1F4FC80164E377E00E94EA
:10486000994D86E89AE061E07AE0A80120E00E9494
:10487000D617C8010E94924E8E010E591F4FC801D3
:1048800061E07AE040E050E022E030E00E94284E13
:10489000C701B8010E946D4EC8010E94924EC70127
:1048A0000E94144B6093FC098E0108591F4FC801E8
:1048B00061E07AE043E050E025E030E00E94284EDD
:1048C000C701B8010E946D4EC8010E94924EC701F7
:1048D0000E94144B6093FB091092FA098E01025951
:1048E0001F4FC80169E377E00E94994D86E89AE07E
:1048F0006DE07AE0A80120E00E94C716C8010E947E
:10490000924E00E010E0C801880F991F800F911FA0
:10491000880F991F8154904F6DE07AE00E94224CDD
:10492000882329F40F5F1F4F0730110561F70093AB
:10493000FD098AEF99E082D1882371F48E010C5829
:104940001F4FC80168ED77E00E94994DC8010E9491
:104950005609C8010E94924ECE01CE960E94924EF8
:10496000CE01C8960E94924ECE01C2960E94924EEF
:10497000CE018C9636C086EC9AE069EE77E00E9414
:10498000CC4B8823D9F088E295E164EE70E00E9478
:10499000B649AAE7EA2EF12CEC0EFD1EC70163E131
:1049A00077E00E94994D86E89AE061E0A70124E053
:1049B00030E005E11AE06EDDC70113C08E0100583A
:1049C0001F4FC80160EF77E006C08E010A571F4FE6
:1049D000C80163E378E00E94994DC8010E9456091E
:1049E000C8010E94924EFCE8EF2EF12CEC0EFD1E49
:1049F000C70163E177E00E94994D86E89AE061E0A3
:104A0000A70124E030E005E11AE044DDC7010CC055
:104A10008E010E561F4FC80169E678E00E94994D3D
:104A2000C8010E945609C8010E94924E1092CC0AF9
:104A3000C956DF4F0FB6F894DEBF0FBECDBFCF9182
:104A4000DF911F910F91FF90EF90DF90CF9008952D
:104A5000EF92FF920F931F93DF93CF93CDB7DEB703
:104A6000E0970FB6F894DEBF0FBECDBFCE01019622
:104A700060E072E00E94994D88E295E140E855E2DD
:104A800060E070E00E94BF46CE01079661E978E0E1
:104A90000E94994DCE010D966CE978E00E94994DE7
:104AA000CE01439667EA78E00E94994D85E361E084
:104AB0000E9454428DEE9FE065E30E94742D88238E
:104AC00029F488E295E16DEA71E004C088E295E19D
:104AD00068E971E00E94B6497E010894E11CF11C6E
:104AE000C70163E177E00E94C94D8E01075E1F4F49
:104AF000C801B7010E94824EC80164E070E045E140
:104B00005AE00E94D312C8010E94924E88E295E1B9
:104B100060E871E00E94B6498E01015E1F4FC80136
:104B2000B7010E94824EC80164E00E94E611F82E8F
:104B3000C8010E94924E88E295E16FE571E00E9403
:104B4000614988E295E16F2D70E04AE050E00E94F3
:104B5000CF4A81E00E94AF1181E00E94D01081E035
:104B60008093860A75E2E72EF12CEC0EFD1EC7013C
:104B700063E177E00E94994D86E89AE061E0A70141
:104B800024E030E005E11AE085DCC7010E94924E86
:104B900089E08093FF0987E08093FE098DE280938E
:104BA000000A80E18093FC098FE08093FB098BE190
:104BB0008093FA0982E08093FD098AEF99E03ED064
:104BC000882371F48E01055D1F4FC80168ED77E001
:104BD0000E94994DC8010E945609C8010E94924E38
:104BE000CE0143960E94924ECE010D960E94924EA7
:104BF000CE0107960E94924ECE0101960E94924EDF
:104C0000E0960FB6F894DEBF0FBECDBFCF91DF9117
:104C10001F910F91FF90EF900895482F6AE00E9436
:104C20009C4F282F30E084E0220F331F8A95E1F754
:104C3000842F0E949C4F892F820F08950F931F93FA
:104C40008C0185E892E168E670E00E94193E85E8F3
:104C500092E160E00E949A3EF8018081DEDF682FD9
:104C600085E892E10E949A3EF8018181D6DF682FA3
:104C700085E892E10E949A3EF8018281CEDF682F9A
:104C800085E892E10E949A3EF8018381C6DF682F91
:104C900085E892E10E949A3EF8018481BEDF682F88
:104CA00085E892E10E949A3EF8018581B6DF682F7F
:104CB00085E892E10E949A3EF80186818E51ADDF2F
:104CC000682F85E892E10E949A3E85E892E10E9471
:104CD000DB3E882321F01092EC0F80E003C081E0DE
:104CE0008093EC0F1F910F9108950F931F93CF9313
:104CF000DF93EC0185E892E168E670E00E94193EDE
:104D000085E892E160E00E949A3E85E892E10E9487
:104D1000DB3E882319F01092EC0F11C081E08093E4
:104D2000EC0F85E892E168E670E047E050E00E9411
:104D3000E93E85E892E10E94233E079714F480E063
:104D400065C085E892E10E942C3E082F8F778295FE
:104D50008F701AE0819FC0011124202F2F70280F1F
:104D6000288385E892E10E942C3E282F22952F70FF
:104D7000219F900111248F70820F898385E892E131
:104D80000E942C3E282F2F7322952F70219F900177
:104D900011248F70820F8A8385E892E10E942C3E55
:104DA000282F22952F70219F900111248F70820F40
:104DB0008B8385E892E10E942C3E282F22952F704C
:104DC000219F900111248F70820F8C8385E892E1DE
:104DD0000E942C3E282F22952F70219F9001112494
:104DE0008F70820F8D8385E892E10E942C3E282FE0
:104DF0002F70225E82958F70819FC0011124280F31
:104E00002E83802F8095881F8827881FDF91CF9160
:104E10001F910F91089585E892E10C94EB3E0F935A
:104E20001F938C01FC01868160E00E94074381E0B2
:104E300090E00E94B441F801868161E00E9407433E
:104E400081E090E00E94B441F801868160E00E9418
:104E5000074384E690E00E94B4411F910F910895AA
:104E6000CF92DF92EF92FF920F931F93CF93DF9336
:104E7000D82EC92E282F392FC9018C01C0E0D0E0CF
:104E8000E62EFF24F801878161E00E945442B701B9
:104E90000C2E02C0759567950A94E2F76170F801CF
:104EA00087810E94074321960F5F1F4FC830D105AD
:104EB00049F78D2D9C2DB3DFDF91CF911F910F917D
:104EC000FF90EF90DF90CF900895CF92DF92EF9216
:104ED000FF920F931F93CF93DF93D82EC92E282FC5
:104EE000392FC9018C01C0E0D0E0E62EFF24F80183
:104EF000878161E00E945442B7010C2E02C0759573
:104F000067950A94E2F76170F80187810E94074370
:104F100021960F5F1F4FC430D10549F78D2D9C2D71
:104F20007EDFDF91CF911F910F91FF90EF90DF9087
:104F3000CF9008951F93CF93DF93EC01162F8C81B0
:104F4000642F0E9407438D818F3F19F060E00E941B
:104F500007438F8584FF04C0CE01612F81DF0CC021
:104F6000612F70E084E0759567958A95E1F7CE0131
:104F7000ACDFCE01612FA9DFDF91CF911F910895A2
:104F800041E0D8DF81E090E0089540E0D3CFFC011C
:104F90006089862F8460808B6C60CF01F6CFDF93B1
:104FA000CF93CDB7DEB728970FB6F894DEBF0FBE0C
:104FB000CDBF9C01FE013196ABECB8E088E00D90CE
:104FC00001928150E1F7F9018389481710F0482FC9
:104FD0004150E42FF0E0EE0FFF1FEC0FFD1F818129
:104FE000680F6068C901D1DF28960FB6F894DEBF5C
:104FF0000FBECDBFCF91DF91089561E0C6DF80ED98
:1050000097E00C94B441CF93DF93EC01423018F059
:105010008F8588608F874B8B1C8A222329F0413033
:1050200019F48F8584608F8780E593EC0E94B441EA
:105030008C8160E00E9407438E8160E00E940743FC
:105040008D818F3F19F060E00E9407436F8564FDFA
:1050500019C0CE0163E039DF84E991E10E94B441D7
:10506000CE0163E032DF84E991E10E94B441CE01D8
:1050700063E02BDF86E990E00E94B441CE0162E05C
:1050800024DF13C06062CE0180DF84E991E10E94D9
:10509000B4416F856062CE0178DF86E990E00E94BE
:1050A000B4416F856062CE0170DF6F856062CE01B2
:1050B0006CDF84E0888BCE016ADFCE019EDF82E068
:1050C000898BCE0166E061DFDF91CF9108956F9209
:1050D0007F928F92AF92CF92EF920F931F93DF93B5
:1050E000CF93CDB7DEB73C01162F842FF301448355
:1050F00025830683E782C086A18682869E85938764
:105100009F859487988995879989968761E00E9401
:105110005442F30185818F3F19F061E00E945442AF
:10512000F301868161E00E945442112319F0F301DA
:10513000178603C080E1F3018787C30160E141E086
:1051400020E061DFCF91DF911F910F91EF90CF9021
:10515000AF908F907F906F9008958F92AF92CF9283
:10516000EF920F931F93CF93DF93DC01362F542FD1
:10517000722F102FAE2C8C2C13961C921E9212970D
:1051800087EC98E011969C938E9300D00F92EDB728
:10519000FEB73196CDB7DEB7198211821282138223
:1051A000CD0161E0432F2FEF052FE72EC12E8FDFBA
:1051B0000F900F900F900F90DF91CF911F910F9153
:1051C000EF90CF90AF908F900895FC0113821282E0
:1051D00088EE93E0A0E0B0E084839583A683B78354
:1051E00087ED98E091838083128E118E1486089546
:1051F000DF93CF930F92CDB7DEB7FC016983A08117
:10520000B18112962D913C911397BE016F5F7F4F34
:1052100041E050E0F90119950F90CF91DF91089589
:10522000DC015996ED91FC915A97309719F420E0E2
:1052300030E018C023893489458956898285938551
:10524000A485B585281B390B4A0B5B0B2030B0E8D1
:105250003B07B0E04B07B0E05B0720F02FEF3FE7E4
:1052600040E050E0C9010895DC015996ED91FC91B0
:105270005A97309711F480E008958581811181E07B
:105280000895CF93DF93EC01898D9A8D009741F0BB
:105290000E94E131898D9A8D0E94D6431A8E198E13
:1052A000DF91CF910895FC01818D928D009711F0CF
:1052B0000C9499310895DF93CF930F92CDB7DEB759
:1052C000FC01818D928D009749F0BE016F5F7F4F89
:1052D00041E050E00E94CC32019719F02FEF3FEFF0
:1052E00003C08981282F30E0C9010F90CF91DF9151
:1052F0000895EF92FF920F931F93DF93CF930F9236
:10530000CDB7DEB77C01DC0159968D919C915A97FF
:10531000009719F400E010E01EC0BE016F5F7F4FE0
:1053200041E050E00E94CC32019719F00FEF1FEFDF
:1053300012C08981082F10E0D7015996ED91FC9198
:105340005A97428553856485758541505040604029
:105350007040CF0129D7C8010F90CF91DF911F91E5
:105360000F91FF90EF900895CF93DF93EC01E98DBB
:10537000FA8D309761F013821282CF010E940935B5
:105380009C01E98DFA8D82819381892B31F081E036
:1053900090E09B838A8320E030E0C901DF91CF91C8
:1053A0000895EF92FF920F931F93CF93DF93EC0139
:1053B000F62EE72E8A011B821A8288EE93E0A0E087
:1053C000B0E08C839D83AE83BF8387ED98E09983A3
:1053D00088838DE190E00E9439439A8F898F0097EE
:1053E00091F0DC018F2D9E2D9C01F9018DE1019042
:1053F0000D928150E1F7CE010C96B8014CE050E0DF
:105400000E944402188EDF91CF911F910F91FF905F
:10541000EF9008950F931F93CF93DF938C01FB01BF
:10542000C081D181FC01EC0FFD1F80818F3209F416
:10543000219698012C0F3D1FA0E0B0E00BC0FA01AF
:10544000EA0FFB1F8083119621962F5F3F4FAC30F0
:10545000B10531F0F90180818F3211F0882379F79D
:10546000A40FB51F1C92F801EC0FFD1F80818F3235
:1054700009F42196FB01D183C083C00FD11F88811D
:10548000811181E0DF91CF911F910F9108951092CA
:10549000F20F1092F30F1092F60F1092F80F82E0B5
:1054A00090E0A0E0B0E08093F90F9093FA0FA09302
:1054B000FB0FB093FC0F1092101010921A10109264
:1054C000191087EE98E0909318108093171010929F
:1054D0001C100895EF92FF921F93DF93CF93CDB7E7
:1054E000DEB76D970FB6F894DEBF0FBECDBF9C013F
:1054F000AB011C821B8287EE98E09A8389831E820F
:105500007E010894E11CF11CC701B90121E00E9451
:105510002B37182F882311F0C70153D7812F6D9691
:105520000FB6F894DEBF0FBECDBFCF91DF911F91B4
:10553000FF90EF9008952F923F924F925F926F925B
:105540007F928F929F92BF92CF92DF92EF92FF92C3
:105550000F931F93DF93CF93CDB7DEB7C954D040DD
:105560000FB6F894DEBF0FBECDBF1C017B012A0130
:1055700039011B8A1A8A87EE98E0998B888B1D8ADD
:1055800018AA1FA69EA78DA71AAA1A8219828B0194
:1055900020E1C22ED12CCC0EDD1E93E0892E912C61
:1055A0008C0E9D1E03C0C80186016C01C101BE01A5
:1055B0006F5F7F4FA4012EDFB82E40E0882309F4EF
:1055C00041E0C801B4019301F2011995882331F437
:1055D0000E151F0501F1C801F4D61DC0BB20A1F0B6
:1055E000C601B801A40121E00E942B37B82E0E1588
:1055F0001F0511F0C801E5D6BB2069F00E151F0587
:1056000091F6CE018D96D0CF0E151F0511F0C80171
:10561000D8D681E001C080E0C75BDF4F0FB6F894B9
:10562000DEBF0FBECDBFCF91DF911F910F91FF90D5
:10563000EF90DF90CF90BF909F908F907F906F9072
:105640005F904F903F902F9008959B01BC01665D45
:105650007F4FC9014DE95DE220E030E06CCF9B0156
:10566000BC01665D7F4FC9014AE65AE220E030E0A6
:1056700062CF2F923F924F925F926F927F928F9262
:105680009F92AF92BF92CF92DF92EF92FF920F93D1
:105690001F93DF93CF93CDB7DEB7C754D0400FB67B
:1056A000F894DEBF0FBECDBF582E492EFB013A0144
:1056B000190184A595A5998B888B27EE38E03F8743
:1056C0002E8786A58A8B87A58B8B80A991A9A2A9F5
:1056D000B3A98C8B9D8BAE8BBF8B84A995A9A6A9F2
:1056E000B7A9888F998FAA8FBB8F80AD91ADA2ADDE
:1056F000B3AD8C8F9D8FAE8FBF8F84AD88A3FD9689
:1057000081919191A191B19189A39AA3ABA3BCA3DB
:1057100081919191A191B1918DA39EA3AFA3B8A7BF
:10572000808191819AA789A71EA61DA63CA72BA7B9
:1057300018AA7A018E01025F1F4F3BE2A32EB12C03
:10574000AC0EBD1E4E010894811C911C33C0D701C4
:105750008C918F3221F40894E11CF11C2BC0422F54
:105760004E194D3008F04CE0C42EDD24C401B701C1
:10577000A6010E944402F401EC0DFD1D1082C5013A
:1057800020D6C501B801A40121E00E942B3788234F
:1057900051F4E52DF42D1382128287EE98E0918367
:1057A0008083158265C0EC0CFD1CC8010AD6C501BA
:1057B00058018C01C7016FE270E00E941B029C013E
:1057C000009729F6E618F708F101F182E082E52D4D
:1057D000F42DD80112968D919C9113979383828317
:1057E00087EE98E09183808314968C91149784833C
:1057F00015968C911597858316962D913D914D9117
:105800005C91199726833783408751871A962D918B
:105810003D914D915C911D97228733874487558731
:105820001E962D913D914D915C915197268737871A
:10583000408B518B52968C915297828B53962D911F
:105840003D914D915C915697238B348B458B568BB4
:1058500057962D913D914D915C915A97278B308FA2
:10586000418F528F5B968D919C915C97948F838F23
:10587000852D942DC95BDF4F0FB6F894DEBF0FBEA8
:10588000CDBFCF91DF911F910F91FF90EF90DF90EF
:10589000CF90BF90AF909F908F907F906F905F90D0
:1058A0004F903F902F9008959F92AF92BF92CF92CA
:1058B000DF92EF92FF920F931F93DF93CF93CDB7B9
:1058C000DEB7C657D0400FB6F894DEBF0FBECDBFCF
:1058D000C82E992E8A01D22E43E0A42EB12CAC0EF4
:1058E000BD1EC501A8019E012F5F3F4FC2DEE980AA
:1058F000FA80E00EF11EF701808147EE58E028851E
:10590000882309F03FC08D819E819BA38AA359A360
:1059100048A38F818CA32DA389859A85AB85BC85EF
:105920008EA39FA3A8A7B9A78D859E85AF85B889AB
:105930008AA79BA7ACA7BDA789899A89AB89BC898F
:105940008EA79FA7A8ABB9AB8D898AAB8E899F899B
:10595000A88DB98D8BAB9CABADABBEAB8A8D9B8D4F
:10596000AC8DBD8D8FAB98AFA9AFBAAF8E8D9F8D2B
:105970009CAF8BAF8C2D992DBE01605E7F4F44EBA9
:1059800058E09CC0FE01FF96118210825EAF4DAFC1
:10599000FE01EE5BFF4F10822223A9F02250CE01C0
:1059A000CD96223048F467E170E1A7012D2D0E94C9
:1059B0002B37882371F407C0B501A7012D2D0E9454
:1059C0002B37882321F48C2D992DFFDB78C0C5015E
:1059D000F8D4F6E0DF2251F0FE01E05BFF4F40819A
:1059E000518162817381CE01CD96DED39E01265A0C
:1059F0003F4FFE01FF9680819181F901938382835D
:105A000087EE98E091838083FE01EF5BFF4F8081FA
:105A1000F9018483FE01EE5BFF4F8081F9018583EC
:105A2000FE01ED5BFF4F80819181A281B381F9017D
:105A300086839783A087B187FE01E95BFF4F808152
:105A40009181A281B381F90182879387A487B58769
:105A5000FE01E55BFF4F80819181A281B381F90155
:105A600086879787A08BB18BFE01E15BFF4F80811A
:105A7000F901828BFE01E05BFF4F80819181A28161
:105A8000B381F901838B948BA58BB68BFE01EC5A05
:105A9000FF4F80819181A281B381F901878B908F23
:105AA000A18FB28FFE01E85AFF4F80819181F901E9
:105AB000948F838F8C2D992DB901A70172DC8C2DC9
:105AC000992DCA58DF4F0FB6F894DEBF0FBECDBF79
:105AD000CF91DF911F910F91FF90EF90DF90CF90CA
