:1000000006C1000031C100002FC100002DC1000059
:100010002BC1000029C1000027C1000025C100003C
:1000200023C1000021C100001FC100001DC100004C
:100030001BC1000019C1000017C1000015C100005C
:1000400013C1000011C100000FC100000DC100006C
:100050000BC1000009C1000007C100000C94AE20D4
:1000600003C100000C948A220C94DE23FDC0000022
:10007000FBC00000F9C00000F7C00000F5C00000A0
:10008000F3C00000F1C00000EFC00000EDC00000B0
:100090000C94CA220C941D24E7C000000C94FD1E91
:1000A000E3C00000E1C00000DFC00000DDC00000D0
:1000B000DBC00000D9C00000D7C00000D5C00000E0
:1000C000D3C00000D1C00000CFC000000C940A23B0
:1000D0000C945C24C9C000000C944A230C949B240B
:1000E000C3C0000000002100240027002A002D00CA
:1000F0003000330001010000040107010A01000083
:100100002200250028002B002E00310034000201BF
:100110000000050108010B0100002000230026005B
:1001200029002C002F00320000010000030106010D
:10013000090105050505070508080808020202026D
:100140000A0A080804040404010101010101010173
:100150000303030303030303040707070C0C0C0C3E
:100160000C0C0C0C02020202060606060606060627
:100170000B0B0B0B0B0B0B0B0102102020080810B4
:100180002040102040800201020108040201010207
:1001900004081020408080402010080402018004E0
:1001A000020180402010080402010804020101023B
:1001B0000408102040800102040810204080000044
:1001C000090A02080B0C0D070603040100000000D9
:1001D000000000000000000000000000000000001F
:1001E0000000000000000000000011100F000000DF
:1001F00000000000000000000000000000000000FF
:10020000000000002608691B631E0D26210811242A
:100210001FBECFEFD1E2DEBFCDBF00E00CBF1AE0C2
:10022000A0E0B2E0E6E5FCE500E00BBF02C007900D
:100230000D92A43BB107D9F71BBE14E1A4EBBAE0C1
:1002400001C01D92AF3DB107E1F712E0CCE0D2E072
:1002500004C02297FE010E94102EC430D107C9F7B6
:100260000E9444270C941F2ECBCE1F93FC0199278C
:100270008827BC01E89411911032E9F3193010F08D
:100280001E30C8F31B3249F01D3241F4689405C09A
:1002900036D0610F711D811D911D119110531A30BF
:1002A000B8F33EF490958095709561957F4F8F4F90
:1002B0009F4F1F910895FB01DC0102C001900D9238
:1002C00041505040D8F70895FC018191861721F0E4
:1002D0008823D9F7992708953197CF010895FB0115
:1002E000DC018D91019080190110D9F3990B0895CB
:1002F000FB01DC0101900D920020E1F70895592FD8
:10030000482F372F262F660F771F881F991F660FDC
:10031000771F881F991F620F731F841F951F660F19
:10032000771F881F991F0895EF92FF920F931F93D5
:100330007C0100E012E00A96B8010E94C32AC701BE
:100340004096B8010E94C32AC7014696B8010E9490
:10035000C32AC7014C96B8010E94C32AC7018E96D2
:10036000B8010E94C32AC701C496B8010E94C32ADB
:10037000C701CA96B8010E94C32AC701805C9F4F7B
:10038000B8010E94C32AF70117A216A21F910F916C
:10039000FF90EF900895CF92EF920F93CF93DF935A
:1003A0008130910509F0A6C56F5F7F4F09F043C604
:1003B00084EB9AE00E941E1E82E79BE068E049E021
:1003C00024E005E056E0E52E37E0C32E0E94F11C44
:1003D00087E89BE060E072E00E94C32A8DE89BE022
:1003E00060E072E00E94C32A83E99BE060E072E073
:1003F0000E94C32A89E99BE061E072E00E94C32A5F
:100400008FE99BE068E372E00E94C32A85EA9BE0E3
:1004100061E872E00E94C32A8BEA9BE06AEC72E01A
:100420000E94C32A81EB9BE060EF72E00E94C32A26
:1004300087EB9BE067E473E00E94C32A8DEB9BE0AF
:100440006BE773E00E94C32A83EC9BE065EA73E0EC
:100450000E94C32A89EC9BE06DEC73E00E94C32AE2
:100460008FEC9BE066EF73E00E94C32A85ED9BE072
:100470006CE274E00E94C32A8BED9BE064E674E0BA
:100480000E94C32A81EE9BE062E974E00E94C32AC5
:1004900087EE9BE064EC74E00E94C32A8DEE9BE043
:1004A00067EF74E00E94C32A83EF9BE065E275E08A
:1004B0000E94C32A84E09CE037DF8BE49CE063E881
:1004C00075E00E94C32A81E59CE066E875E00E9421
:1004D000C32A87E59CE069E875E00E94C32A8DE5A0
:1004E0009CE06CE875E00E94C32A83E69CE06FE81C
:1004F00075E00E94C32A89E69CE062E975E00E94EB
:10050000C32A8FE69CE065E975E00E94C32A85E76F
:100510009CE068E975E00E94C32A8BE79CE06BE9E8
:1005200075E00E94C32A81E89CE06EE975E00E94B4
:10053000C32A87E89CE061EA75E00E94C32A8DE83F
:100540009CE064EA75E00E94C32A83E99CE063E8CA
:1005500075E00E94C32A89E99CE066E875E00E9484
:10056000C32A8FE99CE069E875E00E94C32A85EA06
:100570009CE06CE875E00E94C32A8BEA9CE06FE87F
:1005800075E00E94C32A81EB9CE062E975E00E945D
:10059000C32A87EB9CE065E975E00E94C32A8DEBD6
:1005A0009CE068E975E00E94C32A83EC9CE06BE95B
:1005B00075E00E94C32A89EC9CE06EE975E00E9418
:1005C000C32A8FEC9CE061EA75E00E94C32A85EDA6
:1005D0009CE064EA75E00E94C32A8BED9CE067EA28
:1005E00075E00E94C32A81EE9CE06AEA75E00E94F1
:1005F000C32A87EE9CE06DEA75E00E94C32A8DEE67
:100600009CE060EB75E00E94C32A83EF9CE063EB03
:1006100075E00E94C32A89EF9CE066EB75E00E94BA
:10062000C32A8FEF9CE069EB75E00E94C32A85E046
:100630009DE06CEB75E00E94C32A8BE09DE06FEBC0
:1006400075E00E94C32A81E19DE062EC75E00E94A2
:10065000C32A87E19DE065EC75E00E94C32A8DE125
:100660009DE068EC75E00E94C32A83E29DE06BEC9C
:1006700075E00E94C32A89E29DE06EEC75E00E945D
:10068000C32A8FE29DE061ED75E00E94C32A85E3F5
:100690009DE064ED75E00E94C32A8BE39DE067ED69
:1006A00075E00E94C32A81E49DE06AED75E00E9436
:1006B000C32A87E49DE06DED75E00E94C32A8DE4B6
:1006C0009DE060EE75E00E94C32A83E59DE062EE46
:1006D00075E00E94C32A89E59DE064EE75E00E9402
:1006E000C32A8FE59DE066EE75E00E94C32A85E689
:1006F0009DE068EE75E00E94C32A8BE69DE06AEEFD
:1007000075E00E94C32A81E79DE06CEE75E00E94CF
:10071000C32A87E79DE06EEE75E00E94C32A8DE74D
:100720009DE060EF75E00E94C32A83E89DE062EFE0
:1007300075E00E94C32A89E89DE064EF75E00E949D
:10074000C32A8FE89DE063E875E00E94C32A85E92B
:100750009DE066E875E00E94C32A8BE99DE069E8A8
:1007600075E00E94C32A81EA9DE06CE875E00E9472
:10077000C32A87EA9DE06FE875E00E94C32A8DEAEC
:100780009DE062E975E00E94C32A83EB9DE065E984
:1007900075E00E94C32A89EB9DE068E975E00E943C
:1007A000C32A8FEB9DE06BE975E00E94C32A85ECBC
:1007B0009DE06EE975E00E94C32A8BEC9DE061EA42
:1007C00075E00E94C32A81ED9DE064EA75E00E9415
:1007D000C32A87ED9DE067EA75E00E94C32A8DED8C
:1007E0009DE06AEA75E00E94C32A83EE9DE06DEA0F
:1007F00075E00E94C32A89EE9DE060EB75E00E94DF
:10080000C32A8FEE9DE063EB75E00E94C32A85EF5B
:100810009DE066EB75E00E94C32A8BEF9DE069EBDB
:1008200075E00E94C32A81E09EE06CEB75E00E94B7
:10083000C32A87E09EE06FEB75E00E94C32A8DE03B
:100840009EE062EC75E00E94C32A83E19EE065ECC5
:1008500075E00E94C32A89E19EE064EF75E00E9482
:10086000C32A8FE19EE063E875E00E94C32A85E217
:100870009EE066E875E00E94C32A8BE29EE069E88C
:1008800075E00E94C32A81E39EE06CE875E00E9457
:10089000C32A87E39EE06FE875E00E94C32A8DE3D8
:1008A0009EE062E975E00E94C32A83E49EE065E968
:1008B00075E00E94C32A89E49EE068E975E00E9421
:1008C000C32A8FE49EE06BE975E00E94C32A85E5A8
:1008D0009EE06EE975E00E94C32A8BE59EE061EA26
:1008E00075E00E94C32A81E69EE064EA75E00E94FA
:1008F000C32A87E69EE067EA75E00E94C32A8DE678
:100900009EE06AEA75E00E94C32A83E79EE06DEAF2
:1009100075E00E94C32A89E79EE060EB75E00E94C3
:10092000C32A8FE79EE063EB75E00E94C32A85E847
:100930009EE066EB75E00E94C32A8BE89EE069EBBF
:1009400075E00E94C32A81E99EE06CEB75E00E948D
:10095000C32A87E99EE06FEB75E00E94C32A8DE908
:100960009EE062EC75E00E94C32A83EA9EE065EC9B
:1009700075E00E94C32A89EA9EE068EC75E00E9457
:10098000C32A8FEA9EE06BEC75E00E94C32A85EBD8
:100990009EE06EEC75E00E94C32A8BEB9EE061ED59
:1009A00075E00E94C32A81EC9EE064ED75E00E9430
:1009B000C32A87EC9EE067ED75E00E94C32A8DECA8
:1009C0009EE06AED75E00E94C32A83ED9EE06DED26
:1009D00075E00E94C32A89ED9EE067EF75E00E94F2
:1009E000C32A8FED9EE06AEF75E00E94C32A85EE70
:1009F0009EE06DEF75E00E94C32A8BEE9EE060E002
:100A000076E00E94C32A81EF9EE063E076E00E94D8
:100A1000C32A87EF9EE066E076E00E94C32A8DEF4E
:100A20009EE069E076E00E94C32A83E09FE06CE0EC
:100A300076E00E94C32A89E09FE06FE076E00E94A2
:100A4000C32A8FE09FE062E176E00E94C32A85E13D
:100A50009FE065E176E00E94C32A8BE19FE068E1B8
:100A600076E00E94C32A81E29FE06BE176E00E947B
:100A7000C32A87E29FE06EE176E00E94C32A8DE2FE
:100A80009FE061E276E00E94C32A83E39FE064E294
:100A900076E00E94C32A89E39FE067E276E00E9445
:100AA000C32A8FE39FE06AE276E00E94C32A85E4CE
:100AB0009FE06DE276E00E94C32A8BE49FE060E352
:100AC00076E00E94C32A81E59FE063E376E00E941E
:100AD000C32A87E59FE066E376E00E94C32A8DE59E
:100AE0009FE069E376E00E94C32A83E69FE06CE31F
:100AF00076E00E94C32A89E69FE06FE376E00E94D9
:100B0000C32A8FE69FE062E476E00E94C32A85E76D
:100B10009FE065E476E00E94C32A8BE79FE068E4EB
:100B200076E00E94C32A81E89FE060EE75E00E94B3
:100B3000C32A87E89FE062EE75E00E94C32A8DE831
:100B40009FE064EE75E00E94C32A83E99FE066EEB1
:100B500075E00E94C32A89E99FE068EE75E00E9473
:100B6000C32A8FE99FE06AEE75E00E94C32A85EAF6
:100B70009FE06CEE75E00E94C32A8BEA9FE06EEE68
:100B800075E00E94C32A81EB9FE060EF75E00E9450
:100B9000C32A87EB9FE062EF75E00E94C32A8DEBCA
:100BA0009FE06BE476E00E94C32A83EC9FE06DE453
:100BB00076E00E94C32A89EC9FE06FE476E00E9411
:100BC000C32A8FEC9FE061E576E00E94C32A85EDA1
:100BD0009FE063E576E00E94C32A8BED9FE065E528
:100BE00076E00E94C32A81EE9FE067E576E00E94EE
:100BF000C32A87EE9FE069E576E00E94C32A8DEE66
:100C00009FE06BE576E00E94C32A83EF9FE06DE5ED
:100C100076E00E94C32A89EF9FE06FE576E00E94AC
:100C2000C32A8FEF9FE061E676E00E94C32A85E049
:100C300090E163E676E00E94C32A8BE090E165E6EE
:100C400076E00E94C32A81E190E167E676E00E94A7
:100C5000C32A87E190E169E676E00E94C32A8DE12C
:100C600090E16BE676E00E94C32A83E290E16DE6B4
:100C700076E00E94C32A89E290E16FE676E00E9466
:100C8000C32A8FE290E161E776E00E94C32A85E300
:100C900090E163E776E00E94C32A8BE390E165E789
:100CA00076E00E94C32A81E490E167E776E00E9443
:100CB000C32A87E490E169E776E00E94C32A8DE4C5
:100CC00090E16BE776E00E94C32A83E590E16DE74F
:100CD00076E00E94C32A89E590E16FE776E00E9402
:100CE000C32A8FE590E161E876E00E94C32A85E699
:100CF00090E163E876E00E94C32A8BE690E165E824
:100D000076E00E94C32A81E790E167E876E00E94DE
:100D1000C32A87E790E169E876E00E94C32A8DE75D
:100D200090E16BE876E00E94C32A83E890E16DE8E9
:100D300076E00E94C32A89E890E16FE876E00E949D
:100D4000C32A8FE890E161E976E00E94C32A85E931
:100D500090E163E976E00E94C32A8BE990E165E9BE
:100D600076E00E94C32A81EA90E167E976E00E947A
:100D7000C32A87EA90E169E976E00E94C32A8DEAF6
:100D800090E16BE976E00E94C32A83EB90E16DE984
:100D900076E00E94C32A89EB90E16FE976E00E9439
:100DA000C32A8FEB90E161EA76E00E94C32A85ECCA
:100DB00090E163EA76E00E94C32A8BEC90E165EA59
:100DC00076E00E94C32A81ED90E167EA76E00E9416
:100DD000C32A87ED90E169EA76E00E94C32A8DED8F
:100DE00090E16BEA76E00E94C32A83EE90E16DEA1F
:100DF00076E00E94C32A89EE90E16FEA76E00E94D5
:100E0000C32A8FEE90E161EB76E00E94C32A85EF62
:100E100090E160EE75E00E94C32A8BEF90E162EEF4
:100E200075E00E94C32A81E091E164EE75E00E94C2
:100E3000C32A87E091E166EE75E00E94C32A8DE047
:100E400091E168EE75E00E94C32A83E191E16AEEC8
:100E500075E00E94C32A89E191E16CEE75E00E9481
:100E6000C32A8FE191E16EEE75E00E94C32A85E20C
:100E700091E160EF75E00E94C32A8BE291E162EF9D
:100E800075E00E94C32A81E391E163EB76E00E9462
:100E9000C32A87E391E165EB76E00E94C32A8DE3E4
:100EA00091E167EB76E00E94C32A83E491E16BEB6A
:100EB00076E00E94C32A89E491E16FEB76E00E941C
:100EC000C32A8FE491E163EC76E00E94C32A85E5B2
:100ED00091E167EC76E00E94C32A8BE591E16BEC2F
:100EE00076E00E94C32A81E691E16FEC76E00E94F1
:100EF000C32AA1C0892B09F09EC06F5F7F4F09F004
:100F00009AC0C1E6D1E1CE010E948C2B269781E1E7
:100F1000C733D807C1F7C7E3D1E1CE010E948C2BBC
:100F200026978FE0C73BD807C1F7C7EBDFE0CE01BC
:100F30000E948C2B26978FE0CB37D807C1F7CBE7E1
:100F4000DFE0CE010E948C2B26978EE0C331D807BC
:100F5000C1F7C3E1DEE0CE010E948C2B26978DE025
:100F6000C338D807C1F7C3E8DDE0CE010E948C2B5F
:100F700026978DE0C734D807C1F7C7E4DDE0CE017E
:100F80000E948C2B26978CE0CD38D807C1F7CDE88E
:100F9000DCE0CE010E948C2B26978CE0C534D8076C
:100FA000C1F784E49CE00E948C2B8EE39CE00E94BD
:100FB0008C2B88E39CE00E948C2B82E39CE00E94B7
:100FC0008C2B80E29CE00E948C2B8AE19CE00E94AA
:100FD0008C2B84E19CE00E948C2B8EE09CE00E9494
:100FE0008C2BC3EFDBE0CE010E948C2B26978BE08D
:100FF000C93CD807C1F7C9ECDBE0CE010E948C2BBD
:1010000026978BE0CB3AD807C1F7CBEADBE0CE01DD
:101010000E948C2B26978BE0C339D807C1F783E950
:101020009BE00E948C2B8DE89BE00E948C2B87E834
:101030009BE00E948C2BDF91CF910F91EF90CF908E
:10104000089580E090E06FEF7FEFA5C981E090E028
:101050006FEF7FEFA0C9BC0182E594E10C94AE274D
:101060000F931F93809167116623C9F0882309F5B8
:1010700084EB9AE044EF51E060E070E025ED39E068
:1010800002E010E00E94111E992787FD9095909331
:1010900069118093681181E0809367110AC08130E3
:1010A00041F484EB9AE0609168110E94771D1092E0
:1010B00067111F910F9108958091FA0B9091FB0B8E
:1010C0009093FF0B8093FE0B80E00E9470219C01A7
:1010D0009093FB0B8093FA0B4091FE0B5091FF0B0A
:1010E000841B950B05960B9798F581E08093F90B7F
:1010F000C9018C589040099718F483E090E01EC015
:10110000C90185549140099718F484E090E016C015
:10111000C9010496099718F485E090E00FC0C90151
:10112000855F9140099718F482E090E007C0225E45
:1011300032402930310538F481E090E09093FD0B86
:101140008093FC0B08951092FD0B1092FC0B04C0D1
:101150005093FB0B4093FA0B1092F90B08950F93E9
:101160001F938091FA0B9091FB0B9093FF0B809350
:10117000FE0B80E00E9470219093FB0B8093FA0B92
:101180002091FE0B3091FF0B821B930B97FF03C046
:10119000909581959F4F0597A4F084EB9AE04AE0E3
:1011A00050E060E070E02CE538E005E010E00E94DF
:1011B000041E992787FD90959093030C8093020C51
:1011C00004C03093FB0B2093FA0B1F910F910895ED
:1011D0000F931F93882351F18FEF93E09093FB0BB4
:1011E0008093FA0B84EB9AE044E150E060E070E019
:1011F0002FEA38E002E010E00E94111E992787FDD7
:1012000090959093010C8093000C82E594E163E942
:1012100077E00E94B72882E594E144E150E060E085
:1012200070E02AE030E00E944A2806C084EB9AE091
:101230006091000C0E94771D1F910F9108954F92AD
:101240005F926F927F928F929F92AF92BF92CF9256
:10125000DF92EF92FF920F931F93DF93CF93CDB75F
:10126000DEB768970FB6F894DEBF0FBECDBF3C0166
:1012700082E79BE060E142E020E00E94531C82E7AD
:101280009BE00E944E1C82E79BE060E040E00E94F1
:10129000201CB301665C7F4F82E79BE00E947C27A5
:1012A00082E79BE060E041E00E94201C80917B0A85
:1012B0009AE0492E512C460C571CF30142A153A130
:1012C000882309F446C000E1802E912C860C971CDF
:1012D00026A137A16E010894C11CD11CC601B20120
:1012E0000E94222B17E0E12EF12CEC0EFD1EC7010F
:1012F000B6010E94842BB3016A5E7F4FC7010E9432
:10130000902A5C018E01035F1F4FF30146A157A194
:101310004F5F5F4F24A135A1C801B2010E94222B6B
:10132000C501B8010E94902ABC01C4010E94672B2C
:10133000C8010E948C2BC7010E94902BC6010E94FD
:101340008C2B82E79BE0B4010E947C2710927B0AE1
:1013500015C08E010D5E1F4FF30124A135A1C801F8
:10136000B2010E94222B82E79BE0B8010E947C27F9
:10137000C8010E948C2B81E080937B0A68960FB68F
:10138000F894DEBF0FBECDBFCF91DF911F910F91BB
:10139000FF90EF90DF90CF90BF90AF909F908F9095
:1013A0007F906F905F904F90089584E09CE047CFCE
:1013B0000F931F93CF93DF938B01EA01C801BE0106
:1013C0000E94CA28FC018081803221F0D7FD02C032
:1013D0002197F4CFCE01DF91CF911F910F91089506
:1013E0000F931F93CF93DF938B01EA01C801BE01D6
:1013F0000E94CA28FC018081803221F4D7FD02C0FE
:101400002197F4CFCE01DF91CF911F910F910895D5
:101410000F931F93CF93DF938B01EA01C801BE01A5
:101420000E94CA28FC018081803249F4F80184813D
:1014300095810196C817D90710F42196EFCFCE01F8
:10144000DF91CF911F910F9108952F923F924F926C
:101450005F926F927F928F929F92AF92BF92CF9244
:10146000DF92EF92FF920F931F93DF93CF93CDB74D
:10147000DEB7C854D0400FB6F894DEBF0FBECDBF64
:101480003C015B01CE01019660E072E00E94C32A3C
:10149000C5016CE20E9467297C018E01095F1F4F24
:1014A000C801B50140E050E097010E94222BC30122
:1014B000C496B8010E94672BC8010E948C2B089427
:1014C000E11CF11CC5016CE2A7010E9449296C01D5
:1014D0000CE1202E312C260C371C8E01035F1F4F90
:1014E000C801B501A70196010E94222BC101B801D4
:1014F0000E94672BC8010E948C2B8E010D5E1F4F2E
:10150000C80165ED77E00E94DB2AC801B1010E94A5
:10151000902A64EE77E00E94762ABC0182E594E18D
:101520000E94AE27C8010E94902B0894C11CD11CB8
:10153000C5016CE2A6010E9449297C011AE3812EB3
:10154000912C860C971C8E01075E1F4FC801B501B8
:10155000A60197010E94222BC401B8010E94672BAB
:10156000C8010E948C2BBAE04B2E512C460C571C04
:10157000A5E2CA2ED12CCC0EDD1EC60166EE77E0A8
:101580000E94DB2A8E01015E1F4F0894E11CF11CB2
:10159000F50124813581C801B501A7010E94222BE4
:1015A000C601B8010E94902ABC01C2010E94672BAB
:1015B000C8010E948C2BC6010E94902BF3018685E6
:1015C000978595A384A3C2016FEF77E00E94482A14
:1015D00082E594E164E178E00E94B72882E594E135
:1015E000B2010E947C2782E594E164EE77E00E94DC
:1015F000B9288E01055D1F4FC801B2010E947C2BE6
:10160000C301B80140E050E003DFF30193A382A3DC
:10161000C8010E948C2BF30182A193A197A386A3FA
:1016200082E79BE060E142E020E00E94531C82E7F9
:101630009BE00E944E1C82E79BE060E040E00E943D
:10164000201C82E79BE0B4010E947C2782E79BE09C
:1016500060E041E00E94201CF30184A195A122A139
:1016600033A1821B930B26A137A140970CF1F1E324
:10167000EF2EF12CEC0EFD1EC701B201A901215F76
:101680003F4F0E94222B8E01095C1F4FC801B701FA
:101690000E94842BC8016EE30E94672ABC0182E786
:1016A0009BE00E947C27C8010E94902BC70110C0BC
:1016B0008E01035C1F4FC801B201A901205F3F4F9B
:1016C0000E94222B82E79BE0B8010E947C27C80180
:1016D0000E948C2BC10162E278E00E946A29882373
:1016E00019F081E090E009C0C10162EA77E00E9450
:1016F0006A29882349F083E090E0F301908787838B
:10170000C30160E0ADDC4BC082E090E0F301908764
:101710008783C30161E0A4DCE3E44E2E512C4C0E20
:101720005D1E06C0F30186A197A1019697A386A32B
:10173000F30126A137A182A193A1281B390BC20175
:10174000B101A9012F5F3F4F0E94222BC20163EB21
:1017500076E00E946A29882311F400E00BC000E0C3
:10176000F30182A193A10E9626A137A182179307B8
:101770000CF001E0C2010E948C2B002399F6F301CA
:10178000818593012A5E3F4F882321F0C90163EBD5
:1017900076E003C0C90167E278E00E94F32ACE0137
:1017A00001960E948C2BC85BDF4F0FB6F894DEBF0A
:1017B0000FBECDBFCF91DF911F910F91FF90EF90A2
:1017C000DF90CF90BF90AF909F908F907F906F9061
:1017D0005F904F903F902F900895BF92CF92DF92ED
:1017E000EF92FF920F931F93DF93CF9300D000D01F
:1017F000CDB7DEB77C01B62E6901FC0116830583E7
:101800008E96BA010E94672BF70114821382F1E0D1
:10181000CF16D10419F00894C108D108F701D2827B
:10182000C182F701B18686E490E0E80EF91EF70167
:1018300010828AEB9FEFE80EF91EF7016581768131
:101840008E010F5F1F4FC8010E947C2BC701B8019A
:10185000FCDDC8010E948C2B26960FB6F894DEBFE3
:101860000FBECDBFCF91DF911F910F91FF90EF90F1
:10187000DF90CF90BF9008956F927F928F929F924A
:10188000AF92BF92CF92DF92EF92FF920F931F938E
:10189000DF93CF93CDB7DEB76E970FB6F894DEBF68
:1018A0000FBECDBF3E010894611C711CC30160E0F6
:1018B00072E00E94C32A82E594E140E855E260E0CC
:1018C00070E00E94DA2437E0832E912C8C0E9D1E4E
:1018D000C40169E278E00E94C32A2DE0A22EB12C57
:1018E000AC0EBD1EC50164E378E00E94C32A93E1FB
:1018F000C92ED12CCC0EDD1EC6016FE378E00E940C
:10190000C32A81E065DC81E08093040C89E1E82E44
:10191000F12CEC0EFD1EC7016CE478E00E94C32A96
:1019200084E09CE061E0A70124E030E009E91BE0ED
:1019300054DFC7010E948C2BC6010E948C2BC5016D
:101940000E948C2BC4010E948C2BC3010E948C2B03
:101950006E960FB6F894DEBF0FBECDBFCF91DF916C
:101960001F910F91FF90EF90DF90CF90BF90AF90BD
:101970009F908F907F906F9008954F925F926F929B
:101980007F928F929F92AF92BF92CF92DF92EF920F
:10199000FF920F931F93DF93CF93CDB7DEB7A4973A
:1019A0000FB6F894DEBF0FBECDBF3C01A62E8E0150
:1019B0000F5F1F4FC80160E072E00E94C32ACE0192
:1019C000079660E072E00E94C32A9AE0492E512CEB
:1019D000460C571CF30126A137A18DE0E82EF12C0F
:1019E000EC0EFD1EC701B201A9012F5F3F4F0E94FF
:1019F000222BC801B7010E94672BC7010E948C2BC4
:101A0000EE24FF24C02E012FB701660F771F6E0D45
:101A10007F1D660F771F6354704F8C2D902F0E948F
:101A2000C029882341F4F0E4EF16F10421F0089472
:101A3000E11CF11CE9CFAA2051F08FE3E816F10474
:101A40001CF080E090E00BC0C701019608C0E114D3
:101A5000F10419F48FE390E002C0C7010197A7E0F9
:101A60008A2E912C8C0E9D1EBC01660F771F680F6D
:101A7000791F660F771F6354704FC4010E94672B54
:101A800063E1A62EB12CAC0EBD1EF30126A137A139
:101A9000C501B20140E050E00E94222B59E1C52E61
:101AA000D12CCC0EDD1EC601B5010E94842BC601CF
:101AB000B4010E94902A8C014FE1E42EF12CEC0E2F
:101AC000FD1EF30146A157A14F5F5F4F2685378565
:101AD000C701B2010E94222BC801B7010E94902ABF
:101AE000BC018E010F5F1F4FC8010E94672BC70109
:101AF0000E948C2BC6010E94902BC5010E948C2B4A
:101B0000C201B8010E94672BC4010E948C2BC8013E
:101B10000E948C2BA4960FB6F894DEBF0FBECDBFEB
:101B2000CF91DF911F910F91FF90EF90DF90CF90B9
:101B3000BF90AF909F908F907F906F905F904F90ED
:101B400008954F925F926F927F928F929F92AF9281
:101B5000BF92CF92DF92EF92FF920F931F93DF938A
:101B6000CF93CDB7DEB7A4970FB6F894DEBF0FBE04
:101B7000CDBF3C01A62E8E010F5F1F4FC80160E054
:101B800072E00E94C32ACE01079660E072E00E94D4
:101B9000C32A9AE0492E512C460C571CF30126A16A
:101BA00037A18DE0E82EF12CEC0EFD1EC701B2012D
:101BB000A9012D5F3F4F0E94222BC801B7010E944F
:101BC000672BC7010E948C2BEE24FF24C02E012F0F
:101BD000B701660F771F6E0D7F1D660F771F635C61
:101BE0007E4E8C2D902F0E94C029882341F4F6E070
:101BF000EF16F10421F00894E11CF11CE9CFAA20B2
:101C000051F086E0E816F1041CF080E090E00BC093
:101C1000C701019608C0E114F10419F486E090E0D0
:101C200002C0C7010197F7E08F2E912C8C0E9D1EEC
:101C3000BC01660F771F680F791F660F771F635C03
:101C40007E4EC4010E94672B43E1A42EB12CAC0E42
:101C5000BD1EF30126A137A1C501B20140E050E04D
:101C60000E94222B39E1C32ED12CCC0EDD1EC601E1
:101C7000B5010E94842BC601B4010E94902A8C01F8
:101C80002FE1E22EF12CEC0EFD1EF30146A157A12F
:101C90004D5F5F4F26853785C701B2010E94222B19
:101CA000C801B7010E94902ABC018E010F5F1F4F2F
:101CB000C8010E94672BC7010E948C2BC6010E949D
:101CC000902BC5010E948C2BC201B8010E94672B8A
:101CD000C4010E948C2BC8010E948C2BA4960FB6C5
:101CE000F894DEBF0FBECDBFCF91DF911F910F9152
:101CF000FF90EF90DF90CF90BF90AF909F908F902C
:101D00007F906F905F904F9008954F925F926F9287
:101D10007F928F929F92AF92BF92CF92DF92EF927B
:101D2000FF920F931F93DF93CF93CDB7DEB7A497A6
:101D30000FB6F894DEBF0FBECDBF3C01D62E7E019C
:101D40000894E11CF11CC70160E072E00E94C32A04
:101D5000CE01079660E072E00E94C32AAAE04A2EF4
:101D6000512C460C571CF30126A137A18E01035FAD
:101D70001F4FC801B201A9012F5F3F4F0E94222BC4
:101D8000C701B8010E94672BC8010E948C2BC701B4
:101D90000E94DF28DD2049F0693071051CF080E0E9
:101DA00090E00BC0CB01019608C0161617061CF078
:101DB00089E090E002C0CB010197F7E08F2E912CD3
:101DC0008C0E9D1EBC01660F771F680F791F660F72
:101DD000771F6F57704FC4010E94672B43E1A42EF9
:101DE000B12CAC0EBD1EF30126A137A1C501B20175
:101DF00040E050E00E94222B39E1C32ED12CCC0EC2
:101E0000DD1EC601B5010E94842BC601B4010E94EB
:101E1000902A8C012FE1E22EF12CEC0EFD1EF30135
:101E200046A157A14F5F5F4F26853785C701B20195
:101E30000E94222BC801B7010E94902ABC018E018A
:101E40000F5F1F4FC8010E94672BC7010E948C2B98
:101E5000C6010E94902BC5010E948C2BC201B801C3
:101E60000E94672BC4010E948C2BC8010E948C2BFE
:101E7000A4960FB6F894DEBF0FBECDBFCF91DF9111
:101E80001F910F91FF90EF90DF90CF90BF90AF9098
:101E90009F908F907F906F905F904F9008954F929A
:101EA0005F926F927F928F929F92AF92BF92CF92EA
:101EB000DF92EF92FF920F931F93DF93CF93CDB7F3
:101EC000DEB7A4970FB6F894DEBF0FBECDBF3C01BE
:101ED000D62E7E010894E11CF11CC70160E072E07F
:101EE0000E94C32ACE01079660E072E00E94C32AD6
:101EF0004AE0442E512C460C571CF30126A137A171
:101F00008E01035F1F4FC801B201A9012E5F3F4F31
:101F10000E94222BC701B8010E94672BC8010E94B2
:101F20008C2BC7010E94DF28DD2049F06B3371053F
:101F30001CF080E090E00BC0CB01019608C01616A3
:101F400017061CF08BE390E002C0CB01019737E04D
:101F5000832E912C8C0E9D1EBC01660F771F680F7F
:101F6000791F660F771F675E714FC4010E94672B50
:101F700003E1A02EB12CAC0EBD1EF30126A137A1AA
:101F8000C501B20140E050E00E94222B19E1C12EB0
:101F9000D12CCC0EDD1EC601B5010E94842BC601DA
:101FA000B4010E94902A8C01BFE1EB2EF12CEC0EC3
:101FB000FD1EF30146A157A14E5F5F4F2685378571
:101FC000C701B2010E94222BC801B7010E94902ACA
:101FD000BC018E010F5F1F4FC8010E94672BC70114
:101FE0000E948C2BC6010E94902BC5010E948C2B55
:101FF000C201B8010E94672BC4010E948C2BC8014A
:102000000E948C2BA4960FB6F894DEBF0FBECDBFF6
:10201000CF91DF911F910F91FF90EF90DF90CF90C4
:10202000BF90AF909F908F907F906F905F904F90F8
:1020300008954F925F926F927F928F929F92AF928C
:10204000BF92CF92DF92EF92FF920F931F93DF9395
:10205000CF93CDB7DEB7A4970FB6F894DEBF0FBE0F
:10206000CDBF3C01D62E7E010894E11CF11CC701B6
:1020700060E072E00E94C32ACE01079660E072E041
:102080000E94C32ABAE04B2E512C460C571CF30178
:1020900026A137A18E01035F1F4FC801B201A9011C
:1020A0002E5F3F4F0E94222BC701B8010E94672B71
:1020B000C8010E948C2BC7010E94DF28DD2049F057
:1020C000673171051CF080E090E00BC0CB010196F8
:1020D00008C0161617061CF087E190E002C0CB017D
:1020E0000197A7E08A2E912C8C0E9D1EBC01660FD5
:1020F000771F680F791F660F771F6757724FC401EC
:102100000E94672B73E1A72EB12CAC0EBD1EF3010C
:1021100026A137A1C501B20140E050E00E94222B68
:1021200069E1C62ED12CCC0EDD1EC601B5010E9480
:10213000842BC601B4010E94902A8C015FE1E52E38
:10214000F12CEC0EFD1EF30146A157A14E5F5F4F2F
:1021500026853785C701B2010E94222BC801B7012D
:102160000E94902ABC018E010F5F1F4FC8010E9480
:10217000672BC7010E948C2BC6010E94902BC501C2
:102180000E948C2BC201B8010E94672BC4010E94DF
:102190008C2BC8010E948C2BA4960FB6F894DEBF3E
:1021A0000FBECDBFCF91DF911F910F91FF90EF90A8
:1021B000DF90CF90BF90AF909F908F907F906F9067
:1021C0005F904F9008954F925F926F927F928F929F
:1021D0009F92AF92BF92CF92DF92EF92FF920F93B6
:1021E0001F93DF93CF93CDB7DEB7A4970FB6F894C4
:1021F000DEBF0FBECDBF3C01D62E7E010894E11C90
:10220000F11CC70160E072E00E94C32ACE0107966C
:1022100060E072E00E94C32A6AE0462E512C460C10
:10222000571CF30126A137A18E01035F1F4FC80180
:10223000B201A9012F5F3F4F0E94222BC701B801B5
:102240000E94672BC8010E948C2BC7010E94DF28C7
:10225000DD2049F0693071051CF080E090E00BC092
:10226000CB01019608C0161617061CF089E090E015
:1022700002C0CB01019757E0852E912C8C0E9D1E3C
:10228000BC01660F771F680F791F660F771F635BAE
:10229000724FC4010E94672B23E1A22EB12CAC0E19
:1022A000BD1EF30126A137A1C501B20140E050E0F7
:1022B0000E94222B99E1C92ED12CCC0EDD1EC60125
:1022C000B5010E94842BC601B4010E94902A8C01A2
:1022D0008FE1E82EF12CEC0EFD1EF30146A157A173
:1022E0004F5F5F4F26853785C701B2010E94222BC1
:1022F000C801B7010E94902ABC018E010F5F1F4FD9
:10230000C8010E94672BC7010E948C2BC6010E9446
:10231000902BC5010E948C2BC201B8010E94672B33
:10232000C4010E948C2BC8010E948C2BA4960FB66E
:10233000F894DEBF0FBECDBFCF91DF911F910F91FB
:10234000FF90EF90DF90CF90BF90AF909F908F90D5
:102350007F906F905F904F9008954F925F926F9231
:102360007F928F929F92AF92BF92CF92DF92EF9225
:10237000FF920F931F93DF93CF93CDB7DEB7A49750
:102380000FB6F894DEBF0FBECDBF3C01D62E7E0146
:102390000894E11CF11CC70160E072E00E94C32AAE
:1023A000CE01079660E072E00E94C32A0AE0402E48
:1023B000512C460C571CF30126A137A18E01035F57
:1023C0001F4FC801B201A9012E5F3F4F0E94222B6F
:1023D000C701B8010E94672BC8010E948C2BC7015E
:1023E0000E94DF289B0121503040DD2041F02E313A
:1023F00031051CF080E090E00AC0CB0108C0121645
:1024000013061CF08EE190E002C0C901019717E0AD
:10241000812E912C8C0E9D1EBC01660F771F680FBC
:10242000791F660F771F6D56734FC4010E94672B8B
:10243000F3E1AF2EB12CAC0EBD1EF30126A137A1E6
:10244000C501B20140E050E00E94222BE9E1CE2E0E
:10245000D12CCC0EDD1EC601B5010E94842BC60115
:10246000B4010E94902A8C017FE1E72EF12CEC0E42
:10247000FD1EF30146A157A14E5F5F4F26853785AC
:10248000C701B2010E94222BC801B7010E94902A05
:10249000BC018E010F5F1F4FC8010E94672BC7014F
:1024A0000E948C2BC6010E94902BC5010E948C2B90
:1024B000C201B8010E94672BC4010E948C2BC80185
:1024C0000E948C2BA4960FB6F894DEBF0FBECDBF32
:1024D000CF91DF911F910F91FF90EF90DF90CF9000
:1024E000BF90AF909F908F907F906F905F904F9034
:1024F00008954F925F926F927F928F929F92AF92C8
:10250000BF92CF92DF92EF92FF920F931F93DF93D0
:10251000CF93CDB7DEB7E0970FB6F894DEBF0FBE0E
:10252000CDBF3C01D62E7E010894E11CF11CC701F1
:1025300060E072E00E94C32ACE01079660E072E07C
:102540000E94C32A5AE0452E512C460C571CF30119
:1025500026A137A18E01035F1F4FC801B201A90157
:102560002E5F3F4F0E94222BC701B8010E94672BAC
:10257000C8010E948C2B82E594E1B7010E94AE272E
:10258000C7010E94DF284B015C018B010150104004
:1025900082E594E1B8014AE050E00E949A28DD20EB
:1025A00041F00B3011051CF080E090E00AC0C4013E
:1025B00008C0101611061CF08BE090E002C0C801A4
:1025C000019747E0842E912C8C0E9D1EBC01660F56
:1025D000771F680F791F660F771F655B734FC40104
:1025E0000E94672B82E594E1B4010E94AE2782E548
:1025F00094E164E578E00E94B728F30166A177A131
:1026000082E594E14AE050E00E949A2882E594E154
:1026100060E678E00E94B7288E010D5E1F4FF3013F
:1026200026A137A1C801B20140E050E00E94222B50
:1026300082E594E1B8010E947C27C8010E948C2B9E
:1026400082E594E16FE678E00E94B7288E01075E8C
:102650001F4FF30146A157A14E5F5F4F2685378577
:10266000C801B2010E94222B82E594E1B8010E94C8
:102670007C27C8010E948C2B82E594E164EE77E010
:102680000E94B9289FE1A92EB12CAC0EBD1EF3010A
:1026900026A137A1C501B20140E050E00E94222BE3
:1026A00085E2E82EF12CEC0EFD1EC701B5010E945B
:1026B000842BC701B4010E94902A6C018E01055D34
:1026C0001F4FF30146A157A14E5F5F4F2685378507
:1026D000C801B2010E94222BC601B8010E94902AB3
:1026E000BC016E010894C11CD11CC6010E94672B5D
:1026F000C8010E948C2BC7010E94902BC5010E942B
:102700008C2B82E594E164EE77E00E94B72882E5A5
:1027100094E1B2010E947C2782E594E164EE77E0C7
:102720000E94B92882E594E164EE77E00E94B72820
:1027300082E594E1B6010E947C2782E594E164EE93
:1027400077E00E94B928C201B6010E94672B82E59A
:1027500094E164EE77E00E94B72882E594E1B2014B
:102760000E947C2782E594E164EE77E00E94B9281C
:10277000C4010E948C2BC6010E948C2BE0960FB6E0
:10278000F894DEBF0FBECDBFCF91DF911F910F91A7
:10279000FF90EF90DF90CF90BF90AF909F908F9081
:1027A0007F906F905F904F9008958F929F92AF921D
:1027B000BF92CF92DF92EF92FF920F931F93DF931E
:1027C000CF93CDB7DEB7CC5FD0400FB6F894DEBF65
:1027D0000FBECDBF5C01DC01DC90B1E0DB1609F07F
:1027E0003DC6FC01878190858230910509F422C2A3
:1027F0008330910509F42CC4019709F02FC6D50147
:1028000096968D909C9097978091FC0B9091FD0BE4
:102810008330910509F4E8C18430910544F4813096
:10282000910509F4A3C1029709F018C6C1C084300C
:10283000910509F4E8C1059709F010C6EAE0CE2E2B
:10284000D12CCA0CDB1C8E010F5F1F4FC801B601D3
:102850000E947C2BF50146A157A1C80160E20E94AD
:102860004929D50197969C938E939697C8010E940B
:102870008C2BF50126A137A184A195A12817390732
:102880001CF097A286A2EAC58E01095F1F4FC801FE
:10289000B6010E947C2BD50196964D915C9197973D
:1028A000C501B8010E94080AF50197A386A3C801D3
:1028B0000E948C2B82E79BE060E142E020E0F3D7AE
:1028C00082E79BE0EBD782E79BE060E040E0B8D78F
:1028D000B501665C7F4F82E79BE00E947C2782E720
:1028E0009BE060E041E0ACD7D50196962D913C91FC
:1028F0009797F901709694968D919C9195979296E1
:102900004D915C919397E817F9071CF5421753070F
:1029100084F473E1E72EF12CEC0EFD1EC7016CE38D
:102920000E940A2BF50126A137A18E01035F1F4FDC
:10293000DAC069E1E62EF12CEC0EFD1EC701B601EE
:10294000A901215F3F4F0E94222B8E01015E1F4F84
:1029500065C04217530744F55BE2E52EF12CEC0EFF
:10296000FD1EC7016CE30E940A2BD50196962D919E
:102970003C9197978E010B5D1F4FC801B601A901CD
:10298000215F3F4F0E94222BC701B8010E94902A6D
:10299000BC0182E79BE00E947C27C8010E948C2B2F
:1029A000C7010E94902B5AC58E010F5C1F4FD2C0E9
:1029B00082E79BE060E142E020E075D782E79BE0A0
:1029C0006DD782E79BE060E040E03AD7B501665CF6
:1029D0007F4F82E79BE00E947C2782E79BE060E0DC
:1029E00041E02ED7F50126A137A182A193A14AE0AB
:1029F000C42ED12CCA0CDB1C821793070CF107E301
:102A0000E02EF12CEC0EFD1EC701B601A901215FDD
:102A10003F4F0E94222B8E01035C1F4FC801B7015C
:102A20000E94842BC8016EE30E94672ABC0182E7E2
:102A30009BE00E947C27C8010E94902BC701F8C42C
:102A40008E010D5B1F4FC801B6010E947C2BD50182
:102A500096964D915C91979741505040C501B801B1
:102A60000E94F009F50197A386A3C8010E948C2B50
:102A70008E01075B1F4FC801B6010E947C2BD50158
:102A800096964D915C919797C501B8010E94D8091F
:102A90000196F50197A386A3C8010E948C2BD5014E
:102AA00096962D913C919797F901709694968D91F9
:102AB0009C91959792964D915C919397E817F907A1
:102AC0008CF542175307F4F415E5E12EF12CEC0ECA
:102AD000FD1EC7016CE30E940A2BF50126A137A158
:102AE0008E01015B1F4FC801B601A901225F3F4F54
:102AF0000E94222BC701B8010E94902A6EE30E9417
:102B0000672A46CFBBE5EB2EF12CEC0EFD1EC7016C
:102B1000B601A901215F3F4F0E94222B8E010F5960
:102B20001F4F7CCF4217530794F4ADE6EA2EF12CE9
:102B3000EC0EFD1EC7016CE30E940A2BD501969690
:102B40002D913C9197978E0109591F4F16CF8E01F9
:102B50000D581F4FC801B601A9019F010E94222BE9
:102B600082E79BE0B8010E947C2723C2F50191A671
:102B700080A6FAE0EF2EF12CEA0CFB1C8E01075820
:102B80001F4FC801B7010E947C2BD50196964D912D
:102B90005C919797C80160E20E944929F50193A7CB
:102BA00082A7C8010E948C2B8E0101581F4FD501AE
:102BB00098964D915C9199979A962D913C919B97FF
:102BC000C801B7010E94222BC501805C9F4FB8014C
:102BD0000E94672BC8010E948C2BE6E4F0E0AE0E49
:102BE000BF1ED501DC923AC4F50123813481211541
:102BF000310509F433C421503040348323838E01DE
:102C00000B571F4FC4C1D50113962D913C911497BA
:102C100011968D919C9112972817390709F41EC4BB
:102C20002F5F3F4F14963C932E9313978E010557B9
:102C30001F4F62C10091FC0B1091FD0B0530110577
:102C4000E1F5F50126A137A182A193A10E96821785
:102C5000930724F02F5F3F4F37A326A38501045E1F
:102C60001F4FD50196966D917C91979792968D9175
:102C70009C919397681B790BC8010E94CA28FC019C
:102C800080818D3209F0D7C3F50126A137A182A139
:102C900093A10E96821793070CF4CDC32F5F3F4F7D
:102CA00037A326A3DECF21503040240F351FD50196
:102CB00097963C932E939697D1C3F50166A177A181
:102CC00042A153A10230110559F54617570724F4C4
:102CD0006150704077A366A38501045E1F4FD50144
:102CE00096966D917C91979792968D919C919397E2
:102CF000681B790BC8010E94CA28FC0180818D32B3
:102D000009F0ACC3F50126A137A182A193A18217D6
:102D100093070CF0A3C32150304037A326A3DFCF85
:102D2000ECE18E2E912C8A0C9B1C641B750BC4014C
:102D30000E94CA28FC01E081ED3611F5D5011996F3
:102D40008C91882309F08AC30330110529F00430DF
:102D5000110509F030C10AC082E594E166E878E027
:102D60000E94B928C50161E0C4DB25C1C50160E04E
:102D7000C0DB82E594E163E978E00E94B9281BC1D9
:102D8000E436A1F4F5018185882309F067C3033097
:102D9000110529F00430110509F00DC103C0C5016A
:102DA00061E002C0C50160E0D8DA05C1E937A9F4E5
:102DB000D50119968C91882309F050C30330110571
:102DC00029F00430110509F0F6C003C0C50161E027
:102DD00002C0C50160E0F7D9EEC0E136A9F4F50103
:102DE0008185882309F03AC30330110529F00430A6
:102DF000110509F0E0C003C0C50161E002C0C501D2
:102E000060E00E94A10DD7C0E834A9F4D50119965D
:102E10008C91882309F022C30330110529F0043076
:102E2000110509F0C8C003C0C50161E002C0C501B9
:102E300060E0FFD8C0C0ED34A1F4F501818588239E
:102E400009F00CC30330110529F00430110509F015
:102E5000B2C003C0C50161E002C0C50160E01FD877
:102E6000AAC0E332B1F4D50119968C91882309F0F8
:102E7000F5C20330110529F00430110509F09BC09B
:102E800003C0C50161E002C0C50160E00E94850E7B
:102E900092C0E334A9F4F5018185882309F0DEC2EC
:102EA0000330110529F00430110509F084C003C076
:102EB000C50161E002C0C50160E00E94BD0C7BC09D
:102EC000E535B9F50330110529F00430110509F095
:102ED000C5C21EC0D50113962D913C9114972115A2
:102EE000310509F4BBC22150304014963C932E9317
:102EF00013978E010F561F4FC901880F991F820F1C
:102F0000931F880F991F15966D917C91169748C055
:102F1000F50123813481818192812817390709F4D1
:102F20009DC22F5F3F4F348323838E0109561F4F6D
:102F30002EC0E43409F092C20330110529F00430A8
:102F4000110509F08BC213C0D50113962D913C9148
:102F500014972115310509F481C22150304014968F
:102F60003C932E9313978E0103561F4FC5CFF50147
:102F700023813481818192812817390709F46EC237
:102F80002F5F3F4F348323838E010D551F4FC9019F
:102F9000880F991F820F931F880F991F6581768173
:102FA000680F791FC8010E947C2BC501B8010E94DF
:102FB000250AC8013DC28FEAC82ED12CCC0EDD1ED9
:102FC000B501665F7F4FC6010E947C2BC6010E943F
:102FD000F028D50113962D913C911497C901880FC3
:102FE000991F820F931F880F991F15960D911C91A1
:102FF0001697080F191FF9EAEF2EF12CEC0EFD1EA3
:10300000E4E3F0E0AE0EBF1EC701B5010E94842BC1
:10301000C7016CE20E94672AB4010E94902A6CE208
:103020000E94672A26E030E0A20EB31EB5010E947E
:10303000902A6CE20E94672AB6010E94902ABC0185
:10304000C8010E94672BC7010E94902BC601F0C1E6
:10305000EFEA8E2E912C8C0E9D1EC40160E072E072
:103060000E94C32A8091FC0B9091FD0B8330910547
:1030700009F49AC18430910524F4029709F0D5C16E
:1030800028C18430910509F4ACC1059709F0CDC180
:10309000D50196968D919C919797409697969C9383
:1030A0008E93969794962D913C9195972817390772
:1030B00024F497963C932E9396977AE0C72ED12CC2
:1030C000CA0CDB1CF50166A177A1C6010E94CA28C3
:1030D000FC0180818032D1F0D50196966D917C9172
:1030E0009797C6010E94CA28FC018081803209F4AA
:1030F0003FC0F50126A137A182A193A182179307B2
:10310000BCF52150304037A326A3E6CFD5019696D3
:103110006D917C919797C6010E94CA28FC0180811D
:10312000803269F4F50126A137A182A193A182170B
:1031300093072CF42150304037A326A3E7CFD501C5
:1031400096966D917C919797C6010E94CA28FC01C2
:103150008081803269F0F50126A137A182A193A177
:10316000821793072CF42150304037A326A3E7CFD2
:10317000D50196962D913C91979792968D919C9121
:10318000939794964D915C91959728173907D9F5A7
:10319000F90170966FEA862E912C8C0E9D1EE41715
:1031A000F50704F595EBE92EF12CEC0EFD1EC70199
:1031B000B601A901215F3F4F0E94222B8E010554C9
:1031C0001F4FC801B7010E94842BC8016EE30E9403
:1031D000672ABC01C4010E94672BC8010E94902B82
:1031E000C7010EC08E010F531F4FC801B601A901C0
:1031F0009F010E94222BC401B8010E94672BC801C5
:103200000E948C2B53C02F5F3F4FF50137A326A39D
:10321000205F3F4F8FEA882E912C8C0E9D1E241725
:10322000350704F50DECE02EF12CEC0EFD1EC70168
:103230006CE30E940A2BD50196962D913C919797AD
:103240008E0109531F4FC801B601A901225F3F4FEC
:103250000E94222BC701B8010E94902A6EE30E94AF
:10326000672A1AC019EDE12EF12CEC0EFD1EC701E4
:103270006CE30E940A2BF50126A137A18E010D52A5
:103280001F4FC801B601A901215F3F4F0E94222BA9
:10329000C701B8010E94902ABC01C4010E94672B9B
:1032A000C8010E948C2BC7010E94902B82E79BE0F3
:1032B00060E142E020E0F7D282E79BE0EFD282E7D4
:1032C0009BE060E040E0BCD22AE330E0A20EB31EF7
:1032D00059C0D50192962D913C91939797963C9326
:1032E0002E939697F901709694968D919C9195974F
:1032F000BAE0CB2ED12CCA0CDB1CE817F90704F579
:10330000AFEDEA2EF12CEC0EFD1EC701B601A901AE
:10331000215F3F4F0E94222B8E010B511F4FC8018E
:10332000B7010E94842BC8016EE30E94672ABC018A
:10333000C4010E94672BC8010E94902BC7010EC0D8
:103340008E0105511F4FC801B601A9019F010E94BE
:10335000222BC401B8010E94672BC8010E948C2B4C
:1033600082E79BE060E142E020E09DD282E79BE0C3
:1033700095D282E79BE060E040E062D2EAE3F0E0D1
:10338000AE0EBF1E82E79BE0B5010E947C2782E75C
:103390009BE060E041E054D282E79BE0BE016155D2
:1033A0007F4F0E947C2741C0D50113962D913C91FF
:1033B000149721153105C9F12150304014963C93E2
:1033C0002E9313978E010F501F4FC901880F991F1D
:1033D000820F931F880F991F15966D917C911697F8
:1033E00018C0F50123813481818192812817390722
:1033F000E1F02F5F3F4F348323838E0109501F4F2D
:10340000C901880F991F820F931F880F991F65812B
:103410007681680F791FC8010E947C2BC501B80115
:103420000E94250AC8010E948C2BCE0181559F4F16
:103430000E948C2B13C0D50192964D915C9193976D
:1034400090962D913C91919796968D919C919797FE
:10345000841B950B8217930708F025CCC450DF4FCF
:103460000FB6F894DEBF0FBECDBFCF91DF911F9195
:103470000F91FF90EF90DF90CF90BF90AF909F9013
:103480008F900895EF92FF920F931F93DF93CF9346
:10349000CDB7DEB7E0970FB6F894DEBF0FBECDBF55
:1034A00084EB9AE03AD38091F90B813061F4109269
:1034B000F90B6091FC0B7091FD0B6115710519F012
:1034C00084E09CE072D980914A0C813009F0F2C00E
:1034D00082E39CE06CE478E00E946A29882309F486
:1034E00066C088E39CE062EA78E00E946A2988234B
:1034F00009F44FC082E594E168EA78E00E94B728B9
:1035000082E594E164E47CE00E947C2782E594E11A
:1035100064EE77E00E94B92884E49CE06BEB78E0ED
:103520000E946A29882391F07E010894E11CF11C15
:10353000C7016FEB78E00E94C32A84E09CE060E062
:10354000A70125E030E001EB1BE0A2C084E49CE091
:1035500069EC78E00E946A29882329F082E594E1E9
:1035600065ED78E00CC084E49CE063EF78E00E94B5
:103570006A29882339F082E594E16FEF78E00E94B0
:10358000B92898C08E01095F1F4FC8016DE179E02D
:1035900089C08E01035F1F4FC8016BE579E00E946F
:1035A000C32AC8010E942B08C8010E948C2B82E309
:1035B0009CE06FEB78E00E946A29882309F46CC0D4
:1035C00082E594E168E37CE00E94AE2788E39CE01A
:1035D00062E979E00E946A298823D1F184E49CE0C1
:1035E00069E979E00E946A29882339F082E594E14B
:1035F00060EA79E00E94B92839C084E49CE069EB74
:1036000079E00E946A298823E1F082E594E160EC88
:1036100079E00E94B928A3E1EA2EF12CEC0EFD1E00
:10362000C7016CE478E00E94C32A84E09CE061E07A
:10363000A70124E030E009E91BE00E94ED0BC7017F
:1036400013C08E01075E1F4FC80169ED79E006C007
:103650008E01015E1F4FC8016CE17AE00E94C32A0F
:10366000C8010E942B08C8010E948C2BF5E2EF2EA6
:10367000F12CEC0EFD1EC7016CE478E00E94C32A19
:1036800084E09CE061E0A70124E030E009E91BE070
:103690000E94ED0BC7010CC08E01055D1F4FC801D4
:1036A00062E57AE00E94C32AC8010E942B08C80183
:1036B0000E948C2B10924A0CE0960FB6F894DEBF55
:1036C0000FBECDBFCF91DF911F910F91FF90EF9073
:1036D00008958FEA91E16DC30F931F938C01FC0154
:1036E000868160E0E4D681E090E08ED5F8018681A5
:1036F00061E0DDD681E090E087D5F801868160E069
:10370000D6D684E690E080D51F910F910895CF9290
:10371000DF92EF92FF920F931F93CF93DF93D82EF8
:10372000C92E282F392FC9018C01C0E0D0E0E62E28
:10373000FF24F801878161E007D6B7010C2E02C093
:10374000759567950A94E2F76170F8018781AFD6A5
:1037500021960F5F1F4FC830D10559F78D2D9C2D35
:10376000BBDFDF91CF911F910F91FF90EF90DF9022
:10377000CF900895CF92DF92EF92FF920F931F9315
:10378000CF93DF93D82EC92E282F392FC9018C0152
:10379000C0E0D0E0E62EFF24F801878161E0D4D5B7
:1037A000B7010C2E02C0759567950A94E2F7617017
:1037B000F80187817CD621960F5F1F4FC430D10559
:1037C00059F78D2D9C2D88DFDF91CF911F910F919F
:1037D000FF90EF90DF90CF9008951F93CF93DF93EA
:1037E000EC01162F8C81642F62D68D818F3F11F0F2
:1037F00060E05DD68F8584FF04C0CE01612F87DF36
:103800000CC0612F70E084E0759567958A95E1F7AB
:10381000CE01B0DFCE01612FADDFDF91CF911F91DF
:10382000089541E0DADF81E090E0089540E0D5CFEF
:10383000FC016089862F8460808B6C60CF01F6CF9D
:10384000DF93CF93CDB7DEB728970FB6F894DEBFDE
:103850000FBECDBF9C01FE013196ABE8BAE088E017
:103860000D9001928150E1F7F9018389481710F01A
:10387000482F4150E42FF0E0EE0FFF1FEC0FFD1F2B
:103880008181680F6068C901D1DF28960FB6F8946E
:10389000DEBF0FBECDBFCF91DF91089561E0C6DFDF
:1038A00080ED97E0B1C4CF93DF93EC01423018F084
:1038B0008F8588608F874B8B1C8A222329F04130AB
:1038C00019F48F8584608F8780E593EC9DD48C817B
:1038D00060E0EDD58E8160E0EAD58D818F3F11F0FB
:1038E00060E0E5D56F8564FD16C0CE0163E042DF80
:1038F00084E991E189D4CE0163E03CDF84E991E180
:1039000083D4CE0163E036DF86E990E07DD4CE013A
:1039100062E030DF11C06062CE0188DF84E991E1AE
:1039200073D46F856062CE0181DF86E990E06CD44C
:103930006F856062CE017ADF6F856062CE0176DFCF
:1039400084E0888BCE0174DFCE01A8DF82E0898B12
:10395000CE0166E06BDFDF91CF9108956F927F9289
:103960008F92AF92CF92EF920F931F93DF93CF93EB
:10397000CDB7DEB73C01162F842FF3014483258396
:103980000683E782C086A18682869E8593879F856F
:103990009487988995879989968761E0D5D4F301B2
:1039A00085818F3F11F061E0CFD4F301868161E022
:1039B000CBD4112319F0F301178603C080E1F30182
:1039C0008787C30160E141E020E06DDFCF91DF91A7
:1039D0001F910F91EF90CF90AF908F907F906F904D
:1039E00008958F92AF92CF92EF920F931F93CF9340
:1039F000DF93DC01362F542F722F102FAE2C8C2C1E
:103A000013961C921E92129787E89AE011969C9347
:103A10008E9300D00F92EDB7FEB73196CDB7DEB7DB
:103A20001982118212821382CD0161E0432F2FEFA0
:103A3000052FE72EC12E92DF0F900F900F900F9061
:103A4000DF91CF911F910F91EF90CF90AF908F901A
:103A50000895FC0110820895EF92FF920F931F9337
:103A6000CF93DF93EC01C2D37B018C018B859C85C6
:103A7000AD85BE85A8019701281B390B4A0B5B0B4E
:103A800089819A81AB81BC81281739074A075B0776
:103A9000E8F08881813019F0823079F406C0E98538
:103AA000FA8589899A89199508C060E088858823F4
:103AB00009F461E068878F81FAD4EB86FC860D8774
:103AC0001E878F8598890196988B8F872D813E81DF
:103AD00037FD06C08F859889821793070CF01882EE
:103AE000DF91CF911F910F91FF90EF900895AC015E
:103AF0006A3088F4262F332727FD309583E190E044
:103B0000289FF001299FF00D389FF00D1124E40F3C
:103B1000F51F10826EEF862F0895CF92DF92EF92FD
:103B2000FF920F931F93CF93DF937C018C01C0E032
:103B3000D0E083E1C82ED12CF8018081882351F098
:103B4000CC9DC001CD9D900DDC9D900D11248E0D5E
:103B50009F1D82DF21960D5E1F4FCA30D10561F790
:103B6000DF91CF911F910F91FF90EF90DF90CF9059
:103B70000895AF92BF92CF92DF92EF92FF920F9390
:103B80001F93CF93DF93DC016901E8015701FC012A
:103B9000FF248081882341F0F39473968AE0F8161D
:103BA000C1F7FF24FA9424C02F2D332727FD309529
:103BB00083E190E0289F8001299F100D389F100D10
:103BC00011240A0F1B1F81E0F80180834183528377
:103BD00063837483D683C583D286C18607D3F801F5
:103BE0006387748785879687108A1786B28AA18A29
:103BF0008F2DDF91CF911F910F91FF90EF90DF906C
:103C0000CF90BF90AF900895EF92FF920F931F93C4
:103C1000780101E010E0ADDF1F910F91FF90EF9070
:103C20000895EF92FF920F931F9378010FEF1FEF0C
:103C3000A0DF1F910F91FF90EF9008950F931F93B6
:103C4000CF93DF93EC0100E010E0CE01800F911FD5
:103C500000DF0D5E1F4F0E3B1105B9F7DF91CF91CD
:103C60001F910F91089520918B1130E080918A115E
:103C7000281B3109C901089540918A1180918B1147
:103C8000481718F02FEF3FEF0AC0E42FF0E0E65995
:103C9000FE4E8081282F30E04F5F40938A11C9018A
:103CA0000895E0918A1180918B11E81718F0EFEFD9
:103CB000FFEF06C0F0E0E659FE4E8081E82FF0E00D
:103CC000CF01089508951092B2111092B11188EEAB
:103CD00093E0A0E0B0E08093B3119093B411A0936F
:103CE000B511B093B61187E99AE09093B011809323
:103CF000AF110895CF92DF92EF92FF920F931F932F
:103D0000CF93DF937C016B018A018091AE118823F0
:103D1000A1F0C0E0D0E00DC0D701ED91FC91D6013B
:103D2000AC0FBD1F0190F081E02DC7016C9119957A
:103D30002196C017D10780F303C0CB01642F42D076
:103D4000C801DF91CF911F910F91FF90EF90DF900D
:103D5000CF900895DF93CF930F92CDB7DEB7FC01DC
:103D600069838091AE118823C9F08091AD118032B2
:103D700038F081E090E09383828320E030E014C04B
:103D80008091AC11E82FF0E0E457FE4E99819083CA
:103D90008F5F8093AC118093AD1104C0CE0101966A
:103DA00061E010D021E030E0C9010F90CF91DF91A8
:103DB000089510928A1110928B111092AC111092EA
:103DC000AD11B0C1482F613210F081E008958091AB
:103DD000BB11843011F082E0089560930612A5EEC5
:103DE000B1E1842F9C01F90102C081918D938E2F46
:103DF000841B8617D0F380E008951F920F920FB6B0
:103E00000F920BB60F9211242F933F934F935F9312
:103E10006F937F938F939F93AF93BF93EF93FF9392
:103E20008091B90090E0887F90708036910509F408
:103E3000F2C081369105CCF58832910509F47BC03A
:103E400089329105B4F48031910509F46FC0813154
:103E500091053CF4009709F447C1089709F04FC158
:103E600065C08831910509F466C0809709F047C1A3
:103E700082C08034910509F4A4C08134910544F4D2
:103E80008033910509F482C0C89709F038C189C010
:103E90008035910509F489C08835910509F496C0EB
:103EA0008834910509F02BC1AEC08839910509F419
:103EB00013C189399105ECF48837910509F4ABC039
:103EC000893791054CF48836910509F4A4C08037F0
:103ED000910509F014C19FC08838910509F4FCC010
:103EE0008039910509F49DC08038910509F007C11A
:103EF00098C0803B910509F4C6C0813B91054CF404
:103F0000803A910509F49FC0883A910509F0F7C0FD
:103F1000BAC0803C910509F4E3C0883C910509F4DE
:103F2000DFC0883B910509F0EAC0C2C08091BC1196
:103F30008093BB00CFC09091E3118091E41198175A
:103F400068F49091E311E92FF0E0ED53FE4E80818B
:103F50008093BB009F5F9093E311BCC08091BD1123
:103F6000882309F44BC085ED8093BC008091BC0090
:103F700084FDFCCFC2C080E28093281285ED80933F
:103F8000BC008091BC0084FDFCCFB7C080E380936F
:103F9000281285ED8093BC008091BC0084FDFCCF8D
:103FA000ACC088E3809328129BC08091E31190916C
:103FB000BB00E82FF0E0ED53FE4E90838F5F8093BF
:103FC000E3119091E3118091E41182C08091E3119B
:103FD0009091BB00E82FF0E0ED53FE4E90838F5F91
:103FE0008093E3118091BD11882341F085ED80938A
:103FF000BC008091BC0084FDFCCF7FC081E0809339
:10400000BE1184EA6EC085ED8093BC008091BC0037
:1040100084FDFCCF72C083E08093BB111092271205
:1040200059C080912712803208F056C08091271223
:104030009091BB00E82FF0E0E95FFD4E90838F5F29
:104040008093271247C080912712803230F4E0918C
:104050002712F0E0E95FFD4E108285ED8093BC00F1
:104060008091BC0084FDFCCF1092BB11609127129F
:10407000E091C111F091C21187E092E170E01995D1
:10408000109227122DC084E08093BB11109205126C
:1040900010920612E091BF11F091C0111995809114
:1040A0000612882329F481E0809306121092E5110C
:1040B00090910512E92FF0E0EB51FE4E8081809344
:1040C000BB009F5F9093051290910512809106129C
:1040D000981710F485EC01C085E88093BC000FC0F0
:1040E00085EC8093BC0009C01092281285ED809366
:1040F000BC008091BC0084FDFCCF1092BB11FF91ED
:10410000EF91BF91AF919F918F917F916F915F914F
:104110004F913F912F910F900BBE0F900FBE0F90BC
:104120001F9018951092BB1181E08093BD111092E1
:10413000BE1184E161E0BBD185E161E0B8D1E9EB7A
:10414000F0E080818E7F808380818D7F808388E412
:104150008093B80085E48093BC0008951F920F926D
:104160000FB60F9211242F933F938F939F93AF938A
:10417000BF9380912D1290912E12A0912F12B09189
:104180003012309131120196A11DB11D232F2D5FE8
:104190002D3720F02D570196A11DB11D209331120E
:1041A00080932D1290932E12A0932F12B093301261
:1041B0008091291290912A12A0912B12B0912C1269
:1041C0000196A11DB11D8093291290932A12A093EC
:1041D0002B12B0932C12BF91AF919F918F913F9171
:1041E0002F910F900FBE0F901F9018958FB7F894D6
:1041F00020912D1230912E1240912F125091301299
:104200008FBFB901CA010895019739F0880F991F2E
:10421000880F991F02970197F1F70895789484B554
:10422000826084BD84B5816084BD85B5826085BDB2
:1042300085B5816085BDEEE6F0E080818160808398
:10424000E1E8F0E01082808182608083808181607B
:104250008083E0E8F0E0808181608083E1EBF0E042
:10426000808184608083E0EBF0E0808181608083E6
:10427000E1E9F0E0808182608083808181608083D9
:10428000E0E9F0E0808181608083E1EAF0E0808114
:1042900082608083808181608083E0EAF0E08081B9
:1042A00081608083E1E2F1E08081826080838081AF
:1042B00081608083E0E2F1E0808181608083EAE7D1
:1042C000F0E080818460808380818260808380814F
:1042D000816080838081806880831092C10008950E
:1042E000382F863308F0365320917B00832F869534
:1042F0008695869590E08170907043E0880F991FB5
:104300004A95E1F7277F282B20937B003770809117
:104310007C0A8295880F880F807C832B80937C0099
:1043200080917A00806480937A0080917A0086FD83
:10433000FCCF2091780040917900942F80E030E00C
:10434000282B392BC9010895CF93DF93482F50E0D4
:10435000CA0188589E4FFC0134914E5C5E4FFA01B1
:104360008491882369F190E0880F991FFC01EC513A
:10437000FF4FA591B491FC01E250FF4FC591D4913C
:10438000662351F42FB7F8948C91932F909589233D
:104390008C93888189230BC0623061F42FB7F89425
:1043A0008C91932F909589238C938881832B88837C
:1043B0002FBF06C09FB7F8948C91832B8C939FBF1F
:1043C000DF91CF910895893009F449C08A30A0F473
:1043D000843051F1853040F4823079F1833000F53A
:1043E000813009F063C026C0873079F1883098F5B4
:1043F000863009F05BC025C08D3009F442C08E3094
:1044000028F48B30B1F18C30C0F52DC0803109F427
:1044100042C0813109F445C08F3009F047C037C030
:10442000809180008F7703C0809180008F7D809382
:104430008000089584B58F7702C084B58F7D84BDD8
:1044400008958091B0008F7703C08091B0008F7D78
:104450008093B0000895809190008F7707C080917D
:1044600090008F7D03C080919000877F80939000A3
:1044700008958091A0008F7707C08091A0008F7D64
:1044800003C08091A000877F8093A0000895809151
:1044900020018F7703C0809120018F7D80932001C0
:1044A000089580912001877F809320010895FF92D5
:1044B0000F931F93F62E482F50E0CA0182549E4F4F
:1044C000FC012491CA0188589E4FFC0114914E5C56
:1044D0005E4FFA0104910023C1F0222311F0822FD4
:1044E00072DFE02FF0E0EE0FFF1FE250FF4FA591CB
:1044F000B4919FB7F894FF2021F48C9110958123FB
:1045000002C08C91812B8C939FBF1F910F91FF90C4
:10451000089508951F920F920FB60F920BB60F9247
:1045200011242F933F934F938F939F93EF93FF9378
:104530008091C00082FD1DC04091C6002091721282
:10454000309173122F5F3F4F2F7330708091741230
:10455000909175122817390771F0E0917212F0915D
:104560007312EE5CFD4E40833093731220937212EF
:1045700002C08091C600FF91EF919F918F914F9162
:104580003F912F910F900BBE0F900FBE0F901F9079
:10459000189508951F920F920FB60F920BB60F92B7
:1045A00011242F933F934F938F939F93EF93FF93F8
:1045B0008091C80082FD1DC04091CE002091FA126A
:1045C0003091FB122F5F3F4F2F7330708091FC12A0
:1045D0009091FD122817390771F0E091FA12F091CD
:1045E000FB12E654FD4E40833093FB122093FA12E7
:1045F00002C08091CE00FF91EF919F918F914F91DA
:104600003F912F910F900BBE0F900FBE0F901F90F8
:10461000189508951F920F920FB60F920BB60F9236
:1046200011242F933F934F938F939F93EF93FF9377
:104630008091D00082FD1DC04091D6002091821350
:10464000309183132F5F3F4F2F733070809184130D
:10465000909185132817390771F0E0918213F0913A
:104660008313EE5BFC4E40833093831320938213BD
:1046700002C08091D600FF91EF919F918F914F9151
:104680003F912F910F900BBE0F900FBE0F901F9078
:10469000189508951F920F920FB60F920BB60F92B6
:1046A00011242F933F934F938F939F93EF93FF93F7
:1046B0008091300182FD1DC04091360120910A1485
:1046C00030910B142F5F3F4F2F73307080910C147B
:1046D00090910D142817390771F0E0910A14F091A8
:1046E0000B14E653FC4E408330930B1420930A14B2
:1046F00002C080913601FF91EF919F918F914F9170
:104700003F912F910F900BBE0F900FBE0F901F90F7
:104710001895E0915E14F0915F14E05CFF4F819179
:10472000919120813181805C9F4F821B930B60E4CB
:1047300070E00E94C52D892B09F0EBDEE09180141A
:10474000F0918114E05CFF4F819191912081318142
:10475000805C9F4F821B930B60E470E00E94C52D2C
:10476000892B09F016DFE091A214F091A314E05C0C
:10477000FF4F8191919120813181805C9F4F821BFD
:10478000930B60E470E00E94C52D892B09F041DF96
:10479000E091C414F091C514E05CFF4F81919191B8
:1047A00020813181805C9F4F821B930B60E470E01D
:1047B0000E94C52D892B09F06CCF08951F920F928E
:1047C0000FB60F920BB60F9211242F933F938F9336
:1047D0009F93EF93FF932091B6123091B71280917F
:1047E000B8129091B9122817390731F48091C1009D
:1047F0008F7D8093C10014C0E091B812F091B9127E
:10480000EA58FD4E20818091B8129091B91201961C
:104810008F7390709093B9128093B8122093C60052
:10482000FF91EF919F918F913F912F910F900BBE30
:104830000F900FBE0F901F9018951F920F920FB6FA
:104840000F920BB60F9211242F933F938F939F9348
:10485000EF93FF9320913E1330913F1380914013CB
:10486000909141132817390731F48091C9008F7D49
:104870008093C90014C0E0914013F0914113E250BD
:10488000FD4E2081809140139091411301968F73CA
:10489000907090934113809340132093CE00FF912A
:1048A000EF919F918F913F912F910F900BBE0F90A1
:1048B0000FBE0F901F9018951F920F920FB60F9278
:1048C0000BB60F9211242F933F938F939F93EF93E7
:1048D000FF932091C6133091C7138091C813909114
:1048E000C9132817390731F48091D1008F7D809347
:1048F000D10014C0E091C813F091C913EA57FC4EDF
:1049000020818091C8139091C91301968F73907084
:104910009093C9138093C8132093D600FF91EF9111
:104920009F918F913F912F910F900BBE0F900FBED3
:104930000F901F9018951F920F920FB60F920BB603
:104940000F9211242F933F938F939F93EF93FF9395
:1049500020914E1430914F14809150149091511425
:104960002817390731F4809131018F7D809331010F
:1049700014C0E0915014F0915114E25FFB4E20817D
:10498000809150149091511401968F739070909370
:1049900051148093501420933601FF91EF919F9111
:1049A0008F913F912F910F900BBE0F900FBE0F90E4
:1049B0001F901895AF92BF92DF92EF92FF920F93E4
:1049C0001F93CF93DF93EC017A018B01DD244030FC
:1049D00081EE580780E0680780E0780711F0DD2459
:1049E000D39491E0A92EB12CEC89FD89DD2069F0EA
:1049F000C50108A002C0880F991F0A94E2F78083BE
:104A000060E079E08DE390E005C0108260E874E832
:104A10008EE190E0A80197010E94D82D21503040EE
:104A200040405040569547953795279580E1203076
:104A3000380720F0DD2011F0DD24D6CFE889F98990
:104A40003083EA89FB89208319A2EE89FF8940819E
:104A500021E030E0C9010C8C02C0880F991F0A9434
:104A6000E2F7482B4083EE89FF894081C9010D8C14
:104A700002C0880F991F0A94E2F7482B4083EE8901
:104A8000FF894081C9010E8C02C0880F991F0A94CA
:104A9000E2F7482B4083EE89FF8980810F8C02C0AA
:104AA000220F331F0A94E2F7209528232083DF91F9
:104AB000CF911F910F91FF90EF90DF90BF90AF903B
:104AC0000895DC011C96ED91FC911D97E05CFF4F71
:104AD0008191919120813181805C9F4F821B930B4A
:104AE00060E470E00C94C52DDC011C96ED91FC9106
:104AF0001D97E05CFF4F20813181E054F040DF01E1
:104B0000AE5BBF4F8D919C9111972817390719F40F
:104B10002FEF3FEF07C08D919C91E80FF91F808127
:104B2000282F30E0C9010895DC011C96ED91FC911D
:104B30001D97E05CFF4F20813181E054F040DF01A0
:104B4000AE5BBF4F8D919C9111972817390719F4CF
:104B50002FEF3FEF10C08D919C911197E80FF91F37
:104B600020818D919C91119701968F739070119671
:104B70009C938E9330E0C9010895DC0191968C914D
:104B80009197882339F05496ED91FC915597808147
:104B900086FFF9CF91961C920895CF93DF93EC0195
:104BA000EE85FF85E05CFF4F20813181E054F040CD
:104BB0002F5F3F4F2F733070DF01AE5BBF4F8D9182
:104BC0009C91119728173907D1F3E05CFF4F808142
:104BD0009181E054F040E80FF91F6083EE85FF8576
:104BE000E05CFF4F31832083EE89FF89208181E0E3
:104BF00090E00F8C02C0880F991F0A94E2F7282BCF
:104C0000208381E089A3EC89FD8980818064808391
:104C100081E090E0DF91CF9108951F931092551499
:104C20001092541428EE33E040E050E020935614E4
:104C300030935714409358145093591467EA7AE00C
:104C4000709353146093521482E392E190935F1433
:104C500080935E1486E792E19093611480936014D0
:104C600085EC90E0909363148093621484EC90E060
:104C7000909365148093641480EC90E09093671493
:104C80008093661481EC90E090936914809368148B
:104C900082EC90E090936B1480936A1486EC90E021
:104CA00090936D1480936C1414E010936E14B3E021
:104CB000B0936F14A7E0A0937014F5E0F093711413
:104CC000E1E0E0937214109277141092761420931E
:104CD00078143093791440937A1450937B14709322
:104CE0007514609374148AEB92E19093811480930D
:104CF00080148EEF92E190938314809382148DEC54
:104D000090E090938514809384148CEC90E09093C1
:104D100087148093861488EC90E090938914809394
:104D2000881489EC90E090938B1480938A148AEC19
:104D300090E090938D1480938C148EEC90E090937F
:104D40008F1480938E1410939014B0939114A093A9
:104D50009214F0939314E093941410929914109277
:104D6000981420939A1430939B1440939C1450935E
:104D70009D14709397146093961482E493E190933A
:104D8000A3148093A21486E893E19093A5148093D2
:104D9000A41485ED90E09093A7148093A61484ED5D
:104DA00090E09093A9148093A81480ED90E09093E4
:104DB000AB148093AA1481ED90E09093AD1480938E
:104DC000AC1482ED90E09093AF148093AE1486ED16
:104DD00090E09093B1148093B0141093B214B093F8
:104DE000B314A093B414F093B514E093B6141092D6
:104DF000BB141092BA142093BC143093BD1440938A
:104E0000BE145093BF147093B9146093B8148AEC15
:104E100093E19093C5148093C4148EE094E1909331
:104E2000C7148093C61485E391E09093C9148093CE
:104E3000C81484E391E09093CB148093CA1480E368
:104E400091E09093CD148093CC1481E391E0909302
:104E5000CF148093CE1482E391E09093D114809389
:104E6000D01486E391E09093D3148093D2141093DE
:104E7000D414B093D514A093D614F093D714E09320
:104E8000D8141F9108950895CF93DF93C7D9FBDFFE
:104E90000E943C0CC9E8D3E20E94421A2097E1F339
:104EA00038DCFACFCF92DF92EF92FF920F931F93ED
:104EB000CF93DF937C016B018A01C0E0D0E00FC08B
:104EC000D6016D916D01D701ED91FC910190F081BA
:104ED000E02DC7011995C80FD91F015010400115C9
:104EE000110571F7CE01DF91CF911F910F91FF90C6
:104EF000EF90DF90CF900895CF93DF93FB01EC010B
:104F0000A881B98160817181448155811296ED91AA
:104F1000FC9113971995DF91CF910895EF92FF922D
:104F20000F931F938C01DC01ED91FC910190F081B6
:104F3000E02D6DE019957C01D801ED91FC91019077
:104F4000F081E02DC8016AE019959C012E0D3F1DEE
:104F5000C9011F910F91FF90EF900895EF92FF927A
:104F60000F931F937C01C8DF8C01C701D7DF9C0121
:104F7000200F311FC9011F910F91FF90EF900895ED
:104F8000CF93DF93EC016115710519F420E030E057
:104F90000FC0DB010D900020E9F71197A61BB70B9E
:104FA000E881F9810280F381E02DAD0119959C0122
:104FB000C901DF91CF9108954F925F927F928F92B6
:104FC0009F92AF92BF92CF92DF92EF92FF920F9398
:104FD0001F93DF93CF93CDB7DEB7A1970FB6F894A9
:104FE000DEBF0FBECDBF2C01742ECB01223008F4E2
:104FF0002AE019A231E2C32ED12CCC0EDD1E822E66
:105000009924AA24BB24672D752FA5019401D0D51E
:1050100079018A01C801B701A501940197D5472DEF
:10502000461B0894C108D1084A3014F4405D01C001
:10503000495CF6014083E114F1040105110521F0FA
:105040007E2C5F2DC801DFCFC201B60199DFA1968A
:105050000FB6F894DEBF0FBECDBFCF91DF911F9189
:105060000F91FF90EF90DF90CF90BF90AF909F9007
:105070008F907F905F904F900895DC01211531054E
:1050800041F4ED91FC910190F081E02D642F199590
:10509000089592CFEF92FF920F931F937C01EDDF63
:1050A0008C01C7013BDF9C01200F311FC9011F91FB
:1050B0000F91FF90EF900895CF92DF92EF92FF92C1
:1050C0000F931F93CF93DF93EC016A017B012115AE
:1050D000310541F4E881F9810190F081E02D642FE0
:1050E00019951DC02A303105C9F477FF16C0E88133
:1050F000F9810190F081E02D6DE219958C01442732
:105100005527BA014C195D096E097F09CE012AE0C5
:1051100053DF9801280F391F03C02AE04DDF9C019F
:10512000C901DF91CF911F910F91FF90EF90DF9018
:10513000CF900895CF92DF92EF92FF920F931F933B
:105140006C017B019A010027F7FC0095102FB80134
:10515000A701B2DF8C01C601E1DE080F191FC801EB
:105160001F910F91FF90EF90DF90CF90089508CF9F
:105170000895EF92FF920F931F937C0101DF8C0142
:10518000C701CCDE080F191FC8011F910F91FF90B6
:10519000EF900895FC019B01848195816817790740
:1051A00028F4608171816115710529F41092DA1477
:1051B0006AED74E102C0620F731FCB010895FC0118
:1051C00080819181009729F420E030E040E050E0B8
:1051D00004C00E9435019B01AC01B901CA010895C8
:1051E000CF92DF92EF92FF920F931F93CF93DF93B3
:1051F0006C01DC01ED90FC901197E114F10409F4CD
:105200003FC01496CD91DC9115972097C9F1870185
:1052100002C00F5F1F4FF8018081992787FD90958D
:1052200003D5892BB1F72197CE0DDF1D01C0219742
:105230008881992787FD9095F7D4892B19F0C0179D
:10524000D107A8F7FE013196E01BF10BD6011596A8
:10525000FC93EE9314972D913C912017310728F47D
:10526000C901B801AF010E945B01D601ED91FC912B
:10527000119714968D919C911597E80FF91F108244
:10528000DF91CF911F910F91FF90EF90DF90CF9022
:105290000895CF93DF93FC018481958148175907C6
:1052A00068F4C081D181772767FD7095CE01840FA6
:1052B000951F0E9464019C01009719F42FEF3FEFA6
:1052C00002C02C1B3D0BC901DF91CF91089540E036
:1052D00050E0DFCFDC01FB0114968D919C91159776
:1052E000892B31F461157105A9F090E0808108C027
:1052F0000D90BC91A02D6115710529F490E08C9161
:10530000882349F407C0CD010E946F019C0190E001
:10531000232B09F491E0892F0895CF93DF939C010B
:10532000FB01EC01A881B981109729F0608171819E
:1053300061157105D1F4C081D181209759F0848124
:105340009581892B39F0888190E022273327281B0B
:10535000390B12C0109771F0F90184819581892B66
:1053600049F08C91282F30E007C0CD010E946F01D9
:105370009C0102C020E030E0C901DF91CF91089587
:10538000FC01DB012481358114968D919C91159748
:105390002817390711F020E006C0CF01BEDF20E05A
:1053A000892B09F421E0822F08950F931F93CF9347
:1053B000DF93EC018B016F5F7F4F88819981E9D288
:1053C000009711F480E005C0998388831B830A83CA
:1053D00081E0DF91CF911F910F910895CF93DF93DB
:1053E000EC0188819981892B29F08A819B8186171C
:1053F000970758F4CE01D9DF882341F08C819D8135
:10540000892B19F4E881F981108281E0DF91CF9135
:105410000895EF92FF920F931F93CF93DF93EC01C8
:105420007B016C817D81E114F104B9F041155105D6
:1054300091F08A01060F171FB801D0DF882369F0A9
:10544000888199812C813D81820F931FB7010E9431
:1054500078011D830C8381E001C080E0DF91CF9152
:105460001F910F91FF90EF900895DF93CF930F92CC
:105470000F92CDB7DEB769831A82BE016F5F7F4F8F
:1054800041E050E0C6DF0F900F90CF91DF9108957B
:105490006115710511F480E00895DB010D90002085
:1054A000E9F71197A61BB70BAD01B3CFCF93DF93ED
:1054B000EC0188819981009709F0D3D11982188273
:1054C0001D821C821B821A82DF91CF9108950F9357
:1054D0001F93182F092FC9DF882319F4812F902FCC
:1054E000E5DF812F902F1F910F9108950F931F9348
:1054F000182F092F6115710559F0DB010D9000205F
:10550000E9F71197A61BB70BAD0183DF882319F4C8
:10551000812F902FCBDF812F902F1F910F91089516
:105520000F931F93182F092FFB0160817181448114
:1055300055816FDF882319F4812F902FB7DF812FDA
:10554000902F1F910F910895EF92FF920F931F9349
:10555000CF93DF93EC017B018A01BA013FDF8823FF
:1055600019F4CE01A3DF07C01D830C8388819981C4
:10557000B7010E947801CE01DF91CF911F910F9169
:10558000FF90EF900895CF93DF93EC01198218827A
:105590001B821A821D821C826115710549F0DB0194
:1055A0000D900020E9F71197A61BB70BAD01CCDFDA
:1055B000DF91CF910895CF93DF93EC011982188288
:1055C0001B821A821D821C826115710549F0DB0164
:1055D0000D900020E9F71197A61BB70BAD01B4DFC2
:1055E000DF91CF9108950F931F93182F092F611505
:1055F000710551F0DB010D900020E9F71197A61B12
:10560000B70BAD01A1DF01C051DF812F902F1F919A
:105610000F910895DF93CF930F920F92CDB7DEB71E
:10562000FC01118210821382128215821482698316
:105630001A82BE016F5F7F4FD6DF0F900F90CF9120
:10564000DF910895BF92CF92DF92EF92FF920F9376
:105650001F93CF93DF93082FB92E6B017A01E901D5
:105660002417350710F4EA017901802F9B2D6AE792
:105670007AE089DFD60114968D919C9115978E154D
:105680009F05C8F08C179D0708F4EC01D601ED9139
:10569000FC911197EC0FFD1F108110826D917C9190
:1056A0006E0D7F1D802F9B2D9EDFD601ED91FC910D
:1056B000EC0FFD1F1083802F9B2DDF91CF911F9149
:1056C0000F91FF90EF90DF90CF90BF900895CF9310
:1056D000DF93EC01FB018617970751F06081718120
:1056E0006115710521F0448155812EDF01C0DEDE98
:1056F000CE01DF91CF910895FC01118210821382B7
:10570000128215821482E3CFFC011182108213826F
:10571000128215821482DBCFFC0180819181A1C0AD
:10572000FC01808191819DC00F931F93CF93DF93E4
:10573000BC018230910510F462E070E0E091DD146C
:10574000F091DE1440E050E0A0E0B0E024C08081A1
:10575000918186179707D0F08617970771F4828199
:105760009381109729F013969C938E9312972CC0D7
:105770009093DE148093DD1427C04115510519F074
:105780008417950718F48D01AC01EF01DF018281C8
:1057900093819C01F9013097D1F641155105F9F03B
:1057A000CA01861B970B8430910580F48A819B8106
:1057B0000115110521F0F8019383828304C09093B1
:1057C000DE148093DD14FE01329645C0FE01E80F21
:1057D000F91F619371930297998388833CC08091EC
:1057E000DB149091DC14892B41F480917F0A909115
:1057F000800A9093DC148093DB144091810A5091CD
:10580000820A4115510541F44DB75EB780917D0A7A
:1058100090917E0A481B590B2091DB143091DC14C7
:1058200024173507B0F4CA01821B930B861797071C
:1058300080F0AB014E5F5F4F8417950750F0420F29
:10584000531F5093DC144093DB14F901619371935F
:1058500002C0E0E0F0E0CF01DF91CF911F910F9106
:105860000895CF93DF939C01009709F48FC0EC015A
:1058700022971B821A826091DD147091DE146115EB
:10588000710581F488819981820F931F2091DB1427
:105890003091DC142817390739F5D093DC14C09304
:1058A000DB1474C0DB0140E050E0AC17BD0708F129
:1058B000BB83AA83FE0121913191E20FF31FAE1742
:1058C000BF0779F48D919C911197280F391F2E5F96
:1058D0003F4F3983288312968D919C9113979B8318
:1058E0008A834115510571F4D093DE14C093DD1401
:1058F0004DC012968D919C911397AD01009711F0B8
:10590000DC01D3CFDA011396DC93CE931297FA0120
:1059100021913191E20FF31FCE17DF0769F48881DF
:105920009981280F391F2E5F3F4FFA013183208361
:105930008A819B8193838283E0E0F0E0DB01129611
:105940008D919C911397009719F0BC01FD01F6CF42
:10595000AB014E5F5F4FDB018D919C91840F951FD2
:105960002091DB143091DC142817390779F4309733
:1059700029F41092DE141092DD1402C013821282F8
:10598000425050405093DC144093DB14DF91CF9190
:1059900008956F927F928F929F92AF92BF92CF9213
:1059A000DF92EF92FF920F931F93CF93DF938C01BF
:1059B000009721F4CB01B8DE8C01B8C08EEFE82E41
:1059C0008FEFF82EE00EF11E4801860E971E8E1402
:1059D0009F0408F4A9C0D7014D915C911197461717
:1059E0005707B0F04530510508F4A0C0CA0104972C
:1059F0008617970708F49AC042505040461B570B31
:105A0000F401419351936D937C93CF012ADF8EC0B3
:105A10005B01A41AB50A3801640E751EA091DD144D
:105A2000B091DE14E0E0F0E0CC24DD2447C0A61500
:105A3000B705A9F5CD91DC911197CE0102968A1593
:105A40009B0568F1CE018A199B09029612962C914A
:105A5000129713963C91059758F0F40122833383F3
:105A6000CA19DB09D183C083D7016D937C9309C028
:105A70004E5F5F4F4C0F5D1FF70151834083C9019B
:105A8000FC01C114D10431F0D6011396FC93EE93BE
:105A900012974CC0F093DE14E093DD1447C08D9153
:105AA0009C911197E817F90708F4FC016D01129613
:105AB0008C91129713969C919C01D901109709F033
:105AC000B6CF8091DB149091DC1486159705E9F42C
:105AD000E617F707D0F42091810A3091820A211548
