:100000000AC2000035C2000033C2000031C2000045
:100010002FC200002DC200002BC2000029C2000028
:1000200027C2000025C2000023C2000021C2000038
:100030001FC200001DC200001BC2000019C2000048
:1000400017C2000015C2000013C2000011C2000058
:100050000FC200000DC200000BC200000C948140D2
:1000600007C200000C9492430C94E64401C20000C5
:10007000FFC10000FDC10000FBC10000F9C100008C
:10008000F7C10000F5C10000F3C10000F1C100009C
:100090000C94D2430C942545EBC100000C94D03E47
:1000A000E7C10000E5C10000E3C10000E1C10000BC
:1000B000DFC10000DDC10000DBC10000D9C10000CC
:1000C000D7C10000D5C10000D3C100000C94124478
:1000D0000C946445CDC100000C9452440C94A3458B
:1000E000C7C100006C656E6774683D006572726F11
:1000F000722070726F63657373696E6720736574C5
:100100005254435F75692D2D3E616374696F6E3A79
:1001100020756E7265636F676E697A6564204469E5
:1001200073706C61794C696E654E616D653D0065FB
:1001300072726F722070726F63657373696E67207D
:100140007365745254435F75692D2D3E6163746904
:100150006F6E3A20756E7265636F676E697A65645B
:1001600020446973706C617953656C656374696F61
:100170006E3D005254435F75692D2D3E6163746975
:100180006F6E2D2D3E43616E63656C004672656532
:1001900020536372616D203D005254435F75692D99
:1001A0002D3E616374696F6E2D2D3E7570646174B0
:1001B00065004D61696E5F55492D2D3E536574553F
:1001C000702D2D3E466C6F775F73656E736F720096
:1001D0004D61696E5F55492D2D3E53657455702DE7
:1001E0002D3E54656D705F73656E736F720052546F
:1001F0004320696E697469616C697A6564204F4B4C
:1002000020746F206D6F6E20392F372F32303135CB
:1002100020402031363A31352000534420696E6940
:100220007469616C697A6564206F6B2E0053442099
:10023000696E697469616C697A6174696F6E206650
:1002400061696C656421006572726F7220696E204D
:1002500052656164537472696E6741727261795359
:10026000442C20646964206E6F742066696E64207B
:1002700066696C65206F7220636F756C64206E6FA9
:1002800074206F70656E2069742E20534446696C2B
:10029000653D006572726F72206F70656E696E6782
:1002A00020534446696C653D004572726F7220723E
:1002B000656164696E67206D656E7520696E2044A6
:1002C0006973706C6179436C6173733A3A44697312
:1002D000706C61795365747570007C3C3E5E2B3D9B
:1002E0003F2F5B5D3B2C2A225C0000002100240094
:1002F00027002A002D003000330001010000040116
:1003000007010A0100002200250028002B002E0012
:100310003100340002010000050108010B0100005A
:1003200020002300260029002C002F0032000001AD
:100330000000030106010901050505050705080878
:100340000808020202020A0A08080404040401015F
:100350000101010101010303030303030303040774
:1003600007070C0C0C0C0C0C0C0C0202020206060B
:100370000606060606060B0B0B0B0B0B0B0B0102FE
:1003800010202008081020401020408002010201A7
:10039000080402010102040810204080804020105F
:1003A00008040201800402018040201008040201B8
:1003B0000804020101020408102040800102040820
:1003C000102040800000090A02080B0C0D070603EC
:1003D0000401000000000000000000000000000018
:1003E000000000000000000000000000000000000D
:1003F00011100F00000000000000000000000000CD
:1004000000000000000000000000D5118226BE2977
:10041000763D1547D01111241FBECFEFD1E2DEBFCC
:10042000CDBF00E00CBF17E0A0E0B2E0E2E6FEE9DD
:1004300000E00BBF02C007900D92A430B107D9F7BE
:100440001BBE13E1A4E0B7E001C01D92AB36B107BB
:10045000E1F714E0C4E1D4E004C02297FE010E9459
:10046000164FCA30D107C9F70E944C480C94254F4B
:10047000C7CD1F93FC0199278827BC01E8941191EF
:100480001032E9F3193010F01E30C8F31B3249F076
:100490001D3241F4689405C080D0610F711D811D2B
:1004A000911D119110531A30B8F33EF49095809538
:1004B000709561957F4F8F4F9F4F1F910895FB015E
:1004C000DC0104C08D910190801921F4415050400D
:1004D000C8F7881B990B0895FB01DC0102C001904D
:1004E0000D9241505040D8F70895FC018191861734
:1004F00021F08823D9F7992708953197CF010895DE
:10050000FB01DC018D91019080190110D9F3990B49
:100510000895FB01DC0101900D920020E1F70895A0
:10052000FB01DC014150504030F08D910190801969
:1005300019F40020B9F7881B990B0895FB01DC0121
:100540004150504048F001900D920020C9F701C081
:100550001D9241505040E0F70895FB019F01E8943F
:100560004230C4F04532B4F44A3029F497FB1EF40B
:10057000909581959F4F642F77270E94004F805D53
:100580008A330CF0895D8193CB010097A1F716F4B3
:100590005DE251931082C9012AC0592F482F372F8D
:1005A000262F660F771F881F991F660F771F881FDA
:1005B000991F620F731F841F951F660F771F881F77
:1005C000991F0895FB019F01423074F0453264F495
:1005D000642F77270E94004F805D8A330CF0895D7D
:1005E0008193CB010097A1F71082C90100C0DC0103
:1005F000FC01672F71917723E1F7329704C07C915A
:100600006D9370836291AE17BF07C8F30895BC0164
:100610008EED92E10C94EB48EF92FF920F931F93B3
:10062000DF93CF93CDB7DEB7C257D0400FB6F89463
:10063000DEBF0FBECDBF82EF97E00E94EC2588237E
:1006400009F47DC1CE01019660E072E00E94BC4CCD
:1006500057E0E52EF12CEC0EFD1EC70160E072E0C4
:100660000E94BC4C8E01035F1F4FC8016091F407CC
:100670004AE00E94034DC701B8010E94904DC80195
:100680000E94B54D8B859C85019791F48E010D5E7E
:100690001F4FC80160E30E94334DC801B7010E949B
:1006A000894CBC01C7010E94904DC8010E94BA4DFF
:1006B0008E01075E1F4F47E0E42EF12CEC0EFD1E6D
:1006C000C801B7010E94AD4DC80161E072E00E940F
:1006D0006F4CBC0189EF97E00E94904DC8010E94C9
:1006E000BA4D8E01015E1F4FC8016091F3074AE0C9
:1006F0000E94034DC701B8010E94904DC8010E949D
:10070000B54D8B859C85019791F48E010B5D1F4F34
:10071000C80160E30E94334DC801B7010E94894CB3
:10072000BC01C7010E94904DC8010E94BA4D8E01C4
:10073000055D1F4FC80169EF77E00E94AD4D37E0BE
:10074000E32EF12CEC0EFD1EC801B7010E94894C6E
:1007500061E072E00E946F4CBC0189EF97E00E945B
:10076000904DC8010E94BA4D8E010F5C1F4FC80109
:100770006091F2074AE00E94034DC701B8010E9450
:10078000904DC8010E94B54D8B859C85019791F4D1
:100790008E01095C1F4FC80160E30E94334DC80100
:1007A000B7010E94894CBC01C7010E94904DC8014D
:1007B0000E94BA4D8E01035C1F4FC80169EF77E0BC
:1007C0000E94AD4D27E0E22EF12CEC0EFD1EC8017B
:1007D000B7010E94894CBC0189EF97E00E94904DBF
:1007E000C8010E94BA4D8E010D5B1F4FC801609178
:1007F000F7074AE00E94034DC701B8010E94904DDF
:10080000C8010E94B54D8B859C85019791F48E019E
:10081000075B1F4FC80160E30E94334DC801B70159
:100820000E94894CBC01C7010E94904DC8010E94E2
:10083000BA4D8E01015B1F4F97E0E92EF12CEC0EB3
:10084000FD1EC801B7010E94AD4DC80163E072E012
:100850000E946F4CBC018FEF97E00E94904DC80141
:100860000E94BA4D8E010B5A1F4FC8016091F607C6
:100870004AE00E94034DC701B8010E94904DC80193
:100880000E94B54D8B859C85019791F48E01055A88
:100890001F4FC80160E30E94334DC801B7010E9499
:1008A000894CBC01C7010E94904DC8010E94BA4DFD
:1008B0008E010F591F4FC8016FEF77E00E94AD4DB9
:1008C00087E0E82EF12CEC0EFD1EC801B7010E9456
:1008D000894C63E072E00E946F4CBC018FEF97E09F
:1008E0000E94904DC8010E94BA4D8E0109591F4FB8
:1008F000C8016FEF77E00E94AD4D6091F80770E09E
:100900006E54784FC8010E94514CBC018FEF97E0A4
:100910000E94904DC8010E94BA4D6091F50786E093
:10092000689FB00111246B58724F85E098E00E94D7
:10093000904DC7010E94B54DCE01019616C0809121
:10094000A20D882339F08EED92E165E072E00E94FD
:10095000114A0DC08E0103591F4FC80164E372E0B4
:100960000E94BC4CC80153DEC8010E94B54DCE5850
:10097000DF4F0FB6F894DEBF0FBECDBFCF91DF9132
:100980001F910F91FF90EF9008954F925F926F9299
:100990007F928F929F92AF92BF92CF92DF92EF920F
:1009A000FF920F931F93DF93CF93CDB7DEB7A4973A
:1009B0000FB6F894DEBF0FBECDBF3C01A62E8E0150
:1009C0000F5F1F4FC80160E072E00E94BC4CCE0177
:1009D000079660E072E00E94BC4C2AE0422E512C47
:1009E000460C571CF30126A137A19DE0E92EF12CFE
:1009F000EC0EFD1EC701B201A9012F5F3F4F0E94FF
:100A00004B4DC801B7010E94904DC7010E94B54DE2
:100A1000EE24FF24C02E012FB701660F771F6E0D45
:100A20007F1D660F771F6B50744F8C2D902F0E9487
:100A3000454B882341F4F0E4EF16F10421F00894CB
:100A4000E11CF11CE9CFAA2051F08FE3E816F10474
:100A50001CF080E090E00BC0C701019608C0E114D3
:100A6000F10419F48FE390E002C0C7010197B7E0E9
:100A70008B2E912C8C0E9D1EBC01660F771F680F6C
:100A8000791F660F771F6B50744FC4010E94904D01
:100A9000E3E1AE2EB12CAC0EBD1EF30126A137A1B1
:100AA000C501B20140E050E00E944B4D79E1C72EF4
:100AB000D12CCC0EDD1EC601B5010E94AD4DC60184
:100AC000B4010E94894C8C016FE1E62EF12CEC0EF2
:100AD000FD1EF30146A157A14F5F5F4F2685378565
:100AE000C701B2010E944B4DC801B7010E94894C59
:100AF000BC018E010F5F1F4FC8010E94904DC701BE
:100B00000E94B54DC6010E94BA4DC5010E94B54D67
:100B1000C201B8010E94904DC4010E94B54DC801A8
:100B20000E94B54DA4960FB6F894DEBF0FBECDBFA0
:100B3000CF91DF911F910F91FF90EF90DF90CF90B9
:100B4000BF90AF909F908F907F906F905F904F90ED
:100B500008954F925F926F927F928F929F92AF9281
:100B6000BF92CF92DF92EF92FF920F931F93DF938A
:100B7000CF93CDB7DEB7A4970FB6F894DEBF0FBE04
:100B8000CDBF3C01D62E7E010894E11CF11CC701AB
:100B900060E072E00E94BC4CCE01079660E072E01B
:100BA0000E94BC4CBAE04B2E512C460C571CF30152
:100BB00026A137A18E01035F1F4FC801B201A90111
:100BC0002F5F3F4F0E944B4DC701B8010E94904DCF
:100BD000C8010E94B54DC7010E94374ADD2049F087
:100BE000693071051CF080E090E00BC0CB010196EC
:100BF00008C0161617061CF089E090E002C0CB0171
:100C00000197A7E08A2E912C8C0E9D1EBC01660FC9
:100C1000771F680F791F660F771F6754744FC401E1
:100C20000E94904D53E1A52EB12CAC0EBD1EF301D8
:100C300026A137A1C501B20140E050E00E944B4D12
:100C400049E1C42ED12CCC0EDD1EC601B5010E9497
:100C5000AD4DC601B4010E94894C8C013FE1E32EE9
:100C6000F12CEC0EFD1EF30146A157A14F5F5F4F23
:100C700026853785C701B2010E944B4DC801B701D7
:100C80000E94894CBC018E010F5F1F4FC8010E945A
:100C9000904DC7010E94B54DC6010E94BA4DC501D5
:100CA0000E94B54DC201B8010E94904DC4010E943E
:100CB000B54DC8010E94B54DA4960FB6F894DEBF9D
:100CC0000FBECDBFCF91DF911F910F91FF90EF909D
:100CD000DF90CF90BF90AF909F908F907F906F905C
:100CE0005F904F9008954F925F926F927F928F9294
:100CF0009F92AF92BF92CF92DF92EF92FF920F93AB
:100D00001F93DF93CF93CDB7DEB7A4970FB6F894B8
:100D1000DEBF0FBECDBF3C01D62E7E010894E11C84
:100D2000F11CC70160E072E00E94BC4CCE01079646
:100D300060E072E00E94BC4C6AE0462E512C460CEA
:100D4000571CF30126A137A18E01035F1F4FC80175
:100D5000B201A9012E5F3F4F0E944B4DC701B80160
:100D60000E94904DC8010E94B54DC7010E94374AAC
:100D7000DD2049F06B3371051CF080E090E00BC082
:100D8000CB01019608C0161617061CF08BE390E005
:100D900002C0CB01019757E0852E912C8C0E9D1E31
:100DA000BC01660F771F680F791F660F771F6F5A98
:100DB000754FC4010E94904D23E1A22EB12CAC0EC0
:100DC000BD1EF30126A137A1C501B20140E050E0EC
:100DD0000E944B4D99E1C92ED12CCC0EDD1EC601CF
:100DE000B5010E94AD4DC601B4010E94894C8C0131
:100DF0008FE1E82EF12CEC0EFD1EF30146A157A168
:100E00004E5F5F4F26853785C701B2010E944B4D6B
:100E1000C801B7010E94894CBC018E010F5F1F4FB2
:100E2000C8010E94904DC7010E94B54DC6010E94A5
:100E3000BA4DC5010E94B54DC201B8010E94904D46
:100E4000C4010E94B54DC8010E94B54DA4960FB6CD
:100E5000F894DEBF0FBECDBFCF91DF911F910F91F0
:100E6000FF90EF90DF90CF90BF90AF909F908F90CA
:100E70007F906F905F904F9008954F925F926F9226
:100E80007F928F929F92AF92BF92CF92DF92EF921A
:100E9000FF920F931F93DF93CF93CDB7DEB7A49745
:100EA0000FB6F894DEBF0FBECDBF3C01D62E7E013B
:100EB0000894E11CF11CC70160E072E00E94BC4C88
:100EC000CE01079660E072E00E94BC4C0AE0402E22
:100ED000512C460C571CF30126A137A18E01035F4C
:100EE0001F4FC801B201A9012E5F3F4F0E944B4D19
:100EF000C701B8010E94904DC8010E94B54DC701BD
:100F00000E94374ADD2049F0673171051CF080E00E
:100F100090E00BC0CB01019608C0161617061CF016
:100F200087E190E002C0CB01019717E0812E912C60
:100F30008C0E9D1EBC01660F771F680F791F660F10
:100F4000771F6F53764FC4010E94904DF3E1AF2E8F
:100F5000B12CAC0EBD1EF30126A137A1C501B20113
:100F600040E050E00E944B4DE9E1CE2ED12CCC0E5A
:100F7000DD1EC601B5010E94AD4DC601B4010E943F
:100F8000894C8C017FE1E72EF12CEC0EFD1EF30164
:100F900046A157A14E5F5F4F26853785C701B20135
:100FA0000E944B4DC801B7010E94894CBC018E01C3
:100FB0000F5F1F4FC8010E94904DC7010E94B54DA1
:100FC000C6010E94BA4DC5010E94B54DC201B801CB
:100FD0000E94904DC4010E94B54DC8010E94B54DBC
:100FE000A4960FB6F894DEBF0FBECDBFCF91DF91B0
:100FF0001F910F91FF90EF90DF90CF90BF90AF9037
:101000009F908F907F906F905F904F9008954F9238
:101010005F926F927F928F929F92AF92BF92CF9288
:10102000DF92EF92FF920F931F93DF93CF93CDB791
:10103000DEB7A4970FB6F894DEBF0FBECDBF3C015C
:10104000A62E8E010F5F1F4FC80160E072E00E9464
:10105000BC4CCE01079660E072E00E94BC4CBAE046
:101060004B2E512C460C571CF30126A137A1ADE0A5
:10107000EA2EF12CEC0EFD1EC701B201A9012D5F75
:101080003F4F0E944B4DC801B7010E94904DC701D0
:101090000E94B54DEE24FF24C02E012FB701660F2C
:1010A000771F6E0D7F1D660F771F6B58724F8C2D4B
:1010B000902F0E94454B882341F4F6E0EF16F1048F
:1010C00021F00894E11CF11CE9CFAA2051F086E040
:1010D000E816F1041CF080E090E00BC0C701019617
:1010E00008C0E114F10419F486E090E002C0C701E1
:1010F000019757E0852E912C8C0E9D1EBC01660F2A
:10110000771F680F791F660F771F6B58724FC401E6
:101110000E94904D23E1A22EB12CAC0EBD1EF30116
:1011200026A137A1C501B20140E050E00E944B4D1D
:1011300099E1C92ED12CCC0EDD1EC601B5010E944D
:10114000AD4DC601B4010E94894C8C018FE1E82E9F
:10115000F12CEC0EFD1EF30146A157A14D5F5F4F30
:1011600026853785C701B2010E944B4DC801B701E2
:101170000E94894CBC018E010F5F1F4FC8010E9465
:10118000904DC7010E94B54DC6010E94BA4DC501E0
:101190000E94B54DC201B8010E94904DC4010E9449
:1011A000B54DC8010E94B54DA4960FB6F894DEBFA8
:1011B0000FBECDBFCF91DF911F910F91FF90EF90A8
:1011C000DF90CF90BF90AF909F908F907F906F9067
:1011D0005F904F9008954F925F926F927F928F929F
:1011E0009F92AF92BF92CF92DF92EF92FF920F93B6
:1011F0001F93DF93CF93CDB7DEB7A4970FB6F894C4
:10120000DEBF0FBECDBF3C01D62E7E010894E11C8F
:10121000F11CC70160E072E00E94BC4CCE01079651
:1012200060E072E00E94BC4C6AE0462E512C460CF5
:10123000571CF30126A137A18E01035F1F4FC80180
:10124000B201A9012F5F3F4F0E944B4DC701B8016A
:101250000E94904DC8010E94B54DC7010E94374AB7
:10126000DD2049F0693071051CF080E090E00BC092
:10127000CB01019608C0161617061CF089E090E015
:1012800002C0CB01019757E0852E912C8C0E9D1E3C
:10129000BC01660F771F680F791F660F771F6B57AA
:1012A000764FC4010E94904D23E1A22EB12CAC0ECA
:1012B000BD1EF30126A137A1C501B20140E050E0F7
:1012C0000E944B4D99E1C92ED12CCC0EDD1EC601DA
:1012D000B5010E94AD4DC601B4010E94894C8C013C
:1012E0008FE1E82EF12CEC0EFD1EF30146A157A173
:1012F0004F5F5F4F26853785C701B2010E944B4D76
:10130000C801B7010E94894CBC018E010F5F1F4FBD
:10131000C8010E94904DC7010E94B54DC6010E94B0
:10132000BA4DC5010E94B54DC201B8010E94904D51
:10133000C4010E94B54DC8010E94B54DA4960FB6D8
:10134000F894DEBF0FBECDBFCF91DF911F910F91FB
:10135000FF90EF90DF90CF90BF90AF909F908F90D5
:101360007F906F905F904F9008954F925F926F9231
:101370007F928F929F92AF92BF92CF92DF92EF9225
:10138000FF920F931F93DF93CF93CDB7DEB7A49750
:101390000FB6F894DEBF0FBECDBF3C01D62E7E0146
:1013A0000894E11CF11CC70160E072E00E94BC4C93
:1013B000CE01079660E072E00E94BC4C0AE0402E2D
:1013C000512C460C571CF30126A137A18E01035F57
:1013D0001F4FC801B201A9012E5F3F4F0E944B4D24
:1013E000C701B8010E94904DC8010E94B54DC701C8
:1013F0000E94374A9B0121503040DD2041F02E31C0
:1014000031051CF080E090E00AC0CB0108C0121644
:1014100013061CF08EE190E002C0C901019717E0AD
:10142000812E912C8C0E9D1EBC01660F771F680FBC
:10143000791F660F771F6553774FC4010E94904D47
:10144000F3E1AF2EB12CAC0EBD1EF30126A137A1E6
:10145000C501B20140E050E00E944B4DE9E1CE2EC3
:10146000D12CCC0EDD1EC601B5010E94AD4DC601CA
:10147000B4010E94894C8C017FE1E72EF12CEC0E27
:10148000FD1EF30146A157A14E5F5F4F26853785AC
:10149000C701B2010E944B4DC801B7010E94894C9F
:1014A000BC018E010F5F1F4FC8010E94904DC70104
:1014B0000E94B54DC6010E94BA4DC5010E94B54DAE
:1014C000C201B8010E94904DC4010E94B54DC801EF
:1014D0000E94B54DA4960FB6F894DEBF0FBECDBFE7
:1014E000CF91DF911F910F91FF90EF90DF90CF9000
:1014F000BF90AF909F908F907F906F905F904F9034
:1015000008950F931F938823D1F08FE197E048EE61
:1015100053E060E070E02CE033E003E010E00E9474
:101520001A3D992787FD909590930C0880930B089E
:101530008EED92E164E672E00E94114A06C08FE1EE
:1015400097E060910B080E94803C1F910F910895D5
:101550000F931F9380919F0D6623C9F0882309F58F
:101560008FE197E044EF51E060E070E024E833E180
:1015700002E010E00E941A3D992787FD9095909314
:10158000A10D8093A00D81E080939F0D0AC0813052
:1015900041F48FE197E06091A00D0E94803C109291
:1015A0009F0D1F910F9108958091320890913308FB
:1015B000909337088093360880E00E9443419C0155
:1015C0009093330880933208409136085091370841
:1015D000841B950B05960B9798F581E08093310855
:1015E000C9018C589040099718F483E090E01EC020
:1015F000C90185549140099718F484E090E016C021
:10160000C9010496099718F485E090E00FC0C9015C
:10161000855F9140099718F482E090E007C0225E50
:1016200032402930310538F481E090E0909335085C
:10163000809334080895109235081092340804C03D
:1016400050933308409332081092310808950F9355
:101650001F938091320890913308909337088093BC
:10166000360880E00E94434190933308809332080B
:101670002091360830913708821B930B97FF03C0E7
:10168000909581959F4F0597A4F08FE197E04AE0F0
:1016900050E060E070E024ED3AE005E010E00E94E8
:1016A0000D3D992787FD909590933B0880933A08CC
:1016B00004C030933308209332081F910F9108958E
:1016C0000F931F93882351F18FEF93E0909333088A
:1016D000809332088FE197E044E150E060E070E0F1
:1016E00027E23BE002E010E00E941A3D992787FDC7
:1016F000909590933908809338088EED92E169E7D0
:1017000072E00E940F4A8EED92E144E150E060E009
:1017100070E02AE030E00E94874906C08FE197E040
:10172000609138080E94803C1F910F910895CF92DC
:10173000DF92EF92FF920F931F938C019AE0C92ED4
:10174000D12CC00ED11E80E0E82E82E0F82EC6011A
:10175000B7010E94BC4CC8014096B7010E94BC4C26
:10176000C8014696B7010E94BC4CC8014C96B7010F
:101770000E94BC4CC8018E96B7010E94BC4CC801A7
:10178000C496B7010E94BC4CC801CA96B7010E941A
:10179000BC4CC801805C9F4FB7010E94BC4CF80153
:1017A00017A216A2C60168E872E00E94EC4C1F91D5
:1017B0000F91FF90EF90DF90CF900895CF92EF922E
:1017C0000F93CF93DF938130910509F056C56F5F7A
:1017D0007F4F09F0DFC584E097E00E945C288FE12D
:1017E00097E00E94273D8DED97E068E049E024E016
:1017F00005E056E0E52E37E0C32E0E94242889EF4D
:1018000097E060E072E00E94BC4C8FEF97E060E0F0
:1018100072E00E94BC4C85E098E060E072E00E94BB
:10182000BC4CCDE0D8E0CE0160E072E00E94BC4C40
:10183000269688E0C133D807B1F78CE398E077DFCC
:1018400083E898E068E173E00E94BC4C89E898E086
:101850006BE173E00E94BC4C8FE898E06EE173E0AE
:101860000E94BC4C85E998E061E273E00E94BC4CA8
:101870008BE998E064E273E00E94BC4C81EA98E056
:1018800067E273E00E94BC4C87EA98E06AE273E08A
:101890000E94BC4C8DEA98E06DE273E00E94BC4C63
:1018A00083EB98E060E373E00E94BC4C89EB98E026
:1018B00063E373E00E94BC4C8FEB98E066E373E057
:1018C0000E94BC4C85EC98E069E373E00E94BC4C3C
:1018D0008BEC98E068E173E00E94BC4C81ED98E0ED
:1018E0006BE173E00E94BC4C87ED98E06EE173E021
:1018F0000E94BC4C8DED98E061E273E00E94BC4C0C
:1019000083EE98E064E273E00E94BC4C89EE98E0BC
:1019100067E273E00E94BC4C8FEE98E06AE273E0ED
:101920000E94BC4C85EF98E06DE273E00E94BC4CD5
:101930008BEF98E060E373E00E94BC4C81E099E09B
:1019400063E373E00E94BC4C87E099E066E373E0D8
:101950000E94BC4C8DE099E069E373E00E94BC4CAE
:1019600083E199E06CE373E00E94BC4C89E199E06B
:101970006FE373E00E94BC4C8FE199E062E473E096
:101980000E94BC4C85E299E065E473E00E94BC4C87
:101990008BE299E068E473E00E94BC4C81E399E03B
:1019A0006BE473E00E94BC4C87E399E06EE473E063
:1019B0000E94BC4C8DE399E061E573E00E94BC4C51
:1019C00083E499E064E573E00E94BC4C89E499E00B
:1019D00067E573E00E94BC4C8FE499E06AE573E030
:1019E0000E94BC4C85E599E06DE573E00E94BC4C1B
:1019F0008BE599E060E673E00E94BC4C81E699E0DB
:101A000063E673E00E94BC4C87E699E066E673E00B
:101A10000E94BC4C8DE699E069E673E00E94BC4CE4
:101A200083E799E06CE673E00E94BC4C89E799E09B
:101A30006FE673E00E94BC4C8FE799E062E773E0C9
:101A40000E94BC4C85E899E065E773E00E94BC4CBD
:101A50008BE899E067E773E00E94BC4C81E999E06C
:101A600069E773E00E94BC4C87E999E06BE773E09B
:101A70000E94BC4C8DE999E06DE773E00E94BC4C7C
:101A800083EA99E06FE773E00E94BC4C89EA99E031
:101A900061E873E00E94BC4C8FEA99E063E873E070
:101AA0000E94BC4C85EB99E065E873E00E94BC4C59
:101AB0008BEB99E067E873E00E94BC4C81EC99E005
:101AC00069E873E00E94BC4C87EC99E068E173E040
:101AD0000E94BC4C8DEC99E06BE173E00E94BC4C21
:101AE00083ED99E06EE173E00E94BC4C89ED99E0D2
:101AF00061E273E00E94BC4C8FED99E064E273E018
:101B00000E94BC4C85EE99E067E273E00E94BC4CF9
:101B10008BEE99E06AE273E00E94BC4C81EF99E0A1
:101B20006DE273E00E94BC4C87EF99E060E373E0E4
:101B30000E94BC4C8DEF99E063E373E00E94BC4CC3
:101B400083E09AE066E373E00E94BC4C89E09AE08F
:101B500069E373E00E94BC4C8FE09AE06CE373E0B1
:101B60000E94BC4C85E19AE06FE373E00E94BC4C9C
:101B70008BE19AE062E473E00E94BC4C81E29AE05F
:101B800065E473E00E94BC4C87E29AE068E473E08D
:101B90000E94BC4C8DE29AE06BE473E00E94BC4C66
:101BA00083E39AE06EE473E00E94BC4C89E39AE020
:101BB00061E573E00E94BC4C8FE39AE064E573E05A
:101BC0000E94BC4C85E49AE067E573E00E94BC4C3F
:101BD0008BE49AE06AE573E00E94BC4C81E59AE0F0
:101BE00069E873E00E94BC4C87E59AE068E173E025
:101BF0000E94BC4C8DE59AE06BE173E00E94BC4C06
:101C000083E69AE06EE173E00E94BC4C89E69AE0BC
:101C100061E273E00E94BC4C8FE69AE064E273E0FC
:101C20000E94BC4C85E79AE067E273E00E94BC4CDE
:101C30008BE79AE06AE273E00E94BC4C81E89AE08C
:101C40006DE273E00E94BC4C87E89AE060E373E0C9
:101C50000E94BC4C8DE89AE063E373E00E94BC4CA8
:101C600083E99AE066E373E00E94BC4C89E99AE05C
:101C700069E373E00E94BC4C8FE99AE06CE373E087
:101C80000E94BC4C85EA9AE06FE373E00E94BC4C72
:101C90008BEA9AE062E473E00E94BC4C81EB9AE02C
:101CA00065E473E00E94BC4C87EB9AE068E473E063
:101CB0000E94BC4C8DEB9AE06BE473E00E94BC4C3C
:101CC00083EC9AE06EE473E00E94BC4C89EC9AE0ED
:101CD00061E573E00E94BC4C8FEC9AE064E573E030
:101CE0000E94BC4C85ED9AE067E573E00E94BC4C15
:101CF0008BED9AE06AE573E00E94BC4C81EE9AE0BD
:101D00006DE573E00E94BC4C87EE9AE060E673E0FC
:101D10000E94BC4C8DEE9AE063E673E00E94BC4CDE
:101D200083EF9AE066E673E00E94BC4C89EF9AE08C
:101D300069E673E00E94BC4C8FEF9AE06CE673E0BA
:101D40000E94BC4C85E09BE06FE673E00E94BC4CB7
:101D50008BE09BE062E773E00E94BC4C81E19BE07A
:101D60006CE873E00E94BC4C87E19BE06FE873E095
:101D70000E94BC4C8DE19BE062E973E00E94BC4C88
:101D800083E29BE065E973E00E94BC4C89E29BE042
:101D900068E973E00E94BC4C8FE29BE06BE973E062
:101DA0000E94BC4C85E39BE06EE973E00E94BC4C52
:101DB0008BE39BE061EA73E00E94BC4C81E49BE012
:101DC00064EA73E00E94BC4C87E49BE067EA73E03E
:101DD0000E94BC4C8DE49BE06AEA73E00E94BC4C1C
:101DE00083E59BE06DEA73E00E94BC4C89E59BE0D3
:101DF00060EB73E00E94BC4C8FE59BE063EB73E00B
:101E00000E94BC4C85E69BE066EB73E00E94BC4CF4
:101E10008BE69BE069EB73E00E94BC4C81E79BE0A2
:101E20006CEB73E00E94BC4C87E79BE06FEB73E0C8
:101E30000E94BC4C8DE79BE062EC73E00E94BC4CBE
:101E400083E89BE065EC73E00E94BC4C89E89BE072
:101E500068EC73E00E94BC4C8FE89BE06BEC73E095
:101E60000E94BC4C85E99BE06EEC73E00E94BC4C88
:101E70008BE99BE061ED73E00E94BC4C81EA9BE042
:101E800064ED73E00E94BC4C87EA9BE067ED73E071
:101E90000E94BC4C8DEA9BE06AED73E00E94BC4C52
:101EA00083EB9BE06DED73E00E94BC4C89EB9BE003
:101EB00065E773E00E94BC4C8FEB9BE067E773E043
:101EC0000E94BC4C85EC9BE069E773E00E94BC4C2F
:101ED0008BEC9BE06BE773E00E94BC4C81ED9BE0D8
:101EE0006DE773E00E94BC4C87ED9BE06FE773E009
:101EF0000E94BC4C8DED9BE061E873E00E94BC4CFD
:101F000083EE9BE063E873E00E94BC4C89EE9BE0AB
:101F100065E873E00E94BC4C8FEE9BE067E873E0DD
:101F20000E94BC4C85EF9BE060EE73E00E94BC4CCD
:101F30008BEF9BE062EE73E00E94BC4C81E09CE082
:101F400064EE73E00E94BC4C87E09CE066EE73E0B8
:101F50000E94BC4C8DE09CE068EE73E00E94BC4C9B
:101F600083E19CE06AEE73E00E94BC4C89E19CE056
:101F70006CEE73E00E94BC4C8FE19CE06EEE73E06F
:101F80000E94BC4C85E29CE060EF73E00E94BC4C78
:101F90008BE29CE062EF73E00E94BC4C81E39CE02A
:101FA00064EF73E00E94BC4C87E39CE066EF73E053
:101FB0000E94BC4C8DE39CE068EF73E00E94BC4C37
:101FC00083E49CE06AEF73E00E94BC4C89E49CE0EF
:101FD0006CEF73E00E94BC4C8FE49CE06EEF73E00A
:101FE0000E94BC4C85E59CE060E074E00E94BC4C23
:101FF0008BE59CE062E074E00E94BC4C81E69CE0D2
:1020000064E074E00E94BC4C87E69CE066E074E00B
:102010000E94BC4C8DE69CE068E074E00E94BC4CE1
:1020200083E79CE06AE074E00E94BC4C89E79CE096
:102030006CE074E00E94BC4C8FE79CE06EE074E0C2
:102040000E94BC4C85E89CE060E174E00E94BC4CBE
:102050008BE89CE062E174E00E94BC4C81E99CE06A
:1020600064E174E00E94BC4C87E99CE066E174E0A6
:102070000E94BC4C8DE99CE068E174E00E94BC4C7D
:1020800083EA9CE06AE174E00E94BC4C89EA9CE02F
:102090006CE174E00E94BC4C8FEA9CE06EE174E05D
:1020A0000E94BC4C85EB9CE060E274E00E94BC4C5A
:1020B0008BEB9CE062E274E00E94BC4C81EC9CE003
:1020C00064E274E00E94BC4C87EC9CE066E274E041
:1020D0000E94BC4C8DEC9CE068E274E00E94BC4C19
:1020E00083ED9CE06AE274E00E94BC4C89ED9CE0C8
:1020F0006CE274E00E94BC4C8FED9CE06EE274E0F8
:102100000E94BC4C85EE9CE060E374E00E94BC4CF5
:102110008BEE9CE062E374E00E94BC4C81EF9CE09B
:1021200064E374E00E94BC4C87EF9CE066E374E0DB
:102130000E94BC4C8DEF9CE068E374E00E94BC4CB4
:1021400083E09DE06AE374E00E94BC4C89E09DE07E
:102150006CE374E00E94BC4C8FE09DE06EE374E0A1
:102160000E94BC4C85E19DE060E474E00E94BC4CA0
:102170008BE19DE062E474E00E94BC4C81E29DE052
:1021800064E474E00E94BC4C87E29DE066E474E085
:102190000E94BC4C8DE29DE065E773E00E94BC4C60
:1021A00083E39DE067E773E00E94BC4C89E39DE018
:1021B00069E773E00E94BC4C8FE39DE06BE773E03E
:1021C0000E94BC4C85E49DE06DE773E00E94BC4C2E
:1021D0008BE49DE06FE773E00E94BC4C81E59DE0DD
:1021E00061E873E00E94BC4C87E59DE063E873E022
:1021F0000E94BC4C8DE59DE065E873E00E94BC4CFC
:1022000083E69DE067E873E00E94BC4C89E69DE0B0
:1022100068E474E00E94BC4C8FE69DE06AE474E0E0
:102220000E94BC4C85E79DE06CE474E00E94BC4CCD
:102230008BE79DE060E574E00E94BC4C81E89DE086
:1022400064E574E00E94BC4C87E89DE068E574E0BA
:102250000E94BC4C8DE89DE06CE574E00E94BC4C93
:1022600083E99DE060E674E00E94BC4C89E99DE052
:1022700064E674E00E94BC4C8DC0892B09F08AC0D2
:102280006F5F7F4F09F086C0C9E9DDE0CE010E9493
:10229000B54D26978DE0CF36D807C1F7CFE6DDE004
:1022A000CE010E94B54D26978BE0CF3ED807C1F7EF
:1022B000CFEEDBE0CE010E94B54D26978BE0C33B0D
:1022C000D807C1F7C3EBDBE0CE010E94B54D2697DE
:1022D0008AE0CB34D807C1F7CBE4DAE0CE010E9424
:1022E000B54D269789E0CB3BD807C1F7CBEBD9E0BA
:1022F000CE010E94B54D269789E0CF37D807C1F7A8
:10230000CFE7D9E0CE010E94B54D269788E0C53CC5
:10231000D807C1F7C5ECD8E0CE010E94B54D26978D
:1023200088E0CD37D807C1F78CE798E00E94B54D1B
:1023300086E798E00E94B54D80E798E00E94B54D91
:102340008AE698E00E94B54D88E598E00E94B54D78
:1023500082E598E00E94B54D8CE498E00E94B54D6E
:1023600086E498E00E94B54DCBE2D8E0CE010E9411
:10237000B54D269788E0C730D807C1F785E098E0CB
:102380000E94B54D8FEF97E00E94B54D89EF97E021
:102390000E94B54DDF91CF910F91EF90CF900895AE
:1023A00080E090E06FEF7FEF09CA81E090E06FEF8F
:1023B0007FEF04CA9F92AF92BF92CF92DF92EF92CB
:1023C000FF920F931F93DF93CF93CDB7DEB7C05427
:1023D000D0400FB6F894DEBF0FBECDBF6C01962E75
:1023E000A7E0EA2EF12CEC0EFD1EC70168E674E0B2
:1023F0000E94D44C8E010F5F1F4FC801B60140E010
:1024000050E028E030E00E944B4DC701B8010E9427
:10241000894C6EE674E00E946F4CBC01C6010E94BC
:10242000904DC8010E94B54DC7010E94BA4D8E0162
:102430000D5E1F4FC601B80142E150E020E030E0E0
:102440000E94A14A83EA9DE0B8010E949C2A882349
:1024500009F495C0CE01869663EA7DE0A80121E0EB
:102460000E94C12B88A599A5909307078093060722
:102470008AA59BA5ACA5BDA58093080790930907E5
:10248000A0930A07B0930B078EA59FA5A8A9B9A989
:1024900080930C0790930D07A0930E07B0930F073E
:1024A000A0E1B7E0FE01F2968DE001900D9281501F
:1024B000E1F7FE01FF968081918190931E07809342
:1024C0001D0784E097E00E94AB28882309F457C0D9
:1024D000CC24F6E0DF2EEDE0AE2EB12CAC0EBD1E0E
:1024E00033C0CD9C80011124035F174FC80160E009
:1024F00072E00E94EC4CEE2484E097E00E94D22827
:10250000F82E992787FD90958D309105E1F023E60F
:102510002E15A8F08032910594F08F37910579F04F
:10252000C501B8010E94AD4DC5016F2D0E94604CE0
:10253000BC01C8010E94904DC5010E94BA4DE394B0
:1025400088ECE816C9F6C394C91458F284E097E001
:102550000E94B828692D862FC05CDF4F0FB6F89413
:10256000DEBF0FBECDBFCF91DF911F910F91FF90C6
:10257000EF90DF90CF90BF90AF909F9008958EED39
:1025800092E167E472E00E9484488EED92E1BE0120
:102590006D5E7F4F0E94114A60E0DDCF4F925F92E7
:1025A0006F927F928F929F92AF92BF92CF92DF9263
:1025B000EF92FF920F931F93DF93CF93CDB7DEB7C8
:1025C00068970FB6F894DEBF0FBECDBF3C018DED0E
:1025D00097E060E142E020E00E947A278DED97E0ED
:1025E0000E9474278DED97E060E040E00E9446274E
:1025F000B301665C7F4F8DED97E00E94A7488DED9B
:1026000097E060E041E00E9446278091B0069AE0A2
:10261000492E512C460C571CF30142A153A188238B
:1026200009F446C080E1882E912C860C971C26A1C7
:1026300037A16E010894C11CD11CC601B2010E94D1
:102640004B4D07E0E02EF12CEC0EFD1EC701B6014C
:102650000E94AD4DB3016A5E7F4FC7010E94894C55
:102660005C018E01035F1F4FF30146A157A14F5F2D
:102670005F4F24A135A1C801B2010E944B4DC50195
:10268000B8010E94894CBC01C4010E94904DC80150
:102690000E94B54DC7010E94BA4DC6010E94B54DBA
:1026A0008DED97E0B4010E94A7481092B00615C0C6
:1026B0008E010D5E1F4FF30124A135A1C801B201A7
:1026C0000E944B4D8DED97E0B8010E94A748C801CC
:1026D0000E94B54D81E08093B00668960FB6F894DD
:1026E000DEBF0FBECDBFCF91DF911F910F91FF9045
:1026F000EF90DF90CF90BF90AF909F908F907F90A2
:102700006F905F904F9008958CE398E047CF2F92A1
:102710003F924F925F926F927F928F929F92AF9271
:10272000BF92CF92DF92EF92FF920F931F93DF93AE
:10273000CF93CDB7DEB766970FB6F894DEBF0FBE66
:10274000CDBF2C016B013A013C8B2B8B1801FE8A0B
:10275000ED8ADA011D921C9201E010E01FC0F30126
:10276000808191819C01220F331F280F391F220F76
:10277000331FD20115968D919C911697820F931F4E
:10278000B6010E947D4BF30140815181882381F481
:102790004F5F5F4F518340830F5F1F4FD2011196F0
:1027A0008D919C91129780179107CCF680E0A3C081
:1027B0009A01220F331F240F351F220F331FF201FE
:1027C00085819681820F931F6CE20E94EC4A5C0126
:1027D0000894A11CB11CD3018D919C919C01220FE6
:1027E000331F280F391F220F331FF2018581968175
:1027F000820F931F6CE2A5010E94CE4A6C014C012E
:102800000894811C911CD3018D919C919C01220FF5
:10281000331F280F391F220F331FF2018581968144
:10282000820F931F6CE2A4010E94CE4A7C01D30167
:102830002D913C91C901880F991F820F931F880F1A
:10284000991FF20165817681680F791F8E010F5FF4
:102850001F4FC801A50196010E944B4DC101B8014F
:102860000E94904DC8010E94B54D8E01095F1F4F17
:10287000D3012D913C91C901880F991F820F931F9D
:10288000880F991FF20165817681680F791FC80151
:10289000A40197010E944B4D8B899C89B8010E942D
:1028A000904DC8010E94B54DD3012D913C91C901B5
:1028B000880F991F820F931F880F991FD2011596B9
:1028C000ED91FC911697E80FF91F8E01035F1F4FE2
:1028D0000894E11CF11C24813581C801BF01A701C6
:1028E0000E944B4D8D899E89B8010E94904DC80170
:1028F0000E94B54D81E066960FB6F894DEBF0FBE1C
:10290000CDBFCF91DF911F910F91FF90EF90DF909E
:10291000CF90BF90AF909F908F907F906F905F907F
:102920004F903F902F9008952F923F924F925F9239
:102930006F927F928F929F92AF92BF92CF92DF92CF
:10294000EF92FF920F931F93DF93CF93CDB7DEB734
:10295000ED970FB6F894DEBF0FBECDBF9AAF89AF2B
:102960005B015CAF4BAF2DAF1A82198283E0282E3A
:10297000312C2C0E3D1EC10160E072E00E94BC4C67
:1029800009E0402E512C4C0E5D1EC20160E072E049
:102990000E94BC4C1FE0812E912C8C0E9D1EC40108
:1029A00060E072E00E94BC4CB5E1CB2ED12CCC0E85
:1029B000DD1EC6016BAD7CAD0E94A54D89AD9AAD03
:1029C000B601AE014F5F5F4F9101820174019FDE3E
:1029D000182FC6010E94B54D112309F48DC0C20104
:1029E00061E60E94EC4A9C018FEF2F3F380709F403
:1029F00083C0A3E06A2E712C620E731EEDADEE2330
:102A000009F468C0FBE1CF2ED12CCC0EDD1EC6012F
:102A1000B40140E050E00E944B4DE1E2EE2EF12C7B
:102A2000EC0EFD1EC701B6010E94AD4DC701B501F8
:102A30000E94894C5C018E01095D1F4F2B893C89E6
:102A4000C801B401A3010E944B4DC501B8010E9409
:102A5000894CBC01C4010E94904DC8010E94B54D33
:102A6000C7010E94BA4DC6010E94B54D29813A8125
:102A7000C901880F991F820F931F880F991FE9AD15
:102A8000FAAD05811681080F191F5DE2E52EF12CC4
:102A9000EC0EFD1EC7016BAD7CAD0E94AD4DC701B4
:102AA0006CE20E94604CB2010E94894C6CE20E9470
:102AB000604CB1010E94894C6CE20E94604CB401F0
:102AC0000E94894CBC01C8010E94904DC7010E9420
:102AD000BA4D10C08E010D5C1F4FC801B401A90191
:102AE00093010E944B4DC501B8010E94904DC80151
:102AF0000E94B54D11E001C010E0CE010F960E947A
:102B0000B54DCE0109960E94B54DCE0103960E94A7
:102B1000B54D812FED960FB6F894DEBF0FBECDBF39
:102B2000CF91DF911F910F91FF90EF90DF90CF90A9
:102B3000BF90AF909F908F907F906F905F904F90DD
:102B40003F902F9008952F923F924F925F926F92F5
:102B50007F928F929F92AF92BF92CF92DF92EF922D
:102B6000FF920F931F93DF93CF93CDB7DEB7ED970F
:102B70000FB6F894DEBF0FBECDBF9AAF89AF5B0131
:102B80005CAF4BAF2DAF1A821982B3E02B2E312CE4
:102B90002C0E3D1EC10160E072E00E94BC4CA9E019
:102BA0004A2E512C4C0E5D1EC20160E072E00E9464
:102BB000BC4CFFE08F2E912C8C0E9D1EC40160E05A
:102BC00072E00E94BC4CE5E1CE2ED12CCC0EDD1E75
:102BD000C6016BAD7CAD0E94A54D89AD9AADB60125
:102BE000AE014F5F5F4F91018201740190DD182F9C
:102BF000C6010E94B54D112309F48DC0C20168E4DD
:102C00000E94EC4A9C018FEF2F3F380709F483C0E4
:102C100075E0672E712C620E731EEDADEE2309F484
:102C200068C06BE1C62ED12CCC0EDD1EC601B401EE
:102C300040E050E00E944B4D51E2E52EF12CEC0EAD
:102C4000FD1EC701B6010E94AD4DC701B5010E942E
:102C5000894C5C018E01095D1F4F2B893C89C8019D
:102C6000B401A3010E944B4DC501B8010E94894CDB
:102C7000BC01C4010E94904DC8010E94B54DC7011E
:102C80000E94BA4DC6010E94B54D29813A81C90101
:102C9000880F991F820F931F880F991FE9ADFAAD16
:102CA00005811681080F191F9DE2E92EF12CEC0E0B
:102CB000FD1EC7016BAD7CAD0E94AD4DC7016CE23E
:102CC0000E94604CB2010E94894C6CE20E94604CF0
:102CD000B1010E94894C6CE20E94604CB4010E94D8
:102CE000894CBC01C8010E94904DC7010E94BA4D99
:102CF00010C08E010D5C1F4FC801B401A9019301E2
:102D00000E944B4DC501B8010E94904DC8010E9420
:102D1000B54D11E001C010E0CE010F960E94B54DF7
:102D2000CE0109960E94B54DCE0103960E94B54D85
:102D3000812FED960FB6F894DEBF0FBECDBFCF91B9
:102D4000DF911F910F91FF90EF90DF90CF90BF9098
:102D5000AF909F908F907F906F905F904F903F903B
:102D60002F9008952F923F924F925F926F927F9291
:102D70008F929F92AF92BF92CF92DF92EF92FF928B
:102D80000F931F93DF93CF93CDB7DEB7ED970FB6B9
:102D9000F894DEBF0FBECDBF9AAF89AF5B015CAFC9
:102DA0004BAF2DAF1A821982B3E02B2E312C2C0E93
:102DB0003D1EC10160E072E00E94BC4CA9E04A2EB9
:102DC000512C4C0E5D1EC20160E072E00E94BC4CB2
:102DD000FFE08F2E912C8C0E9D1EC40160E072E0EE
:102DE0000E94BC4CE5E1CE2ED12CCC0EDD1EC601DE
:102DF0006BAD7CAD0E94A54D89AD9AADB601AE011B
:102E00004F5F5F4F91018201740181DC182FC60171
:102E10000E94B54D112309F48DC0C2016DE60E94D8
:102E2000EC4A9C018FEF2F3F380709F483C07AE00A
:102E3000672E712C620E731EEDADEE2309F468C08F
:102E40006BE1C62ED12CCC0EDD1EC601B40140E0D4
:102E500050E00E944B4D51E2E52EF12CEC0EFD1E90
:102E6000C701B6010E94AD4DC701B5010E94894C52
:102E70005C018E01095D1F4F2B893C89C801B4019B
:102E8000A3010E944B4DC501B8010E94894CBC01B1
:102E9000C4010E94904DC8010E94B54DC7010E9417
:102EA000BA4DC6010E94B54D29813A81C901880FEA
:102EB000991F820F931F880F991FE9ADFAAD058105
:102EC0001681080F191F8DE2E82EF12CEC0EFD1E65
:102ED000C7016BAD7CAD0E94AD4DC7016CE20E9495
:102EE000604CB2010E94894C6CE20E94604CB101BE
:102EF0000E94894C6CE20E94604CB4010E94894C93
:102F0000BC01C8010E94904DC7010E94BA4D10C07B
:102F10008E010D5C1F4FC801B401A90193010E94ED
:102F20004B4DC501B8010E94904DC8010E94B54D9E
:102F300011E001C010E0CE010F960E94B54DCE0108
:102F400009960E94B54DCE0103960E94B54D812F82
:102F5000ED960FB6F894DEBF0FBECDBFCF91DF91D7
:102F60001F910F91FF90EF90DF90CF90BF90AF90A7
:102F70009F908F907F906F905F904F903F902F9099
:102F800008950F931F93CF93DF938B01EA01C8013C
:102F9000BE010E94224AFC018081803221F0D7FDCF
:102FA00002C02197F4CFCE01DF91CF911F910F91F5
:102FB00008950F931F93CF93DF938B01EA01C8010C
:102FC000BE010E94224AFC018081803221F4D7FD9B
:102FD00002C02197F4CFCE01DF91CF911F910F91C5
:102FE00008950F931F93CF93DF938B01EA01C801DC
:102FF000BE010E94224AFC018081803249F4F8011E
:10300000848195810196C817D90710F42196EFCFD6
:10301000CE01DF91CF911F910F9108952F923F9292
:103020004F925F926F927F928F929F92AF92BF92D8
:10303000CF92DF92EF92FF920F931F93DF93CF9384
:10304000CDB7DEB7C254D0400FB6F894DEBF0FBE86
:10305000CDBF3C015B01CE01019660E072E00E94B1
:10306000BC4CC5016CE20E94EC4A7C018E01095FF8
:103070001F4FC801B50140E050E097010E944B4D41
:10308000C301C496B8010E94904DC8010E94B54D7D
:103090000894E11CF11CC5016CE2A7010E94CE4A14
:1030A0006C013CE1232E312C260C371C8E01035F72
:1030B0001F4FC801B501A70196010E944B4DC101E8
:1030C000B8010E94904DC8010E94B54D0894C11CE2
:1030D000D11CC5016CE2A6010E94CE4A7C012AE304
:1030E000822E912C860C971C8E010D5E1F4FC801FD
:1030F000B501A60197010E944B4DC401B8010E9481
:10310000904DC8010E94B54D9AE0492E512C460CB5
:10311000571C8FE1C82ED12CCC0EDD1EC60168E7EE
:1031200074E00E94D44C8E01075E1F4F0894E11C8E
:10313000F11CF50124813581C801B501A7010E9468
:103140004B4DC601B8010E94894CBC01C2010E94CE
:10315000904DC8010E94B54DC6010E94BA4DF301C1
:103160008685978595A384A3C20161E974E00E94D6
:10317000314C8E010B5D1F4FC801B2010E94A54D5D
:10318000C301B80140E050E02CDFF30193A382A318
:10319000C8010E94B54DF30182A193A197A386A314
:1031A0008DED97E060E142E020E00E947A278DED0E
:1031B00097E00E9474278DED97E060E040E00E9468
:1031C00046278DED97E0B4010E94A7488DED97E06A
:1031D00060E041E00E944627F30184A195A122A16D
:1031E00033A1821B930B26A137A140970CF10BE270
:1031F000E02EF12CEC0EFD1EC701B201A901215FEA
:103200003F4F0E944B4D8E010F5C1F4FC801B7010D
:103210000E94AD4DC8016EE30E94604CBC018DED73
:1032200097E00E94A748C8010E94BA4DC70110C08C
:103230008E01095C1F4FC801B201A901205F3F4FF9
:103240000E944B4D8DED97E0B8010E94A748C80140
:103250000E94B54DC10166EA74E00E94EF4A8823DE
:1032600019F081E090E009C0C10163E774E00E94B9
:10327000EF4A882351F083E090E0F3019087878341
:10328000C30160E00E94A80A4CC082E090E0F30114
:1032900090878783C30161E00E94A80A1DE3412E45
:1032A000512C4C0E5D1E06C0F30186A197A101961C
:1032B00097A386A3F30126A137A182A193A1281B7E
:1032C000390BC201B101A9012F5F3F4F0E944B4D45
:1032D000C20168E474E00E94EF4A882311F400E020
:1032E0000BC000E0F30182A193A10E9626A137A1A5
:1032F000821793070CF001E0C2010E94B54D002334
:1033000099F6F301818593012A5E3F4F882321F0CE
:10331000C90168E474E003C0C9016BEA74E00E946B
:10332000EC4CCE0101960E94B54DCE5BDF4F0FB63F
:10333000F894DEBF0FBECDBFCF91DF911F910F91EB
:10334000FF90EF90DF90CF90BF90AF909F908F90C5
:103350007F906F905F904F903F902F9008957F9255
:103360008F929F92AF92BF92CF92DF92EF92FF9295
:103370000F931F93DF93CF93CDB7DEB72C970FB684
:10338000F894DEBF0FBECDBF6C01762E4901580107
:103390004423F9F08DE098E0F601968385837E0161
:1033A0000894E11CF11CC701B9010E94A54DC70199
:1033B000602F00D8082FC7010E94B54D10E00A15F4
:1033C0001B0551F08EED92E169EA72E00E94D94846
:1033D00003C0FC01F682E582C6018E96B4010E940C
:1033E000904DF60114821382F1E0AF16B10419F08A
:1033F0000894A108B108F601B282A182F601718693
:1034000086E490E0C80ED91EF60110828AEB9FEF89
:10341000C80ED91E8E01095F1F4FF60165817681A6
:10342000C8010E94A54DC601B801F8DDC8010E947F
:10343000B54D2C960FB6F894DEBF0FBECDBFCF9121
:10344000DF911F910F91FF90EF90DF90CF90BF9091
:10345000AF909F908F907F900895CF92DF92EF92E0
:10346000FF920F931F93DF93CF93CDB7DEB7A4974F
:103470000FB6F894DEBF0FBECDBFCE01019660E05F
:1034800072E00E94BC4C8EED92E140E855E260E0B3
:1034900070E00E94E245CE0107966DEA74E00E945A
:1034A000BC4CCE010D9668EB74E00E94BC4CCE0182
:1034B000439663EC74E00E94BC4C85E361E00E949B
:1034C000774183EA9DE065E30E94E12C882329F49B
:1034D0008EED92E16DE272E004C08EED92E16AE160
:1034E00072E00E94D94881E00E94600B81E00E9456
:1034F000810A81E080933C0869E1C62ED12CCC0E74
:10350000DD1EC60160ED74E00E94BC4C8CE398E0C7
:1035100061E041E0960104E010E05DE0E52E58E056
:10352000F52E1DDFC6010E94B54D89E08093F70797
:1035300087E08093F6078DE28093F80780E180931F
:10354000F4078FE08093F3078BE18093F20782E02A
:103550008093F50782EF97E00E949525882339F044
:103560008EED92E16EEE71E00E94D9480EC08E01A0
:10357000015E1F4FC80168ED74E00E94BC4CC80199
:103580000E940703C8010E94B54DCE0143960E94D8
:10359000B54DCE010D960E94B54DCE0107960E9405
:1035A000B54DCE0101960E94B54DA4960FB6F89484
:1035B000DEBF0FBECDBFCF91DF911F910F91FF9066
:1035C000EF90DF90CF9008954F925F926F927F922D
:1035D0008F929F92AF92BF92CF92DF92EF92FF9223
:1035E0000F931F93DF93CF93CDB7DEB7E0970FB65E
:1035F000F894DEBF0FBECDBF3C01D62E7E010894ED
:10360000E11CF11CC70160E072E00E94BC4CCE01DD
:10361000079660E072E00E94BC4C1AE0412E512CEB
:10362000460C571CF30126A137A18E01035F1F4FE3
:10363000C801B201A9012E5F3F4F0E944B4DC70147
:10364000B8010E94904DC8010E94B54D8EED92E1E7
:10365000B7010E94EB48C7010E94374A4B015C0149
:103660008B01015010408EED92E1B8014AE050E02C
:103670000E94F249DD2041F00B3011051CF080E082
:1036800090E00AC0C40108C0101611061CF08BE0BF
:1036900090E002C0C8010197B7E08B2E912C8C0EF0
:1036A0009D1EBC01660F771F680F791F660F771F7D
:1036B0006D57774FC4010E94904D8EED92E1B40199
:1036C0000E94EB488EED92E16BEF74E00E940F4A8E
:1036D000F30166A177A18EED92E14AE050E00E94ED
:1036E000F2498EED92E167E075E00E940F4A8E018B
:1036F0000D5E1F4FF30126A137A1C801B20140E0C2
:1037000050E00E944B4D8EED92E1B8010E94A74817
:10371000C8010E94B54D8EED92E166E175E00E9410
:103720000F4A8E01075E1F4FF30146A157A14E5F5E
:103730005F4F26853785C801B2010E944B4D8EED43
:1037400092E1B8010E94A748C8010E94B54D8EEDD4
:1037500092E16DE275E00E94114AEFE1AE2EB12CCC
:10376000AC0EBD1EF30126A137A1C501B20140E098
:1037700050E00E944B4D75E2E72EF12CEC0EFD1E41
:10378000C701B5010E94AD4DC701B4010E94894C2B
:103790006C018E01055D1F4FF30146A157A14E5FDD
:1037A0005F4F26853785C801B2010E944B4DC60187
:1037B000B8010E94894CBC016E010894C11CD11C47
:1037C000C6010E94904DC8010E94B54DC7010E94DC
:1037D000BA4DC5010E94B54D8EED92E16DE275E0E6
:1037E0000E940F4A8EED92E1B2010E94A7488EED31
:1037F00092E16DE275E00E94114A8EED92E16DE278
:1038000075E00E940F4A8EED92E1B6010E94A74832
:103810008EED92E16DE275E00E94114AC201B6019F
:103820000E94904D8EED92E16DE275E00E940F4A8C
:103830008EED92E1B2010E94A7488EED92E16DE219
:1038400075E00E94114AC4010E94B54DC6010E9454
:10385000B54DE0960FB6F894DEBF0FBECDBFCF9149
:10386000DF911F910F91FF90EF90DF90CF90BF906D
:10387000AF909F908F907F906F905F904F90089542
:103880008F929F92AF92BF92CF92DF92EF92FF9270
:103890000F931F93DF93CF93CDB7DEB7CC5FD040AC
:1038A0000FB6F894DEBF0FBECDBF5C01DC01DC902B
:1038B000B1E0DB1609F048C6FC01878190858230B3
:1038C000910509F453C28330910509F463C401974B
:1038D00009F03AC6D50196968D909C909797809165
:1038E0003408909135088330910509F4EDC1843096
:1038F000910544F48130910509F4A8C1029709F0BB
:1039000023C6C4C08430910509F4EDC1059709F0C0
:103910001BC68AE0C82ED12CCA0CDB1C8E010F5F9F
:103920001F4FC801B6010E94A54DF50146A157A140
:10393000C80160E20E94CE4AD50197969C938E936F
:103940009697C8010E94B54DF50126A137A184A123
:1039500095A1281739071CF097A286A2F5C58E01FC
:10396000095F1F4FC801B6010E94A54DD50196966B
:103970004D915C919797C501B80133DBF50197A391
:1039800086A3C8010E94B54D8DED97E060E142E04D
:1039900020E00E947A278DED97E00E9474278DED3C
:1039A00097E060E040E00E944627B501665C7F4FEB
:1039B0008DED97E00E94A7488DED97E060E041E033
:1039C0000E944627D50196962D913C919797F90133
:1039D000709694968D919C91959792964D915C914D
:1039E0009397E817F9071CF54217530784F403E18E
:1039F000E02EF12CEC0EFD1EC7016CE30E94334D4E
:103A0000F50126A137A18E01035F1F4FDCC019E12C
:103A1000E12EF12CEC0EFD1EC701B601A901215FBC
:103A20003F4F0E944B4D8E01015E1F4F69C04217F0
:103A3000530744F5BBE2EB2EF12CEC0EFD1EC70143
:103A40006CE30E94334DD50196962D913C9197974A
:103A50008E010B5D1F4FC801B601A901215F3F4FC9
:103A60000E944B4DC701B8010E94894CBC018DEDED
:103A700097E00E94A748C8010E94B54DC7010E9467
:103A8000BA4D62C58E010F5C1F4FD4C08DED97E01B
:103A900060E142E020E00E947A278DED97E00E94ED
:103AA00074278DED97E060E040E00E944627B50165
:103AB000665C7F4F8DED97E00E94A7488DED97E003
:103AC00060E041E00E944627F50126A137A182A1CE
:103AD00093A1AAE0CA2ED12CCA0CDB1C8217930733
:103AE0000CF1F7E3EF2EF12CEC0EFD1EC701B60131
:103AF000A901215F3F4F0E944B4D8E01035C1F4F78
:103B0000C801B7010E94AD4DC8016EE30E94604C30
:103B1000BC018DED97E00E94A748C8010E94BA4DF4
:103B2000C701FCC48E010D5B1F4FC801B6010E9486
:103B3000A54DD50196964D915C9197974150504077
:103B4000C501B80136DAF50197A386A3C8010E9422
:103B5000B54D8E01075B1F4FC801B6010E94A54DF0
:103B6000D50196964D915C919797C501B80109DAF8
:103B70000196F50197A386A3C8010E94B54DD50112
:103B800096962D913C919797F901709694968D9108
:103B90009C91959792964D915C919397E817F907B0
:103BA0008CF542175307F4F4E5E5EE2EF12CEC0EFC
:103BB000FD1EC7016CE30E94334DF50126A137A11C
:103BC0008E01015B1F4FC801B601A901225F3F4F63
:103BD0000E944B4DC701B8010E94894C6EE30E94C0
:103BE000604C44CF7BE5E72EF12CEC0EFD1EC701A7
:103BF000B601A901215F3F4F0E944B4D8E010F5925
:103C00001F4F7ECF4217530794F46DE6E62EF12C3A
:103C1000EC0EFD1EC7016CE30E94334DD501969654
:103C20002D913C9197978E0109591F4F14CF8E010A
:103C30000D581F4FC801B601A9019F010E944B4DAD
:103C40008DED97E0B8010E94A74859C2F50191A6F1
:103C500080A65AE0E52EF12CEA0CFB1C8E010758D9
:103C60001F4FC801B7010E94A54DD50196964D91F1
:103C70005C919797C80160E20E94CE4AF50193A734
:103C800082A7C8010E94B54D8E0101581F4FD50172
:103C900098964D915C9199979A962D913C919B970E
:103CA000C801B7010E944B4DC501805C9F4FB80110
:103CB0000E94904DC8010E94B54DE6E4F0E0AE0EC2
:103CC000BF1ED501DC9240C4F5012381348121154A
:103CD000310509F439C421503040348323838E01E7
:103CE0000B571F4FA7C1D50113962D913C911497E7
:103CF00011968D919C9112972817390709F424C4C5
:103D00002F5F3F4F14963C932E9313978E010557C8
:103D10001F4FC901880F991F820F931F880F991F8A
:103D200015966D917C911697680F791FC8010E94B6
:103D3000A54DC501B80172D9C8010E94B54D8EEDDF
:103D400092E16FE275E00E94114AF501838194814E
:103D5000BC01660F771F680F791F660F771F635FBF
:103D6000774F8EED92E10E94EB48EEC3009134084C
:103D7000109135080530110509F042C0D50196961D
:103D80002D913C91979792968D919C9193970E9639
:103D90008217930734F02F5F3F4F97963C932E93F3
:103DA00096978501045E1F4FF50166A177A182A158
:103DB00093A1681B790BC8010E94224AFC018081F3
:103DC0008D3209F0AEC3D50196962D913C9197970F
:103DD00092968D919C9193970E96821793070CF46F
:103DE000A0C32F5F3F4F97963C932E939697DCCFBF
:103DF00021503040240F351FF50137A326A3A4C35B
:103E0000D50196966D917C91979792964D915C9184
:103E100093970230110579F54617570734F461502E
:103E2000704097967C936E9396978501045E1F4F22
:103E3000F50166A177A182A193A1681B790BC80146
:103E40000E94224AFC0180818D3209F07DC3D50198
:103E500096962D913C91979792968D919C919397E0
:103E6000821793070CF070C32150304097963C9313
:103E70002E939697DDCF8CE1882E912C8A0C9B1C7B
:103E8000641B750BC4010E94224AFC01E081ED36DF
:103E9000A1F4F5018185882309F056C3033011058B
:103EA00029F00430110509F02CC103C0C50161E0FF
:103EB00002C0C50160E088DB24C1E436B1F4D5015D
:103EC00019968C91882309F03FC30330110529F01E
:103ED0000430110509F015C103C0C50161E002C03D
:103EE000C50160E00E94B5090CC1E937A9F4F501EC
:103EF0008185882309F028C30330110529F0043097
:103F0000110509F0FEC003C0C50161E002C0C50192
:103F100060E00E94EB08F5C0E136B1F4D5011996D6
:103F20008C91882309F010C30330110529F0043067
:103F3000110509F0E6C003C0C50161E002C0C5017A
:103F400060E00E940708DDC0E834A9F4F50181852E
:103F5000882309F0F9C20330110529F00430110556
:103F600009F0CFC003C0C50161E002C0C50160E037
:103F70000E943D07C6C0ED34B1F4D50119968C916D
:103F8000882309F0E1C20330110529F0043011053E
:103F900009F0B7C003C0C50161E002C0C50160E01F
:103FA0000E947306AEC0E332A9F4F501818588232F
:103FB00009F0CAC20330110529F00430110509F0D7
:103FC000A0C003C0C50161E002C0C50160E00E945D
:103FD000A90597C0E334B1F4D50119968C918823D3
:103FE00009F0B2C20330110529F00430110509F0BF
:103FF00088C003C0C50161E002C0C50160E00E9445
:10400000C5047FC0E535B9F50330110529F004304A
:10401000110509F099C218C0F501238134812115D9
:10402000310509F491C221503040348323838E013D
:104030000F561F4FC901880F991F820F931F880FBA
:10404000991F6581768152C0D50113962D913C91BF
:10405000149711968D919C9112972817390709F49E
:1040600073C22F5F3F4F14963C932E9313978E018C
:1040700009561F4F30C0E43409F066C20330110501
:1040800029F00430110509F05FC20FC0F50123814A
:1040900034812115310509F457C221503040348351
:1040A00023838E0103561F4FC5CFD50113962D9143
:1040B0003C91149711968D919C911297281739076E
:1040C00009F442C22F5F3F4F14963C932E931397EF
:1040D0008E010D551F4FC901880F991F820F931F25
:1040E000880F991F15966D917C911697680F791F0F
:1040F000C8010E94A54DC501B8010E940E18C80153
:104100000DC27FEAC72ED12CCC0EDD1EB501665F35
:104110007F4FC6010E94A54DC6010E94484AF50185
:1041200023813481C901880F991F820F931F880F43
:10413000991F05811681080F191F49EAE42EF12CF9
:10414000EC0EFD1E24E330E0A20EB31EC701B50144
:104150000E94AD4DC7016CE20E94604CB4010E9408
:10416000894C6CE20E94604CA6E0B0E0AA0EBB1E37
:10417000B5010E94894C6CE20E94604CB6010E941D
:10418000894CBC01C8010E94904DC7010E94BA4DE4
:10419000C601C4C13FEA832E912C8C0E9D1EC40122
:1041A00060E072E00E94BC4C809134089091350828
:1041B0008330910509F46EC18430910524F402978F
:1041C00009F0A9C1FCC08430910509F480C10597AC
:1041D00009F0A1C1F50186A197A1409697A386A3F6
:1041E00024A135A12817390714F437A326A32AE000
:1041F000C22ED12CCA0CDB1CD50196966D917C91F8
:104200009797C6010E94224AFC0180818032F9F012
:10421000F50166A177A1C6010E94224AFC018081B6
:10422000803209F44EC0D50196962D913C91979716
:1042300092968D919C919397821793070CF041C0B1
:104240002150304097963C932E939697E1CFF501FD
:1042500066A177A1C6010E94224AFC0180818032BA
:1042600099F4D50196962D913C91979792968D91C0
:104270009C919397821793073CF421503040979676
:104280003C932E939697E3CFF50166A177A1C601E3
:104290000E94224AFC018081803299F0D5019696D5
:1042A0002D913C91979792968D919C91939782171F
:1042B00093073CF42150304097963C932E93969769
:1042C000E3CFF50126A137A182A193A144A155A175
:1042D00028173907F1F4F90170969FEA892E912C7D
:1042E0008C0E9D1EE417F50784F485EBE82EF12C67
:1042F000EC0EFD1EC701B601A901215F3F4F0E94D0
:104300004B4D8E0105541F4F80C08E010F531F4F20
:1043100090C02F5F3F4FD50197963C932E93969771
:10432000205F3F4F0FEA802E912C8C0E9D1E24178C
:104330003507F4F41DECE12EF12CEC0EFD1EC70147
:104340006CE30E94334DF50126A137A18E0109537C
:104350001F4FC801B601A901225F3F4F0E944B4D7C
:10436000C701B8010E94894C6EE30E94604C1CC0DA
:10437000B9EDEB2EF12CEC0EFD1EC7016CE30E9493
:10438000334DD50196962D913C9197978E010D5204
:104390001F4FC801B601A901215F3F4F0E944B4D3D
:1043A000C701B8010E94894CBC01C4010E94904D14
:1043B000C8010E94B54DC7010E94BA4D47C0D50142
:1043C00092962D913C91939797963C932E93969726
:1043D000F901709694968D919C919597AAE0CA2EBA
:1043E000D12CCA0CDB1CE817F90704F57FEDE72E8A
:1043F000F12CEC0EFD1EC701B601A901215F3F4F54
:104400000E944B4D8E010B511F4FC801B7010E94F6
:10441000AD4DC8016EE30E94604CBC01C4010E9416
:10442000904DC8010E94BA4DC7010EC08E010551C2
:104430001F4FC801B601A9019F010E944B4DC40145
:10444000B8010E94904DC8010E94B54D8DED97E0D6
:1044500060E142E020E04ED58DED97E045D58DED51
:1044600097E060E040E012D5EAE3F0E0AE0EBF1E58
:104470008DED97E0B5010E94A7488DED97E060E0D3
:1044800041E004D58DED97E0BE0161557F4F0E945C
:10449000A74841C0D50113962D913C911497211541
:1044A0003105C9F12150304014963C932E93139757
:1044B0008E010F501F4FC901880F991F820F931F44
:1044C000880F991F15966D917C91169718C0F5016C
:1044D000238134818181928128173907E1F02F5F90
:1044E0003F4F348323838E0109501F4FC901880F2A
:1044F000991F820F931F880F991F65817681680F1E
:10450000791FC8010E94A54DC501B8010E940E186F
:10451000C8010E94B54DCE0181559F4F0E94B54DF7
:1045200013C0D50192964D915C91939790962D91E1
:104530003C91919796968D919C919797841B950BA2
:104540008217930708F054CCC450DF4F0FB6F8948D
:10455000DEBF0FBECDBFCF91DF911F910F91FF90B6
:10456000EF90DF90CF90BF90AF909F908F90089585
:10457000CF92DF92EF92FF920F931F93DF93CF932F
:10458000CDB7DEB7C759D0400FB6F894DEBF0FBE27
:10459000CDBF8FE197E00E94963C80913108813039
:1045A00061F41092310860913408709135086115FA
:1045B000710519F08CE398E063D98091820881300D
:1045C00009F090C28AE698E060ED74E00E94EF4A3C
:1045D000882309F4A4C080E798E067E375E00E94AF
:1045E000EF4A882309F48DC08CE798E06DE375E00D
:1045F0000E94EF4A882309F461C062E0C62ED12CE4
:10460000CC0EDD1EC60161E475E00E94BC4C8CE35B
:1046100098E060E041E0960105E010E05DE0E52E05
:1046200058E0F52E0E94AF19C6010E94B54D8E01CB
:10463000085F1F4FC8016BE475E00E94BC4C8CE31F
:1046400098E06FEF77E0A80121E00E94B216C80160
:104650000E94B54D0EE0E02EF12CEC0EFD1EC701C0
:1046600069EF77E040E050E025E030E00E944B4DFC
:104670008E010C5E1F4FC80160E575E00E94BC4CC6
:104680008CE398E0B701A80121E00E94A315C801BE
:104690000E94B54DC7010E94B54D8E01065E1F4FA9
:1046A000C80165E575E00E94BC4C8CE398E065E0CC
:1046B00078E0A80121E00E94941411C28CE798E0F0
:1046C00069E575E00E94EF4A882329F08EED92E1BA
:1046D00060ED71E00CC08CE798E065E675E00E9443
:1046E000EF4A882339F08EED92E162EB71E00E948F
:1046F000D948F8C18E01005E1F4FC80161E775E01F
:10470000E9C18E010A5D1F4FC8016FEA75E00E9482
:10471000BC4CC8010E940703C8010E94B54D8AE63F
:1047200098E061E475E00E94EF4A882309F4CCC167
:104730008EED92E160E778E00E94EB4880E798E038
:1047400066EE75E00E94EF4A882309F47AC18CE78F
:1047500098E06DEE75E00E94EF4A882309F42DC1C0
:104760008EED92E169E971E00E94D9488EED92E107
:104770006CE871E00E94844860916713709168133F
:10478000CE0101966115710521F4BC016B56734190
:1047900004C09C01261B370BB9018EED92E14AE063
:1047A00050E00E949949CE018C9660E072E00E9430
:1047B000BC4C12E3C12ED12CCC0EDD1EC60160E034
:1047C00072E00E94BC4CCE01C89660E072E00E948C
:1047D000BC4CBEE3EB2EF12CEC0EFD1EC70160E0DD
:1047E00072E00E94BC4C8E010C5B1F4FC8016BE451
:1047F00075E00E94BC4C8CE398E0B601A80120E073
:104800000E94B216C8010E94B54D8E01065B1F4F73
:10481000C801B60140E050E022E030E00E944B4D7C
:10482000C701B8010E94904DC8010E94B54DC70153
:104830000E94374A6093F7078E01005B1F4FC80143
:10484000B60143E050E025E030E00E944B4DC70147
:10485000B8010E94904DC8010E94B54DC7010E9449
:10486000374A6093F6078E010A5A1F4F2EA93FA9B7
:10487000C801B60146E050E00E944B4DC701B801A7
:104880000E94904DC8010E94B54DC7010E94374A51
:10489000625B6093F8078E01045A1F4FC80160E500
:1048A00075E00E94BC4C8CE398E069EF77E0A801CA
:1048B00020E00E94A315C8010E94B54D8E010E593B
:1048C0001F4FC80169EF77E040E050E022E030E0A0
:1048D0000E944B4DC701B8010E94904DC8010E9433
:1048E000B54DC7010E94374A6093F4078E010859FD
:1048F0001F4FC80169EF77E043E050E025E030E06A
:104900000E944B4DC701B8010E94904DC8010E9402
:10491000B54DC7010E94374A6093F3071092F20722
:104920008E0102591F4FC80165E575E00E94BC4C1D
:104930008CE398E065E078E0A80120E00E94941400
:10494000C8010E94B54D00E010E0C801880F991F12
:10495000800F911F880F991F8B58924F65E078E068
:104960000E94454B882329F40F5F1F4F0730110524
:1049700061F70093F50782EF97E0D7D0882371F4B1
:104980008E010C581F4FC80164EF75E00E94BC4CAB
:10499000C8010E940703C8010E94B54DCE01CE9602
:1049A0000E94B54DCE01C8960E94B54DCE01C2966B
:1049B0000E94B54DCE018C9626C08CE798E065E04C
:1049C00076E00E94EF4A882309F18EED92E163E7D9
:1049D00071E00E94D948EAE7CE2ED12CCC0EDD1E24
:1049E000C60160ED74E00E94BC4C8CE398E061E08D
:1049F00041E0960104E010E07DE0E72E78E0F72E3C
:104A00000E94AF19C6010E94B54D45C08E010058E5
:104A10001F4FC8016CE076E00E94BC4CC8010E94A8
:104A20000703C8010E94B54D8EED92E16FE271E07F
:104A30000E9484488EED92E16CE778E00E94EB489A
:104A40002AC08E010A571F4FC8016FE476E00E940A
:104A5000BC4CC8010E940703C8010E94B54D8EEDF1
:104A600092E16CEE70E00E9484488EED92E160E786
:104A700078E00E94EB488EED92E164EE70E00E94D7
:104A8000844860917408709175088EED92E14AE057
:104A900050E00E9499496CE8C62ED12CCC0EDD1E48
:104AA000C60160ED74E00E94BC4C8CE398E061E0CC
:104AB00041E0960104E010E05DE0E52E58E0F52EBF
:104AC0000E94AF19C6010CC08E010E561F4FC801BF
:104AD00065E876E00E94BC4CC8010E940703C8014B
:104AE0000E94B54D10928208C956DF4F0FB6F89458
:104AF000DEBF0FBECDBFCF91DF911F910F91FF9011
:104B0000EF90DF90CF900895482F6AE00E94BF4E4B
:104B1000282F30E084E0220F331F8A95E1F7842F9D
:104B20000E94BF4E892F820F08950F931F938C010F
:104B30008BE390E168E670E00E943C3D8BE390E1FE
:104B400060E00E94BD3DF8018081DEDF682F8BE3CD
:104B500090E10E94BD3DF8018181D6DF682F8BE393
:104B600090E10E94BD3DF8018281CEDF682F8BE38A
:104B700090E10E94BD3DF8018381C6DF682F8BE381
:104B800090E10E94BD3DF8018481BEDF682F8BE378
:104B900090E10E94BD3DF8018581B6DF682F8BE36F
:104BA00090E10E94BD3DF80186818E51ADDF682FF6
:104BB0008BE390E10E94BD3D8BE390E10E94FE3DBE
:104BC000882321F01092A20D80E003C081E0809341
:104BD000A20D1F910F9108950F931F93CF93DF9311
:104BE000EC018BE390E168E670E00E943C3D8BE3D2
:104BF00090E160E00E94BD3D8BE390E10E94FE3DAC
:104C0000882319F01092A20D11C081E08093A20DAB
:104C10008BE390E168E670E047E050E00E940C3ED4
:104C20008BE390E10E94463D079714F480E065C055
:104C30008BE390E10E944F3D082F8F7782958F7014
:104C40001AE0819FC0011124202F2F70280F288384
:104C50008BE390E10E944F3D282F22952F70219FDA
:104C6000900111248F70820F89838BE390E10E9461
:104C70004F3D282F2F7322952F70219F90011124D3
:104C80008F70820F8A838BE390E10E944F3D282F23
:104C900022952F70219F900111248F70820F8B839A
:104CA0008BE390E10E944F3D282F22952F70219F8A
:104CB000900111248F70820F8C838BE390E10E940E
:104CC0004F3D282F22952F70219F900111248F7026
:104CD000820F8D838BE390E10E944F3D282F2F7030
:104CE000225E82958F70819FC0011124280F2E8330
:104CF000802F8095881F8827881FDF91CF911F9173
:104D00000F9108958BE390E10C940E3E0F931F9347
:104D10008C01FC01868160E00E942A4281E090E0E3
:104D20000E94D740F801868161E00E942A4281E01A
:104D300090E00E94D740F801868160E00E942A42FC
:104D400084E690E00E94D7401F910F910895CF9282
:104D5000DF92EF92FF920F931F93CF93DF93D82EA2
:104D6000C92E282F392FC9018C01C0E0D0E0E62ED2
:104D7000FF24F801878161E00E947741B7010C2E82
:104D800002C0759567950A94E2F76170F801878112
:104D90000E942A4221960F5F1F4FC830D10549F764
:104DA0008D2D9C2DB3DFDF91CF911F910F91FF903F
:104DB000EF90DF90CF900895CF92DF92EF92FF9225
:104DC0000F931F93CF93DF93D82EC92E282F392FFF
:104DD000C9018C01C0E0D0E0E62EFF24F8018781F4
:104DE00061E00E947741B7010C2E02C0759567956E
:104DF0000A94E2F76170F80187810E942A422196A5
:104E00000F5F1F4FC430D10549F78D2D9C2D7EDFDC
:104E1000DF91CF911F910F91FF90EF90DF90CF9096
:104E200008951F93CF93DF93EC01162F8C81642F8D
:104E30000E942A428D818F3F19F060E00E942A4231
:104E40008F8584FF04C0CE01612F81DF0CC0612FEC
:104E500070E084E0759567958A95E1F7CE01ACDF47
:104E6000CE01612FA9DFDF91CF911F91089541E01D
:104E7000D8DF81E090E0089540E0D3CFFC01608965
:104E8000862F8460808B6C60CF01F6CFDF93CF9349
:104E9000CDB7DEB728970FB6F894DEBF0FBECDBFF3
:104EA0009C01FE013196A4ECB6E088E00D900192E1
:104EB0008150E1F7F9018389481710F0482F4150DC
:104EC000E42FF0E0EE0FFF1FEC0FFD1F8181680F54
:104ED0006068C901D1DF28960FB6F894DEBF0FBE17
:104EE000CDBFCF91DF91089561E0C6DF80ED97E0FF
:104EF0000C94D740CF93DF93EC01423018F08F85AC
:104F000088608F874B8B1C8A222329F0413019F44B
:104F10008F8584608F8780E593EC0E94D7408C81D9
:104F200060E00E942A428E8160E00E942A428D81C8
:104F30008F3F19F060E00E942A426F8564FD19C01E
:104F4000CE0163E039DF84E991E10E94D740CE01D0
:104F500063E032DF84E991E10E94D740CE0163E053
:104F60002BDF86E990E00E94D740CE0162E024DF8B
:104F700013C06062CE0180DF84E991E10E94D740D6
:104F80006F856062CE0178DF86E990E00E94D740AD
:104F90006F856062CE0170DF6F856062CE016CDF6D
:104FA00084E0888BCE016ADFCE019EDF82E0898BB0
:104FB000CE0166E061DFDF91CF9108956F927F921D
:104FC0008F92AF92CF92EF920F931F93DF93CF9375
:104FD000CDB7DEB73C01162F842FF3014483258320
:104FE0000683E782C086A18682869E8593879F85F9
:104FF0009487988995879989968761E00E9477417F
:10500000F30185818F3F19F061E00E947741F30140
:10501000868161E00E947741112319F0F301178620
:1050200003C080E1F3018787C30160E141E020E034
:1050300061DFCF91DF911F910F91EF90CF90AF90F3
:105040008F907F906F9008958F92AF92CF92EF9252
:105050000F931F93CF93DF93DC01362F542F722FC2
:10506000102FAE2C8C2C13961C921E92129780EC53
:1050700096E011969C938E9300D00F92EDB7FEB7F9
:105080003196CDB7DEB71982118212821382CD011B
:1050900061E0432F2FEF052FE72EC12E8FDF0F90FA
:1050A0000F900F900F90DF91CF911F910F91EF9084
:1050B000CF90AF908F900895FC011382128288EEFA
:1050C00093E0A0E0B0E084839583A683B78380ED6E
:1050D00096E091838083128E118E14860895DF935B
:1050E000CF930F92CDB7DEB7FC016983A081B18168
:1050F00012962D913C911397BE016F5F7F4F41E057
:1051000050E0F90119950F90CF91DF910895DC01DE
:105110005996ED91FC915A97309719F420E030E0C0
:1051200018C0238934894589568982859385A48549
:10513000B585281B390B4A0B5B0B2030B0E83B07C9
:10514000B0E04B07B0E05B0720F02FEF3FE740E017
:1051500050E0C9010895DC015996ED91FC915A97F0
:10516000309711F480E008958581811181E00895E0
:10517000CF93DF93EC01898D9A8D009741F00E94C7
:105180004831898D9A8D0E94F9421A8E198EDF91CD
:10519000CF910895FC01818D928D009711F00C94B0
:1051A00000310895DF93CF930F92CDB7DEB7FC01A6
:1051B000818D928D009749F0BE016F5F7F4F41E076
:1051C00050E00E941A32019719F02FEF3FEF03C011
:1051D0008981282F30E0C9010F90CF91DF91089588
:1051E000EF92FF920F931F93DF93CF930F92CDB760
:1051F000DEB77C01DC0159968D919C915A970097FE
:1052000019F400E010E01EC0BE016F5F7F4F41E067
:1052100050E00E941A32019719F00FEF1FEF12C0F1
:105220008981082F10E0D7015996ED91FC915A978A
:10523000428553856485758541505040604070407B
:10524000CF0119D7C8010F90CF91DF911F910F9116
:10525000FF90EF900895CF93DF93EC01E98DFA8DE5
:10526000309761F013821282CF010E9457349C0163
:10527000E98DFA8D82819381892B31F081E090E074
:105280009B838A8320E030E0C901DF91CF910895AC
:10529000EF92FF920F931F93CF93DF93EC01F62EC3
:1052A000E72E8A011B821A8288EE93E0A0E0B0E02C
:1052B0008C839D83AE83BF8380ED96E09983888342
:1052C0008DE190E00E945C429A8F898F009791F067
:1052D000DC018F2D9E2D9C01F9018DE101900D9235
:1052E0008150E1F7CE010C96B8014CE050E00E94ED
:1052F0009E02188EDF91CF911F910F91FF90EF903A
:1053000008950F931F93CF93DF938C01FB01C0810E
:10531000D181FC01EC0FFD1F80818F3209F42196B1
:1053200098012C0F3D1FA0E0B0E00BC0FA01EA0F7E
:10533000FB1F8083119621962F5F3F4FAC30B10544
:1053400031F0F90180818F3211F0882379F7A40FB1
:10535000B51F1C92F801EC0FFD1F80818F3209F4FC
:105360002196FB01D183C083C00FD11F8881811199
:1053700081E0DF91CF911F910F9108951092A80DB8
:105380001092A90D1092AC0D1092AE0D82E090E03B
:10539000A0E0B0E08093AF0D9093B00DA093B10D5D
:1053A000B093B20D1092C60D1092D00D1092CF0D89
:1053B00080EE96E09093CE0D8093CD0D1092D20D9D
:1053C0000895EF92FF921F93DF93CF93CDB7DEB78F
:1053D0006D970FB6F894DEBF0FBECDBF9C01AB0139
:1053E0001C821B8280EE96E09A8389831E827E0156
:1053F0000894E11CF11CC701B90121E00E94793633
:10540000182F882311F0C70143D7812F6D960FB64F
:10541000F894DEBF0FBECDBFCF91DF911F91FF90FB
:10542000EF9008952F923F924F925F926F927F92EA
:105430008F929F92BF92CF92DF92EF92FF920F9343
:105440001F93DF93CF93CDB7DEB7C954D0400FB6CB
:10545000F894DEBF0FBECDBF1C017B012A013901CC
:105460001B8A1A8A80EE96E0998B888B1D8A18AA6F
:105470001FA69EA78DA71AAA1A8219828B0120E166
:10548000C22ED12CCC0EDD1E93E0892E912C8C0ED9
:105490009D1E03C0C80186016C01C101BE016F5F82
:1054A0007F4FA4012EDFB82E40E0882309F441E0AD
:1054B000C801B4019301F2011995882331F40E1546
:1054C0001F0501F1C801E4D61DC0BB20A1F0C60133
:1054D000B801A40121E00E947936B82E0E151F05EF
:1054E00011F0C801D5D6BB2069F00E151F0591F645
:1054F000CE018D96D0CF0E151F0511F0C801C8D66C
:1055000081E001C080E0C75BDF4F0FB6F894DEBFDB
:105510000FBECDBFCF91DF911F910F91FF90EF9004
:10552000DF90CF90BF909F908F907F906F905F9013
:105530004F903F902F9008959B01BC01665D7F4F77
:10554000C90141EE59E220E030E06CCF2F923F924A
:105550004F925F926F927F928F929F92AF92BF9283
:10556000CF92DF92EF92FF920F931F93DF93CF932F
:10557000CDB7DEB7C754D0400FB6F894DEBF0FBE2C
:10558000CDBF582E492EFB013A01190184A595A5DE
:10559000998B888B20EE36E03F872E8786A58A8BF5
:1055A00087A58B8B80A991A9A2A9B3A98C8B9D8B70
:1055B000AE8BBF8B84A995A9A6A9B7A9888F998F0F
:1055C000AA8FBB8F80AD91ADA2ADB3AD8C8F9D8FF7
:1055D000AE8FBF8F84AD88A3FD9681919191A191EB
:1055E000B19189A39AA3ABA3BCA381919191A191FD
:1055F000B1918DA39EA3AFA3B8A7808191819AA7F3
:1056000089A71EA61DA63CA72BA718AA7A018E0162
:10561000025F1F4F3BE2A32EB12CAC0EBD1E4E010C
:105620000894811C911C33C0D7018C918F3221F4D6
:105630000894E11CF11C2BC0422F4E194D3008F08C
:105640004CE0C42EDD24C401B701A6010E949E02D5
:10565000F401EC0DFD1D1082C5011AD6C501B8017B
:10566000A40121E00E947936882351F4E52DF42D20
:105670001382128280EE96E091838083158265C04A
:10568000EC0CFD1CC80104D6C50158018C01C701F2
:105690006FE270E00E9475029C01009729F6E618FF
:1056A000F708F101F182E082E52DF42DD801129680
:1056B0008D919C9113979383828380EE96E09183E2
:1056C000808314968C911497848315968C911597EA
:1056D000858316962D913D914D915C911997268366
:1056E0003783408751871A962D913D914D915C915A
:1056F0001D9722873387448755871E962D913D91AC
:105700004D915C91519726873787408B518B5296EC
:105710008C915297828B53962D913D914D915C9136
:105720005697238B348B458B568B57962D913D91F5
:105730004D915C915A97278B308F418F528F5B969A
:105740008D919C915C97948F838F852D942DC95B4F
:10575000DF4F0FB6F894DEBF0FBECDBFCF91DF9104
:105760001F910F91FF90EF90DF90CF90BF90AF907F
:105770009F908F907F906F905F904F903F902F9071
:1057800008959F92AF92BF92CF92DF92EF92FF92D5
:105790000F931F93DF93CF93CDB7DEB7C657D0409B
:1057A0000FB6F894DEBF0FBECDBFC82E992E8A016A
:1057B000D22E43E0A42EB12CAC0EBD1EC501A80113
:1057C0009E012F5F3F4FC2DEE980FA80E00EF11E9E
:1057D000F701808140EE56E02885882309F03FC01C
:1057E0008D819E819BA38AA359A348A38F818CA3FB
:1057F0002DA389859A85AB85BC858EA39FA3A8A779
:10580000B9A78D859E85AF85B8898AA79BA7ACA7C8
:10581000BDA789899A89AB89BC898EA79FA7A8ABA8
:10582000B9AB8D898AAB8E899F89A88DB98D8BABD9
:105830009CABADABBEAB8A8D9B8DAC8DBD8D8FAB64
:1058400098AFA9AFBAAF8E8D9F8D9CAF8BAF8C2DCB
:10585000992DBE01605E7F4F4DEA56E09CC0FE016F
:10586000FF96118210825EAF4DAFFE01EE5BFF4FDF
:1058700010822223A9F02250CE01CD96223048F486
:105880006DEC7DE0A7012D2D0E947936882371F4FF
:1058900007C0B501A7012D2D0E947936882321F478
:1058A0008C2D992D09DC78C0C501F2D4F6E0DF22F9
:1058B00051F0FE01E05BFF4F4081518162817381B5
:1058C000CE01CD96D8D39E01265A3F4FFE01FF96BA
:1058D00080819181F9019383828380EE96E09183A8
:1058E0008083FE01EF5BFF4F8081F9018483FE011D
:1058F000EE5BFF4F8081F9018583FE01ED5BFF4F79
:1059000080819181A281B381F90186839783A087E9
:10591000B187FE01E95BFF4F80819181A281B38154
:10592000F90182879387A487B587FE01E55BFF4F66
:1059300080819181A281B381F90186879787A08BAD
:10594000B18BFE01E15BFF4F8081F901828BFE018B
:10595000E05BFF4F80819181A281B381F901838B4C
:10596000948BA58BB68BFE01EC5AFF4F8081918101
:10597000A281B381F901878B908FA18FB28FFE0135
:10598000E85AFF4F80819181F901948F838F8C2D8C
:10599000992DB901A7017CDC8C2D992DCA58DF4FB8
:1059A0000FB6F894DEBF0FBECDBFCF91DF911F9130
:1059B0000F91FF90EF90DF90CF90BF90AF909F90AE
:1059C00008950F931F93CF93DF93EC01462F61E06F
:1059D00048D28823C9F08E01045F1F4FC801BE0161
:1059E00041E00E941238882339F4C801BE0140E02A
:1059F0000E941238882341F0CE018A96B80175D6EC
:105A0000882319F081E001C080E0DF91CF911F91E0
:105A10000F910895FC01673020F086E1858380E0D6
:105A20000895262F30E060FD02C0663019F48DB570
:105A30008E7F02C08DB581608DBD8CB58C7F8CBD95
:105A40004CB522FD02C090E001C092E0369527954A
:105A5000822F8170842B892B8CBD81E00895FF9269
:105A60000F931F93CF93DF938B010E94C940EB01EB
:105A7000FF24FA94FEBC0DB407FEFDCF8EB58F3F18
:105A800011F481E008C00E94C9406C1B7D0B6017B7
:105A9000710780F380E0DF91CF911F910F91FF900C
:105AA0000895FC01848160E00C942A42FC01848109
:105AB00061E00C942A42DC016EBDFA0120E030E086
:105AC0000DB407FEFDCF80818EBD0DB407FEFDCF66
:105AD00081818EBD2E5F3F4F329682E020303807A5
