:1000000006C1000031C100002FC100002DC1000059
:100010002BC1000029C1000027C1000025C100003C
:1000200023C1000021C100001FC100001DC100004C
:100030001BC1000019C1000017C1000015C100005C
:1000400013C1000011C100000FC100000DC100006C
:100050000BC1000009C1000007C100000C94E52994
:1000600003C100000C94F62C0C944A2EFDC0000035
:10007000FBC00000F9C00000F7C00000F5C00000A0
:10008000F3C00000F1C00000EFC00000EDC00000B0
:100090000C94362D0C94892EE7C000000C94342863
:1000A000E3C00000E1C00000DFC00000DDC00000D0
:1000B000DBC00000D9C00000D7C00000D5C00000E0
:1000C000D3C00000D1C00000CFC000000C94762D3A
:1000D0000C94C82EC9C000000C94B62D0C94072FA8
:1000E000C3C0000000002100240027002A002D00CA
:1000F0003000330001010000040107010A01000083
:100100002200250028002B002E00310034000201BF
:100110000000050108010B0100002000230026005B
:1001200029002C002F00320000010000030106010D
:10013000090105050505070508080808020202026D
:100140000A0A080804040404010101010101010173
:100150000303030303030303040707070C0C0C0C3E
:100160000C0C0C0C02020202060606060606060627
:100170000B0B0B0B0B0B0B0B0102102020080810B4
:100180002040102040800201020108040201010207
:1001900004081020408080402010080402018004E0
:1001A000020180402010080402010804020101023B
:1001B0000408102040800102040810204080000044
:1001C000090A02080B0C0D070603040100000000D9
:1001D000000000000000000000000000000000001F
:1001E0000000000000000000000011100F000000DF
:1001F00000000000000000000000000000000000FF
:10020000000000004508D623DA2678304008112483
:100210001FBECFEFD1E2DEBFCDBF00E00CBF18E0C4
:10022000A0E0B2E0E4E6F0E700E00BBF02C0079018
:100230000D92A039B107D9F71BBE12E1A0E9B8E0D1
:1002400001C01D92AC39B107E1F712E0CCE0D2E079
:1002500004C02297FE010E941738C430D107C9F7A5
:100260000E94AF310C942638CBCE1F93FC01992706
:100270008827BC01E89411911032E9F3193010F08D
:100280001E30C8F31B3249F01D3241F4689405C09A
:1002900064D0610F711D811D911D119110531A3091
:1002A000B8F33EF490958095709561957F4F8F4F90
:1002B0009F4F1F910895FB01DC0102C001900D9238
:1002C00041505040D8F70895FC018191861721F0E4
:1002D0008823D9F7992708953197CF010895FB0115
:1002E000DC018D91019080190110D9F3990B0895CB
:1002F000FB01DC0101900D920020E1F70895FB0164
:10030000DC014150504030F08D910190801919F47A
:100310000020B9F7881B990B0895FB019F01E89411
:100320004230C4F04532B4F44A3029F497FB1EF44D
:10033000909581959F4F642F77270E940138805DAB
:100340008A330CF0895D8193CB010097A1F716F4F5
:100350005DE251931082C9012AC0592F482F372FCF
:10036000262F660F771F881F991F660F771F881F1C
:10037000991F620F731F841F951F660F771F881FB9
:10038000991F0895FB019F01423074F0453264F4D7
:10039000642F77270E940138805D8A330CF0895DD5
:1003A0008193CB010097A1F71082C90100C0DC0145
:1003B000FC01672F71917723E1F7329704C07C919C
:1003C0006D9370836291AE17BF07C8F30895EF92E3
:1003D000FF920F931F937C0100E012E00A96B80190
:1003E0000E94BD35C7014096B8010E94BD35C701C6
:1003F0004696B8010E94BD35C7014C96B8010E94CF
:10040000BD35C7018E96B8010E94BD35C701C4969F
:10041000B8010E94BD35C701CA96B8010E94BD351A
:10042000C701805C9F4FB8010E94BD35F70117A23C
:1004300016A21F910F91FF90EF900895CF92EF9227
:100440000F93CF93DF938130910509F07CC56F5FE7
:100450007F4F09F00FC680E998E00E948B268EE45A
:1004600099E068E049E024E005E056E0E52E37E059
:10047000C32E0E945E258AE699E060E072E00E9449
:10048000BD3580E799E060E072E00E94BD3586E707
:1004900099E060E072E00E94BD358EE799E061E08E
:1004A00072E00E94BD3584E899E068E372E00E9442
:1004B000BD358AE899E061E872E00E94BD3580E9C7
:1004C00099E06AEC72E00E94BD3586E999E060EF40
:1004D00072E00E94BD358CE999E067E473E00E9408
:1004E000BD3582EA99E06BE773E00E94BD3588EA8A
:1004F00099E065EA73E00E94BD358EEA99E06DEC03
:1005000073E00E94BD358FEB99E061DF86E09AE0F1
:1005100066EF73E00E94BD358CE09AE069EF73E00E
:100520000E94BD3582E19AE06CEF73E00E94BD3518
:1005300088E19AE06FEF73E00E94BD358EE19AE0AA
:1005400062E074E00E94BD3584E29AE065E074E008
:100550000E94BD358AE29AE068E074E00E94BD35F1
:1005600080E39AE06BE074E00E94BD3586E39AE098
:100570006EE074E00E94BD358CE39AE061E174E0C6
:100580000E94BD3582E49AE064E174E00E94BD35CA
:1005900088E49AE067E174E00E94BD358EE49AE059
:1005A00066EF73E00E94BD3584E59AE069EF73E081
:1005B0000E94BD358AE59AE06CEF73E00E94BD357C
:1005C00080E69AE06FEF73E00E94BD3586E69AE020
:1005D00062E074E00E94BD358CE69AE065E074E06C
:1005E0000E94BD3582E79AE068E074E00E94BD3564
:1005F00088E79AE06BE074E00E94BD358EE79AE0F0
:100600006EE074E00E94BD3584E89AE061E174E038
:100610000E94BD358AE89AE064E174E00E94BD352D
:1006200080E99AE067E174E00E94BD3586E99AE0CE
:100630006AE174E00E94BD358CE99AE06DE174E0F6
:100640000E94BD3582EA9AE060E274E00E94BD3506
:1006500088EA9AE063E274E00E94BD358EEA9AE08F
:1006600066E274E00E94BD3584EB9AE069E274E0D2
:100670000E94BD358AEB9AE06CE274E00E94BD35C1
:1006800080EC9AE06FE274E00E94BD3586EC9AE05F
:1006900062E374E00E94BD358CEC9AE065E374E09F
:1006A0000E94BD3582ED9AE068E374E00E94BD359A
:1006B00088ED9AE06BE374E00E94BD358EED9AE020
:1006C0006EE374E00E94BD3584EE9AE061E474E06C
:1006D0000E94BD358AEE9AE064E474E00E94BD3564
:1006E00080EF9AE067E474E00E94BD3586EF9AE0FF
:1006F0006AE474E00E94BD358CEF9AE06DE474E02A
:100700000E94BD3582E09BE060E574E00E94BD354B
:1007100088E09BE063E574E00E94BD358EE09BE0DD
:1007200065E574E00E94BD3584E19BE067E574E017
:100730000E94BD358AE19BE069E574E00E94BD3509
:1007400080E29BE06BE574E00E94BD3586E29BE0B1
:100750006DE574E00E94BD358CE29BE06FE574E0CE
:100760000E94BD3582E39BE061E674E00E94BD35E6
:1007700088E39BE063E674E00E94BD358EE39BE076
:1007800065E674E00E94BD3584E49BE067E674E0B2
:100790000E94BD358AE49BE066EF73E00E94BD35A0
:1007A00080E59BE069EF73E00E94BD3586E59BE044
:1007B0006CEF73E00E94BD358CE59BE06FEF73E05A
:1007C0000E94BD3582E69BE062E074E00E94BD3588
:1007D00088E69BE065E074E00E94BD358EE69BE014
:1007E00068E074E00E94BD3584E79BE06BE074E054
:1007F0000E94BD358AE79BE06EE074E00E94BD3543
:1008000080E89BE061E174E00E94BD3586E89BE0F2
:1008100064E174E00E94BD358CE89BE067E174E020
:100820000E94BD3582E99BE06AE174E00E94BD351B
:1008300088E99BE06DE174E00E94BD358EE99BE0A4
:1008400060E274E00E94BD3584EA9BE063E274E0FC
:100850000E94BD358AEA9BE066E274E00E94BD35E5
:1008600080EB9BE069E274E00E94BD3586EB9BE083
:100870006CE274E00E94BD358CEB9BE06FE274E0AB
:100880000E94BD3582EC9BE062E374E00E94BD35BE
:1008900088EC9BE065E374E00E94BD358EEC9BE044
:1008A00068E374E00E94BD3584ED9BE067E674E088
:1008B0000E94BD358AED9BE066EF73E00E94BD3576
:1008C00080EE9BE069EF73E00E94BD3586EE9BE011
:1008D0006CEF73E00E94BD358CEE9BE06FEF73E030
:1008E0000E94BD3582EF9BE062E074E00E94BD355E
:1008F00088EF9BE065E074E00E94BD358EEF9BE0E1
:1009000068E074E00E94BD3584E09CE06BE074E038
:100910000E94BD358AE09CE06EE074E00E94BD3527
:1009200080E19CE061E174E00E94BD3586E19CE0DD
:1009300064E174E00E94BD358CE19CE067E174E005
:100940000E94BD3582E29CE06AE174E00E94BD3500
:1009500088E29CE06DE174E00E94BD358EE29CE08F
:1009600060E274E00E94BD3584E39CE063E274E0E1
:100970000E94BD358AE39CE066E274E00E94BD35CA
:1009800080E49CE069E274E00E94BD3586E49CE06E
:100990006CE274E00E94BD358CE49CE06FE274E090
:1009A0000E94BD3582E59CE062E374E00E94BD35A3
:1009B00088E59CE065E374E00E94BD358EE59CE02F
:1009C00068E374E00E94BD3584E69CE06BE374E06C
:1009D0000E94BD358AE69CE06EE374E00E94BD355E
:1009E00080E79CE061E474E00E94BD3586E79CE00E
:1009F00064E474E00E94BD358CE79CE067E474E039
:100A00000E94BD3582E89CE06AE474E00E94BD3536
:100A100088E89CE06DE474E00E94BD358EE89CE0BF
:100A200060E574E00E94BD3584E99CE06AE674E00C
:100A30000E94BD358AE99CE06DE674E00E94BD35F8
:100A400080EA9CE060E774E00E94BD3586EA9CE0A5
:100A500063E774E00E94BD358CEA9CE066E774E0D1
:100A60000E94BD3582EB9CE069E774E00E94BD35D1
:100A700088EB9CE06CE774E00E94BD358EEB9CE057
:100A80006FE774E00E94BD3584EC9CE062E874E09E
:100A90000E94BD358AEC9CE065E874E00E94BD359B
:100AA00080ED9CE068E874E00E94BD3586ED9CE036
:100AB0006BE874E00E94BD358CED9CE06EE874E05C
:100AC0000E94BD3582EE9CE061E974E00E94BD3574
:100AD00088EE9CE064E974E00E94BD358EEE9CE0F7
:100AE00067E974E00E94BD3584EF9CE06AE974E038
:100AF0000E94BD358AEF9CE06DE974E00E94BD352F
:100B000080E09DE060EA74E00E94BD3586E09DE0F3
:100B100063EA74E00E94BD358CE09DE066EA74E013
:100B20000E94BD3582E19DE069EA74E00E94BD3516
:100B300088E19DE06CEA74E00E94BD358EE19DE0A5
:100B40006FEA74E00E94BD3584E29DE062EB74E0E0
:100B50000E94BD358AE29DE065EB74E00E94BD35E0
:100B600080E39DE068EB74E00E94BD3586E39DE084
:100B70006BEB74E00E94BD358CE39DE063E574E0AF
:100B80000E94BD3582E49DE065E574E00E94BD35BC
:100B900088E49DE067E574E00E94BD358EE49DE049
:100BA00069E574E00E94BD3584E59DE06BE574E085
:100BB0000E94BD358AE59DE06DE574E00E94BD357B
:100BC00080E69DE06FE574E00E94BD3586E69DE01D
:100BD00061E674E00E94BD358CE69DE063E674E05A
:100BE0000E94BD3582E79DE065E674E00E94BD3558
:100BF00088E79DE06EEB74E00E94BD358EE79DE0D6
:100C000060EC74E00E94BD3584E89DE062EC74E025
:100C10000E94BD358AE89DE064EC74E00E94BD3519
:100C200080E99DE066EC74E00E94BD3586E99DE0B8
:100C300068EC74E00E94BD358CE99DE06AEC74E0DC
:100C40000E94BD3582EA9DE06CEC74E00E94BD35E7
:100C500088EA9DE06EEC74E00E94BD358EEA9DE06E
:100C600060ED74E00E94BD3584EB9DE062ED74E0C0
:100C70000E94BD358AEB9DE064ED74E00E94BD35B5
:100C800080EC9DE066ED74E00E94BD3586EC9DE051
:100C900068ED74E00E94BD358CEC9DE06AED74E077
:100CA0000E94BD3582ED9DE06CED74E00E94BD3583
:100CB00088ED9DE06EED74E00E94BD358EED9DE007
:100CC00060EE74E00E94BD3584EE9DE062EE74E05B
:100CD0000E94BD358AEE9DE064EE74E00E94BD3551
:100CE00080EF9DE066EE74E00E94BD3586EF9DE0EA
:100CF00068EE74E00E94BD358CEF9DE06AEE74E012
:100D00000E94BD3582E09EE06CEE74E00E94BD352D
:100D100088E09EE06EEE74E00E94BD358EE09EE0BD
:100D200060EF74E00E94BD3584E19EE062EF74E004
:100D30000E94BD358AE19EE064EF74E00E94BD35FB
:100D400080E29EE066EF74E00E94BD3586E29EE0A0
:100D500068EF74E00E94BD358CE29EE06AEF74E0BB
:100D60000E94BD3582E39EE06CEF74E00E94BD35C9
:100D700088E39EE06EEF74E00E94BD358EE39EE056
:100D800060E075E00E94BD3584E49EE062E075E0BD
:100D90000E94BD358AE49EE064E075E00E94BD35A6
:100DA00080E59EE066E075E00E94BD3586E59EE048
:100DB00068E075E00E94BD358CE59EE06AE075E074
:100DC0000E94BD3582E69EE06CE075E00E94BD3574
:100DD00088E69EE06EE075E00E94BD358EE69EE0FE
:100DE00060E175E00E94BD3584E79EE062E175E058
:100DF0000E94BD358AE79EE064E175E00E94BD3542
:100E000080E89EE066E175E00E94BD3586E89EE0E0
:100E100068E175E00E94BD358CE89EE06AE175E00E
:100E20000E94BD3582E99EE06CE175E00E94BD350F
:100E300088E99EE06EE175E00E94BD358EE99EE096
:100E400060E275E00E94BD3584EA9EE062E275E0F2
:100E50000E94BD358AEA9EE064E275E00E94BD35DD
:100E600080EB9EE063E574E00E94BD3586EB9EE07A
:100E700065E574E00E94BD358CEB9EE067E574E0AB
:100E80000E94BD3582EC9EE069E574E00E94BD35AC
:100E900088EC9EE06BE574E00E94BD358EEC9EE030
:100EA0006DE574E00E94BD3584ED9EE06FE574E071
:100EB0000E94BD358AED9EE061E674E00E94BD357A
:100EC00080EE9EE063E674E00E94BD3586EE9EE013
:100ED00065E674E00E94BD358CEE9EE066E275E04A
:100EE0000E94BD3582EF9EE068E275E00E94BD354C
:100EF00088EF9EE06AE275E00E94BD358EEF9EE0CD
:100F00006EE275E00E94BD3584E09FE062E375E02B
:100F10000E94BD358AE09FE066E375E00E94BD3522
:100F200080E19FE06AE375E00E94BD3586E19FE0C5
:100F30006EE375E00E94BD358CE19FE062E475E0F0
:100F40000E94BD3597C0892B09F094C06F5F7F4F19
:100F500009F090C0CCE1DFE0CE010E94B6362697C2
:100F60008EE0C23FD807C1F7C2EFDEE0CE010E949B
:100F7000B63626978DE0C237D807C1F7C2E7DDE065
:100F8000CE010E94B63626978DE0C633D807C1F74A
:100F9000C6E3DDE0CE010E94B63626978BE0CE3C5C
:100FA000D807C1F7CEECDBE0CE010E94B63626971B
:100FB0008BE0CE33D807C1F7CEE3DBE0CE010E9451
:100FC000B63626978BE0C230D807C1F7C2E0DBE027
:100FD000CE010E94B63626978AE0C834D807C1F7FA
:100FE000C8E4DAE0CE010E94B63626978AE0C03027
:100FF000D807C1F78FEF99E00E94B63689EF99E0E4
:101000000E94B63683EF99E00E94B6368DEE99E0E5
:101010000E94B6368BED99E00E94B63685ED99E0D8
:101020000E94B6368FEC99E00E94B63689EC99E0C2
:101030000E94B636CEEAD9E0CE010E94B636269797
:1010400089E0C039D807C1F7C0E9D9E0CE010E94D4
:10105000B636269789E0C837D807C1F786E799E002
:101060000E94B63680E799E00E94B6368AE699E09B
:101070000E94B636DF91CF910F91EF90CF900895F7
:1010800080E090E06FEF7FEFD9C981E090E06FEFF3
:101090007FEFD4C9BC018FE092E10C941932EF923A
:1010A000FF920F931F93DF93CF93CDB7DEB7C25755
:1010B000D0400FB6F894DEBF0FBECDBF83E699E0F7
:1010C0000E944C23882309F47DC1CE01019660E083
:1010D00072E00E94BD35B7E0EB2EF12CEC0EFD1E48
:1010E000C70160E072E00E94BD358E01035F1F4FB3
:1010F000C801609165094AE00E940436C701B80141
:101100000E949136C8010E94B6368B859C85019756
:1011100091F48E010D5E1F4FC80160E30E943436CA
:10112000C801B7010E948A35BC01C7010E949136EF
:10113000C8010E94BB368E01075E1F4FA7E0EA2E52
:10114000F12CEC0EFD1EC801B7010E94AE36C8019D
:1011500066E475E00E947035BC018AE699E00E9461
:101160009136C8010E94BB368E01015E1F4FC80137
:10117000609164094AE00E940436C701B8010E94E8
:101180009136C8010E94B6368B859C85019791F4F3
:101190008E010B5D1F4FC80160E30E943436C80109
:1011A000B7010E948A35BC01C7010E949136C8016F
:1011B0000E94BB368E01055D1F4FC8016AE679E0CB
:1011C0000E94AE36F7E0EF2EF12CEC0EFD1EC801AA
:1011D000B7010E948A3566E475E00E947035BC0153
:1011E0008AE699E00E949136C8010E94BB368E01C2
:1011F0000F5C1F4FC801609163094AE00E940436EA
:10120000C701B8010E949136C8010E94B6368B858D
:101210009C85019791F48E01095C1F4FC80160E322
:101220000E943436C801B7010E948A35BC01C7014B
:101230000E949136C8010E94BB368E01035C1F4F8D
:10124000C8016AE679E00E94AE36E7E0EE2EF12CA6
:10125000EC0EFD1EC801B7010E948A35BC018AE66A
:1012600099E00E949136C8010E94BB368E010D5B49
:101270001F4FC801609168094AE00E940436C70107
:10128000B8010E949136C8010E94B6368B859C85B4
:10129000019791F48E01075B1F4FC80160E30E9424
:1012A0003436C801B7010E948A35BC01C7010E94CB
:1012B0009136C8010E94BB368E01015B1F4F77E05B
:1012C000E72EF12CEC0EFD1EC801B7010E94AE36D0
:1012D000C80168E475E00E947035BC0180E799E0C0
:1012E0000E949136C8010E94BB368E010B5A1F4FD7
:1012F000C801609167094AE00E940436C701B8013D
:101300000E949136C8010E94B6368B859C85019754
:1013100091F48E01055A1F4FC80160E30E943436D4
:10132000C801B7010E948A35BC01C7010E949136ED
:10133000C8010E94BB368E010F591F4FC80160E7DC
:1013400079E00E94AE3667E0E62EF12CEC0EFD1E31
:10135000C801B7010E948A3568E475E00E947035C3
:10136000BC0180E799E00E949136C8010E94BB361B
:101370008E0109591F4FC80160E779E00E94AE361F
:101380006091690970E06E54784FC8010E9452352F
:10139000BC0180E799E00E949136C8010E94BB36EB
:1013A0006091660986E0689FB00111246850714F12
:1013B00086E799E00E949136C7010E94B636CE01B9
:1013C000019616C08091250F882339F08FE092E1B5
:1013D0006AE475E00E943F330DC08E0103591F4F30
:1013E000C80169E775E00E94BD35C80153DEC80138
:1013F0000E94B636CE58DF4F0FB6F894DEBF0FBE50
:10140000CDBFCF91DF911F910F91FF90EF90089585
:101410004F925F926F927F928F929F92AF92BF9204
:10142000CF92DF92EF92FF920F931F93DF93CF93B0
:10143000CDB7DEB7A4970FB6F894DEBF0FBECDBF11
:101440003C01A62E8E010F5F1F4FC80160E072E0C5
:101450000E94BD35CE01079660E072E00E94BD3566
:10146000BAE04B2E512C460C571CF30126A137A194
:10147000ADE0EA2EF12CEC0EFD1EC701B201A90170
:101480002F5F3F4F0E944C36C801B7010E94913632
:10149000C7010E94B636EE24FF24C02E012FB701EB
:1014A000660F771F6E0D7F1D660F771F6858724F8E
:1014B0008C2D902F0E944634882341F4F0E4EF16DF
:1014C000F10421F00894E11CF11CE9CFAA2051F0AD
:1014D0008FE3E816F1041CF080E090E00BC0C70138
:1014E000019608C0E114F10419F48FE390E002C002
:1014F000C701019757E0852E912C8C0E9D1EBC01D3
:10150000660F771F680F791F660F771F6858724F35
:10151000C4010E94913623E1A22EB12CAC0EBD1E57
:10152000F30126A137A1C501B20140E050E00E94BD
:101530004C3699E1C92ED12CCC0EDD1EC601B50169
:101540000E94AE36C601B4010E948A358C018FE13B
:10155000E82EF12CEC0EFD1EF30146A157A14F5FC2
:101560005F4F26853785C701B2010E944C36C801FE
:10157000B7010E948A35BC018E010F5F1F4FC80161
:101580000E949136C7010E94B636C6010E94BB3642
:10159000C5010E94B636C201B8010E949136C4014D
:1015A0000E94B636C8010E94B636A4960FB6F894CB
:1015B000DEBF0FBECDBFCF91DF911F910F91FF9086
:1015C000EF90DF90CF90BF90AF909F908F907F90E3
:1015D0006F905F904F9008954F925F926F927F92BD
:1015E0008F929F92AF92BF92CF92DF92EF92FF9233
:1015F0000F931F93DF93CF93CDB7DEB7A4970FB6AA
:10160000F894DEBF0FBECDBF3C01D62E7E010894FC
:10161000E11CF11CC70160E072E00E94BD35CE0103
:10162000079660E072E00E94BD356AE0462E512CBC
:10163000460C571CF30126A137A18E01035F1F4FF3
:10164000C801B201A9012F5F3F4F0E944C36C7016C
:10165000B8010E949136C8010E94B636C7010E94A7
:101660006533DD2049F0693071051CF080E090E0C1
:101670000BC0CB01019608C0161617061CF089E0B6
:1016800090E002C0CB01019757E0852E912C8C0E83
:101690009D1EBC01660F771F680F791F660F771FAD
:1016A000645C724FC4010E94913623E1A22EB12CDA
:1016B000AC0EBD1EF30126A137A1C501B20140E069
:1016C00050E00E944C3699E1C92ED12CCC0EDD1E83
:1016D000C601B5010E94AE36C601B4010E948A352A
:1016E0008C018FE1E82EF12CEC0EFD1EF30146A1DA
:1016F00057A14F5F5F4F26853785C701B2010E9412
:101700004C36C801B7010E948A35BC018E010F5FBB
:101710001F4FC8010E949136C7010E94B636C6010C
:101720000E94BB36C5010E94B636C201B8010E94B4
:101730009136C4010E94B636C8010E94B636A496FE
:101740000FB6F894DEBF0FBECDBFCF91DF911F91D2
:101750000F91FF90EF90DF90CF90BF90AF909F9050
:101760008F907F906F905F904F9008954F925F920F
:101770006F927F928F929F92AF92BF92CF92DF92A1
:10178000EF92FF920F931F93DF93CF93CDB7DEB706
:10179000A4970FB6F894DEBF0FBECDBF3C01D62E86
:1017A0007E010894E11CF11CC70160E072E00E9418
:1017B000BD35CE01079660E072E00E94BD350AE0BB
:1017C000402E512C460C571CF30126A137A18E0147
:1017D000035F1F4FC801B201A9012E5F3F4F0E9456
:1017E0004C36C701B8010E949136C8010E94B63636
:1017F000C7010E946533DD2049F06B3371051CF091
:1018000080E090E00BC0CB01019608C016161706C9
:101810001CF08BE390E002C0CB01019717E0812E12
:10182000912C8C0E9D1EBC01660F771F680F791FCF
:10183000660F771F6C52744FC4010E949136F3E11A
:10184000AF2EB12CAC0EBD1EF30126A137A1C501F0
:10185000B20140E050E00E944C36E9E1CE2ED12C9E
:10186000CC0EDD1EC601B5010E94AE36C601B40124
:101870000E948A358C017FE1E72EF12CEC0EFD1ED3
:10188000F30146A157A14E5F5F4F26853785C701FB
:10189000B2010E944C36C801B7010E948A35BC01D2
:1018A0008E010F5F1F4FC8010E949136C7010E9431
:1018B000B636C6010E94BB36C5010E94B636C201CB
:1018C000B8010E949136C4010E94B636C8010E9438
:1018D000B636A4960FB6F894DEBF0FBECDBFCF913B
:1018E000DF911F910F91FF90EF90DF90CF90BF900D
:1018F000AF909F908F907F906F905F904F900895E2
:101900004F925F926F927F928F929F92AF92BF920F
:10191000CF92DF92EF92FF920F931F93DF93CF93BB
:10192000CDB7DEB7A4970FB6F894DEBF0FBECDBF1C
:101930003C01D62E7E010894E11CF11CC70160E039
:1019400072E00E94BD35CE01079660E072E00E9411
:10195000BD356AE0462E512C460C571CF30126A1DA
:1019600037A18E01035F1F4FC801B201A9012E5F8D
:101970003F4F0E944C36C701B8010E949136C80102
:101980000E94B636C7010E946533DD2049F06731F9
:1019900071051CF080E090E00BC0CB01019608C0FF
:1019A000161617061CF087E190E002C0CB010197E4
:1019B00057E0852E912C8C0E9D1EBC01660F771F63
:1019C000680F791F660F771F6C5B744FC4010E940C
:1019D000913623E1A22EB12CAC0EBD1EF30126A13F
:1019E00037A1C501B20140E050E00E944C3699E1B8
:1019F000C92ED12CCC0EDD1EC601B5010E94AE361B
:101A0000C601B4010E948A358C018FE1E82EF12CC9
:101A1000EC0EFD1EF30146A157A14E5F5F4F2685D8
:101A20003785C701B2010E944C36C801B7010E9438
:101A30008A35BC018E010F5F1F4FC8010E9491368D
:101A4000C7010E94B636C6010E94BB36C5010E947E
:101A5000B636C201B8010E949136C4010E94B63662
:101A6000C8010E94B636A4960FB6F894DEBF0FBE2A
:101A7000CDBFCF91DF911F910F91FF90EF90DF903D
:101A8000CF90BF90AF909F908F907F906F905F901E
:101A90004F9008954F925F926F927F928F929F9294
:101AA000AF92BF92CF92DF92EF92FF920F931F936C
:101AB000DF93CF93CDB7DEB7A4970FB6F894DEBF10
:101AC0000FBECDBF3C01A62E8E010F5F1F4FC80178
:101AD00060E072E00E94BD35CE01079660E072E0E2
:101AE0000E94BD355AE0452E512C460C571CF3017F
:101AF00026A137A14DE0E42EF12CEC0EFD1EC7010E
:101B0000B201A9012D5F3F4F0E944C36C801B701B9
:101B10000E949136C7010E94B636EE24FF24C02EE3
:101B2000012FB701660F771F6E0D7F1D660F771FA0
:101B30006850714F8C2D902F0E944634882341F4B9
:101B4000F6E0EF16F10421F00894E11CF11CE9CF56
:101B5000AA2051F086E0E816F1041CF080E090E045
:101B60000BC0C701019608C0E114F10419F486E026
:101B700090E002C0C701019717E0812E912C8C0ED6
:101B80009D1EBC01660F771F680F791F660F771FB8
:101B90006850714FC4010E949136F3E1AF2EB12C11
:101BA000AC0EBD1EF30126A137A1C501B20140E074
:101BB00050E00E944C36E9E1CE2ED12CCC0EDD1E39
:101BC000C601B5010E94AE36C601B4010E948A3535
:101BD0008C017FE1E72EF12CEC0EFD1EF30146A1F6
:101BE00057A14D5F5F4F26853785C701B2010E941F
:101BF0004C36C801B7010E948A35BC018E010F5FC7
:101C00001F4FC8010E949136C7010E94B636C60117
:101C10000E94BB36C5010E94B636C201B8010E94BF
:101C20009136C4010E94B636C8010E94B636A49609
:101C30000FB6F894DEBF0FBECDBFCF91DF911F91DD
:101C40000F91FF90EF90DF90CF90BF90AF909F905B
:101C50008F907F906F905F904F9008954F925F921A
:101C60006F927F928F929F92AF92BF92CF92DF92AC
:101C7000EF92FF920F931F93DF93CF93CDB7DEB711
:101C8000A4970FB6F894DEBF0FBECDBF3C01D62E91
:101C90007E010894E11CF11CC70160E072E00E9423
:101CA000BD35CE01079660E072E00E94BD351AE0B6
:101CB000412E512C460C571CF30126A137A18E0151
:101CC000035F1F4FC801B201A9012F5F3F4F0E9460
:101CD0004C36C701B8010E949136C8010E94B63641
:101CE000C7010E946533DD2049F0693071051CF0A1
:101CF00080E090E00BC0CB01019608C016161706D5
:101D00001CF089E090E002C0CB010197B7E08B2E78
:101D1000912C8C0E9D1EBC01660F771F680F791FDA
:101D2000660F771F685F744FC4010E949136E3E12C
:101D3000AE2EB12CAC0EBD1EF30126A137A1C501FC
:101D4000B20140E050E00E944C3679E1C72ED12C20
:101D5000CC0EDD1EC601B5010E94AE36C601B4012F
:101D60000E948A358C016FE1E62EF12CEC0EFD1EEF
:101D7000F30146A157A14F5F5F4F26853785C70105
:101D8000B2010E944C36C801B7010E948A35BC01DD
:101D90008E010F5F1F4FC8010E949136C7010E943C
:101DA000B636C6010E94BB36C5010E94B636C201D6
:101DB000B8010E949136C4010E94B636C8010E9443
:101DC000B636A4960FB6F894DEBF0FBECDBFCF9146
:101DD000DF911F910F91FF90EF90DF90CF90BF9018
:101DE000AF909F908F907F906F905F904F900895ED
:101DF0004F925F926F927F928F929F92AF92BF921B
:101E0000CF92DF92EF92FF920F931F93DF93CF93C6
:101E1000CDB7DEB7A4970FB6F894DEBF0FBECDBF27
:101E20003C01D62E7E010894E11CF11CC70160E044
:101E300072E00E94BD35CE01079660E072E00E941C
:101E4000BD356AE0462E512C460C571CF30126A1E5
:101E500037A18E01035F1F4FC801B201A9012E5F98
:101E60003F4F0E944C36C701B8010E949136C8010D
:101E70000E94B636C7010E9465339B012150304055
:101E8000DD2041F02E3131051CF080E090E00AC0E9
:101E9000CB0108C0121613061CF08EE190E002C0C0
:101EA000C901019757E0852E912C8C0E9D1EBC0117
:101EB000660F771F680F791F660F771F625B754F7C
:101EC000C4010E94913623E1A22EB12CAC0EBD1E9E
:101ED000F30126A137A1C501B20140E050E00E9404
:101EE0004C3699E1C92ED12CCC0EDD1EC601B501B0
:101EF0000E94AE36C601B4010E948A358C018FE182
:101F0000E82EF12CEC0EFD1EF30146A157A14E5F09
:101F10005F4F26853785C701B2010E944C36C80144
:101F2000B7010E948A35BC018E010F5F1F4FC801A7
:101F30000E949136C7010E94B636C6010E94BB3688
:101F4000C5010E94B636C201B8010E949136C40193
:101F50000E94B636C8010E94B636A4960FB6F89411
:101F6000DEBF0FBECDBFCF91DF911F910F91FF90CC
:101F7000EF90DF90CF90BF90AF909F908F907F9029
:101F80006F905F904F9008950F931F938823D1F027
:101F900080E998E048EE53E060E070E02FE438E03C
:101FA00003E010E00E947E26992787FD909590938C
:101FB0007D0980937C098FE092E169EA75E00E94D7
:101FC0003F3306C080E998E060917C090E94E425D7
:101FD0001F910F9108950F931F938091220F6623F5
:101FE000C9F0882309F580E998E044EF51E060E00A
:101FF00070E020E931E102E010E00E947E2699279E
:1020000087FD90959093240F8093230F81E0809318
:10201000220F0AC0813041F480E998E06091230FDB
:102020000E94E4251092220F1F910F910895809134
:10203000B5099091B6099093BA098093B90980E0E7
:102040000E94A72A9C019093B6098093B5094091FC
:10205000B9095091BA09841B950B05960B9798F511
:1020600081E08093B409C9018C589040099718F415
:1020700083E090E01EC0C90185549140099718F48F
:1020800084E090E016C0C9010496099718F485E031
:1020900090E00FC0C901855F9140099718F482E074
:1020A00090E007C0225E32402930310538F481E0EB
:1020B00090E09093B8098093B70908951092B809F9
:1020C0001092B70904C05093B6094093B509109215
:1020D000B40908950F931F938091B5099091B609A3
:1020E0009093BA098093B90980E00E94A72A90933F
:1020F000B6098093B5092091B9093091BA09821BBC
:10210000930B97FF03C0909581959F4F0597A4F07F
:1021100080E998E04AE050E060E070E027E130E1DB
:1021200005E010E00E947126992787FD9095909315
:10213000BE098093BD0904C03093B6092093B50948
:102140001F910F9108950F931F93882351F18FEFE3
:1021500093E09093B6098093B50980E998E044E153
:1021600050E060E070E02AE630E102E010E00E941A
:102170007E26992787FD90959093BC098093BB0993
:102180008FE092E16EEB75E00E943D338FE092E1CB
:1021900044E150E060E070E02AE030E00E94B532B7
:1021A00006C080E998E06091BB090E94E4251F9178
:1021B0000F9108954F925F926F927F928F929F92AC
:1021C000AF92BF92CF92DF92EF92FF920F931F9345
:1021D000DF93CF93CDB7DEB768970FB6F894DEBF25
:1021E0000FBECDBF3C018EE499E060E142E020E00B
:1021F0000E94C0248EE499E00E94BB248EE499E002
:1022000060E040E00E948D24B301665C7F4F8EE465
:1022100099E00E94E7318EE499E060E041E00E949D
:102220008D2480915808BAE04B2E512C460C571C37
:10223000F30142A153A1882309F446C0A0E18A2EEC
:10224000912C860C971C26A137A16E010894C11C05
:10225000D11CC601B2010E944C3677E0E72EF12C6A
:10226000EC0EFD1EC701B6010E94AE36B3016A5ED8
:102270007F4FC7010E948A355C018E01035F1F4FAB
:10228000F30146A157A14F5F5F4F24A135A1C801BB
:10229000B2010E944C36C501B8010E948A35BC01CA
:1022A000C4010E949136C8010E94B636C7010E943F
:1022B000BB36C6010E94B6368EE499E0B4010E9496
:1022C000E7311092580815C08E010D5E1F4FF301C3
:1022D00024A135A1C801B2010E944C368EE499E0D8
:1022E000B8010E94E731C8010E94B63681E08093B0
:1022F000580868960FB6F894DEBF0FBECDBFCF91D9
:10230000DF911F910F91FF90EF90DF90CF90BF90E2
:10231000AF909F908F907F906F905F904F900895B7
:102320008FEB99E047CF2F923F924F925F926F923F
:102330007F928F929F92AF92BF92CF92DF92EF9255
:10234000FF920F931F93DF93CF93CDB7DEB76697BE
:102350000FB6F894DEBF0FBECDBF2C016B013A0162
:102360003C8B2B8B1801FE8AED8ADA011D921C92A0
:1023700001E010E01FC0F301808191819C01220FD8
:10238000331F280F391F220F331FD20115968D914D
:102390009C911697820F931FB6010E947E34F30121
:1023A00040815181882381F44F5F5F4F5183408387
:1023B0000F5F1F4FD20111968D919C91129780173C
:1023C0009107CCF680E0A3C09A01220F331F240F9F
:1023D000351F220F331FF20185819681820F931FD3
:1023E0006CE20E94ED335C010894A11CB11CD30186
:1023F0008D919C919C01220F331F280F391F220FB2
:10240000331FF20185819681820F931F6CE2A50133
:102410000E94CF336C014C010894811C911CD301A4
:102420008D919C919C01220F331F280F391F220F81
:10243000331FF20185819681820F931F6CE2A40104
:102440000E94CF337C01D3012D913C91C901880FAB
:10245000991F820F931F880F991FF2016581768162
:10246000680F791F8E010F5F1F4FC801A5019601EC
:102470000E944C36C101B8010E949136C8010E94E9
:10248000B6368E01095F1F4FD3012D913C91C901D2
:10249000880F991F820F931F880F991FF201658182
:1024A0007681680F791FC801A40197010E944C36FC
:1024B0008B899C89B8010E949136C8010E94B6366A
:1024C000D3012D913C91C901880F991F820F931F51
:1024D000880F991FD2011596ED91FC911697E80F80
:1024E000F91F8E01035F1F4F0894E11CF11C24812A
:1024F0003581C801BF01A7010E944C368D899E8994
:10250000B8010E949136C8010E94B63681E06696F5
:102510000FB6F894DEBF0FBECDBFCF91DF911F91F4
:102520000F91FF90EF90DF90CF90BF90AF909F9072
:102530008F907F906F905F904F903F902F90089575
:102540002F923F924F925F926F927F928F929F92C3
:10255000AF92BF92CF92DF92EF92FF920F931F93B1
:10256000DF93CF93CDB7DEB7ED970FB6F894DEBF0C
:102570000FBECDBF9AAF89AF5B015CAF4BAF2DAF44
:102580001A82198283E0282E312C2C0E3D1EC101A7
:1025900060E072E00E94BD3509E0402E512C4C0EE7
:1025A0005D1EC20160E072E00E94BD351FE0812E19
:1025B000912C8C0E9D1EC40160E072E00E94BD351E
:1025C000B5E1CB2ED12CCC0EDD1EC6016BAD7CADA2
:1025D0000E94A63689AD9AADB601AE014F5F5F4F3E
:1025E0009101820174019FDE182FC6010E94B63648
:1025F000112309F48DC0C20161E60E94ED339C01F4
:102600008FEF2F3F380709F483C0A3E06A2E712CA7
:10261000620E731EEDADEE2309F468C0FBE1CF2E10
:10262000D12CCC0EDD1EC601B40140E050E00E946A
:102630004C36E1E2EE2EF12CEC0EFD1EC701B60188
:102640000E94AE36C701B5010E948A355C018E0139
:10265000095D1F4F2B893C89C801B401A3010E9469
:102660004C36C501B8010E948A35BC01C4010E94E4
:102670009136C8010E94B636C7010E94BB36C6011A
:102680000E94B63629813A81C901880F991F820FAD
:10269000931F880F991FE9ADFAAD05811681080FC8
:1026A000191F5DE2E52EF12CEC0EFD1EC7016BAD8E
:1026B0007CAD0E94AE36C7016CE20E946135B2016A
:1026C0000E948A356CE20E946135B1010E948A3510
:1026D0006CE20E946135B4010E948A35BC01C801D8
:1026E0000E949136C7010E94BB3610C08E010D5C5E
:1026F0001F4FC801B401A90193010E944C36C501C6
:10270000B8010E949136C8010E94B63611E001C09E
:1027100010E0CE010F960E94B636CE0109960E94B7
:10272000B636CE0103960E94B636812FED960FB6CF
:10273000F894DEBF0FBECDBFCF91DF911F910F91F7
:10274000FF90EF90DF90CF90BF90AF909F908F90D1
:102750007F906F905F904F903F902F9008952F92B1
:102760003F924F925F926F927F928F929F92AF9221
:10277000BF92CF92DF92EF92FF920F931F93DF935E
:10278000CF93CDB7DEB7ED970FB6F894DEBF0FBE8F
:10279000CDBF9AAF89AF5B015CAF4BAF2DAF1A8253
:1027A0001982B3E02B2E312C2C0E3D1EC10160E0AE
:1027B00072E00E94BD35A9E04A2E512C4C0E5D1EE0
:1027C000C20160E072E00E94BD35FFE08F2E912CC7
:1027D0008C0E9D1EC40160E072E00E94BD35E5E1F3
:1027E000CE2ED12CCC0EDD1EC6016BAD7CAD0E9471
:1027F000A63689AD9AADB601AE014F5F5F4F91012C
:102800008201740190DD182FC6010E94B636112393
:1028100009F48DC0C20168E40E94ED339C018FEF82
:102820002F3F380709F483C075E0672E712C620EC4
:10283000731EEDADEE2309F468C06BE1C62ED12CFA
:10284000CC0EDD1EC601B40140E050E00E944C36C3
:1028500051E2E52EF12CEC0EFD1EC701B6010E94DF
:10286000AE36C701B5010E948A355C018E01095D53
:102870001F4F2B893C89C801B401A3010E944C362B
:10288000C501B8010E948A35BC01C4010E9491367D
:10289000C8010E94B636C7010E94BB36C6010E941D
:1028A000B63629813A81C901880F991F820F931F7B
:1028B000880F991FE9ADFAAD05811681080F191F20
:1028C0009DE2E92EF12CEC0EFD1EC7016BAD7CAD37
:1028D0000E94AE36C7016CE20E946135B2010E94CF
:1028E0008A356CE20E946135B1010E948A356CE242
:1028F0000E946135B4010E948A35BC01C8010E9462
:102900009136C7010E94BB3610C08E010D5C1F4F6F
:10291000C801B401A90193010E944C36C501B80158
:102920000E949136C8010E94B63611E001C010E045
:10293000CE010F960E94B636CE0109960E94B63699
:10294000CE0103960E94B636812FED960FB6F8940D
:10295000DEBF0FBECDBFCF91DF911F910F91FF90D2
:10296000EF90DF90CF90BF90AF909F908F907F902F
:102970006F905F904F903F902F9008952F923F92CD
:102980004F925F926F927F928F929F92AF92BF927F
:10299000CF92DF92EF92FF920F931F93DF93CF932B
:1029A000CDB7DEB7ED970FB6F894DEBF0FBECDBF43
:1029B0009AAF89AF5B015CAF4BAF2DAF1A82198222
:1029C000B3E02B2E312C2C0E3D1EC10160E072E0D5
:1029D0000E94BD35A9E04A2E512C4C0E5D1EC2014D
:1029E00060E072E00E94BD35FFE08F2E912C8C0ECE
:1029F0009D1EC40160E072E00E94BD35E5E1CE2E6F
:102A0000D12CCC0EDD1EC6016BAD7CAD0E94A6366E
:102A100089AD9AADB601AE014F5F5F4F9101820162
:102A2000740181DC182FC6010E94B636112309F407
:102A30008DC0C2016DE60E94ED339C018FEF2F3FE8
:102A4000380709F483C07AE0672E712C620E731E7A
:102A5000EDADEE2309F468C06BE1C62ED12CCC0E8F
:102A6000DD1EC601B40140E050E00E944C3651E248
:102A7000E52EF12CEC0EFD1EC701B6010E94AE360C
:102A8000C701B5010E948A355C018E01095D1F4FA7
:102A90002B893C89C801B401A3010E944C36C501B1
:102AA000B8010E948A35BC01C4010E949136C80158
:102AB0000E94B636C7010E94BB36C6010E94B636D8
:102AC00029813A81C901880F991F820F931F880FAE
:102AD000991FE9ADFAAD05811681080F191F8DE226
:102AE000E82EF12CEC0EFD1EC7016BAD7CAD0E94F3
:102AF000AE36C7016CE20E946135B2010E948A3590
:102B00006CE20E946135B1010E948A356CE20E943C
:102B10006135B4010E948A35BC01C8010E9491361A
:102B2000C7010E94BB3610C08E010D5C1F4FC8014B
:102B3000B401A90193010E944C36C501B8010E945D
:102B40009136C8010E94B63611E001C010E0CE01F6
:102B50000F960E94B636CE0109960E94B636CE0177
:102B600003960E94B636812FED960FB6F894DEBF1D
:102B70000FBECDBFCF91DF911F910F91FF90EF90CE
:102B8000DF90CF90BF90AF909F908F907F906F908D
:102B90005F904F903F902F9008950F931F93CF9386
:102BA000DF938B01EA01C801BE010E945033FC0192
:102BB0008081803221F0D7FD02C02197F4CFCE0171
:102BC000DF91CF911F910F9108950F931F93CF9392
:102BD000DF938B01EA01C801BE010E945033FC0162
:102BE0008081803221F4D7FD02C02197F4CFCE013D
:102BF000DF91CF911F910F9108950F931F93CF9362
:102C0000DF938B01EA01C801BE010E945033FC0131
:102C10008081803249F4F801848195810196C8173A
:102C2000D90710F42196EFCFCE01DF91CF911F91FC
:102C30000F9108952F923F924F925F926F927F92E1
:102C40008F929F92AF92BF92CF92DF92EF92FF92BC
:102C50000F931F93DF93CF93CDB7DEB7C254D0400D
:102C60000FB6F894DEBF0FBECDBF3C015B01CE01B5
:102C7000019660E072E00E94BD35C5016CE20E94E1
:102C8000ED337C018E01095F1F4FC801B50140E0A3
:102C900050E097010E944C36C301C496B8010E94CF
:102CA0009136C8010E94B6360894E11CF11CC5019A
:102CB0006CE2A7010E94CF336C013CE1232E312C42
:102CC000260C371C8E01035F1F4FC801B501A701F9
:102CD00096010E944C36C101B8010E949136C8018C
:102CE0000E94B6360894C11CD11CC5016CE2A60135
:102CF0000E94CF337C012AE3822E912C860C971CF4
:102D00008E010D5E1F4FC801B501A60197010E94FB
:102D10004C36C401B8010E949136C8010E94B636F3
:102D20009AE0492E512C460C571C8FE1C82ED12C0D
:102D3000CC0EDD1EC60162ED75E00E94D5358E0118
:102D4000075E1F4F0894E11CF11CF50124813581B9
:102D5000C801B501A7010E944C36C601B8010E9406
:102D60008A35BC01C2010E949136C8010E94B63664
:102D7000C6010E94BB36F3018685978595A384A37F
:102D8000C2016BEE75E00E9432358E010B5D1F4F64
:102D9000C801B2010E94A636C301B80140E050E06C
:102DA0002CDFF30193A382A3C8010E94B636F3017E
:102DB00082A193A197A386A38EE499E060E142E00B
:102DC00020E00E94C0248EE499E00E94BB248EE49F
:102DD00099E060E040E00E948D248EE499E0B40127
:102DE0000E94E7318EE499E060E041E00E948D248A
:102DF000F30184A195A122A133A1821B930B26A1EB
:102E000037A140970CF10BE2E02EF12CEC0EFD1EE9
:102E1000C701B201A901215F3F4F0E944C368E01CC
:102E20000F5C1F4FC801B7010E94AE36C8016EE3A8
:102E30000E946135BC018EE499E00E94E731C8012F
:102E40000E94BB36C70110C08E01095C1F4FC8012C
:102E5000B201A901205F3F4F0E944C368EE499E0F9
:102E6000B8010E94E731C8010E94B636C10160E096
:102E700076E00E94F033882319F081E090E009C0E9
:102E8000C1016DEC75E00E94F033882349F083E0C6
:102E900090E0F30190878783C30160E09CD84BC02A
:102EA00082E090E0F30190878783C30161E093D8CB
:102EB0001DE3412E512C4C0E5D1E06C0F30186A170
:102EC00097A1019697A386A3F30126A137A182A11A
:102ED00093A1281B390BC201B101A9012F5F3F4FFC
:102EE0000E944C36C20166E275E00E94F0338823EE
:102EF00011F400E00BC000E0F30182A193A10E9653
:102F000026A137A1821793070CF001E0C2010E94AD
:102F1000B636002399F6F301818593012A5E3F4F6F
:102F2000882321F0C90166E275E003C0C90165E0AC
:102F300076E00E94ED35CE0101960E94B636CE5B5A
:102F4000DF4F0FB6F894DEBF0FBECDBFCF91DF913C
:102F50001F910F91FF90EF90DF90CF90BF90AF90B7
:102F60009F908F907F906F905F904F903F902F90A9
:102F70000895BF92CF92DF92EF92FF920F931F932B
:102F8000DF93CF9300D000D0CDB7DEB77C01B62E53
:102F90006901FC01168305838E96BA010E94913661
:102FA000F70114821382F1E0CF16D10419F00894CE
:102FB000C108D108F701D282C182F701B18686E447
:102FC00090E0E80EF91EF70110828AEB9FEFE80E01
:102FD000F91EF701658176818E010F5F1F4FC801D1
:102FE0000E94A636C701B80125DEC8010E94B63688
:102FF00026960FB6F894DEBF0FBECDBFCF91DF91FE
:103000001F910F91FF90EF90DF90CF90BF900895A8
:10301000EF92FF920F931F93DF93CF93CDB7DEB75D
:10302000A4970FB6F894DEBF0FBECDBFCE010196B8
:1030300060E072E00E94BD358FE092E140E855E229
:1030400060E070E00E94462FCE01079667E076E0D0
:103050000E94BD35CE010D9662E176E00E94BD353D
:10306000CE0143966DE176E00E94BD3581E06BD8DC
:1030700081E00E94C40F81E08093BF0949E1E42E02
:10308000F12CEC0EFD1EC7016AE276E00E94BD3510
:103090008FEB99E061E0A70124E030E00EE719E052
:1030A00068DFC7010E94B63689E08093680987E02F
:1030B000809367098DE28093690980E180936509B7
:1030C0008FE0809364098BE18093630982E08093B1
:1030D000660983E699E00E94FF22882371F48E013D
:1030E000015E1F4FC80162E376E00E94BD35C80152
:1030F0000E944A08C8010E94B636CE0143960E943B
:10310000B636CE010D960E94B636CE0107960E94C5
:10311000B636CE0101960E94B636A4960FB6F89444
:10312000DEBF0FBECDBFCF91DF911F910F91FF90FA
:10313000EF9008954F925F926F927F928F929F923D
:10314000AF92BF92CF92DF92EF92FF920F931F93B5
:10315000DF93CF93CDB7DEB7E0970FB6F894DEBF1D
:103160000FBECDBF3C01D62E7E010894E11CF11CA0
:10317000C70160E072E00E94BD35CE01079660E0B5
:1031800072E00E94BD35BAE04B2E512C460C571C04
:10319000F30126A137A18E01035F1F4FC801B201C1
:1031A000A9012E5F3F4F0E944C36C701B8010E9413
:1031B0009136C8010E94B6368FE092E1B7010E94B5
:1031C0001932C7010E9465334B015C018B0101502C
:1031D00010408FE092E1B8014AE050E00E942033B5
:1031E000DD2041F00B3011051CF080E090E00AC0BA
:1031F000C40108C0101611061CF08BE090E002C05C
:10320000C8010197A7E08A2E912C8C0E9D1EBC014F
:10321000660F771F680F791F660F771F6A5F754FFC
:10322000C4010E9491368FE092E1B4010E941932EC
:103230008FE092E163E476E00E943D33F30166A102
:1032400077A18FE092E14AE050E00E9420338FE0C6
:1032500092E16FE476E00E943D338E010D5E1F4FD8
:10326000F30126A137A1C801B20140E050E00E945D
:103270004C368FE092E1B8010E94E731C8010E940C
:10328000B6368FE092E16EE576E00E943D338E0126
:10329000075E1F4FF30146A157A14E5F5F4F268582
:1032A0003785C801B2010E944C368FE092E1B80127
:1032B0000E94E731C8010E94B6368FE092E165E7CF
:1032C00076E00E943F336FE1A62EB12CAC0EBD1EFE
:1032D000F30126A137A1C501B20140E050E00E94F0
:1032E0004C3655E2E52EF12CEC0EFD1EC701B50162
:1032F0000E94AE36C701B4010E948A356C018E016E
:10330000055D1F4FF30146A157A14E5F5F4F268514
:103310003785C801B2010E944C36C601B8010E942F
:103320008A35BC016E010894C11CD11CC6010E94E3
:103330009136C8010E94B636C7010E94BB36C5014E
:103340000E94B6368FE092E165E776E00E943D3359
:103350008FE092E1B2010E94E7318FE092E165E7F0
:1033600076E00E943F338FE092E165E776E00E94CD
:103370003D338FE092E1B6010E94E7318FE092E1A8
:1033800065E776E00E943F33C201B6010E949136A4
:103390008FE092E165E776E00E943D338FE092E1B5
:1033A000B2010E94E7318FE092E165E776E00E948A
:1033B0003F33C4010E94B636C6010E94B636E0967D
:1033C0000FB6F894DEBF0FBECDBFCF91DF911F9136
:1033D0000F91FF90EF90DF90CF90BF90AF909F90B4
:1033E0008F907F906F905F904F9008958F929F92F3
:1033F000AF92BF92CF92DF92EF92FF920F931F9303
:10340000DF93CF93CDB7DEB7CC5FD0400FB6F89443
:10341000DEBF0FBECDBF5C01DC01DC90B1E0DB168E
:1034200009F038C6FC01878190858230910509F446
:1034300027C28330910509F427C4019709F02AC6F1
:10344000D50196968D909C9097978091B709909111
:10345000B8098330910509F4EDC18430910544F435
:103460008130910509F4A8C1029709F013C6C4C0C0
:103470008430910509F4EDC1059709F00BC6EAE027
:10348000CE2ED12CCA0CDB1C8E010F5F1F4FC80142
:10349000B6010E94A636F50146A157A1C80160E217
:1034A0000E94CF33D50197969C938E939697C8012F
:1034B0000E94B636F50126A137A184A195A128174F
:1034C00039071CF097A286A2E5C58E01095F1F4F40
:1034D000C801B6010E94A636D50196964D915C9121
:1034E0009797C501B80189DBF50197A386A3C801A9
:1034F0000E94B6368EE499E060E142E020E00E944E
:10350000C0248EE499E00E94BB248EE499E060E040
:1035100040E00E948D24B501665C7F4F8EE499E007
:103520000E94E7318EE499E060E041E00E948D2442
:10353000D50196962D913C919797F90170969496A6
:103540008D919C91959792964D915C919397E817E8
:10355000F9071CF54217530784F473E1E72EF12CA9
:10356000EC0EFD1EC7016CE30E943436F50126A166
:1035700037A18E01035F1F4FDCC069E1E62EF12CFD
:10358000EC0EFD1EC701B601A901215F3F4F0E944D
:103590004C368E01015E1F4F69C04217530744F538
:1035A0005BE2E52EF12CEC0EFD1EC7016CE30E94E0
:1035B0003436D50196962D913C9197978E010B5DEF
:1035C0001F4FC801B601A901215F3F4F0E944C3631
:1035D000C701B8010E948A35BC018EE499E00E94BF
:1035E000E731C8010E94B636C7010E94BB3652C5FA
:1035F0008E010F5C1F4FD4C08EE499E060E142E081
:1036000020E00E94C0248EE499E00E94BB248EE456
:1036100099E060E040E00E948D24B501665C7F4F38
:103620008EE499E00E94E7318EE499E060E041E0A9
:103630000E948D24F50126A137A182A193A14AE021
:10364000C42ED12CCA0CDB1C821793070CF107E3A4
:10365000E02EF12CEC0EFD1EC701B601A901215F81
:103660003F4F0E944C368E01035C1F4FC801B701CB
:103670000E94AE36C8016EE30E946135BC018EE443
:1036800099E00E94E731C8010E94BB36C701ECC433
:103690008E010D5B1F4FC801B6010E94A636D501F1
:1036A00096964D915C91979741505040C501B80155
:1036B0008CDAF50197A386A3C8010E94B6368E0165
:1036C000075B1F4FC801B6010E94A636D50196962A
:1036D0004D915C919797C501B8015FDA0196F501AC
:1036E00097A386A3C8010E94B636D50196962D9160
:1036F0003C919797F901709694968D919C9195972E
:1037000092964D915C919397E817F9078CF54217C3
:103710005307F4F415E5E12EF12CEC0EFD1EC70164
:103720006CE30E943436F50126A137A18E01015BBE
:103730001F4FC801B601A901225F3F4F0E944C36BE
:10374000C701B8010E948A356EE30E94613544CFFB
:10375000BBE5EB2EF12CEC0EFD1EC701B601A90155
:10376000215F3F4F0E944C368E010F591F4F7ECF75
:103770004217530794F4ADE6EA2EF12CEC0EFD1E31
:10378000C7016CE30E943436D50196962D913C9189
:1037900097978E0109591F4F14CF8E010D581F4F57
:1037A000C801B601A9019F010E944C368EE499E040
:1037B000B8010E94E73119C2F50191A680A6FAE08E
:1037C000EF2EF12CEA0CFB1C8E0107581F4FC8018D
:1037D000B7010E94A636D50196964D915C919797B8
:1037E000C80160E20E94CF33F50193A782A7C80108
:1037F0000E94B6368E0101581F4FD50198964D9103
:103800005C9199979A962D913C919B97C801B7012D
:103810000E944C36C501805C9F4FB8010E949136D2
:10382000C8010E94B636E6E4F0E0AE0EBF1ED50138
:10383000DC9230C4F501238134812115310509F46E
:1038400029C421503040348323838E010B571F4FEE
:10385000BBC1D50113962D913C91149711968D9172
:103860009C9112972817390709F414C42F5F3F4F12
:1038700014963C932E9313978E0105571F4F59C1F1
:103880000091B7091091B80905301105E1F5F5016E
:1038900026A137A182A193A10E968217930724F047
:1038A0002F5F3F4F37A326A38501045E1F4FD5012D
:1038B00096966D917C91979792968D919C91939706
:1038C000681B790BC8010E945033FC0180818D3246
:1038D00009F0CDC3F50126A137A182A193A10E96CF
:1038E000821793070CF4C3C32F5F3F4F37A326A360
:1038F000DECF21503040240F351FD50197963C93E1
:103900002E939697C7C3F50166A177A142A153A153
:103910000230110559F54617570724F461507040DD
:1039200077A366A38501045E1F4FD50196966D911E
:103930007C91979792968D919C919397681B790BA8
:10394000C8010E945033FC0180818D3209F0A2C36E
:10395000F50126A137A182A193A1821793070CF04C
:1039600099C32150304037A326A3DFCFECE18E2E40
:10397000912C8A0C9B1C641B750BC4010E94503354
:10398000FC01E081ED36A9F4D50119968C918823CC
:1039900009F080C30330110529F00430110509F046
:1039A00026C103C0C50161E002C0C50160E0C2DB01
:1039B0001EC1E436A9F4F5018185882309F06AC3A4
:1039C0000330110529F00430110509F010C103C0BE
:1039D000C50161E002C0C50160E00E94F80E07C1A8
:1039E000E937B1F4D50119968C91882309F052C3B7
:1039F0000330110529F00430110509F0F8C003C0A7
:103A0000C50161E002C0C50160E00E942E0EEFC05A
:103A1000E136A9F4F5018185882309F03BC3033021
:103A2000110529F00430110509F0E1C003C0C501FA
:103A300061E002C0C50160E00E944A0DD8C0E834D0
:103A4000B1F4D50119968C91882309F023C3033072
:103A5000110529F00430110509F0C9C003C0C501E2
:103A600061E002C0C50160E00E94800CC0C0ED347E
:103A7000A9F4F5018185882309F00CC303301105F1
:103A800029F00430110509F0B2C003C0C50161E09E
:103A900002C0C50160E00E94B60BA9C0E332B1F4D8
:103AA000D50119968C91882309F0F4C203301105D1
:103AB00029F00430110509F09AC003C0C50161E086
:103AC00002C0C50160E00E94EC0A91C0E334A9F491
:103AD000F5018185882309F0DDC20330110529F045
:103AE0000430110509F083C003C0C50161E002C0C4
:103AF000C50160E00E94080A7AC0E535B9F50330D7
:103B0000110529F00430110509F0C4C21EC0D50109
:103B100013962D913C9114972115310509F4BAC2E1
:103B20002150304014963C932E9313978E010F56DC
:103B30001F4FC901880F991F820F931F880F991F6C
:103B400015966D917C91169748C0F50123813481BB
:103B5000818192812817390709F49CC22F5F3F4F5A
:103B6000348323838E0109561F4F2EC0E43409F09D
:103B700091C20330110529F00430110509F08AC201
:103B800013C0D50113962D913C9114972115310541
:103B900009F480C22150304014963C932E93139721
:103BA0008E0103561F4FC5CFF501238134818181DA
:103BB00092812817390709F46DC22F5F3F4F348374
:103BC00023838E010D551F4FC901880F991F820F46
:103BD000931F880F991F65817681680F791FC8012F
:103BE0000E94A636C501B80125D8C8013DC27FEAAA
:103BF000C72ED12CCC0EDD1EB501665F7F4FC601EE
:103C00000E94A636C6010E947633D50113962D91E7
:103C10003C911497C901880F991F820F931F880F39
:103C2000991F15960D911C911697080F191F49EAB7
:103C3000E42EF12CEC0EFD1EE4E3F0E0AE0EBF1E10
:103C4000C701B5010E94AE36C7016CE20E94613522
:103C5000B4010E948A356CE20E94613526E030E0B2
:103C6000A20EB31EB5010E948A356CE20E94613536
:103C7000B6010E948A35BC01C8010E949136C70175
:103C80000E94BB36C601F0C13FEA832E912C8C0EF8
:103C90009D1EC40160E072E00E94BD358091B709AD
:103CA0009091B8098330910509F49AC18430910547
:103CB00024F4029709F0D5C128C18430910509F494
:103CC000ACC1059709F0CDC1D50196968D919C9117
:103CD0009797409697969C938E93969794962D914E
:103CE0003C9195972817390724F497963C932E9387
:103CF00096972AE0C22ED12CCA0CDB1CF50166A1D6
:103D000077A1C6010E945033FC0180818032D1F03E
:103D1000D50196966D917C919797C6010E9450337C
:103D2000FC018081803209F43FC0F50126A137A152
:103D300082A193A182179307BCF52150304037A38D
:103D400026A3E6CFD50196966D917C919797C601F3
:103D50000E945033FC018081803269F4F50126A174
:103D600037A182A193A1821793072CF421503040F0
:103D700037A326A3E7CFD50196966D917C919797AF
:103D8000C6010E945033FC018081803269F0F50148
:103D900026A137A182A193A1821793072CF4215069
:103DA000304037A326A3E7CFD50196962D913C91BD
:103DB000979792968D919C91939794964D915C9143
:103DC000959728173907D9F5F90170969FEA892E3A
:103DD000912C8C0E9D1EE417F50704F585EBE82E5B
:103DE000F12CEC0EFD1EC701B601A901215F3F4F6A
:103DF0000E944C368E0105541F4FC801B7010E9426
:103E0000AE36C8016EE30E946135BC01C4010E9458
:103E10009136C8010E94BB36C7010EC08E010F53F8
:103E20001F4FC801B601A9019F010E944C36C40171
:103E3000B8010E949136C8010E94B63653C02F5F68
:103E40003F4FF50137A326A3205F3F4F0FEA802E97
:103E5000912C8C0E9D1E2417350704F51DECE12EC8
:103E6000F12CEC0EFD1EC7016CE30E943436D50127
:103E700096962D913C9197978E0109531F4FC8013B
:103E8000B601A901225F3F4F0E944C36C701B8011D
:103E90000E948A356EE30E9461351AC0B9EDEB2E9F
:103EA000F12CEC0EFD1EC7016CE30E943436F501C7
:103EB00026A137A18E010D521F4FC801B601A901DD
:103EC000215F3F4F0E944C36C701B8010E948A35DE
:103ED000BC01C4010E949136C8010E94B636C701D8
:103EE0000E94BB368EE499E060E142E020E048D5D4
:103EF0008EE499E040D58EE499E060E040E00DD595
:103F00002AE330E0A20EB31E59C0D50192962D913E
:103F10003C91939797963C932E939697F9017096C0
:103F200094968D919C919597AAE0CA2ED12CCA0C9B
:103F3000DB1CE817F90704F57FEDE72EF12CEC0EFA
:103F4000FD1EC701B601A901215F3F4F0E944C36FB
:103F50008E010B511F4FC801B7010E94AE36C80138
:103F60006EE30E946135BC01C4010E949136C80114
:103F70000E94BB36C7010EC08E0105511F4FC801FC
:103F8000B601A9019F010E944C36C401B8010E94EC
:103F90009136C8010E94B6368EE499E060E142E0B5
:103FA00020E0EED48EE499E0E6D48EE499E060E07F
:103FB00040E0B3D4EAE3F0E0AE0EBF1E8EE499E039
:103FC000B5010E94E7318EE499E060E041E0A5D4BC
:103FD0008EE499E0BE0161557F4F0E94E73141C0F8
:103FE000D50113962D913C91149721153105C9F1F6
:103FF0002150304014963C932E9313978E010F500E
:104000001F4FC901880F991F820F931F880F991F97
:1040100015966D917C91169718C0F5012381348116
:104020008181928128173907E1F02F5F3F4F348358
:1040300023838E0109501F4FC901880F991F820FDA
:10404000931F880F991F65817681680F791FC801BA
:104050000E94A636C501B8010E941A16C8010E9426
:10406000B636CE0181559F4F0E94B63613C0D5019A
:1040700092964D915C91939790962D913C9191974A
:1040800096968D919C919797841B950B8217930719
:1040900008F02FCCC450DF4F0FB6F894DEBF0FBE30
:1040A000CDBFCF91DF911F910F91FF90EF90DF90E7
:1040B000CF90BF90AF909F908F900895CF92DF9256
:1040C000EF92FF920F931F93DF93CF93CDB7DEB79D
:1040D000C759D0400FB6F894DEBF0FBECDBF80E900
:1040E00098E088D58091B409813061F41092B409C8
:1040F0006091B7097091B8096115710519F08FEBDE
:1041000099E074D98091050A813009F055C28DEE8D
:1041100099E06AE276E00E94F033882309F4A1C0B6
:1041200083EF99E067E776E00E94F033882309F493
:104130008AC08FEF99E06DE776E00E94F033882324
:1041400009F45EC062E0E62EF12CEC0EFD1EC70104
:1041500061E876E00E94BD358FEB99E060E0A70151
:1041600025E030E006E919E00E94B917C7010E9476
:10417000B6368E01085F1F4FC8016BE876E00E94DB
:10418000BD358FEB99E060E779E0A80121E00E945E
:10419000BE14C8010E94B6365EE0E52EF12CEC0E8E
:1041A000FD1EC7016AE679E040E050E025E030E01E
:1041B0000E944C368E010C5E1F4FC80160E976E00C
:1041C0000E94BD358FEB99E0B701A80121E00E9464
:1041D000AF13C8010E94B636C7010E94B6368E01E1
:1041E000065E1F4FC80165E976E00E94BD358FEB82
:1041F00099E066E779E0A80121E00E94A012D9C108
:104200008FEF99E069E976E00E94F033882329F086
:104210008FE092E165EA76E00CC08FEF99E063EC05
:1042200076E00E94F033882339F08FE092E16FEC62
:1042300076E00E943F33C0C18E01005E1F4FC8016F
:104240006DEE76E0B1C18E010A5D1F4FC8016BE2D1
:1042500077E00E94BD35C8010E944A08C8010E944B
:10426000B6368DEE99E061E876E00E94F03388235F
:1042700009F494C18FE092E163EF79E00E94193272
:1042800083EF99E062E677E00E94F033882309F437
:1042900061C18FEF99E069E677E00E94F0338823EF
:1042A00009F42DC18FE092E160E777E00E943F338F
:1042B0008FE092E169E877E00E943D3360919812C7
:1042C00070919912CE0101966115710521F4BC011E
:1042D0006C59724104C09C01261B370BB9018FE059
:1042E00092E14AE050E00E94C732CE018C9660E035
:1042F00072E00E94BD3542E3C42ED12CCC0EDD1EEF
:10430000C60160E072E00E94BD35CE01C89660E053
:1043100072E00E94BD353EE3E32EF12CEC0EFD1E53
:10432000C70160E072E00E94BD358E010C5B1F4F3B
:10433000C8016BE876E00E94BD358FEB99E0B601CD
:10434000A80120E00E94BE14C8010E94B6368E016A
:10435000065B1F4FC801B60140E050E022E030E0AC
:104360000E944C36C701B8010E949136C8010E94D4
:10437000B636C7010E946533609368098E01005B01
:104380001F4FC801B60143E050E025E030E00E9435
:104390004C36C701B8010E949136C8010E94B6365A
:1043A000C7010E946533609367098E010A5A1F4F47
:1043B0002EA93FA9C801B60146E050E00E944C3644
:1043C000C701B8010E949136C8010E94B636C701E4
:1043D0000E946533625B609369098E01045A1F4F26
:1043E000C80160E976E00E94BD358FEB99E06AE68E
:1043F00079E0A80120E00E94AF13C8010E94B63600
:104400008E010E591F4FC8016AE679E040E050E086
:1044100022E030E00E944C36C701B8010E9491367C
:10442000C8010E94B636C7010E94653360936509D2
:104430008E0108591F4FC8016AE679E043E050E059
:1044400025E030E00E944C36C701B8010E94913649
:10445000C8010E94B636C7010E94653360936409A3
:10446000109263098E0102591F4FC80165E976E079
:104470000E94BD358FEB99E066E779E0A80120E066
:104480000E94A012C8010E94B63600E010E0C801E8
:10449000880F991F800F911F880F991F8850914F87
:1044A00066E779E00E944634882329F40F5F1F4FA6
:1044B0000730110561F70093660983E699E09FD004
:1044C000882371F48E010C581F4FC80162E376E017
:1044D0000E94BD35C8010E944A08C8010E94B63634
:1044E000CE01CE960E94B636CE01C8960E94B63650
:1044F000CE01C2960E94B636CE018C9637C08FEFA1
:1045000099E066E977E00E94F0338823E1F08FE0DC
:1045100092E16DE977E00E943F33AAE7EA2EF12CA1
:10452000EC0EFD1EC7016AE276E00E94BD358FEBFE
:1045300099E061E0A70124E030E00EE719E00E9475
:10454000B917C70113C08E0100581F4FC80166EB91
:1045500077E006C08E010A571F4FC80169EF77E068
:104560000E94BD35C8010E944A08C8010E94B636A3
:10457000FCE8EF2EF12CEC0EFD1EC7016AE276E09E
:104580000E94BD358FEB99E061E0A70124E030E0A7
:104590000EE719E00E94B917C7010CC08E010E5634
:1045A0001F4FC8016FE278E00E94BD35C8010E942C
:1045B0004A08C8010E94B6361092050AC956DF4F54
:1045C0000FB6F894DEBF0FBECDBFCF91DF911F9124
:1045D0000F91FF90EF90DF90CF900895482F6AE001
:1045E0000E94C037282F30E084E0220F331F8A95C5
:1045F000E1F7842F0E94C037892F820F08950F930F
:104600001F938C018CE69FE068E670E099D38CE6FE
:104610009FE060E016D4F8018081E0DF682F8CE62F
:104620009FE00FD4F8018181D9DF682F8CE69FE0ED
:1046300008D4F8018281D2DF682F8CE69FE001D494
:10464000F8018381CBDF682F8CE69FE0FAD3F80175
:104650008481C4DF682F8CE69FE0F3D3F801858165
:10466000BDDF682F8CE69FE0ECD3F80186818E5188
:10467000B5DF682F8CE69FE0E4D38CE69FE022D480
:10468000882321F01092250F80E003C081E0809301
:10469000250F1F910F9108950F931F93CF93DF93D1
:1046A000EC018CE69FE068E670E04AD38CE69FE080
:1046B00060E0C7D38CE69FE005D4882319F0109200
:1046C000250F0FC081E08093250F8CE69FE068E600
:1046D00070E047E050E004D48CE69FE03BD30797BE
:1046E00014F480E05EC08CE69FE03DD3082F8F7706
:1046F00082958F701AE0819FC0011124202F2F70A6
:10470000280F28838CE69FE02ED3282F22952F7028
:10471000219F900111248F70820F89838CE69FE086
:1047200022D3282F2F7322952F70219F90011124BF
:104730008F70820F8A838CE69FE015D3282F2295F5
:104740002F70219F900111248F70820F8B838CE634
:104750009FE009D3282F22952F70219F90011124CB
:104760008F70820F8C838CE69FE0FDD2282F2295DC
:104770002F70219F900111248F70820F8D838CE602
:104780009FE0F1D2282F2F70225E82958F70819F3B
:10479000C0011124280F2E83802F8095881F882721
:1047A000881FDF91CF911F910F9108958CE69FE0B4
:1047B00099C30F931F938C01FC01868160E0AED7F3
:1047C00081E090E058D6F801868161E0A7D781E0CA
:1047D00090E051D6F801868160E0A0D784E690E0B1
:1047E0004AD61F910F910895CF92DF92EF92FF92D8
:1047F0000F931F93CF93DF93D82EC92E282F392FD5
:10480000C9018C01C0E0D0E0E62EFF24F8018781C9
:1048100061E0D1D6B7010C2E02C0759567950A9458
:10482000E2F76170F801878179D721960F5F1F4FFA
:10483000C830D10559F78D2D9C2DBBDFDF91CF916D
:104840001F910F91FF90EF90DF90CF900895CF923E
:10485000DF92EF92FF920F931F93CF93DF93D82EA7
:10486000C92E282F392FC9018C01C0E0D0E0E62ED7
:10487000FF24F801878161E09ED6B7010C2E02C0AB
:10488000759567950A94E2F76170F801878146D7BC
:1048900021960F5F1F4FC430D10559F78D2D9C2DE8
:1048A00088DFDF91CF911F910F91FF90EF90DF9004
:1048B000CF9008951F93CF93DF93EC01162F8C8137
:1048C000642F2CD78D818F3F11F060E027D78F8523
:1048D00084FF04C0CE01612F87DF0CC0612F70E020
:1048E00084E0759567958A95E1F7CE01B0DFCE013A
:1048F000612FADDFDF91CF911F91089541E0DADFA5
:1049000081E090E0089540E0D5CFFC016089862FDA
:104910008460808B6C60CF01F6CFDF93CF93CDB7EF
:10492000DEB728970FB6F894DEBF0FBECDBF9C014F
:10493000FE013196A8E6B8E088E00D900192815022
:10494000E1F7F9018389481710F0482F4150E42F0F
:10495000F0E0EE0FFF1FEC0FFD1F8181680F606814
:10496000C901D1DF28960FB6F894DEBF0FBECDBFC8
:10497000CF91DF91089561E0C6DF80ED97E07BC5C0
:10498000CF93DF93EC01423018F08F8588608F87DA
:104990004B8B1C8A222329F0413019F48F858460C7
:1049A0008F8780E593EC67D58C8160E0B7D68E81E8
:1049B00060E0B4D68D818F3F11F060E0AFD66F8597
:1049C00064FD16C0CE0163E042DF84E991E153D576
:1049D000CE0163E03CDF84E991E14DD5CE0163E097
:1049E00036DF86E990E047D5CE0162E030DF11C0C6
:1049F0006062CE0188DF84E991E13DD56F85606218
:104A0000CE0181DF86E990E036D56F856062CE0108
:104A10007ADF6F856062CE0176DF84E0888BCE011D
:104A200074DFCE01A8DF82E0898BCE0166E06BDF08
:104A3000DF91CF9108956F927F928F92AF92CF9234
:104A4000EF920F931F93DF93CF93CDB7DEB73C0167
:104A5000162F842FF301448325830683E782C086C3
:104A6000A18682869E8593879F859487988995875E
:104A70009989968761E09FD5F30185818F3F11F079
:104A800061E099D5F301868161E095D5112319F094
:104A9000F301178603C080E1F3018787C30160E15A
:104AA00041E020E06DDFCF91DF911F910F91EF90FA
:104AB000CF90AF908F907F906F9008958F92AF922C
:104AC000CF92EF920F931F93CF93DF93DC01362F9A
:104AD000542F722F102FAE2C8C2C13961C921E92DA
:104AE000129784E698E011969C938E9300D00F92D3
:104AF000EDB7FEB73196CDB7DEB7198211821282BB
:104B00001382CD0161E0432F2FEF052FE72EC12E39
:104B100092DF0F900F900F900F90DF91CF911F9128
:104B20000F91EF90CF90AF908F900895FC0110827D
:104B30000895EF92FF920F931F93CF93DF93EC01B1
:104B40008CD47B018C018B859C85AD85BE85A801AD
:104B50009701281B390B4A0B5B0B89819A81AB812A
:104B6000BC81281739074A075B07E8F08881813044
:104B700019F0823079F406C0E985FA8589899A8925
:104B8000199508C060E08885882309F461E068878A
:104B90008F81C4D5EB86FC860D871E878F8598890B
:104BA0000196988B8F872D813E8137FD06C08F85BA
:104BB0009889821793070CF01882DF91CF911F918B
:104BC0000F91FF90EF900895AC016A3088F4262F82
:104BD000332727FD309583E190E0289FF001299F3E
:104BE000F00D389FF00D1124E40FF51F10826EEFC9
:104BF000862F0895CF92DF92EF92FF920F931F932B
:104C0000CF93DF937C018C01C0E0D0E083E1C82E1C
:104C1000D12CF8018081882351F0CC9DC001CD9D1D
:104C2000900DDC9D900D11248E0D9F1D82DF21962D
:104C30000D5E1F4FCA30D10561F7DF91CF911F91F3
:104C40000F91FF90EF90DF90CF900895AF92BF92B9
:104C5000CF92DF92EF92FF920F931F93CF93DF9348
:104C6000DC016901E8015701FC01FF2480818823F0
:104C700041F0F39473968AE0F816C1F7FF24FA9492
:104C800024C02F2D332727FD309583E190E0289F06
:104C90008001299F100D389F100D11240A0F1B1F32
:104CA00081E0F80180834183528363837483D683D8
:104CB000C583D286C186D1D3F8016387748785877F
:104CC0009687108A1786B28AA18A8F2DDF91CF919D
:104CD0001F910F91FF90EF90DF90CF90BF90AF901A
:104CE0000895EF92FF920F931F93780101E010E077
:104CF000ADDF1F910F91FF90EF900895EF92FF921B
:104D00000F931F9378010FEF1FEFA0DF1F910F91FB
:104D1000FF90EF9008950F931F93CF93DF93EC01D3
:104D200000E010E0CE01800F911F00DF0D5E1F4FED
:104D30000E3B1105B9F7DF91CF911F910F910895A7
:104D400081E080936B0F6093480F1092690F10926F
:104D50006A0F08952091470F30E08091460F281B7D
:104D60003109C90108954091460F8091470F4817B6
:104D700018F02FEF3FEF0AC0E42FF0E0EA5DF04FAC
:104D80008081282F30E04F5F4093460FC90108957E
:104D9000E091460F8091470FE81718F0EFEFFFEF13
:104DA00006C0F0E0EA5DF04F8081E82FF0E0CF012F
:104DB0000895089510926F0F10926E0F88EE93E091
:104DC000A0E0B0E08093700F9093710FA093720FEA
:104DD000B093730F84E798E090936D0F80936C0FFE
:104DE0000895CF92DF92EF92FF920F931F93CF938C
:104DF000DF937C016B018A0180916B0F8823A1F006
:104E0000C0E0D0E00DC0D701ED91FC91D601AC0F10
:104E1000BD1F0190F081E02DC7016C91199521967D
:104E2000C017D10780F303C0CB01642F02D1C801A2
:104E3000DF91CF911F910F91FF90EF90DF90CF9076
:104E40000895DF93CF930F92CDB7DEB7FC0169834E
:104E500080916B0F8823C9F080916A0F803238F0FF
:104E600081E090E09383828320E030E014C0809161
:104E7000690FE82FF0E0E75BF04F998190838F5F37
:104E80008093690F80936A0F04C0CE01019661E0A0
:104E9000D0D021E030E0C9010F90CF91DF9108958B
:104EA0000F93062F8091480F69E47FE040916A0FCD
:104EB00021E06AD01092690F10926A0F10926B0F66
:104EC0000F91089561E0ECCF413208F040E2862F67
:104ED00066E27FE010D01092460F8093470F08954E
:104EE00021E0F2CF1092460F1092470F1092690FF7
:104EF00010926A0F4EC2382F413210F040E042C08B
:104F00008091780F8823E1F791E09093780F2093B8
:104F10007A0F8FEF8093E50F1092A00F41504093CE
:104F2000A10F4F5F9093790F8091790F330F832BEF
:104F30008093790F80917B0F813041F410927B0F29
:104F40008091790F8093BB0085EC01C085EE809342
:104F5000BC008091780F8130E1F38091A00F84171D
:104F600010F44091A00F20E030E00AC0FB01E20FF6
:104F7000F31FD901A058B04F8C9180832F5F3F4F12
:104F80002417A0F3842F08950F931F93582F122FE7
:104F9000413210F081E04AC08091780F8823E1F718
:104FA00082E08093780F00937A0F8FEF8093E50F64
:104FB0001092A00F4093A10FA0E8BFE0FB0102C038
:104FC00081918D938E2F861B8417D0F31092790FC9
:104FD0008091790F550F852B8093790F80917B0FEE
:104FE000813041F410927B0F8091790F8093BB0048
:104FF00085EC01C085EE8093BC00112321F08091E7
:10500000780F8230E1F38091E50F8F3F11F480E05B
:105010000DC08091E50F803211F482E007C08091CD
:10502000E50F803311F084E001C083E01F910F9100
:105030000895482F613210F081E008958091780F33
:10504000843011F082E008956093C30FA2EABFE0BC
:10505000842F9C01F90102C081918D938E2F841BB6
:105060008617D0F380E008951F920F920FB60F922B
:105070000BB60F9211242F933F934F935F936F932F
:105080007F938F939F93AF93BF93EF93FF93809101
:10509000B90090E0887F90708036910509F4F2C0E5
:1050A00081369105CCF58832910509F47BC08932AF
:1050B0009105B4F48031910509F46FC081319105F7
:1050C0003CF4009709F447C1089709F04FC165C047
:1050D0008831910509F466C0809709F047C182C004
:1050E0008034910509F4A4C08134910544F48033DF
:1050F000910509F482C0C89709F038C189C080358C
:10510000910509F489C08835910509F496C0883461
:10511000910509F02BC1AEC08839910509F413C17E
:1051200089399105ECF48837910509F4ABC08937CA
:1051300091054CF48836910509F4A4C08037910597
:1051400009F014C19FC08838910509F4FCC080396A
:10515000910509F49DC08038910509F007C198C0F8
:10516000803B910509F4C6C0813B91054CF4803A1F
:10517000910509F49FC0883A910509F0F7C0BAC0BB
:10518000803C910509F4E3C0883C910509F4DFC037
:10519000883B910509F0EAC0C2C08091790F8093E5
:1051A000BB00CFC09091A00F8091A10F981768F419
:1051B0009091A00FE92FF0E0E058F04F80818093AC
:1051C000BB009F5F9093A00FBCC080917A0F882393
:1051D00009F44BC085ED8093BC008091BC0084FD38
:1051E000FCCFC2C080E28093E50F85ED8093BC00C8
:1051F0008091BC0084FDFCCFB7C080E38093E50FB5
:1052000085ED8093BC008091BC0084FDFCCFACC0D8
:1052100088E38093E50F9BC08091A00F9091BB0025
:10522000E82FF0E0E058F04F90838F5F8093A00F5D
:105230009091A00F8091A10F82C08091A00F9091BA
:10524000BB00E82FF0E0E058F04F90838F5F809331
:10525000A00F80917A0F882341F085ED8093BC00E8
:105260008091BC0084FDFCCF7FC081E080937B0FE8
:1052700084EA6EC085ED8093BC008091BC0084FD03
:10528000FCCF72C083E08093780F1092E40F59C076
:105290008091E40F803208F056C08091E40F909125
:1052A000BB00E82FF0E0EC53F04F90838F5F8093CA
:1052B000E40F47C08091E40F803230F4E091E40FB6
:1052C000F0E0EC53F04F108285ED8093BC008091AC
:1052D000BC0084FDFCCF1092780F6091E40FE09148
:1052E0007E0FF0917F0F84EC9FE070E01995109293
:1052F000E40F2DC084E08093780F1092C20F1092BB
:10530000C30FE0917C0FF0917D0F19958091C30F31
:10531000882329F481E08093C30F1092A20F90910B
:10532000C20FE92FF0E0EE55F04F80818093BB0073
:105330009F5F9093C20F9091C20F8091C30F9817F7
:1053400010F485EC01C085E88093BC000FC085ECAB
:105350008093BC0009C01092E50F85ED8093BC00DE
:105360008091BC0084FDFCCF1092780FFF91EF91EB
:10537000BF91AF919F918F917F916F915F914F916D
:105380003F912F910F900BBE0F900FBE0F901F906B
:1053900018951092780F81E080937A0F10927B0F0E
:1053A00084E161E0BBD185E161E0B8D1E9EBF0E0F7
:1053B00080818E7F808380818D7F808388E480934D
:1053C000B80085E48093BC0008951F920F920FB639
:1053D0000F9211242F933F938F939F93AF93BF937B
:1053E0008091EA0F9091EB0FA091EC0FB091ED0F2F
:1053F0003091EE0F0196A11DB11D232F2D5F2D378A
:1054000020F02D570196A11DB11D2093EE0F809322
:10541000EA0F9093EB0FA093EC0FB093ED0F8091F8
:10542000E60F9091E70FA091E80FB091E90F019678
:10543000A11DB11D8093E60F9093E70FA093E80F95
:10544000B093E90FBF91AF919F918F913F912F91B1
:105450000F900FBE0F901F9018958FB7F894209162
:10546000EA0F3091EB0F4091EC0F5091ED0F8FBF91
:10547000B901CA010895019739F0880F991F880F63
:10548000991F02970197F1F70895789484B5826087
:1054900084BD84B5816084BD85B5826085BD85B5D8
:1054A000816085BDEEE6F0E0808181608083E1E887
:1054B000F0E01082808182608083808181608083BF
:1054C000E0E8F0E0808181608083E1EBF0E08081C2
:1054D00084608083E0EBF0E0808181608083E1E99B
:1054E000F0E0808182608083808181608083E0E958
:1054F000F0E0808181608083E1EAF0E08081826079
:105500008083808181608083E0EAF0E08081816037
:105510008083E1E2F1E0808182608083808181602C
:105520008083E0E2F1E0808181608083EAE7F0E05F
:1055300080818460808380818260808380818160BB
:1055400080838081806880831092C1000895382F05
:10555000863308F0365320917B00832F86958695FD
:10556000869590E08170907043E0880F991F4A956E
:10557000E1F7277F282B20937B0037708091590813
:105580008295880F880F807C832B80937C0080918C
:105590007A00806480937A0080917A0086FDFCCF47
:1055A0002091780040917900942F80E030E0282B02
:1055B000392BC9010895CF93DF93482F50E0CA01DA
:1055C00088589E4FFC0134914E5C5E4FFA018491E5
:1055D000882369F190E0880F991FFC01EC51FF4F7F
:1055E000A591B491FC01E250FF4FC591D49166237F
:1055F00051F42FB7F8948C91932F909589238C9325
:10560000888189230BC0623061F42FB7F8948C91A4
:10561000932F909589238C938881832B88832FBF28
:1056200006C09FB7F8948C91832B8C939FBFDF911A
:10563000CF910895893009F449C08A30A0F48430AC
:1056400051F1853040F4823079F1833000F58130BA
:1056500009F063C026C0873079F1883098F586302C
:1056600009F05BC025C08D3009F442C08E3028F4AB
:105670008B30B1F18C30C0F52DC0803109F442C0BF
:10568000813109F445C08F3009F047C037C080919F
:1056900080008F7703C0809180008F7D8093800091
:1056A000089584B58F7702C084B58F7D84BD089539
:1056B0008091B0008F7703C08091B0008F7D809380
:1056C000B0000895809190008F7707C0809190007E
:1056D0008F7D03C080919000877F80939000089514
:1056E0008091A0008F7707C08091A0008F7D03C0BC
:1056F0008091A000877F8093A00008958091200171
:105700008F7703C0809120018F7D809320010895C1
:1057100080912001877F809320010895FF920F934D
:105720001F93F62E482F50E0CA0182549E4FFC0171
:105730002491CA0188589E4FFC0114914E5C5E4F23
:10574000FA0104910023C1F0222311F0822F72DFAD
:10575000E02FF0E0EE0FFF1FE250FF4FA591B49154
:105760009FB7F894FF2021F48C911095812302C0FB
:105770008C91812B8C939FBF1F910F91FF90089567
:105780000F931F93CF93DF93BC018230910510F4E8
:1057900062E070E0E0919A12F0919B1240E050E0DC
:1057A000A0E0B0E024C08081918186179707D0F0F7
:1057B0008617970771F482819381109729F01396C9
:1057C0009C938E9312972CC090939B1280939A1265
:1057D00027C04115510519F08417950718F48D015C
:1057E000AC01EF01DF01828193819C01F9013097C7
:1057F000D1F641155105F9F0CA01861B970B84308B
:10580000910580F48A819B810115110521F0F80131
:105810009383828304C090939B1280939A12FE011B
:10582000329645C0FE01E80FF91F6193719302970C
:10583000998388833CC08091981290919912892B0A
:1058400041F480915C0890915D0890939912809347
:10585000981240915E0850915F084115510541F43E
:105860004DB75EB780915A0890915B08481B590B61
:10587000209198123091991224173507B0F4CA017B
:10588000821B930B8617970780F0AB014E5F5F4F2B
:105890008417950750F0420F531F5093991240936D
:1058A0009812F9016193719302C0E0E0F0E0CF013A
:1058B000DF91CF911F910F910895CF93DF939C01BA
:1058C000009709F48FC0EC0122971B821A82609125
:1058D0009A1270919B126115710581F488819981EA
:1058E000820F931F2091981230919912281739072F
:1058F00039F5D0939912C093981274C0DB0140E03F
:1059000050E0AC17BD0708F1BB83AA83FE012191CB
:105910003191E20FF31FAE17BF0779F48D919C917F
:105920001197280F391F2E5F3F4F39832883129616
:105930008D919C9113979B838A834115510571F436
:10594000D0939B12C0939A124DC012968D919C9148
:105950001397AD01009711F0DC01D3CFDA01139654
:10596000DC93CE931297FA0121913191E20FF31F4C
:10597000CE17DF0769F488819981280F391F2E5FC0
:105980003F4FFA01318320838A819B8193838283F5
:10599000E0E0F0E0DB0112968D919C911397009767
:1059A00019F0BC01FD01F6CFAB014E5F5F4FDB018B
:1059B0008D919C91840F951F20919812309199128E
:1059C0002817390779F4309729F410929B12109216
:1059D0009A1202C013821282425050405093991280
:1059E00040939812DF91CF91089508951F920F92DE
:1059F0000FB60F920BB60F9211242F933F934F9334
:105A00008F939F93EF93FF938091C00082FD1DC001
:105A10004091C60020912F10309130102F5F3F4FE2
:105A20002F73307080913110909132102817390700
:105A300071F0E0912F10F0913010E151F04F408360
:105A40003093301020932F1002C08091C600FF9138
:105A5000EF919F918F914F913F912F910F900BBE9E
:105A60000F900FBE0F901F90189508951F920F92E0
:105A70000FB60F920BB60F9211242F933F934F93B3
:105A80008F939F93EF93FF938091C80082FD1DC079
:105A90004091CE002091B7103091B8102F5F3F4F4A
:105AA0002F7330708091B9109091BA102817390770
:105AB00071F0E091B710F091B810E958FF4E4083B3
:105AC0003093B8102093B71002C08091CE00FF91A0
:105AD000EF919F918F914F913F912F910F900BBE1E
