:1000000006C1000031C100002FC100002DC1000059
:100010002BC1000029C1000027C1000025C100003C
:1000200023C1000021C100001FC100001DC100004C
:100030001BC1000019C1000017C1000015C100005C
:1000400013C1000011C100000FC100000DC100006C
:100050000BC1000009C1000007C100000C948520FD
:1000600003C100000C9461220C94B523FDC0000074
:10007000FBC00000F9C00000F7C00000F5C00000A0
:10008000F3C00000F1C00000EFC00000EDC00000B0
:100090000C94A1220C94F423E7C000000C94D41E0D
:1000A000E3C00000E1C00000DFC00000DDC00000D0
:1000B000DBC00000D9C00000D7C00000D5C00000E0
:1000C000D3C00000D1C00000CFC000000C94E122DA
:1000D0000C943324C9C000000C9421230C94722486
:1000E000C3C0000000002100240027002A002D00CA
:1000F0003000330001010000040107010A01000083
:100100002200250028002B002E00310034000201BF
:100110000000050108010B0100002000230026005B
:1001200029002C002F00320000010000030106010D
:10013000090105050505070508080808020202026D
:100140000A0A080804040404010101010101010173
:100150000303030303030303040707070C0C0C0C3E
:100160000C0C0C0C02020202060606060606060627
:100170000B0B0B0B0B0B0B0B0102102020080810B4
:100180002040102040800201020108040201010207
:1001900004081020408080402010080402018004E0
:1001A000020180402010080402010804020101023B
:1001B0000408102040800102040810204080000044
:1001C000090A02080B0C0D070603040100000000D9
:1001D000000000000000000000000000000000001F
:1001E0000000000000000000000011100F000000DF
:1001F00000000000000000000000000000000000FF
:10020000000000002608401B3A1EE42521081124A6
:100210001FBECFEFD1E2DEBFCDBF00E00CBF1AE0C2
:10022000A0E0B2E0E0EDFBE500E00BBF02C007900C
:100230000D92A639B107D9F71BBE14E1A6E9BAE0C1
:1002400001C01D92A13CB107E1F712E0CCE0D2E081
:1002500004C02297FE010E94CD2DC430D107C9F7FA
:100260000E941B270C94DC2DCBCE1F93FC019927F9
:100270008827BC01E89411911032E9F3193010F08D
:100280001E30C8F31B3249F01D3241F4689405C09A
:1002900036D0610F711D811D911D119110531A30BF
:1002A000B8F33EF490958095709561957F4F8F4F90
:1002B0009F4F1F910895FB01DC0102C001900D9238
:1002C00041505040D8F70895FC018191861721F0E4
:1002D0008823D9F7992708953197CF010895FB0115
:1002E000DC018D91019080190110D9F3990B0895CB
:1002F000FB01DC0101900D920020E1F70895592FD8
:10030000482F372F262F660F771F881F991F660FDC
:10031000771F881F991F620F731F841F951F660F19
:10032000771F881F991F0895EF92FF920F931F93D5
:100330007C0100E012E00A96B8010E94802AC70101
:100340004096B8010E94802AC7014696B8010E94D3
:10035000802AC7014C96B8010E94802AC7018E9658
:10036000B8010E94802AC701C496B8010E94802A61
:10037000C701CA96B8010E94802AC701805C9F4FBE
:10038000B8010E94802AF70117A216A21F910F91AF
:10039000FF90EF900895CF92EF920F93CF93DF935A
:1003A0008130910509F0A6C56F5F7F4F09F043C604
:1003B00086E99AE00E94F51D84E59BE068E049E04B
:1003C00024E005E056E0E52E37E0C32E0E94C81C6D
:1003D00089E69BE060E072E00E94802A8FE69BE065
:1003E00060E072E00E94802A85E79BE060E072E0B6
:1003F0000E94802A8BE79BE061E072E00E94802AE5
:1004000081E89BE068E372E00E94802A87E89BE035
:1004100061E872E00E94802A8DE89BE06AEC72E05D
:100420000E94802A83E99BE060EF72E00E94802AAC
:1004300089E99BE067E473E00E94802A8FE99BE0F2
:100440006BE773E00E94802A85EA9BE065EA73E02F
:100450000E94802A8BEA9BE06DEC73E00E94802A68
:1004600081EB9BE066EF73E00E94802A87EB9BE0C4
:100470006CE274E00E94802A8DEB9BE064E674E0FD
:100480000E94802A83EC9BE062E974E00E94802A4B
:1004900089EC9BE064EC74E00E94802A8FEC9BE086
:1004A00067EF74E00E94802A85ED9BE065E275E0CD
:1004B0000E94802A86EE9BE037DF8DE29CE063E8B5
:1004C00075E00E94802A83E39CE066E875E00E9464
:1004D000802A89E39CE069E875E00E94802A8FE326
:1004E0009CE06CE875E00E94802A85E49CE06FE85F
:1004F00075E00E94802A8BE49CE062E975E00E942E
:10050000802A81E59CE065E975E00E94802A87E504
:100510009CE068E975E00E94802A8DE59CE06BE92B
:1005200075E00E94802A83E69CE06EE975E00E94F7
:10053000802A89E69CE061EA75E00E94802A8FE6C5
:100540009CE064EA75E00E94802A85E79CE063E80D
:1005500075E00E94802A8BE79CE066E875E00E94C7
:10056000802A81E89CE069E875E00E94802A87E89B
:100570009CE06CE875E00E94802A8DE89CE06FE8C2
:1005800075E00E94802A83E99CE062E975E00E94A0
:10059000802A89E99CE065E975E00E94802A8FE95C
:1005A0009CE068E975E00E94802A85EA9CE06BE99E
:1005B00075E00E94802A8BEA9CE06EE975E00E945B
:1005C000802A81EB9CE061EA75E00E94802A87EB3B
:1005D0009CE064EA75E00E94802A8DEB9CE067EA6B
:1005E00075E00E94802A83EC9CE06AEA75E00E9434
:1005F000802A89EC9CE06DEA75E00E94802A8FECED
:100600009CE060EB75E00E94802A85ED9CE063EB46
:1006100075E00E94802A8BED9CE066EB75E00E94FD
:10062000802A81EE9CE069EB75E00E94802A87EECB
:100630009CE06CEB75E00E94802A8DEE9CE06FEBF5
:1006400075E00E94802A83EF9CE062EC75E00E94D6
:10065000802A89EF9CE065EC75E00E94802A8FEF8C
:100660009CE068EC75E00E94802A85E09DE06BECE0
:1006700075E00E94802A8BE09DE06EEC75E00E94A0
:10068000802A81E19DE061ED75E00E94802A87E18A
:100690009DE064ED75E00E94802A8DE19DE067EDAC
:1006A00075E00E94802A83E29DE06AED75E00E9479
:1006B000802A89E29DE06DED75E00E94802A8FE23C
:1006C0009DE060EE75E00E94802A85E39DE062EE89
:1006D00075E00E94802A8BE39DE064EE75E00E9445
:1006E000802A81E49DE066EE75E00E94802A87E41E
:1006F0009DE068EE75E00E94802A8DE49DE06AEE40
:1007000075E00E94802A83E59DE06CEE75E00E9412
:10071000802A89E59DE06EEE75E00E94802A8FE5D3
:100720009DE060EF75E00E94802A85E69DE062EF23
:1007300075E00E94802A8BE69DE064EF75E00E94E0
:10074000802A81E79DE063E875E00E94802A87E7C0
:100750009DE066E875E00E94802A8DE79DE069E8EB
:1007600075E00E94802A83E89DE06CE875E00E94B5
:10077000802A89E89DE06FE875E00E94802A8FE872
:100780009DE062E975E00E94802A85E99DE065E9C7
:1007900075E00E94802A8BE99DE068E975E00E947F
:1007A000802A81EA9DE06BE975E00E94802A87EA51
:1007B0009DE06EE975E00E94802A8DEA9DE061EA85
:1007C00075E00E94802A83EB9DE064EA75E00E9458
:1007D000802A89EB9DE067EA75E00E94802A8FEB12
:1007E0009DE06AEA75E00E94802A85EC9DE06DEA52
:1007F00075E00E94802A8BEC9DE060EB75E00E9422
:10080000802A81ED9DE063EB75E00E94802A87EDF0
:100810009DE066EB75E00E94802A8DED9DE069EB1E
:1008200075E00E94802A83EE9DE06CEB75E00E94EB
:10083000802A89EE9DE06FEB75E00E94802A8FEEA2
:100840009DE062EC75E00E94802A85EF9DE065ECFA
:1008500075E00E94802A8BEF9DE064EF75E00E94B6
:10086000802A81E09EE063E875E00E94802A87E0AC
:100870009EE066E875E00E94802A8DE09EE069E8CF
:1008800075E00E94802A83E19EE06CE875E00E949A
:10089000802A89E19EE06FE875E00E94802A8FE15E
:1008A0009EE062E975E00E94802A85E29EE065E9AB
:1008B00075E00E94802A8BE29EE068E975E00E9464
:1008C000802A81E39EE06BE975E00E94802A87E33D
:1008D0009EE06EE975E00E94802A8DE39EE061EA69
:1008E00075E00E94802A83E49EE064EA75E00E943D
:1008F000802A89E49EE067EA75E00E94802A8FE4FE
:100900009EE06AEA75E00E94802A85E59EE06DEA35
:1009100075E00E94802A8BE59EE060EB75E00E9406
:10092000802A81E69EE063EB75E00E94802A87E6DC
:100930009EE066EB75E00E94802A8DE69EE069EB02
:1009400075E00E94802A83E79EE06CEB75E00E94D0
:10095000802A89E79EE06FEB75E00E94802A8FE78E
:100960009EE062EC75E00E94802A85E89EE065ECDE
:1009700075E00E94802A8BE89EE068EC75E00E949A
:10098000802A81E99EE06BEC75E00E94802A87E96D
:100990009EE06EEC75E00E94802A8DE99EE061ED9C
:1009A00075E00E94802A83EA9EE064ED75E00E9473
:1009B000802A89EA9EE067ED75E00E94802A8FEA2E
:1009C0009EE06AED75E00E94802A85EB9EE06DED69
:1009D00075E00E94802A8BEB9EE067EF75E00E9435
:1009E000802A81EC9EE06AEF75E00E94802A87EC05
:1009F0009EE06DEF75E00E94802A8DEC9EE060E045
:100A000076E00E94802A83ED9EE063E076E00E941B
:100A1000802A89ED9EE066E076E00E94802A8FEDD4
:100A20009EE069E076E00E94802A85EE9EE06CE020
:100A300076E00E94802A8BEE9EE06FE076E00E94D6
:100A4000802A81EF9EE062E176E00E94802A87EFB3
:100A50009EE065E176E00E94802A8DEF9EE068E1ED
:100A600076E00E94802A83E09FE06BE176E00E94BE
:100A7000802A89E09FE06EE176E00E94802A8FE084
:100A80009FE061E276E00E94802A85E19FE064E2D7
:100A900076E00E94802A8BE19FE067E276E00E9488
:100AA000802A81E29FE06AE276E00E94802A87E263
:100AB0009FE06DE276E00E94802A8DE29FE060E395
:100AC00076E00E94802A83E39FE063E376E00E9461
:100AD000802A89E39FE066E376E00E94802A8FE324
:100AE0009FE069E376E00E94802A85E49FE06CE362
:100AF00076E00E94802A8BE49FE06FE376E00E941C
:100B0000802A81E59FE062E476E00E94802A87E502
:100B10009FE065E476E00E94802A8DE59FE068E42E
:100B200076E00E94802A83E69FE060EE75E00E94F6
:100B3000802A89E69FE062EE75E00E94802A8FE6B7
:100B40009FE064EE75E00E94802A85E79FE066EEF4
:100B500075E00E94802A8BE79FE068EE75E00E94B6
:100B6000802A81E89FE06AEE75E00E94802A87E88B
:100B70009FE06CEE75E00E94802A8DE89FE06EEEAB
:100B800075E00E94802A83E99FE060EF75E00E9493
:100B9000802A89E99FE062EF75E00E94802A8FE950
:100BA0009FE06BE476E00E94802A85EA9FE06DE496
:100BB00076E00E94802A8BEA9FE06FE476E00E9454
:100BC000802A81EB9FE061E576E00E94802A87EB36
:100BD0009FE063E576E00E94802A8DEB9FE065E56B
:100BE00076E00E94802A83EC9FE067E576E00E9431
:100BF000802A89EC9FE069E576E00E94802A8FECEC
:100C00009FE06BE576E00E94802A85ED9FE06DE530
:100C100076E00E94802A8BED9FE06FE576E00E94EF
:100C2000802A81EE9FE061E676E00E94802A87EECE
:100C30009FE063E676E00E94802A8DEE9FE065E605
:100C400076E00E94802A83EF9FE067E676E00E94CC
:100C5000802A89EF9FE069E676E00E94802A8FEF84
:100C60009FE06BE676E00E94802A85E090E16DE6E9
:100C700076E00E94802A8BE090E16FE676E00E94A9
:100C8000802A81E190E161E776E00E94802A87E195
:100C900090E163E776E00E94802A8DE190E165E7CC
:100CA00076E00E94802A83E290E167E776E00E9486
:100CB000802A89E290E169E776E00E94802A8FE24B
:100CC00090E16BE776E00E94802A85E390E16DE792
:100CD00076E00E94802A8BE390E16FE776E00E9445
:100CE000802A81E490E161E876E00E94802A87E42E
:100CF00090E163E876E00E94802A8DE490E165E867
:100D000076E00E94802A83E590E167E876E00E9421
:100D1000802A89E590E169E876E00E94802A8FE5E3
:100D200090E16BE876E00E94802A85E690E16DE82C
:100D300076E00E94802A8BE690E16FE876E00E94E0
:100D4000802A81E790E161E976E00E94802A87E7C6
:100D500090E163E976E00E94802A8DE790E165E901
:100D600076E00E94802A83E890E167E976E00E94BD
:100D7000802A89E890E169E976E00E94802A8FE87C
:100D800090E16BE976E00E94802A85E990E16DE9C7
:100D900076E00E94802A8BE990E16FE976E00E947C
:100DA000802A81EA90E161EA76E00E94802A87EA5F
:100DB00090E163EA76E00E94802A8DEA90E165EA9C
:100DC00076E00E94802A83EB90E167EA76E00E9459
:100DD000802A89EB90E169EA76E00E94802A8FEB15
:100DE00090E16BEA76E00E94802A85EC90E16DEA62
:100DF00076E00E94802A8BEC90E16FEA76E00E9418
:100E0000802A81ED90E161EB76E00E94802A87EDF7
:100E100090E160EE75E00E94802A8DED90E162EE37
:100E200075E00E94802A83EE90E164EE75E00E94F6
:100E3000802A89EE90E166EE75E00E94802A8FEEAE
:100E400090E168EE75E00E94802A85EF90E16AEEFD
:100E500075E00E94802A8BEF90E16CEE75E00E94B5
:100E6000802A81E091E16EEE75E00E94802A87E0A1
:100E700091E160EF75E00E94802A8DE091E162EFE0
:100E800075E00E94802A83E191E163EB76E00E94A5
:100E9000802A89E191E165EB76E00E94802A8FE16A
:100EA00091E167EB76E00E94802A85E291E16BEBAD
:100EB00076E00E94802A8BE291E16FEB76E00E945F
:100EC000802A81E391E163EC76E00E94802A87E347
:100ED00091E167EC76E00E94802A8DE391E16BEC72
:100EE00076E00E94802A83E491E16FEC76E00E9434
:100EF000802AA1C0892B09F09EC06F5F7F4F09F047
:100F00009AC0C3E4D1E1CE010E94492B269781E12A
:100F1000C931D807C1F7C9E1D1E1CE010E94492BFF
:100F200026978FE0C939D807C1F7C9E9DFE0CE01BC
:100F30000E94492B26978FE0CD35D807C1F7CDE524
:100F4000DFE0CE010E94492B26978DE0C53FD807F0
:100F5000C1F7C5EFDDE0CE010E94492B26978DE059
:100F6000C536D807C1F7C5E6DDE0CE010E94492BA2
:100F700026978DE0C932D807C1F7C9E2DDE0CE017E
:100F80000E94492B26978CE0CF36D807C1F7CFE6D1
:100F9000DCE0CE010E94492B26978CE0C732D807AF
:100FA000C1F786E29CE00E94492B80E29CE00E940F
:100FB000492B8AE19CE00E94492B84E19CE00E943D
:100FC000492B82E09CE00E94492B8CEF9BE00E9421
:100FD000492B86EF9BE00E94492B80EF9BE00E940B
:100FE000492BC5EDDBE0CE010E94492B26978BE013
:100FF000CB3AD807C1F7CBEADBE0CE010E94492B00
:1010000026978BE0CD38D807C1F7CDE8DBE0CE01DD
:101010000E94492B26978BE0C537D807C1F785E793
:101020009BE00E94492B8FE69BE00E94492B89E6BA
:101030009BE00E94492BDF91CF910F91EF90CF90D1
:10104000089580E090E06FEF7FEFA5C981E090E028
:101050006FEF7FEFA0C9BC0184E394E10C94852776
:101060000F931F93809149116623C9F0882309F5D6
:1010700086E99AE044EF51E060E070E025ED39E068
:1010800002E010E00E94E81D992787FD909590935B
:101090004B1180934A1181E0809349110AC081303D
:1010A00041F486E99AE060914A110E944E1D109227
:1010B00049111F910F9108958091DC0B9091DD0BE8
:1010C0009093E10B8093E00B80E00E9447219C010C
:1010D0009093DD0B8093DC0B4091E00B5091E10B82
:1010E000841B950B05960B9798F581E08093DB0B9D
:1010F000C9018C589040099718F483E090E01EC015
:10110000C90185549140099718F484E090E016C015
:10111000C9010496099718F485E090E00FC0C90151
:10112000855F9140099718F482E090E007C0225E45
:1011300032402930310538F481E090E09093DF0BA4
:101140008093DE0B08951092DF0B1092DE0B04C02B
:101150005093DD0B4093DC0B1092DB0B08950F9343
:101160001F938091DC0B9091DD0B9093E10B8093AA
:10117000E00B80E00E9447219093DD0B8093DC0B15
:101180002091E00B3091E10B821B930B97FF03C082
:10119000909581959F4F0597A4F086E99AE04AE0E3
:1011A00050E060E070E02CE538E005E010E00E94DF
:1011B000DB1D992787FD90959093E50B8093E40BB9
:1011C00004C03093DD0B2093DC0B1F910F91089529
:1011D0000F931F93882351F18FEF93E09093DD0BD2
:1011E0008093DC0B86E99AE044E150E060E070E037
:1011F0002FEA38E002E010E00E94E81D992787FD01
:1012000090959093E30B8093E20B84E394E163E980
:1012100077E00E948E2884E394E144E150E060E0AE
:1012200070E02AE030E00E94212806C086E99AE0BA
:101230006091E20B0E944E1D1F910F9108954F92F5
:101240005F926F927F928F929F92AF92BF92CF9256
:10125000DF92EF92FF920F931F93DF93CF93CDB75F
:10126000DEB768970FB6F894DEBF0FBECDBF3C0166
:1012700084E59BE060E142E020E00E942A1C84E5D6
:101280009BE00E94251C84E59BE060E040E00E941A
:10129000F71BB301665C7F4F84E59BE00E945327F8
:1012A00084E59BE060E041E00E94F71B80915E0ACC
:1012B0009AE0492E512C460C571CF30142A153A130
:1012C000882309F446C000E1802E912C860C971CDF
:1012D00026A137A16E010894C11CD11CC601B20120
:1012E0000E94DF2A17E0E12EF12CEC0EFD1EC70153
:1012F000B6010E94412BB3016A5E7F4FC7010E9475
:101300004D2A5C018E01035F1F4FF30146A157A1D7
:101310004F5F5F4F24A135A1C801B2010E94DF2AAF
:10132000C501B8010E944D2ABC01C4010E94242BB2
:10133000C8010E94492BC7010E944D2BC6010E9483
:10134000492B84E59BE0B4010E94532710925E0A6A
:1013500015C08E010D5E1F4FF30124A135A1C801F8
:10136000B2010E94DF2A84E59BE0B8010E94532766
:10137000C8010E94492B81E080935E0A68960FB6EF
:10138000F894DEBF0FBECDBFCF91DF911F910F91BB
:10139000FF90EF90DF90CF90BF90AF909F908F9095
:1013A0007F906F905F904F90089586EE9BE047CFBF
:1013B0000F931F93CF93DF938B01EA01C801BE0106
:1013C0000E94A128FC018081803221F0D7FD02C05B
:1013D0002197F4CFCE01DF91CF911F910F91089506
:1013E0000F931F93CF93DF938B01EA01C801BE01D6
:1013F0000E94A128FC018081803221F4D7FD02C027
:101400002197F4CFCE01DF91CF911F910F910895D5
:101410000F931F93CF93DF938B01EA01C801BE01A5
:101420000E94A128FC018081803249F4F801848166
:1014300095810196C817D90710F42196EFCFCE01F8
:10144000DF91CF911F910F9108952F923F924F926C
:101450005F926F927F928F929F92AF92BF92CF9244
:10146000DF92EF92FF920F931F93DF93CF93CDB74D
:10147000DEB7C254D0400FB6F894DEBF0FBECDBF6A
:101480003C015B01CE01019660E072E00E94802A7F
:10149000C5016CE20E943E297C018E01095F1F4F4D
:1014A000C801B50140E050E097010E94DF2AC30166
:1014B000C496B8010E94242BC8010E94492B0894AD
:1014C000E11CF11CC5016CE2A7010E9420296C01FE
:1014D0000CE1202E312C260C371C8E01035F1F4F90
:1014E000C801B501A70196010E94DF2AC101B80118
:1014F0000E94242BC8010E94492B0894C11CD11CB6
:10150000C5016CE2A6010E9420297C011AE3812E0C
:10151000912C860C971C8E010D5E1F4FC801B501E2
:10152000A60197010E94DF2AC401B8010E94242B62
:10153000C8010E94492BBAE04B2E512C460C571C77
:10154000AFE1CA2ED12CCC0EDD1EC60165ED77E0D1
:101550000E94982A8E01075E1F4F0894E11CF11C1F
:10156000F50124813581C801B501A7010E94DF2A58
:10157000C601B8010E944D2ABC01C2010E94242B61
:10158000C8010E94492BC6010E944D2BF30186859C
:10159000978595A384A3C2016EEE77E00E941F2A6F
:1015A0008E010B5D1F4FC801B2010E94392BC30190
:1015B000B80140E050E02CDFF30193A382A3C801FF
:1015C0000E94492BF30182A193A197A386A384E5EE
:1015D0009BE060E142E020E00E942A1C84E59BE061
:1015E0000E94251C84E59BE060E040E00E94F71B20
:1015F00084E59BE0B4010E94532784E59BE060E012
:1016000041E00E94F71BF30184A195A122A133A11F
:10161000821B930B26A137A140970CF1FBE2EF2E22
:10162000F12CEC0EFD1EC701B201A901215F3F4F55
:101630000E94DF2A8E010F5C1F4FC801B7010E9474
:10164000412BC8016EE30E943E2ABC0184E59BE069
:101650000E945327C8010E944D2BC70110C08E0164
:10166000095C1F4FC801B201A901205F3F4F0E94D2
:10167000DF2A84E59BE0B8010E945327C8010E943D
:10168000492BC10163E078E00E944129882319F0C9
:1016900081E090E009C0C10162EA77E00E9441293F
:1016A000882349F083E090E0F30190878783C301AA
:1016B00060E0D6DC4BC082E090E0F3019087878346
:1016C000C30161E0CDDCEDE34E2E512C4C0E5D1ECE
:1016D00006C0F30186A197A1019697A386A3F30103
:1016E00026A137A182A193A1281B390BC201B10108
:1016F000A9012F5F3F4F0E94DF2AC20163EB76E012
:101700000E944129882311F400E00BC000E0F3019E
:1017100082A193A10E9626A137A1821793070CF000
:1017200001E0C2010E94492B002399F6F301818553
:1017300093012A5E3F4F882321F0C90163EB76E0D5
:1017400003C0C90168E078E00E94B02ACE0101968A
:101750000E94492BCE5BDF4F0FB6F894DEBF0FBE61
:10176000CDBFCF91DF911F910F91FF90EF90DF9050
:10177000CF90BF90AF909F908F907F906F905F9031
:101780004F903F902F900895BF92CF92DF92EF92AB
:10179000FF920F931F93DF93CF9300D000D0CDB76C
:1017A000DEB77C01B62E6901FC01168305838E9697
:1017B000BA010E94242BF70114821382F1E0CF16A4
:1017C000D10419F00894C108D108F701D282C1826E
:1017D000F701B18686E490E0E80EF91EF701108269
:1017E0008AEB9FEFE80EF91EF701658176818E0185
:1017F0000F5F1F4FC8010E94392BC701B80125DEBA
:10180000C8010E94492B26960FB6F894DEBF0FBE82
:10181000CDBFCF91DF911F910F91FF90EF90DF909F
:10182000CF90BF9008956F927F928F929F92AF92C8
:10183000BF92CF92DF92EF92FF920F931F93DF93AD
:10184000CF93CDB7DEB76E970FB6F894DEBF0FBE5D
:10185000CDBF3E010894611C711CC30160E072E0C1
:101860000E94802A84E394E140E855E260E070E061
:101870000E94B12437E0832E912C8C0E9D1EC40152
:101880006AE078E00E94802A2DE0A22EB12CAC0EF6
:10189000BD1EC50165E178E00E94802A93E1C92E52
:1018A000D12CCC0EDD1EC60160E278E00E94802AB9
:1018B00081E08EDC81E08093E60B89E1E82EF12C5B
:1018C000EC0EFD1EC7016DE278E00E94802A86EED4
:1018D0009BE061E0A70124E030E00BE71BE054DF70
:1018E000C7010E94492BC6010E94492BC5010E94D5
:1018F000492BC4010E94492BC3010E94492B6E96BB
:101900000FB6F894DEBF0FBECDBFCF91DF911F9110
:101910000F91FF90EF90DF90CF90BF90AF909F908E
:101920008F907F906F9008954F925F926F927F9209
:101930008F929F92AF92BF92CF92DF92EF92FF92DF
:101940000F931F93DF93CF93CDB7DEB7A4970FB656
:10195000F894DEBF0FBECDBF3C01A62E8E010F5FF7
:101960001F4FC80160E072E00E94802ACE010796F6
:1019700060E072E00E94802A9AE0492E512C460CC9
:10198000571CF30126A137A18DE0E82EF12CEC0EB7
:10199000FD1EC701B201A9012F5F3F4F0E94DF2A40
:1019A000C801B7010E94242BC7010E94492BEE24D5
:1019B000FF24C02E012FB701660F771F6E0D7F1D0C
:1019C000660F771F6156704F8C2D902F0E949729BC
:1019D000882341F4F0E4EF16F10421F00894E11CAF
:1019E000F11CE9CFAA2051F08FE3E816F1041CF0B6
:1019F00080E090E00BC0C701019608C0E114F1043B
:101A000019F48FE390E002C0C7010197A7E08A2E86
:101A1000912C8C0E9D1EBC01660F771F680F791FDD
:101A2000660F771F6156704FC4010E94242B63E13B
:101A3000A62EB12CAC0EBD1EF30126A137A1C50107
:101A4000B20140E050E00E94DF2A59E1C52ED12CBE
:101A5000CC0EDD1EC601B5010E94412BC601B401AA
:101A60000E944D2A8C014FE1E42EF12CEC0EFD1E5C
:101A7000F30146A157A14F5F5F4F26853785C70108
:101A8000B2010E94DF2AC801B7010E944D2ABC01A1
:101A90008E010F5F1F4FC8010E94242BC7010E94B7
:101AA000492BC6010E944D2BC5010E94492BC20142
:101AB000B8010E94242BC4010E94492BC8010E9436
:101AC000492BA4960FB6F894DEBF0FBECDBFCF91C1
:101AD000DF911F910F91FF90EF90DF90CF90BF901B
:101AE000AF909F908F907F906F905F904F900895F0
:101AF0004F925F926F927F928F929F92AF92BF921E
:101B0000CF92DF92EF92FF920F931F93DF93CF93C9
:101B1000CDB7DEB7A4970FB6F894DEBF0FBECDBF2A
:101B20003C01A62E8E010F5F1F4FC80160E072E0DE
:101B30000E94802ACE01079660E072E00E94802A0F
:101B40009AE0492E512C460C571CF30126A137A1CF
:101B50008DE0E82EF12CEC0EFD1EC701B201A901AB
:101B60002D5F3F4F0E94DF2AC801B7010E94242B3E
:101B7000C7010E94492BEE24FF24C02E012FB7017C
:101B8000660F771F6E0D7F1D660F771F615E7E4E9D
:101B90008C2D902F0E949729882341F4F6E0EF16B0
:101BA000F10421F00894E11CF11CE9CFAA2051F0C6
:101BB00086E0E816F1041CF080E090E00BC0C7015D
:101BC000019608C0E114F10419F486E090E002C027
:101BD000C7010197F7E08F2E912C8C0E9D1EBC0142
:101BE000660F771F680F791F660F771F615E7E4E45
:101BF000C4010E94242B43E1A42EB12CAC0EBD1EC7
:101C0000F30126A137A1C501B20140E050E00E94D6
:101C1000DF2A39E1C32ED12CCC0EDD1EC601B50161
:101C20000E94412BC601B4010E944D2A8C012FE174
:101C3000E22EF12CEC0EFD1EF30146A157A14D5FE3
:101C40005F4F26853785C701B2010E94DF2AC80190
:101C5000B7010E944D2ABC018E010F5F1F4FC801C2
:101C60000E94242BC7010E94492BC6010E944D2BC4
:101C7000C5010E94492BC201B8010E94242BC40156
:101C80000E94492BC8010E94492BA4960FB6F894D4
:101C9000DEBF0FBECDBFCF91DF911F910F91FF909F
:101CA000EF90DF90CF90BF90AF909F908F907F90FC
:101CB0006F905F904F9008954F925F926F927F92D6
:101CC0008F929F92AF92BF92CF92DF92EF92FF924C
:101CD0000F931F93DF93CF93CDB7DEB7A4970FB6C3
:101CE000F894DEBF0FBECDBF3C01D62E7E01089416
:101CF000E11CF11CC70160E072E00E94802ACE0165
:101D0000079660E072E00E94802AAAE04A2E512CD9
:101D1000460C571CF30126A137A18E01035F1F4F0C
:101D2000C801B201A9012F5F3F4F0E94DF2AC701FE
:101D3000B8010E94242BC8010E94492BC7010E94B0
:101D4000B628DD2049F0693071051CF080E090E094
:101D50000BC0CB01019608C0161617061CF089E0CF
:101D600090E002C0CB010197F7E08F2E912C8C0EF2
:101D70009D1EBC01660F771F680F791F660F771FC6
:101D80006D59704FC4010E94242B43E1A42EB12C45
:101D9000AC0EBD1EF30126A137A1C501B20140E082
:101DA00050E00E94DF2A39E1C32ED12CCC0EDD1E7B
:101DB000C601B5010E94412BC601B4010E944D2A03
:101DC0008C012FE1E22EF12CEC0EFD1EF30146A159
:101DD00057A14F5F5F4F26853785C701B2010E942B
:101DE000DF2AC801B7010E944D2ABC018E010F5F96
:101DF0001F4FC8010E94242BC7010E94492BC60116
:101E00000E944D2BC5010E94492BC201B8010E94BE
:101E1000242BC4010E94492BC8010E94492BA4967F
:101E20000FB6F894DEBF0FBECDBFCF91DF911F91EB
:101E30000F91FF90EF90DF90CF90BF90AF909F9069
:101E40008F907F906F905F904F9008954F925F9228
:101E50006F927F928F929F92AF92BF92CF92DF92BA
:101E6000EF92FF920F931F93DF93CF93CDB7DEB71F
:101E7000A4970FB6F894DEBF0FBECDBF3C01D62E9F
:101E80007E010894E11CF11CC70160E072E00E9431
:101E9000802ACE01079660E072E00E94802A4AE024
:101EA000442E512C460C571CF30126A137A18E015C
:101EB000035F1F4FC801B201A9012E5F3F4F0E946F
:101EC000DF2AC701B8010E94242BC8010E94492BB8
:101ED000C7010E94B628DD2049F06B3371051CF064
:101EE00080E090E00BC0CB01019608C016161706E3
:101EF0001CF08BE390E002C0CB01019737E0832E0A
:101F0000912C8C0E9D1EBC01660F771F680F791FE8
:101F1000660F771F6550724FC4010E94242B03E1A6
:101F2000A02EB12CAC0EBD1EF30126A137A1C50118
:101F3000B20140E050E00E94DF2A19E1C12ED12C0D
:101F4000CC0EDD1EC601B5010E94412BC601B401B5
:101F50000E944D2A8C01BFE1EB2EF12CEC0EFD1EF0
:101F6000F30146A157A14E5F5F4F26853785C70114
:101F7000B2010E94DF2AC801B7010E944D2ABC01AC
:101F80008E010F5F1F4FC8010E94242BC7010E94C2
:101F9000492BC6010E944D2BC5010E94492BC2014D
:101FA000B8010E94242BC4010E94492BC8010E9441
:101FB000492BA4960FB6F894DEBF0FBECDBFCF91CC
:101FC000DF911F910F91FF90EF90DF90CF90BF9026
:101FD000AF909F908F907F906F905F904F900895FB
:101FE0004F925F926F927F928F929F92AF92BF9229
:101FF000CF92DF92EF92FF920F931F93DF93CF93D5
:10200000CDB7DEB7A4970FB6F894DEBF0FBECDBF35
:102010003C01D62E7E010894E11CF11CC70160E052
:1020200072E00E94802ACE01079660E072E00E9472
:10203000802ABAE04B2E512C460C571CF30126A1E6
:1020400037A18E01035F1F4FC801B201A9012E5FA6
:102050003F4F0E94DF2AC701B8010E94242BC8010C
:102060000E94492BC7010E94B628DD2049F0673144
:1020700071051CF080E090E00BC0CB01019608C018
:10208000161617061CF087E190E002C0CB010197FD
:10209000A7E08A2E912C8C0E9D1EBC01660F771F27
:1020A000680F791F660F771F6559724FC4010E9430
:1020B000242B73E1A72EB12CAC0EBD1EF30126A17B
:1020C00037A1C501B20140E050E00E94DF2A69E17A
:1020D000C62ED12CCC0EDD1EC601B5010E94412BAF
:1020E000C601B4010E944D2A8C015FE1E52EF12C5E
:1020F000EC0EFD1EF30146A157A14E5F5F4F2685F2
:102100003785C701B2010E94DF2AC801B7010E94CA
:102110004D2ABC018E010F5F1F4FC8010E94242B66
:10212000C7010E94492BC6010E944D2BC5010E9488
:10213000492BC201B8010E94242BC4010E94492BE3
:10214000C8010E94492BA4960FB6F894DEBF0FBEBB
:10215000CDBFCF91DF911F910F91FF90EF90DF9056
:10216000CF90BF90AF909F908F907F906F905F9037
:102170004F9008954F925F926F927F928F929F92AD
:10218000AF92BF92CF92DF92EF92FF920F931F9385
:10219000DF93CF93CDB7DEB7A4970FB6F894DEBF29
:1021A0000FBECDBF3C01D62E7E010894E11CF11C70
:1021B000C70160E072E00E94802ACE01079660E0CD
:1021C00072E00E94802A6AE0462E512C460C571C71
:1021D000F30126A137A18E01035F1F4FC801B20191
:1021E000A9012F5F3F4F0E94DF2AC701B8010E945B
:1021F000242BC8010E94492BC7010E94B628DD206C
:1022000049F0693071051CF080E090E00BC0CB0113
:10221000019608C0161617061CF089E090E002C06F
:10222000CB01019757E0852E912C8C0E9D1EBC0191
:10223000660F771F680F791F660F771F615D724FFA
:10224000C4010E94242B23E1A22EB12CAC0EBD1E92
:10225000F30126A137A1C501B20140E050E00E9480
:10226000DF2A99E1C92ED12CCC0EDD1EC601B501A5
:102270000E94412BC601B4010E944D2A8C018FE1BE
:10228000E82EF12CEC0EFD1EF30146A157A14F5F85
:102290005F4F26853785C701B2010E94DF2AC8013A
:1022A000B7010E944D2ABC018E010F5F1F4FC8016C
:1022B0000E94242BC7010E94492BC6010E944D2B6E
:1022C000C5010E94492BC201B8010E94242BC40100
:1022D0000E94492BC8010E94492BA4960FB6F8947E
:1022E000DEBF0FBECDBFCF91DF911F910F91FF9049
:1022F000EF90DF90CF90BF90AF909F908F907F90A6
:102300006F905F904F9008954F925F926F927F927F
:102310008F929F92AF92BF92CF92DF92EF92FF92F5
:102320000F931F93DF93CF93CDB7DEB7A4970FB66C
:10233000F894DEBF0FBECDBF3C01D62E7E010894BF
:10234000E11CF11CC70160E072E00E94802ACE010E
:10235000079660E072E00E94802A0AE0402E512C2D
:10236000460C571CF30126A137A18E01035F1F4FB6
:10237000C801B201A9012E5F3F4F0E94DF2AC701A9
:10238000B8010E94242BC8010E94492BC7010E945A
:10239000B6289B0121503040DD2041F02E3131051F
:1023A0001CF080E090E00AC0CB0108C012161306B2
:1023B0001CF08EE190E002C0C901019717E0812E68
:1023C000912C8C0E9D1EBC01660F771F680F791F24
:1023D000660F771F6B58734FC4010E94242BF3E1E3
:1023E000AF2EB12CAC0EBD1EF30126A137A1C50145
:1023F000B20140E050E00E94DF2AE9E1CE2ED12C6C
:10240000CC0EDD1EC601B5010E94412BC601B401F0
:102410000E944D2A8C017FE1E72EF12CEC0EFD1E6F
:10242000F30146A157A14E5F5F4F26853785C7014F
:10243000B2010E94DF2AC801B7010E944D2ABC01E7
:102440008E010F5F1F4FC8010E94242BC7010E94FD
:10245000492BC6010E944D2BC5010E94492BC20188
:10246000B8010E94242BC4010E94492BC8010E947C
:10247000492BA4960FB6F894DEBF0FBECDBFCF9107
:10248000DF911F910F91FF90EF90DF90CF90BF9061
:10249000AF909F908F907F906F905F904F90089536
:1024A0004F925F926F927F928F929F92AF92BF9264
:1024B000CF92DF92EF92FF920F931F93DF93CF9310
:1024C000CDB7DEB7E0970FB6F894DEBF0FBECDBF35
:1024D0003C01D62E7E010894E11CF11CC70160E08E
:1024E00072E00E94802ACE01079660E072E00E94AE
:1024F000802A5AE0452E512C460C571CF30126A188
:1025000037A18E01035F1F4FC801B201A9012E5FE1
:102510003F4F0E94DF2AC701B8010E94242BC80147
:102520000E94492B84E394E1B7010E948527C701EB
:102530000E94B6284B015C018B010150104084E3DE
:1025400094E1B8014AE050E00E947128DD2041F09A
:102550000B3011051CF080E090E00AC0C40108C0F7
:10256000101611061CF08BE090E002C0C801019724
:1025700047E0842E912C8C0E9D1EBC01660F771FA8
:10258000680F791F660F771F635D734FC4010E9448
:10259000242B84E394E1B4010E94852784E394E131
:1025A00065E378E00E948E28F30166A177A184E3B9
:1025B00094E14AE050E00E94712884E394E161E4F0
:1025C00078E00E948E288E010D5E1F4FF30126A138
:1025D00037A1C801B20140E050E00E94DF2A84E345
:1025E00094E1B8010E945327C8010E94492B84E35B
:1025F00094E160E578E00E948E288E01075E1F4F0F
:10260000F30146A157A14E5F5F4F26853785C8016C
:10261000B2010E94DF2A84E394E1B8010E945327AB
:10262000C8010E94492B84E394E167E678E00E94A8
:1026300090289FE1A92EB12CAC0EBD1EF30126A15E
:1026400037A1C501B20140E050E00E94DF2A85E2D7
:10265000E82EF12CEC0EFD1EC701B5010E94412BA6
:10266000C701B4010E944D2A6C018E01055D1F4F08
:10267000F30146A157A14E5F5F4F26853785C801FC
:10268000B2010E94DF2AC601B8010E944D2ABC0196
:102690006E010894C11CD11CC6010E94242BC801E4
:1026A0000E94492BC7010E944D2BC5010E94492B56
:1026B00084E394E167E678E00E948E2884E394E165
:1026C000B2010E94532784E394E167E678E00E9418
:1026D000902884E394E167E678E00E948E2884E302
:1026E00094E1B6010E94532784E394E167E678E021
:1026F0000E949028C201B6010E94242B84E394E139
:1027000067E678E00E948E2884E394E1B2010E949B
:10271000532784E394E167E678E00E949028C4019F
:102720000E94492BC6010E94492BE0960FB6F894EF
:10273000DEBF0FBECDBFCF91DF911F910F91FF90F4
:10274000EF90DF90CF90BF90AF909F908F907F9051
:102750006F905F904F9008958F929F92AF92BF922B
:10276000CF92DF92EF92FF920F931F93DF93CF935D
:10277000CDB7DEB7CC5FD0400FB6F894DEBF0FBE4A
:10278000CDBF5C01DC01DC90B1E0DB1609F03DC699
:10279000FC01878190858230910509F422C2833043
:1027A000910509F42CC4019709F02FC6D50196961E
:1027B0008D909C9097978091DE0B9091DF0B8330EA
:1027C000910509F4E8C18430910544F48130910504
:1027D00009F4A3C1029709F018C6C1C0843091055D
:1027E00009F4E8C1059709F010C6EAE0CE2ED12C15
:1027F000CA0CDB1C8E010F5F1F4FC801B6010E947F
:10280000392BF50146A157A1C80160E20E94202999
:10281000D50197969C938E939697C8010E94492B59
:10282000F50126A137A184A195A1281739071CF02D
:1028300097A286A2EAC58E01095F1F4FC801B601A3
:102840000E94392BD50196964D915C919797C501C1
:10285000B8010E94080AF50197A386A3C8010E9447
:10286000492B84E59BE060E142E020E0F3D784E57A
:102870009BE0EBD784E59BE060E040E0B8D7B50192
:10288000665C7F4F84E59BE00E94532784E59BE0D4
:1028900060E041E0ACD7D50196962D913C91979799
:1028A000F901709694968D919C91959792964D9181
:1028B0005C919397E817F9071CF54217530784F4C6
:1028C00073E1E72EF12CEC0EFD1EC7016CE30E94B4
:1028D000C72AF50126A137A18E01035F1F4FDAC079
:1028E00069E1E62EF12CEC0EFD1EC701B601A9012F
:1028F000215F3F4F0E94DF2A8E01015E1F4F65C09E
:102900004217530744F55BE2E52EF12CEC0EFD1E59
:10291000C7016CE30E94C72AD50196962D913C9180
:1029200097978E010B5D1F4FC801B601A901215F6A
:102930003F4F0E94DF2AC701B8010E944D2ABC0107
:1029400084E59BE00E945327C8010E94492BC701E0
:102950000E944D2B5AC58E010F5C1F4FD2C084E5DB
:102960009BE060E142E020E075D784E59BE06DD715
:1029700084E59BE060E040E03AD7B501665C7F4FBC
:1029800084E59BE00E94532784E59BE060E041E002
:102990002ED7F50126A137A182A193A14AE0C42E2A
:1029A000D12CCA0CDB1C821793070CF107E3E02E35
:1029B000F12CEC0EFD1EC701B601A901215F3F4FAE
:1029C0000E94DF2A8E01035C1F4FC801B7010E94DD
:1029D000412BC8016EE30E943E2ABC0184E59BE0C6
:1029E0000E945327C8010E944D2BC701F8C48E01D5
:1029F0000D5B1F4FC801B6010E94392BD501969679
:102A00004D915C91979741505040C501B8010E948B
:102A1000F009F50197A386A3C8010E94492B8E01F6
:102A2000075B1F4FC801B6010E94392BD50196964E
:102A30004D915C919797C501B8010E94D809019604
:102A4000F50197A386A3C8010E94492BD50196964C
:102A50002D913C919797F901709694968D919C9148
:102A6000959792964D915C919397E817F9078CF59D
:102A700042175307F4F415E5E12EF12CEC0EFD1E80
:102A8000C7016CE30E94C72AF50126A137A18E0178
:102A9000015B1F4FC801B601A901225F3F4F0E9491
:102AA000DF2AC701B8010E944D2A6EE30E943E2A28
:102AB00046CFBBE5EB2EF12CEC0EFD1EC701B60197
:102AC000A901215F3F4F0E94DF2A8E010F591F4F3E
:102AD0007CCF4217530794F4ADE6EA2EF12CEC0EAE
:102AE000FD1EC7016CE30E94C72AD50196962D9161
:102AF0003C9197978E0109591F4F16CF8E010D58A3
:102B00001F4FC801B601A9019F010E94DF2A84E579
:102B10009BE0B8010E94532723C2F50191A680A62D
:102B2000FAE0EF2EF12CEA0CFB1C8E0107581F4F28
:102B3000C801B7010E94392BD50196964D915C9141
:102B40009797C80160E20E942029F50193A782A708
:102B5000C8010E94492B8E0101581F4FD50198963C
:102B60004D915C9199979A962D913C919B97C801B4
:102B7000B7010E94DF2AC501805C9F4FB8010E9407
:102B8000242BC8010E94492BE6E4F0E0AE0EBF1EE4
:102B9000D501DC923AC4F501238134812115310538
:102BA00009F433C421503040348323838E010B5702
:102BB0001F4FC4C1D50113962D913C9114971196C6
:102BC0008D919C9112972817390709F41EC42F5F25
:102BD0003F4F14963C932E9313978E0105571F4F2A
:102BE00062C10091DE0B1091DF0B05301105E1F59C
:102BF000F50126A137A182A193A10E968217930712
:102C000024F02F5F3F4F37A326A38501045E1F4F9B
:102C1000D50196966D917C91979792968D919C9106
:102C20009397681B790BC8010E94A128FC01808141
:102C30008D3209F0D7C3F50126A137A182A193A156
:102C40000E96821793070CF4CDC32F5F3F4F37A327
:102C500026A3DECF21503040240F351FD501979693
:102C60003C932E939697D1C3F50166A177A142A11B
:102C700053A10230110559F54617570724F4615046
:102C8000704077A366A38501045E1F4FD501969619
:102C90006D917C91979792968D919C919397681BDB
:102CA000790BC8010E94A128FC0180818D3209F0B6
:102CB000ACC3F50126A137A182A193A18217930786
:102CC0000CF0A3C32150304037A326A3DFCFECE1A3
:102CD0008E2E912C8A0C9B1C641B750BC4010E94C8
:102CE000A128FC01E081ED3611F5D50119968C91F2
:102CF000882309F08AC30330110529F00430110537
:102D000009F030C10AC084E394E169E678E00E94EA
:102D10009028C50161E0C4DB25C1C50160E0C0DBCE
:102D200084E394E166E778E00E9490281BC1E436D2
:102D3000A1F4F5018185882309F067C303301105EB
:102D400029F00430110509F00DC103C0C50161E08F
:102D500002C0C50160E0D8DA05C1E937A9F4D501A0
:102D600019968C91882309F050C30330110529F07E
:102D70000430110509F0F6C003C0C50161E002C0CE
:102D8000C50160E0F7D9EEC0E136A9F4F50181850F
:102D9000882309F03AC30330110529F004301105E6
:102DA00009F0E0C003C0C50161E002C0C50160E0F8
:102DB0000E94780DD7C0E834A9F4D50119968C91FA
:102DC000882309F022C30330110529F004301105CE
:102DD00009F0C8C003C0C50161E002C0C50160E0E0
:102DE000FFD8C0C0ED34A1F4F5018185882309F036
:102DF0000CC30330110529F00430110509F0B2C0ED
:102E000003C0C50161E002C0C50160E01FD8AAC0CF
:102E1000E332B1F4D50119968C91882309F0F5C2FB
:102E20000330110529F00430110509F09BC003C0DF
:102E3000C50161E002C0C50160E00E945C0E92C065
:102E4000E334A9F4F5018185882309F0DEC203305B
:102E5000110529F00430110509F084C003C0C50133
:102E600061E002C0C50160E00E94940C7BC0E535C2
:102E7000B9F50330110529F00430110509F0C5C278
:102E80001EC0D50113962D913C9114972115310543
:102E900009F4BBC22150304014963C932E931397F3
:102EA0008E010F561F4FC901880F991F820F931F64
:102EB000880F991F15966D917C91169748C0F50162
:102EC00023813481818192812817390709F49DC2B9
:102ED0002F5F3F4F348323838E0109561F4F2EC02F
:102EE000E43409F092C20330110529F004301105D1
:102EF00009F08BC213C0D50113962D913C91149704
:102F00002115310509F481C22150304014963C93BB
:102F10002E9313978E0103561F4FC5CFF5012381C2
:102F20003481818192812817390709F46EC22F5F9D
:102F30003F4F348323838E010D551F4FC901880FE6
:102F4000991F820F931F880F991F65817681680FE3
:102F5000791FC8010E94392BC501B8010E94250ABA
:102F6000C8013DC28FEAC82ED12CCC0EDD1EB501A2
:102F7000665F7F4FC6010E94392BC6010E94C72899
:102F8000D50113962D913C911497C901880F991F73
:102F9000820F931F880F991F15960D911C911697FC
:102FA000080F191FF9EAEF2EF12CEC0EFD1EE4E3D9
:102FB000F0E0AE0EBF1EC701B5010E94412BC70154
:102FC0006CE20E943E2AB4010E944D2A6CE20E94EB
:102FD0003E2A26E030E0A20EB31EB5010E944D2A23
:102FE0006CE20E943E2AB6010E944D2ABC01C80133
:102FF0000E94242BC7010E944D2BC601F0C1EFEAAD
:103000008E2E912C8C0E9D1EC40160E072E00E94F9
:10301000802A8091DE0B9091DF0B8330910509F4BB
:103020009AC18430910524F4029709F0D5C128C1D2
:103030008430910509F4ACC1059709F0CDC1D501E3
:1030400096968D919C919797409697969C938E9388
:10305000969794962D913C9195972817390724F4CB
:1030600097963C932E9396977AE0C72ED12CCA0C54
:10307000DB1CF50166A177A1C6010E94A128FC0115
:1030800080818032D1F0D50196966D917C91979791
:10309000C6010E94A128FC018081803209F43FC052
:1030A000F50126A137A182A193A182179307BCF550
:1030B0002150304037A326A3E6CFD50196966D91D7
:1030C0007C919797C6010E94A128FC0180818032E3
:1030D00069F4F50126A137A182A193A18217930774
:1030E0002CF42150304037A326A3E7CFD501969684
:1030F0006D917C919797C6010E94A128FC01808167
:10310000803269F0F50126A137A182A193A182172F
:1031100093072CF42150304037A326A3E7CFD501E5
:1031200096962D913C91979792968D919C9193971D
:1031300094964D915C91959728173907D9F5F90127
:1031400070966FEA862E912C8C0E9D1EE417F50763
:1031500004F595EBE92EF12CEC0EFD1EC701B6012E
:10316000A901215F3F4F0E94DF2A8E0105541F4FA6
:10317000C801B7010E94412BC8016EE30E943E2A9C
:10318000BC01C4010E94242BC8010E944D2BC70121
:103190000EC08E010F531F4FC801B601A9019F0138
:1031A0000E94DF2AC401B8010E94242BC8010E949A
:1031B000492B53C02F5F3F4FF50137A326A3205F54
:1031C0003F4F8FEA882E912C8C0E9D1E24173507B9
:1031D00004F50DECE02EF12CEC0EFD1EC7016CE3A6
:1031E0000E94C72AD50196962D913C9197978E0102
:1031F00009531F4FC801B601A901225F3F4F0E942A
:10320000DF2AC701B8010E944D2A6EE30E943E2AC0
:103210001AC019EDE12EF12CEC0EFD1EC7016CE376
:103220000E94C72AF50126A137A18E010D521F4F1A
:10323000C801B601A901215F3F4F0E94DF2AC701E3
:10324000B8010E944D2ABC01C4010E94242BC80170
:103250000E94492BC7010E944D2B84E59BE060E151
:1032600042E020E0F7D284E59BE0EFD284E59BE0EA
:1032700060E040E0BCD22AE330E0A20EB31E59C0A9
:10328000D50192962D913C91939797963C932E93CE
:103290009697F901709694968D919C919597BAE0C6
:1032A000CB2ED12CCA0CDB1CE817F90704F5AFEDC7
:1032B000EA2EF12CEC0EFD1EC701B601A901215F1B
:1032C0003F4F0E94DF2A8E010B511F4FC801B701EB
:1032D0000E94412BC8016EE30E943E2ABC01C4013A
:1032E0000E94242BC8010E944D2BC7010EC08E01E5
:1032F00005511F4FC801B601A9019F010E94DF2A95
:10330000C401B8010E94242BC8010E94492B84E506
:103310009BE060E142E020E09DD284E59BE095D215
:1033200084E59BE060E040E062D2EAE3F0E0AE0ECC
:10333000BF1E84E59BE0B5010E94532784E59BE016
:1033400060E041E054D284E59BE0BE0161557F4FCF
:103350000E94532741C0D50113962D913C9114979B
:1033600021153105C9F12150304014963C932E931C
:1033700013978E010F501F4FC901880F991F820F9D
:10338000931F880F991F15966D917C91169718C001
:10339000F501238134818181928128173907E1F079
:1033A0002F5F3F4F348323838E0109501F4FC90184
:1033B000880F991F820F931F880F991F658176814F
:1033C000680F791FC8010E94392BC501B8010E94FE
:1033D000250AC8010E94492BCE0181559F4F0E94AA
:1033E000492B13C0D50192964D915C91939790967D
:1033F0002D913C91919796968D919C919797841BD6
:10340000950B8217930708F025CCC450DF4F0FB6F9
:10341000F894DEBF0FBECDBFCF91DF911F910F910A
:10342000FF90EF90DF90CF90BF90AF909F908F90E4
:103430000895EF92FF920F931F93DF93CF93CDB731
:10344000DEB7E0970FB6F894DEBF0FBECDBF86E9BA
:103450009AE03AD38091DB0B813061F41092DB0B60
:103460006091DE0B7091DF0B6115710519F086EE2E
:103470009BE072D980912C0C813009F0F2C084E17C
:103480009CE06DE278E00E944129882309F466C03F
:103490008AE19CE065E878E00E944129882309F4EC
:1034A0004FC084E394E16BE878E00E948E2884E3C7
:1034B00094E166E27CE00E94532784E394E167E6AE
:1034C00078E00E94902886E29CE06EE978E00E9415
:1034D0004129882391F07E010894E11CF11CC70169
:1034E00062EA78E00E94802A86EE9BE060E0A70115
:1034F00025E030E003E91BE0A2C086E29CE06CEA34
:1035000078E00E944129882329F084E394E168EB64
:1035100078E00CC086E29CE066ED78E00E944129EC
:10352000882339F084E394E162EE78E00E949028E9
:1035300098C08E01095F1F4FC80160E079E089C023
:103540008E01035F1F4FC8016EE379E00E94802A5D
:10355000C8010E942B08C8010E94492B84E19CE00D
:1035600062EA78E00E944129882309F46CC084E370
:1035700094E16AE17CE00E9485278AE19CE065E7AE
:1035800079E00E9441298823D1F186E29CE06CE732
:1035900079E00E944129882339F084E394E163E8CB
:1035A00079E00E94902839C086E29CE06CE979E0DD
:1035B0000E9441298823E1F084E394E163EA79E001
:1035C0000E949028A3E1EA2EF12CEC0EFD1EC7010B
:1035D0006DE278E00E94802A86EE9BE061E0A70120
:1035E00024E030E00BE71BE00E94C40BC70113C0CE
:1035F0008E01075E1F4FC8016CEB79E006C08E019B
:10360000015E1F4FC8016FEF79E00E94802AC80158
:103610000E942B08C8010E94492BF5E2EF2EF12CE5
:10362000EC0EFD1EC7016DE278E00E94802A86EE56
:103630009BE061E0A70124E030E00BE71BE00E9483
:10364000C40BC7010CC08E01055D1F4FC80165E3A7
:103650007AE00E94802AC8010E942B08C8010E94BB
:10366000492B10922C0CE0960FB6F894DEBF0FBEDB
:10367000CDBFCF91DF911F910F91FF90EF900895F3
:1036800081E991E16DC30F931F938C01FC01868149
:1036900060E0E4D681E090E08ED5F801868161E0BB
:1036A000DDD681E090E087D5F801868160E0D6D64E
:1036B00084E690E080D51F910F910895CF92DF921C
:1036C000EF92FF920F931F93CF93DF93D82EC92EC3
:1036D000282F392FC9018C01C0E0D0E0E62EFF244D
:1036E000F801878161E007D6B7010C2E02C07595FD
:1036F00067950A94E2F76170F8018781AFD6219649
:103700000F5F1F4FC830D10559F78D2D9C2DBBDFA2
:10371000DF91CF911F910F91FF90EF90DF90CF90AD
:103720000895CF92DF92EF92FF920F931F93CF9362
:10373000DF93D82EC92E282F392FC9018C01C0E064
:10374000D0E0E62EFF24F801878161E0D4D5B701EF
:103750000C2E02C0759567950A94E2F76170F80126
:1037600087817CD621960F5F1F4FC430D10559F752
:103770008D2D9C2D88DFDF91CF911F910F91FF90B0
:10378000EF90DF90CF9008951F93CF93DF93EC01DC
:10379000162F8C81642F62D68D818F3F11F060E0EF
:1037A0005DD68F8584FF04C0CE01612F87DF0CC0FA
:1037B000612F70E084E0759567958A95E1F7CE01F9
:1037C000B0DFCE01612FADDFDF91CF911F91089562
:1037D00041E0DADF81E090E0089540E0D5CFFC01E0
:1037E0006089862F8460808B6C60CF01F6CFDF9379
:1037F000CF93CDB7DEB728970FB6F894DEBF0FBED4
:10380000CDBF9C01FE013196AEE6BAE088E00D9096
:1038100001928150E1F7F9018389481710F0482F90
:103820004150E42FF0E0EE0FFF1FEC0FFD1F8181F0
:10383000680F6068C901D1DF28960FB6F894DEBF23
:103840000FBECDBFCF91DF91089561E0C6DF80ED5F
:1038500097E0B1C4CF93DF93EC01423018F08F852D
:1038600088608F874B8B1C8A222329F0413019F402
:103870008F8584608F8780E593EC9DD48C8160E098
:10388000EDD58E8160E0EAD58D818F3F11F060E04B
:10389000E5D56F8564FD16C0CE0163E042DF84E9A3
:1038A00091E189D4CE0163E03CDF84E991E183D4E6
:1038B000CE0163E036DF86E990E07DD4CE0162E0A0
:1038C00030DF11C06062CE0188DF84E991E173D4FA
:1038D0006F856062CE0181DF86E990E06CD46F85F0
:1038E0006062CE017ADF6F856062CE0176DF84E0B0
:1038F000888BCE0174DFCE01A8DF82E0898BCE01F8
:1039000066E06BDFDF91CF9108956F927F928F9287
:10391000AF92CF92EF920F931F93DF93CF93CDB7D8
:10392000DEB73C01162F842FF301448325830683E1
:10393000E782C086A18682869E8593879F8594872D
:10394000988995879989968761E0D5D4F301858117
:103950008F3F11F061E0CFD4F301868161E0CBD4D9
:10396000112319F0F301178603C080E1F301878763
:10397000C30160E141E020E06DDFCF91DF911F9155
:103980000F91EF90CF90AF908F907F906F900895B0
:103990008F92AF92CF92EF920F931F93CF93DF93BB
:1039A000DC01362F542F722F102FAE2C8C2C139637
:1039B0001C921E9212978AE69AE011969C938E931F
:1039C00000D00F92EDB7FEB73196CDB7DEB71982B2
:1039D000118212821382CD0161E0432F2FEF052F58
:1039E000E72EC12E92DF0F900F900F900F90DF9176
:1039F000CF911F910F91EF90CF90AF908F9008953E
:103A0000FC0110820895EF92FF920F931F93CF93C2
:103A1000DF93EC01C2D37B018C018B859C85AD8546
:103A2000BE85A8019701281B390B4A0B5B0B8981C6
:103A30009A81AB81BC81281739074A075B07E8F0F8
:103A40008881813019F0823079F406C0E985FA85E1
:103A500089899A89199508C060E08885882309F4C6
:103A600061E068878F81FAD4EB86FC860D871E871C
:103A70008F8598890196988B8F872D813E8137FDA0
:103A800006C08F859889821793070CF01882DF9102
:103A9000CF911F910F91FF90EF900895AC016A3084
:103AA00088F4262F332727FD309583E190E0289F67
:103AB000F001299FF00D389FF00D1124E40FF51F40
:103AC00010826EEF862F0895CF92DF92EF92FF92D1
:103AD0000F931F93CF93DF937C018C01C0E0D0E064
:103AE00083E1C82ED12CF8018081882351F0CC9D30
:103AF000C001CD9D900DDC9D900D11248E0D9F1D5C
:103B000082DF21960D5E1F4FCA30D10561F7DF912C
:103B1000CF911F910F91FF90EF90DF90CF9008957C
:103B2000AF92BF92CF92DF92EF92FF920F931F93CB
:103B3000CF93DF93DC016901E8015701FC01FF2409
:103B40008081882341F0F39473968AE0F816C1F7D8
:103B5000FF24FA9424C02F2D332727FD309583E1CD
:103B600090E0289F8001299F100D389F100D11248F
:103B70000A0F1B1F81E0F801808341835283638316
:103B80007483D683C583D286C18607D3F801638741
:103B9000748785879687108A1786B28AA18A8F2DA7
:103BA000DF91CF911F910F91FF90EF90DF90CF9019
:103BB000BF90AF900895EF92FF920F931F937801FB
:103BC00001E010E0ADDF1F910F91FF90EF9008959D
:103BD000EF92FF920F931F9378010FEF1FEFA0DF7B
:103BE0001F910F91FF90EF9008950F931F93CF9324
:103BF000DF93EC0100E010E0CE01800F911F00DFA9
:103C00000D5E1F4F0E3B1105B9F7DF91CF911F914C
:103C10000F91089520916D1130E080916C11281B57
:103C20003109C901089540916C1180916D114817B7
:103C300018F02FEF3FEF0AC0E42FF0E0E45BFE4EF8
:103C40008081282F30E04F5F40936C11C9010895A7
:103C5000E0916C1180916D11E81718F0EFEFFFEF14
:103C600006C0F0E0E45BFE4E8081E82FF0E0CF017B
:103C700008950895109294111092931188EE93E094
:103C8000A0E0B0E08093951190939611A0939711C6
:103C9000B09398118AE79AE09093921180939111D2
:103CA0000895CF92DF92EF92FF920F931F93CF93DD
:103CB000DF937C016B018A01809190118823A1F030
:103CC000C0E0D0E00DC0D701ED91FC91D601AC0F62
:103CD000BD1F0190F081E02DC7016C9119952196CF
:103CE000C017D10780F303C0CB01642F42D0C801B5
:103CF000DF91CF911F910F91FF90EF90DF90CF90C8
:103D00000895DF93CF930F92CDB7DEB7FC0169839F
:103D1000809190118823C9F080918F11803238F002
:103D200081E090E09383828320E030E014C08091B2
:103D30008E11E82FF0E0E259FE4E998190838F5F5B
:103D400080938E1180938F1104C0CE01019661E0A3
:103D500010D021E030E0C9010F90CF91DF9108959C
:103D600010926C1110926D1110928E1110928F1191
:103D7000B0C1482F613210F081E0089580919D110B
:103D8000843011F082E008956093E811A7ECB1E16E
:103D9000842F9C01F90102C081918D938E2F841B89
:103DA0008617D0F380E008951F920F920FB60F92FE
:103DB0000BB60F9211242F933F934F935F936F9302
:103DC0007F938F939F93AF93BF93EF93FF938091D4
:103DD000B90090E0887F90708036910509F4F2C0B8
:103DE00081369105CCF58832910509F47BC0893282
:103DF0009105B4F48031910509F46FC081319105CA
:103E00003CF4009709F447C1089709F04FC165C019
:103E10008831910509F466C0809709F047C182C0D6
:103E20008034910509F4A4C08134910544F48033B1
:103E3000910509F482C0C89709F038C189C080355E
:103E4000910509F489C08835910509F496C0883434
:103E5000910509F02BC1AEC08839910509F413C151
:103E600089399105ECF48837910509F4ABC089379D
:103E700091054CF48836910509F4A4C0803791056A
:103E800009F014C19FC08838910509F4FCC080393D
:103E9000910509F49DC08038910509F007C198C0CB
:103EA000803B910509F4C6C0813B91054CF4803AF2
:103EB000910509F49FC0883A910509F0F7C0BAC08E
:103EC000803C910509F4E3C0883C910509F4DFC00A
:103ED000883B910509F0EAC0C2C080919E11809391
:103EE000BB00CFC09091C5118091C611981768F49E
:103EF0009091C511E92FF0E0EB55FE4E8081809343
:103F0000BB009F5F9093C511BCC080919F11882317
:103F100009F44BC085ED8093BC008091BC0084FD0A
:103F2000FCCFC2C080E280930A1285ED8093BC0072
:103F30008091BC0084FDFCCFB7C080E380930A125F
:103F400085ED8093BC008091BC0084FDFCCFACC0AB
:103F500088E380930A129BC08091C5119091BB00A9
:103F6000E82FF0E0EB55FE4E90838F5F8093C511F4
:103F70009091C5118091C61182C08091C511909118
:103F8000BB00E82FF0E0EB55FE4E90838F5F8093EF
:103F9000C51180919F11882341F085ED8093BC006D
:103FA0008091BC0084FDFCCF7FC081E08093A01194
:103FB00084EA6EC085ED8093BC008091BC0084FDD6
:103FC000FCCF72C083E080939D111092091259C0FA
:103FD00080910912803208F056C0809109129091A8
:103FE000BB00E82FF0E0E751FE4E90838F5F809397
:103FF000091247C080910912803230F4E091091211
:10400000F0E0E751FE4E108285ED8093BC00809178
:10401000BC0084FDFCCF10929D1160910912E091CB
:10402000A311F091A41189EE91E170E0199510921D
:1040300009122DC084E080939D111092E711109217
:10404000E811E091A111F091A21119958091E81168
:10405000882329F481E08093E8111092C711909190
:10406000E711E92FF0E0E953FE4E80818093BB0019
:104070009F5F9093E7119091E7118091E811981755
:1040800010F485EC01C085E88093BC000FC085EC7E
:104090008093BC0009C010920A1285ED8093BC0089
:1040A0008091BC0084FDFCCF10929D11FF91EF9197
:1040B000BF91AF919F918F917F916F915F914F9140
:1040C0003F912F910F900BBE0F900FBE0F901F903E
:1040D000189510929D1181E080939F111092A0116C
:1040E00084E161E0BBD185E161E0B8D1E9EBF0E0CA
:1040F00080818E7F808380818D7F808388E4809320
:10410000B80085E48093BC0008951F920F920FB60B
:104110000F9211242F933F938F939F93AF93BF934D
:1041200080910F1290911012A0911112B091121261
:10413000309113120196A11DB11D232F2D5F2D3734
:1041400020F02D570196A11DB11D209313128093CD
:104150000F1290931012A0931112B093121280912B
:104160000B1290910C12A0910D12B0910E120196AB
:10417000A11DB11D80930B1290930C12A0930D12F0
:10418000B0930E12BF91AF919F918F913F912F915C
:104190000F900FBE0F901F9018958FB7F894209135
:1041A0000F123091101240911112509112128FBFC4
:1041B000B901CA010895019739F0880F991F880F36
:1041C000991F02970197F1F70895789484B582605A
:1041D00084BD84B5816084BD85B5826085BD85B5AB
:1041E000816085BDEEE6F0E0808181608083E1E85A
:1041F000F0E0108280818260808380818160808392
:10420000E0E8F0E0808181608083E1EBF0E0808194
:1042100084608083E0EBF0E0808181608083E1E96D
:10422000F0E0808182608083808181608083E0E92A
:10423000F0E0808181608083E1EAF0E0808182604B
:104240008083808181608083E0EAF0E0808181600A
:104250008083E1E2F1E080818260808380818160FF
:104260008083E0E2F1E0808181608083EAE7F0E032
:10427000808184608083808182608083808181608E
:1042800080838081806880831092C1000895382FD8
:10429000863308F0365320917B00832F86958695D0
:1042A000869590E08170907043E0880F991F4A9541
:1042B000E1F7277F282B20937B00377080915F0ADE
:1042C0008295880F880F807C832B80937C0080915F
:1042D0007A00806480937A0080917A0086FDFCCF1A
:1042E0002091780040917900942F80E030E0282BD5
:1042F000392BC9010895CF93DF93482F50E0CA01AD
:1043000088589E4FFC0134914E5C5E4FFA018491B7
:10431000882369F190E0880F991FFC01EC51FF4F51
:10432000A591B491FC01E250FF4FC591D491662351
:1043300051F42FB7F8948C91932F909589238C93F7
:10434000888189230BC0623061F42FB7F8948C9177
:10435000932F909589238C938881832B88832FBFFB
:1043600006C09FB7F8948C91832B8C939FBFDF91ED
:10437000CF910895893009F449C08A30A0F484307F
:1043800051F1853040F4823079F1833000F581308D
:1043900009F063C026C0873079F1883098F58630FF
:1043A00009F05BC025C08D3009F442C08E3028F47E
:1043B0008B30B1F18C30C0F52DC0803109F442C092
:1043C000813109F445C08F3009F047C037C0809172
:1043D00080008F7703C0809180008F7D8093800064
:1043E000089584B58F7702C084B58F7D84BD08950C
:1043F0008091B0008F7703C08091B0008F7D809353
:10440000B0000895809190008F7707C08091900050
:104410008F7D03C080919000877F809390000895E6
:104420008091A0008F7707C08091A0008F7D03C08E
:104430008091A000877F8093A00008958091200143
:104440008F7703C0809120018F7D80932001089594
:1044500080912001877F809320010895FF920F9320
:104460001F93F62E482F50E0CA0182549E4FFC0144
:104470002491CA0188589E4FFC0114914E5C5E4FF6
:10448000FA0104910023C1F0222311F0822F72DF80
:10449000E02FF0E0EE0FFF1FE250FF4FA591B49127
:1044A0009FB7F894FF2021F48C911095812302C0CE
:1044B0008C91812B8C939FBF1F910F91FF9008953A
:1044C00008951F920F920FB60F920BB60F92112400
:1044D0002F933F934F938F939F93EF93FF938091ED
:1044E000C00082FD1DC04091C60020915412309141
:1044F00055122F5F3F4F2F7330708091561290915D
:1045000057122817390771F0E0915412F0915512A3
:10451000EC5EFD4E4083309355122093541202C03E
:104520008091C600FF91EF919F918F914F913F91A4
:104530002F910F900BBE0F900FBE0F901F901895EC
:1045400008951F920F920FB60F920BB60F9211247F
:104550002F933F934F938F939F93EF93FF9380916C
:10456000C80082FD1DC04091CE002091DC12309128
:10457000DD122F5F3F4F2F7330708091DE129091CC
:10458000DF122817390771F0E091DC12F091DD128B
:10459000E456FD4E40833093DD122093DC1202C0BE
:1045A0008091CE00FF91EF919F918F914F913F911C
:1045B0002F910F900BBE0F900FBE0F901F9018956C
:1045C00008951F920F920FB60F920BB60F921124FF
:1045D0002F933F934F938F939F93EF93FF938091EC
:1045E000D00082FD1DC04091D6002091641330910F
:1045F00065132F5F3F4F2F7330708091661390913A
:1046000067132817390771F0E0916413F09165136F
:10461000EC5DFC4E4083309365132093641302C01D
:104620008091D600FF91EF919F918F914F913F9193
:104630002F910F900BBE0F900FBE0F901F901895EB
:1046400008951F920F920FB60F920BB60F9211247E
:104650002F933F934F938F939F93EF93FF9380916B
:10466000300182FD1DC0409136012091EC13309144
:10467000ED132F5F3F4F2F7330708091EE139091A9
:10468000EF132817390771F0E091EC13F091ED1357
:10469000E455FC4E40833093ED132093EC1302C09D
:1046A00080913601FF91EF919F918F914F913F91B2
:1046B0002F910F900BBE0F900FBE0F901F9018956B
:1046C000E0914014F0914114E05CFF4F8191919191
:1046D00020813181805C9F4F821B930B60E470E0EE
:1046E0000E94822D892B09F0EBDEE0916214F0919B
:1046F0006314E05CFF4F8191919120813181805C56
:104700009F4F821B930B60E470E00E94822D892BE7
:1047100009F016DFE0918414F0918514E05CFF4FFE
:104720008191919120813181805C9F4F821B930BFD
:1047300060E470E00E94822D892B09F041DFE09156
:10474000A614F091A714E05CFF4F81919191208114
:104750003181805C9F4F821B930B60E470E00E946C
:10476000822D892B09F06CCF08951F920F920FB6FE
:104770000F920BB60F9211242F933F938F939F9319
:10478000EF93FF93209198123091991280919A1291
:1047900090919B122817390731F48091C1008F7DC9
:1047A0008093C10014C0E0919A12F0919B12E85AD4
:1047B000FD4E208180919A1290919B1201968F73E9
:1047C000907090939B1280939A122093C600FF9151
:1047D000EF919F918F913F912F910F900BBE0F9072
:1047E0000FBE0F901F9018951F920F920FB60F9249
:1047F0000BB60F9211242F933F938F939F93EF93B8
:10480000FF932091201330912113809122139091D6
:1048100023132817390731F48091C9008F7D8093C5
:10482000C90014C0E0912213F0912313E052FD4E11
:104830002081809122139091231301968F739070A1
:1048400090932313809322132093CE00FF91EF9136
:104850009F918F913F912F910F900BBE0F900FBEA4
:104860000F901F9018951F920F920FB60F920BB6D4
:104870000F9211242F933F938F939F93EF93FF9366
:104880002091A8133091A9138091AA139091AB1392
:104890002817390731F48091D1008F7D8093D100A2
:1048A00014C0E091AA13F091AB13E859FC4E20819B
:1048B0008091AA139091AB1301968F73907090938F
:1048C000AB138093AA132093D600FF91EF919F9191
:1048D0008F913F912F910F900BBE0F900FBE0F90B5
:1048E0001F9018951F920F920FB60F920BB60F9252
:1048F00011242F933F938F939F93EF93FF932091D6
:10490000301430913114809132149091331428175F
:10491000390731F4809131018F7D8093310114C0CA
:10492000E0913214F0913314E051FC4E20818091DB
:1049300032149091331401968F73907090933314C6
:104940008093321420933601FF91EF919F918F91C4
:104950003F912F910F900BBE0F900FBE0F901F90A5
:104960001895AF92BF92DF92EF92FF920F931F9331
:10497000CF93DF93EC017A018B01DD24403081EE8F
:10498000580780E0680780E0780711F0DD24D394B1
:1049900091E0A92EB12CEC89FD89DD2069F0C501DB
:1049A00008A002C0880F991F0A94E2F7808360E094
:1049B00079E08DE390E005C0108260E874E88EE154
:1049C00090E0A80197010E94952D21503040404071
:1049D0005040569547953795279580E12030380708
:1049E00020F0DD2011F0DD24D6CFE889F98930836D
:1049F000EA89FB89208319A2EE89FF89408121E0A1
:104A000030E0C9010C8C02C0880F991F0A94E2F7AC
:104A1000482B4083EE89FF894081C9010D8C02C07B
:104A2000880F991F0A94E2F7482B4083EE89FF898B
:104A30004081C9010E8C02C0880F991F0A94E2F7C9
:104A4000482B4083EE89FF8980810F8C02C0220FA2
:104A5000331F0A94E2F7209528232083DF91CF911A
:104A60001F910F91FF90EF90DF90BF90AF9008954E
:104A7000DC011C96ED91FC911D97E05CFF4F81914C
:104A8000919120813181805C9F4F821B930B60E468
:104A900070E00C94822DDC011C96ED91FC911D9729
:104AA000E05CFF4F20813181E054F040DF01AE5BDC
:104AB000BF4F8D919C9111972817390719F42FEF4B
:104AC0003FEF07C08D919C91E80FF91F8081282F3F
:104AD00030E0C9010895DC011C96ED91FC911D9711
:104AE000E05CFF4F20813181E054F040DF01AE5B9C
:104AF000BF4F8D919C9111972817390719F42FEF0B
:104B00003FEF10C08D919C911197E80FF91F208104
:104B10008D919C91119701968F73907011969C9333
:104B20008E9330E0C9010895DC0191968C919197A4
:104B3000882339F05496ED91FC915597808186FF3A
:104B4000F9CF91961C920895CF93DF93EC01EE85F7
:104B5000FF85E05CFF4F20813181E054F0402F5F02
:104B60003F4F2F733070DF01AE5BBF4F8D919C9133
:104B7000119728173907D1F3E05CFF4F80819181AD
:104B8000E054F040E80FF91F6083EE85FF85E05C9C
:104B9000FF4F31832083EE89FF89208181E090E0FF
:104BA0000F8C02C0880F991F0A94E2F7282B2083EC
:104BB00081E089A3EC89FD8980818064808381E024
:104BC00090E0DF91CF9108951F93109237141092C7
:104BD000361428EE33E040E050E020933814309350
:104BE000391440933A1450933B146AE87AE0709376
:104BF00035146093341484E192E1909341148093CE
:104C0000401488E592E1909343148093421485EC1C
:104C100090E0909345148093441484EC90E090933A
:104C200047148093461480EC90E09093491480934D
:104C3000481481EC90E090934B1480934A1482ECDA
:104C400090E090934D1480934C1486EC90E09093F8
:104C50004F1480934E1414E010935014B3E0B093AB
:104C60005114A7E0A0935214F5E0F0935314E1E03F
:104C7000E0935414109259141092581420935A141B
:104C800030935B1440935C1450935D1470935714ED
:104C9000609356148CE992E19093631480936214AC
:104CA00080EE92E190936514809364148DEC90E013
:104CB00090936714809366148CEC90E09093691441
:104CC0008093681488EC90E090936B1480936A143E
:104CD00089EC90E090936D1480936C148AEC90E0D2
:104CE00090936F1480936E148EEC90E090937114F7
:104CF0008093701410937214B0937314A09374146F
:104D0000F0937514E093761410927B1410927A1439
:104D100020937C1430937D1440937E1450937F1421
:104D2000709379146093781484E293E190938514DE
:104D30008093841488E693E190938714809386147B
:104D400085ED90E0909389148093881484ED90E031
:104D500090938B1480938A1480ED90E090938D143F
:104D600080938C1481ED90E090938F1480938E1437
:104D700082ED90E0909391148093901486ED90E0F2
:104D8000909393148093921410939414B093951469
:104D9000A0939614F0939714E093981410929D1496
:104DA00010929C1420939E1430939F144093A0144F
:104DB0005093A11470939B1460939A148CEA93E11E
:104DC0009093A7148093A61480EF93E19093A91475
:104DD0008093A81485E391E09093AB148093AA1478
:104DE00084E391E09093AD148093AC1480E391E060
:104DF0009093AF148093AE1481E391E09093B1143B
:104E00008093B01482E391E09093B3148093B21432
:104E100086E391E09093B5148093B4141093B61484
:104E2000B093B714A093B814F093B914E093BA14E4
:104E30001F9108950895CF93DF93C7D9FBDF0E9498
:104E4000130CC0E6D3E20E94191A2097E1F338DC74
:104E5000FACFCF92DF92EF92FF920F931F93CF93EF
:104E6000DF937C016B018A01C0E0D0E00FC0D60166
:104E70006D916D01D701ED91FC910190F081E02DD4
:104E8000C7011995C80FD91F015010400115110510
:104E900071F7CE01DF91CF911F910F91FF90EF90AD
:104EA000DF90CF900895CF93DF93FB01EC01A881B1
:104EB000B98160817181448155811296ED91FC9197
:104EC00013971995DF91CF910895EF92FF920F9369
:104ED0001F938C01DC01ED91FC910190F081E02D9C
:104EE0006DE019957C01D801ED91FC910190F08164
:104EF000E02DC8016AE019959C012E0D3F1DC901E6
:104F00001F910F91FF90EF900895EF92FF920F93F2
:104F10001F937C01C8DF8C01C701D7DF9C01200FE4
:104F2000311FC9011F910F91FF90EF900895CF930A
:104F3000DF93EC016115710519F420E030E00FC03A
:104F4000DB010D900020E9F71197A61BB70BE88154
:104F5000F9810280F381E02DAD0119959C01C90111
:104F6000DF91CF9108954F925F927F928F929F929F
:104F7000AF92BF92CF92DF92EF92FF920F931F9367
:104F8000DF93CF93CDB7DEB7A1970FB6F894DEBF0E
:104F90000FBECDBF2C01742ECB01223008F42AE0C5
:104FA00019A231E2C32ED12CCC0EDD1E822E992403
:104FB000AA24BB24672D752FA5019401B6D57901CC
:104FC0008A01C801B701A50194017DD5472D461B73
:104FD0000894C108D1084A3014F4405D01C0495C0E
:104FE000F6014083E114F1040105110521F07E2C46
:104FF0005F2DC801DFCFC201B60199DFA1960FB6C0
:10500000F894DEBF0FBECDBFCF91DF911F910F91FE
:10501000FF90EF90DF90CF90BF90AF909F908F90D8
:105020007F905F904F900895DC012115310541F488
:10503000ED91FC910190F081E02D642F1995089578
:1050400092CFEF92FF920F931F937C01EDDF8C01C3
:10505000C7013BDF9C01200F311FC9011F910F9138
:10506000FF90EF900895CF92DF92EF92FF920F930F
:105070001F93CF93DF93EC016A017B01211531056A
:1050800041F4E881F9810190F081E02D642F1995B8
:105090001DC02A303105C9F477FF16C0E881F981B7
:1050A0000190F081E02D6DE219958C014427552780
:1050B000BA014C195D096E097F09CE012AE053DF60
:1050C0009801280F391F03C02AE04DDF9C01C90158
:1050D000DF91CF911F910F91FF90EF90DF90CF90D4
:1050E0000895CF92DF92EF92FF920F931F936C017E
:1050F0007B019A010027F7FC0095102FB801A7014A
:10510000B2DF8C01C601E1DE080F191FC8011F9133
:105110000F91FF90EF90DF90CF90089508CF089502
:10512000EF92FF920F931F937C0101DF8C01C70167
:10513000CCDE080F191FC8011F910F91FF90EF904F
:105140000895FC019B01848195816817790728F4F3
:10515000608171816115710529F41092BC146CEBAA
:1051600074E102C0620F731FCB010895FC018081BE
:105170009181009729F420E030E040E050E004C045
:105180000E9435019B01AC01B901CA010895CF927B
:10519000DF92EF92FF920F931F93CF93DF936C01F7
:1051A000DC01ED90FC901197E114F10409F43FC08B
:1051B0001496CD91DC9115972097C9F1870102C013
:1051C0000F5F1F4FF8018081992787FD9095E9D4E3
:1051D000892BB1F72197CE0DDF1D01C02197888162
:1051E000992787FD9095DDD4892B19F0C017D10739
:1051F000A8F7FE013196E01BF10BD6011596FC9342
:10520000EE9314972D913C912017310728F4C90192
:10521000B801AF010E945B01D601ED91FC9111979D
:1052200014968D919C911597E80FF91F1082DF91CC
:10523000CF911F910F91FF90EF90DF90CF90089545
:10524000CF93DF93FC01848195814817590768F457
:10525000C081D181772767FD7095CE01840F951F9E
:105260000E9464019C01009719F42FEF3FEF02C0E8
:105270002C1B3D0BC901DF91CF91089540E050E018
:10528000DFCFDC01FB0114968D919C911597892B42
:1052900031F461157105A9F090E0808108C00D908E
:1052A000BC91A02D6115710529F490E08C918823A3
:1052B00049F407C0CD010E946F019C0190E0232BAF
:1052C00009F491E0892F0895CF93DF939C01FB01AE
:1052D000EC01A881B981109729F060817181611575
:1052E0007105D1F4C081D181209759F084819581D5
:1052F000892B39F0888190E022273327281B390B2E
:1053000012C0109771F0F90184819581892B49F0C1
:105310008C91282F30E007C0CD010E946F019C01C5
:1053200002C020E030E0C901DF91CF910895FC0177
:10533000DB012481358114968D919C911597281756
:10534000390711F020E006C0CF01BEDF20E0892B35
:1053500009F421E0822F08950F931F93CF93DF93D9
:10536000EC018B016F5F7F4F88819981CFD20097CD
:1053700011F480E005C0998388831B830A8381E050
:10538000DF91CF911F910F910895CF93DF93EC019F
:1053900088819981892B29F08A819B8186179707BB
:1053A00058F4CE01D9DF882341F08C819D81892B6F
:1053B00019F4E881F981108281E0DF91CF9108959D
:1053C000EF92FF920F931F93CF93DF93EC017B013A
:1053D0006C817D81E114F104B9F04115510591F022
:1053E0008A01060F171FB801D0DF882369F0888172
:1053F00099812C813D81820F931FB7010E94780112
:105400001D830C8381E001C080E0DF91CF911F916B
:105410000F91FF90EF900895DF93CF930F920F922B
:10542000CDB7DEB769831A82BE016F5F7F4F41E05F
:1054300050E0C6DF0F900F90CF91DF910895611576
:10544000710511F480E00895DB010D900020E9F76B
:105450001197A61BB70BAD01B3CFCF93DF93EC0130
:1054600088819981009709F0B9D1198218821D822B
:105470001C821B821A82DF91CF9108950F931F9394
:10548000182F092FC9DF882319F4812F902FE5DF0A
:10549000812F902F1F910F9108950F931F93182F15
:1054A000092FFB01608171814481558189DF882347
:1054B00019F4812F902FD1DF812F902F1F910F9101
:1054C0000895EF92FF920F931F93CF93DF93EC0118
:1054D0007B018A01BA0159DF882319F4CE01BDDFAF
:1054E00007C01D830C8388819981B7010E947801D0
:1054F000CE01DF91CF911F910F91FF90EF90089512
:10550000CF93DF93EC01198218821B821A821D82CD
:105510001C826115710549F0DB010D900020E9F74F
:105520001197A61BB70BAD01CCDFDF91CF9108958A
:10553000CF93DF93EC01198218821B821A821D829D
:105540001C826115710549F0DB010D900020E9F71F
:105550001197A61BB70BAD01B4DFDF91CF91089572
:105560000F931F93182F092F6115710551F0DB015F
:105570000D900020E9F71197A61BB70BAD01A1DF35
:1055800001C06BDF812F902F1F910F910895DF9342
:10559000CF930F920F92CDB7DEB7FC01118210822C
:1055A000138212821582148269831A82BE016F5F90
:1055B0007F4FD6DF0F900F90CF91DF910895BF926C
:1055C000CF92DF92EF92FF920F931F93CF93DF93CF
:1055D000082FB92E6B017A01E9012417350710F461
:1055E000EA017901802F9B2D6DE57AE089DFD601F4
:1055F00014968D919C9115978E159F05C8F08C1768
:105600009D0708F4EC01D601ED91FC911197EC0F88
:10561000FD1F108110826D917C916E0D7F1D802F7A
:105620009B2D9EDFD601ED91FC91EC0FFD1F1083A9
:10563000802F9B2DDF91CF911F910F91FF90EF90C5
:10564000DF90CF90BF900895CF93DF93EC01FB01E3
:105650008617970751F0608171816115710521F0FE
:10566000448155812EDF01C0F8DECE01DF91CF915C
:105670000895FC0111821082138212821582148215
:10568000E3CFFC01118210821382128215821482F0
:10569000DBCFFC0180819181A1C0FC0180819181DF
:1056A0009DC00F931F93CF93DF93BC018230910570
:1056B00010F462E070E0E091BF14F091C01440E09B
:1056C00050E0A0E0B0E024C0808191818617970768
:1056D000D0F08617970771F482819381109729F093
:1056E00013969C938E9312972CC09093C014809322
:1056F000BF1427C04115510519F08417950718F4F8
:105700008D01AC01EF01DF01828193819C01F901E0
:105710003097D1F641155105F9F0CA01861B970B58
:105720008430910580F48A819B810115110521F057
:10573000F8019383828304C09093C0148093BF14B4
:10574000FE01329645C0FE01E80FF91F6193719387
:105750000297998388833CC08091BD149091BE14B8
:10576000892B41F48091620A9091630A9093BE1450
:105770008093BD144091640A5091650A411551050A
:1057800041F44DB75EB78091600A9091610A481B61
:10579000590B2091BD143091BE1424173507B0F475
:1057A000CA01821B930B8617970780F0AB014E5FEF
:1057B0005F4F8417950750F0420F531F5093BE144C
:1057C0004093BD14F9016193719302C0E0E0F0E0F1
:1057D000CF01DF91CF911F910F910895CF93DF9368
:1057E0009C01009709F48FC0EC0122971B821A825A
:1057F0006091BF147091C0146115710581F48881A6
:105800009981820F931F2091BD143091BE142817E7
:10581000390739F5D093BE14C093BD1474C0DB01B1
:1058200040E050E0AC17BD0708F1BB83AA83FE013E
:1058300021913191E20FF31FAE17BF0779F48D91DB
:105840009C911197280F391F2E5F3F4F3983288372
:1058500012968D919C9113979B838A8341155105D4
:1058600071F4D093C014C093BF144DC012968D91A3
:105870009C911397AD01009711F0DC01D3CFDA01B1
:105880001396DC93CE931297FA0121913191E20F96
:10589000F31FCE17DF0769F488819981280F391F1C
:1058A0002E5F3F4FFA01318320838A819B8193834E
:1058B0008283E0E0F0E0DB0112968D919C911397DA
:1058C000009719F0BC01FD01F6CFAB014E5F5F4FB1
:1058D000DB018D919C91840F951F2091BD14309117
:1058E000BE142817390779F4309729F41092C014A0
:1058F0001092BF1402C01382128242505040509343
:10590000BE144093BD14DF91CF9108956F927F92A2
:105910008F929F92AF92BF92CF92DF92EF92FF92BF
:105920000F931F93CF93DF938C01009721F4CB014A
:10593000B8DE8C01B8C08EEFE82E8FEFF82EE00EA7
:10594000F11E4801860E971E8E149F0408F4A9C00C
:10595000D7014D915C91119746175707B0F045302C
:10596000510508F4A0C0CA0104978617970708F4E8
:105970009AC042505040461B570BF401419351933B
:105980006D937C93CF012ADF8EC05B01A41AB50A08
:105990003801640E751EA091BF14B091C014E0E0F0
:1059A000F0E0CC24DD2447C0A615B705A9F5CD91BC
:1059B000DC911197CE0102968A159B0568F1CE0104
:1059C0008A199B09029612962C91129713963C9174
:1059D000059758F0F40122833383CA19DB09D18378
:1059E000C083D7016D937C9309C04E5F5F4F4C0F0E
:1059F0005D1FF70151834083C901FC01C114D1042B
:105A000031F0D6011396FC93EE9312974CC0F093AD
:105A1000C014E093BF1447C08D919C911197E81773
:105A2000F90708F4FC016D0112968C9112971396F8
:105A30009C919C01D901109709F0B6CF8091BD14BB
:105A40009091BE1486159705E9F4E617F707D0F490
:105A50002091640A3091650A2115310541F42DB772
:105A60003EB78091600A9091610A281B390B82161B
:105A70009306B8F49092BE148092BD14F70171831E
:105A8000608311C0CB010DDEEC01009751F0D7010E
:105A90004D915C91B8010E945B01C8019FDE8E01AF
:105AA00002C000E010E0C801DF91CF911F910F917B
:105AB000FF90EF90DF90CF90BF90AF909F908F902E
:105AC0007F906F900895629FD001739FF001829F35
:105AD000E00DF11D649FE00DF11D929FF00D839F7D
