:1000000006C1000031C100002FC100002DC1000059
:100010002BC1000029C1000027C1000025C100003C
:1000200023C1000021C100001FC100001DC100004C
:100030001BC1000019C1000017C1000015C100005C
:1000400013C1000011C100000FC100000DC100006C
:100050000BC1000009C1000007C100000C94DF249F
:1000600003C100000C94BB260C940F28FDC00000B7
:10007000FBC00000F9C00000F7C00000F5C00000A0
:10008000F3C00000F1C00000EFC00000EDC00000B0
:100090000C94FB260C944E28E7C000000C942E23F1
:1000A000E3C00000E1C00000DFC00000DDC00000D0
:1000B000DBC00000D9C00000D7C00000D5C00000E0
:1000C000D3C00000D1C00000CFC000000C943B277B
:1000D0000C948D28C9C000000C947B270C94CC286C
:1000E000C3C0000000002100240027002A002D00CA
:1000F0003000330001010000040107010A01000083
:100100002200250028002B002E00310034000201BF
:100110000000050108010B0100002000230026005B
:1001200029002C002F00320000010000030106010D
:10013000090105050505070508080808020202026D
:100140000A0A080804040404010101010101010173
:100150000303030303030303040707070C0C0C0C3E
:100160000C0C0C0C02020202060606060606060627
:100170000B0B0B0B0B0B0B0B0102102020080810B4
:100180002040102040800201020108040201010207
:1001900004081020408080402010080402018004E0
:1001A000020180402010080402010804020101023B
:1001B0000408102040800102040810204080000044
:1001C000090A02080B0C0D070603040100000000D9
:1001D000000000000000000000000000000000001F
:1001E0000000000000000000000011100F000000DF
:1001F00000000000000000000000000000000000FF
:10020000000000006B08D01ED4213E2A660811248D
:100210001FBECFEFD1E2DEBFCDBF00E00CBF1AE0C2
:10022000A0E0B2E0E4EFF5E600E00BBF02C007900B
:100230000D92A239B107D9F71BBE14E1A2E9BAE0C9
:1002400001C01D92A83CB107E1F712E0CCE0D2E07A
:1002500004C02297FE010E94DF32C430D107C9F7E3
:100260000E94752B0C94EE32CBCE1F93FC01992784
:100270008827BC01E89411911032E9F3193010F08D
:100280001E30C8F31B3249F01D3241F4689405C09A
:1002900056D0610F711D811D911D119110531A309F
:1002A000B8F33EF490958095709561957F4F8F4F90
:1002B0009F4F1F910895FB01DC0102C001900D9238
:1002C00041505040D8F70895FC018191861721F0E4
:1002D0008823D9F7992708953197CF010895FB0115
:1002E000DC018D91019080190110D9F3990B0895CB
:1002F000FB01DC0101900D920020E1F70895FB0164
:100300009F01E8944230C4F04532B4F44A3029F4F5
:1003100097FB1EF4909581959F4F642F77270E943D
:10032000C932805D8A330CF0895D8193CB010097DF
:10033000A1F716F45DE251931082C9012AC0592F2A
:10034000482F372F262F660F771F881F991F660F9C
:10035000771F881F991F620F731F841F951F660FD9
:10036000771F881F991F0895FB019F01423074F089
:10037000453264F4642F77270E94C932805D8A3346
:100380000CF0895D8193CB010097A1F71082C90120
:1003900000C0DC01FC01672F71917723E1F73297F0
:1003A00004C07C916D9370836291AE17BF07C8F350
:1003B0000895EF92FF920F931F937C0100E012E0EB
:1003C0000A96B8010E94562FC7014096B8010E94B4
:1003D000562FC7014696B8010E94562FC7014C966A
:1003E000B8010E94562FC7018E96B8010E94562F61
:1003F000C701C496B8010E94562FC701CA96B8011A
:100400000E94562FC701805C9F4FB8010E94562F53
:10041000F70117A216A21F910F91FF90EF90089578
:10042000CF92EF920F93CF93DF938130910509F034
:10043000A6C56F5F7F4F09F043C682E99AE00E942C
:10044000852180E59BE068E049E024E005E056E096
:10045000E52E37E0C32E0E9458208CE69BE060E03A
:1004600072E00E94562F82E79BE060E072E00E94FB
:10047000562F88E79BE060E072E00E94562F80E8EC
:100480009BE061E072E00E94562F86E89BE068E303
:1004900072E00E94562F8CE89BE061E872E00E94B7
:1004A000562F82E99BE06AEC72E00E94562F88E9A1
:1004B0009BE060EF72E00E94562F8EE99BE067E4BC
:1004C00073E00E94562F84EA9BE06BE773E00E9482
:1004D000562F8AEA9BE065EA73E00E94562F80EB74
:1004E0009BE06DEC73E00E94562F86EB9BE066EF7D
:1004F00073E00E94562F8CEB9BE06CE274E00E944C
:10050000562F82EC9BE064E674E00E94562F88EC44
:100510009BE062E974E00E94562F8EEC9BE064EC55
:1005200074E00E94562F84ED9BE067EF74E00E9418
:10053000562F8AED9BE065E275E00E94562F8BEE08
:100540009BE037DF82E39CE063E875E00E94562F72
:1005500088E39CE066E875E00E94562F8EE39CE0FD
:1005600069E875E00E94562F84E49CE06CE875E031
:100570000E94562F8AE49CE06FE875E00E94562F97
:1005800080E59CE062E975E00E94562F86E59CE0DC
:1005900065E975E00E94562F8CE59CE068E975E0FE
:1005A0000E94562F82E69CE06BE975E00E94562F70
:1005B00088E69CE06EE975E00E94562F8EE69CE08E
:1005C00061EA75E00E94562F84E79CE064EA75E0DA
:1005D0000E94562F8AE79CE063E875E00E94562F40
:1005E00080E89CE066E875E00E94562F86E89CE073
:1005F00069E875E00E94562F8CE89CE06CE875E095
:100600000E94562F82E99CE06FE875E00E94562F09
:1006100088E99CE062E975E00E94562F8EE99CE033
:1006200065E975E00E94562F84EA9CE068E975E070
:100630000E94562F8AEA9CE06BE975E00E94562FD3
:1006400080EB9CE06EE975E00E94562F86EB9CE003
:1006500061EA75E00E94562F8CEB9CE064EA75E03D
:100660000E94562F82EC9CE067EA75E00E94562FAC
:1006700088EC9CE06AEA75E00E94562F8EEC9CE0C4
:100680006DEA75E00E94562F84ED9CE060EB75E00A
:100690000E94562F8AED9CE063EB75E00E94562F76
:1006A00080EE9CE066EB75E00E94562F86EE9CE0A3
:1006B00069EB75E00E94562F8CEE9CE06CEB75E0C8
:1006C0000E94562F82EF9CE06FEB75E00E94562F40
:1006D00088EF9CE062EC75E00E94562F8EEF9CE064
:1006E00065EC75E00E94562F84E09DE068EC75E0B3
:1006F0000E94562F8AE09DE06BEC75E00E94562F19
:1007000080E19DE06EEC75E00E94562F86E19DE051
:1007100061ED75E00E94562F8CE19DE064ED75E07F
:100720000E94562F82E29DE067ED75E00E94562FF1
:1007300088E29DE06AED75E00E94562F8EE29DE012
:100740006DED75E00E94562F84E39DE060EE75E04C
:100750000E94562F8AE39DE062EE75E00E94562FBC
:1007600080E49DE064EE75E00E94562F86E49DE0F3
:1007700066EE75E00E94562F8CE49DE068EE75E011
:100780000E94562F82E59DE06AEE75E00E94562F8A
:1007900088E59DE06CEE75E00E94562F8EE59DE0A9
:1007A0006EEE75E00E94562F84E69DE060EF75E0E6
:1007B0000E94562F8AE69DE062EF75E00E94562F58
:1007C00080E79DE064EF75E00E94562F86E79DE08C
:1007D00063E875E00E94562F8CE79DE066E875E0BF
:1007E0000E94562F82E89DE069E875E00E94562F2E
:1007F00088E89DE06CE875E00E94562F8EE89DE049
:100800006FE875E00E94562F84E99DE062E975E08B
:100810000E94562F8AE99DE065E975E00E94562FF7
:1008200080EA9DE068E975E00E94562F86EA9DE027
:100830006BE975E00E94562F8CEA9DE06EE975E049
:100840000E94562F82EB9DE061EA75E00E94562FD0
:1008500088EB9DE064EA75E00E94562F8EEB9DE0E8
:1008600067EA75E00E94562F84EC9DE06AEA75E025
:100870000E94562F8AEC9DE06DEA75E00E94562F8B
:1008800080ED9DE060EB75E00E94562F86ED9DE0C7
:1008900063EB75E00E94562F8CED9DE066EB75E0F2
:1008A0000E94562F82EE9DE069EB75E00E94562F64
:1008B00088EE9DE06CEB75E00E94562F8EEE9DE079
:1008C0006FEB75E00E94562F84EF9DE062EC75E0BF
:1008D0000E94562F8AEF9DE065EC75E00E94562F2E
:1008E00080E09EE064EF75E00E94562F86E09EE077
:1008F00063E875E00E94562F8CE09EE066E875E0A4
:100900000E94562F82E19EE069E875E00E94562F12
:1009100088E19EE06CE875E00E94562F8EE19EE033
:100920006FE875E00E94562F84E29EE062E975E070
:100930000E94562F8AE29EE065E975E00E94562FDC
:1009400080E39EE068E975E00E94562F86E39EE012
:100950006BE975E00E94562F8CE39EE06EE975E02E
:100960000E94562F82E49EE061EA75E00E94562FB5
:1009700088E49EE064EA75E00E94562F8EE49EE0D3
:1009800067EA75E00E94562F84E59EE06AEA75E00A
:100990000E94562F8AE59EE06DEA75E00E94562F70
:1009A00080E69EE060EB75E00E94562F86E69EE0B2
:1009B00063EB75E00E94562F8CE69EE066EB75E0D7
:1009C0000E94562F82E79EE069EB75E00E94562F49
:1009D00088E79EE06CEB75E00E94562F8EE79EE064
:1009E0006FEB75E00E94562F84E89EE062EC75E0A4
:1009F0000E94562F8AE89EE065EC75E00E94562F13
:100A000080E99EE068EC75E00E94562F86E99EE042
:100A10006BEC75E00E94562F8CE99EE06EEC75E061
:100A20000E94562F82EA9EE061ED75E00E94562FEB
:100A300088EA9EE064ED75E00E94562F8EEA9EE003
:100A400067ED75E00E94562F84EB9EE06AED75E03D
:100A50000E94562F8AEB9EE06DED75E00E94562FA6
:100A600080EC9EE067EF75E00E94562F86EC9EE0DA
:100A70006AEF75E00E94562F8CEC9EE06DEF75E0FA
:100A80000E94562F82ED9EE060E076E00E94562F95
:100A900088ED9EE063E076E00E94562F8EED9EE0AA
:100AA00066E076E00E94562F84EE9EE069E076E0F4
:100AB0000E94562F8AEE9EE06CE076E00E94562F50
:100AC00080EF9EE06FE076E00E94562F86EF9EE07A
:100AD00062E176E00E94562F8CEF9EE065E176E0C1
:100AE0000E94562F82E09FE068E176E00E94562F38
:100AF00088E09FE06BE176E00E94562F8EE09FE059
:100B00006EE176E00E94562F84E19FE061E276E09C
:100B10000E94562F8AE19FE064E276E00E94562F01
:100B200080E29FE067E276E00E94562F86E29FE037
:100B30006AE276E00E94562F8CE29FE06DE276E05A
:100B40000E94562F82E39FE060E376E00E94562FDA
:100B500088E39FE063E376E00E94562F8EE39FE0F8
:100B600066E376E00E94562F84E49FE069E376E036
:100B70000E94562F8AE49FE06CE376E00E94562F95
:100B800080E59FE06FE376E00E94562F86E59FE0C8
:100B900062E476E00E94562F8CE59FE065E476E003
:100BA0000E94562F82E69FE068E476E00E94562F6E
:100BB00088E69FE060EE75E00E94562F8EE69FE08B
:100BC00062EE75E00E94562F84E79FE064EE75E0C8
:100BD0000E94562F8AE79FE066EE75E00E94562F2E
:100BE00080E89FE068EE75E00E94562F86E89FE05F
:100BF0006AEE75E00E94562F8CE89FE06CEE75E07F
:100C00000E94562F82E99FE06EEE75E00E94562FFB
:100C100088E99FE060EF75E00E94562F8EE99FE023
:100C200062EF75E00E94562F84EA9FE06BE476E065
:100C30000E94562F8AEA9FE06DE476E00E94562FCC
:100C400080EB9FE06FE476E00E94562F86EB9FE0FA
:100C500061E576E00E94562F8CEB9FE063E576E03D
:100C60000E94562F82EC9FE065E576E00E94562FA9
:100C700088EC9FE067E576E00E94562F8EEC9FE0BF
:100C800069E576E00E94562F84ED9FE06BE576E003
:100C90000E94562F8AED9FE06DE576E00E94562F68
:100CA00080EE9FE06FE576E00E94562F86EE9FE093
:100CB00061E676E00E94562F8CEE9FE063E676E0D8
:100CC0000E94562F82EF9FE065E676E00E94562F45
:100CD00088EF9FE067E676E00E94562F8EEF9FE058
:100CE00069E676E00E94562F84E090E16BE676E0BC
:100CF0000E94562F8AE090E16DE676E00E94562F22
:100D000080E190E16FE676E00E94562F86E190E167
:100D100061E776E00E94562F8CE190E163E776E090
:100D20000E94562F82E290E165E776E00E94562FFE
:100D300088E290E167E776E00E94562F8EE290E12C
:100D400069E776E00E94562F84E390E16BE776E056
:100D50000E94562F8AE390E16DE776E00E94562FBD
:100D600080E490E16FE776E00E94562F86E490E100
:100D700061E876E00E94562F8CE490E163E876E02B
:100D80000E94562F82E590E165E876E00E94562F9A
:100D900088E590E167E876E00E94562F8EE590E1C5
:100DA00069E876E00E94562F84E690E16BE876E0F1
:100DB0000E94562F8AE690E16DE876E00E94562F59
:100DC00080E790E16FE876E00E94562F86E790E199
:100DD00061E976E00E94562F8CE790E163E976E0C6
:100DE0000E94562F82E890E165E976E00E94562F36
:100DF00088E890E167E976E00E94562F8EE890E15E
:100E000069E976E00E94562F84E990E16BE976E08B
:100E10000E94562F8AE990E16DE976E00E94562FF4
:100E200080EA90E16FE976E00E94562F86EA90E131
:100E300061EA76E00E94562F8CEA90E163EA76E060
:100E40000E94562F82EB90E165EA76E00E94562FD1
:100E500088EB90E167EA76E00E94562F8EEB90E1F6
:100E600069EA76E00E94562F84EC90E16BEA76E026
:100E70000E94562F8AEC90E16DEA76E00E94562F90
:100E800080ED90E16FEA76E00E94562F86ED90E1CA
:100E900061EB76E00E94562F8CED90E160EE75E0FC
:100EA0000E94562F82EE90E162EE75E00E94562F6E
:100EB00088EE90E164EE75E00E94562F8EEE90E190
:100EC00066EE75E00E94562F84EF90E168EE75E0C3
:100ED0000E94562F8AEF90E16AEE75E00E94562F2D
:100EE00080E091E16CEE75E00E94562F86E091E182
:100EF0006EEE75E00E94562F8CE091E160EF75E098
:100F00000E94562F82E191E162EF75E00E94562F18
:100F100088E191E163EB76E00E94562F8EE191E14A
:100F200065EB76E00E94562F84E291E167EB76E074
:100F30000E94562F8AE291E16BEB76E00E94562FD9
:100F400080E391E16FEB76E00E94562F86E391E11A
:100F500063EC76E00E94562F8CE391E167EC76E03B
:100F60000E94562F82E491E16BEC76E00E94562FAE
:100F700088E491E16FEC76E00E94562FA1C0892BA6
:100F800009F09EC06F5F7F4F09F09AC0C8E4D1E1BD
:100F9000CE010E944F30269781E1CE31D807C1F7AC
:100FA000CEE1D1E1CE010E944F3026978FE0CE39BD
:100FB000D807C1F7CEE9DFE0CE010E944F30269777
:100FC0008FE0C236D807C1F7C2E6DFE0CE010E944B
:100FD0004F3026978DE0CA3FD807C1F7CAEFDDE052
:100FE000CE010E944F3026978DE0CA36D807C1F750
:100FF000CAE6DDE0CE010E944F3026978DE0CE326A
:10100000D807C1F7CEE2DDE0CE010E944F3026972F
:101010008CE0C437D807C1F7C4E7DCE0CE010E94FA
:101020004F3026978CE0CC32D807C1F78BE29CE09A
:101030000E944F3085E29CE00E944F308FE19CE09F
:101040000E944F3089E19CE00E944F3087E09CE095
:101050000E944F3081E09CE00E944F308BEF9BE07C
:101060000E944F3085EF9BE00E944F30CAEDDBE0DD
:10107000CE010E944F3026978BE0C03BD807C1F7C6
:10108000C0EBDBE0CE010E944F3026978BE0C239E7
:10109000D807C1F7C2E9DBE0CE010E944F302697A6
:1010A0008BE0CA37D807C1F788E79BE00E944F3032
:1010B00082E79BE00E944F308CE69BE00E944F301D
:1010C000DF91CF910F91EF90CF90089580E090E065
:1010D0006FEF7FEFA5C981E090E06FEF7FEFA0C9D0
:1010E000BC018BE394E10C94DF2BEF92FF920F9302
:1010F0001F93DF93CF93CDB7DEB7C857D0400FB65D
:10110000F894DEBF0FBECDBF85E69BE00E94461E71
:10111000882309F4A2C1CE01019660E072E00E942A
:10112000562FB7E0EB2EF12CEC0EFD1EC70160E050
:1011300072E00E94562F8E01035F1F4FC80160911D
:10114000670B4AE00E949D2FC701B8010E942A3018
:10115000C8010E944F308B859C85019791F48E01C8
:101160000D5E1F4FC80160E30E94CD2FC801B7017B
:101170000E94232FBC01C7010E942A30C8010E948F
:1011800053308E01075E1F4FA7E0EA2EF12CEC0EC4
:10119000FD1EC801B7010E944730C80163ED76E02B
:1011A0000E94092FBC018CE69BE00E942A30C801F6
:1011B0000E9453308E01015E1F4FC8016091660B83
:1011C0004AE00E949D2FC701B8010E942A30C80141
:1011D0000E944F308B859C85019791F48E010B5DA9
:1011E0001F4FC80160E30E94CD2FC801B7010E94C4
:1011F000232FBC01C7010E942A30C8010E9453302E
:101200008E01055D1F4FC8016CE67BE00E944730F0
:10121000F7E0EF2EF12CEC0EFD1EC801B7010E9485
:10122000232F63ED76E00E94092FBC018CE69BE042
:101230000E942A30C8010E9453308E010F5C1F4F5C
:10124000C8016091650B4AE00E949D2FC701B8015B
:101250000E942A30C8010E944F308B859C850197DF
:1012600091F48E01095C1F4FC80160E30E94CD2FED
:10127000C801B7010E94232FBC01C7010E942A3078
:10128000C8010E9453308E01035C1F4FC8016CE6F9
:101290007BE00E944730E7E0EE2EF12CEC0EFD1EC5
:1012A000C801B7010E94232FBC018CE69BE00E947D
:1012B0002A30C8010E9453308E010D5B1F4FC801B8
:1012C00060916A0B4AE00E949D2FC701B8010E94FD
:1012D0002A30C8010E944F308B859C85019791F47C
:1012E0008E01075B1F4FC80160E30E94CD2FC8012C
:1012F000B7010E94232FBC01C7010E942A30C801F8
:101300000E9453308E01015B1F4F77E0E72EF12CD6
:10131000EC0EFD1EC801B7010E944730C80165ED03
:1013200076E00E94092FBC0182E79BE00E942A30F0
:10133000C8010E9453308E010B5A1F4FC8016091A3
:10134000690B4AE00E949D2FC701B8010E942A3014
:10135000C8010E944F308B859C85019791F48E01C6
:10136000055A1F4FC80160E30E94CD2FC801B70185
:101370000E94232FBC01C7010E942A30C8010E948D
:1013800053308E010F591F4FC80162E77BE00E9466
:10139000473067E0E62EF12CEC0EFD1EC801B701C8
:1013A0000E94232F65ED76E00E94092FBC0182E7A1
:1013B0009BE00E942A30C8010E9453308E010959D7
:1013C0001F4FC80162E77BE00E94473060916B0BC2
:1013D00070E06E54784FC8010E94EB2EBC0182E78A
:1013E0009BE00E942A30C8010E9453306091680B34
:1013F00086E0689FB00111246C5D7E4E88E79BE01B
:101400000E942A308E0103591F4FC80167ED76E014
:101410000E946E2FC8016CE67BE00E94232F61EED4
:1014200076E00E94092F62E77BE00E94232F6FEE97
:1014300076E00E94092F68E77BE00E94232FBC0121
:101440008BE394E10E94DF2BC8010E945330C70157
:101450000E944F30CE01019616C080915111882311
:1014600039F08BE394E169EF76E00E940D2D0DC019
:101470008E010D581F4FC80168E277E00E94562F79
:10148000C8012EDEC8010E944F30C858DF4F0FB68A
:10149000F894DEBF0FBECDBFCF91DF911F910F91AA
:1014A000FF90EF9008950F931F938823D1F082E966
:1014B0009AE048EE53E060E070E025E738E003E0B2
:1014C00010E00E947821992787FD909590937F0BDB
:1014D00080937E0B8BE394E168E577E00E940D2D0D
:1014E00006C082E99AE060917E0B0E94DE201F9187
:1014F0000F9108950F931F9380914E116623C9F0A9
:10150000882309F582E99AE044EF51E060E070E059
:101510002FE13CE002E010E00E947821992787FD4E
:1015200090959093501180934F1181E080934E11CC
:101530000AC0813041F482E99AE060914F110E9423
:10154000DE2010924E111F910F9108958091E10BB2
:101550009091E20B9093E60B8093E50B80E00E9464
:10156000A1259C019093E20B8093E10B4091E50B48
:101570005091E60B841B950B05960B9798F581E02F
:101580008093E00BC9018C589040099718F483E0D0
:1015900090E01EC0C90185549140099718F484E079
:1015A00090E016C0C9010496099718F485E090E010
:1015B0000FC0C901855F9140099718F482E090E05F
:1015C00007C0225E32402930310538F481E090E0D6
:1015D0009093E40B8093E30B08951092E40B109228
:1015E000E30B04C05093E20B4093E10B1092E00B2D
:1015F00008950F931F938091E10B9091E20B9093CC
:10160000E60B8093E50B80E00E94A1259093E20B0E
:101610008093E10B2091E50B3091E60B821B930B3D
:1016200097FF03C0909581959F4F0597A4F082E99D
:101630009AE04AE050E060E070E026EA3AE005E037
:1016400010E00E946B21992787FD90959093EA0BFB
:101650008093E90B04C03093E20B2093E10B1F91C0
:101660000F9108950F931F93882351F18FEF93E00B
:101670009093E20B8093E10B82E99AE044E150E021
:1016800060E070E029EF3AE002E010E00E9478218B
:10169000992787FD90959093E80B8093E70B8BE358
:1016A00094E16DE677E00E940B2D8BE394E144E139
:1016B00050E060E070E02AE030E00E947B2C06C041
:1016C00082E99AE06091E70B0E94DE201F910F9162
:1016D00008954F925F926F927F928F929F92AF92F6
:1016E000BF92CF92DF92EF92FF920F931F93DF93FF
:1016F000CF93CDB7DEB768970FB6F894DEBF0FBEB5
:10170000CDBF3C0180E59BE060E142E020E00E942B
:10171000BA1F80E59BE00E94B51F80E59BE060E07A
:1017200040E00E94871FB301665C7F4F80E59BE02D
:101730000E94AD2B80E59BE060E041E00E94871FA6
:1017400080915A0A9AE0492E512C460C571CF301FD
:1017500042A153A1882309F446C000E1802E912CB8
:10176000860C971C26A137A16E010894C11CD11CC0
:10177000C601B2010E94E52F17E0E12EF12CEC0E1C
:10178000FD1EC701B6010E944730B3016A5E7F4F5C
:10179000C7010E94232F5C018E01035F1F4FF301DD
:1017A00046A157A14F5F5F4F24A135A1C801B201E7
:1017B0000E94E52FC501B8010E94232FBC01C4017E
:1017C0000E942A30C8010E944F30C7010E94533046
:1017D000C6010E944F3080E59BE0B4010E94AD2B12
:1017E00010925A0A15C08E010D5E1F4FF30124A1FD
:1017F00035A1C801B2010E94E52F80E59BE0B80148
:101800000E94AD2BC8010E944F3081E080935A0A9C
:1018100068960FB6F894DEBF0FBECDBFCF91DF91B3
:101820001F910F91FF90EF90DF90CF90BF90AF90FE
:101830009F908F907F906F905F904F9008958BEE68
:101840009BE047CF0F931F93CF93DF938B01EA0168
:10185000C801BE010E941E2DFC018081803221F052
:10186000D7FD02C02197F4CFCE01DF91CF911F9118
:101870000F9108950F931F93CF93DF938B01EA018C
:10188000C801BE010E941E2DFC018081803221F41E
:10189000D7FD02C02197F4CFCE01DF91CF911F91E8
:1018A0000F9108950F931F93CF93DF938B01EA015C
:1018B000C801BE010E941E2DFC018081803249F4C6
:1018C000F801848195810196C817D90710F42196F3
:1018D000EFCFCE01DF91CF911F910F9108952F92FD
:1018E0003F924F925F926F927F928F929F92AF92B0
:1018F000BF92CF92DF92EF92FF920F931F93DF93ED
:10190000CF93CDB7DEB7C254D0400FB6F894DEBF48
:101910000FBECDBF3C015B01CE01019660E072E0DD
:101920000E94562FC5016CE20E94BB2D7C018E01E6
:10193000095F1F4FC801B50140E050E097010E94C8
:10194000E52FC301C496B8010E942A30C8010E9445
:101950004F300894E11CF11CC5016CE2A7010E9404
:101960009D2D6C010CE1202E312C260C371C8E0194
:10197000035F1F4FC801B501A70196010E94E52F23
:10198000C101B8010E942A30C8010E944F3008945A
:10199000C11CD11CC5016CE2A6010E949D2D7C01D9
:1019A0001AE3812E912C860C971C8E010D5E1F4F21
:1019B000C801B501A60197010E94E52FC401B80135
:1019C0000E942A30C8010E944F30BAE04B2E512CA1
:1019D000460C571CAFE1CA2ED12CCC0EDD1EC60121
:1019E0006FEA77E00E946E2F8E01075E1F4F08940A
:1019F000E11CF11CF50124813581C801B501A70165
:101A00000E94E52FC601B8010E94232FBC01C2012C
:101A10000E942A30C8010E944F30C6010E945330F4
:101A2000F3018685978595A384A3C20168EC77E0CE
:101A30000E94CC2E8E010B5D1F4FC801B2010E9487
:101A40003F30C301B80140E050E02CDFF30193A325
:101A500082A3C8010E944F30F30182A193A197A3F2
:101A600086A380E59BE060E142E020E00E94BA1F8F
:101A700080E59BE00E94B51F80E59BE060E040E0D0
:101A80000E94871F80E59BE0B4010E94AD2B80E59A
:101A90009BE060E041E00E94871FF30184A195A1D3
:101AA00022A133A1821B930B26A137A140970CF1F1
:101AB000FBE2EF2EF12CEC0EFD1EC701B201A901D5
:101AC000215F3F4F0E94E52F8E010F5C1F4FC80121
:101AD000B7010E944730C8016EE30E94FA2EBC0194
:101AE00080E59BE00E94AD2BC8010E945330C701E6
:101AF00010C08E01095C1F4FC801B201A901205F0F
:101B00003F4F0E94E52F80E59BE0B8010E94AD2B7E
:101B1000C8010E944F30C1016DED77E00E94BE2DDB
:101B2000882319F081E090E009C0C1016CE777E0FB
:101B30000E94BE2D882349F083E090E0F301908756
:101B40008783C30160E0D6DC4BC082E090E0F30104
:101B500090878783C30161E0CDDCEDE34E2E512CED
:101B60004C0E5D1E06C0F30186A197A1019697A3B6
:101B700086A3F30126A137A182A193A1281B390BCB
:101B8000C201B101A9012F5F3F4F0E94E52FC201A1
:101B900063EB76E00E94BE2D882311F400E00BC0B9
:101BA00000E0F30182A193A10E9626A137A182172E
:101BB00093070CF001E0C2010E944F30002399F618
:101BC000F301818593012A5E3F4F882321F0C901EB
:101BD00063EB76E003C0C90162EE77E00E94862FD6
:101BE000CE0101960E944F30CE5BDF4F0FB6F894C6
:101BF000DEBF0FBECDBFCF91DF911F910F91FF9040
:101C0000EF90DF90CF90BF90AF909F908F907F909C
:101C10006F905F904F903F902F900895BF92CF921A
:101C2000DF92EF92FF920F931F93DF93CF9300D039
:101C300000D0CDB7DEB77C01B62E6901FC0116835A
:101C400005838E96BA010E942A30F701148213820E
:101C5000F1E0CF16D10419F00894C108D108F701BA
:101C6000D282C182F701B18686E490E0E80EF91EC7
:101C7000F70110828AEB9FEFE80EF91EF7016581EC
:101C800076818E010F5F1F4FC8010E943F30C70150
:101C9000B80125DEC8010E944F3026960FB6F89491
:101CA000DEBF0FBECDBFCF91DF911F910F91FF908F
:101CB000EF90DF90CF90BF9008954F925F926F9218
:101CC0007F928F929F92AF92BF92CF92DF92EF92CC
:101CD000FF920F931F93DF93CF93CDB7DEB7A497F7
:101CE0000FB6F894DEBF0FBECDBF3C01A62E8E010D
:101CF0000F5F1F4FC80160E072E00E94562FCE01B7
:101D0000079660E072E00E94562FBAE04B2E512CED
:101D1000460C571CF30126A137A1ADE0EA2EF12CA9
:101D2000EC0EFD1EC701B201A9012F5F3F4F0E94BB
:101D3000E52FC801B7010E942A30C7010E944F3029
:101D4000EE24FF24C02E012FB701660F771F6E0D02
:101D50007F1D660F771F6C55704F8C2D902F0E9442
:101D6000142E882341F4F0E4EF16F10421F00894D6
:101D7000E11CF11CE9CFAA2051F08FE3E816F10431
:101D80001CF080E090E00BC0C701019608C0E11490
:101D9000F10419F48FE390E002C0C701019757E006
:101DA000852E912C8C0E9D1EBC01660F771F680F2F
:101DB000791F660F771F6C55704FC4010E942A303F
:101DC00023E1A22EB12CAC0EBD1EF30126A137A13A
:101DD000C501B20140E050E00E94E52F99E1C92E13
:101DE000D12CCC0EDD1EC601B5010E944730C601C4
:101DF000B4010E94232F8C018FE1E82EF12CEC0E10
:101E0000FD1EF30146A157A14F5F5F4F2685378521
:101E1000C701B2010E94E52FC801B7010E94232F1C
:101E2000BC018E010F5F1F4FC8010E942A30C701FD
:101E30000E944F30C6010E945330C5010E944F30AE
:101E4000C201B8010E942A30C4010E944F30C8016B
:101E50000E944F30A4960FB6F894DEBF0FBECDBFE0
:101E6000CF91DF911F910F91FF90EF90DF90CF9076
:101E7000BF90AF909F908F907F906F905F904F90AA
:101E800008954F925F926F927F928F929F92AF923E
:101E9000BF92CF92DF92EF92FF920F931F93DF9347
:101EA000CF93CDB7DEB7A4970FB6F894DEBF0FBEC1
:101EB000CDBF3C01A62E8E010F5F1F4FC80160E011
:101EC00072E00E94562FCE01079660E072E00E94F9
:101ED000562FBAE04B2E512C460C571CF30126A16D
:101EE00037A1ADE0EA2EF12CEC0EFD1EC701B201C8
:101EF000A9012D5F3F4F0E94E52FC801B7010E9445
:101F00002A30C7010E944F30EE24FF24C02E012F3B
:101F1000B701660F771F6E0D7F1D660F771F6C5D13
:101F20007E4E8C2D902F0E94142E882341F4F6E0D3
:101F3000EF16F10421F00894E11CF11CE9CFAA206E
:101F400051F086E0E816F1041CF080E090E00BC050
:101F5000C701019608C0E114F10419F486E090E08D
:101F600002C0C701019757E0852E912C8C0E9D1E53
:101F7000BC01660F771F680F791F660F771F6C5DB6
:101F80007E4EC4010E942A3023E1A22EB12CAC0E59
:101F9000BD1EF30126A137A1C501B20140E050E00A
:101FA0000E94E52F99E1C92ED12CCC0EDD1EC60171
:101FB000B5010E944730C601B4010E94232F8C0155
:101FC0008FE1E82EF12CEC0EFD1EF30146A157A186
:101FD0004D5F5F4F26853785C701B2010E94E52F0F
:101FE000C801B7010E94232FBC018E010F5F1F4F54
:101FF000C8010E942A30C7010E944F30C6010E94CA
:102000005330C5010E944F30C201B8010E942A30EE
:10201000C4010E944F30C8010E944F30A4960FB6F1
:10202000F894DEBF0FBECDBFCF91DF911F910F910E
:10203000FF90EF90DF90CF90BF90AF909F908F90E8
:102040007F906F905F904F9008954F925F926F9244
:102050007F928F929F92AF92BF92CF92DF92EF9238
:10206000FF920F931F93DF93CF93CDB7DEB7A49763
:102070000FB6F894DEBF0FBECDBF3C01D62E7E0159
:102080000894E11CF11CC70160E072E00E94562F29
:10209000CE01079660E072E00E94562F6AE0462E5D
:1020A000512C460C571CF30126A137A18E01035F6A
:1020B0001F4FC801B201A9012F5F3F4F0E94E52FBA
:1020C000C701B8010E942A30C8010E944F30C701E1
:1020D0000E94332DDD2049F0693071051CF080E04D
:1020E00090E00BC0CB01019608C0161617061CF035
:1020F00089E090E002C0CB01019757E0852E912C3A
:102100008C0E9D1EBC01660F771F680F791F660F2E
:10211000771F6859704FC4010E942A3023E1A22E14
:10212000B12CAC0EBD1EF30126A137A1C501B20131
:1021300040E050E00E94E52F99E1C92ED12CCC0E51
:10214000DD1EC601B5010E944730C601B4010E94E0
:10215000232F8C018FE1E82EF12CEC0EFD1EF301F4
:1021600046A157A14F5F5F4F26853785C701B20152
:102170000E94E52FC801B7010E94232FBC018E01E8
:102180000F5F1F4FC8010E942A30C7010E944F30C5
:10219000C6010E945330C5010E944F30C201B801F0
:1021A0000E942A30C4010E944F30C8010E944F3063
:1021B000A4960FB6F894DEBF0FBECDBFCF91DF91CE
:1021C0001F910F91FF90EF90DF90CF90BF90AF9055
:1021D0009F908F907F906F905F904F9008954F9257
:1021E0005F926F927F928F929F92AF92BF92CF92A7
:1021F000DF92EF92FF920F931F93DF93CF93CDB7B0
:10220000DEB7A4970FB6F894DEBF0FBECDBF3C017A
:10221000D62E7E010894E11CF11CC70160E072E03B
:102220000E94562FCE01079660E072E00E94562F62
:102230000AE0402E512C460C571CF30126A137A171
:102240008E01035F1F4FC801B201A9012E5F3F4FEE
:102250000E94E52FC701B8010E942A30C8010E94E0
:102260004F30C7010E94332DDD2049F06B337105DB
:102270001CF080E090E00BC0CB01019608C0161660
:1022800017061CF08BE390E002C0CB01019717E02A
:10229000812E912C8C0E9D1EBC01660F771F680F3E
:1022A000791F660F771F6050724FC4010E942A3059
:1022B000F3E1AF2EB12CAC0EBD1EF30126A137A168
:1022C000C501B20140E050E00E94E52FE9E1CE2EC9
:1022D000D12CCC0EDD1EC601B5010E944730C601CF
:1022E000B4010E94232F8C017FE1E72EF12CEC0E2C
:1022F000FD1EF30146A157A14E5F5F4F268537852E
:10230000C701B2010E94E52FC801B7010E94232F27
:10231000BC018E010F5F1F4FC8010E942A30C70108
:102320000E944F30C6010E945330C5010E944F30B9
:10233000C201B8010E942A30C4010E944F30C80176
:102340000E944F30A4960FB6F894DEBF0FBECDBFEB
:10235000CF91DF911F910F91FF90EF90DF90CF9081
:10236000BF90AF909F908F907F906F905F904F90B5
:1023700008954F925F926F927F928F929F92AF9249
:10238000BF92CF92DF92EF92FF920F931F93DF9352
:10239000CF93CDB7DEB7A4970FB6F894DEBF0FBECC
:1023A000CDBF3C01D62E7E010894E11CF11CC70173
:1023B00060E072E00E94562FCE01079660E072E066
:1023C0000E94562F6AE0462E512C460C571CF301F2
:1023D00026A137A18E01035F1F4FC801B201A901D9
:1023E0002E5F3F4F0E94E52FC701B8010E942A309F
:1023F000C8010E944F30C7010E94332DDD2049F0F3
:10240000673171051CF080E090E00BC0CB010196B4
:1024100008C0161617061CF087E190E002C0CB0139
:10242000019757E0852E912C8C0E9D1EBC01660FE6
:10243000771F680F791F660F771F6059724FC401AD
:102440000E942A3023E1A22EB12CAC0EBD1EF30156
:1024500026A137A1C501B20140E050E00E94E52F5E
:1024600099E1C92ED12CCC0EDD1EC601B5010E940A
:102470004730C601B4010E94232F8C018FE1E82E62
:10248000F12CEC0EFD1EF30146A157A14E5F5F4FEC
:1024900026853785C701B2010E94E52FC801B70123
:1024A0000E94232FBC018E010F5F1F4FC8010E94A5
:1024B0002A30C7010E944F30C6010E945330C50127
:1024C0000E944F30C201B8010E942A30C4010E940C
:1024D0004F30C8010E944F30A4960FB6F894DEBF6B
:1024E0000FBECDBFCF91DF911F910F91FF90EF9065
:1024F000DF90CF90BF90AF909F908F907F906F9024
:102500005F904F9008954F925F926F927F928F925B
:102510009F92AF92BF92CF92DF92EF92FF920F9372
:102520001F93DF93CF93CDB7DEB7A4970FB6F89480
:10253000DEBF0FBECDBF3C01D62E7E010894E11C4C
:10254000F11CC70160E072E00E94562FCE01079691
:1025500060E072E00E94562F0AE0402E512C460C9B
:10256000571CF30126A137A18E01035F1F4FC8013D
:10257000B201A9012F5F3F4F0E94E52FC701B801AB
:102580000E942A30C8010E944F30C7010E94332D9B
:10259000DD2049F0693071051CF080E090E00BC04F
:1025A000CB01019608C0161617061CF089E090E0D2
:1025B00002C0CB01019717E0812E912C8C0E9D1E3D
:1025C000BC01660F771F680F791F660F771F6C5C61
:1025D000724FC4010E942A30F3E1AF2EB12CAC0E31
:1025E000BD1EF30126A137A1C501B20140E050E0B4
:1025F0000E94E52FE9E1CE2ED12CCC0EDD1EC601C6
:10260000B5010E944730C601B4010E94232F8C01FE
:102610007FE1E72EF12CEC0EFD1EF30146A157A140
:102620004F5F5F4F26853785C701B2010E94E52FB6
:10263000C801B7010E94232FBC018E010F5F1F4FFD
:10264000C8010E942A30C7010E944F30C6010E9473
:102650005330C5010E944F30C201B8010E942A3098
:10266000C4010E944F30C8010E944F30A4960FB69B
:10267000F894DEBF0FBECDBFCF91DF911F910F91B8
:10268000FF90EF90DF90CF90BF90AF909F908F9092
:102690007F906F905F904F9008954F925F926F92EE
:1026A0007F928F929F92AF92BF92CF92DF92EF92E2
:1026B000FF920F931F93DF93CF93CDB7DEB7A4970D
:1026C0000FB6F894DEBF0FBECDBF3C01D62E7E0103
:1026D0000894E11CF11CC70160E072E00E94562FD3
:1026E000CE01079660E072E00E94562F6AE0462E07
:1026F000512C460C571CF30126A137A18E01035F14
:102700001F4FC801B201A9012E5F3F4F0E94E52F64
:10271000C701B8010E942A30C8010E944F30C7018A
:102720000E94332D9B0121503040DD2041F02E319D
:1027300031051CF080E090E00AC0CB0108C0121601
:1027400013061CF08EE190E002C0C901019757E02A
:10275000852E912C8C0E9D1EBC01660F771F680F75
:10276000791F660F771F6658734FC4010E942A3085
:1027700023E1A22EB12CAC0EBD1EF30126A137A180
:10278000C501B20140E050E00E94E52F99E1C92E59
:10279000D12CCC0EDD1EC601B5010E944730C6010A
:1027A000B4010E94232F8C018FE1E82EF12CEC0E56
:1027B000FD1EF30146A157A14E5F5F4F2685378569
:1027C000C701B2010E94E52FC801B7010E94232F63
:1027D000BC018E010F5F1F4FC8010E942A30C70144
:1027E0000E944F30C6010E945330C5010E944F30F5
:1027F000C201B8010E942A30C4010E944F30C801B2
:102800000E944F30A4960FB6F894DEBF0FBECDBF26
:10281000CF91DF911F910F91FF90EF90DF90CF90BC
:10282000BF90AF909F908F907F906F905F904F90F0
:1028300008954F925F926F927F928F929F92AF9284
:10284000BF92CF92DF92EF92FF920F931F93DF938D
:10285000CF93CDB7DEB7E0970FB6F894DEBF0FBECB
:10286000CDBF3C01D62E7E010894E11CF11CC701AE
:1028700060E072E00E94562FCE01079660E072E0A1
:102880000E94562F1AE0412E512C460C571CF30182
:1028900026A137A18E01035F1F4FC801B201A90114
:1028A0002E5F3F4F0E94E52FC701B8010E942A30DA
:1028B000C8010E944F308BE394E1B7010E94DF2BE7
:1028C000C7010E94332D4B015C018B010150104068
:1028D0008BE394E1B8014AE050E00E94EE2CDD2049
:1028E00041F00B3011051CF080E090E00AC0C401FB
:1028F00008C0101611061CF08BE090E002C0C80161
:102900000197B7E08B2E912C8C0E9D1EBC01660F9B
:10291000771F680F791F660F771F6E5C734FC401B6
:102920000E942A308BE394E1B4010E94DF2B8BE3F9
:1029300094E164EE77E00E940B2DF30166A177A18C
:102940008BE394E14AE050E00E94EE2C8BE394E1AB
:1029500060EF77E00E940B2D8E010D5E1F4FF3019B
:1029600026A137A1C801B20140E050E00E94E52F46
:102970008BE394E1B8010E94AD2BC8010E944F3057
:102980008BE394E16FEF77E00E940B2D8E01075EE1
:102990001F4FF30146A157A14E5F5F4F2685378534
:1029A000C801B2010E94E52F8BE394E1B8010E94B7
:1029B000AD2BC8010E944F308BE394E166E178E0D3
:1029C0000E940D2DEFE1AE2EB12CAC0EBD1EF30119
:1029D00026A137A1C501B20140E050E00E94E52FD9
:1029E00075E2E72EF12CEC0EFD1EC701B5010E9429
:1029F0004730C701B4010E94232F6C018E01055D91
:102A00001F4FF30146A157A14E5F5F4F26853785C3
:102A1000C801B2010E94E52FC601B8010E94232F10
:102A2000BC016E010894C11CD11CC6010E942A3051
:102A3000C8010E944F30C7010E945330C5010E9457
:102A40004F308BE394E166E178E00E940B2D8BE33D
:102A500094E1B2010E94AD2B8BE394E166E178E052
:102A60000E940D2D8BE394E166E178E00E940B2D2E
:102A70008BE394E1B6010E94AD2B8BE394E166E118
:102A800078E00E940D2DC201B6010E942A308BE32E
:102A900094E166E178E00E940B2D8BE394E1B201B2
:102AA0000E94AD2B8BE394E166E178E00E940D2D4E
:102AB000C4010E944F30C6010E944F30E0960FB60D
:102AC000F894DEBF0FBECDBFCF91DF911F910F9164
:102AD000FF90EF90DF90CF90BF90AF909F908F903E
:102AE0007F906F905F904F9008958F929F92AF92DA
:102AF000BF92CF92DF92EF92FF920F931F93DF93DB
:102B0000CF93CDB7DEB7CC5FD0400FB6F894DEBF21
:102B10000FBECDBF5C01DC01DC90B1E0DB1609F03B
:102B200045C6FC01878190858230910509F42AC24F
:102B30008330910509F434C4019709F037C6D501F3
:102B400096968D909C9097978091E30B9091E40BD3
:102B50008330910509F4F0C18430910544F481304B
:102B6000910509F4ABC1029709F020C6C5C08430B5
:102B7000910509F4F0C1059709F018C6EAE0CE2ED8
:102B8000D12CCA0CDB1C8E010F5F1F4FC801B60190
:102B90000E943F30F50146A157A1C80160E20E94A2
:102BA0009D2DD50197969C938E939697C8010E9470
:102BB0004F30F50126A137A184A195A12817390727
:102BC0001CF097A286A2F2C58E01095F1F4FC801B3
:102BD000B6010E943F30D50196964D915C91979732
:102BE000C501B8010E94520CF50197A386A3C80144
:102BF0000E944F3080E59BE060E142E020E00E94CF
:102C0000BA1F80E59BE00E94B51F80E59BE060E075
:102C100040E00E94871FB501665C7F4F80E59BE026
:102C20000E94AD2B80E59BE060E041E00E94871FA1
:102C3000D50196962D913C919797F90170969496AF
:102C40008D919C91959792964D915C919397E817F1
:102C5000F9071CF54217530784F473E1E72EF12CB2
:102C6000EC0EFD1EC7016CE30E94CD2FF50126A1DD
:102C700037A18E01035F1F4FDEC069E1E62EF12C04
:102C8000EC0EFD1EC701B601A901215F3F4F0E9456
:102C9000E52F8E01015E1F4F69C04217530744F5AF
:102CA0005BE2E52EF12CEC0EFD1EC7016CE30E94E9
:102CB000CD2FD50196962D913C9197978E010B5D66
:102CC0001F4FC801B601A901215F3F4F0E94E52FA8
:102CD000C701B8010E94232FBC0180E59BE00E9440
:102CE000AD2BC8010E944F30C7010E9453305EC512
:102CF0008E010F5C1F4FD6C080E59BE060E142E093
:102D000020E00E94BA1F80E59BE00E94B51F80E58D
:102D10009BE060E040E00E94871FB501665C7F4F4A
:102D200080E59BE00E94AD2B80E59BE060E041E008
:102D30000E94871FF50126A137A182A193A14AE035
:102D4000C42ED12CCA0CDB1C821793070CF107E3AD
:102D5000E02EF12CEC0EFD1EC701B601A901215F8A
:102D60003F4F0E94E52F8E01035C1F4FC801B70142
:102D70000E944730C8016EE30E94FA2EBC0180E534
:102D80009BE00E94AD2BC8010E945330C701F8C4DC
:102D90008E010D5B1F4FC801B6010E943F30D50167
:102DA00096964D915C91979741505040C501B8015E
:102DB0000E943A0CF50197A386A3C8010E944F30E8
:102DC0008E01075B1F4FC801B6010E943F30D5013D
:102DD00096964D915C919797C501B8010E94220C7F
:102DE0000196F50197A386A3C8010E944F30D50133
:102DF00096962D913C919797F901709694968D91A6
:102E00009C91959792964D915C919397E817F9074D
:102E10008CF542175307F4F415E5E12EF12CEC0E76
:102E2000FD1EC7016CE30E94CD2FF50126A137A13D
:102E30008E01015B1F4FC801B601A901225F3F4F00
:102E40000E94E52FC701B8010E94232F6EE30E9464
:102E5000FA2E42CFBBE5EB2EF12CEC0EFD1EC70186
:102E6000B601A901215F3F4F0E94E52F8E010F5946
:102E70001F4F7CCF4217530794F4ADE6EA2EF12C96
:102E8000EC0EFD1EC7016CE30E94CD2FD501969676
:102E90002D913C9197978E0109591F4F12CF8E01AA
:102EA0000D581F4FC801B601A9019F010E94E52FCF
:102EB00080E59BE0B8010E94AD2B23C2F50191A6ED
:102EC00080A6FAE0EF2EF12CEA0CFB1C8E010758CD
:102ED0001F4FC801B7010E943F30D50196964D9112
:102EE0005C919797C80160E20E949D2DF50193A720
:102EF00082A7C8010E944F308E0101581F4FD50193
:102F000098964D915C9199979A962D913C919B97AB
:102F1000C801B7010E94E52FC501805C9F4FB80131
:102F20000E942A30C8010E944F30E6E4F0E0AE0E65
:102F3000BF1ED501DC923AC4F501238134812115ED
:102F4000310509F433C421503040348323838E018A
:102F50000B571F4FC4C1D50113962D913C91149767
:102F600011968D919C9112972817390709F41EC468
:102F70002F5F3F4F14963C932E9313978E01055766
:102F80001F4F62C10091E30B1091E40B0530110556
:102F9000E1F5F50126A137A182A193A10E96821732
:102FA000930724F02F5F3F4F37A326A38501045ECC
:102FB0001F4FD50196966D917C91979792968D9122
:102FC0009C919397681B790BC8010E941E2DFC01F0
:102FD00080818D3209F0D7C3F50126A137A182A1E6
:102FE00093A10E96821793070CF4CDC32F5F3F4F2A
:102FF00037A326A3DECF21503040240F351FD50143
:1030000097963C932E939697D1C3F50166A177A12D
:1030100042A153A10230110559F54617570724F470
:103020006150704077A366A38501045E1F4FD501F0
:1030300096966D917C91979792968D919C9193978E
:10304000681B790BC8010E941E2DFC0180818D3206
:1030500009F0ACC3F50126A137A182A193A1821783
:1030600093070CF0A3C32150304037A326A3DFCF32
:10307000ECE18E2E912C8A0C9B1C641B750BC401F9
:103080000E941E2DFC01E081ED3611F5D501199647
:103090008C91882309F08AC30330110529F004308C
:1030A000110509F030C10AC08BE394E168E178E0D2
:1030B0000E940D2DC50161E0BCDB25C1C50160E0AA
:1030C000B8DB8BE394E165E278E00E940D2D1BC133
:1030D000E436A1F4F5018185882309F067C3033044
:1030E000110529F00430110509F00DC103C0C50117
:1030F00061E002C0C50160E0D0DA05C1E937A9F49A
:10310000D50119968C91882309F050C3033011051D
:1031100029F00430110509F0F6C003C0C50161E0D3
:1031200002C0C50160E0EFD9EEC0E136A9F4F501B7
:103130008185882309F03AC30330110529F0043052
:10314000110509F0E0C003C0C50161E002C0C5017E
:1031500060E00E94410FD7C0E834A9F4D501199668
:103160008C91882309F022C30330110529F0043023
:10317000110509F0C8C003C0C50161E002C0C50166
:1031800060E0F7D8C0C0ED34A1F4F5018185882353
:1031900009F00CC30330110529F00430110509F0C2
:1031A000B2C003C0C50161E002C0C50160E017D82C
:1031B000AAC0E332B1F4D50119968C91882309F0A5
:1031C000F5C20330110529F00430110509F09BC048
:1031D00003C0C50161E002C0C50160E00E94251086
:1031E00092C0E334A9F4F5018185882309F0DEC299
:1031F0000330110529F00430110509F084C003C023
:10320000C50161E002C0C50160E00E945D0E7BC0A7
:10321000E535B9F50330110529F00430110509F041
:10322000C5C21EC0D50113962D913C91149721154E
:10323000310509F4BBC22150304014963C932E93C3
:1032400013978E010F561F4FC901880F991F820FC8
:10325000931F880F991F15966D917C91169748C002
:10326000F50123813481818192812817390709F47E
:103270009DC22F5F3F4F348323838E0109561F4F1A
:103280002EC0E43409F092C20330110529F0043055
:10329000110509F08BC213C0D50113962D913C91F5
:1032A00014972115310509F481C22150304014963C
:1032B0003C932E9313978E0103561F4FC5CFF501F4
:1032C00023813481818192812817390709F46EC2E4
:1032D0002F5F3F4F348323838E010D551F4FC9014C
:1032E000880F991F820F931F880F991F6581768120
:1032F000680F791FC8010E943F30C501B8010E94C4
:103300006F0CC8013DC27FEAC72ED12CCC0EDD1E4A
:10331000B501665F7F4FC6010E943F30C6010E9423
:10332000442DD50113962D913C911497C901880F16
:10333000991F820F931F880F991F15960D911C914D
:103340001697080F191F49EAE42EF12CEC0EFD1E0A
:10335000E4E3F0E0AE0EBF1EC701B5010E944730A6
:10336000C7016CE20E94FA2EB4010E94232F6CE286
:103370000E94FA2E26E030E0A20EB31EB5010E9494
:10338000232F6CE20E94FA2EB6010E94232FBC016B
:10339000C8010E942A30C7010E945330C601F0C103
:1033A0003FEA832E912C8C0E9D1EC40160E072E0DA
:1033B0000E94562F8091E30B9091E40B833091058E
:1033C00009F49AC18430910524F4029709F0D5C11B
:1033D00028C18430910509F4ACC1059709F0CDC12D
:1033E000D50196968D919C919797409697969C9330
:1033F0008E93969794962D913C919597281739071F
:1034000024F497963C932E9396972AE0C22ED12CC3
:10341000CA0CDB1CF50166A177A1C6010E941E2D16
:10342000FC0180818032D1F0D50196966D917C911E
:103430009797C6010E941E2DFC018081803209F4FD
:103440003FC0F50126A137A182A193A1821793075E
:10345000BCF52150304037A326A3E6CFD501969680
:103460006D917C919797C6010E941E2DFC01808171
:10347000803269F4F50126A137A182A193A18217B8
:1034800093072CF42150304037A326A3E7CFD50172
:1034900096966D917C919797C6010E941E2DFC0116
:1034A0008081803269F0F50126A137A182A193A124
:1034B000821793072CF42150304037A326A3E7CF7F
:1034C000D50196962D913C91979792968D919C91CE
:1034D000939794964D915C91959728173907D9F554
:1034E000F90170969FEA892E912C8C0E9D1EE4178F
:1034F000F50704F585EBE82EF12CEC0EFD1EC70157
:10350000B601A901215F3F4F0E94E52F8E010554AE
:103510001F4FC801B7010E944730C8016EE30E94E7
:10352000FA2EBC01C4010E942A30C8010E94533007
:10353000C7010EC08E010F531F4FC801B601A9016C
:103540009F010E94E52FC401B8010E942A30C801E2
:103550000E944F3053C02F5F3F4FF50137A326A382
:10356000205F3F4F0FEA802E912C8C0E9D1E24175A
:10357000350704F51DECE12EF12CEC0EFD1EC70104
:103580006CE30E94CD2FD50196962D913C91979793
:103590008E0109531F4FC801B601A901225F3F4F99
:1035A0000E94E52FC701B8010E94232F6EE30E94FD
:1035B000FA2E1AC0B9EDEB2EF12CEC0EFD1EC70150
:1035C0006CE30E94CD2FF50126A137A18E010D528B
:1035D0001F4FC801B601A901215F3F4F0E94E52F8F
:1035E000C701B8010E94232FBC01C4010E942A30E8
:1035F000C8010E944F30C7010E94533080E59BE014
:1036000060E142E020E0B6D480E59BE0AED480E506
:103610009BE060E040E07BD42AE330E0A20EB31EE2
:1036200059C0D50192962D913C91939797963C93D2
:103630002E939697F901709694968D919C919597FB
:10364000AAE0CA2ED12CCA0CDB1CE817F90704F536
:103650007FEDE72EF12CEC0EFD1EC701B601A9018E
:10366000215F3F4F0E94E52F8E010B511F4FC80174
:10367000B7010E944730C8016EE30E94FA2EBC01D8
:10368000C4010E942A30C8010E945330C7010EC0F5
:103690008E0105511F4FC801B601A9019F010E946B
:1036A000E52FC401B8010E942A30C8010E944F30A2
:1036B00080E59BE060E142E020E05CD480E59BE0B7
:1036C00054D480E59BE060E040E021D4EAE3F0E000
:1036D000AE0EBF1E80E59BE0B5010E94AD2B80E5DC
:1036E0009BE060E041E013D480E59BE0BE016155C2
:1036F0007F4F0E94AD2B41C0D50113962D913C9177
:10370000149721153105C9F12150304014963C938E
:103710002E9313978E010F501F4FC901880F991FC9
:10372000820F931F880F991F15966D917C911697A4
:1037300018C0F501238134818181928128173907CE
:10374000E1F02F5F3F4F348323838E0109501F4FD9
:10375000C901880F991F820F931F880F991F6581D8
:103760007681680F791FC8010E943F30C501B801FA
:103770000E946F0CC8010E944F30CE0181559F4FAF
:103780000E944F3013C0D50192964D915C91939752
:1037900090962D913C91919796968D919C919797AB
:1037A000841B950B8217930708F025CCC450DF4F7C
:1037B0000FB6F894DEBF0FBECDBFCF91DF911F9142
:1037C0000F91FF90EF90DF90CF90BF90AF909F90C0
:1037D0008F900895EF92FF920F931F93DF93CF93F3
:1037E000CDB7DEB7E0970FB6F894DEBF0FBECDBF02
:1037F00082E99AE0F9D48091E00B813061F4109273
:10380000E00B6091E30B7091E40B6115710519F009
:103810008BEE9BE06AD98091310C813009F0DFC0DA
:1038200089E19CE064E378E00E94BE2D882309F4DE
:1038300053C08FE19CE06CE378E00E94BE2D8823AA
:10384000E9F18BE29CE062E478E00E94BE2D8823DF
:1038500091F07E010894E11CF11CC70166E478E058
:103860000E94562F8BEE9BE060E0A70125E030E040
:1038700008E91BE0A2C08BE29CE060E578E00E94D2
:10388000BE2D882329F08BE394E16CE578E00CC031
:103890008BE29CE06AE778E00E94BE2D882339F035
:1038A0008BE394E166E878E00E940D2D98C08E01CC
:1038B000095F1F4FC80164EA78E089C08E01035F89
:1038C0001F4FC80162EE78E00E94562FC8010E9487
:1038D0007008C8010E944F3089E19CE066E478E0FE
:1038E0000E94BE2D882309F46CC08BE394E16FE144
:1038F0007CE00E94DF2B8FE19CE069E179E00E948F
:10390000BE2D8823D1F18BE29CE060E279E00E9439
:10391000BE2D882339F08BE394E167E279E00E94C1
:103920000D2D39C08BE29CE060E479E00E94BE2D51
:103930008823E1F08BE394E167E479E00E940D2DA8
:10394000A3E1EA2EF12CEC0EFD1EC70164E378E042
:103950000E94562F8BEE9BE061E0A70124E030E04F
:1039600000E81BE00E940E0EC70113C08E01075E27
:103970001F4FC80160E679E006C08E01015E1F4F4F
:10398000C80163EA79E00E94562FC8010E947008BE
:10399000C8010E944F30F5E2EF2EF12CEC0EFD1E17
:1039A000C70164E378E00E94562F8BEE9BE061E054
:1039B000A70124E030E000E81BE00E940E0EC701E2
:1039C0000CC08E01055D1F4FC80169ED79E00E94B2
:1039D000562FC8010E947008C8010E944F301092F3
:1039E000310CE0960FB6F894DEBF0FBECDBFCF917D
:1039F000DF911F910F91FF90EF900895EF92FF924A
:103A00000F931F93DF93CF93CDB7DEB7A4970FB675
:103A1000F894DEBF0FBECDBFCE01019660E072E02C
:103A20000E94562F8BE394E140E855E260E070E09D
:103A30000E940B29CE01079661E07AE00E94562F82
:103A4000CE010D966CE07AE00E94562FCE0143968F
:103A500067E17AE00E94562F81E00E94320B81E0FC
:103A60000E94530A81E08093EB0BB9E1EB2EF12C1D
:103A7000EC0EFD1EC70164E378E00E94562F8BEE2A
:103A80009BE061E0A70124E030E000E81BE00E9439
:103A90000E0EC7010E944F3089E080936A0B87E0C9
:103AA0008093690B8DE280936B0B80E18093670BB1
:103AB0008FE08093660B8BE18093650B82E08093AF
:103AC000680B85E69BE095D0882371F48E01015E3A
:103AD0001F4FC80164E27AE00E94562FC8010E947D
:103AE0007008C8010E944F308BE394E165E37AE0EF
:103AF0000E940B2D8BE394E16091670B4AE050E04C
:103B00000E948D2C8BE394E16AE30E94FE298BE3F3
:103B100094E16091660B4AE050E00E948D2C8BE3AB
:103B200094E16AE30E94FE298BE394E16091650BC6
:103B30004AE050E00E948D2C8BE394E167E47AE048
:103B40000E940B2D8BE394E16091690B4AE050E0F9
:103B50000E948D2C8BE394E16FE20E94FE298BE39F
:103B600094E160916A0B4AE050E00E948D2C8BE357
:103B700094E16FE20E94FE2960916B0B70E06E543D
:103B8000784F8BE394E14AE050E00E94DC2C8BE319
:103B900094E10E94BF2BCE0143960E944F30CE018C
:103BA0000D960E944F30CE0107960E944F30CE01F5
:103BB00001960E944F30A4960FB6F894DEBF0FBE58
:103BC000CDBFCF91DF911F910F91FF90EF9008959E
:103BD000482F6AE00E948832282F30E084E0220FCC
:103BE000331F8A95E1F7842F0E948832892F820F34
:103BF00008950F931F938C0188E991E168E670E0C6
:103C000099D388E991E160E016D4F8018081E0DF82
:103C1000682F88E991E10FD4F8018181D9DF682FFD
:103C200088E991E108D4F8018281D2DF682F88E920
:103C300091E101D4F8018381CBDF682F88E991E11C
:103C4000FAD3F8018481C4DF682F88E991E1F3D3C6
:103C5000F8018581BDDF682F88E991E1ECD3F80197
:103C600086818E51B5DF682F88E991E1E4D388E938
:103C700091E122D4882321F01092511180E003C0F9
:103C800081E0809351111F910F9108950F931F931D
:103C9000CF93DF93EC0188E991E168E670E04AD3C5
:103CA00088E991E160E0C7D388E991E105D48823F0
:103CB00019F0109251110FC081E08093511188E9E1
:103CC00091E168E670E047E050E004D488E991E1D2
:103CD0003BD3079714F480E05EC088E991E13DD3BF
:103CE000082F8F7782958F701AE0819FC001112471
:103CF000202F2F70280F288388E991E12ED3282FB9
:103D000022952F70219F900111248F70820F89833B
:103D100088E991E122D3282F2F7322952F70219FBC
:103D2000900111248F70820F8A8388E991E115D365
:103D3000282F22952F70219F900111248F70820FC0
:103D40008B8388E991E109D3282F22952F70219F39
:103D5000900111248F70820F8C8388E991E1FDD24C
:103D6000282F22952F70219F900111248F70820F90
:103D70008D8388E991E1F1D2282F2F70225E829500
:103D80008F70819FC0011124280F2E83802F809572
:103D9000881F8827881FDF91CF911F910F91089569
:103DA00088E991E199C30F931F938C01FC018681EF
:103DB00060E0AED781E090E058D6F801868161E0FE
:103DC000A7D781E090E051D6F801868160E0A0D7C6
:103DD00084E690E04AD61F910F910895CF92DF922A
:103DE000EF92FF920F931F93CF93DF93D82EC92E9C
:103DF000282F392FC9018C01C0E0D0E0E62EFF2426
:103E0000F801878161E0D1D6B7010C2E02C075950B
:103E100067950A94E2F76170F801878179D7219656
:103E20000F5F1F4FC830D10559F78D2D9C2DBBDF7B
:103E3000DF91CF911F910F91FF90EF90DF90CF9086
:103E40000895CF92DF92EF92FF920F931F93CF933B
:103E5000DF93D82EC92E282F392FC9018C01C0E03D
:103E6000D0E0E62EFF24F801878161E09ED6B701FD
:103E70000C2E02C0759567950A94E2F76170F801FF
:103E8000878146D721960F5F1F4FC430D10559F760
:103E90008D2D9C2D88DFDF91CF911F910F91FF9089
:103EA000EF90DF90CF9008951F93CF93DF93EC01B5
:103EB000162F8C81642F2CD78D818F3F11F060E0FD
:103EC00027D78F8584FF04C0CE01612F87DF0CC008
:103ED000612F70E084E0759567958A95E1F7CE01D2
:103EE000B0DFCE01612FADDFDF91CF911F9108953B
:103EF00041E0DADF81E090E0089540E0D5CFFC01B9
:103F00006089862F8460808B6C60CF01F6CFDF9351
:103F1000CF93CDB7DEB728970FB6F894DEBF0FBEAC
:103F2000CDBF9C01FE013196AAE6BAE088E00D9073
:103F300001928150E1F7F9018389481710F0482F69
:103F40004150E42FF0E0EE0FFF1FEC0FFD1F8181C9
:103F5000680F6068C901D1DF28960FB6F894DEBFFC
:103F60000FBECDBFCF91DF91089561E0C6DF80ED38
:103F700097E07BC5CF93DF93EC01423018F08F853B
:103F800088608F874B8B1C8A222329F0413019F4DB
:103F90008F8584608F8780E593EC67D58C8160E0A6
:103FA000B7D68E8160E0B4D68D818F3F11F060E08E
:103FB000AFD66F8564FD16C0CE0163E042DF84E9B1
:103FC00091E153D5CE0163E03CDF84E991E14DD529
:103FD000CE0163E036DF86E990E047D5CE0162E0AE
:103FE00030DF11C06062CE0188DF84E991E13DD508
:103FF0006F856062CE0181DF86E990E036D56F85FE
:104000006062CE017ADF6F856062CE0176DF84E088
:10401000888BCE0174DFCE01A8DF82E0898BCE01D0
:1040200066E06BDFDF91CF9108956F927F928F9260
:10403000AF92CF92EF920F931F93DF93CF93CDB7B1
:10404000DEB73C01162F842FF301448325830683BA
:10405000E782C086A18682869E8593879F85948706
:10406000988995879989968761E09FD5F301858125
:104070008F3F11F061E099D5F301868161E095D51C
:10408000112319F0F301178603C080E1F30187873C
:10409000C30160E141E020E06DDFCF91DF911F912E
:1040A0000F91EF90CF90AF908F907F906F90089589
:1040B0008F92AF92CF92EF920F931F93CF93DF9394
:1040C000DC01362F542F722F102FAE2C8C2C139610
:1040D0001C921E92129786E69AE011969C938E93FC
:1040E00000D00F92EDB7FEB73196CDB7DEB719828B
:1040F000118212821382CD0161E0432F2FEF052F31
:10410000E72EC12E92DF0F900F900F900F90DF914E
:10411000CF911F910F91EF90CF90AF908F90089516
:10412000FC0110820895EF92FF920F931F93CF939B
:10413000DF93EC018CD47B018C018B859C85AD8554
:10414000BE85A8019701281B390B4A0B5B0B89819F
:104150009A81AB81BC81281739074A075B07E8F0D1
:104160008881813019F0823079F406C0E985FA85BA
:1041700089899A89199508C060E08885882309F49F
:1041800061E068878F81C4D5EB86FC860D871E872A
:104190008F8598890196988B8F872D813E8137FD79
:1041A00006C08F859889821793070CF01882DF91DB
:1041B000CF911F910F91FF90EF900895AC016A305D
:1041C00088F4262F332727FD309583E190E0289F40
:1041D000F001299FF00D389FF00D1124E40FF51F19
:1041E00010826EEF862F0895CF92DF92EF92FF92AA
:1041F0000F931F93CF93DF937C018C01C0E0D0E03D
:1042000083E1C82ED12CF8018081882351F0CC9D08
:10421000C001CD9D900DDC9D900D11248E0D9F1D34
:1042200082DF21960D5E1F4FCA30D10561F7DF9105
:10423000CF911F910F91FF90EF90DF90CF90089555
:10424000AF92BF92CF92DF92EF92FF920F931F93A4
:10425000CF93DF93DC016901E8015701FC01FF24E2
:104260008081882341F0F39473968AE0F816C1F7B1
:10427000FF24FA9424C02F2D332727FD309583E1A6
:1042800090E0289F8001299F100D389F100D112468
:104290000A0F1B1F81E0F8018083418352836383EF
:1042A0007483D683C583D286C186D1D3F801638750
:1042B000748785879687108A1786B28AA18A8F2D80
:1042C000DF91CF911F910F91FF90EF90DF90CF90F2
:1042D000BF90AF900895EF92FF920F931F937801D4
:1042E00001E010E0ADDF1F910F91FF90EF90089576
:1042F000EF92FF920F931F9378010FEF1FEFA0DF54
:104300001F910F91FF90EF9008950F931F93CF93FC
:10431000DF93EC0100E010E0CE01800F911F00DF81
:104320000D5E1F4F0E3B1105B9F7DF91CF911F9125
:104330000F91089581E0809397116093741110920A
:1043400095111092961108952091731130E080918B
:104350007211281B3109C901089540917211809191
:104360007311481718F02FEF3FEF0AC0E42FF0E069
:10437000EE5AFE4E8081282F30E04F5F409372113D
:10438000C9010895E091721180917311E81718F036
:10439000EFEFFFEF06C0F0E0EE5AFE4E8081E82F0F
:1043A000F0E0CF010895089510929B1110929A1198
:1043B00088EE93E0A0E0B0E080939C1190939D1173
:1043C000A0939E11B0939F1186E79AE09093991164
:1043D000809398110895CF92DF92EF92FF920F93FE
:1043E0001F93CF93DF937C016B018A01809197111A
:1043F0008823A1F0C0E0D0E00DC0D701ED91FC9181
:10440000D601AC0FBD1F0190F081E02DC7016C916A
:1044100019952196C017D10780F303C0CB01642FF3
:1044200002D1C801DF91CF911F910F91FF90EF90C2
:10443000DF90CF900895DF93CF930F92CDB7DEB783
:10444000FC016983809197118823C9F080919611AE
:10445000803238F081E090E09383828320E030E086
:1044600014C080919511E82FF0E0EB58FE4E998131
:1044700090838F5F809395118093961104C0CE0135
:10448000019661E0D0D021E030E0C9010F90CF91DA
:10449000DF9108950F93062F8091741165E771E104
:1044A0004091961121E06AD01092951110929611C8
:1044B000109297110F91089561E0ECCF413208F00E
:1044C00040E2862F62E571E110D010927211809364
:1044D0007311089521E0F2CF1092721110927311AE
:1044E00010929511109296114EC2382F413210F051
:1044F00040E042C08091A4118823E1F791E09093BD
:10450000A4112093A6118FEF809311121092CC1159
:1045100041504093CD114F5F9093A5118091A5110B
:10452000330F832B8093A5118091A711813041F423
:104530001092A7118091A5118093BB0085EC01C05A
:1045400085EE8093BC008091A4118130E1F38091CD
:10455000CC11841710F44091CC1120E030E00AC057
:10456000FB01E20FF31FD901A455BE4E8C9180834D
:104570002F5F3F4F2417A0F3842F08950F931F93AD
:10458000582F122F413210F081E04AC08091A411BF
:104590008823E1F782E08093A4110093A6118FEFA6
:1045A000809311121092CC114093CD11ACEAB1E17D
:1045B000FB0102C081918D938E2F861B8417D0F34F
:1045C0001092A5118091A511550F852B8093A511EF
:1045D0008091A711813041F41092A7118091A5110B
:1045E0008093BB0085EC01C085EE8093BC00112355
:1045F00021F08091A4118230E1F3809111128F3F5C
:1046000011F480E00DC080911112803211F482E02B
:1046100007C080911112803311F084E001C083E063
:104620001F910F910895482F613210F081E0089595
:104630008091A411843011F082E008956093EF110D
:10464000AEECB1E1842F9C01F90102C081918D9300
:104650008E2F841B8617D0F380E008951F920F924F
:104660000FB60F920BB60F9211242F933F934F93D7
:104670005F936F937F938F939F93AF93BF93EF93CA
:10468000FF938091B90090E0887F9070803691050B
:1046900009F4F2C081369105CCF58832910509F410
:1046A0007BC089329105B4F48031910509F46FC063
:1046B000813191053CF4009709F447C1089709F04E
:1046C0004FC165C08831910509F466C0809709F033
:1046D00047C182C08034910509F4A4C0813491059A
:1046E00044F48033910509F482C0C89709F038C1B9
:1046F00089C08035910509F489C08835910509F490
:1047000096C08834910509F02BC1AEC08839910557
:1047100009F413C189399105ECF48837910509F43E
:10472000ABC0893791054CF48836910509F4A4C0D3
:104730008037910509F014C19FC08838910509F4AC
:10474000FCC08039910509F49DC08038910509F0BD
:1047500007C198C0803B910509F4C6C0813B910513
:104760004CF4803A910509F49FC0883A910509F00C
:10477000F7C0BAC0803C910509F4E3C0883C9105BC
:1047800009F4DFC0883B910509F0EAC0C2C08091FE
:10479000A5118093BB00CFC09091CC118091CD1119
:1047A000981768F49091CC11E92FF0E0E455FE4E93
:1047B00080818093BB009F5F9093CC11BCC080919F
:1047C000A611882309F44BC085ED8093BC0080912D
:1047D000BC0084FDFCCFC2C080E28093111285ED45
:1047E0008093BC008091BC0084FDFCCFB7C080E307
:1047F0008093111285ED8093BC008091BC0084FDF4
:10480000FCCFACC088E3809311129BC08091CC1187
:104810009091BB00E82FF0E0E455FE4E90838F5F4F
:104820008093CC119091CC118091CD1182C0809158
:10483000CC119091BB00E82FF0E0E455FE4E908340
:104840008F5F8093CC118091A611882341F085ED74
:104850008093BC008091BC0084FDFCCF7FC081E0D0
:104860008093A71184EA6EC085ED8093BC0080918F
:10487000BC0084FDFCCF72C083E08093A411109231
:10488000101259C080911012803208F056C08091E9
:1048900010129091BB00E82FF0E0E051FE4E9083A3
:1048A0008F5F8093101247C080911012803230F4D5
:1048B000E0911012F0E0E051FE4E108285ED809301
:1048C000BC008091BC0084FDFCCF1092A4116091CB
:1048D0001012E091AA11F091AB1180EF91E170E01C
:1048E0001995109210122DC084E08093A41110929B
:1048F000EE111092EF11E091A811F091A911199504
:104900008091EF11882329F481E08093EF111092B8
:10491000CE119091EE11E92FF0E0E253FE4E80812E
:104920008093BB009F5F9093EE119091EE11809168
:10493000EF11981710F485EC01C085E88093BC0056
:104940000FC085EC8093BC0009C01092111285ED58
:104950008093BC008091BC0084FDFCCF1092A41118
:10496000FF91EF91BF91AF919F918F917F916F9147
:104970005F914F913F912F910F900BBE0F900FBE03
:104980000F901F9018951092A41181E08093A611AA
:104990001092A71184E161E0BBD185E161E0B8D15B
:1049A000E9EBF0E080818E7F808380818D7F808342
:1049B00088E48093B80085E48093BC0008951F923A
:1049C0000F920FB60F9211242F933F938F939F93C3
:1049D000AF93BF938091161290911712A091181265
:1049E000B091191230911A120196A11DB11D232FF9
:1049F0002D5F2D3720F02D570196A11DB11D20935D
:104A00001A128093161290931712A0931812B09353
:104A100019128091121290911312A0911412B09158
:104A200015120196A11DB11D8093121290931312BD
:104A3000A0931412B0931512BF91AF919F918F91D3
:104A40003F912F910F900FBE0F901F9018958FB729
:104A5000F89420911612309117124091181250912B
:104A600019128FBFB901CA010895019739F0880F53
:104A7000991F880F991F02970197F1F7089578946D
:104A800084B5826084BD84B5816084BD85B5826053
:104A900085BD85B5816085BDEEE6F0E080818160F1
:104AA0008083E1E8F0E010828081826080838081F1
:104AB00081608083E0E8F0E0808181608083E1EBC9
:104AC000F0E0808184608083E0EBF0E080818160B1
:104AD0008083E1E9F0E08081826080838081816071
:104AE0008083E0E9F0E0808181608083E1EAF0E0AA
:104AF000808182608083808181608083E0EAF0E051
:104B0000808181608083E1E2F1E080818260808346
:104B1000808181608083E0E2F1E080818160808338
:104B2000EAE7F0E080818460808380818260808316
:104B30008081816080838081806880831092C10041
:104B40000895382F863308F0365320917B00832F49
:104B500086958695869590E08170907043E0880FE9
:104B6000991F4A95E1F7277F282B20937B00377008
:104B700080915B0A8295880F880F807C832B8093BD
:104B80007C0080917A00806480937A0080917A0022
:104B900086FDFCCF2091780040917900942F80E031
:104BA00030E0282B392BC9010895CF93DF93482F8C
:104BB00050E0CA0188589E4FFC0134914E5C5E4F14
:104BC000FA018491882369F190E0880F991FFC0114
:104BD000EC51FF4FA591B491FC01E250FF4FC591FC
:104BE000D491662351F42FB7F8948C91932F90951C
:104BF00089238C93888189230BC0623061F42FB79D
:104C0000F8948C91932F909589238C938881832B92
:104C100088832FBF06C09FB7F8948C91832B8C9309
:104C20009FBFDF91CF910895893009F449C08A3040
:104C3000A0F4843051F1853040F4823079F1833032
:104C400000F5813009F063C026C0873079F18830E3
:104C500098F5863009F05BC025C08D3009F442C05C
:104C60008E3028F48B30B1F18C30C0F52DC08031FE
:104C700009F442C0813109F445C08F3009F047C0C2
:104C800037C0809180008F7703C0809180008F7D36
:104C900080938000089584B58F7702C084B58F7D9E
:104CA00084BD08958091B0008F7703C08091B000DB
:104CB0008F7D8093B0000895809190008F7707C01A
:104CC000809190008F7D03C080919000877F8093BA
:104CD000900008958091A0008F7707C08091A00078
:104CE0008F7D03C08091A000877F8093A0000895EE
:104CF000809120018F7703C0809120018F7D809368
:104D00002001089580912001877F809320010895DC
:104D1000FF920F931F93F62E482F50E0CA01825442
:104D20009E4FFC012491CA0188589E4FFC011491AA
:104D30004E5C5E4FFA0104910023C1F0222311F072
:104D4000822F72DFE02FF0E0EE0FFF1FE250FF4FE7
:104D5000A591B4919FB7F894FF2021F48C91109500
:104D6000812302C08C91812B8C939FBF1F910F9147
:104D7000FF90089508951F920F920FB60F920BB6F1
:104D80000F9211242F933F934F938F939F93EF9301
:104D9000FF938091C00082FD1DC04091C60020910C
:104DA0005B1230915C122F5F3F4F2F7330708091F8
:104DB0005D1290915E122817390771F0E0915B1235
:104DC000F0915C12E55EFD4E408330935C122093BF
:104DD0005B1202C08091C600FF91EF919F918F916D
:104DE0004F913F912F910F900BBE0F900FBE0F90E0
:104DF0001F90189508951F920F920FB60F920BB641
:104E00000F9211242F933F934F938F939F93EF9380
:104E1000FF938091C80082FD1DC04091CE0020917B
:104E2000E3123091E4122F5F3F4F2F733070809167
:104E3000E5129091E6122817390771F0E091E3121C
:104E4000F091E412ED55FD4E40833093E41220932F
:104E5000E31202C08091CE00FF91EF919F918F915C
:104E60004F913F912F910F900BBE0F900FBE0F905F
:104E70001F90189508951F920F920FB60F920BB6C0
:104E80000F9211242F933F934F938F939F93EF9300
:104E9000FF938091D00082FD1DC04091D6002091EB
:104EA0006B1330916C132F5F3F4F2F7330708091D5
:104EB0006D1390916E132817390771F0E0916B1301
:104EC000F0916C13E55DFC4E408330936C1320939E
:104ED0006B1302C08091D600FF91EF919F918F914B
:104EE0004F913F912F910F900BBE0F900FBE0F90DF
:104EF0001F90189508951F920F920FB60F920BB640
:104F00000F9211242F933F934F938F939F93EF937F
:104F1000FF938091300182FD1DC0409136012091A8
:104F2000F3133091F4132F5F3F4F2F733070809144
:104F3000F5139091F6132817390771F0E091F313E8
:104F4000F091F413ED54FC4E40833093F41320930E
:104F5000F31302C080913601FF91EF919F918F91E1
:104F60004F913F912F910F900BBE0F900FBE0F905E
:104F70001F901895E0914714F0914814E05CFF4FA2
:104F80008191919120813181805C9F4F821B930B95
:104F900060E470E00E949432892B09F0EBDEE0912E
:104FA0006914F0916A14E05CFF4F81919191208126
:104FB0003181805C9F4F821B930B60E470E00E9404
:104FC0009432892B09F016DFE0918B14F0918C1448
:104FD000E05CFF4F8191919120813181805C9F4FF6
:104FE000821B930B60E470E00E949432892B09F0DD
:104FF00041DFE091AD14F091AE14E05CFF4F819180
:10500000919120813181805C9F4F821B930B60E4E2
:1050100070E00E949432892B09F06CCF08951F92A2
:105020000F920FB60F920BB60F9211242F933F934E
:105030008F939F93EF93FF9320919F123091A01233
:105040008091A1129091A2122817390731F4809112
:10505000C1008F7D8093C10014C0E091A112F09136
:10506000A212E15AFD4E20818091A1129091A212CC
:1050700001968F7390709093A2128093A112209347
:10508000C600FF91EF919F918F913F912F910F90CB
:105090000BBE0F900FBE0F901F9018951F920F928E
:1050A0000FB60F920BB60F9211242F933F938F934D
:1050B0009F93EF93FF9320912713309128138091B2
:1050C000291390912A132817390731F48091C900C8
:1050D0008F7D8093C90014C0E0912913F0912A13A9
:1050E000E951FD4E20818091291390912A13019658
:1050F0008F73907090932A13809329132093CE007E
:10510000FF91EF919F918F913F912F910F900BBE47
:105110000F900FBE0F901F9018951F920F920FB611
:105120000F920BB60F9211242F933F938F939F935F
:10513000EF93FF932091AF133091B0138091B1138F
:105140009091B2132817390731F48091D1008F7DE7
:105150008093D10014C0E091B113F091B213E159E2
:10516000FC4E20818091B1139091B21301968F7300
:1051700090709093B2138093B1132093D600FF9157
:10518000EF919F918F913F912F910F900BBE0F90B8
:105190000FBE0F901F9018951F920F920FB60F928F
:1051A0000BB60F9211242F933F938F939F93EF93FE
:1051B000FF932091371430913814809139149091D5
:1051C0003A142817390731F4809131018F7D80938B
:1051D000310114C0E0913914F0913A14E950FC4EB9
:1051E00020818091391490913A1401968F739070B8
:1051F00090933A148093391420933601FF91EF91E4
:105200009F918F913F912F910F900BBE0F900FBEEA
:105210000F901F901895AF92BF92DF92EF92FF927E
:105220000F931F93CF93DF93EC017A018B01DD2461
:10523000403081EE580780E0680780E0780711F081
:10524000DD24D39491E0A92EB12CEC89FD89DD20D9
:1052500069F0C50108A002C0880F991F0A94E2F7FF
:10526000808360E079E08DE390E005C0108260E823
:1052700074E88EE190E0A80197010E94A7322150C6
:10528000304040405040569547953795279580E1EE
:105290002030380720F0DD2011F0DD24D6CFE8895A
:1052A000F9893083EA89FB89208319A2EE89FF8975
:1052B000408121E030E0C9010C8C02C0880F991FA9
:1052C0000A94E2F7482B4083EE89FF894081C901A7
:1052D0000D8C02C0880F991F0A94E2F7482B408377
:1052E000EE89FF894081C9010E8C02C0880F991F89
:1052F0000A94E2F7482B4083EE89FF8980810F8C66
:1053000002C0220F331F0A94E2F72095282320833E
:10531000DF91CF911F910F91FF90EF90DF90BF90A1
:10532000AF900895DC011C96ED91FC911D97E05C17
:10533000FF4F8191919120813181805C9F4F821B31
:10534000930B60E470E00C949432DC011C96ED91B8
:10535000FC911D97E05CFF4F20813181E054F040CB
:10536000DF01AE5BBF4F8D919C91119728173907D4
:1053700019F42FEF3FEF07C08D919C91E80FF91FB3
:105380008081282F30E0C9010895DC011C96ED9141
:10539000FC911D97E05CFF4F20813181E054F0408B
:1053A000DF01AE5BBF4F8D919C9111972817390794
:1053B00019F42FEF3FEF10C08D919C911197E80FDA
:1053C000F91F20818D919C91119701968F73907098
:1053D00011969C938E9330E0C9010895DC0191965B
:1053E0008C919197882339F05496ED91FC915597C3
:1053F000808186FFF9CF91961C920895CF93DF9319
:10540000EC01EE85FF85E05CFF4F20813181E054A7
:10541000F0402F5F3F4F2F733070DF01AE5BBF4F07
:105420008D919C91119728173907D1F3E05CFF4FBC
:1054300080819181E054F040E80FF91F6083EE8590
:10544000FF85E05CFF4F31832083EE89FF89208157
:1054500081E090E00F8C02C0880F991F0A94E2F758
:10546000282B208381E089A3EC89FD8980818064D9
:10547000808381E090E0DF91CF9108951F93109297
:105480003E1410923D1428EE33E040E050E02093AB
:105490003F1430934014409341145093421466E8F3
:1054A0007AE070933C1460933B148BE192E190930B
:1054B0004814809347148FE592E190934A148093A7
:1054C000491485EC90E090934C1480934B1484EC39
:1054D00090E090934E1480934D1480EC90E0909364
:1054E000501480934F1481EC90E090935214809369
:1054F000511482EC90E0909354148093531486ECF2
:1055000090E0909356148093551414E01093571420
:10551000B3E0B0935814A7E0A0935914F5E0F093CA
:105520005A14E1E0E0935B141092601410925F143F
:105530002093611430936214409363145093641465
:1055400070935E1460935D1483EA92E190936A1401
:105550008093691487EE92E190936C1480936B149E
:105560008DEC90E090936E1480936D148CEC90E031
:105570009093701480936F1488EC90E09093721461
:105580008093711489EC90E0909374148093731459
:105590008AEC90E090937614809375148EEC90E0F2
:1055A000909378148093771410937914B0937A14AD
:1055B000A0937B14F0937C14E0937D1410928214DA
:1055C0001092811420938314309384144093851493
:1055D000509386147093801460937F148BE293E150
:1055E00090938C1480938B148FE693E190938E1498
:1055F00080938D1485ED90E09093901480938F1498
:1056000084ED90E0909392148093911480ED90E05B
:10561000909394148093931481ED90E0909396145A
:105620008093951482ED90E0909398148093971452
:1056300086ED90E090939A148093991410939B14A4
:10564000B0939C14A0939D14F0939E14E0939F1428
:105650001092A4141092A3142093A5143093A614AE
:105660004093A7145093A8147093A2146093A114AC
:1056700083EB93E19093AE148093AD1487EF93E1A5
:105680009093B0148093AF1485E391E09093B2149B
:105690008093B11484E391E09093B4148093B31495
:1056A00080E391E09093B6148093B51481E391E088
:1056B0009093B8148093B71482E391E09093BA1456
:1056C0008093B91486E391E09093BC148093BB144B
:1056D0001093BD14B093BE14A093BF14F093C014E4
:1056E000E093C1141F9108950895CF93DF93C7D914
:1056F000FBDF0E94FE1CCAEBD7E20E94EA1B209748
:10570000E1F338DCFACFCF92DF92EF92FF920F9362
:105710001F93CF93DF937C016B018A01C0E0D0E03F
:105720000FC0D6016D916D01D701ED91FC910190F3
:10573000F081E02DC7011995C80FD91F0150104005
:105740000115110571F7CE01DF91CF911F910F91D6
:10575000FF90EF90DF90CF900895CF93DF93FB0100
:10576000EC01A881B98160817181448155811296D3
:10577000ED91FC9113971995DF91CF910895EF92D8
:10578000FF920F931F938C01DC01ED91FC9101902E
:10579000F081E02D6DE019957C01D801ED91FC912F
:1057A0000190F081E02DC8016AE019959C012E0D51
:1057B0003F1DC9011F910F91FF90EF900895EF9247
:1057C000FF920F931F937C01C8DF8C01C701D7DFC5
:1057D0009C01200F311FC9011F910F91FF90EF9085
:1057E0000895CF93DF93EC016115710519F420E062
:1057F00030E00FC0DB010D900020E9F71197A61BE8
:10580000B70BE881F9810280F381E02DAD01199594
:105810009C01C901DF91CF9108954F925F927F92D1
:105820008F929F92AF92BF92CF92DF92EF92FF92B0
:105830000F931F93DF93CF93CDB7DEB7A1970FB62A
:10584000F894DEBF0FBECDBF2C01742ECB012230E9
:1058500008F42AE019A231E2C32ED12CCC0EDD1EB1
:10586000822E9924AA24BB24672D752FA5019401AB
:105870006ED679018A01C801B701A501940129D624
:10588000472D461B0894C108D1084A3014F4405DE6
:1058900001C0495CF6014083E114F10401051105E2
:1058A00021F07E2C5F2DC801DFCFC201B60199DF48
:1058B000A1960FB6F894DEBF0FBECDBFCF91DF919A
:1058C0001F910F91FF90EF90DF90CF90BF90AF901E
:1058D0009F908F907F905F904F900895DC012115ED
:1058E000310541F4ED91FC910190F081E02D642FA0
:1058F0001995089592CFEF92FF920F931F937C0119
:10590000EDDF8C01C7013BDF9C01200F311FC90176
:105910001F910F91FF90EF900895EF92FF920F93D8
:105920001F939A01E62EFF2400E010E0B801A701C2
:10593000D5DF1F910F91FF90EF900895CF92DF92E6
:10594000EF92FF920F931F93CF93DF93EC016A01C5
:105950007B012115310541F4E881F9810190F08145
:10596000E02D642F19951DC02A303105C9F477FF49
:1059700016C0E881F9810190F081E02D6DE2199562
:105980008C0144275527BA014C195D096E097F091E
:10599000CE012AE042DF9801280F391F03C02AE018
:1059A0003CDF9C01C901DF91CF911F910F91FF90C6
:1059B000EF90DF90CF900895EF92FF920F931F9397
:1059C0007B019A010027F7FC0095102FB801A70171
:1059D000B5DF1F910F91FF90EF900895CF92DF9266
:1059E000EF92FF920F931F936C017B019A010027A6
:1059F000F7FC0095102FB801A701A0DF8C01C601AC
:105A0000BEDE080F191FC8011F910F91FF90EF9084
:105A1000DF90CF900895E5CE0895EF92FF920F9317
:105A20001F937C01DEDE8C01C701A9DE080F191F60
:105A3000C8011F910F91FF90EF900895FC019B0109
:105A4000848195816817790728F4608171816115D7
:105A5000710529F41092C31463EC74E102C0620F63
:105A6000731FCB010895FC0180819181009729F477
:105A700020E030E040E050E004C00E9435019B018E
:105A8000AC01B901CA010895CF92DF92EF92FF9263
:105A90000F931F93CF93DF936C01DC01ED90FC908B
:105AA0001197E114F10409F43FC01496CD91DC91F3
:105AB00015972097C9F1870102C00F5F1F4FF801AA
:105AC0008081992787FD90957ED5892BB1F7219705
:105AD000CE0DDF1D01C021978881992787FD909504
