:1000000006C1000031C100002FC100002DC1000059
:100010002BC1000029C1000027C1000025C100003C
:1000200023C1000021C100001FC100001DC100004C
:100030001BC1000019C1000017C1000015C100005C
:1000400013C1000011C100000FC100000DC100006C
:100050000BC1000009C1000007C100000C94C729B2
:1000600003C100000C94D82C0C942C2EFDC0000071
:10007000FBC00000F9C00000F7C00000F5C00000A0
:10008000F3C00000F1C00000EFC00000EDC00000B0
:100090000C94182D0C946B2EE7C000000C941628BD
:1000A000E3C00000E1C00000DFC00000DDC00000D0
:1000B000DBC00000D9C00000D7C00000D5C00000E0
:1000C000D3C00000D1C00000CFC000000C94582D58
:1000D0000C94AA2EC9C000000C94982D0C94E92E03
:1000E000C3C0000000002100240027002A002D00CA
:1000F0003000330001010000040107010A01000083
:100100002200250028002B002E00310034000201BF
:100110000000050108010B0100002000230026005B
:1001200029002C002F00320000010000030106010D
:10013000090105050505070508080808020202026D
:100140000A0A080804040404010101010101010173
:100150000303030303030303040707070C0C0C0C3E
:100160000C0C0C0C02020202060606060606060627
:100170000B0B0B0B0B0B0B0B0102102020080810B4
:100180002040102040800201020108040201010207
:1001900004081020408080402010080402018004E0
:1001A000020180402010080402010804020101023B
:1001B0000408102040800102040810204080000044
:1001C000090A02080B0C0D070603040100000000D9
:1001D000000000000000000000000000000000001F
:1001E0000000000000000000000011100F000000DF
:1001F00000000000000000000000000000000000FF
:10020000000000004508B823BC265A3040081124DD
:100210001FBECFEFD1E2DEBFCDBF00E00CBF18E0C4
:10022000A0E0B2E0E2EFFFE600E00BBF02C0079003
:100230000D92A438B107D9F71BBE12E1A4E8B8E0CB
:1002400001C01D92A039B107E1F712E0CCE0D2E085
:1002500004C02297FE010E94DE37C430D107C9F7DF
:100260000E9491310C94ED37CBCE1F93FC0199275E
:100270008827BC01E89411911032E9F3193010F08D
:100280001E30C8F31B3249F01D3241F4689405C09A
:1002900064D0610F711D811D911D119110531A3091
:1002A000B8F33EF490958095709561957F4F8F4F90
:1002B0009F4F1F910895FB01DC0102C001900D9238
:1002C00041505040D8F70895FC018191861721F0E4
:1002D0008823D9F7992708953197CF010895FB0115
:1002E000DC018D91019080190110D9F3990B0895CB
:1002F000FB01DC0101900D920020E1F70895FB0164
:10030000DC014150504030F08D910190801919F47A
:100310000020B9F7881B990B0895FB019F01E89411
:100320004230C4F04532B4F44A3029F497FB1EF44D
:10033000909581959F4F642F77270E94C837805DE5
:100340008A330CF0895D8193CB010097A1F716F4F5
:100350005DE251931082C9012AC0592F482F372FCF
:10036000262F660F771F881F991F660F771F881F1C
:10037000991F620F731F841F951F660F771F881FB9
:10038000991F0895FB019F01423074F0453264F4D7
:10039000642F77270E94C837805D8A330CF0895D0F
:1003A0008193CB010097A1F71082C90100C0DC0145
:1003B000FC01672F71917723E1F7329704C07C919C
:1003C0006D9370836291AE17BF07C8F30895EF92E3
:1003D000FF920F931F937C0100E012E00A96B80190
:1003E0000E948435C7014096B8010E948435C70138
:1003F0004696B8010E948435C7014C96B8010E9408
:100400008435C7018E96B8010E948435C701C49611
:10041000B8010E948435C701CA96B8010E9484358C
:10042000C701805C9F4FB8010E948435F70117A275
:1004300016A21F910F91FF90EF900895CF92EF9227
:100440000F93CF93DF938130910509F07CC56F5FE7
:100450007F4F09F00FC684E898E00E946D2682E481
:1004600099E068E049E024E005E056E0E52E37E059
:10047000C32E0E9440258EE599E060E072E00E9464
:10048000843584E699E060E072E00E9484358AE673
:1004900099E060E072E00E94843582E799E061E0D3
:1004A00072E00E94843588E799E068E372E00E9478
:1004B00084358EE799E061E872E00E94843584E833
:1004C00099E06AEC72E00E9484358AE899E060EF76
:1004D00072E00E94843580E999E067E473E00E944D
:1004E000843586E999E06BE773E00E9484358CE9F6
:1004F00099E065EA73E00E94843582EA99E06DEC48
:1005000073E00E94843583EB99E061DF8AEF99E024
:1005100066EF73E00E94843580E09AE069EF73E053
:100520000E94843586E09AE06CEF73E00E94843587
:100530008CE09AE06FEF73E00E94843582E19AE0EC
:1005400062E074E00E94843588E19AE065E074E03E
:100550000E9484358EE19AE068E074E00E94843560
:1005600084E29AE06BE074E00E9484358AE29AE0CB
:100570006EE074E00E94843580E39AE061E174E00B
:100580000E94843586E39AE064E174E00E94843539
:100590008CE39AE067E174E00E94843582E49AE09B
:1005A00066EF73E00E94843588E49AE069EF73E0B7
:1005B0000E9484358EE49AE06CEF73E00E948435EB
:1005C00084E59AE06FEF73E00E9484358AE59AE053
:1005D00062E074E00E94843580E69AE065E074E0B1
:1005E0000E94843586E69AE068E074E00E948435D3
:1005F0008CE69AE06BE074E00E94843582E79AE032
:100600006EE074E00E94843588E79AE061E174E06E
:100610000E9484358EE79AE064E174E00E9484359C
:1006200084E89AE067E174E00E9484358AE89AE001
:100630006AE174E00E94843580E99AE06DE174E03B
:100640000E94843586E99AE060E274E00E94843575
:100650008CE99AE063E274E00E94843582EA9AE0D1
:1006600066E274E00E94843588EA9AE069E274E008
:100670000E9484358EEA9AE06CE274E00E94843530
:1006800084EB9AE06FE274E00E9484358AEB9AE092
:1006900062E374E00E94843580EC9AE065E374E0E4
:1006A0000E94843586EC9AE068E374E00E94843509
:1006B0008CEC9AE06BE374E00E94843582ED9AE062
:1006C0006EE374E00E94843588ED9AE061E474E0A2
:1006D0000E9484358EED9AE064E474E00E948435D3
:1006E00084EE9AE067E474E00E9484358AEE9AE032
:1006F0006AE474E00E94843580EF9AE06DE474E06F
:100700000E94843586EF9AE060E574E00E948435AB
:100710008CEF9AE063E574E00E94843582E09BE010
:1007200065E574E00E94843588E09BE067E574E04D
:100730000E9484358EE09BE069E574E00E94843578
:1007400084E19BE06BE574E00E9484358AE19BE0E4
:100750006DE574E00E94843580E29BE06FE574E013
:100760000E94843586E29BE061E674E00E94843555
:100770008CE29BE063E674E00E94843582E39BE0B8
:1007800065E674E00E94843588E39BE067E674E0E8
:100790000E9484358EE39BE066EF73E00E9484350F
:1007A00084E49BE069EF73E00E9484358AE49BE077
:1007B0006CEF73E00E94843580E59BE06FEF73E09F
:1007C0000E94843586E59BE062E074E00E948435F7
:1007D0008CE59BE065E074E00E94843582E69BE056
:1007E00068E074E00E94843588E69BE06BE074E08A
:1007F0000E9484358EE69BE06EE074E00E948435B2
:1008000084E79BE061E174E00E9484358AE79BE025
:1008100064E174E00E94843580E89BE067E174E065
:100820000E94843586E89BE06AE174E00E9484358A
:100830008CE89BE06DE174E00E94843582E99BE0E6
:1008400060E274E00E94843588E99BE063E274E032
:100850000E9484358EE99BE066E274E00E94843554
:1008600084EA9BE069E274E00E9484358AEA9BE0B6
:100870006CE274E00E94843580EB9BE06FE274E0F0
:100880000E94843586EB9BE062E374E00E9484352D
:100890008CEB9BE065E374E00E94843582EC9BE086
:1008A00068E374E00E94843588EC9BE067E674E0BE
:1008B0000E9484358EEC9BE066EF73E00E948435E5
:1008C00084ED9BE069EF73E00E9484358AED9BE044
:1008D0006CEF73E00E94843580EE9BE06FEF73E075
:1008E0000E94843586EE9BE062E074E00E948435CD
:1008F0008CEE9BE065E074E00E94843582EF9BE023
:1009000068E074E00E94843588EF9BE06BE074E05F
:100910000E9484358EEF9BE06EE074E00E94843587
:1009200084E09CE061E174E00E9484358AE09CE010
:1009300064E174E00E94843580E19CE067E174E04A
:100940000E94843586E19CE06AE174E00E9484356F
:100950008CE19CE06DE174E00E94843582E29CE0D1
:1009600060E274E00E94843588E29CE063E274E017
:100970000E9484358EE29CE066E274E00E94843539
:1009800084E39CE069E274E00E9484358AE39CE0A1
:100990006CE274E00E94843580E49CE06FE274E0D5
:1009A0000E94843586E49CE062E374E00E94843512
:1009B0008CE49CE065E374E00E94843582E59CE071
:1009C00068E374E00E94843588E59CE06BE374E0A2
:1009D0000E9484358EE59CE06EE374E00E948435CD
:1009E00084E69CE061E474E00E9484358AE69CE041
:1009F00064E474E00E94843580E79CE067E474E07E
:100A00000E94843586E79CE06AE474E00E948435A5
:100A10008CE79CE06DE474E00E94843582E89CE001
:100A200060E574E00E94843588E89CE06AE674E042
:100A30000E9484358EE89CE06DE674E00E94843567
:100A400084E99CE060E774E00E9484358AE99CE0D8
:100A500063E774E00E94843580EA9CE066E774E016
:100A60000E94843586EA9CE069E774E00E94843540
:100A70008CEA9CE06CE774E00E94843582EB9CE099
:100A80006FE774E00E94843588EB9CE062E874E0D4
:100A90000E9484358EEB9CE065E874E00E9484350A
:100AA00084EC9CE068E874E00E9484358AEC9CE069
:100AB0006BE874E00E94843580ED9CE06EE874E0A1
:100AC0000E94843586ED9CE061E974E00E948435E3
:100AD0008CED9CE064E974E00E94843582EE9CE039
:100AE00067E974E00E94843588EE9CE06AE974E06E
:100AF0000E9484358EEE9CE06DE974E00E9484359E
:100B000084EF9CE060EA74E00E9484358AEF9CE008
:100B100063EA74E00E94843580E09DE066EA74E058
:100B20000E94843586E09DE069EA74E00E94843585
:100B30008CE09DE06CEA74E00E94843582E19DE0E7
:100B40006FEA74E00E94843588E19DE062EB74E016
:100B50000E9484358EE19DE065EB74E00E9484354F
:100B600084E29DE068EB74E00E9484358AE29DE0B7
:100B70006BEB74E00E94843580E39DE063E574E0F4
:100B80000E94843586E39DE065E574E00E9484352B
:100B90008CE39DE067E574E00E94843582E49DE08B
:100BA00069E574E00E94843588E49DE06BE574E0BB
:100BB0000E9484358EE49DE06DE574E00E948435EA
:100BC00084E59DE06FE574E00E9484358AE59DE050
:100BD00061E674E00E94843580E69DE063E674E09F
:100BE0000E94843586E69DE065E674E00E948435C7
:100BF0008CE69DE06EEB74E00E94843582E79DE018
:100C000060EC74E00E94843588E79DE062EC74E05B
:100C10000E9484358EE79DE064EC74E00E94843588
:100C200084E89DE066EC74E00E9484358AE89DE0EB
:100C300068EC74E00E94843580E99DE06AEC74E021
:100C40000E94843586E99DE06CEC74E00E94843556
:100C50008CE99DE06EEC74E00E94843582EA9DE0B0
:100C600060ED74E00E94843588EA9DE062ED74E0F6
:100C70000E9484358EEA9DE064ED74E00E94843524
:100C800084EB9DE066ED74E00E9484358AEB9DE084
:100C900068ED74E00E94843580EC9DE06AED74E0BC
:100CA0000E94843586EC9DE06CED74E00E948435F2
:100CB0008CEC9DE06EED74E00E94843582ED9DE049
:100CC00060EE74E00E94843588ED9DE062EE74E091
:100CD0000E9484358EED9DE064EE74E00E948435C0
:100CE00084EE9DE066EE74E00E9484358AEE9DE01D
:100CF00068EE74E00E94843580EF9DE06AEE74E057
:100D00000E94843586EF9DE06CEE74E00E9484358D
:100D10008CEF9DE06EEE74E00E94843582E09EE0F0
:100D200060EF74E00E94843588E09EE062EF74E03A
:100D30000E9484358EE09EE064EF74E00E9484356A
:100D400084E19EE066EF74E00E9484358AE19EE0D3
:100D500068EF74E00E94843580E29EE06AEF74E000
:100D60000E94843586E29EE06CEF74E00E94843538
:100D70008CE29EE06EEF74E00E94843582E39EE098
:100D800060E075E00E94843588E39EE062E075E0F3
:100D90000E9484358EE39EE064E075E00E94843515
:100DA00084E49EE066E075E00E9484358AE49EE07B
:100DB00068E075E00E94843580E59EE06AE075E0B9
:100DC0000E94843586E59EE06CE075E00E948435E3
:100DD0008CE59EE06EE075E00E94843582E69EE040
:100DE00060E175E00E94843588E69EE062E175E08E
:100DF0000E9484358EE69EE064E175E00E948435B1
:100E000084E79EE066E175E00E9484358AE79EE013
:100E100068E175E00E94843580E89EE06AE175E053
:100E20000E94843586E89EE06CE175E00E9484357E
:100E30008CE89EE06EE175E00E94843582E99EE0D8
:100E400060E275E00E94843588E99EE062E275E028
:100E50000E9484358EE99EE064E275E00E9484354C
:100E600084EA9EE063E574E00E9484358AEA9EE0AD
:100E700065E574E00E94843580EB9EE067E574E0F0
:100E80000E94843586EB9EE069E574E00E9484351B
:100E90008CEB9EE06BE574E00E94843582EC9EE072
:100EA0006DE574E00E94843588EC9EE06FE574E0A7
:100EB0000E9484358EEC9EE061E674E00E948435E9
:100EC00084ED9EE063E674E00E9484358AED9EE046
:100ED00065E674E00E94843580EE9EE066E275E08F
:100EE0000E94843586EE9EE068E275E00E948435BB
:100EF0008CEE9EE06AE275E00E94843582EF9EE00F
:100F00006EE275E00E94843588EF9EE062E375E052
:100F10000E9484358EEF9EE066E375E00E94843582
:100F200084E09FE06AE375E00E9484358AE09FE0F8
:100F30006EE375E00E94843580E19FE062E475E035
:100F40000E94843597C0892B09F094C06F5F7F4F52
:100F500009F090C0C0E1DFE0CE010E947D36269707
:100F60008EE0C63ED807C1F7C6EEDEE0CE010E9495
:100F70007D3626978DE0C636D807C1F7C6E6DDE098
:100F8000CE010E947D3626978DE0CA32D807C1F780
:100F9000CAE2DDE0CE010E947D3626978BE0C23C9E
:100FA000D807C1F7C2ECDBE0CE010E947D36269760
:100FB0008BE0C233D807C1F7C2E3DBE0CE010E9469
:100FC0007D3626978AE0C63FD807C1F7C6EFDAE03C
:100FD000CE010E947D3626978AE0CC33D807C1F730
:100FE000CCE3DAE0CE010E947D36269789E0C43F4B
:100FF000D807C1F783EF99E00E947D368DEE99E026
:101000000E947D3687EE99E00E947D3681EE99E060
:101010000E947D368FEC99E00E947D3689EC99E044
:101020000E947D3683EC99E00E947D368DEB99E03D
:101030000E947D36C2EAD9E0CE010E947D36269715
:1010400089E0C438D807C1F7C4E8D9E0CE010E94CE
:101050007D36269789E0CC36D807C1F78AE699E035
:101060000E947D3684E699E00E947D368EE599E007
:101070000E947D36DF91CF910F91EF90CF90089530
:1010800080E090E06FEF7FEFD9C981E090E06FEFF3
:101090007FEFD4C9BC0183E092E10C94FB31EF9265
:1010A000FF920F931F93DF93CF93CDB7DEB7C25755
:1010B000D0400FB6F894DEBF0FBECDBF87E599E0F4
:1010C0000E942E23882309F47DC1CE01019660E0A1
:1010D00072E00E948435B7E0EB2EF12CEC0EFD1E81
:1010E000C70160E072E00E9484358E01035F1F4FEC
:1010F000C801609159094AE00E94CB35C701B80187
:101100000E945836C8010E947D368B859C850197C8
:1011100091F48E010D5E1F4FC80160E30E94FB3504
:10112000C801B7010E945135BC01C7010E94583661
:10113000C8010E9482368E01075E1F4FA7E0EA2E8B
:10114000F12CEC0EFD1EC801B7010E947536C801D6
:1011500066E475E00E943735BC018EE599E00E9497
:101160005836C8010E9482368E01015E1F4FC801A9
:10117000609158094AE00E94CB35C701B8010E942E
:101180005836C8010E947D368B859C85019791F465
:101190008E010B5D1F4FC80160E30E94FB35C80143
:1011A000B7010E945135BC01C7010E945836C801E1
:1011B0000E9482368E01055D1F4FC8016EE579E001
:1011C0000E947536F7E0EF2EF12CEC0EFD1EC801E3
:1011D000B7010E94513566E475E00E943735BC01C5
:1011E0008EE599E00E945836C8010E9482368E0131
:1011F0000F5C1F4FC801609157094AE00E94CB3530
:10120000C701B8010E945836C8010E947D368B85FF
:101210009C85019791F48E01095C1F4FC80160E322
:101220000E94FB35C801B7010E945135BC01C701BE
:101230000E945836C8010E9482368E01035C1F4FFF
:10124000C8016EE579E00E947536E7E0EE2EF12CDC
:10125000EC0EFD1EC801B7010E945135BC018EE5A0
:1012600099E00E945836C8010E9482368E010D5BBB
:101270001F4FC80160915C094AE00E94CB35C7014D
:10128000B8010E945836C8010E947D368B859C8526
:10129000019791F48E01075B1F4FC80160E30E9424
:1012A000FB35C801B7010E945135BC01C7010E943E
:1012B0005836C8010E9482368E01015B1F4F77E0CD
:1012C000E72EF12CEC0EFD1EC801B7010E94753609
:1012D000C80168E475E00E943735BC0184E699E0F6
:1012E0000E945836C8010E9482368E010B5A1F4F49
:1012F000C80160915B094AE00E94CB35C701B80183
:101300000E945836C8010E947D368B859C850197C6
:1013100091F48E01055A1F4FC80160E30E94FB350E
:10132000C801B7010E945135BC01C7010E9458365F
:10133000C8010E9482368E010F591F4FC80164E612
:1013400079E00E94753667E0E62EF12CEC0EFD1E6A
:10135000C801B7010E94513568E475E00E94373535
:10136000BC0184E699E00E945836C8010E9482368A
:101370008E0109591F4FC80164E679E00E94753655
:1013800060915D0970E06E54784FC8010E94193574
:10139000BC0184E699E00E945836C8010E9482365A
:1013A00060915A0986E0689FB00111246451714F21
:1013B0008AE699E00E945836C7010E947D36CE0128
:1013C000019616C08091190F882339F083E092E1CD
:1013D0006AE475E00E9406330DC08E0103591F4F69
:1013E000C80169E775E00E948435C80153DEC80171
:1013F0000E947D36CE58DF4F0FB6F894DEBF0FBE89
:10140000CDBFCF91DF911F910F91FF90EF90089585
:101410004F925F926F927F928F929F92AF92BF9204
:10142000CF92DF92EF92FF920F931F93DF93CF93B0
:10143000CDB7DEB7A4970FB6F894DEBF0FBECDBF11
:101440003C01A62E8E010F5F1F4FC80160E072E0C5
:101450000E948435CE01079660E072E00E948435D8
:10146000BAE04B2E512C460C571CF30126A137A194
:10147000ADE0EA2EF12CEC0EFD1EC701B201A90170
:101480002F5F3F4F0E941336C801B7010E945836A4
:10149000C7010E947D36EE24FF24C02E012FB70124
:1014A000660F771F6E0D7F1D660F771F6459724F91
:1014B0008C2D902F0E940D34882341F4F0E4EF1618
:1014C000F10421F00894E11CF11CE9CFAA2051F0AD
:1014D0008FE3E816F1041CF080E090E00BC0C70138
:1014E000019608C0E114F10419F48FE390E002C002
:1014F000C701019757E0852E912C8C0E9D1EBC01D3
:10150000660F771F680F791F660F771F6459724F38
:10151000C4010E94583623E1A22EB12CAC0EBD1E90
:10152000F30126A137A1C501B20140E050E00E94BD
:10153000133699E1C92ED12CCC0EDD1EC601B501A2
:101540000E947536C601B4010E9451358C018FE1AD
:10155000E82EF12CEC0EFD1EF30146A157A14F5FC2
:101560005F4F26853785C701B2010E941336C80137
:10157000B7010E945135BC018E010F5F1F4FC8019A
:101580000E945836C7010E947D36C6010E948236ED
:10159000C5010E947D36C201B8010E945836C401BF
:1015A0000E947D36C8010E947D36A4960FB6F8943D
:1015B000DEBF0FBECDBFCF91DF911F910F91FF9086
:1015C000EF90DF90CF90BF90AF909F908F907F90E3
:1015D0006F905F904F9008954F925F926F927F92BD
:1015E0008F929F92AF92BF92CF92DF92EF92FF9233
:1015F0000F931F93DF93CF93CDB7DEB7A4970FB6AA
:10160000F894DEBF0FBECDBF3C01D62E7E010894FC
:10161000E11CF11CC70160E072E00E948435CE013C
:10162000079660E072E00E9484356AE0462E512CF5
:10163000460C571CF30126A137A18E01035F1F4FF3
:10164000C801B201A9012F5F3F4F0E941336C701A5
:10165000B8010E945836C8010E947D36C7010E9419
:101660002C33DD2049F0693071051CF080E090E0FA
:101670000BC0CB01019608C0161617061CF089E0B6
:1016800090E002C0CB01019757E0852E912C8C0E83
:101690009D1EBC01660F771F680F791F660F771FAD
:1016A000605D724FC4010E94583623E1A22EB12C16
:1016B000AC0EBD1EF30126A137A1C501B20140E069
:1016C00050E00E94133699E1C92ED12CCC0EDD1EBC
:1016D000C601B5010E947536C601B4010E9451359C
:1016E0008C018FE1E82EF12CEC0EFD1EF30146A1DA
:1016F00057A14F5F5F4F26853785C701B2010E9412
:101700001336C801B7010E945135BC018E010F5F2D
:101710001F4FC8010E945836C7010E947D36C6017E
:101720000E948236C5010E947D36C201B8010E9426
:101730005836C4010E947D36C8010E947D36A496A9
:101740000FB6F894DEBF0FBECDBFCF91DF911F91D2
:101750000F91FF90EF90DF90CF90BF90AF909F9050
:101760008F907F906F905F904F9008954F925F920F
:101770006F927F928F929F92AF92BF92CF92DF92A1
:10178000EF92FF920F931F93DF93CF93CDB7DEB706
:10179000A4970FB6F894DEBF0FBECDBF3C01D62E86
:1017A0007E010894E11CF11CC70160E072E00E9418
:1017B0008435CE01079660E072E00E9484350AE02D
:1017C000402E512C460C571CF30126A137A18E0147
:1017D000035F1F4FC801B201A9012E5F3F4F0E9456
:1017E0001336C701B8010E945836C8010E947D36E1
:1017F000C7010E942C33DD2049F06B3371051CF0CA
:1018000080E090E00BC0CB01019608C016161706C9
:101810001CF08BE390E002C0CB01019717E0812E12
:10182000912C8C0E9D1EBC01660F771F680F791FCF
:10183000660F771F6853744FC4010E945836F3E156
:10184000AF2EB12CAC0EBD1EF30126A137A1C501F0
:10185000B20140E050E00E941336E9E1CE2ED12CD7
:10186000CC0EDD1EC601B5010E947536C601B4015D
:101870000E9451358C017FE1E72EF12CEC0EFD1E0C
:10188000F30146A157A14E5F5F4F26853785C701FB
:10189000B2010E941336C801B7010E945135BC0144
:1018A0008E010F5F1F4FC8010E945836C7010E946A
:1018B0007D36C6010E948236C5010E947D36C20176
:1018C000B8010E945836C4010E947D36C8010E94AA
:1018D0007D36A4960FB6F894DEBF0FBECDBFCF9174
:1018E000DF911F910F91FF90EF90DF90CF90BF900D
:1018F000AF909F908F907F906F905F904F900895E2
:101900004F925F926F927F928F929F92AF92BF920F
:10191000CF92DF92EF92FF920F931F93DF93CF93BB
:10192000CDB7DEB7A4970FB6F894DEBF0FBECDBF1C
:101930003C01D62E7E010894E11CF11CC70160E039
:1019400072E00E948435CE01079660E072E00E944A
:1019500084356AE0462E512C460C571CF30126A113
:1019600037A18E01035F1F4FC801B201A9012E5F8D
:101970003F4F0E941336C701B8010E945836C80174
:101980000E947D36C7010E942C33DD2049F067316B
:1019900071051CF080E090E00BC0CB01019608C0FF
:1019A000161617061CF087E190E002C0CB010197E4
:1019B00057E0852E912C8C0E9D1EBC01660F771F63
:1019C000680F791F660F771F685C744FC4010E940F
:1019D000583623E1A22EB12CAC0EBD1EF30126A178
:1019E00037A1C501B20140E050E00E94133699E1F1
:1019F000C92ED12CCC0EDD1EC601B5010E94753654
:101A0000C601B4010E9451358C018FE1E82EF12C02
:101A1000EC0EFD1EF30146A157A14E5F5F4F2685D8
:101A20003785C701B2010E941336C801B7010E9471
:101A30005135BC018E010F5F1F4FC8010E945836FF
:101A4000C7010E947D36C6010E948236C5010E94F0
:101A50007D36C201B8010E945836C4010E947D360D
:101A6000C8010E947D36A4960FB6F894DEBF0FBE63
:101A7000CDBFCF91DF911F910F91FF90EF90DF903D
:101A8000CF90BF90AF909F908F907F906F905F901E
:101A90004F9008954F925F926F927F928F929F9294
:101AA000AF92BF92CF92DF92EF92FF920F931F936C
:101AB000DF93CF93CDB7DEB7A4970FB6F894DEBF10
:101AC0000FBECDBF3C01A62E8E010F5F1F4FC80178
:101AD00060E072E00E948435CE01079660E072E01B
:101AE0000E9484355AE0452E512C460C571CF301B8
:101AF00026A137A14DE0E42EF12CEC0EFD1EC7010E
:101B0000B201A9012D5F3F4F0E941336C801B701F2
:101B10000E945836C7010E947D36EE24FF24C02E55
:101B2000012FB701660F771F6E0D7F1D660F771FA0
:101B30006451714F8C2D902F0E940D34882341F4F5
:101B4000F6E0EF16F10421F00894E11CF11CE9CF56
:101B5000AA2051F086E0E816F1041CF080E090E045
:101B60000BC0C701019608C0E114F10419F486E026
:101B700090E002C0C701019717E0812E912C8C0ED6
:101B80009D1EBC01660F771F680F791F660F771FB8
:101B90006451714FC4010E945836F3E1AF2EB12C4D
:101BA000AC0EBD1EF30126A137A1C501B20140E074
:101BB00050E00E941336E9E1CE2ED12CCC0EDD1E72
:101BC000C601B5010E947536C601B4010E945135A7
:101BD0008C017FE1E72EF12CEC0EFD1EF30146A1F6
:101BE00057A14D5F5F4F26853785C701B2010E941F
:101BF0001336C801B7010E945135BC018E010F5F39
:101C00001F4FC8010E945836C7010E947D36C60189
:101C10000E948236C5010E947D36C201B8010E9431
:101C20005836C4010E947D36C8010E947D36A496B4
:101C30000FB6F894DEBF0FBECDBFCF91DF911F91DD
:101C40000F91FF90EF90DF90CF90BF90AF909F905B
:101C50008F907F906F905F904F9008954F925F921A
:101C60006F927F928F929F92AF92BF92CF92DF92AC
:101C7000EF92FF920F931F93DF93CF93CDB7DEB711
:101C8000A4970FB6F894DEBF0FBECDBF3C01D62E91
:101C90007E010894E11CF11CC70160E072E00E9423
:101CA0008435CE01079660E072E00E9484351AE028
:101CB000412E512C460C571CF30126A137A18E0151
:101CC000035F1F4FC801B201A9012F5F3F4F0E9460
:101CD0001336C701B8010E945836C8010E947D36EC
:101CE000C7010E942C33DD2049F0693071051CF0DA
:101CF00080E090E00BC0CB01019608C016161706D5
:101D00001CF089E090E002C0CB010197B7E08B2E78
:101D1000912C8C0E9D1EBC01660F771F680F791FDA
:101D2000660F771F6450754FC4010E945836E3E177
:101D3000AE2EB12CAC0EBD1EF30126A137A1C501FC
:101D4000B20140E050E00E94133679E1C72ED12C59
:101D5000CC0EDD1EC601B5010E947536C601B40168
:101D60000E9451358C016FE1E62EF12CEC0EFD1E28
:101D7000F30146A157A14F5F5F4F26853785C70105
:101D8000B2010E941336C801B7010E945135BC014F
:101D90008E010F5F1F4FC8010E945836C7010E9475
:101DA0007D36C6010E948236C5010E947D36C20181
:101DB000B8010E945836C4010E947D36C8010E94B5
:101DC0007D36A4960FB6F894DEBF0FBECDBFCF917F
:101DD000DF911F910F91FF90EF90DF90CF90BF9018
:101DE000AF909F908F907F906F905F904F900895ED
:101DF0004F925F926F927F928F929F92AF92BF921B
:101E0000CF92DF92EF92FF920F931F93DF93CF93C6
:101E1000CDB7DEB7A4970FB6F894DEBF0FBECDBF27
:101E20003C01D62E7E010894E11CF11CC70160E044
:101E300072E00E948435CE01079660E072E00E9455
:101E400084356AE0462E512C460C571CF30126A11E
:101E500037A18E01035F1F4FC801B201A9012E5F98
:101E60003F4F0E941336C701B8010E945836C8017F
:101E70000E947D36C7010E942C339B0121503040C7
:101E8000DD2041F02E3131051CF080E090E00AC0E9
:101E9000CB0108C0121613061CF08EE190E002C0C0
:101EA000C901019757E0852E912C8C0E9D1EBC0117
:101EB000660F771F680F791F660F771F6E5B754F70
:101EC000C4010E94583623E1A22EB12CAC0EBD1ED7
:101ED000F30126A137A1C501B20140E050E00E9404
:101EE000133699E1C92ED12CCC0EDD1EC601B501E9
:101EF0000E947536C601B4010E9451358C018FE1F4
:101F0000E82EF12CEC0EFD1EF30146A157A14E5F09
:101F10005F4F26853785C701B2010E941336C8017D
:101F2000B7010E945135BC018E010F5F1F4FC801E0
:101F30000E945836C7010E947D36C6010E94823633
:101F4000C5010E947D36C201B8010E945836C40105
:101F50000E947D36C8010E947D36A4960FB6F89483
:101F6000DEBF0FBECDBFCF91DF911F910F91FF90CC
:101F7000EF90DF90CF90BF90AF909F908F907F9029
:101F80006F905F904F9008950F931F938823D1F027
:101F900084E898E048EE53E060E070E02FE438E039
:101FA00003E010E00E946026992787FD90959093AA
:101FB00071098093700983E092E169EA75E00E94FB
:101FC000063306C084E898E0609170090E94C62537
:101FD0001F910F9108950F931F938091160F662301
:101FE000C9F0882309F584E898E044EF51E060E007
:101FF00070E020E931E102E010E00E9460269927BC
:1020000087FD90959093180F8093170F81E0809330
:10201000160F0AC0813041F484E898E06091170FF0
:102020000E94C6251092160F1F910F91089580915E
:10203000A9099091AA099093AE098093AD0980E017
:102040000E94892A9C019093AA098093A909409132
:10205000AD095091AE09841B950B05960B9798F529
:1020600081E08093A809C9018C589040099718F421
:1020700083E090E01EC0C90185549140099718F48F
:1020800084E090E016C0C9010496099718F485E031
:1020900090E00FC0C901855F9140099718F482E074
:1020A00090E007C0225E32402930310538F481E0EB
:1020B00090E09093AC098093AB0908951092AC091D
:1020C0001092AB0904C05093AA094093A909109239
:1020D000A80908950F931F938091A9099091AA09C7
:1020E0009093AE098093AD0980E00E94892A909375
:1020F000AA098093A9092091AD093091AE09821BEC
:10210000930B97FF03C0909581959F4F0597A4F07F
:1021100084E898E04AE050E060E070E027E130E1D8
:1021200005E010E00E945326992787FD9095909333
:10213000B2098093B10904C03093AA092093A90978
:102140001F910F9108950F931F93882351F18FEFE3
:1021500093E09093AA098093A90984E898E044E168
:1021600050E060E070E02AE630E102E010E00E941A
:102170006026992787FD90959093B0098093AF09C9
:1021800083E092E16EEB75E00E94043383E092E11C
:1021900044E150E060E070E02AE030E00E949732D5
:1021A00006C084E898E06091AF090E94C6251F919F
:1021B0000F9108954F925F926F927F928F929F92AC
:1021C000AF92BF92CF92DF92EF92FF920F931F9345
:1021D000DF93CF93CDB7DEB768970FB6F894DEBF25
:1021E0000FBECDBF3C0182E499E060E142E020E017
:1021F0000E94A22482E499E00E949D2482E499E056
:1022000060E040E00E946F24B301665C7F4F82E48F
:1022100099E00E94C93182E499E060E041E00E94C7
:102220006F2480914B08BAE04B2E512C460C571C62
:10223000F30142A153A1882309F446C0A0E18A2EEC
:10224000912C860C971C26A137A16E010894C11C05
:10225000D11CC601B2010E94133677E0E72EF12CA3
:10226000EC0EFD1EC701B6010E947536B3016A5E11
:102270007F4FC7010E9451355C018E01035F1F4FE4
:10228000F30146A157A14F5F5F4F24A135A1C801BB
:10229000B2010E941336C501B8010E945135BC013C
:1022A000C4010E945836C8010E947D36C7010E94B1
:1022B0008236C6010E947D3682E499E0B4010E9414
:1022C000C93110924B0815C08E010D5E1F4FF301EE
:1022D00024A135A1C801B2010E94133682E499E01D
:1022E000B8010E94C931C8010E947D3681E0809307
:1022F0004B0868960FB6F894DEBF0FBECDBFCF91E6
:10230000DF911F910F91FF90EF90DF90CF90BF90E2
:10231000AF909F908F907F906F905F904F900895B7
:1023200083EB99E047CF2F923F924F925F926F924B
:102330007F928F929F92AF92BF92CF92DF92EF9255
:10234000FF920F931F93DF93CF93CDB7DEB76697BE
:102350000FB6F894DEBF0FBECDBF2C016B013A0162
:102360003C8B2B8B1801FE8AED8ADA011D921C92A0
:1023700001E010E01FC0F301808191819C01220FD8
:10238000331F280F391F220F331FD20115968D914D
:102390009C911697820F931FB6010E944534F3015A
:1023A00040815181882381F44F5F5F4F5183408387
:1023B0000F5F1F4FD20111968D919C91129780173C
:1023C0009107CCF680E0A3C09A01220F331F240F9F
:1023D000351F220F331FF20185819681820F931FD3
:1023E0006CE20E94B4335C010894A11CB11CD301BF
:1023F0008D919C919C01220F331F280F391F220FB2
:10240000331FF20185819681820F931F6CE2A50133
:102410000E9496336C014C010894811C911CD301DD
:102420008D919C919C01220F331F280F391F220F81
:10243000331FF20185819681820F931F6CE2A40104
:102440000E9496337C01D3012D913C91C901880FE4
:10245000991F820F931F880F991FF2016581768162
:10246000680F791F8E010F5F1F4FC801A5019601EC
:102470000E941336C101B8010E945836C8010E945B
:102480007D368E01095F1F4FD3012D913C91C9010B
:10249000880F991F820F931F880F991FF201658182
:1024A0007681680F791FC801A40197010E94133635
:1024B0008B899C89B8010E945836C8010E947D36DC
:1024C000D3012D913C91C901880F991F820F931F51
:1024D000880F991FD2011596ED91FC911697E80F80
:1024E000F91F8E01035F1F4F0894E11CF11C24812A
:1024F0003581C801BF01A7010E9413368D899E89CD
:10250000B8010E945836C8010E947D3681E0669667
:102510000FB6F894DEBF0FBECDBFCF91DF911F91F4
:102520000F91FF90EF90DF90CF90BF90AF909F9072
:102530008F907F906F905F904F903F902F90089575
:102540002F923F924F925F926F927F928F929F92C3
:10255000AF92BF92CF92DF92EF92FF920F931F93B1
:10256000DF93CF93CDB7DEB7ED970FB6F894DEBF0C
:102570000FBECDBF9AAF89AF5B015CAF4BAF2DAF44
:102580001A82198283E0282E312C2C0E3D1EC101A7
:1025900060E072E00E94843509E0402E512C4C0E20
:1025A0005D1EC20160E072E00E9484351FE0812E52
:1025B000912C8C0E9D1EC40160E072E00E94843557
:1025C000B5E1CB2ED12CCC0EDD1EC6016BAD7CADA2
:1025D0000E946D3689AD9AADB601AE014F5F5F4F77
:1025E0009101820174019FDE182FC6010E947D3681
:1025F000112309F48DC0C20161E60E94B4339C012D
:102600008FEF2F3F380709F483C0A3E06A2E712CA7
:10261000620E731EEDADEE2309F468C0FBE1CF2E10
:10262000D12CCC0EDD1EC601B40140E050E00E946A
:102630001336E1E2EE2EF12CEC0EFD1EC701B601C1
:102640000E947536C701B5010E9451355C018E01AB
:10265000095D1F4F2B893C89C801B401A3010E9469
:102660001336C501B8010E945135BC01C4010E9456
:102670005836C8010E947D36C7010E948236C601C5
:102680000E947D3629813A81C901880F991F820FE6
:10269000931F880F991FE9ADFAAD05811681080FC8
:1026A000191F5DE2E52EF12CEC0EFD1EC7016BAD8E
:1026B0007CAD0E947536C7016CE20E942835B201DC
:1026C0000E9451356CE20E942835B1010E945135BB
:1026D0006CE20E942835B4010E945135BC01C8014A
:1026E0000E945836C7010E94823610C08E010D5CD0
:1026F0001F4FC801B401A90193010E941336C501FF
:10270000B8010E945836C8010E947D3611E001C010
:1027100010E0CE010F960E947D36CE0109960E94F0
:102720007D36CE0103960E947D36812FED960FB641
:10273000F894DEBF0FBECDBFCF91DF911F910F91F7
:10274000FF90EF90DF90CF90BF90AF909F908F90D1
:102750007F906F905F904F903F902F9008952F92B1
:102760003F924F925F926F927F928F929F92AF9221
:10277000BF92CF92DF92EF92FF920F931F93DF935E
:10278000CF93CDB7DEB7ED970FB6F894DEBF0FBE8F
:10279000CDBF9AAF89AF5B015CAF4BAF2DAF1A8253
:1027A0001982B3E02B2E312C2C0E3D1EC10160E0AE
:1027B00072E00E948435A9E04A2E512C4C0E5D1E19
:1027C000C20160E072E00E948435FFE08F2E912C00
:1027D0008C0E9D1EC40160E072E00E948435E5E12C
:1027E000CE2ED12CCC0EDD1EC6016BAD7CAD0E9471
:1027F0006D3689AD9AADB601AE014F5F5F4F910165
:102800008201740190DD182FC6010E947D361123CC
:1028100009F48DC0C20168E40E94B4339C018FEFBB
:102820002F3F380709F483C075E0672E712C620EC4
:10283000731EEDADEE2309F468C06BE1C62ED12CFA
:10284000CC0EDD1EC601B40140E050E00E941336FC
:1028500051E2E52EF12CEC0EFD1EC701B6010E94DF
:102860007536C701B5010E9451355C018E01095DC5
:102870001F4F2B893C89C801B401A3010E94133664
:10288000C501B8010E945135BC01C4010E945836EF
:10289000C8010E947D36C7010E948236C6010E948F
:1028A0007D3629813A81C901880F991F820F931FB4
:1028B000880F991FE9ADFAAD05811681080F191F20
:1028C0009DE2E92EF12CEC0EFD1EC7016BAD7CAD37
:1028D0000E947536C7016CE20E942835B2010E9441
:1028E00051356CE20E942835B1010E9451356CE2ED
:1028F0000E942835B4010E945135BC01C8010E94D4
:102900005836C7010E94823610C08E010D5C1F4FE1
:10291000C801B401A90193010E941336C501B80191
:102920000E945836C8010E947D3611E001C010E0B7
:10293000CE010F960E947D36CE0109960E947D360B
:10294000CE0103960E947D36812FED960FB6F89446
:10295000DEBF0FBECDBFCF91DF911F910F91FF90D2
:10296000EF90DF90CF90BF90AF909F908F907F902F
:102970006F905F904F903F902F9008952F923F92CD
:102980004F925F926F927F928F929F92AF92BF927F
:10299000CF92DF92EF92FF920F931F93DF93CF932B
:1029A000CDB7DEB7ED970FB6F894DEBF0FBECDBF43
:1029B0009AAF89AF5B015CAF4BAF2DAF1A82198222
:1029C000B3E02B2E312C2C0E3D1EC10160E072E0D5
:1029D0000E948435A9E04A2E512C4C0E5D1EC20186
:1029E00060E072E00E948435FFE08F2E912C8C0E07
:1029F0009D1EC40160E072E00E948435E5E1CE2EA8
:102A0000D12CCC0EDD1EC6016BAD7CAD0E946D36A7
:102A100089AD9AADB601AE014F5F5F4F9101820162
:102A2000740181DC182FC6010E947D36112309F440
:102A30008DC0C2016DE60E94B4339C018FEF2F3F21
:102A4000380709F483C07AE0672E712C620E731E7A
:102A5000EDADEE2309F468C06BE1C62ED12CCC0E8F
:102A6000DD1EC601B40140E050E00E94133651E281
:102A7000E52EF12CEC0EFD1EC701B6010E94753645
:102A8000C701B5010E9451355C018E01095D1F4FE0
:102A90002B893C89C801B401A3010E941336C501EA
:102AA000B8010E945135BC01C4010E945836C801CA
:102AB0000E947D36C7010E948236C6010E947D3683
:102AC00029813A81C901880F991F820F931F880FAE
:102AD000991FE9ADFAAD05811681080F191F8DE226
:102AE000E82EF12CEC0EFD1EC7016BAD7CAD0E94F3
:102AF0007536C7016CE20E942835B2010E9451353B
:102B00006CE20E942835B1010E9451356CE20E94AE
:102B10002835B4010E945135BC01C8010E945836C5
:102B2000C7010E94823610C08E010D5C1F4FC80184
:102B3000B401A90193010E941336C501B8010E9496
:102B40005836C8010E947D3611E001C010E0CE0168
:102B50000F960E947D36CE0109960E947D36CE01E9
:102B600003960E947D36812FED960FB6F894DEBF56
:102B70000FBECDBFCF91DF911F910F91FF90EF90CE
:102B8000DF90CF90BF90AF909F908F907F906F908D
:102B90005F904F903F902F9008950F931F93CF9386
:102BA000DF938B01EA01C801BE010E941733FC01CB
:102BB0008081803221F0D7FD02C02197F4CFCE0171
:102BC000DF91CF911F910F9108950F931F93CF9392
:102BD000DF938B01EA01C801BE010E941733FC019B
:102BE0008081803221F4D7FD02C02197F4CFCE013D
:102BF000DF91CF911F910F9108950F931F93CF9362
:102C0000DF938B01EA01C801BE010E941733FC016A
:102C10008081803249F4F801848195810196C8173A
:102C2000D90710F42196EFCFCE01DF91CF911F91FC
:102C30000F9108952F923F924F925F926F927F92E1
:102C40008F929F92AF92BF92CF92DF92EF92FF92BC
:102C50000F931F93DF93CF93CDB7DEB7C254D0400D
:102C60000FB6F894DEBF0FBECDBF3C015B01CE01B5
:102C7000019660E072E00E948435C5016CE20E941A
:102C8000B4337C018E01095F1F4FC801B50140E0DC
:102C900050E097010E941336C301C496B8010E9408
:102CA0005836C8010E947D360894E11CF11CC5010C
:102CB0006CE2A7010E9496336C013CE1232E312C7B
:102CC000260C371C8E01035F1F4FC801B501A701F9
:102CD00096010E941336C101B8010E945836C801FE
:102CE0000E947D360894C11CD11CC5016CE2A6016E
:102CF0000E9496337C012AE3822E912C860C971C2D
:102D00008E010D5E1F4FC801B501A60197010E94FB
:102D10001336C401B8010E945836C8010E947D369E
:102D20009AE0492E512C460C571C8FE1C82ED12C0D
:102D3000CC0EDD1EC60162ED75E00E949C358E0151
:102D4000075E1F4F0894E11CF11CF50124813581B9
:102D5000C801B501A7010E941336C601B8010E943F
:102D60005135BC01C2010E945836C8010E947D360F
:102D7000C6010E948236F3018685978595A384A3B8
:102D8000C2016BEE75E00E94F9348E010B5D1F4F9E
:102D9000C801B2010E946D36C301B80140E050E0A5
:102DA0002CDFF30193A382A3C8010E947D36F301B7
:102DB00082A193A197A386A382E499E060E142E017
:102DC00020E00E94A22482E499E00E949D2482E4F3
:102DD00099E060E040E00E946F2482E499E0B40151
:102DE0000E94C93182E499E060E041E00E946F24D2
:102DF000F30184A195A122A133A1821B930B26A1EB
:102E000037A140970CF10BE2E02EF12CEC0EFD1EE9
:102E1000C701B201A901215F3F4F0E9413368E0105
:102E20000F5C1F4FC801B7010E947536C8016EE3E1
:102E30000E942835BC0182E499E00E94C931C80192
:102E40000E948236C70110C08E01095C1F4FC80165
:102E5000B201A901205F3F4F0E94133682E499E03E
:102E6000B8010E94C931C8010E947D36C10160E0ED
:102E700076E00E94B733882319F081E090E009C022
:102E8000C1016DEC75E00E94B733882349F083E0FF
:102E900090E0F30190878783C30160E09CD84BC02A
:102EA00082E090E0F30190878783C30161E093D8CB
:102EB0001DE3412E512C4C0E5D1E06C0F30186A170
:102EC00097A1019697A386A3F30126A137A182A11A
:102ED00093A1281B390BC201B101A9012F5F3F4FFC
:102EE0000E941336C20166E275E00E94B733882360
:102EF00011F400E00BC000E0F30182A193A10E9653
:102F000026A137A1821793070CF001E0C2010E94AD
:102F10007D36002399F6F301818593012A5E3F4FA8
:102F2000882321F0C90166E275E003C0C90165E0AC
:102F300076E00E94B435CE0101960E947D36CE5BCC
:102F4000DF4F0FB6F894DEBF0FBECDBFCF91DF913C
:102F50001F910F91FF90EF90DF90CF90BF90AF90B7
:102F60009F908F907F906F905F904F903F902F90A9
:102F70000895BF92CF92DF92EF92FF920F931F932B
:102F8000DF93CF9300D000D0CDB7DEB77C01B62E53
:102F90006901FC01168305838E96BA010E9458369A
:102FA000F70114821382F1E0CF16D10419F00894CE
:102FB000C108D108F701D282C182F701B18686E447
:102FC00090E0E80EF91EF70110828AEB9FEFE80E01
:102FD000F91EF701658176818E010F5F1F4FC801D1
:102FE0000E946D36C701B80125DEC8010E947D36FA
:102FF00026960FB6F894DEBF0FBECDBFCF91DF91FE
:103000001F910F91FF90EF90DF90CF90BF900895A8
:10301000EF92FF920F931F93DF93CF93CDB7DEB75D
:10302000A4970FB6F894DEBF0FBECDBFCE010196B8
:1030300060E072E00E94843583E092E140E855E26E
:1030400060E070E00E94282FCE01079667E076E0EE
:103050000E948435CE010D9662E176E00E948435AF
:10306000CE0143966DE176E00E94843581E06BD815
:1030700081E00E94C40F81E08093B30949E1E42E0E
:10308000F12CEC0EFD1EC7016AE276E00E94843549
:1030900083EB99E061E0A70124E030E002E719E06A
:1030A00068DFC7010E947D3689E080935C0987E074
:1030B00080935B098DE280935D0980E180935909DB
:1030C0008FE0809358098BE18093570982E08093C9
:1030D0005A0987E599E00E94E122882371F48E0164
:1030E000015E1F4FC80162E376E00E948435C8018B
:1030F0000E944A08C8010E947D36CE0143960E9474
:103100007D36CE010D960E947D36CE0107960E9437
:103110007D36CE0101960E947D36A4960FB6F894B6
:10312000DEBF0FBECDBFCF91DF911F910F91FF90FA
:10313000EF9008954F925F926F927F928F929F923D
:10314000AF92BF92CF92DF92EF92FF920F931F93B5
:10315000DF93CF93CDB7DEB7E0970FB6F894DEBF1D
:103160000FBECDBF3C01D62E7E010894E11CF11CA0
:10317000C70160E072E00E948435CE01079660E0EE
:1031800072E00E948435BAE04B2E512C460C571C3D
:10319000F30126A137A18E01035F1F4FC801B201C1
:1031A000A9012E5F3F4F0E941336C701B8010E944C
:1031B0005836C8010E947D3683E092E1B7010E9433
:1031C000FB31C7010E942C334B015C018B01015084
:1031D000104083E092E1B8014AE050E00E94E732FB
:1031E000DD2041F00B3011051CF080E090E00AC0BA
:1031F000C40108C0101611061CF08BE090E002C05C
:10320000C8010197A7E08A2E912C8C0E9D1EBC014F
:10321000660F771F680F791F660F771F6650764F0E
:10322000C4010E94583683E092E1B4010E94FB3150
:1032300083E092E163E476E00E940433F30166A147
:1032400077A183E092E14AE050E00E94E73283E018
:1032500092E16FE476E00E9404338E010D5E1F4F11
:10326000F30126A137A1C801B20140E050E00E945D
:10327000133683E092E1B8010E94C931C8010E946F
:103280007D3683E092E16EE576E00E9404338E01A4
:10329000075E1F4FF30146A157A14E5F5F4F268582
:1032A0003785C801B2010E94133683E092E1B8016C
:1032B0000E94C931C8010E947D3683E092E165E732
:1032C00076E00E9406336FE1A62EB12CAC0EBD1E37
:1032D000F30126A137A1C501B20140E050E00E94F0
:1032E000133655E2E52EF12CEC0EFD1EC701B5019B
:1032F0000E947536C701B4010E9451356C018E01E0
:10330000055D1F4FF30146A157A14E5F5F4F268514
:103310003785C801B2010E941336C601B8010E9468
:103320005135BC016E010894C11CD11CC6010E941C
:103330005836C8010E947D36C7010E948236C501F9
:103340000E947D3683E092E165E776E00E940433D7
:1033500083E092E1B2010E94C93183E092E165E726
:1033600076E00E94063383E092E165E776E00E9412
:10337000043383E092E1B6010E94C93183E092E117
:1033800065E776E00E940633C201B6010E94583616
:1033900083E092E165E776E00E94043383E092E106
:1033A000B2010E94C93183E092E165E776E00E94B4
:1033B0000633C4010E947D36C6010E947D36E09628
:1033C0000FB6F894DEBF0FBECDBFCF91DF911F9136
:1033D0000F91FF90EF90DF90CF90BF90AF909F90B4
:1033E0008F907F906F905F904F9008958F929F92F3
:1033F000AF92BF92CF92DF92EF92FF920F931F9303
:10340000DF93CF93CDB7DEB7CC5FD0400FB6F89443
:10341000DEBF0FBECDBF5C01DC01DC90B1E0DB168E
:1034200009F038C6FC01878190858230910509F446
:1034300027C28330910509F427C4019709F02AC6F1
:10344000D50196968D909C9097978091AB0990911D
:10345000AC098330910509F4EDC18430910544F441
:103460008130910509F4A8C1029709F013C6C4C0C0
:103470008430910509F4EDC1059709F00BC6EAE027
:10348000CE2ED12CCA0CDB1C8E010F5F1F4FC80142
:10349000B6010E946D36F50146A157A1C80160E250
:1034A0000E949633D50197969C938E939697C80168
:1034B0000E947D36F50126A137A184A195A1281788
:1034C00039071CF097A286A2E5C58E01095F1F4F40
:1034D000C801B6010E946D36D50196964D915C915A
:1034E0009797C501B80189DBF50197A386A3C801A9
:1034F0000E947D3682E499E060E142E020E00E9493
:10350000A22482E499E00E949D2482E499E060E094
:1035100040E00E946F24B501665C7F4F82E499E031
:103520000E94C93182E499E060E041E00E946F248A
:10353000D50196962D913C919797F90170969496A6
:103540008D919C91959792964D915C919397E817E8
:10355000F9071CF54217530784F473E1E72EF12CA9
:10356000EC0EFD1EC7016CE30E94FB35F50126A1A0
:1035700037A18E01035F1F4FDCC069E1E62EF12CFD
:10358000EC0EFD1EC701B601A901215F3F4F0E944D
:1035900013368E01015E1F4F69C04217530744F571
:1035A0005BE2E52EF12CEC0EFD1EC7016CE30E94E0
:1035B000FB35D50196962D913C9197978E010B5D29
:1035C0001F4FC801B601A901215F3F4F0E9413366A
:1035D000C701B8010E945135BC0182E499E00E9404
:1035E000C931C8010E947D36C7010E94823652C58A
:1035F0008E010F5C1F4FD4C082E499E060E142E08D
:1036000020E00E94A22482E499E00E949D2482E4AA
:1036100099E060E040E00E946F24B501665C7F4F56
:1036200082E499E00E94C93182E499E060E041E0DF
:103630000E946F24F50126A137A182A193A14AE03F
:10364000C42ED12CCA0CDB1C821793070CF107E3A4
:10365000E02EF12CEC0EFD1EC701B601A901215F81
:103660003F4F0E9413368E01035C1F4FC801B70104
:103670000E947536C8016EE30E942835BC0182E4C1
:1036800099E00E94C931C8010E948236C701ECC48A
:103690008E010D5B1F4FC801B6010E946D36D5012A
:1036A00096964D915C91979741505040C501B80155
:1036B0008CDAF50197A386A3C8010E947D368E019E
:1036C000075B1F4FC801B6010E946D36D501969663
:1036D0004D915C919797C501B8015FDA0196F501AC
:1036E00097A386A3C8010E947D36D50196962D9199
:1036F0003C919797F901709694968D919C9195972E
:1037000092964D915C919397E817F9078CF54217C3
:103710005307F4F415E5E12EF12CEC0EFD1EC70164
:103720006CE30E94FB35F50126A137A18E01015BF8
:103730001F4FC801B601A901225F3F4F0E941336F7
:10374000C701B8010E9451356EE30E94283544CF6D
:10375000BBE5EB2EF12CEC0EFD1EC701B601A90155
:10376000215F3F4F0E9413368E010F591F4F7ECFAE
:103770004217530794F4ADE6EA2EF12CEC0EFD1E31
:10378000C7016CE30E94FB35D50196962D913C91C3
:1037900097978E0109591F4F14CF8E010D581F4F57
:1037A000C801B601A9019F010E94133682E499E085
:1037B000B8010E94C93119C2F50191A680A6FAE0AC
:1037C000EF2EF12CEA0CFB1C8E0107581F4FC8018D
:1037D000B7010E946D36D50196964D915C919797F1
:1037E000C80160E20E949633F50193A782A7C80141
:1037F0000E947D368E0101581F4FD50198964D913C
:103800005C9199979A962D913C919B97C801B7012D
:103810000E941336C501805C9F4FB8010E94583644
:10382000C8010E947D36E6E4F0E0AE0EBF1ED50171
:10383000DC9230C4F501238134812115310509F46E
:1038400029C421503040348323838E010B571F4FEE
:10385000BBC1D50113962D913C91149711968D9172
:103860009C9112972817390709F414C42F5F3F4F12
:1038700014963C932E9313978E0105571F4F59C1F1
:103880000091AB091091AC0905301105E1F5F50186
:1038900026A137A182A193A10E968217930724F047
:1038A0002F5F3F4F37A326A38501045E1F4FD5012D
:1038B00096966D917C91979792968D919C91939706
:1038C000681B790BC8010E941733FC0180818D327F
:1038D00009F0CDC3F50126A137A182A193A10E96CF
:1038E000821793070CF4C3C32F5F3F4F37A326A360
:1038F000DECF21503040240F351FD50197963C93E1
:103900002E939697C7C3F50166A177A142A153A153
:103910000230110559F54617570724F461507040DD
:1039200077A366A38501045E1F4FD50196966D911E
:103930007C91979792968D919C919397681B790BA8
:10394000C8010E941733FC0180818D3209F0A2C3A7
:10395000F50126A137A182A193A1821793070CF04C
:1039600099C32150304037A326A3DFCFECE18E2E40
:10397000912C8A0C9B1C641B750BC4010E9417338D
:10398000FC01E081ED36A9F4D50119968C918823CC
:1039900009F080C30330110529F00430110509F046
:1039A00026C103C0C50161E002C0C50160E0C2DB01
:1039B0001EC1E436A9F4F5018185882309F06AC3A4
:1039C0000330110529F00430110509F010C103C0BE
:1039D000C50161E002C0C50160E00E94F80E07C1A8
:1039E000E937B1F4D50119968C91882309F052C3B7
:1039F0000330110529F00430110509F0F8C003C0A7
:103A0000C50161E002C0C50160E00E942E0EEFC05A
:103A1000E136A9F4F5018185882309F03BC3033021
:103A2000110529F00430110509F0E1C003C0C501FA
:103A300061E002C0C50160E00E944A0DD8C0E834D0
:103A4000B1F4D50119968C91882309F023C3033072
:103A5000110529F00430110509F0C9C003C0C501E2
:103A600061E002C0C50160E00E94800CC0C0ED347E
:103A7000A9F4F5018185882309F00CC303301105F1
:103A800029F00430110509F0B2C003C0C50161E09E
:103A900002C0C50160E00E94B60BA9C0E332B1F4D8
:103AA000D50119968C91882309F0F4C203301105D1
:103AB00029F00430110509F09AC003C0C50161E086
:103AC00002C0C50160E00E94EC0A91C0E334A9F491
:103AD000F5018185882309F0DDC20330110529F045
:103AE0000430110509F083C003C0C50161E002C0C4
:103AF000C50160E00E94080A7AC0E535B9F50330D7
:103B0000110529F00430110509F0C4C21EC0D50109
:103B100013962D913C9114972115310509F4BAC2E1
:103B20002150304014963C932E9313978E010F56DC
:103B30001F4FC901880F991F820F931F880F991F6C
:103B400015966D917C91169748C0F50123813481BB
:103B5000818192812817390709F49CC22F5F3F4F5A
:103B6000348323838E0109561F4F2EC0E43409F09D
:103B700091C20330110529F00430110509F08AC201
:103B800013C0D50113962D913C9114972115310541
:103B900009F480C22150304014963C932E93139721
:103BA0008E0103561F4FC5CFF501238134818181DA
:103BB00092812817390709F46DC22F5F3F4F348374
:103BC00023838E010D551F4FC901880F991F820F46
:103BD000931F880F991F65817681680F791FC8012F
:103BE0000E946D36C501B80125D8C8013DC27FEAE3
:103BF000C72ED12CCC0EDD1EB501665F7F4FC601EE
:103C00000E946D36C6010E943D33D50113962D9159
:103C10003C911497C901880F991F820F931F880F39
:103C2000991F15960D911C911697080F191F49EAB7
:103C3000E42EF12CEC0EFD1EE4E3F0E0AE0EBF1E10
:103C4000C701B5010E947536C7016CE20E94283594
:103C5000B4010E9451356CE20E94283526E030E024
:103C6000A20EB31EB5010E9451356CE20E942835A8
:103C7000B6010E945135BC01C8010E945836C701E7
:103C80000E948236C601F0C13FEA832E912C8C0E31
:103C90009D1EC40160E072E00E9484358091AB09F2
:103CA0009091AC098330910509F49AC18430910553
:103CB00024F4029709F0D5C128C18430910509F494
:103CC000ACC1059709F0CDC1D50196968D919C9117
:103CD0009797409697969C938E93969794962D914E
:103CE0003C9195972817390724F497963C932E9387
:103CF00096972AE0C22ED12CCA0CDB1CF50166A1D6
:103D000077A1C6010E941733FC0180818032D1F077
:103D1000D50196966D917C919797C6010E941733B5
:103D2000FC018081803209F43FC0F50126A137A152
:103D300082A193A182179307BCF52150304037A38D
:103D400026A3E6CFD50196966D917C919797C601F3
:103D50000E941733FC018081803269F4F50126A1AD
:103D600037A182A193A1821793072CF421503040F0
:103D700037A326A3E7CFD50196966D917C919797AF
:103D8000C6010E941733FC018081803269F0F50181
:103D900026A137A182A193A1821793072CF4215069
:103DA000304037A326A3E7CFD50196962D913C91BD
:103DB000979792968D919C91939794964D915C9143
:103DC000959728173907D9F5F90170969FEA892E3A
:103DD000912C8C0E9D1EE417F50704F585EBE82E5B
:103DE000F12CEC0EFD1EC701B601A901215F3F4F6A
:103DF0000E9413368E0105541F4FC801B7010E945F
:103E00007536C8016EE30E942835BC01C4010E94CA
:103E10005836C8010E948236C7010EC08E010F536A
:103E20001F4FC801B601A9019F010E941336C401AA
:103E3000B8010E945836C8010E947D3653C02F5FDA
:103E40003F4FF50137A326A3205F3F4F0FEA802E97
:103E5000912C8C0E9D1E2417350704F51DECE12EC8
:103E6000F12CEC0EFD1EC7016CE30E94FB35D50161
:103E700096962D913C9197978E0109531F4FC8013B
:103E8000B601A901225F3F4F0E941336C701B80156
:103E90000E9451356EE30E9428351AC0B9EDEB2E11
:103EA000F12CEC0EFD1EC7016CE30E94FB35F50101
:103EB00026A137A18E010D521F4FC801B601A901DD
:103EC000215F3F4F0E941336C701B8010E94513550
:103ED000BC01C4010E945836C8010E947D36C7014A
:103EE0000E94823682E499E060E142E020E02AD537
:103EF00082E499E022D582E499E060E040E0EFD4EA
:103F00002AE330E0A20EB31E59C0D50192962D913E
:103F10003C91939797963C932E939697F9017096C0
:103F200094968D919C919597AAE0CA2ED12CCA0C9B
:103F3000DB1CE817F90704F57FEDE72EF12CEC0EFA
:103F4000FD1EC701B601A901215F3F4F0E94133634
:103F50008E010B511F4FC801B7010E947536C80171
:103F60006EE30E942835BC01C4010E945836C80186
:103F70000E948236C7010EC08E0105511F4FC80135
:103F8000B601A9019F010E941336C401B8010E9425
:103F90005836C8010E947D3682E499E060E142E033
:103FA00020E0D0D482E499E0C8D482E499E060E0D3
:103FB00040E095D4EAE3F0E0AE0EBF1E82E499E063
:103FC000B5010E94C93182E499E060E041E087D404
:103FD00082E499E0BE0161557F4F0E94C93141C022
:103FE000D50113962D913C91149721153105C9F1F6
:103FF0002150304014963C932E9313978E010F500E
:104000001F4FC901880F991F820F931F880F991F97
:1040100015966D917C91169718C0F5012381348116
:104020008181928128173907E1F02F5F3F4F348358
:1040300023838E0109501F4FC901880F991F820FDA
:10404000931F880F991F65817681680F791FC801BA
:104050000E946D36C501B8010E941A16C8010E945F
:104060007D36CE0181559F4F0E947D3613C0D5010C
:1040700092964D915C91939790962D913C9191974A
:1040800096968D919C919797841B950B8217930719
:1040900008F02FCCC450DF4F0FB6F894DEBF0FBE30
:1040A000CDBFCF91DF911F910F91FF90EF90DF90E7
:1040B000CF90BF90AF909F908F900895CF92DF9256
:1040C000EF92FF920F931F93DF93CF93CDB7DEB79D
:1040D000C659D0400FB6F894DEBF0FBECDBF84E8FE
:1040E00098E06AD58091A809813061F41092A809FE
:1040F0006091AB097091AC096115710519F083EB02
:1041000099E074D98091F909813009F037C281EEC4
:1041100099E06AE276E00E94B733882309F4A0C0F0
:1041200087EE99E067E776E00E94B733882309F4C9
:1041300089C083EF99E06DE776E00E94B73388236A
:1041400009F45DC07E010894E11CF11CC70161E81F
:1041500076E00E94843583EB99E060E0A70125E0DA
:1041600030E00AE819E00E94B917C7010E947D36C5
:104170008E01095F1F4FC8016BE876E00E9484350D
:1041800083EB99E064E679E0A80121E00E94BE1487
:10419000C8010E947D365DE0E52EF12CEC0EFD1E7F
:1041A000C7016EE579E040E050E025E030E00E9494
:1041B00013368E010D5E1F4FC80160E976E00E9444
:1041C000843583EB99E0B701A80121E00E94AF1389
:1041D000C8010E947D36C7010E947D368E01075EB0
:1041E0001F4FC80165E976E00E94843583EB99E0B2
:1041F0006AE679E0A80121E00E94A012BCC183EF29
:1042000099E069E976E00E94B733882329F083E0DA
:1042100092E165EA76E00CC083EF99E063EC76E02A
:104220000E94B733882339F083E092E16FEC76E0A7
:104230000E940633A3C18E01015E1F4FC8016DEEBF
:1042400076E094C18E010B5D1F4FC8016BE277E0F1
:104250000E948435C8010E944A08C8010E947D3628
:1042600081EE99E061E876E00E94B733882309F493
:1042700077C183E092E167EE79E00E94FB3187EE3F
:1042800099E062E677E00E94B733882309F444C1DD
:1042900083EF99E069E677E00E94B733882309F459
:1042A00010C183E092E160E777E00E940633CE011F
:1042B0008B9660E072E00E94843541E3C42ED12CDD
:1042C000CC0EDD1EC60160E072E00E948435CE0196
:1042D000C79660E072E00E9484353DE3E32EF12C46
:1042E000EC0EFD1EC70160E072E00E9484358E0175
:1042F0000D5B1F4FC8016BE876E00E94843583EBAD
:1043000099E0B601A80120E00E94BE14C8010E94F5
:104310007D368E01075B1F4FC801B60140E050E0BB
:1043200022E030E00E941336C701B8010E945836DF
:10433000C8010E947D36C7010E942C3360935C093E
:104340008E01015B1F4FC801B60143E050E025E03C
:1043500030E00E941336C701B8010E945836C801E8
:104360000E947D36C7010E942C3360935B098E0149
:104370000B5A1F4F2DA93EA9C801B60146E050E0D7
:104380000E941336C701B8010E945836C8010E9426
:104390007D36C7010E942C33625B60935D098E01FC
:1043A000055A1F4FC80160E976E00E94843583EB0F
:1043B00099E06EE579E0A80120E00E94AF13C80102
:1043C0000E947D368E010F591F4FC8016EE579E0BE
:1043D00040E050E022E030E00E941336C701B8010F
:1043E0000E945836C8010E947D36C7010E942C33B6
:1043F000609359098E0109591F4FC8016EE579E094
:1044000043E050E025E030E00E941336C701B801D8
:104410000E945836C8010E947D36C7010E942C3385
:1044200060935809109257098E0103591F4FC80114
:1044300065E976E00E94843583EB99E06AE679E0ED
:10444000A80120E00E94A012C8010E947D3600E071
:1044500010E0C801880F991F800F911F880F991FC6
:104460008451914F6AE679E00E940D34882329F443
:104470000F5F1F4F0730110561F700935A0987E559
:1044800099E09FD0882371F48E010D581F4FC80109
:1044900062E376E00E948435C8010E944A08C801A0
:1044A0000E947D36CE01CD960E947D36CE01C79604
:1044B0000E947D36CE01C1960E947D36CE018B963C
:1044C00037C083EF99E069E877E00E94B73388232B
:1044D000E1F083E092E160E977E00E940633A9E72A
:1044E000EA2EF12CEC0EFD1EC7016AE276E00E9476
:1044F000843583EB99E061E0A70124E030E002E736
:1045000019E00E94B917C70113C08E0101581F4F4F
:10451000C80169EA77E006C08E010B571F4FC8013A
:104520006CEE77E00E948435C8010E944A08C801F9
:104530000E947D36FBE8EF2EF12CEC0EFD1EC7012C
:104540006AE276E00E94843583EB99E061E0A7019E
:1045500024E030E002E719E00E94B917C7010CC05F
:104560008E010F561F4FC80162E278E00E94843529
:10457000C8010E944A08C8010E947D361092F909BC
:10458000CA56DF4F0FB6F894DEBF0FBECDBFCF9136
:10459000DF911F910F91FF90EF90DF90CF900895E2
:1045A000482F6AE00E948737282F30E084E0220FEE
:1045B000331F8A95E1F7842F0E948737892F820F56
:1045C00008950F931F938C0180E69FE068E670E0EA
:1045D00099D380E69FE060E016D4F8018081E0DFA7
:1045E000682F80E69FE00FD4F8018181D9DF682F22
:1045F00080E69FE008D4F8018281D2DF682F80E650
:104600009FE001D4F8018381CBDF682F80E69FE033
:10461000FAD3F8018481C4DF682F80E69FE0F3D3EA
:10462000F8018581BDDF682F80E69FE0ECD3F801BB
:1046300086818E51B5DF682F80E69FE0E4D380E667
:104640009FE022D4882321F01092190F80E003C04C
:1046500081E08093190F1F910F9108950F931F937D
:10466000CF93DF93EC0180E69FE068E670E04AD3E9
:1046700080E69FE060E0C7D380E69FE005D4882312
:1046800019F01092190F0FC081E08093190F80E686
:104690009FE068E670E047E050E004D480E69FE0E9
:1046A0003BD3079714F480E05EC080E69FE03DD3E3
:1046B000082F8F7782958F701AE0819FC001112497
:1046C000202F2F70280F288380E69FE02ED3282FDD
:1046D00022952F70219F900111248F70820F898362
:1046E00080E69FE022D3282F2F7322952F70219FE1
:1046F000900111248F70820F8A8380E69FE015D38A
:10470000282F22952F70219F900111248F70820FE6
:104710008B8380E69FE009D3282F22952F70219F5D
:10472000900111248F70820F8C8380E69FE0FDD270
:10473000282F22952F70219F900111248F70820FB6
:104740008D8380E69FE0F1D2282F2F70225E829524
:104750008F70819FC0011124280F2E83802F809598
:10476000881F8827881FDF91CF911F910F9108958F
:1047700080E69FE099C30F931F938C01FC01868113
:1047800060E0AED781E090E058D6F801868161E024
:10479000A7D781E090E051D6F801868160E0A0D7EC
:1047A00084E690E04AD61F910F910895CF92DF9250
:1047B000EF92FF920F931F93CF93DF93D82EC92EC2
:1047C000282F392FC9018C01C0E0D0E0E62EFF244C
:1047D000F801878161E0D1D6B7010C2E02C0759532
:1047E00067950A94E2F76170F801878179D721967D
:1047F0000F5F1F4FC830D10559F78D2D9C2DBBDFA2
:10480000DF91CF911F910F91FF90EF90DF90CF90AC
:104810000895CF92DF92EF92FF920F931F93CF9361
:10482000DF93D82EC92E282F392FC9018C01C0E063
:10483000D0E0E62EFF24F801878161E09ED6B70123
:104840000C2E02C0759567950A94E2F76170F80125
:10485000878146D721960F5F1F4FC430D10559F786
:104860008D2D9C2D88DFDF91CF911F910F91FF90AF
:10487000EF90DF90CF9008951F93CF93DF93EC01DB
:10488000162F8C81642F2CD78D818F3F11F060E023
:1048900027D78F8584FF04C0CE01612F87DF0CC02E
:1048A000612F70E084E0759567958A95E1F7CE01F8
:1048B000B0DFCE01612FADDFDF91CF911F91089561
:1048C00041E0DADF81E090E0089540E0D5CFFC01DF
:1048D0006089862F8460808B6C60CF01F6CFDF9378
:1048E000CF93CDB7DEB728970FB6F894DEBF0FBED3
:1048F000CDBF9C01FE013196ABE5B8E088E00D909C
:1049000001928150E1F7F9018389481710F0482F8F
:104910004150E42FF0E0EE0FFF1FEC0FFD1F8181EF
:10492000680F6068C901D1DF28960FB6F894DEBF22
:104930000FBECDBFCF91DF91089561E0C6DF80ED5E
:1049400097E07BC5CF93DF93EC01423018F08F8561
:1049500088608F874B8B1C8A222329F0413019F401
:104960008F8584608F8780E593EC67D58C8160E0CC
:10497000B7D68E8160E0B4D68D818F3F11F060E0B4
:10498000AFD66F8564FD16C0CE0163E042DF84E9D7
:1049900091E153D5CE0163E03CDF84E991E14DD54F
:1049A000CE0163E036DF86E990E047D5CE0162E0D4
:1049B00030DF11C06062CE0188DF84E991E13DD52E
:1049C0006F856062CE0181DF86E990E036D56F8524
:1049D0006062CE017ADF6F856062CE0176DF84E0AF
:1049E000888BCE0174DFCE01A8DF82E0898BCE01F7
:1049F00066E06BDFDF91CF9108956F927F928F9287
:104A0000AF92CF92EF920F931F93DF93CF93CDB7D7
:104A1000DEB73C01162F842FF301448325830683E0
:104A2000E782C086A18682869E8593879F8594872C
:104A3000988995879989968761E09FD5F30185814B
:104A40008F3F11F061E099D5F301868161E095D542
:104A5000112319F0F301178603C080E1F301878762
:104A6000C30160E141E020E06DDFCF91DF911F9154
:104A70000F91EF90CF90AF908F907F906F900895AF
:104A80008F92AF92CF92EF920F931F93CF93DF93BA
:104A9000DC01362F542F722F102FAE2C8C2C139636
:104AA0001C921E92129787E598E011969C938E9324
:104AB00000D00F92EDB7FEB73196CDB7DEB71982B1
:104AC000118212821382CD0161E0432F2FEF052F57
:104AD000E72EC12E92DF0F900F900F900F90DF9175
:104AE000CF911F910F91EF90CF90AF908F9008953D
:104AF000FC0110820895EF92FF920F931F93CF93C2
:104B0000DF93EC018CD47B018C018B859C85AD857A
:104B1000BE85A8019701281B390B4A0B5B0B8981C5
:104B20009A81AB81BC81281739074A075B07E8F0F7
:104B30008881813019F0823079F406C0E985FA85E0
:104B400089899A89199508C060E08885882309F4C5
:104B500061E068878F81C4D5EB86FC860D871E8750
:104B60008F8598890196988B8F872D813E8137FD9F
:104B700006C08F859889821793070CF01882DF9101
:104B8000CF911F910F91FF90EF900895AC016A3083
:104B900088F4262F332727FD309583E190E0289F66
:104BA000F001299FF00D389FF00D1124E40FF51F3F
:104BB00010826EEF862F0895CF92DF92EF92FF92D0
:104BC0000F931F93CF93DF937C018C01C0E0D0E063
:104BD00083E1C82ED12CF8018081882351F0CC9D2F
:104BE000C001CD9D900DDC9D900D11248E0D9F1D5B
:104BF00082DF21960D5E1F4FCA30D10561F7DF912C
:104C0000CF911F910F91FF90EF90DF90CF9008957B
:104C1000AF92BF92CF92DF92EF92FF920F931F93CA
:104C2000CF93DF93DC016901E8015701FC01FF2408
:104C30008081882341F0F39473968AE0F816C1F7D7
:104C4000FF24FA9424C02F2D332727FD309583E1CC
:104C500090E0289F8001299F100D389F100D11248E
:104C60000A0F1B1F81E0F801808341835283638315
:104C70007483D683C583D286C186D1D3F801638776
:104C8000748785879687108A1786B28AA18A8F2DA6
:104C9000DF91CF911F910F91FF90EF90DF90CF9018
:104CA000BF90AF900895EF92FF920F931F937801FA
:104CB00001E010E0ADDF1F910F91FF90EF9008959C
:104CC000EF92FF920F931F9378010FEF1FEFA0DF7A
:104CD0001F910F91FF90EF9008950F931F93CF9323
:104CE000DF93EC0100E010E0CE01800F911F00DFA8
:104CF0000D5E1F4F0E3B1105B9F7DF91CF911F914C
:104D00000F91089581E080935F0F60933C0F1092A4
:104D10005D0F10925E0F089520913B0F30E080915F
:104D20003A0F281B3109C901089540913A0F80912B
:104D30003B0F481718F02FEF3FEF0AC0E42FF0E0C9
:104D4000E65EF04F8081282F30E04F5F40933A0FAE
:104D5000C9010895E0913A0F80913B0FE81718F0D0
:104D6000EFEFFFEF06C0F0E0E65EF04F8081E82F46
:104D7000F0E0CF01089508951092630F1092620F32
:104D800088EE93E0A0E0B0E08093640F9093650F0D
:104D9000A093660FB093670F87E698E09093610F3A
:104DA0008093600F0895CF92DF92EF92FF920F935E
:104DB0001F93CF93DF937C016B018A0180915F0F7A
:104DC0008823A1F0C0E0D0E00DC0D701ED91FC91A7
:104DD000D601AC0FBD1F0190F081E02DC7016C9191
:104DE00019952196C017D10780F303C0CB01642F1A
:104DF00002D1C801DF91CF911F910F91FF90EF90E9
:104E0000DF90CF900895DF93CF930F92CDB7DEB7A9
:104E1000FC01698380915F0F8823C9F080915E0F48
:104E2000803238F081E090E09383828320E030E0AC
:104E300014C080915D0FE82FF0E0E35CF04F9981A2
:104E400090838F5F80935D0F80935E0F04C0CE01CF
:104E5000019661E0D0D021E030E0C9010F90CF9100
:104E6000DF9108950F93062F80913C0F6DE37FE053
:104E700040915E0F21E06AD010925D0F10925E0F9C
:104E800010925F0F0F91089561E0ECCF413208F06E
:104E900040E2862F6AE17FE010D010923A0F8093B3
:104EA0003B0F089521E0F2CF10923A0F10923B0F82
:104EB00010925D0F10925E0F4EC2382F413210F0EB
:104EC00040E042C080916C0F8823E1F791E090931D
:104ED0006C0F20936E0F8FEF8093D90F1092940F69
:104EE00041504093950F4F5F90936D0F80916D0FE0
:104EF000330F832B80936D0F80916F0F813041F4BE
:104F000010926F0F80916D0F8093BB0085EC01C0F4
:104F100085EE8093BC0080916C0F8130E1F380912D
:104F2000940F841710F44091940F20E030E00AC0F1
:104F3000FB01E20FF31FD901AC58B04F8C91808375
:104F40002F5F3F4F2417A0F3842F08950F931F93D3
:104F5000582F122F413210F081E04AC080916C0F1F
:104F60008823E1F782E080936C0F00936E0F8FEF40
:104F70008093D90F1092940F4093950FA4E7BFE050
:104F8000FB0102C081918D938E2F861B8417D0F375
:104F900010926D0F80916D0F550F852B80936D0FC3
:104FA00080916F0F813041F410926F0F80916D0FDF
:104FB0008093BB0085EC01C085EE8093BC0011237B
:104FC00021F080916C0F8230E1F38091D90F8F3FF7
:104FD00011F480E00DC08091D90F803211F482E08D
:104FE00007C08091D90F803311F084E001C083E0C5
:104FF0001F910F910895482F613210F081E00895BC
:1050000080916C0F843011F082E008956093B70FA7
:10501000A6E9BFE0842F9C01F90102C081918D9324
:105020008E2F841B8617D0F380E008951F920F9275
:105030000FB60F920BB60F9211242F933F934F93FD
:105040005F936F937F938F939F93AF93BF93EF93F0
:10505000FF938091B90090E0887F90708036910531
:1050600009F4F2C081369105CCF58832910509F436
:105070007BC089329105B4F48031910509F46FC089
:10508000813191053CF4009709F447C1089709F074
:105090004FC165C08831910509F466C0809709F059
:1050A00047C182C08034910509F4A4C081349105C0
:1050B00044F48033910509F482C0C89709F038C1DF
:1050C00089C08035910509F489C08835910509F4B6
:1050D00096C08834910509F02BC1AEC0883991057E
:1050E00009F413C189399105ECF48837910509F465
:1050F000ABC0893791054CF48836910509F4A4C0FA
:105100008037910509F014C19FC08838910509F4D2
:10511000FCC08039910509F49DC08038910509F0E3
:1051200007C198C0803B910509F4C6C0813B910539
:105130004CF4803A910509F49FC0883A910509F032
:10514000F7C0BAC0803C910509F4E3C0883C9105E2
:1051500009F4DFC0883B910509F0EAC0C2C0809124
:105160006D0F8093BB00CFC09091940F8091950FED
:10517000981768F49091940FE92FF0E0EC58F04FF5
:1051800080818093BB009F5F9093940FBCC08091FF
:105190006E0F882309F44BC085ED8093BC0080918D
:1051A000BC0084FDFCCFC2C080E28093D90F85EDA6
:1051B0008093BC008091BC0084FDFCCFB7C080E32D
:1051C0008093D90F85ED8093BC008091BC0084FD55
:1051D000FCCFACC088E38093D90F9BC08091940F23
:1051E0009091BB00E82FF0E0EC58F04F90838F5F78
:1051F0008093940F9091940F8091950F82C080912D
:10520000940F9091BB00E82FF0E0EC58F04F9083A2
:105210008F5F8093940F80916E0F882341F085ED0E
:105220008093BC008091BC0084FDFCCF7FC081E0F6
:1052300080936F0F84EA6EC085ED8093BC008091EF
:10524000BC0084FDFCCF72C083E080936C0F109291
:10525000D80F59C08091D80F803208F056C0809185
:10526000D80F9091BB00E82FF0E0E854F04F908306
:105270008F5F8093D80F47C08091D80F803230F471
:10528000E091D80FF0E0E854F04F108285ED809364
:10529000BC008091BC0084FDFCCF10926C0F60912B
:1052A000D80FE091720FF091730F88EB9FE070E0E0
:1052B00019951092D80F2DC084E080936C0F109236
:1052C000B60F1092B70FE091700FF091710F199512
:1052D0008091B70F882329F481E08093B70F109253
:1052E000960F9091B60FE92FF0E0EA56F04F8081CB
:1052F0008093BB009F5F9093B60F9091B60F809103
:10530000B70F981710F485EC01C085E88093BC00B6
:105310000FC085EC8093BC0009C01092D90F85EDB9
:105320008093BC008091BC0084FDFCCF10926C0F78
:10533000FF91EF91BF91AF919F918F917F916F916D
:105340005F914F913F912F910F900BBE0F900FBE29
:105350000F901F90189510926C0F81E080936E0F44
:1053600010926F0F84E161E0BBD185E161E0B8D1BB
:10537000E9EBF0E080818E7F808380818D7F808368
:1053800088E48093B80085E48093BC0008951F9260
:105390000F920FB60F9211242F933F938F939F93E9
:1053A000AF93BF938091DE0F9091DF0FA091E00F3C
:1053B000B091E10F3091E20F0196A11DB11D232F95
:1053C0002D5F2D3720F02D570196A11DB11D209383
:1053D000E20F8093DE0F9093DF0FA093E00FB09366
:1053E000E10F8091DA0F9091DB0FA091DC0FB0916B
:1053F000DD0F0196A11DB11D8093DA0F9093DB0F95
:10540000A093DC0FB093DD0FBF91AF919F918F916F
:105410003F912F910F900FBE0F901F9018958FB74F
:10542000F8942091DE0F3091DF0F4091E00F509102
:10543000E10F8FBFB901CA010895019739F0880FB4
:10544000991F880F991F02970197F1F70895789493
:1054500084B5826084BD84B5816084BD85B5826079
:1054600085BD85B5816085BDEEE6F0E08081816017
:105470008083E1E8F0E01082808182608083808117
:1054800081608083E0E8F0E0808181608083E1EBEF
:10549000F0E0808184608083E0EBF0E080818160D7
:1054A0008083E1E9F0E08081826080838081816097
:1054B0008083E0E9F0E0808181608083E1EAF0E0D0
:1054C000808182608083808181608083E0EAF0E077
:1054D000808181608083E1E2F1E08081826080836D
:1054E000808181608083E0E2F1E08081816080835F
:1054F000EAE7F0E08081846080838081826080833D
:105500008081816080838081806880831092C10067
:105510000895382F863308F0365320917B00832F6F
:1055200086958695869590E08170907043E0880F0F
:10553000991F4A95E1F7277F282B20937B0037702E
:1055400080914C088295880F880F807C832B8093F4
:105550007C0080917A00806480937A0080917A0048
:1055600086FDFCCF2091780040917900942F80E057
:1055700030E0282B392BC9010895CF93DF93482FB2
:1055800050E0CA0188589E4FFC0134914E5C5E4F3A
:10559000FA018491882369F190E0880F991FFC013A
:1055A000EC51FF4FA591B491FC01E250FF4FC59122
:1055B000D491662351F42FB7F8948C91932F909542
:1055C00089238C93888189230BC0623061F42FB7C3
:1055D000F8948C91932F909589238C938881832BB9
:1055E00088832FBF06C09FB7F8948C91832B8C9330
:1055F0009FBFDF91CF910895893009F449C08A3067
:10560000A0F4843051F1853040F4823079F1833058
:1056100000F5813009F063C026C0873079F1883009
:1056200098F5863009F05BC025C08D3009F442C082
:105630008E3028F48B30B1F18C30C0F52DC0803124
:1056400009F442C0813109F445C08F3009F047C0E8
:1056500037C0809180008F7703C0809180008F7D5C
:1056600080938000089584B58F7702C084B58F7DC4
:1056700084BD08958091B0008F7703C08091B00001
:105680008F7D8093B0000895809190008F7707C040
:10569000809190008F7D03C080919000877F8093E0
:1056A000900008958091A0008F7707C08091A0009E
:1056B0008F7D03C08091A000877F8093A000089514
:1056C000809120018F7703C0809120018F7D80938E
:1056D0002001089580912001877F80932001089503
:1056E000FF920F931F93F62E482F50E0CA01825469
:1056F0009E4FFC012491CA0188589E4FFC011491D1
:105700004E5C5E4FFA0104910023C1F0222311F098
:10571000822F72DFE02FF0E0EE0FFF1FE250FF4F0D
:10572000A591B4919FB7F894FF2021F48C91109526
:10573000812302C08C91812B8C939FBF1F910F916D
:10574000FF9008950F931F93CF93DF93BC01823096
:10575000910510F462E070E0E0918E12F0918F12EA
:1057600040E050E0A0E0B0E024C080819181861745
:105770009707D0F08617970771F48281938110976D
:1057800029F013969C938E9312972CC090938F12AE
:1057900080938E1227C04115510519F08417950783
:1057A00018F48D01AC01EF01DF01828193819C012E
:1057B000F9013097D1F641155105F9F0CA01861B60
:1057C000970B8430910580F48A819B810115110526
:1057D00021F0F8019383828304C090938F12809309
:1057E0008E12FE01329645C0FE01E80FF91F61934B
:1057F00071930297998388833CC080918C12909119
:105800008D12892B41F480914F089091500890930C
:105810008D1280938C12409151085091520841157D
:10582000510541F44DB75EB780914D0890914E08F7
:10583000481B590B20918C1230918D12241735077B
:10584000B0F4CA01821B930B8617970780F0AB0157
:105850004E5F5F4F8417950750F0420F531F5093D0
:105860008D1240938C12F9016193719302C0E0E0B4
:10587000F0E0CF01DF91CF911F910F910895CF9369
:10588000DF939C01009709F48FC0EC0122971B82E3
:105890001A8260918E1270918F126115710581F4D8
:1058A00088819981820F931F20918C1230918D12E3
:1058B0002817390739F5D0938D12C0938C1274C014
:1058C000DB0140E050E0AC17BD0708F1BB83AA83C1
:1058D000FE0121913191E20FF31FAE17BF0779F45A
:1058E0008D919C911197280F391F2E5F3F4F39835F
:1058F000288312968D919C9113979B838A834115DF
:10590000510571F4D0938F12C0938E124DC0129630
:105910008D919C911397AD01009711F0DC01D3CFCD
:10592000DA011396DC93CE931297FA01219131910B
:10593000E20FF31FCE17DF0769F488819981280FE2
:10594000391F2E5F3F4FFA01318320838A819B816B
:1059500093838283E0E0F0E0DB0112968D919C91CD
:105960001397009719F0BC01FD01F6CFAB014E5F14
:105970005F4FDB018D919C91840F951F20918C12BC
:1059800030918D122817390779F4309729F4109245
:105990008F1210928E1202C0138212824250504017
:1059A00050938D1240938C12DF91CF9108950895FA
:1059B0001F920F920FB60F920BB60F9211242F93D6
:1059C0003F934F938F939F93EF93FF938091C000EA
:1059D00082FD1DC04091C6002091231030912410FB
:1059E0002F5F3F4F2F7330708091251090912610BC
:1059F0002817390771F0E0912310F0912410ED5130
:105A0000F04F4083309324102093231002C08091E4
:105A1000C600FF91EF919F918F914F913F912F91F0
:105A20000F900BBE0F900FBE0F901F90189508950A
:105A30001F920F920FB60F920BB60F9211242F9355
:105A40003F934F938F939F93EF93FF938091C80061
:105A500082FD1DC04091CE002091AB103091AC1062
:105A60002F5F3F4F2F7330708091AD109091AE102B
:105A70002817390771F0E091AB10F091AC10E5599F
:105A8000FF4E40833093AC102093AB1002C0809146
:105A9000CE00FF91EF919F918F914F913F912F9168
:105AA0000F900BBE0F900FBE0F901F90189508958A
:105AB0001F920F920FB60F920BB60F9211242F93D5
:105AC0003F934F938F939F93EF93FF938091D000D9
:105AD00082FD1DC04091D6002091331130913411C8
