:1000000006C1000031C100002FC100002DC1000059
:100010002BC1000029C1000027C1000025C100003C
:1000200023C1000021C100001FC100001DC100004C
:100030001BC1000019C1000017C1000015C100005C
:1000400013C1000011C100000FC100000DC100006C
:100050000BC1000009C1000007C100000C94032B74
:1000600003C100000C94DF2C0C94332EFDC0000063
:10007000FBC00000F9C00000F7C00000F5C00000A0
:10008000F3C00000F1C00000EFC00000EDC00000B0
:100090000C941F2D0C94722EE7C000000C94522972
:1000A000E3C00000E1C00000DFC00000DDC00000D0
:1000B000DBC00000D9C00000D7C00000D5C00000E0
:1000C000D3C00000D1C00000CFC000000C945F2D51
:1000D0000C94B12EC9C000000C949F2D0C94F02EEE
:1000E000C3C0000000002100240027002A002D00CA
:1000F0003000330001010000040107010A01000083
:100100002200250028002B002E00310034000201BF
:100110000000050108010B0100002000230026005B
:1001200029002C002F00320000010000030106010D
:10013000090105050505070508080808020202026D
:100140000A0A080804040404010101010101010173
:100150000303030303030303040707070C0C0C0C3E
:100160000C0C0C0C02020202060606060606060627
:100170000B0B0B0B0B0B0B0B0102102020080810B4
:100180002040102040800201020108040201010207
:1001900004081020408080402010080402018004E0
:1001A000020180402010080402010804020101023B
:1001B0000408102040800102040810204080000044
:1001C000090A02080B0C0D070603040100000000D9
:1001D000000000000000000000000000000000001F
:1001E0000000000000000000000011100F000000DF
:1001F00000000000000000000000000000000000FF
:10020000000000007908F424F827623074081124F3
:100210001FBECFEFD1E2DEBFCDBF00E00CBF1AE0C2
:10022000A0E0B2E0E4EAF2E700E00BBF02C0079012
:100230000D92A03BB107D9F71BBE14E1A0EBBAE0C9
:1002400001C01D92A63EB107E1F712E0CCE0D2E07A
:1002500004C02297FE010E943739C430D107C9F784
:100260000E9499310C944639CBCE1F93FC019927FB
:100270008827BC01E89411911032E9F3193010F08D
:100280001E30C8F31B3249F01D3241F4689405C09A
:1002900064D0610F711D811D911D119110531A3091
:1002A000B8F33EF490958095709561957F4F8F4F90
:1002B0009F4F1F910895FB01DC0102C001900D9238
:1002C00041505040D8F70895FC018191861721F0E4
:1002D0008823D9F7992708953197CF010895FB0115
:1002E000DC018D91019080190110D9F3990B0895CB
:1002F000FB01DC0101900D920020E1F70895FB0164
:10030000DC014150504030F08D910190801919F47A
:100310000020B9F7881B990B0895FB019F01E89411
:100320004230C4F04532B4F44A3029F497FB1EF44D
:10033000909581959F4F642F77270E942139805D8A
:100340008A330CF0895D8193CB010097A1F716F4F5
:100350005DE251931082C9012AC0592F482F372FCF
:10036000262F660F771F881F991F660F771F881F1C
:10037000991F620F731F841F951F660F771F881FB9
:10038000991F0895FB019F01423074F0453264F4D7
:10039000642F77270E942139805D8A330CF0895DB4
:1003A0008193CB010097A1F71082C90100C0DC0145
:1003B000FC01672F71917723E1F7329704C07C919C
:1003C0006D9370836291AE17BF07C8F30895EF92E3
:1003D000FF920F931F937C0100E012E00A96B80190
:1003E0000E94AE35C7014096B8010E94AE35C701E4
:1003F0004696B8010E94AE35C7014C96B8010E94DE
:10040000AE35C7018E96B8010E94AE35C701C496BD
:10041000B8010E94AE35C701CA96B8010E94AE3538
:10042000C701805C9F4FB8010E94AE35F70117A24B
:1004300016A21F910F91FF90EF900895CF92EF9227
:100440000F93CF93DF938130910509F0A6C56F5FBD
:100450007F4F09F043C680EB9AE00E94A9278EE601
:100460009BE068E049E024E005E056E0E52E37E057
:10047000C32E0E947C268AE89BE060E072E00E9426
:10048000AE3580E99BE060E072E00E94AE3586E91F
:100490009BE060E072E00E94AE358EE99BE061E097
:1004A00072E00E94AE3584EA9BE068E372E00E944D
:1004B000AE358AEA9BE061E872E00E94AE3580EBDF
:1004C0009BE06AEC72E00E94AE3586EB9BE060EF49
:1004D00072E00E94AE358CEB9BE067E473E00E9413
:1004E000AE3582EC9BE06BE773E00E94AE3588ECA2
:1004F0009BE065EA73E00E94AE358EEC9BE06DEC0C
:1005000073E00E94AE3584ED9BE066EF73E00E94DD
:10051000AE358AED9BE06CE274E00E94AE3580EE71
:100520009BE064E674E00E94AE3586EE9BE062E9F3
:1005300074E00E94AE358CEE9BE064EC74E00E94A7
:10054000AE3582EF9BE067EF74E00E94AE3588EF36
:100550009BE065E275E00E94AE3589E09CE037DF04
:1005600080E59CE063E875E00E94AE3586E59CE09E
:1005700066E875E00E94AE358CE59CE069E875E0C0
:100580000E94AE3582E69CE06CE875E00E94AE35D4
:1005900088E69CE06FE875E00E94AE358EE69CE050
:1005A00062E975E00E94AE3584E79CE065E975E09C
:1005B0000E94AE358AE79CE068E975E00E94AE359E
:1005C00080E89CE06BE975E00E94AE3586E89CE02F
:1005D0006EE975E00E94AE358CE89CE061EA75E05A
:1005E0000E94AE3582E99CE064EA75E00E94AE3577
:1005F00088E99CE063E875E00E94AE358EE99CE0F6
:1006000066E875E00E94AE3584EA9CE069E875E032
:100610000E94AE358AEA9CE06CE875E00E94AE3537
:1006200080EB9CE06FE875E00E94AE3586EB9CE0C5
:1006300062E975E00E94AE358CEB9CE065E975E0FF
:100640000E94AE3582EC9CE068E975E00E94AE3510
:1006500088EC9CE06BE975E00E94AE358EEC9CE086
:100660006EE975E00E94AE3584ED9CE061EA75E0CC
:100670000E94AE358AED9CE064EA75E00E94AE35DA
:1006800080EE9CE067EA75E00E94AE3586EE9CE065
:100690006AEA75E00E94AE358CEE9CE06DEA75E08A
:1006A0000E94AE3582EF9CE060EB75E00E94AE35B3
:1006B00088EF9CE063EB75E00E94AE358EEF9CE026
:1006C00066EB75E00E94AE3584E09DE069EB75E075
:1006D0000E94AE358AE09DE06CEB75E00E94AE357D
:1006E00080E19DE06FEB75E00E94AE3586E19DE014
:1006F00062EC75E00E94AE358CE19DE065EC75E042
:100700000E94AE3582E29DE068EC75E00E94AE3555
:1007100088E29DE06BEC75E00E94AE358EE29DE0D4
:100720006EEC75E00E94AE3584E39DE061ED75E00E
:100730000E94AE358AE39DE064ED75E00E94AE351F
:1007400080E49DE067ED75E00E94AE3586E49DE0B3
:100750006AED75E00E94AE358CE49DE06DED75E0CC
:100760000E94AE3582E59DE060EE75E00E94AE35F8
:1007700088E59DE062EE75E00E94AE358EE59DE075
:1007800064EE75E00E94AE3584E69DE066EE75E0AD
:100790000E94AE358AE69DE068EE75E00E94AE35B7
:1007A00080E79DE06AEE75E00E94AE3586E79DE049
:1007B0006CEE75E00E94AE358CE79DE06EEE75E064
:1007C0000E94AE3582E89DE060EF75E00E94AE3594
:1007D00088E89DE062EF75E00E94AE358EE89DE00E
:1007E00064EF75E00E94AE3584E99DE063E875E052
:1007F0000E94AE358AE99DE066E875E00E94AE355C
:1008000080EA9DE069E875E00E94AE3586EA9DE0E9
:100810006CE875E00E94AE358CEA9DE06FE875E00B
:100820000E94AE3582EB9DE062E975E00E94AE3534
:1008300088EB9DE065E975E00E94AE358EEB9DE0AA
:1008400068E975E00E94AE3584EC9DE06BE975E0E7
:100850000E94AE358AEC9DE06EE975E00E94AE35EF
:1008600080ED9DE061EA75E00E94AE3586ED9DE089
:1008700064EA75E00E94AE358CED9DE067EA75E0B4
:100880000E94AE3582EE9DE06AEA75E00E94AE35C8
:1008900088EE9DE06DEA75E00E94AE358EEE9DE03B
:1008A00060EB75E00E94AE3584EF9DE063EB75E090
:1008B0000E94AE358AEF9DE066EB75E00E94AE3592
:1008C00080E09EE069EB75E00E94AE3586E09EE038
:1008D0006CEB75E00E94AE358CE09EE06FEB75E04E
:1008E0000E94AE3582E19EE062EC75E00E94AE357A
:1008F00088E19EE065EC75E00E94AE358EE19EE0F9
:1009000064EF75E00E94AE3584E29EE063E875E036
:100910000E94AE358AE29EE066E875E00E94AE3540
:1009200080E39EE069E875E00E94AE3586E39EE0D4
:100930006CE875E00E94AE358CE39EE06FE875E0F0
:100940000E94AE3582E49EE062E975E00E94AE3519
:1009500088E49EE065E975E00E94AE358EE49EE095
:1009600068E975E00E94AE3584E59EE06BE975E0CC
:100970000E94AE358AE59EE06EE975E00E94AE35D4
:1009800080E69EE061EA75E00E94AE3586E69EE074
:1009900064EA75E00E94AE358CE69EE067EA75E099
:1009A0000E94AE3582E79EE06AEA75E00E94AE35AD
:1009B00088E79EE06DEA75E00E94AE358EE79EE026
:1009C00060EB75E00E94AE3584E89EE063EB75E075
:1009D0000E94AE358AE89EE066EB75E00E94AE3577
:1009E00080E99EE069EB75E00E94AE3586E99EE005
:1009F0006CEB75E00E94AE358CE99EE06FEB75E024
:100A00000E94AE3582EA9EE062EC75E00E94AE354F
:100A100088EA9EE065EC75E00E94AE358EEA9EE0C5
:100A200068EC75E00E94AE3584EB9EE06BEC75E0FF
:100A30000E94AE358AEB9EE06EEC75E00E94AE350A
:100A400080EC9EE061ED75E00E94AE3586EC9EE0A4
:100A500064ED75E00E94AE358CEC9EE067ED75E0CC
:100A60000E94AE3582ED9EE06AED75E00E94AE35E3
:100A700088ED9EE06DED75E00E94AE358EED9EE056
:100A800067EF75E00E94AE3584EE9EE06AEF75E098
:100A90000E94AE358AEE9EE06DEF75E00E94AE35A5
:100AA00080EF9EE060E076E00E94AE3586EF9EE04B
:100AB00063E076E00E94AE358CEF9EE066E076E083
:100AC0000E94AE3582E09FE069E076E00E94AE359C
:100AD00088E09FE06CE076E00E94AE358EE09FE01B
:100AE0006FE076E00E94AE3584E19FE062E176E05F
:100AF0000E94AE358AE19FE065E176E00E94AE3566
:100B000080E29FE068E176E00E94AE3586E29FE0F9
:100B10006BE176E00E94AE358CE29FE06EE176E01C
:100B20000E94AE3582E39FE061E276E00E94AE353E
:100B300088E39FE064E276E00E94AE358EE39FE0BA
:100B400067E276E00E94AE3584E49FE06AE276E0F8
:100B50000E94AE358AE49FE06DE276E00E94AE35F9
:100B600080E59FE060E376E00E94AE3586E59FE099
:100B700063E376E00E94AE358CE59FE066E376E0C5
:100B80000E94AE3582E69FE069E376E00E94AE35D2
:100B900088E69FE06CE376E00E94AE358EE69FE04B
:100BA0006FE376E00E94AE3584E79FE062E476E092
:100BB0000E94AE358AE79FE065E476E00E94AE359C
:100BC00080E89FE068E476E00E94AE3586E89FE02A
:100BD00060EE75E00E94AE358CE89FE062EE75E055
:100BE0000E94AE3582E99FE064EE75E00E94AE356A
:100BF00088E99FE066EE75E00E94AE358EE99FE0E1
:100C000068EE75E00E94AE3584EA9FE06AEE75E01A
:100C10000E94AE358AEA9FE06CEE75E00E94AE3528
:100C200080EB9FE06EEE75E00E94AE3586EB9FE0B4
:100C300060EF75E00E94AE358CEB9FE062EF75E0EF
:100C40000E94AE3582EC9FE06BE476E00E94AE3508
:100C500088EC9FE06DE476E00E94AE358EEC9FE07C
:100C60006FE476E00E94AE3584ED9FE061E576E0CA
:100C70000E94AE358AED9FE063E576E00E94AE35D6
:100C800080EE9FE065E576E00E94AE3586EE9FE05F
:100C900067E576E00E94AE358CEE9FE069E576E090
:100CA0000E94AE3582EF9FE06BE576E00E94AE35A4
:100CB00088EF9FE06DE576E00E94AE358EEF9FE015
:100CC0006FE576E00E94AE3584E090E161E676E083
:100CD0000E94AE358AE090E163E676E00E94AE3590
:100CE00080E190E165E676E00E94AE3586E190E134
:100CF00067E676E00E94AE358CE190E169E676E049
:100D00000E94AE3582E290E16BE676E00E94AE355D
:100D100088E290E16DE676E00E94AE358EE290E1E9
:100D20006FE676E00E94AE3584E390E161E776E01D
:100D30000E94AE358AE390E163E776E00E94AE352B
:100D400080E490E165E776E00E94AE3586E490E1CC
:100D500067E776E00E94AE358CE490E169E776E0E3
:100D60000E94AE3582E590E16BE776E00E94AE35F9
:100D700088E590E16DE776E00E94AE358EE590E182
:100D80006FE776E00E94AE3584E690E161E876E0B8
:100D90000E94AE358AE690E163E876E00E94AE35C7
:100DA00080E790E165E876E00E94AE3586E790E165
:100DB00067E876E00E94AE358CE790E169E876E07E
:100DC0000E94AE3582E890E16BE876E00E94AE3595
:100DD00088E890E16DE876E00E94AE358EE890E11B
:100DE0006FE876E00E94AE3584E990E161E976E053
:100DF0000E94AE358AE990E163E976E00E94AE3563
:100E000080EA90E165E976E00E94AE3586EA90E1FD
:100E100067E976E00E94AE358CEA90E169E976E018
:100E20000E94AE3582EB90E16BE976E00E94AE3530
:100E300088EB90E16DE976E00E94AE358EEB90E1B3
:100E40006FE976E00E94AE3584EC90E161EA76E0ED
:100E50000E94AE358AEC90E163EA76E00E94AE35FE
:100E600080ED90E165EA76E00E94AE3586ED90E196
:100E700067EA76E00E94AE358CED90E169EA76E0B3
:100E80000E94AE3582EE90E16BEA76E00E94AE35CC
:100E900088EE90E16DEA76E00E94AE358EEE90E14C
:100EA0006FEA76E00E94AE3584EF90E161EB76E088
:100EB0000E94AE358AEF90E160EE75E00E94AE359B
:100EC00080E091E162EE75E00E94AE3586E091E14E
:100ED00064EE75E00E94AE358CE091E166EE75E05F
:100EE0000E94AE3582E191E168EE75E00E94AE3578
:100EF00088E191E16AEE75E00E94AE358EE191E104
:100F00006CEE75E00E94AE3584E291E16EEE75E024
:100F10000E94AE358AE291E160EF75E00E94AE3545
:100F200080E391E162EF75E00E94AE3586E391E1E6
:100F300063EB76E00E94AE358CE391E165EB76E001
:100F40000E94AE3582E491E167EB76E00E94AE3517
:100F500088E491E16BEB76E00E94AE358EE491E19E
:100F60006FEB76E00E94AE3584E591E163EC76E0CC
:100F70000E94AE358AE591E167EC76E00E94AE35DD
:100F800080E691E16BEC76E00E94AE3586E691E179
:100F90006FEC76E00E94AE35A1C0892B09F09EC0AF
:100FA0006F5F7F4F09F09AC0C6E6D1E1CE010E9483
:100FB000A736269781E1CC33D807C1F7CCE3D1E13E
:100FC000CE010E94A73626978FE0CC3BD807C1F709
:100FD000CCEBDFE0CE010E94A73626978FE0C03829
:100FE000D807C1F7C0E8DFE0CE010E94A7362697F8
:100FF0008EE0C831D807C1F7C8E1DEE0CE010E941B
:10100000A73626978DE0C838D807C1F7C8E8DDE0D5
:10101000CE010E94A73626978DE0CC34D807C1F7C1
:10102000CCE4DDE0CE010E94A73626978CE0C239E1
:10103000D807C1F7C2E9DCE0CE010E94A7362697A7
:101040008CE0CA34D807C1F789E49CE00E94A73637
:1010500083E49CE00E94A7368DE39CE00E94A736C3
:1010600087E39CE00E94A73685E29CE00E94A736B9
:101070008FE19CE00E94A73689E19CE00E94A736A0
:1010800083E19CE00E94A736C8EFDBE0CE010E941E
:10109000A73626978BE0CE3CD807C1F7CEECDBE035
:1010A000CE010E94A73626978BE0C03BD807C1F738
:1010B000C0EBDBE0CE010E94A73626978BE0C83953
:1010C000D807C1F786E99BE00E94A73680E99BE03C
:1010D0000E94A7368AE89BE00E94A736DF91CF9155
:1010E0000F91EF90CF90089580E090E06FEF7FEF49
:1010F000A5C981E090E06FEF7FEFA0C9BC0189E551
:1011000094E10C940332EF92FF920F931F93DF93BD
:10111000CF93CDB7DEB7C257D0400FB6F894DEBF3D
:101120000FBECDBF83E89BE00E946A24882309F4A8
:101130007DC1CE01019660E072E00E94AE35B7E05D
:10114000EB2EF12CEC0EFD1EC70160E072E00E9458
:10115000AE358E01035F1F4FC8016091850B4AE0D9
:101160000E94F535C701B8010E948236C8010E946D
:10117000A7368B859C85019791F48E010D5E1F4FDC
:10118000C80160E30E942536C801B7010E947B3583
:10119000BC01C7010E948236C8010E94AB368E0195
:1011A000075E1F4FA7E0EA2EF12CEC0EFD1EC801D2
:1011B000B7010E949F36C80163ED76E00E94613559
:1011C000BC018AE89BE00E948236C8010E94AB36CF
:1011D0008E01015E1F4FC8016091840B4AE00E949E
:1011E000F535C701B8010E948236C8010E94A736B2
:1011F0008B859C85019791F48E010B5D1F4FC80173
:1012000060E30E942536C801B7010E947B35BC010E
:10121000C7010E948236C8010E94AB368E01055D6F
:101220001F4FC8016AE87BE00E949F36F7E0EF2E6F
:10123000F12CEC0EFD1EC801B7010E947B3563ED59
:1012400076E00E946135BC018AE89BE00E9482360C
:10125000C8010E94AB368E010F5C1F4FC801609120
:10126000830B4AE00E94F535C701B8010E9482361F
:10127000C8010E94A7368B859C85019791F48E0149
:10128000095C1F4FC80160E30E942536C801B70101
:101290000E947B35BC01C7010E948236C8010E94B2
:1012A000AB368E01035C1F4FC8016AE87BE00E94E9
:1012B0009F36E7E0EE2EF12CEC0EFD1EC801B701C3
:1012C0000E947B35BC018AE89BE00E948236C801FF
:1012D0000E94AB368E010D5B1F4FC8016091880BD9
:1012E0004AE00E94F535C701B8010E948236C80164
:1012F0000E94A7368B859C85019791F48E01075B30
:101300001F4FC80160E30E942536C801B7010E9443
:101310007B35BC01C7010E948236C8010E94AB36F2
:101320008E01015B1F4F77E0E72EF12CEC0EFD1EC6
:10133000C801B7010E949F36C80165ED76E00E94A2
:101340006135BC0180E99BE00E948236C8010E94A1
:10135000AB368E010B5A1F4FC8016091870B4AE0D4
:101360000E94F535C701B8010E948236C8010E946B
:10137000A7368B859C85019791F48E01055A1F4FE6
:10138000C80160E30E942536C801B7010E947B3581
:10139000BC01C7010E948236C8010E94AB368E0193
:1013A0000F591F4FC80160E97BE00E949F3667E03C
:1013B000E62EF12CEC0EFD1EC801B7010E947B3514
:1013C00065ED76E00E946135BC0180E99BE00E94FA
:1013D0008236C8010E94AB368E0109591F4FC801E1
:1013E00060E97BE00E949F366091890B70E06E544B
:1013F000784FC8010E944335BC0180E99BE00E9400
:101400008236C8010E94AB366091860B86E0689FE9
:10141000B00111246E5B7E4E86E99BE00E9482360D
:10142000C7010E94A736CE01019616C080916F11A8
:10143000882339F089E594E167ED76E00E94313345
:101440000DC08E0103591F4FC80166E077E00E946E
:10145000AE35C80153DEC8010E94A736CE58DF4F13
:101460000FB6F894DEBF0FBECDBFCF91DF911F91B5
:101470000F91FF90EF9008954F925F926F927F923D
:101480008F929F92AF92BF92CF92DF92EF92FF9294
:101490000F931F93DF93CF93CDB7DEB7A4970FB60B
:1014A000F894DEBF0FBECDBF3C01A62E8E010F5FAC
:1014B0001F4FC80160E072E00E94AE35CE01079672
:1014C00060E072E00E94AE35BAE04B2E512C460C23
:1014D000571CF30126A137A1ADE0EA2EF12CEC0E4A
:1014E000FD1EC701B201A9012F5F3F4F0E943D368B
:1014F000C801B7010E948236C7010E94A736EE24B8
:10150000FF24C02E012FB701660F771F6E0D7F1DC0
:10151000660F771F6E53704F8C2D902F0E943834BA
:10152000882341F4F0E4EF16F10421F00894E11C63
:10153000F11CE9CFAA2051F08FE3E816F1041CF06A
:1015400080E090E00BC0C701019608C0E114F104EF
:1015500019F48FE390E002C0C701019757E0852E90
:10156000912C8C0E9D1EBC01660F771F680F791F92
:10157000660F771F6E53704FC4010E94823623E1BD
:10158000A22EB12CAC0EBD1EF30126A137A1C501C0
:10159000B20140E050E00E943D3699E1C92ED12CC5
:1015A000CC0EDD1EC601B5010E949F36C601B401F6
:1015B0000E947B358C018FE1E82EF12CEC0EFD1E94
:1015C000F30146A157A14F5F5F4F26853785C701BD
:1015D000B2010E943D36C801B7010E947B35BC01B3
:1015E0008E010F5F1F4FC8010E948236C7010E9403
:1015F000A736C6010E94AB36C5010E94A736C201BC
:10160000B8010E948236C4010E94A736C8010E9418
:10161000A736A4960FB6F894DEBF0FBECDBFCF910C
:10162000DF911F910F91FF90EF90DF90CF90BF90CF
:10163000AF909F908F907F906F905F904F900895A4
:101640004F925F926F927F928F929F92AF92BF92D2
:10165000CF92DF92EF92FF920F931F93DF93CF937E
:10166000CDB7DEB7A4970FB6F894DEBF0FBECDBFDF
:101670003C01D62E7E010894E11CF11CC70160E0FC
:1016800072E00E94AE35CE01079660E072E00E94E3
:10169000AE356AE0462E512C460C571CF30126A1AC
:1016A00037A18E01035F1F4FC801B201A9012F5F4F
:1016B0003F4F0E943D36C701B8010E948236C801E3
:1016C0000E94A736C7010E945733DD2049F06930D8
:1016D00071051CF080E090E00BC0CB01019608C0C2
:1016E000161617061CF089E090E002C0CB010197A6
:1016F00057E0852E912C8C0E9D1EBC01660F771F26
:10170000680F791F660F771F6A57704FC4010E94D8
:10171000823623E1A22EB12CAC0EBD1EF30126A110
:1017200037A1C501B20140E050E00E943D3699E189
:10173000C92ED12CCC0EDD1EC601B5010E949F36EC
:10174000C601B4010E947B358C018FE1E82EF12C9B
:10175000EC0EFD1EF30146A157A14F5F5F4F26859A
:101760003785C701B2010E943D36C801B7010E940A
:101770007B35BC018E010F5F1F4FC8010E9482366E
:10178000C7010E94A736C6010E94AB36C5010E9460
:10179000A736C201B8010E948236C4010E94A73652
:1017A000C8010E94A736A4960FB6F894DEBF0FBEFC
:1017B000CDBFCF91DF911F910F91FF90EF90DF9000
:1017C000CF90BF90AF909F908F907F906F905F90E1
:1017D0004F9008954F925F926F927F928F929F9257
:1017E000AF92BF92CF92DF92EF92FF920F931F932F
:1017F000DF93CF93CDB7DEB7A4970FB6F894DEBFD3
:101800000FBECDBF3C01D62E7E010894E11CF11C19
:10181000C70160E072E00E94AE35CE01079660E03D
:1018200072E00E94AE350AE0402E512C460C571C47
:10183000F30126A137A18E01035F1F4FC801B2013A
:10184000A9012E5F3F4F0E943D36C701B8010E949B
:101850008236C8010E94A736C7010E945733DD2097
:1018600049F06B3371051CF080E090E00BC0CB01B8
:10187000019608C0161617061CF08BE390E002C014
:10188000CB01019717E0812E912C8C0E9D1EBC017F
:10189000660F771F680F791F660F771F625E714FA3
:1018A000C4010E948236F3E1AF2EB12CAC0EBD1EF6
:1018B000F30126A137A1C501B20140E050E00E942A
:1018C0003D36E9E1CE2ED12CCC0EDD1EC601B50190
:1018D0000E949F36C601B4010E947B358C017FE1D6
:1018E000E72EF12CEC0EFD1EF30146A157A14E5F31
:1018F0005F4F26853785C701B2010E943D36C8017A
:10190000B7010E947B35BC018E010F5F1F4FC801DC
:101910000E948236C7010E94A736C6010E94AB36DC
:10192000C5010E94A736C201B8010E948236C401D7
:101930000E94A736C8010E94A736A4960FB6F89455
:10194000DEBF0FBECDBFCF91DF911F910F91FF90F2
:10195000EF90DF90CF90BF90AF909F908F907F904F
:101960006F905F904F9008954F925F926F927F9229
:101970008F929F92AF92BF92CF92DF92EF92FF929F
:101980000F931F93DF93CF93CDB7DEB7A4970FB616
:10199000F894DEBF0FBECDBF3C01D62E7E01089469
:1019A000E11CF11CC70160E072E00E94AE35CE017F
:1019B000079660E072E00E94AE356AE0462E512C38
:1019C000460C571CF30126A137A18E01035F1F4F60
:1019D000C801B201A9012E5F3F4F0E943D36C701E9
:1019E000B8010E948236C8010E94A736C7010E9432
:1019F0005733DD2049F0673171051CF080E090E03D
:101A00000BC0CB01019608C0161617061CF087E123
:101A100090E002C0CB01019757E0852E912C8C0EEF
:101A20009D1EBC01660F771F680F791F660F771F19
:101A30006257724FC4010E94823623E1A22EB12C5C
:101A4000AC0EBD1EF30126A137A1C501B20140E0D5
:101A500050E00E943D3699E1C92ED12CCC0EDD1EFE
:101A6000C601B5010E949F36C601B4010E947B35B4
:101A70008C018FE1E82EF12CEC0EFD1EF30146A146
:101A800057A14E5F5F4F26853785C701B2010E947F
:101A90003D36C801B7010E947B35BC018E010F5F46
:101AA0001F4FC8010E948236C7010E94A736C60197
:101AB0000E94AB36C5010E94A736C201B8010E9440
:101AC0008236C4010E94A736C8010E94A736A49698
:101AD0000FB6F894DEBF0FBECDBFCF91DF911F913F
:101AE0000F91FF90EF90DF90CF90BF90AF909F90BD
:101AF0008F907F906F905F904F9008954F925F927C
:101B00006F927F928F929F92AF92BF92CF92DF920D
:101B1000EF92FF920F931F93DF93CF93CDB7DEB772
:101B2000A4970FB6F894DEBF0FBECDBF3C01A62E22
:101B30008E010F5F1F4FC80160E072E00E94AE355A
:101B4000CE01079660E072E00E94AE355AE0452E65
:101B5000512C460C571CF30126A137A14DE0E42E71
:101B6000F12CEC0EFD1EC701B201A9012D5F3F4F04
:101B70000E943D36C801B7010E948236C7010E940B
:101B8000A736EE24FF24C02E012FB701660F771F62
:101B90006E0D7F1D660F771F6E5B7E4E8C2D902F16
:101BA0000E943834882341F4F6E0EF16F10421F066
:101BB0000894E11CF11CE9CFAA2051F086E0E81658
:101BC000F1041CF080E090E00BC0C701019608C052
:101BD000E114F10419F486E090E002C0C701019716
:101BE00017E0812E912C8C0E9D1EBC01660F771F75
:101BF000680F791F660F771F6E5B7E4EC4010E94CF
:101C00008236F3E1AF2EB12CAC0EBD1EF30126A13E
:101C100037A1C501B20140E050E00E943D36E9E144
:101C2000CE2ED12CCC0EDD1EC601B5010E949F36F2
:101C3000C601B4010E947B358C017FE1E72EF12CB7
:101C4000EC0EFD1EF30146A157A14D5F5F4F2685A7
:101C50003785C701B2010E943D36C801B7010E9415
:101C60007B35BC018E010F5F1F4FC8010E94823679
:101C7000C7010E94A736C6010E94AB36C5010E946B
:101C8000A736C201B8010E948236C4010E94A7365D
:101C9000C8010E94A736A4960FB6F894DEBF0FBE07
:101CA000CDBFCF91DF911F910F91FF90EF90DF900B
:101CB000CF90BF90AF909F908F907F906F905F90EC
:101CC0004F9008954F925F926F927F928F929F9262
:101CD000AF92BF92CF92DF92EF92FF920F931F933A
:101CE000DF93CF93CDB7DEB7A4970FB6F894DEBFDE
:101CF0000FBECDBF3C01D62E7E010894E11CF11C25
:101D0000C70160E072E00E94AE35CE01079660E048
:101D100072E00E94AE351AE0412E512C460C571C41
:101D2000F30126A137A18E01035F1F4FC801B20145
:101D3000A9012F5F3F4F0E943D36C701B8010E94A5
:101D40008236C8010E94A736C7010E945733DD20A2
:101D500049F0693071051CF080E090E00BC0CB01C8
:101D6000019608C0161617061CF089E090E002C024
:101D7000CB010197B7E08B2E912C8C0E9D1EBC01E0
:101D8000660F771F680F791F660F771F6E5A724FA5
:101D9000C4010E948236E3E1AE2EB12CAC0EBD1E12
:101DA000F30126A137A1C501B20140E050E00E9435
:101DB0003D3679E1C72ED12CCC0EDD1EC601B50112
:101DC0000E949F36C601B4010E947B358C016FE1F1
:101DD000E62EF12CEC0EFD1EF30146A157A14F5F3C
:101DE0005F4F26853785C701B2010E943D36C80185
:101DF000B7010E947B35BC018E010F5F1F4FC801E8
:101E00000E948236C7010E94A736C6010E94AB36E7
:101E1000C5010E94A736C201B8010E948236C401E2
:101E20000E94A736C8010E94A736A4960FB6F89460
:101E3000DEBF0FBECDBFCF91DF911F910F91FF90FD
:101E4000EF90DF90CF90BF90AF909F908F907F905A
:101E50006F905F904F9008954F925F926F927F9234
:101E60008F929F92AF92BF92CF92DF92EF92FF92AA
:101E70000F931F93DF93CF93CDB7DEB7A4970FB621
:101E8000F894DEBF0FBECDBF3C01D62E7E01089474
:101E9000E11CF11CC70160E072E00E94AE35CE018A
:101EA000079660E072E00E94AE356AE0462E512C43
:101EB000460C571CF30126A137A18E01035F1F4F6B
:101EC000C801B201A9012E5F3F4F0E943D36C701F4
:101ED000B8010E948236C8010E94A736C7010E943D
:101EE00057339B0121503040DD2041F02E31310528
:101EF0001CF080E090E00AC0CB0108C01216130667
:101F00001CF08EE190E002C0C901019757E0852ED8
:101F1000912C8C0E9D1EBC01660F771F680F791FD8
:101F2000660F771F6856734FC4010E94823623E103
:101F3000A22EB12CAC0EBD1EF30126A137A1C50106
:101F4000B20140E050E00E943D3699E1C92ED12C0B
:101F5000CC0EDD1EC601B5010E949F36C601B4013C
:101F60000E947B358C018FE1E82EF12CEC0EFD1EDA
:101F7000F30146A157A14E5F5F4F26853785C70104
:101F8000B2010E943D36C801B7010E947B35BC01F9
:101F90008E010F5F1F4FC8010E948236C7010E9449
:101FA000A736C6010E94AB36C5010E94A736C20102
:101FB000B8010E948236C4010E94A736C8010E945F
:101FC000A736A4960FB6F894DEBF0FBECDBFCF9153
:101FD000DF911F910F91FF90EF90DF90CF90BF9016
:101FE000AF909F908F907F906F905F904F900895EB
:101FF0000F931F938823D1F080EB9AE048EE53E0D3
:1020000060E070E023E838E003E010E00E949C27E5
:10201000992787FD909590939D0B80939C0B89E564
:1020200094E166E377E00E94313306C080EB9AE0EA
:1020300060919C0B0E9402271F910F9108950F93AE
:102040001F9380916C116623C9F0882309F580EBFA
:102050009AE044EF51E060E070E024EC31E102E00E
:1020600010E00E949C27992787FD909590936E1110
:1020700080936D1181E080936C110AC0813041F42E
:1020800080EB9AE060916D110E94022710926C1112
:102090001F910F9108958091FF0B9091000C9093E8
:1020A000040C8093030C80E00E94C52B9C0190934C
:1020B000000C8093FF0B4091030C5091040C841B87
:1020C000950B05960B9798F581E08093FE0BC9015F
:1020D0008C589040099718F483E090E01EC0C90125
:1020E00085549140099718F484E090E016C0C90126
:1020F0000496099718F485E090E00FC0C901855F48
:102100009140099718F482E090E007C0225E3240C7
:102110002930310538F481E090E09093020C8093EF
:10212000010C08951092020C1092010C04C05093FF
:10213000000C4093FF0B1092FE0B08950F931F931A
:102140008091FF0B9091000C9093040C8093030CF2
:1021500080E00E94C52B9093000C8093FF0B209190
:10216000030C3091040C821B930B97FF03C09095D6
:1021700081959F4F0597A4F080EB9AE04AE050E0EC
:1021800060E070E02BE430E105E010E00E948F2772
:10219000992787FD90959093080C8093070C04C0B5
:1021A0003093000C2093FF0B1F910F9108950F9314
:1021B0001F93882351F18FEF93E09093000C80934D
:1021C000FF0B80EB9AE044E150E060E070E02EE924
:1021D00030E102E010E00E949C27992787FD90954E
:1021E0009093060C8093050C89E594E16BE477E00D
:1021F0000E942F3389E594E144E150E060E070E013
:102200002AE030E00E949F3206C080EB9AE06091A5
:10221000050C0E9402271F910F9108954F925F9223
:102220006F927F928F929F92AF92BF92CF92DF92E6
:10223000EF92FF920F931F93DF93CF93CDB7DEB74B
:1022400068970FB6F894DEBF0FBECDBF3C018EE697
:102250009BE060E142E020E00E94DE258EE69BE00C
:102260000E94D9258EE69BE060E040E00E94AB250D
:10227000B301665C7F4F8EE69BE00E94D1318EE613
:102280009BE060E041E00E94AB258091780ABAE0D3
:102290004B2E512C460C571CF30142A153A188230D
:1022A00009F446C0A0E18A2E912C860C971C26A129
:1022B00037A16E010894C11CD11CC601B2010E9455
:1022C0003D3677E0E72EF12CEC0EFD1EC701B6017E
:1022D0000E949F36B3016A5E7F4FC7010E947B3523
:1022E0005C018E01035F1F4FF30146A157A14F5FB1
:1022F0005F4F24A135A1C801B2010E943D36C5013E
:10230000B8010E947B35BC01C4010E948236C8011D
:102310000E94A736C7010E94AB36C6010E94A736AD
:102320008EE69BE0B4010E94D1311092780A15C06C
:102330008E010D5E1F4FF30124A135A1C801B2012A
:102340000E943D368EE69BE0B8010E94D131C80163
:102350000E94A73681E08093780A68960FB6F894B9
:10236000DEBF0FBECDBFCF91DF911F910F91FF90C8
:10237000EF90DF90CF90BF90AF909F908F907F9025
:102380006F905F904F90089589E09CE047CF4F9207
:102390005F926F927F928F929F92AF92BF92CF92F5
:1023A000DF92EF92FF920F931F93DF93CF93CDB7FE
:1023B000DEB7E0970FB6F894DEBF0FBECDBF3C018D
:1023C000D62E7E010894E11CF11CC70160E072E08A
:1023D0000E94AE35CE01079660E072E00E94AE35F5
:1023E0004AE0442E512C460C571CF30126A137A17C
:1023F0008E01035F1F4FC801B201A9012E5F3F4F3D
:102400000E943D36C701B8010E948236C8010E9471
:10241000A73689E594E1B7010E940332C7010E9403
:1024200057334B015C018B010150104089E594E169
:10243000B8014AE050E00E941233DD2041F00B3039
:1024400011051CF080E090E00AC0C40108C010161D
:1024500011061CF08BE090E002C0C801019737E044
:10246000832E912C8C0E9D1EBC01660F771F680F6A
:10247000791F660F771F605B734FC4010E9482361D
:1024800089E594E1B4010E94033289E594E16AE5AB
:1024900077E00E942F33F30166A177A189E594E1EB
:1024A0004AE050E00E94123389E594E166E677E065
:1024B0000E942F338E010D5E1F4FF30126A137A11D
:1024C000C801B20140E050E00E943D3689E594E148
:1024D000B8010E94D131C8010E94A73689E594E174
:1024E00065E777E00E942F338E01075E1F4FF301EF
:1024F00046A157A14E5F5F4F26853785C801B201BF
:102500000E943D3689E594E1B8010E94D131C801AD
:102510000E94A73689E594E16CE877E00E943133A8
:102520000FE1A02EB12CAC0EBD1EF30126A137A1E8
:10253000C501B20140E050E00E943D3615E2E12EB7
:10254000F12CEC0EFD1EC701B5010E949F36C7019C
:10255000B4010E947B356C018E01055D1F4FF301B4
:1025600046A157A14E5F5F4F26853785C801B2014E
:102570000E943D36C601B8010E947B35BC016E0148
:102580000894C11CD11CC6010E948236C8010E9459
:10259000A736C7010E94AB36C5010E94A73689E560
:1025A00094E16CE877E00E942F3389E594E1B20171
:1025B0000E94D13189E594E16CE877E00E943133E3
:1025C00089E594E16CE877E00E942F3389E594E196
:1025D000B6010E94D13189E594E16CE877E00E9470
:1025E0003133C201B6010E94823689E594E16CE87C
:1025F00077E00E942F3389E594E1B2010E94D13146
:1026000089E594E16CE877E00E943133C4010E94CF
:10261000A736C6010E94A736E0960FB6F894DEBF33
:102620000FBECDBFCF91DF911F910F91FF90EF9023
:10263000DF90CF90BF90AF909F908F907F906F90E2
:102640005F904F9008952F923F924F925F926F92BA
:102650007F928F929F92AF92BF92CF92DF92EF9232
:10266000FF920F931F93DF93CF93CDB7DEB766979B
:102670000FB6F894DEBF0FBECDBF2C016B013A013F
:102680003C8B2B8B1801FE8AED8ADA011D921C927D
:1026900001E010E01FC0F301808191819C01220FB5
:1026A000331F280F391F220F331FD20115968D912A
:1026B0009C911697820F931FB6010E947034F3010C
:1026C00040815181882381F44F5F5F4F5183408364
:1026D0000F5F1F4FD20111968D919C911297801719
:1026E0009107CCF680E0A3C09A01220F331F240F7C
:1026F000351F220F331FF20185819681820F931FB0
:102700006CE20E94DF335C010894A11CB11CD30170
:102710008D919C919C01220F331F280F391F220F8E
:10272000331FF20185819681820F931F6CE2A50110
:102730000E94C1336C014C010894811C911CD3018F
:102740008D919C919C01220F331F280F391F220F5E
:10275000331FF20185819681820F931F6CE2A401E1
:102760000E94C1337C01D3012D913C91C901880F96
:10277000991F820F931F880F991FF201658176813F
:10278000680F791F8E010F5F1F4FC801A5019601C9
:102790000E943D36C101B8010E948236C8010E94E4
:1027A000A7368E01095F1F4FD3012D913C91C901BE
:1027B000880F991F820F931F880F991FF20165815F
:1027C0007681680F791FC801A40197010E943D36E8
:1027D0008B899C89B8010E948236C8010E94A73665
:1027E000D3012D913C91C901880F991F820F931F2E
:1027F000880F991FD2011596ED91FC911697E80F5D
:10280000F91F8E01035F1F4F0894E11CF11C248106
:102810003581C801BF01A7010E943D368D899E897F
:10282000B8010E948236C8010E94A73681E06696F0
:102830000FB6F894DEBF0FBECDBFCF91DF911F91D1
:102840000F91FF90EF90DF90CF90BF90AF909F904F
:102850008F907F906F905F904F903F902F90089552
:102860002F923F924F925F926F927F928F929F92A0
:10287000AF92BF92CF92DF92EF92FF920F931F938E
:10288000DF93CF93CDB7DEB7ED970FB6F894DEBFE9
:102890000FBECDBF9AAF89AF5B015CAF4BAF2DAF21
:1028A0001A82198283E0282E312C2C0E3D1EC10184
:1028B00060E072E00E94AE3509E0402E512C4C0ED3
:1028C0005D1EC20160E072E00E94AE351FE0812E05
:1028D000912C8C0E9D1EC40160E072E00E94AE350A
:1028E000B5E1CB2ED12CCC0EDD1EC6016BAD7CAD7F
:1028F0000E94973689AD9AADB601AE014F5F5F4F2A
:102900009101820174019FDE182FC6010E94A73633
:10291000112309F48DC0C20161E60E94DF339C01DE
:102920008FEF2F3F380709F483C0A3E06A2E712C84
:10293000620E731EEDADEE2309F468C0FBE1CF2EED
:10294000D12CCC0EDD1EC601B40140E050E00E9447
:102950003D36E1E2EE2EF12CEC0EFD1EC701B60174
:102960000E949F36C701B5010E947B355C018E0134
:10297000095D1F4F2B893C89C801B401A3010E9446
:102980003D36C501B8010E947B35BC01C4010E94DF
:102990008236C8010E94A736C7010E94AB36C60125
:1029A0000E94A73629813A81C901880F991F820F99
:1029B000931F880F991FE9ADFAAD05811681080FA5
:1029C000191F5DE2E52EF12CEC0EFD1EC7016BAD6B
:1029D0007CAD0E949F36C7016CE20E945235B20165
:1029E0000E947B356CE20E945235B1010E947B351A
:1029F0006CE20E945235B4010E947B35BC01C801D3
:102A00000E948236C7010E94AB3610C08E010D5C59
:102A10001F4FC801B401A90193010E943D36C501B1
:102A2000B8010E948236C8010E94A73611E001C099
:102A300010E0CE010F960E94A736CE0109960E94A3
:102A4000A736CE0103960E94A736812FED960FB6CA
:102A5000F894DEBF0FBECDBFCF91DF911F910F91D4
:102A6000FF90EF90DF90CF90BF90AF909F908F90AE
:102A70007F906F905F904F903F902F9008952F928E
:102A80003F924F925F926F927F928F929F92AF92FE
:102A9000BF92CF92DF92EF92FF920F931F93DF933B
:102AA000CF93CDB7DEB7C354D0400FB6F894DEBF96
:102AB0000FBECDBF21969FAF8EAF21975B012396AE
:102AC0005FAF4EAF239724962FAF24971A821982B7
:102AD000B3E02B2E312C2C0E3D1EC10160E072E0C4
:102AE0000E94AE35A9E04A2E512C4C0E5D1EC2014B
:102AF00060E072E00E94AE35FFE08F2E912C8C0ECC
:102B00009D1EC40160E072E00E94AE35E5E1CE2E6C
:102B1000D12CCC0EDD1EC60123966EAD7FAD239762
:102B20000E94973621968EAD9FAD2197B601AE01DA
:102B30004F5F5F4F91018201740185DD182FC6013F
:102B40000E94A736112309F4BEC0C20168E40E94A6
:102B5000DF337C018FEFE8168FEFF80609F4B3C07E
:102B600075E0672E712C6E0C7F1C2496EFAD2497B8
:102B7000EE2309F47EC089E594E163E977E00E94E1
:102B80002F3389E594E1B4010E94033269817A818F
:102B900089E594E14AE050E00E9412336BE1C62ED1
:102BA000D12CCC0EDD1EC601B40140E050E09701EF
:102BB0000E943D3651E2E52EF12CEC0EFD1EC701C0
:102BC000B6010E949F36C701B5010E947B355C01AA
:102BD0008E01095D1F4F2B893C89C801B401A301F7
:102BE0000E943D36C501B8010E947B35BC01C4017D
:102BF0000E948236C8010E94A736C7010E94AB36E8
:102C0000C6010E94A73629813A81C901880F991F00
:102C1000820F931F880F991F2196EEADFFAD21976C
:102C200005811681080F191F9DE2E92EF12CEC0E8B
:102C3000FD1EC70123966EAD7FAD23970E949F3680
:102C4000C7016CE20E945235B2010E947B356CE2F2
:102C50000E945235B1010E947B356CE20E945235D0
:102C6000B4010E947B35BC01C8010E948236C701B5
:102C700026C08E010D5C1F4FC801B401A70193014E
:102C80000E943D36C501B8010E948236C8010E94EB
:102C9000A7368E01075C1F4FC80164EA77E00E94E7
:102CA000C635C801B5010E947B3562EB77E00E9412
:102CB0006135BC0189E594E10E940332C8010E949C
:102CC000AB3611E001C010E0CE010F960E94A7368E
:102CD000CE0109960E94A736CE0103960E94A73620
:102CE000812FCD5BDF4F0FB6F894DEBF0FBECDBF97
:102CF000CF91DF911F910F91FF90EF90DF90CF90D8
:102D0000BF90AF909F908F907F906F905F904F900B
:102D10003F902F9008952F923F924F925F926F9223
:102D20007F928F929F92AF92BF92CF92DF92EF925B
:102D3000FF920F931F93DF93CF93CDB7DEB7C754A6
:102D4000D0400FB6F894DEBF0FBECDBF2C015B01A3
:102D500027965FAF4EAF279728962FAF28971A82F6
:102D60001982CE01039660E072E00E94AE3579E0F0
:102D7000272E312C2C0E3D1EC10160E072E00E9416
:102D8000AE356FE0862E912C8C0E9D1EC40160E046
:102D900072E00E94AE3555E1C52ED12CCC0EDD1E61
:102DA000C60127966EAD7FAD27970E949736C20168
:102DB000B601AE014F5F5F4F9E012D5F3F4F810116
:102DC000740141DC182FC6010E94A736112309F4B3
:102DD000EDC08E01055E1F4FC80164EB77E00E94D5
:102DE000C63529813A81C901880F991F820F931F27
:102DF000880F991FF20165817681680F791FC801DC
:102E00000E947B35BC0189E594E10E940332C80130
:102E10000E94AB36C1016DE60E94DF337C01FFEFFB
:102E20008F3F9F0709F4C2C089E594E16FEB77E01B
:102E30000E942F3389E594E1B7014AE050E00E94F7
:102E40001233AAE06A2E712C6E0C7F1C28968FAD6F
:102E50002897882309F498C0F1E2CF2ED12CCC0E0C
:102E6000DD1EC601B40140E050E097010E943D36EE
:102E7000E7E2EE2EF12CEC0EFD1EC701B6010E941A
:102E80009F36C701B5010E947B355C018E01035D51
:102E90001F4F2B893C89C801B401A3010E943D3614
:102EA000C501B8010E947B35BC01C4010E94823675
:102EB000C8010E94A736C7010E94AB36C6010E9416
:102EC000A73689E594E166EC77E00E942F3389E527
:102ED00094E1B4010E94033229813A81C901880F2B
:102EE000991F820F931F880F991FF2010581168188
:102EF000080F191F53E3E52EF12CEC0EFD1EC70140
:102F000027966EAD7FAD27970E949F36C7016CE272
:102F10000E945235B1010E947B356CE20E9452350D
:102F2000BE016D5F7F4F0E947B356CE20E9452357F
:102F3000B4010E947B35BC01C8010E948236C701E2
:102F40000E94AB368E01075C1F4FC80167ED77E02A
:102F50000E94C63529813A81C901880F991F820FC5
:102F6000931F880F991FF20165817681680F791F81
:102F7000C8010E947B35BC0189E594E10E940332BF
:102F8000C8010E94AB3610C08E01015C1F4FC80102
:102F9000B401A70193010E943D36C501B8010E940A
:102FA0008236C8010E94A73611E001C010E0CE01B0
:102FB0000F960E94A736CE0109960E94A736CE0131
:102FC00003960E94A736812FC95BDF4F0FB6F89496
:102FD000DEBF0FBECDBFCF91DF911F910F91FF904C
:102FE000EF90DF90CF90BF90AF909F908F907F90A9
:102FF0006F905F904F903F902F9008950F931F9385
:10300000CF93DF938B01EA01C801BE010E944233D6
:10301000FC018081803221F0D7FD02C02197F4CFDE
:10302000CE01DF91CF911F910F9108950F931F93C0
:10303000CF93DF938B01EA01C801BE010E944233A6
:10304000FC018081803221F4D7FD02C02197F4CFAA
:10305000CE01DF91CF911F910F9108950F931F9390
:10306000CF93DF938B01EA01C801BE010E94423376
:10307000FC018081803249F4F801848195810196B8
:10308000C817D90710F42196EFCFCE01DF91CF9169
:103090001F910F9108952F923F924F925F926F92DE
:1030A0007F928F929F92AF92BF92CF92DF92EF92D8
:1030B000FF920F931F93DF93CF93CDB7DEB7C25428
:1030C000D0400FB6F894DEBF0FBECDBF3C015B0110
:1030D000CE01019660E072E00E94AE35C5016CE25F
:1030E0000E94DF337C018E01095F1F4FC801B501CB
:1030F00040E050E097010E943D36C301C496B801FC
:103100000E948236C8010E94A7360894E11CF11C77
:10311000C5016CE2A7010E94C1336C010CE1202EB5
:10312000312C260C371C8E01035F1F4FC801B501DF
:10313000A70196010E943D36C101B8010E94823666
:10314000C8010E94A7360894C11CD11CC5016CE2BD
:10315000A6010E94C1337C011AE3812E912C860CBA
:10316000971C8E010D5E1F4FC801B501A601970186
:103170000E943D36C401B8010E948236C8010E94F7
:10318000A736BAE04B2E512C460C571CAFE1CA2E85
:10319000D12CCC0EDD1EC60162EE77E00E94C63552
:1031A0008E01075E1F4F0894E11CF11CF50124817C
:1031B0003581C801B501A7010E943D36C601B8019D
:1031C0000E947B35BC01C2010E948236C8010E9468
:1031D000A736C6010E94AB36F3018685978595A375
:1031E00084A3C2016BEF77E00E9424358E010B5D52
:1031F0001F4FC801B2010E949736C301B80140E0D9
:1032000050E02CDFF30193A382A3C8010E94A736EC
:10321000F30182A193A197A386A38EE69BE060E1D0
:1032200042E020E00E94DE258EE69BE00E94D92548
:103230008EE69BE060E040E00E94AB258EE69BE0DE
:10324000B4010E94D1318EE69BE060E041E00E9433
:10325000AB25F30184A195A122A133A1821B930B7D
:1032600026A137A140970CF1FBE2EF2EF12CEC0EDA
:10327000FD1EC701B201A901215F3F4F0E943D36EB
:103280008E010F5C1F4FC801B7010E949F36C80115
:103290006EE30E945235BC018EE69BE00E94D13164
:1032A000C8010E94AB36C70110C08E01095C1F4FD8
:1032B000C801B201A901205F3F4F0E943D368EE652
:1032C0009BE0B8010E94D131C8010E94A736C1011C
:1032D00060E178E00E94E233882319F081E090E019
:1032E00009C0C1016EE877E00E94E233882351F003
:1032F00083E090E0F30190878783C30160E00E9440
:103300001F104CC082E090E0F30190878783C301D7
:1033100061E00E941F10EDE34E2E512C4C0E5D1EFD
:1033200006C0F30186A197A1019697A386A3F30196
:1033300026A137A182A193A1281B390BC201B1019B
:10334000A9012F5F3F4F0E943D36C20163EB76E03B
:103350000E94E233882311F400E00BC000E0F30187
:1033600082A193A10E9626A137A1821793070CF094
:1033700001E0C2010E94A736002399F6F30181857E
:1033800093012A5E3F4F882321F0C90163EB76E069
:1033900003C0C90165E178E00E94DE35CE010196E7
:1033A0000E94A736CE5BDF4F0FB6F894DEBF0FBE8C
:1033B000CDBFCF91DF911F910F91FF90EF90DF90E4
:1033C000CF90BF90AF909F908F907F906F905F90C5
:1033D0004F903F902F9008958F929F92AF92BF92FF
:1033E000CF92DF92EF92FF920F931F93DF93CF93D1
:1033F000CDB7DEB7CC5FD0400FB6F894DEBF0FBEBE
:10340000CDBF5C01DC01DC90B1E0DB1609F046C603
:10341000FC01878190858230910509F427C28330B1
:10342000910509F436C4019709F038C6D50196967E
:103430008D909C9097978091010C9091020C833015
:10344000910509F4EDC18430910544F48130910572
:1034500009F4A8C1029709F021C6C4C084309105BF
:1034600009F4EDC1059709F019C6EAE0CE2ED12C7A
:10347000CA0CDB1C8E010F5F1F4FC801B6010E94F2
:103480009736F50146A157A1C80160E20E94C133F9
:10349000D50197969C938E939697C8010E94A73664
:1034A000F50126A137A184A195A1281739071CF0A1
:1034B00097A286A2F3C58E01095F1F4FC801B6010E
:1034C0000E949736D50196964D915C919797C501CC
:1034D000B801C4DDF50197A386A3C8010E94A736F1
:1034E0008EE69BE060E142E020E00E94DE258EE671
:1034F0009BE00E94D9258EE69BE060E040E00E94C0
:10350000AB25B501665C7F4F8EE69BE00E94D13112
:103510008EE69BE060E041E00E94AB25D5019696E7
:103520002D913C919797F901709694968D919C916D
:10353000959792964D915C919397E817F9071CF532
:103540004217530784F473E1E72EF12CEC0EFD1EB5
:10355000C7016CE30E942536F50126A137A18E0133
:10356000035F1F4FDCC069E1E62EF12CEC0EFD1E5F
:10357000C701B601A901215F3F4F0E943D368E0170
:10358000015E1F4F69C04217530744F55BE2E52E09
:10359000F12CEC0EFD1EC7016CE30E942536D5010F
:1035A00096962D913C9197978E010B5D1F4FC80108
:1035B000B601A901215F3F4F0E943D36C701B80106
:1035C0000E947B35BC018EE69BE00E94D131C80190
:1035D0000E94A736C7010E94AB3660C58E010F5C02
:1035E0001F4FD4C08EE69BE060E142E020E00E94E5
:1035F000DE258EE69BE00E94D9258EE69BE060E00A
:1036000040E00E94AB25B501665C7F4F8EE69BE0F3
:103610000E94D1318EE69BE060E041E00E94AB2544
:10362000F50126A137A182A193A14AE0C42ED12C95
:10363000CA0CDB1C821793070CF107E3E02EF12C78
:10364000EC0EFD1EC701B601A901215F3F4F0E948C
:103650003D368E01035C1F4FC801B7010E949F36A3
:10366000C8016EE30E945235BC018EE69BE00E94C9
:10367000D131C8010E94AB36C701FAC48E010D5B7F
:103680001F4FC801B6010E949736D50196964D91FD
:103690005C91979741505040C501B801C7DCF501D6
:1036A00097A386A3C8010E94A7368E01075B1F4F10
:1036B000C801B6010E949736D50196964D915C914E
:1036C0009797C501B8019ADC0196F50197A386A3E7
:1036D000C8010E94A736D50196962D913C919797E7
:1036E000F901709694968D919C91959792964D9133
:1036F0005C919397E817F9078CF542175307F4F498
:1037000015E5E12EF12CEC0EFD1EC7016CE30E94C5
:103710002536F50126A137A18E01015B1F4FC80197
:10372000B601A901225F3F4F0E943D36C701B80193
:103730000E947B356EE30E94523544CFBBE5EB2EF1
:10374000F12CEC0EFD1EC701B601A901215F3F4F10
:103750000E943D368E010F591F4F7ECF42175307EF
:1037600094F4ADE6EA2EF12CEC0EFD1EC7016CE3DD
:103770000E942536D50196962D913C9197978E0102
:1037800009591F4F14CF8E010D581F4FC801B601A4
:10379000A9019F010E943D368EE69BE0B8010E9480
:1037A000D13128C2F50191A680A6FAE0EF2EF12CC6
:1037B000EA0CFB1C8E0107581F4FC801B7010E947D
:1037C0009736D50196964D915C919797C80160E226
:1037D0000E94C133F50193A782A7C8010E94A736B2
:1037E0008E0101581F4FD50198964D915C91999784
:1037F0009A962D913C919B97C801B7010E943D3646
:10380000C501805C9F4FB8010E948236C8010E94AA
:10381000A736E6E4F0E0AE0EBF1ED501DC923EC452
:10382000F501238134812115310509F437C4215074
:103830003040348323838E010B571F4FCAC1D501FB
:1038400013962D913C91149711968D919C911297FE
:103850002817390709F422C42F5F3F4F14963C9371
:103860002E9313978E0105571F4F68C10091010CCD
:103870001091020C05301105E1F5F50126A137A1E3
:1038800082A193A10E968217930724F02F5F3F4FDA
:1038900037A326A38501045E1F4FD50196966D912F
:1038A0007C91979792968D919C919397681B790B39
:1038B000C8010E944233FC0180818D3209F0DBC3D4
:1038C000F50126A137A182A193A10E968217930735
:1038D0000CF4D1C32F5F3F4F37A326A3DECF215077
:1038E0003040240F351FD50197963C932E93969721
:1038F000D5C3F50166A177A142A153A102301105FC
:1039000059F54617570724F46150704077A366A312
:103910008501045E1F4FD50196966D917C91979716
:1039200092968D919C919397681B790BC8010E9488
:103930004233FC0180818D3209F0B0C3F50126A12C
:1039400037A182A193A1821793070CF0A7C321503E
:10395000304037A326A3DFCFECE18E2E912C8A0CCA
:103960009B1C641B750BC4010E944233FC01E08167
:10397000ED3621F5D50119968C91882309F08EC377
:103980000330110529F00430110509F035C10BC0D1
:1039900089E594E167E178E00E943133C50161E097
:1039A0000E94C71129C1C50160E00E94C71189E5C5
:1039B00094E164E278E00E9431331EC1E436A9F458
:1039C000F5018185882309F069C30330110529F0C9
:1039D0000430110509F010C103C0C50161E002C047
:1039E000C50160E00E942C0F07C1E937B1F4D50191
:1039F00019968C91882309F051C30330110529F0E1
:103A00000430110509F0F8C003C0C50161E002C02F
:103A1000C50160E00E94620EEFC0E136A9F4F50135
:103A20008185882309F03AC30330110529F0043059
:103A3000110509F0E1C003C0C50161E002C0C50184
:103A400060E00E947E0DD8C0E834B1F4D50119962B
:103A50008C91882309F022C30330110529F004302A
:103A6000110509F0C9C003C0C50161E002C0C5016C
:103A700060E00E94B40CC0C0ED34A9F4F50181856A
:103A8000882309F00BC30330110529F00430110518
:103A900009F0B2C003C0C50161E002C0C50160E029
:103AA0000E94EA0BA9C0E332B1F4D50119968C91BA
:103AB000882309F0F3C20330110529F00430110501
:103AC00009F09AC003C0C50161E002C0C50160E011
:103AD0000E94200B91C0E334A9F4F501818588236D
:103AE00009F0DCC20330110529F00430110509F09A
:103AF00083C003C0C50161E002C0C50160E00E944F
:103B00003C0A7AC0E535B9F50330110529F00430D7
:103B1000110509F0C3C21EC0D50113962D913C9129
:103B200014972115310509F4B9C22150304014967B
:103B30003C932E9313978E010F561F4FC901880F88
:103B4000991F820F931F880F991F15966D917C9175
:103B5000169748C0F501238134818181928128170D
:103B6000390709F49BC22F5F3F4F348323838E01B3
:103B700009561F4F2EC0E43409F090C203301105DE
:103B800029F00430110509F089C213C0D50113963C
:103B90002D913C9114972115310509F47FC22150D4
:103BA000304014963C932E9313978E0103561F4F6B
:103BB000C5CFF5012381348181819281281739078E
:103BC00009F46CC22F5F3F4F348323838E010D5560
:103BD0001F4FC901880F991F820F931F880F991FCC
:103BE00065817681680F791FC8010E949736C501EB
:103BF000B80151DAC8013CC27FEAC72ED12CCC0EE5
:103C0000DD1EB501665F7F4FC6010E949736C60173
:103C10000E946833D50113962D913C911497C901E8
:103C2000880F991F820F931F880F991F15960D916A
:103C30001C911697080F191F49EAE42EF12CEC0E7F
:103C4000FD1EE4E3F0E0AE0EBF1EC701B5010E9409
:103C50009F36C7016CE20E945235B4010E947B3549
:103C60006CE20E94523526E030E0A20EB31EB50190
:103C70000E947B356CE20E945235B6010E947B3572
:103C8000BC01C8010E948236C7010E94AB36C60142
:103C9000EFC13FEA832E912C8C0E9D1EC40160E083
:103CA00072E00E94AE358091010C9091020C83303D
:103CB000910509F49AC18430910524F4029709F022
:103CC000D4C128C18430910509F4ACC1059709F02D
:103CD000CCC1D50196968D919C91979740969796D9
:103CE0009C938E93969794962D913C919597281737
:103CF000390724F497963C932E9396972AE0C22E88
:103D0000D12CCA0CDB1CF50166A177A1C6010E946B
:103D10004233FC0180818032D1F0D50196966D91BD
:103D20007C919797C6010E944233FC0180818032CA
:103D300009F43FC0F50126A137A182A193A1821702
:103D40009307BCF52150304037A326A3E6CFD50119
:103D500096966D917C919797C6010E944233FC0123
:103D60008081803269F4F50126A137A182A193A157
:103D7000821793072CF42150304037A326A3E7CFB6
:103D8000D50196966D917C919797C6010E9442331A
:103D9000FC018081803269F0F50126A137A182A162
:103DA00093A1821793072CF42150304037A326A308
:103DB000E7CFD50196962D913C91979792968D914C
:103DC0009C91939794964D915C91959728173907FC
:103DD000D9F5F90170969FEA892E912C8C0E9D1EC3
:103DE000E417F50704F585EBE82EF12CEC0EFD1E2B
:103DF000C701B601A901215F3F4F0E943D368E01E8
:103E000005541F4FC801B7010E949F36C8016EE3D9
:103E10000E945235BC01C4010E948236C8010E9432
:103E2000AB36C7010EC08E010F531F4FC801B6013C
:103E3000A9019F010E943D36C401B8010E9482364B
:103E4000C8010E94A73653C02F5F3F4FF50137A32B
:103E500026A3205F3F4F0FEA802E912C8C0E9D1ED3
:103E60002417350704F51DECE12EF12CEC0EFD1E98
:103E7000C7016CE30E942536D50196962D913C91A1
:103E800097978E0109531F4FC801B601A901225F00
:103E90003F4F0E943D36C701B8010E947B356EE35B
:103EA0000E9452351AC0B9EDEB2EF12CEC0EFD1E1E
:103EB000C7016CE30E942536F50126A137A18E01CA
:103EC0000D521F4FC801B601A901215F3F4F0E944B
:103ED0003D36C701B8010E947B35BC01C4010E9478
:103EE0008236C8010E94A736C7010E94AB368EE613
:103EF0009BE060E142E020E061D68EE69BE059D68F
:103F00008EE69BE060E040E026D62AE330E0A20E99
:103F1000B31E59C0D50192962D913C9193979796D7
:103F20003C932E939697F901709694968D919C915F
:103F30009597AAE0CA2ED12CCA0CDB1CE817F9070A
:103F400004F57FEDE72EF12CEC0EFD1EC701B60146
:103F5000A901215F3F4F0E943D368E010B511F4F3B
:103F6000C801B7010E949F36C8016EE30E94523516
:103F7000BC01C4010E948236C8010E94AB36C70151
:103F80000EC08E0105511F4FC801B601A9019F0146
:103F90000E943D36C401B8010E948236C8010E94C9
:103FA000A7368EE69BE060E142E020E007D68EE691
:103FB0009BE0FFD58EE69BE060E040E0CCD5EAE3F5
:103FC000F0E0AE0EBF1E8EE69BE0B5010E94D1313F
:103FD0008EE69BE060E041E0BED58EE69BE0BE0150
:103FE00061557F4F0E94D13140C0D50113962D916C
:103FF0003C91149721153105C1F1215030401496A0
:104000003C932E9313978E010F501F4FC901880FB9
:10401000991F820F931F880F991F15966D917C91A0
:10402000169718C0F5012381348181819281281768
:104030003907D9F02F5F3F4F348323838E01095016
:104040001F4FC901880F991F820F931F880F991F57
:1040500065817681680F791FC8010E949736C50176
:10406000B80119D8C8010E94A736CE0181559F4FCB
:104070000E94A73613C0D50192964D915C919397FB
:1040800090962D913C91919796968D919C919797B2
:10409000841B950B8217930708F021CCC450DF4F87
:1040A0000FB6F894DEBF0FBECDBFCF91DF911F9149
:1040B0000F91FF90EF90DF90CF90BF90AF909F90C7
:1040C0008F900895BF92CF92DF92EF92FF920F935D
:1040D0001F93DF93CF9300D000D0CDB7DEB77C0124
:1040E000B62E6901FC01168305838E96BA010E94E3
:1040F0008236F70114821382F1E0CF16D10419F051
:104100000894C108D108F701D282C182F701B186B3
:1041100086E490E0E80EF91EF70110828AEB9FEF2B
:10412000E80EF91EF701658176818E010F5F1F4F42
:10413000C8010E949736C701B8010E944B18C801F8
:104140000E94A73626960FB6F894DEBF0FBECDBFED
:10415000CF91DF911F910F91FF90EF90DF90CF9063
:10416000BF900895EF92FF920F931F93DF93CF9329
:10417000CDB7DEB7C059D0400FB6F894DEBF0FBE42
:10418000CDBF80EB9AE054D68091FE0B813061F474
:104190001092FE0B6091010C7091020C611571057B
:1041A00019F089E09CE018D980914F0C813009F01A
:1041B0003AC287E39CE063E378E00E94E23388231D
:1041C00009F49FC08DE39CE06BE378E00E94E2334A
:1041D000882309F488C089E49CE061E478E00E94C7
:1041E000E233882309F45CC07E010894E11CF11CD1
:1041F000C70165E478E00E94AE3589E09CE060E0AC
:10420000A70125E030E006EB1BE05CDFC7010E9460
:10421000A7368E01095F1F4FC8016FE478E00E9446
:10422000AE3589E09CE060E97BE0A80121E00E94D6
:104230008B16C8010E94A7364DE0E42EF12CEC0E3F
:10424000FD1EC7016AE87BE040E050E025E030E079
:104250000E943D368E010D5E1F4FC80164E578E077
:104260000E94AE3589E09CE0B701A80121E00E94E0
:104270003F15C8010E94A736C7010E94A7368E01CC
:10428000075E1F4FC80169E578E00E94AE3589E0FE
:104290009CE066E97BE0A80121E00E943014C0C1E7
:1042A00089E49CE06DE578E00E94E233882329F000
:1042B00089E594E169E678E00CC089E49CE067E870
:1042C00078E00E94E233882339F089E594E163E9DC
:1042D00078E00E943133A7C18E01015E1F4FC801F3
:1042E00061EB78E098C18E010B5D1F4FC8016FEE46
:1042F00078E00E94AE35C8010E947E08C8010E9485
:10430000A73687E39CE065E478E00E94E2338823E7
:1043100009F47BC189E594E16DE37CE00E940332FE
:104320008DE39CE066E279E00E94E233882309F4A1
:1043300049C189E49CE06DE279E00E94E233882380
:1043400009F416C189E594E164E379E00E94313310
:10435000CE018B9660E072E00E94AE3531E3E32E31
:10436000F12CEC0EFD1EC70160E072E00E94AE353C
:104370008E01095C1F4FC8016FE478E00E94AE35E2
:1043800089E09CE060E97BE0A80120E00E948B16B8
:10439000C8010E94A7368E01035C1F4FC80160E967
:1043A0007BE040E050E021E030E00E943D36C70174
:1043B000B8010E948236C8010E94A736C7010E9438
:1043C00057336093880B8E010D5B1F4F2091940B28
:1043D0003091950BC80160E97BE044E050E00E9419
:1043E0003D36C701B8010E948236C8010E94A73637
:1043F0008E01075B1F4FC8016DE479E00E94C6354E
:10440000C801B7010E947B35BC0189E594E10E9497
:104410000332C8010E94AB36C7010E945733609334
:10442000870B8E01015B1F4F2091940B3091950BF0
:10443000C80160E97BE049E050E00E943D36C701D9
:10444000B8010E948236C8010E94A736C7010E94A7
:104450005733625B6093890B8E010B5A1F4FC80163
:1044600064E578E00E94AE3589E09CE06AE87BE094
:10447000A80121E00E943F15C8010E94A7368E01C5
:10448000055A1F4FC8016AE87BE040E050E021E098
:1044900030E00E943D36C701B8010E948236C80153
:1044A0000E94A736C7010E9457336093850B8E0187
:1044B0000F591F4FC8016AE87BE043E050E024E059
:1044C00030E00E943D36C701B8010E948236C80123
:1044D0000E94A736C7010E9457336093840B109245
:1044E000830B8E0109591F4FC80169E578E00E94CE
:1044F000AE3589E09CE066E97BE0A80121E00E94FE
:104500003014C8010E94A73600E010E0C801880FEF
:10451000991F800F911F880F991F8E5B9E4E66E931
:104520007BE00E943834882329F40F5F1F4F073047
:10453000110561F70F5F1F4F0093870B83E89BE026
:104540007CD1882371F48E0103591F4FC8016EE599
:1045500079E00E94AE35C8010E947E08C8010E9421
:10456000A736CE01C1960E94A736CE018B9636C0E3
:1045700089E49CE06FE679E00E94E2338823D9F079
:1045800089E594E166E779E00E943133A3E7EA2EFA
:10459000F12CEC0EFD1EC70163E378E00E94AE35FE
:1045A00089E09CE061E0A70124E030E00EE91BE037
:1045B00089DDC70113C08E0107581F4FC8016FE87E
:1045C00079E006C08E0101581F4FC80162ED79E005
:1045D0000E94AE35C8010E947E08C8010E94A7361D
:1045E000F5E8EF2EF12CEC0EFD1EC70163E378E039
:1045F0000E94AE3589E09CE061E0A70124E030E054
:104600000EE91BE05FDDC7010CC08E0105571F4F8F
:10461000C80168E07AE00E94AE35C8010E947E08B9
:10462000C8010E94A73610924F0CC057DF4F0FB63B
:10463000F894DEBF0FBECDBFCF91DF911F910F91D8
:10464000FF90EF900895EF92FF920F931F93DF93E7
:10465000CF93CDB7DEB7A4970FB6F894DEBF0FBEE9
:10466000CDBFCE01019660E072E00E94AE3589E5D3
:1046700094E140E855E260E070E00E942F2FCE0107
:10468000079660E37AE00E94AE35CE010D966BE3AB
:104690007AE00E94AE35CE01439666E47AE00E944D
:1046A000AE3581E00E94D71081E00E94F80F81E0D2
:1046B0008093090C59E1E52EF12CEC0EFD1EC7018B
:1046C00063E378E00E94AE3589E09CE061E0A701F9
:1046D00024E030E00EE91BE0F5DCC7010E94A736BC
:1046E00089E08093880B87E08093870B8DE280932D
:1046F000890B80E18093850B8FE08093840B8BE1A5
:104700008093830B82E08093860B83E89BE095D0B7
:10471000882371F48E01015E1F4FC8016EE579E0B8
:104720000E94AE35C8010E947E08C8010E94A736CB
:1047300089E594E163E57AE00E942F3389E594E10D
:104740006091850B4AE050E00E94B13289E594E126
:104750006AE30E94223089E594E16091840B4AE08B
:1047600050E00E94B13289E594E16AE30E94223070
:1047700089E594E16091830B4AE050E00E94B132F8
:1047800089E594E165E67AE00E942F3389E594E1BA
:104790006091870B4AE050E00E94B13289E594E1D4
:1047A0006FE20E94223089E594E16091880B4AE033
:1047B00050E00E94B13289E594E16FE20E9422301C
:1047C0006091890B70E06E54784F89E594E14AE07E
:1047D00050E00E94003389E594E10E94E331CE016C
:1047E00043960E94A736CE010D960E94A736CE01B1
:1047F00007960E94A736CE0101960E94A736A4967E
:104800000FB6F894DEBF0FBECDBFCF91DF911F91E1
:104810000F91FF90EF900895482F6AE00E94E038D2
:10482000282F30E084E0220F331F8A95E1F7842F90
:104830000E94E038892F820F08950F931F938C01F7
:1048400086EB91E168E670E099D386EB91E160E058
:1048500016D4F8018081E0DF682F86EB91E10FD458
:10486000F8018181D9DF682F86EB91E108D4F80146
:104870008281D2DF682F86EB91E101D4F801838138
:10488000CBDF682F86EB91E1FAD3F8018481C4DF96
:10489000682F86EB91E1F3D3F8018581BDDF682FA6
:1048A00086EB91E1ECD3F80186818E51B5DF682F5C
:1048B00086EB91E1E4D386EB91E122D4882321F0C9
:1048C00010926F1180E003C081E080936F111F91FF
:1048D0000F9108950F931F93CF93DF93EC0186EB15
:1048E00091E168E670E04AD386EB91E160E0C7D3DE
:1048F00086EB91E105D4882319F010926F110FC057
:1049000081E080936F1186EB91E168E670E047E00B
:1049100050E004D486EB91E13BD3079714F480E098
:104920005EC086EB91E13DD3082F8F7782958F7023
:104930001AE0819FC0011124202F2F70280F288397
:1049400086EB91E12ED3282F22952F70219F900185
:1049500011248F70820F898386EB91E122D3282F57
:104960002F7322952F70219F900111248F70820F39
:104970008A8386EB91E115D3282F22952F70219FF2
:10498000900111248F70820F8B8386EB91E109D304
:10499000282F22952F70219F900111248F70820F54
:1049A0008C8386EB91E1FDD2282F22952F70219FD9
:1049B000900111248F70820F8D8386EB91E1F1D2EB
:1049C000282F2F70225E82958F70819FC001112445
:1049D000280F2E83802F8095881F8827881FDF91BE
:1049E000CF911F910F91089586EB91E199C30F9399
:1049F0001F938C01FC01868160E0AED781E090E0DE
:104A000058D6F801868161E0A7D781E090E051D6C1
:104A1000F801868160E0A0D784E690E04AD61F9135
:104A20000F910895CF92DF92EF92FF920F931F9311
:104A3000CF93DF93D82EC92E282F392FC9018C018F
:104A4000C0E0D0E0E62EFF24F801878161E0D1D6F6
:104A5000B7010C2E02C0759567950A94E2F7617054
:104A6000F801878179D721960F5F1F4FC830D10594
:104A700059F78D2D9C2DBBDFDF91CF911F910F91A9
:104A8000FF90EF90DF90CF900895CF92DF92EF925A
:104A9000FF920F931F93CF93DF93D82EC92E282F09
:104AA000392FC9018C01C0E0D0E0E62EFF24F801C7
:104AB000878161E09ED6B7010C2E02C0759567957F
:104AC0000A94E2F76170F801878146D721960F5F5B
:104AD0001F4FC430D10559F78D2D9C2D88DFDF91F4
:104AE000CF911F910F91FF90EF90DF90CF9008959D
:104AF0001F93CF93DF93EC01162F8C81642F2CD75B
:104B00008D818F3F11F060E027D78F8584FF04C02F
:104B1000CE01612F87DF0CC0612F70E084E07595B6
:104B200067958A95E1F7CE01B0DFCE01612FADDF49
:104B3000DF91CF911F91089541E0DADF81E090E0AD
:104B4000089540E0D5CFFC016089862F8460808B7A
:104B50006C60CF01F6CFDF93CF93CDB7DEB7289748
:104B60000FB6F894DEBF0FBECDBF9C01FE0131969B
:104B7000A8E8BAE088E00D9001928150E1F7F901D0
:104B80008389481710F0482F4150E42FF0E0EE0FD2
:104B9000FF1FEC0FFD1F8181680F6068C901D1DF25
:104BA00028960FB6F894DEBF0FBECDBFCF91DF9130
:104BB000089561E0C6DF80ED97E07BC5CF93DF937A
:104BC000EC01423018F08F8588608F874B8B1C8AF0
:104BD000222329F0413019F48F8584608F8780E586
:104BE00093EC67D58C8160E0B7D68E8160E0B4D657
:104BF0008D818F3F11F060E0AFD66F8564FD16C0E8
:104C0000CE0163E042DF84E991E153D5CE0163E058
:104C10003CDF84E991E14DD5CE0163E036DF86E9E2
:104C200090E047D5CE0162E030DF11C06062CE0176
:104C300088DF84E991E13DD56F856062CE0181DF37
:104C400086E990E036D56F856062CE017ADF6F85A8
:104C50006062CE0176DF84E0888BCE0174DFCE0106
:104C6000A8DF82E0898BCE0166E06BDFDF91CF9118
:104C700008956F927F928F92AF92CF92EF920F939F
:104C80001F93DF93CF93CDB7DEB73C01162F842F50
:104C9000F301448325830683E782C086A18682864A
:104CA0009E8593879F85948798899587998996870C
:104CB00061E09FD5F30185818F3F11F061E099D5C7
:104CC000F301868161E095D5112319F0F301178670
:104CD00003C080E1F3018787C30160E141E020E088
:104CE0006DDFCF91DF911F910F91EF90CF90AF903B
:104CF0008F907F906F9008958F92AF92CF92EF92A6
:104D00000F931F93CF93DF93DC01362F542F722F15
:104D1000102FAE2C8C2C13961C921E92129784E8A6
:104D20009AE011969C938E9300D00F92EDB7FEB748
:104D30003196CDB7DEB71982118212821382CD016E
:104D400061E0432F2FEF052FE72EC12E92DF0F904A
:104D50000F900F900F90DF91CF911F910F91EF90D7
:104D6000CF90AF908F900895FC0110820895EF923C
:104D7000FF920F931F93CF93DF93EC018CD47B01B1
:104D80008C018B859C85AD85BE85A8019701281B6C
:104D9000390B4A0B5B0B89819A81AB81BC81281747
:104DA00039074A075B07E8F08881813019F08230C3
:104DB00079F406C0E985FA8589899A89199508C028
:104DC00060E08885882309F461E068878F81C4D515
:104DD000EB86FC860D871E878F8598890196988BB8
:104DE0008F872D813E8137FD06C08F859889821778
:104DF00093070CF01882DF91CF911F910F91FF90D4
:104E0000EF900895AC016A3088F4262F332727FDF0
:104E1000309583E190E0289FF001299FF00D389FA5
:104E2000F00D1124E40FF51F10826EEF862F089508
:104E3000CF92DF92EF92FF920F931F93CF93DF9366
:104E40007C018C01C0E0D0E083E1C82ED12CF801B8
:104E50008081882351F0CC9DC001CD9D900DDC9DBB
:104E6000900D11248E0D9F1D82DF21960D5E1F4F28
:104E7000CA30D10561F7DF91CF911F910F91FF905B
:104E8000EF90DF90CF900895AF92BF92CF92DF92D4
:104E9000EF92FF920F931F93CF93DF93DC01690191
:104EA000E8015701FC01FF248081882341F0F3943D
:104EB00073968AE0F816C1F7FF24FA9424C02F2DC8
:104EC000332727FD309583E190E0289F8001299FBB
:104ED000100D389F100D11240A0F1B1F81E0F801DF
:104EE00080834183528363837483D683C583D28650
:104EF000C186D1D3F8016387748785879687108A26
:104F00001786B28AA18A8F2DDF91CF911F910F91C1
:104F1000FF90EF90DF90CF90BF90AF900895EF9209
:104F2000FF920F931F93780101E010E0ADDF1F9116
:104F30000F91FF90EF900895EF92FF920F931F93C0
:104F400078010FEF1FEFA0DF1F910F91FF90EF90FF
:104F500008950F931F93CF93DF93EC0100E010E0CF
:104F6000CE01800F911F00DF0D5E1F4F0E3B11051C
:104F7000B9F7DF91CF911F910F91089581E0809350
:104F8000B511609392111092B3111092B41108955B
:104F90002091911130E080919011281B3109C901B5
:104FA00008954091901180919111481718F02FEFBA
:104FB0003FEF0AC0E42FF0E0E059FE4E8081282F39
:104FC00030E04F5F40939011C9010895E091901136
:104FD00080919111E81718F0EFEFFFEF06C0F0E0B5
:104FE000E059FE4E8081E82FF0E0CF01089508954A
:104FF0001092B9111092B81188EE93E0A0E0B0E0E1
:105000008093BA119093BB11A093BC11B093BD11C2
:1050100084E99AE09093B7118093B6110895CF92E6
:10502000DF92EF92FF920F931F93CF93DF937C0158
:105030006B018A018091B5118823A1F0C0E0D0E016
:105040000DC0D701ED91FC91D601AC0FBD1F0190B1
:10505000F081E02DC7016C9119952196C017D107F9
:1050600080F303C0CB01642F02D1C801DF91CF913F
:105070001F910F91FF90EF90DF90CF900895DF93F5
:10508000CF930F92CDB7DEB7FC0169838091B51144
:105090008823C9F08091B411803238F081E090E02B
:1050A0009383828320E030E014C08091B311E82F15
:1050B000F0E0ED56FE4E998190838F5F8093B3119F
:1050C0008093B41104C0CE01019661E0D0D021E0FC
:1050D00030E0C9010F90CF91DF9108950F93062F13
:1050E0008091921163E971E14091B41121E06AD09D
:1050F0001092B3111092B4111092B5110F9108953E
:1051000061E0ECCF413208F040E2862F60E771E1C8
:1051100010D01092901180939111089521E0F2CF58
:1051200010929011109291111092B3111092B4112B
:105130004EC2382F413210F040E042C08091C2117F
:105140008823E1F791E09093C2112093C4118FEF6F
:1051500080932F121092EA1141504093EB114F5F50
:105160009093C3118091C311330F832B8093C3118C
:105170008091C511813041F41092C5118091C31105
:105180008093BB0085EC01C085EE8093BC008091CC
:10519000C2118130E1F38091EA11841710F440913B
:1051A000EA1120E030E00AC0FB01E20FF31FD90151
:1051B000A653BE4E8C9180832F5F3F4F2417A0F3E0
:1051C000842F08950F931F93582F122F413210F000
:1051D00081E04AC08091C2118823E1F782E0809388
:1051E000C2110093C4118FEF80932F121092EA1115
:1051F0004093EB11AAECB1E1FB0102C081918D93C8
:105200008E2F861B8417D0F31092C3118091C31187
:10521000550F852B8093C3118091C511813041F4C6
:105220001092C5118091C3118093BB0085EC01C021
:1052300085EE8093BC00112321F08091C211823051
:10524000E1F380912F128F3F11F480E00DC0809127
:105250002F12803211F482E007C080912F12803328
:1052600011F084E001C083E01F910F910895482F51
:10527000613210F081E008958091C211843011F004
:1052800082E0089560930D12ACEEB1E1842F9C0191
:10529000F90102C081918D938E2F841B8617D0F364
:1052A00080E008951F920F920FB60F920BB60F92E7
:1052B00011242F933F934F935F936F937F938F931B
:1052C0009F93AF93BF93EF93FF938091B90090E0CA
:1052D000887F90708036910509F4F2C0813691057F
:1052E000CCF58832910509F47BC089329105B4F47C
:1052F0008031910509F46FC0813191053CF400972C
:1053000009F447C1089709F04FC165C0883191057C
:1053100009F466C0809709F047C182C080349105C6
:1053200009F4A4C08134910544F48033910509F453
:1053300082C0C89709F038C189C08035910509F449
:1053400089C08835910509F496C08834910509F023
:105350002BC1AEC08839910509F413C18939910573
:10536000ECF48837910509F4ABC0893791054CF40A
:105370008836910509F4A4C08037910509F014C15D
:105380009FC08838910509F4FCC08039910509F463
:105390009DC08038910509F007C198C0803B9105F8
:1053A00009F4C6C0813B91054CF4803A910509F49B
:1053B0009FC0883A910509F0F7C0BAC0803C9105BA
:1053C00009F4E3C0883C910509F4DFC0883B9105EE
:1053D00009F0EAC0C2C08091C3118093BB00CFC066
:1053E0009091EA118091EB11981768F49091EA116D
:1053F000E92FF0E0E653FE4E80818093BB009F5F73
:105400009093EA11BCC08091C411882309F44BC069
:1054100085ED8093BC008091BC0084FDFCCFC2C0B0
:1054200080E280932F1285ED8093BC008091BC00B8
:1054300084FDFCCFB7C080E380932F1285ED80936D
:10544000BC008091BC0084FDFCCFACC088E380939D
:105450002F129BC08091EA119091BB00E82FF0E0E1
:10546000E653FE4E90838F5F8093EA119091EA118C
:105470008091EB1182C08091EA119091BB00E82FDE
:10548000F0E0E653FE4E90838F5F8093EA118091A7
:10549000C411882341F085ED8093BC008091BC004D
:1054A00084FDFCCF7FC081E08093C51184EA6EC08B
:1054B00085ED8093BC008091BC0084FDFCCF72C060
:1054C00083E08093C21110922E1259C080912E1247
:1054D000803208F056C080912E129091BB00E82FC8
:1054E000F0E0E25FFD4E90838F5F80932E1247C005
:1054F00080912E12803230F4E0912E12F0E0E25FC3
:10550000FD4E108285ED8093BC008091BC0084FD2F
:10551000FCCF1092C21160912E12E091C811F0914F
:10552000C9118EE092E170E0199510922E122DC0F3
:1055300084E08093C21110920C1210920D12E0912F
:10554000C611F091C711199580910D12882329F485
:1055500081E080930D121092EC1190910C12E92FC2
:10556000F0E0E451FE4E80818093BB009F5F9093FA
:105570000C1290910C1280910D12981710F485EC7A
:1055800001C085E88093BC000FC085EC8093BC000F
:1055900009C010922F1285ED8093BC008091BC0051
:1055A00084FDFCCF1092C211FF91EF91BF91AF919A
:1055B0009F918F917F916F915F914F913F912F912B
:1055C0000F900BBE0F900FBE0F901F90189510926A
:1055D000C21181E08093C4111092C51184E161E091
:1055E000BBD185E161E0B8D1E9EBF0E080818E7F4D
:1055F000808380818D7F808388E48093B80085E4F8
:105600008093BC0008951F920F920FB60F92112441
:105610002F933F938F939F93AF93BF9380913412B7
:1056200090913512A0913612B09137123091381204
:105630000196A11DB11D232F2D5F2D3720F02D5771
:105640000196A11DB11D20933812809334129093BE
:105650003512A0933612B093371280913012909188
:105660003112A0913212B09133120196A11DB11DD9
:105670008093301290933112A0933212B093331270
:10568000BF91AF919F918F913F912F910F900FBE3E
:105690000F901F9018958FB7F89420913412309185
:1056A000351240913612509137128FBFB901CA019D
:1056B0000895019739F0880F991F880F991F029755
:1056C0000197F1F70895789484B5826084BD84B51C
:1056D000816084BD85B5826085BD85B5816085BDED
:1056E000EEE6F0E0808181608083E1E8F0E0108206
:1056F000808182608083808181608083E0E8F0E047
:10570000808181608083E1EBF0E080818460808330
:10571000E0EBF0E0808181608083E1E9F0E080816E
:1057200082608083808181608083E0E9F0E0808115
:1057300081608083E1EAF0E0808182608083808103
:1057400081608083E0EAF0E0808181608083E1E233
:10575000F1E0808182608083808181608083E0E2EB
:10576000F1E0808181608083EAE7F0E080818460FD
:10577000808380818260808380818160808380815A
:10578000806880831092C1000895382F863308F016
:10579000365320917B00832F86958695869590E0E1
:1057A0008170907043E0880F991F4A95E1F7277F39
:1057B000282B20937B0037708091790A8295880F7F
:1057C000880F807C832B80937C0080917A0080649A
:1057D00080937A0080917A0086FDFCCF209178003A
:1057E00040917900942F80E030E0282B392BC901BB
:1057F0000895CF93DF93482F50E0CA0188589E4FF9
:10580000FC0134914E5C5E4FFA018491882369F16A
:1058100090E0880F991FFC01EC51FF4FA591B491C6
:10582000FC01E250FF4FC591D491662351F42FB78C
:10583000F8948C91932F909589238C938881892358
:105840000BC0623061F42FB7F8948C91932F909530
:1058500089238C938881832B88832FBF06C09FB7B1
:10586000F8948C91832B8C939FBFDF91CF910895F7
:10587000893009F449C08A30A0F4843051F1853070
:1058800040F4823079F1833000F5813009F063C053
:1058900026C0873079F1883098F5863009F05BC0F2
:1058A00025C08D3009F442C08E3028F48B30B1F120
:1058B0008C30C0F52DC0803109F442C0813109F42B
:1058C00045C08F3009F047C037C0809180008F7786
:1058D00003C0809180008F7D80938000089584B5FF
:1058E0008F7702C084B58F7D84BD08958091B0000C
:1058F0008F7703C08091B0008F7D8093B0000895B2
:10590000809190008F7707C0809190008F7D03C0B9
:1059100080919000877F8093900008958091A000EF
:105920008F7707C08091A0008F7D03C08091A00079
:10593000877F8093A0000895809120018F7703C016
:10594000809120018F7D8093200108958091200116
:10595000877F809320010895FF920F931F93F62E67
:10596000482F50E0CA0182549E4FFC012491CA0185
:1059700088589E4FFC0114914E5C5E4FFA010491D1
:105980000023C1F0222311F0822F72DFE02FF0E01C
:10599000EE0FFF1FE250FF4FA591B4919FB7F8940F
:1059A000FF2021F48C911095812302C08C91812BD2
:1059B0008C939FBF1F910F91FF90089508951F92A0
:1059C0000F920FB60F920BB60F9211242F933F93A5
:1059D0004F938F939F93EF93FF938091C00082FD2D
:1059E0001DC04091C6002091791230917A122F5F2C
:1059F0003F4F2F73307080917B1290917C1228174B
:105A0000390771F0E0917912F0917A12E75CFD4E5E
:105A1000408330937A122093791202C08091C6009D
:105A2000FF91EF919F918F914F913F912F910F9007
:105A30000BBE0F900FBE0F901F90189508951F92E8
:105A40000F920FB60F920BB60F9211242F933F9324
:105A50004F938F939F93EF93FF938091C80082FDA4
:105A60001DC04091CE0020910113309102132F5F91
:105A70003F4F2F73307080910313909104132817B8
:105A8000390771F0E0910113F0910213EF53FD4ECD
:105A90004083309302132093011302C08091CE0003
:105AA000FF91EF919F918F914F913F912F910F9087
:105AB0000BBE0F900FBE0F901F90189508951F9268
:105AC0000F920FB60F920BB60F9211242F933F93A4
:105AD0004F938F939F93EF93FF938091D00082FD1C
