:10000000B0C10000DBC10000D9C10000D7C10000B1
:10001000D5C10000D3C10000D1C10000CFC1000094
:10002000CDC10000CBC10000C9C10000C7C10000A4
:10003000C5C10000C3C10000C1C10000BFC10000B4
:10004000BDC10000BBC10000B9C10000B7C10000C4
:10005000B5C10000B3C10000B1C100000C948141E2
:10006000ADC100000C9492440C94E645A7C1000079
:10007000A5C10000A3C10000A1C100009FC10000F4
:100080009DC100009BC1000099C1000097C1000004
:100090000C94D2440C94254691C100000C94D03F9E
:1000A0008DC100008BC1000089C1000087C1000024
:1000B00085C1000083C1000081C100007FC1000034
:1000C0007DC100007BC1000079C100000C94124585
:1000D0000C94644673C100000C9452450C94A346E2
:1000E0006DC100005254435F75692D2D3E616374EC
:1000F000696F6E2D2D3E43616E63656C00467265BF
:100100006520536372616D203D005254435F7569F1
:100110002D2D3E616374696F6E2D2D3E7570646187
:100120007465004D61696E5F55492D2D3E536574B0
:1001300055702D2D3E466C6F775F73656E736F72D1
:10014000004D61696E5F55492D2D3E5365745570A4
:100150002D2D3E54656D705F73656E736F72007206
:10016000657475726E65642066726F6D205265618C
:1001700064537472696E67417272617953443D00D1
:1001800063616C6C696E6720526561645374726957
:100190006E67417272617900696E697469616C6938
:1001A0007A6174696F6E20646F6E652E00696E6986
:1001B0007469616C697A6174696F6E206661696CDB
:1001C000656421006572726F7220696E20526561EC
:1001D00064537472696E67417272617953442C2062
:1001E000646964206E6F742066696E642066696C51
:1001F00065206F7220636F756C64206E6F74206F62
:1002000070656E2069742E20534446696C653D000C
:100210006572726F72206F70656E696E67205344ED
:1002200046696C653D007C3C3E5E2B3D3F2F5B5D2F
:100230003B2C2A225C0000002100240027002A0019
:100240002D003000330001010000040107010A0104
:1002500000002200250028002B002E003100340071
:1002600002010000050108010B010000200023002D
:10027000260029002C002F0032000001000003019D
:100280000601090105050505070508080808020219
:1002900002020A0A08080404040401010101010120
:1002A00001010303030303030303040707070C0C03
:1002B0000C0C0C0C0C0C02020202060606060606CA
:1002C00006060B0B0B0B0B0B0B0B0102102020086F
:1002D00008102040102040800201020108040201A1
:1002E0000102040810204080804020100804020110
:1002F0008004020180402010080402010804020169
:1003000001020408102040800102040810204080EF
:100310000000090A02080B0C0D0706030401000087
:1003200000000000000000000000000000000000CD
:1003300000000000000000000000000011100F008D
:1003400000000000000000000000000000000000AD
:100350000000000000005D092E276A2A763E15483D
:10036000580911241FBECFEFD1E2DEBFCDBF00E0A0
:100370000CBF19E0A0E0B2E0EAEAF0EA00E00BBF4F
:1003800002C007900D92AC30B107D9F71BBE15E142
:10039000ACE0B9E001C01D92AD3CB107E1F713E05C
:1003A000C0E6D3E004C02297FE010E943250C63559
:1003B000D107C9F70E944C490C94495021CE1F9394
:1003C000FC0199278827BC01E89411911032E9F3C8
:1003D000193010F01E30C8F31B3249F01D3241F4C1
:1003E000689405C080D0610F711D811D911D119110
:1003F00010531A30B8F33EF490958095709561953E
:100400007F4F8F4F9F4F1F910895FB01DC0104C068
:100410008D910190801921F441505040C8F7881BFC
:10042000990B0895FB01DC0102C001900D9241502F
:100430005040D8F70895FC018191861721F0882358
:10044000D9F7992708953197CF010895FB01DC0171
:100450008D91019080190110D9F3990B0895FB013A
:10046000DC0101900D920020E1F70895FB01DC0111
:100470004150504030F08D910190801919F40020C6
:10048000B9F7881B990B0895FB01DC0141505040DE
:1004900048F001900D920020C9F701C01D92415013
:1004A0005040E0F70895FB019F01E8944230C4F00A
:1004B0004532B4F44A3029F497FB1EF490958195A7
:1004C0009F4F642F77270E941C50805D8A330CF069
:1004D000895D8193CB010097A1F716F45DE25193FA
:1004E0001082C9012AC0592F482F372F262F660F97
:1004F000771F881F991F660F771F881F991F620F2C
:10050000731F841F951F660F771F881F991F0895FB
:10051000FB019F01423074F0453264F4642F772769
:100520000E941C50805D8A330CF0895D8193CB0161
:100530000097A1F71082C90100C0DC01FC01672F00
:1005400071917723E1F7329704C07C916D937083AA
:100550006291AE17BF07C8F30895EF92FF920F9311
:100560001F937C0100E012E00A96B8010E94D84D6A
:10057000C7014096B8010E94D84DC7014696B80100
:100580000E94D84DC7014C96B8010E94D84DC701B2
:100590008E96B8010E94D84DC701C496B8010E943A
:1005A000D84DC701CA96B8010E94D84DC701805CDA
:1005B0009F4FB8010E94D84DF70117A216A21F91B4
:1005C0000F91FF90EF900895CF92EF920F93CF93FA
:1005D000DF938130910509F0BCC56F5F7F4F09F053
:1005E00061C68CE099E00E94082987E299E00E94A8
:1005F000273E85EE99E068E049E024E005E056E01A
:10060000E52E37E0C32E0E94D02881E09AE060E01A
:1006100072E00E94D84D87E09AE060E072E00E94AC
:10062000D84D8DE09AE060E072E00E94D84D85E1FF
:100630009AE061E072E00E94D84D8BE19AE068E3B5
:1006400072E00E94D84D81E29AE061E872E00E9477
:10065000D84D87E29AE06AEC72E00E94D84D8DE2B4
:100660009AE060EF72E00E94D84D83E39AE067E47D
:1006700073E00E94D84D89E39AE06BE773E00E9433
:10068000D84D8FE39AE065EA73E00E94D84D85E487
:100690009AE06DEC73E00E94D84D8BE49AE066EF2F
:1006A00073E00E94D84D81E59AE06CE374E00E940B
:1006B000D84D87E59AE062E774E00E94D84D8DE559
:1006C0009AE062E774E00E94D84D83E69AE062E720
:1006D00074E00E94D84D89E69AE062E774E00E94D7
:1006E000D84D8FE69AE062E774E00E94D84D85E726
:1006F0009AE062E774E00E94D84DCBE7DAE0CE01E1
:1007000060E072E00E94D84D26968AE0C339D8078F
:10071000B1F78EE99AE021DF85EE9AE063EC74E0B0
:100720000E94D84D8BEE9AE066EC74E00E94D84DA2
:1007300081EF9AE069EC74E00E94D84D87EF9AE06F
:100740006CEC74E00E94D84D8DEF9AE06FEC74E091
:100750000E94D84D83E09BE062ED74E00E94D84D8A
:1007600089E09BE065ED74E00E94D84D8FE09BE04E
:1007700068ED74E00E94D84D85E19BE06BED74E07C
:100780000E94D84D8BE19BE06EED74E00E94D84D45
:1007900081E29BE061EE74E00E94D84D87E29BE02D
:1007A00064EE74E00E94D84D8DE29BE063EC74E04F
:1007B0000E94D84D83E39BE066EC74E00E94D84D24
:1007C00089E39BE069EC74E00E94D84D8FE39BE0E5
:1007D0006CEC74E00E94D84D85E49BE06FEC74E013
:1007E0000E94D84D8BE49BE062ED74E00E94D84DEE
:1007F00081E59BE065ED74E00E94D84D87E59BE0C4
:1008000068ED74E00E94D84D8DE59BE06BED74E0DF
:100810000E94D84D83E69BE06EED74E00E94D84DB7
:1008200089E69BE061EE74E00E94D84D8FE69BE084
:1008300064EE74E00E94D84D85E79BE067EE74E0BB
:100840000E94D84D8BE79BE06AEE74E00E94D84D81
:1008500081E89BE06DEE74E00E94D84D87E89BE054
:1008600060EF74E00E94D84D8DE89BE063EF74E088
:100870000E94D84D83E99BE066EF74E00E94D84D5A
:1008800089E99BE069EF74E00E94D84D8FE99BE015
:100890006CEF74E00E94D84D85EA9BE06FEF74E046
:1008A0000E94D84D8BEA9BE062E075E00E94D84D33
:1008B00081EB9BE065E075E00E94D84D87EB9BE003
:1008C00068E075E00E94D84D8DEB9BE06BE075E031
:1008D0000E94D84D83EC9BE06EE075E00E94D84DFD
:1008E00089EC9BE061E175E00E94D84D8FEC9BE0C4
:1008F00064E175E00E94D84D85ED9BE067E175E00D
:100900000E94D84D8BED9BE06AE175E00E94D84DC6
:1009100081EE9BE06DE175E00E94D84D87EE9BE093
:1009200060E275E00E94D84D8DEE9BE062E275E0DA
:100930000E94D84D83EF9BE064E275E00E94D84DA1
:1009400089EF9BE066E275E00E94D84D8FEF9BE057
:1009500068E275E00E94D84D85E09CE06AE275E0AF
:100960000E94D84D8BE09CE06CE275E00E94D84D6F
:1009700081E19CE06EE275E00E94D84D87E19CE049
:1009800060E375E00E94D84D8DE19CE062E375E084
:100990000E94D84D83E29CE064E375E00E94D84D4C
:1009A00089E29CE063EC74E00E94D84D8FE29CE009
:1009B00066EC74E00E94D84D85E39CE069EC74E03D
:1009C0000E94D84D8BE39CE06CEC74E00E94D84D03
:1009D00081E49CE06FEC74E00E94D84D87E49CE0D9
:1009E00062ED74E00E94D84D8DE49CE065ED74E00A
:1009F0000E94D84D83E59CE068ED74E00E94D84DDC
:100A000089E59CE06BED74E00E94D84D8FE59CE099
:100A10006EED74E00E94D84D85E69CE061EE74E0D6
:100A20000E94D84D8BE69CE064EE74E00E94D84DA5
:100A300081E79CE067EE74E00E94D84D87E79CE078
:100A40006AEE74E00E94D84D8DE79CE06DEE74E094
:100A50000E94D84D83E89CE060EF74E00E94D84D7E
:100A600089E89CE063EF74E00E94D84D8FE89CE039
:100A700066EF74E00E94D84D85E99CE069EF74E070
:100A80000E94D84D8BE99CE06CEF74E00E94D84D39
:100A900081EA9CE06FEF74E00E94D84D87EA9CE009
:100AA00062E075E00E94D84D8DEA9CE065E075E05B
:100AB0000E94D84D83EB9CE064E375E00E94D84D22
:100AC00089EB9CE063EC74E00E94D84D8FEB9CE0D6
:100AD00066EC74E00E94D84D85EC9CE069EC74E013
:100AE0000E94D84D8BEC9CE06CEC74E00E94D84DD9
:100AF00081ED9CE06FEC74E00E94D84D87ED9CE0A6
:100B000062ED74E00E94D84D8DED9CE065ED74E0DF
:100B10000E94D84D83EE9CE068ED74E00E94D84DB1
:100B200089EE9CE06BED74E00E94D84D8FEE9CE066
:100B30006EED74E00E94D84D85EF9CE061EE74E0AC
:100B40000E94D84D8BEF9CE064EE74E00E94D84D7B
:100B500081E09DE067EE74E00E94D84D87E09DE063
:100B60006AEE74E00E94D84D8DE09DE06DEE74E079
:100B70000E94D84D83E19DE060EF74E00E94D84D63
:100B800089E19DE063EF74E00E94D84D8FE19DE024
:100B900066EF74E00E94D84D85E29DE069EF74E055
:100BA0000E94D84D8BE29DE06CEF74E00E94D84D1E
:100BB00081E39DE06FEF74E00E94D84D87E39DE0F4
:100BC00062E075E00E94D84D8DE39DE065E075E040
:100BD0000E94D84D83E49DE068E075E00E94D84D06
:100BE00089E49DE06BE075E00E94D84D8FE49DE0C4
:100BF0006EE075E00E94D84D85E59DE061E175E00D
:100C00000E94D84D8BE59DE064E175E00E94D84DCF
:100C100081E69DE067E175E00E94D84D87E69DE0A2
:100C20006AE175E00E94D84D8DE69DE06DE175E0CA
:100C30000E94D84D83E79DE067E375E00E94D84DA0
:100C400089E79DE06AE375E00E94D84D8FE79DE05B
:100C50006DE375E00E94D84D85E89DE060E475E0A5
:100C60000E94D84D8BE89DE063E475E00E94D84D6A
:100C700081E99DE066E475E00E94D84D87E99DE03A
:100C800069E475E00E94D84D8DE99DE06CE475E063
:100C90000E94D84D83EA9DE06FE475E00E94D84D34
:100CA00089EA9DE062E575E00E94D84D8FEA9DE0FB
:100CB00065E575E00E94D84D85EB9DE068E575E03F
:100CC0000E94D84D8BEB9DE06BE575E00E94D84DFE
:100CD00081EC9DE06EE575E00E94D84D87EC9DE0CB
:100CE00061E675E00E94D84D8DEC9DE064E675E00C
:100CF0000E94D84D83ED9DE067E675E00E94D84DD7
:100D000089ED9DE06AE675E00E94D84D8FED9DE08B
:100D10006DE675E00E94D84D85EE9DE060E775E0D8
:100D20000E94D84D8BEE9DE063E775E00E94D84DA0
:100D300081EF9DE066E775E00E94D84D87EF9DE06A
:100D400069E775E00E94D84D8DEF9DE06CE775E096
:100D50000E94D84D83E09EE06FE775E00E94D84D79
:100D600089E09EE062E875E00E94D84D8FE09EE049
:100D700065E875E00E94D84D85E19EE068E875E081
:100D80000E94D84D8BE19EE060E275E00E94D84D54
:100D900081E29EE062E275E00E94D84D87E29EE02B
:100DA00064E275E00E94D84D8DE29EE066E275E057
:100DB0000E94D84D83E39EE068E275E00E94D84D22
:100DC00089E39EE06AE275E00E94D84D8FE39EE0E1
:100DD0006CE275E00E94D84D85E49EE06EE275E01D
:100DE0000E94D84D8BE49EE060E375E00E94D84DF0
:100DF00081E59EE062E375E00E94D84D87E59EE0C4
:100E00006BE875E00E94D84D8DE59EE06DE875E0D9
:100E10000E94D84D83E69EE06FE875E00E94D84DB1
:100E200089E69EE061E975E00E94D84D8FE69EE07C
:100E300063E975E00E94D84D85E79EE065E975E0BD
:100E40000E94D84D8BE79EE067E975E00E94D84D7F
:100E500081E89EE069E975E00E94D84D87E89EE050
:100E60006BE975E00E94D84D8DE89EE06DE975E074
:100E70000E94D84D83E99EE06FE975E00E94D84D4D
:100E800089E99EE061EA75E00E94D84D8FE99EE015
:100E900063EA75E00E94D84D85EA9EE065EA75E058
:100EA0000E94D84D8BEA9EE067EA75E00E94D84D1B
:100EB00081EB9EE069EA75E00E94D84D87EB9EE0E9
:100EC0006BEA75E00E94D84D8DEB9EE06DEA75E00F
:100ED0000E94D84D83EC9EE06FEA75E00E94D84DE9
:100EE00089EC9EE061EB75E00E94D84D8FEC9EE0AE
:100EF00063EB75E00E94D84D85ED9EE065EB75E0F3
:100F00000E94D84D8BED9EE067EB75E00E94D84DB6
:100F100081EE9EE069EB75E00E94D84D87EE9EE081
:100F20006BEB75E00E94D84D8DEE9EE06DEB75E0A9
:100F30000E94D84D83EF9EE06FEB75E00E94D84D84
:100F400089EF9EE061EC75E00E94D84D8FEF9EE046
:100F500063EC75E00E94D84D85E09FE065EC75E09C
:100F60000E94D84D8BE09FE067EC75E00E94D84D61
:100F700081E19FE069EC75E00E94D84D87E19FE038
:100F80006BEC75E00E94D84D8DE19FE06DEC75E053
:100F90000E94D84D83E29FE06FEC75E00E94D84D2F
:100FA00089E29FE061ED75E00E94D84D8FE29FE0FD
:100FB00063ED75E00E94D84D85E39FE065ED75E037
:100FC0000E94D84D8BE39FE067ED75E00E94D84DFD
:100FD00081E49FE069ED75E00E94D84D87E49FE0D1
:100FE0006BED75E00E94D84D8DE49FE06DED75E0EE
:100FF0000E94D84D83E59FE06FED75E00E94D84DCB
:1010000089E59FE061EE75E00E94D84D8FE59FE095
:1010100063EE75E00E94D84D85E69FE065EE75E0D1
:101020000E94D84D8BE69FE067EE75E00E94D84D98
:1010300081E79FE069EE75E00E94D84D87E79FE069
:101040006BEE75E00E94D84D8DE79FE06DEE75E088
:101050000E94D84D83E89FE06FEE75E00E94D84D66
:1010600089E89FE061EF75E00E94D84D8FE89FE02E
:1010700060E275E00E94D84D85E99FE062E275E08C
:101080000E94D84D8BE99FE064E275E00E94D84D44
:1010900081EA9FE066E275E00E94D84D87EA9FE012
:1010A00068E275E00E94D84D8DEA9FE06AE275E043
:1010B0000E94D84D83EB9FE06CE275E00E94D84D12
:1010C00089EB9FE06EE275E00E94D84D8FEB9FE0C8
:1010D00060E375E00E94D84D85EC9FE062E375E027
:1010E0000E94D84D8BEC9FE063EF75E00E94D84DD5
:1010F00081ED9FE065EF75E00E94D84D87ED9FE0A0
:1011000067EF75E00E94D84D8DED9FE06BEF75E0C5
:101110000E94D84D83EE9FE06FEF75E00E94D84D9E
:1011200089EE9FE063E076E00E94D84D8FEE9FE06D
:1011300067E076E00E94D84D85EF9FE06BE076E0B7
:101140000E94D84D8BEF9FE06FE076E00E94D84D73
:10115000A9C0892B09F0A6C06F5F7F4F09F0A2C01C
:10116000CBEFDFE0CE010E94D14E26978FE0C13D4C
:10117000D807C1F7C1EDDFE0CE010E94D14E26971E
:101180008EE0C135D807C1F7C1E5DEE0CE010E948F
:10119000D14E26978EE0C531D807C1F7C5E1DEE014
:1011A000CE010E94D14E26978CE0CD3AD807C1F7E8
:1011B000CDEADCE0CE010E94D14E26978CE0CD3105
:1011C000D807C1F7CDE1DCE0CE010E94D14E2697D1
:1011D0008BE0C13ED807C1F7C1EEDBE0CE010E9433
:1011E000D14E26978BE0C732D807C1F7C7E2DBE0C4
:1011F000CE010E94D14E26978AE0CF3DD807C1F795
:101200008EED9AE00E94D14E88ED9AE00E94D14E78
:1012100082ED9AE00E94D14E8CEC9AE00E94D14E71
:101220008AEB9AE00E94D14E84EB9AE00E94D14E64
:101230008EEA9AE00E94D14E88EA9AE00E94D14E4E
:10124000CDE8DAE0CE010E94D14E26978AE0C13582
:10125000D807C1F781E59AE00E94D14E8BE49AE06D
:101260000E94D14EC5E4DAE0CE010E94D14E26970D
:101270008AE0C732D807C1F7C7E2DAE0CE010E94A0
:10128000D14E26978AE0CF30D807C1F78DE09AE09B
:101290000E94D14E87E09AE00E94D14E81E09AE010
:1012A0000E94D14EDF91CF910F91EF90CF90089592
:1012B00080E090E06FEF7FEF87C981E090E06FEF13
:1012C0007FEF82C9BC0180E495E10C94EB49EF9279
:1012D000FF920F931F93DF93CF93CDB7DEB7C25723
:1012E000D0400FB6F894DEBF0FBECDBF8AEF99E0B5
:1012F0000E949826882309F47DC1CE01019660E002
:1013000072E00E94D84DB7E0EB2EF12CEC0EFD1EE2
:10131000C70160E072E00E94D84D8E01035F1F4F4D
:10132000C8016091FC094AE00E941F4EC701B80144
:101330000E94AC4EC8010E94D14E8B859C850197BE
:1013400091F48E010D5E1F4FC80160E30E944F4E65
:10135000C801B7010E94A54DBC01C7010E94AC4E57
:10136000C8010E94D64E8E01075E1F4FA7E0EA2EED
:10137000F12CEC0EFD1EC801B7010E94C94EC80138
:1013800063E176E00E948B4DBC0181E09AE00E940F
:10139000AC4EC8010E94D64E8E01015E1F4FC8019F
:1013A0006091FB094AE00E941F4EC701B8010E94EC
:1013B000AC4EC8010E94D14E8B859C85019791F45B
:1013C0008E010B5D1F4FC80160E30E944F4EC801A4
:1013D000B7010E94A54DBC01C7010E94AC4EC801D7
:1013E0000E94D64E8E01055D1F4FC80161E07AE074
:1013F0000E94C94EF7E0EF2EF12CEC0EFD1EC80145
:10140000B7010E94A54D63E176E00E948B4DBC01BF
:1014100081E09AE00E94AC4EC8010E94D64E8E0137
:101420000F5C1F4FC8016091FA094AE00E941F4EED
:10143000C701B8010E94AC4EC8010E94D14E8B85F5
:101440009C85019791F48E01095C1F4FC80160E3F0
:101450000E944F4EC801B7010E94A54DBC01C701B3
:101460000E94AC4EC8010E94D64E8E01035C1F4FF5
:10147000C80161E07AE00E94C94EE7E0EE2EF12C4F
:10148000EC0EFD1EC801B7010E94A54DBC0181E014
:101490009AE00E94AC4EC8010E94D64E8E010D5BB0
:1014A0001F4FC8016091FF094AE00E941F4EC7010B
:1014B000B8010E94AC4EC8010E94D14E8B859C851C
:1014C000019791F48E01075B1F4FC80160E30E94F2
:1014D0004F4EC801B7010E94A54DBC01C7010E9433
:1014E000AC4EC8010E94D64E8E01015B1F4F77E0C3
:1014F000E72EF12CEC0EFD1EC801B7010E94C94E6B
:10150000C80165E176E00E948B4DBC0187E09AE05E
:101510000E94AC4EC8010E94D64E8E010B5A1F4F3E
:10152000C8016091FE094AE00E941F4EC701B80140
:101530000E94AC4EC8010E94D14E8B859C850197BC
:1015400091F48E01055A1F4FC80160E30E944F4E6F
:10155000C801B7010E94A54DBC01C7010E94AC4E55
:10156000C8010E94D64E8E010F591F4FC80167E077
:101570007AE00E94C94E67E0E62EF12CEC0EFD1ECB
:10158000C801B7010E94A54D65E176E00E948B4D30
:10159000BC0187E09AE00E94AC4EC8010E94D64E82
:1015A0008E0109591F4FC80167E07AE00E94C94EB9
:1015B0006091000A70E06E54784FC8010E946D4D32
:1015C000BC0187E09AE00E94AC4EC8010E94D64E52
:1015D0006091FD0986E0689FB00111246952704F47
:1015E0008DE09AE00E94AC4EC7010E94D14ECE0120
:1015F000019616C080910410882339F080E495E1AB
:1016000067E176E00E942D4B0DC08E0103591F4FFC
:10161000C80166E476E00E94D84DC80153DEC801D7
:101620000E94D14ECE58DF4F0FB6F894DEBF0FBEEA
:10163000CDBFCF91DF911F910F91FF90EF90089553
:101640004F925F926F927F928F929F92AF92BF92D2
:10165000CF92DF92EF92FF920F931F93DF93CF937E
:10166000CDB7DEB7A4970FB6F894DEBF0FBECDBFDF
:101670003C01A62E8E010F5F1F4FC80160E072E093
:101680000E94D84DCE01079660E072E00E94D84DCE
:10169000BAE04B2E512C460C571CF30126A137A162
:1016A000ADE0EA2EF12CEC0EFD1EC701B201A9013E
:1016B0002F5F3F4F0E94674EC801B7010E94AC4E9A
:1016C000C7010E94D14EEE24FF24C02E012FB70186
:1016D000660F771F6E0D7F1D660F771F695A714F5A
:1016E0008C2D902F0E94614C882341F4F0E4EF167A
:1016F000F10421F00894E11CF11CE9CFAA2051F07B
:101700008FE3E816F1041CF080E090E00BC0C70105
:10171000019608C0E114F10419F48FE390E002C0CF
:10172000C701019757E0852E912C8C0E9D1EBC01A0
:10173000660F771F680F791F660F771F695A714F01
:10174000C4010E94AC4E23E1A22EB12CAC0EBD1EF2
:10175000F30126A137A1C501B20140E050E00E948B
:10176000674E99E1C92ED12CCC0EDD1EC601B50104
:101770000E94C94EC601B4010E94A54D8C018FE1A3
:10178000E82EF12CEC0EFD1EF30146A157A14F5F90
:101790005F4F26853785C701B2010E94674EC80199
:1017A000B7010E94A54DBC018E010F5F1F4FC801FC
:1017B0000E94AC4EC7010E94D14EC6010E94D64E77
:1017C000C5010E94D14EC201B8010E94AC4EC401B5
:1017D0000E94D14EC8010E94D14EA4960FB6F89433
:1017E000DEBF0FBECDBFCF91DF911F910F91FF9054
:1017F000EF90DF90CF90BF90AF909F908F907F90B1
:101800006F905F904F9008954F925F926F927F928A
:101810008F929F92AF92BF92CF92DF92EF92FF9200
:101820000F931F93DF93CF93CDB7DEB7A4970FB677
:10183000F894DEBF0FBECDBF3C01D62E7E010894CA
:10184000E11CF11CC70160E072E00E94D84DCE019E
:10185000079660E072E00E94D84D6AE0462E512C57
:10186000460C571CF30126A137A18E01035F1F4FC1
:10187000C801B201A9012F5F3F4F0E94674EC70107
:10188000B8010E94AC4EC8010E94D14EC7010E940F
:10189000534BDD2049F0693071051CF080E090E089
:1018A0000BC0CB01019608C0161617061CF089E084
:1018B00090E002C0CB01019757E0852E912C8C0E51
:1018C0009D1EBC01660F771F680F791F660F771F7B
:1018D000655E714FC4010E94AC4E23E1A22EB12C73
:1018E000AC0EBD1EF30126A137A1C501B20140E037
:1018F00050E00E94674E99E1C92ED12CCC0EDD1E1E
:10190000C601B5010E94C94EC601B4010E94A54D91
:101910008C018FE1E82EF12CEC0EFD1EF30146A1A7
:1019200057A14F5F5F4F26853785C701B2010E94DF
:10193000674EC801B7010E94A54DBC018E010F5F23
:101940001F4FC8010E94AC4EC7010E94D14EC60174
:101950000E94D64EC5010E94D14EC201B8010E941C
:10196000AC4EC4010E94D14EC8010E94D14EA49633
:101970000FB6F894DEBF0FBECDBFCF91DF911F91A0
:101980000F91FF90EF90DF90CF90BF90AF909F901E
:101990008F907F906F905F904F9008954F925F92DD
:1019A0006F927F928F929F92AF92BF92CF92DF926F
:1019B000EF92FF920F931F93DF93CF93CDB7DEB7D4
:1019C000A4970FB6F894DEBF0FBECDBF3C01D62E54
:1019D0007E010894E11CF11CC70160E072E00E94E6
:1019E000D84DCE01079660E072E00E94D84D0AE023
:1019F000402E512C460C571CF30126A137A18E0115
:101A0000035F1F4FC801B201A9012E5F3F4F0E9423
:101A1000674EC701B8010E94AC4EC8010E94D14E6A
:101A2000C7010E94534BDD2049F06B3371051CF058
:101A300080E090E00BC0CB01019608C01616170697
:101A40001CF08BE390E002C0CB01019717E0812EE0
:101A5000912C8C0E9D1EBC01660F771F680F791F9D
:101A6000660F771F6D54734FC4010E94AC4EF3E1B3
:101A7000AF2EB12CAC0EBD1EF30126A137A1C501BE
:101A8000B20140E050E00E94674EE9E1CE2ED12C39
:101A9000CC0EDD1EC601B5010E94C94EC601B401BF
:101AA0000E94A54D8C017FE1E72EF12CEC0EFD1E6E
:101AB000F30146A157A14E5F5F4F26853785C701C9
:101AC000B2010E94674EC801B7010E94A54DBC013A
:101AD0008E010F5F1F4FC8010E94AC4EC7010E94CC
:101AE000D14EC6010E94D64EC5010E94D14EC20100
:101AF000B8010E94AC4EC4010E94D14EC8010E94A0
:101B0000D14EA4960FB6F894DEBF0FBECDBFCF91D5
:101B1000DF911F910F91FF90EF90DF90CF90BF90DA
:101B2000AF909F908F907F906F905F904F900895AF
:101B30004F925F926F927F928F929F92AF92BF92DD
:101B4000CF92DF92EF92FF920F931F93DF93CF9389
:101B5000CDB7DEB7A4970FB6F894DEBF0FBECDBFEA
:101B60003C01D62E7E010894E11CF11CC70160E007
:101B700072E00E94D84DCE01079660E072E00E94AC
:101B8000D84D6AE0462E512C460C571CF30126A175
:101B900037A18E01035F1F4FC801B201A9012E5F5B
:101BA0003F4F0E94674EC701B8010E94AC4EC8016A
:101BB0000E94D14EC7010E94534BDD2049F067318E
:101BC00071051CF080E090E00BC0CB01019608C0CD
:101BD000161617061CF087E190E002C0CB010197B2
:101BE00057E0852E912C8C0E9D1EBC01660F771F31
:101BF000680F791F660F771F6D5D734FC4010E94D8
:101C0000AC4E23E1A22EB12CAC0EBD1EF30126A1D9
:101C100037A1C501B20140E050E00E94674E99E152
:101C2000C92ED12CCC0EDD1EC601B5010E94C94EB5
:101C3000C601B4010E94A54D8C018FE1E82EF12C64
:101C4000EC0EFD1EF30146A157A14E5F5F4F2685A6
:101C50003785C701B2010E94674EC801B7010E94D3
:101C6000A54DBC018E010F5F1F4FC8010E94AC4EF5
:101C7000C7010E94D14EC6010E94D64EC5010E94E6
:101C8000D14EC201B8010E94AC4EC4010E94D14E97
:101C9000C8010E94D14EA4960FB6F894DEBF0FBEC5
:101CA000CDBFCF91DF911F910F91FF90EF90DF900B
:101CB000CF90BF90AF909F908F907F906F905F90EC
:101CC0004F9008954F925F926F927F928F929F9262
:101CD000AF92BF92CF92DF92EF92FF920F931F933A
:101CE000DF93CF93CDB7DEB7A4970FB6F894DEBFDE
:101CF0000FBECDBF3C01A62E8E010F5F1F4FC80146
:101D000060E072E00E94D84DCE01079660E072E07C
:101D10000E94D84D5AE0452E512C460C571CF30119
:101D200026A137A14DE0E42EF12CEC0EFD1EC701DB
:101D3000B201A9012D5F3F4F0E94674EC801B70154
:101D40000E94AC4EC7010E94D14EEE24FF24C02E4B
:101D5000012FB701660F771F6E0D7F1D660F771F6E
:101D60006952704F8C2D902F0E94614C882341F452
:101D7000F6E0EF16F10421F00894E11CF11CE9CF24
:101D8000AA2051F086E0E816F1041CF080E090E013
:101D90000BC0C701019608C0E114F10419F486E0F4
:101DA00090E002C0C701019717E0812E912C8C0EA4
:101DB0009D1EBC01660F771F680F791F660F771F86
:101DC0006952704FC4010E94AC4EF3E1AF2EB12CAA
:101DD000AC0EBD1EF30126A137A1C501B20140E042
:101DE00050E00E94674EE9E1CE2ED12CCC0EDD1ED4
:101DF000C601B5010E94C94EC601B4010E94A54D9D
:101E00008C017FE1E72EF12CEC0EFD1EF30146A1C3
:101E100057A14D5F5F4F26853785C701B2010E94EC
:101E2000674EC801B7010E94A54DBC018E010F5F2E
:101E30001F4FC8010E94AC4EC7010E94D14EC6017F
:101E40000E94D64EC5010E94D14EC201B8010E9427
:101E5000AC4EC4010E94D14EC8010E94D14EA4963E
:101E60000FB6F894DEBF0FBECDBFCF91DF911F91AB
:101E70000F91FF90EF90DF90CF90BF90AF909F9029
:101E80008F907F906F905F904F9008954F925F92E8
:101E90006F927F928F929F92AF92BF92CF92DF927A
:101EA000EF92FF920F931F93DF93CF93CDB7DEB7DF
:101EB000A4970FB6F894DEBF0FBECDBF3C01D62E5F
:101EC0007E010894E11CF11CC70160E072E00E94F1
:101ED000D84DCE01079660E072E00E94D84D1AE01E
:101EE000412E512C460C571CF30126A137A18E011F
:101EF000035F1F4FC801B201A9012F5F3F4F0E942E
:101F0000674EC701B8010E94AC4EC8010E94D14E75
:101F1000C7010E94534BDD2049F0693071051CF068
:101F200080E090E00BC0CB01019608C016161706A2
:101F30001CF089E090E002C0CB010197B7E08B2E46
:101F4000912C8C0E9D1EBC01660F771F680F791FA8
:101F5000660F771F6951744FC4010E94AC4EE3E1D4
:101F6000AE2EB12CAC0EBD1EF30126A137A1C501CA
:101F7000B20140E050E00E94674E79E1C72ED12CBB
:101F8000CC0EDD1EC601B5010E94C94EC601B401CA
:101F90000E94A54D8C016FE1E62EF12CEC0EFD1E8A
:101FA000F30146A157A14F5F5F4F26853785C701D3
:101FB000B2010E94674EC801B7010E94A54DBC0145
:101FC0008E010F5F1F4FC8010E94AC4EC7010E94D7
:101FD000D14EC6010E94D64EC5010E94D14EC2010B
:101FE000B8010E94AC4EC4010E94D14EC8010E94AB
:101FF000D14EA4960FB6F894DEBF0FBECDBFCF91E1
:10200000DF911F910F91FF90EF90DF90CF90BF90E5
:10201000AF909F908F907F906F905F904F900895BA
:102020004F925F926F927F928F929F92AF92BF92E8
:10203000CF92DF92EF92FF920F931F93DF93CF9394
:10204000CDB7DEB7A4970FB6F894DEBF0FBECDBFF5
:102050003C01D62E7E010894E11CF11CC70160E012
:1020600072E00E94D84DCE01079660E072E00E94B7
:10207000D84D6AE0462E512C460C571CF30126A180
:1020800037A18E01035F1F4FC801B201A9012E5F66
:102090003F4F0E94674EC701B8010E94AC4EC80175
:1020A0000E94D14EC7010E94534B9B0121503040EA
:1020B000DD2041F02E3131051CF080E090E00AC0B7
:1020C000CB0108C0121613061CF08EE190E002C08E
:1020D000C901019757E0852E912C8C0E9D1EBC01E5
:1020E000660F771F680F791F660F771F635D744F48
:1020F000C4010E94AC4E23E1A22EB12CAC0EBD1E39
:10210000F30126A137A1C501B20140E050E00E94D1
:10211000674E99E1C92ED12CCC0EDD1EC601B5014A
:102120000E94C94EC601B4010E94A54D8C018FE1E9
:10213000E82EF12CEC0EFD1EF30146A157A14E5FD7
:102140005F4F26853785C701B2010E94674EC801DF
:10215000B7010E94A54DBC018E010F5F1F4FC80142
:102160000E94AC4EC7010E94D14EC6010E94D64EBD
:10217000C5010E94D14EC201B8010E94AC4EC401FB
:102180000E94D14EC8010E94D14EA4960FB6F89479
:10219000DEBF0FBECDBFCF91DF911F910F91FF909A
:1021A000EF90DF90CF90BF90AF909F908F907F90F7
:1021B0006F905F904F9008950F931F938823D1F0F5
:1021C00087E299E048EE53E060E070E027E639E00E
:1021D00003E010E00E941A3E992787FD90959093A6
:1021E000140A8093130A80E495E166E776E00E9482
:1021F0002D4B06C087E299E06091130A0E94803D52
:102200001F910F9108950F931F93809101106623E2
:10221000C9F0882309F587E299E044EF51E060E0D6
:1022200070E02EE734E102E010E00E941A3E9927A8
:1022300087FD9095909303108093021081E0809326
:1022400001100AC0813041F487E299E060910210E8
:102250000E94803D109201101F910F91089580916E
:10226000940A9091950A9093990A8093980A80E035
:102270000E9443429C019093950A8093940A409156
:10228000980A5091990A841B950B05960B9798F51F
:1022900081E08093930AC9018C589040099718F403
:1022A00083E090E01EC0C90185549140099718F45D
:1022B00084E090E016C0C9010496099718F485E0FF
:1022C00090E00FC0C901855F9140099718F482E042
:1022D00090E007C0225E32402930310538F481E0B9
:1022E00090E09093970A8093960A08951092970A27
:1022F0001092960A04C05093950A4093940A109243
:10230000930A08950F931F938091940A9091950AD0
:102310009093990A8093980A80E00E944342909398
:10232000950A8093940A2091980A3091990A821B09
:10233000930B97FF03C0909581959F4F0597A4F04D
:1023400087E299E04AE050E060E070E02FE231E19E
:1023500005E010E00E940D3E992787FD909590932F
:102360009D0A80939C0A04C03093950A2093940A96
:102370001F910F9108950F931F93882351F18FEFB1
:1023800093E09093950A8093940A87E299E044E160
:1023900050E060E070E022E831E102E010E00E94ED
:1023A0001A3E992787FD909590939B0A80939A0AED
:1023B00080E495E16BE876E00E942B4B80E495E1A8
:1023C00044E150E060E070E02AE030E00E94874A9B
:1023D00006C087E299E060919A0A0E94803D1F91B1
:1023E0000F9108959F92AF92BF92CF92DF92EF929A
:1023F000FF920F931F93DF93CF93CDB7DEB7C654F1
:10240000D0400FB6F894DEBF0FBECDBF6C01962E44
:10241000A7E0EA2EF12CEC0EFD1EC7016AE976E07A
:102420000E94F04D8E010F5F1F4FC801B60140E0C2
:1024300050E028E030E00E94674EC701B8010E94DA
:10244000A54D60EA76E00E948B4DBC01C6010E945A
:10245000AC4EC8010E94D14EC7010E94D64E8E01DB
:10246000075E1F4FC601B80142E150E020E030E0B6
:102470000E94BD4B85E090E1B8010E94522B882359
:1024800009F4A5C0CE018C9665E070E1A80121E0B9
:102490000E94772C8EA59FA590930F0980930E091B
:1024A00088A999A9AAA9BBA9809310099093110999
:1024B000A0931209B09313098CA99DA9AEA9BFA935
:1024C0008093140990931509A0931609B0931709E6
:1024D000A8E1B9E0FE01F8968DE001900D928150DF
:1024E000E1F7FE01EB5BFF4F80819181909326091C
:1024F000809325098CE099E00E945729882309F4EC
:1025000066C0CC24FDE0EF2EF12CEC0EFD1EE3E1C5
:10251000AE2EB12CAC0EBD1E76E0D72E3DC0C7014D
:1025200060E072E00E94D84D10E08CE099E00E94DB
:102530007E29082F992787FD90950E943850892B76
:1025400091F0C501B7010E94C94EC501602F0E94DC
:102550007C4DBC01C7010E94AC4EC5010E94D64E05
:102560001F5F103511F7CD9C80011124095A154FBA
:10257000C801B7010E94AC4E80E495E1B8010E9409
:10258000EB4980E495E16C2D4AE050E00E94B44AAA
:10259000C7010E94D14EC394C91408F28CE099E09F
:1025A0000E946429692D862FCA5BDF4F0FB6F8940D
:1025B000DEBF0FBECDBFCF91DF911F910F91FF9076
:1025C000EF90DF90CF90BF90AF909F90089580E400
:1025D00095E164EC71E00E94844980E495E1BE01DC
:1025E000675E7F4F0E942D4B60E0DDCF8F929F9200
:1025F000AF92BF92CF92DF92EF92FF920F931F9311
:10260000DF93CF93CDB7DEB7EA970FB6F894DEBF6E
:102610000FBECDBF6C014B015A0117E0E12EF12C2A
:10262000EC0EFD1EC7016AE976E00E94F04D8E01B6
:102630000F5F1F4FC801B60140E050E028E030E0D6
:102640000E94674EC701B8010E94A54D60EA76E07E
:102650000E948B4DBC01C6010E94AC4EC8010E9475
:10266000D14EC7010E94D64E8E01035F1F4FC60197
:10267000B80142E150E020E030E00E94BD4B85E02F
:1026800090E1B8010E94522B882329F085E090E167
:10269000B8010E94482BCE01809665E070E1AE0142
:1026A000435F5F4F23E10E94772C8AA19BA1909307
:1026B0000F0980930E098CA19DA1AEA1BFA18093AB
:1026C000100990931109A0931209B093130988A5DA
:1026D00099A5AAA5BBA58093140990931509A09369
:1026E0001609B0931709A8E1B9E0FE01BC968DE088
:1026F00001900D928150E1F789AD9AAD9093260932
:10270000809325098CE099E00E9457298823F9F0ED
:10271000EE24B6E0CB2E10C0EC9C800111240A0DF3
:102720001B1D80E495E1B8010E94EB498CE099E023
:10273000B8010E94EB49E3948E2D90E0881599052D
:102740005CF38CE099E00E94642981E00EC080E493
:1027500095E160E172E00E94844980E495E1BE0168
:10276000635F7F4F0E942D4B80E0EA960FB6F8948E
:10277000DEBF0FBECDBFCF91DF911F910F91FF90B4
:10278000EF90DF90CF90BF90AF909F908F90089583
:102790004F925F926F927F928F929F92AF92BF9271
:1027A000CF92DF92EF92FF920F931F93DF93CF931D
:1027B000CDB7DEB768970FB6F894DEBF0FBECDBFBA
:1027C0003C0185EE99E060E142E020E00E9426288D
:1027D00085EE99E00E94202885EE99E060E040E0D7
:1027E0000E94F227B301665C7F4F85EE99E00E945C
:1027F000A74985EE99E060E041E00E94F2278091D0
:10280000B7089AE0492E512C460C571CF30142A1FF
:1028100053A1882309F446C080E1882E912C860CB0
:10282000971C26A137A16E010894C11CD11CC601BA
:10283000B2010E94674E07E0E02EF12CEC0EFD1E67
:10284000C701B6010E94C94EB3016A5E7F4FC7013E
:102850000E94A54D5C018E01035F1F4FF30146A14D
:1028600057A14F5F5F4F24A135A1C801B2010E945B
:10287000674EC501B8010E94A54DBC01C4010E946C
:10288000AC4EC8010E94D14EC7010E94D64EC6016F
:102890000E94D14E85EE99E0B4010E94A7491092A2
:1028A000B70815C08E010D5E1F4FF30124A135A19D
:1028B000C801B2010E94674E85EE99E0B8010E94FE
:1028C000A749C8010E94D14E81E08093B70868965D
:1028D0000FB6F894DEBF0FBECDBFCF91DF911F9131
:1028E0000F91FF90EF90DF90CF90BF90AF909F90AF
:1028F0008F907F906F905F904F9008958EE99AE04F
:1029000047CF4F925F926F927F928F929F92AF923A
:10291000BF92CF92DF92EF92FF920F931F93DF93BC
:10292000CF93CDB7DEB7E0970FB6F894DEBF0FBEFA
:10293000CDBF3C01D62E7E010894E11CF11CC701DD
:1029400060E072E00E94D84DCE01079660E072E030
:102950000E94D84D7AE0472E512C460C571CF301AB
:1029600026A137A18E01035F1F4FC801B201A90143
:102970002E5F3F4F0E94674EC701B8010E94AC4EC8
:10298000C8010E94D14E80E495E1B7010E94EB4955
:10299000C7010E94534B4B015C018B010150104059
:1029A00080E495E1B8014AE050E00E940E4BDD2042
:1029B00041F00B3011051CF080E090E00AC0C4012A
:1029C00008C0101611061CF08BE090E002C0C80190
:1029D000019767E0862E912C8C0E9D1EBC01660F20
:1029E000771F680F791F660F771F6B51754FC401F2
:1029F0000E94AC4E80E495E1B4010E94EB4980E472
:102A000095E165EA76E00E942B4BF30166A177A180
:102A100080E495E14AE050E00E940E4B80E495E1AD
:102A200061EB76E00E942B4B8E010D5E1F4FF30190
:102A300026A137A1C801B20140E050E00E94674ED4
:102A400080E495E1B8010E94A749C8010E94D14ED7
:102A500080E495E160EC76E00E942B4B8E01075EEE
:102A60001F4FF30146A157A14E5F5F4F2685378563
:102A7000C801B2010E94674E80E495E1B8010E944E
:102A8000A749C8010E94D14E80E495E167ED76E048
:102A90000E942D4B3FE1A32EB12CAC0EBD1EF301C5
:102AA00026A137A1C501B20140E050E00E94674E67
:102AB00025E2E22EF12CEC0EFD1EC701B5010E94AD
:102AC000C94EC701B4010E94A54D6C018E01055D80
:102AD0001F4FF30146A157A14E5F5F4F26853785F3
:102AE000C801B2010E94674EC601B8010E94A54DFF
:102AF000BC016E010894C11CD11CC6010E94AC4EE1
:102B0000C8010E94D14EC7010E94D64EC5010E9445
:102B1000D14E80E495E167ED76E00E942B4B80E496
:102B200095E1B2010E94A74980E495E167ED76E066
:102B30000E942D4B80E495E167ED76E00E942B4BDF
:102B400080E495E1B6010E94A74980E495E167ED34
:102B500076E00E942D4BC201B6010E94AC4E80E48B
:102B600095E167ED76E00E942B4B80E495E1B201A0
:102B70000E94A74980E495E167ED76E00E942D4B25
:102B8000C4010E94D14EC6010E94D14EE0960FB6FC
:102B9000F894DEBF0FBECDBFCF91DF911F910F9193
:102BA000FF90EF90DF90CF90BF90AF909F908F906D
:102BB0007F906F905F904F9008952F923F924F9229
:102BC0005F926F927F928F929F92AF92BF92CF92BD
:102BD000DF92EF92FF920F931F93DF93CF93CDB7C6
:102BE000DEB766970FB6F894DEBF0FBECDBF2C01DF
:102BF0006B013A013C8B2B8B1801FE8AED8ADA01BE
:102C00001D921C9201E010E01FC0F30180819181B0
:102C10009C01220F331F280F391F220F331FD201AF
:102C200015968D919C911697820F931FB6010E9465
:102C3000994CF30140815181882381F44F5F5F4FAC
:102C4000518340830F5F1F4FD20111968D919C914C
:102C5000129780179107CCF680E0A3C09A01220F4B
:102C6000331F240F351F220F331FF20185819681F8
:102C7000820F931F6CE20E94084C5C010894A11C17
:102C8000B11CD3018D919C919C01220F331F280F01
:102C9000391F220F331FF20185819681820F931F06
:102CA0006CE2A5010E94EA4B6C014C010894811C66
:102CB000911CD3018D919C919C01220F331F280FF1
:102CC000391F220F331FF20185819681820F931FD6
:102CD0006CE2A4010E94EA4B7C01D3012D913C914E
:102CE000C901880F991F820F931F880F991FF20146
:102CF00065817681680F791F8E010F5F1F4FC801B4
:102D0000A50196010E94674EC101B8010E94AC4E18
:102D1000C8010E94D14E8E01095F1F4FD3012D9132
:102D20003C91C901880F991F820F931F880F991F2B
:102D3000F20165817681680F791FC801A4019701AE
:102D40000E94674E8B899C89B8010E94AC4EC801D5
:102D50000E94D14ED3012D913C91C901880F991F3A
:102D6000820F931F880F991FD2011596ED91FC9148
:102D70001697E80FF91F8E01035F1F4F0894E11C9F
:102D8000F11C24813581C801BF01A7010E94674E53
:102D90008D899E89B8010E94AC4EC8010E94D14E17
:102DA00081E066960FB6F894DEBF0FBECDBFCF911F
:102DB000DF911F910F91FF90EF90DF90CF90BF9028
:102DC000AF909F908F907F906F905F904F903F90CB
:102DD0002F9008952F923F924F925F926F927F9221
:102DE0008F929F92AF92BF92CF92DF92EF92FF921B
:102DF0000F931F93DF93CF93CDB7DEB7ED970FB649
:102E0000F894DEBF0FBECDBF9AAF89AF5B015CAF58
:102E10004BAF2DAF1A821982E3E02E2E312C2C0EEF
:102E20003D1EC10160E072E00E94D84D79E0472E5E
:102E3000512C4C0E5D1EC20160E072E00E94D84D24
:102E40006FE0862E912C8C0E9D1EC40160E072E016
:102E50000E94D84D55E1C52ED12CCC0EDD1EC601E9
:102E60006BAD7CAD0E94C14E89AD9AADB601AE018D
:102E70004F5F5F4F9101820174019FDE182FC601E1
:102E80000E94D14E112309F48DC0C20161E60E9457
:102E9000084C9C018FEF2F3F380709F483C043E0B3
:102EA000642E712C620E731EEDADEE2309F468C022
:102EB0009BE1C92ED12CCC0EDD1EC601B40140E031
:102EC00050E00E94674E81E2E82EF12CEC0EFD1ED0
:102ED000C701B6010E94C94EC701B5010E94A54DA8
:102EE0005C018E01095D1F4F2B893C89C801B4012B
:102EF000A3010E94674EC501B8010E94A54DBC0107
:102F0000C4010E94AC4EC8010E94D14EC7010E946C
:102F1000D64EC6010E94D14E29813A81C901880F3F
:102F2000991F820F931F880F991FE9ADFAAD058194
:102F30001681080F191FBDE2EB2EF12CEC0EFD1EC1
:102F4000C7016BAD7CAD0E94C94EC7016CE20E9407
:102F50007C4DB2010E94A54D6CE20E947C4DB101F6
:102F60000E94A54D6CE20E947C4DB4010E94A54DCB
:102F7000BC01C8010E94AC4EC7010E94D64E10C0D1
:102F80008E010D5C1F4FC801B401A90193010E947D
:102F9000674EC501B8010E94AC4EC8010E94D14ED7
:102FA00011E001C010E0CE010F960E94D14ECE017B
:102FB00009960E94D14ECE0103960E94D14E812FD8
:102FC000ED960FB6F894DEBF0FBECDBFCF91DF9167
:102FD0001F910F91FF90EF90DF90CF90BF90AF9037
:102FE0009F908F907F906F905F904F903F902F9029
:102FF00008952F923F924F925F926F927F928F929D
:103000009F92AF92BF92CF92DF92EF92FF920F9377
:103010001F93DF93CF93CDB7DEB7ED970FB6F8943C
:10302000DEBF0FBECDBF9AAF89AF5B015CAF4BAFC8
:103030002DAF1A82198243E0242E312C2C0E3D1E16
:10304000C10160E072E00E94D84D39E0432E512C5E
:103050004C0E5D1EC20160E072E00E94D84D2FE070
:10306000822E912C8C0E9D1EC40160E072E00E94A5
:10307000D84D95E1C92ED12CCC0EDD1EC6016BAD0D
:103080007CAD0E94C14E89AD9AADB601AE014F5FD5
:103090005F4F91018201740190DD182FC6010E94DB
:1030A000D14E112309F48DC0C20168E40E94084C7E
:1030B0009C018FEF2F3F380709F483C085E0682E0D
:1030C000712C620E731EEDADEE2309F468C00BE1A6
:1030D000C02ED12CCC0EDD1EC601B40140E050E064
:1030E0000E94674E11E2E12EF12CEC0EFD1EC7018D
:1030F000B6010E94C94EC701B5010E94A54D5C01F1
:103100008E01095D1F4F2B893C89C801B401A301C1
:103110000E94674EC501B8010E94A54DBC01C401C3
:103120000E94AC4EC8010E94D14EC7010E94D64EEB
:10313000C6010E94D14E29813A81C901880F991F89
:10314000820F931F880F991FE9ADFAAD0581168193
:10315000080F191FFDE2EF2EF12CEC0EFD1EC7012A
:103160006BAD7CAD0E94C94EC7016CE20E947C4DE4
:10317000B2010E94A54D6CE20E947C4DB1010E94FB
:10318000A54D6CE20E947C4DB4010E94A54DBC018E
:10319000C8010E94AC4EC7010E94D64E10C08E01DD
:1031A0000D5C1F4FC801B401A90193010E94674E35
:1031B000C501B8010E94AC4EC8010E94D14E11E079
:1031C00001C010E0CE010F960E94D14ECE010996AB
:1031D0000E94D14ECE0103960E94D14E812FED96D2
:1031E0000FB6F894DEBF0FBECDBFCF91DF911F9118
:1031F0000F91FF90EF90DF90CF90BF90AF909F9096
:103200008F907F906F905F904F903F902F90089598
:103210002F923F924F925F926F927F928F929F92E6
:10322000AF92BF92CF92DF92EF92FF920F931F93D4
:10323000DF93CF93CDB7DEB7ED970FB6F894DEBF2F
:103240000FBECDBF9AAF89AF5B015CAF4BAF2DAF67
:103250001A82198283E0282E312C2C0E3D1EC101CA
:1032600060E072E00E94D84D09E0402E512C4C0ED7
:103270005D1EC20160E072E00E94D84D1FE0812E09
:10328000912C8C0E9D1EC40160E072E00E94D84D0E
:10329000B5E1CB2ED12CCC0EDD1EC6016BAD7CADC5
:1032A0000E94C14E89AD9AADB601AE014F5F5F4F2E
:1032B00091018201740181DC182FC6010E94D14E58
:1032C000112309F48DC0C2016DE60E94084C9C01D7
:1032D0008FEF2F3F380709F483C0AAE06A2E712CC4
:1032E000620E731EEDADEE2309F468C0FBE1CF2E34
:1032F000D12CCC0EDD1EC601B40140E050E00E948E
:10330000674EE1E2EE2EF12CEC0EFD1EC701B60178
:103310000E94C94EC701B5010E94A54D5C018E01F6
:10332000095D1F4F2B893C89C801B401A3010E948C
:10333000674EC501B8010E94A54DBC01C4010E94A1
:10334000AC4EC8010E94D14EC7010E94D64EC601A4
:103350000E94D14E29813A81C901880F991F820F9D
:10336000931F880F991FE9ADFAAD05811681080FEB
:10337000191F5DE2E52EF12CEC0EFD1EC7016BADB1
:103380007CAD0E94C94EC7016CE20E947C4DB20127
:103390000E94A54D6CE20E947C4DB1010E94A54D9A
:1033A0006CE20E947C4DB4010E94A54DBC01C80195
:1033B0000E94AC4EC7010E94D64E10C08E010D5C1B
:1033C0001F4FC801B401A90193010E94674EC501B6
:1033D000B8010E94AC4EC8010E94D14E11E001C05C
:1033E00010E0CE010F960E94D14ECE0109960E94A8
:1033F000D14ECE0103960E94D14E812FED960FB68D
:10340000F894DEBF0FBECDBFCF91DF911F910F911A
:10341000FF90EF90DF90CF90BF90AF909F908F90F4
:103420007F906F905F904F903F902F9008950F93F3
:103430001F93CF93DF938B01EA01C801BE010E9465
:103440003E4BFC018081803221F0D7FD02C02197E4
:10345000F4CFCE01DF91CF911F910F9108950F937B
:103460001F93CF93DF938B01EA01C801BE010E9435
:103470003E4BFC018081803221F4D7FD02C02197B0
:10348000F4CFCE01DF91CF911F910F9108950F934B
:103490001F93CF93DF938B01EA01C801BE010E9405
:1034A0003E4BFC018081803249F4F8018481958192
:1034B0000196C817D90710F42196EFCFCE01DF91FE
:1034C000CF911F910F9108952F923F924F925F924B
:1034D0006F927F928F929F92AF92BF92CF92DF9224
:1034E000EF92FF920F931F93DF93CF93CDB7DEB789
:1034F000C254D0400FB6F894DEBF0FBECDBF3C0122
:103500005B01CE01019660E072E00E94D84DC501DA
:103510006CE20E94084C7C018E01095F1F4FC801BC
:10352000B50140E050E097010E94674EC301C49688
:10353000B8010E94AC4EC8010E94D14E0894E11C13
:10354000F11CC5016CE2A7010E94EA4B6C01ECE1A1
:103550002E2E312C260C371C8E01035F1F4FC80105
:10356000B501A70196010E94674EC101B8010E94F2
:10357000AC4EC8010E94D14E0894C11CD11CC5019B
:103580006CE2A6010E94EA4B7C017AE3872E912C23
:10359000860C971C8E010D5E1F4FC801B501A60158
:1035A00097010E94674EC401B8010E94AC4EC80149
:1035B0000E94D14E6AE0462E512C460C571C5FE10A
:1035C000C52ED12CCC0EDD1EC6016EED76E00E941C
:1035D000F04D8E01075E1F4F0894E11CF11CF501B0
:1035E00024813581C801B501A7010E94674EC6013B
:1035F000B8010E94A54DBC01C2010E94AC4EC80199
:103600000E94D14EC6010E94D64EF3018685978551
:1036100095A384A3C20167EF76E00E944D4D8E0111
:103620000B5D1F4FC801B2010E94C14EC301B8011A
:1036300040E050E02CDFF30193A382A3C8010E9475
:10364000D14EF30182A193A197A386A385EE99E0C1
:1036500060E142E020E00E94262885EE99E00E9489
:10366000202885EE99E060E040E00E94F22785EE98
:1036700099E0B4010E94A74985EE99E060E041E03D
:103680000E94F227F30184A195A122A133A1821BFC
:10369000930B26A137A140970CF14BE2E42EF12CBD
:1036A000EC0EFD1EC701B201A901215F3F4F0E9430
:1036B000674E8E010F5C1F4FC801B7010E94C94EB3
:1036C000C8016EE30E947C4DBC0185EE99E00E942A
:1036D000A749C8010E94D64EC70110C08E01095CDF
:1036E0001F4FC801B201A901205F3F4F0E94674EE2
:1036F00085EE99E0B8010E94A749C8010E94D14E09
:10370000C1016CE077E00E940B4C882319F081E046
:1037100090E009C0C10169ED76E00E940B4C88235E
:1037200051F083E090E0F30190878783C30160E06C
:103730000E9403114CC082E090E0F30190878783E0
:10374000C30161E00E9403119DE3492E512C4C0EF0
:103750005D1E06C0F30186A197A1019697A386A3DB
:10376000F30126A137A182A193A1281B390BC20125
:10377000B101A9012F5F3F4F0E94674EC20163EF65
:1037800075E00E940B4C882311F400E00BC000E0B0
:10379000F30182A193A10E9626A137A18217930768
:1037A0000CF001E0C2010E94D14E002399F6F30112
:1037B000818593012A5E3F4F882321F0C90163EF81
:1037C00075E003C0C90161E177E00E94084ECE01B7
:1037D00001960E94D14ECE5BDF4F0FB6F894DEBF4C
:1037E0000FBECDBFCF91DF911F910F91FF90EF9052
:1037F000DF90CF90BF90AF909F908F907F906F9011
:103800005F904F903F902F9008958F929F92AF922C
:10381000BF92CF92DF92EF92FF920F931F93DF93AD
:10382000CF93CDB7DEB7CC5FD0400FB6F894DEBFF4
:103830000FBECDBF5C01DC01DC90B1E0DB1609F00E
:1038400038C6FC01878190858230910509F427C232
:103850008330910509F428C4019709F02AC6D501DF
:1038600096968D909C9097978091960A9091970A42
:103870008330910509F4EDC18430910544F4813021
:10388000910509F4A8C1029709F013C6C4C0843099
:10389000910509F4EDC1059709F00BC6EAE0CE2EBB
:1038A000D12CCA0CDB1C8E010F5F1F4FC801B60163
:1038B0000E94C14EF50146A157A1C80160E20E94D5
:1038C000EA4BD50197969C938E939697C8010E94D8
:1038D000D14EF50126A137A184A195A1281739075A
:1038E0001CF097A286A2E5C58E01095F1F4FC80193
:1038F000B6010E94C14ED50196964D915C91979765
:10390000C501B801C4DDF50197A386A3C8010E94D3
:10391000D14E85EE99E060E142E020E00E94262849
:1039200085EE99E00E94202885EE99E060E040E075
:103930000E94F227B501665C7F4F85EE99E00E94F8
:10394000A74985EE99E060E041E00E94F227D501A9
:1039500096962D913C919797F901709694968D913A
:103960009C91959792964D915C919397E817F907E2
:103970001CF54217530784F473E1E72EF12CEC0E8B
:10398000FD1EC7016CE30E944F4EF50126A137A131
:103990008E01035F1F4FDCC069E1E62EF12CEC0EB7
:1039A000FD1EC701B601A901215F3F4F0E94674E6E
:1039B0008E01015E1F4F69C04217530744F55BE259
:1039C000E52EF12CEC0EFD1EC7016CE30E944F4E5C
:1039D000D50196962D913C9197978E010B5D1F4FC7
:1039E000C801B601A901215F3F4F0E94674EC70180
:1039F000B8010E94A54DBC0185EE99E00E94A7493F
:103A0000C8010E94D14EC7010E94D64E52C58E01F8
:103A10000F5C1F4FD4C085EE99E060E142E020E0EA
:103A20000E94262885EE99E00E94202885EE99E0E4
:103A300060E040E00E94F227B501665C7F4F85EEB2
:103A400099E00E94A74985EE99E060E041E00E947C
:103A5000F227F50126A137A182A193A14AE0C42E45
:103A6000D12CCA0CDB1C821793070CF197E3E92ECB
:103A7000F12CEC0EFD1EC701B601A901215F3F4FDD
:103A80000E94674E8E01035C1F4FC801B7010E9460
:103A9000C94EC8016EE30E947C4DBC0185EE99E0E1
:103AA0000E94A749C8010E94D64EC701ECC48E01EE
:103AB0000D5B1F4FC801B6010E94C14ED5019696FD
:103AC0004D915C91979741505040C501B801C7DCBA
:103AD000F50197A386A3C8010E94D14E8E01075B12
:103AE0001F4FC801B6010E94C14ED50196964D9157
:103AF0005C919797C501B8019ADC0196F50197A3EF
:103B000086A3C8010E94D14ED50196962D913C9175
:103B10009797F901709694968D919C9195979296AE
:103B20004D915C919397E817F9078CF5421753076D
:103B3000F4F485E5E82EF12CEC0EFD1EC7016CE3D4
:103B40000E944F4EF50126A137A18E01015B1F4F48
:103B5000C801B601A901225F3F4F0E94674EC7010D
:103B6000B8010E94A54D6EE30E947C4D44CF0BE549
:103B7000E02EF12CEC0EFD1EC701B601A901215F5C
:103B80003F4F0E94674E8E010F591F4F7ECF421745
:103B9000530794F41DE6E12EF12CEC0EFD1EC70137
:103BA0006CE30E944F4ED50196962D913C919797CC
:103BB0008E0109591F4F14CF8E010D581F4FC80198
:103BC000B601A9019F010E94674E85EE99E0B801F8
:103BD0000E94A7491AC2F50191A680A6BAE0EB2E71
:103BE000F12CEA0CFB1C8E0107581F4FC801B701CE
:103BF0000E94C14ED50196964D915C919797C80150
:103C000060E20E94EA4BF50193A782A7C8010E94D7
:103C1000D14E8E0101581F4FD50198964D915C9160
:103C200099979A962D913C919B97C801B7010E9454
:103C3000674EC501805C9F4FB8010E94AC4EC80121
:103C40000E94D14EE6E4F0E0AE0EBF1ED501DC923C
:103C500030C4F501238134812115310509F429C4CB
:103C600021503040348323838E010B571F4FBCC13A
:103C7000D50113962D913C91149711968D919C919D
:103C800012972817390709F414C42F5F3F4F149671
:103C90003C932E9313978E0105571F4F5AC10091E5
:103CA000960A1091970A05301105E1F5F50126A154
:103CB00037A182A193A10E968217930724F02F5F5C
:103CC0003F4F37A326A38501045E1F4FD50196966B
:103CD0006D917C91979792968D919C919397681B8B
:103CE000790BC8010E943E4BFC0180818D3209F0A6
:103CF000CDC3F50126A137A182A193A10E9682170B
:103D000093070CF4C3C32F5F3F4F37A326A3DECF27
:103D100021503040240F351FD50197963C932E93A8
:103D20009697C7C3F50166A177A142A153A10230BE
:103D3000110559F54617570724F46150704077A3D1
:103D400066A38501045E1F4FD50196966D917C9107
:103D5000979792968D919C919397681B790BC801C8
:103D60000E943E4BFC0180818D3209F0A2C3F50117
:103D700026A137A182A193A1821793070CF099C3C2
:103D80002150304037A326A3DFCFACE18A2E912CFF
:103D90008A0C9B1C641B750BC4010E943E4BFC01EA
:103DA000E081ED36B1F4D50119968C91882309F0A4
:103DB00080C30330110529F00430110509F027C133
:103DC00003C0C50161E002C0C50160E00E9481142A
:103DD0001EC1E436A9F4F5018185882309F069C381
:103DE0000330110529F00430110509F010C103C09A
:103DF000C50161E002C0C50160E00E94101007C16A
:103E0000E937B1F4D50119968C91882309F051C393
:103E10000330110529F00430110509F0F8C003C082
:103E2000C50161E002C0C50160E00E94460FEFC01D
:103E3000E136A9F4F5018185882309F03AC30330FE
:103E4000110529F00430110509F0E1C003C0C501D6
:103E500061E002C0C50160E00E94620ED8C0E83493
:103E6000B1F4D50119968C91882309F022C303304F
:103E7000110529F00430110509F0C9C003C0C501BE
:103E800061E002C0C50160E00E94980DC0C0ED3441
:103E9000A9F4F5018185882309F00BC303301105CE
:103EA00029F00430110509F0B2C003C0C50161E07A
:103EB00002C0C50160E00E94CE0CA9C0E332B1F49B
:103EC000D50119968C91882309F0F3C203301105AE
:103ED00029F00430110509F09AC003C0C50161E062
:103EE00002C0C50160E00E94040C91C0E334A9F453
:103EF000F5018185882309F0DCC20330110529F022
:103F00000430110509F083C003C0C50161E002C09F
:103F1000C50160E00E94200B7AC0E535B9F5033099
:103F2000110529F00430110509F0C3C21EC0D501E6
:103F300013962D913C9114972115310509F4B9C2BE
:103F40002150304014963C932E9313978E010F56B8
:103F50001F4FC901880F991F820F931F880F991F48
:103F600015966D917C91169748C0F5012381348197
:103F7000818192812817390709F49BC22F5F3F4F37
:103F8000348323838E0109561F4F2EC0E43409F079
:103F900090C20330110529F00430110509F089C2DF
:103FA00013C0D50113962D913C911497211531051D
:103FB00009F47FC22150304014963C932E931397FE
:103FC0008E0103561F4FC5CFF501238134818181B6
:103FD00092812817390709F46CC22F5F3F4F348351
:103FE00023838E010D551F4FC901880F991F820F22
:103FF000931F880F991F65817681680F791FC8010B
:104000000E94C14EC501B8015FDAC8013CC25FEA37
:10401000C52ED12CCC0EDD1EB501665F7F4FC601CB
:104020000E94C14EC6010E94644BD50113962D918A
:104030003C911497C901880F991F820F931F880F15
:10404000991F15960D911C911697080F191F89EA53
:10405000E82EF12CEC0EFD1EE4E3F0E0AE0EBF1EE8
:10406000C701B5010E94C94EC7016CE20E947C4D98
:10407000B4010E94A54D6CE20E947C4D26E030E028
:10408000A20EB31EB5010E94A54D6CE20E947C4DAC
:10409000B6010E94A54DBC01C8010E94AC4EC701EB
:1040A0000E94D64EC601EFC10FEA802E912C8C0ED5
:1040B0009D1EC40160E072E00E94D84D8091960A76
:1040C0009091970A8330910509F49AC18430910543
:1040D00024F4029709F0D4C128C18430910509F471
:1040E000ACC1059709F0CCC1D50196968D919C91F4
:1040F0009797409697969C938E93969794962D912A
:104100003C9195972817390724F497963C932E9362
:1041100096971AE0C12ED12CCA0CDB1CF50166A1C2
:1041200077A1C6010E943E4BFC0180818032D1F014
:10413000D50196966D917C919797C6010E943E4B52
:10414000FC018081803209F43FC0F50126A137A12E
:1041500082A193A182179307BCF52150304037A369
:1041600026A3E6CFD50196966D917C919797C601CF
:104170000E943E4BFC018081803269F4F50126A14A
:1041800037A182A193A1821793072CF421503040CC
:1041900037A326A3E7CFD50196966D917C9197978B
:1041A000C6010E943E4BFC018081803269F0F5011E
:1041B00026A137A182A193A1821793072CF4215045
:1041C000304037A326A3E7CFD50196962D913C9199
:1041D000979792968D919C91939794964D915C911F
:1041E000959728173907D9F5F9017096BFEA8B2EF4
:1041F000912C8C0E9D1EE417F50704F5A5EBEA2E15
:10420000F12CEC0EFD1EC701B601A901215F3F4F45
:104210000E94674E8E0105541F4FC801B7010E94CE
:10422000C94EC8016EE30E947C4DBC01C4010E94CE
:10423000AC4EC8010E94D64EC7010EC08E010F536E
:104240001F4FC801B601A9019F010E94674EC4011A
:10425000B8010E94AC4EC8010E94D14E53C02F5FDE
:104260003F4FF50137A326A3205F3F4FFFEA8F2E74
:10427000912C8C0E9D1E2417350704F5EDECEE2EC7
:10428000F12CEC0EFD1EC7016CE30E944F4ED501D0
:1042900096962D913C9197978E0109531F4FC80117
:1042A000B601A901225F3F4F0E94674EC701B801C6
:1042B0000E94A54D6EE30E947C4D1AC079EDE72E59
:1042C000F12CEC0EFD1EC7016CE30E944F4EF50170
:1042D00026A137A18E010D521F4FC801B601A901B9
:1042E000215F3F4F0E94674EC701B8010E94A54D54
:1042F000BC01C4010E94AC4EC8010E94D14EC7014E
:104300000E94D64E85EE99E060E142E020E09ED624
:1043100085EE99E095D685EE99E060E040E062D6C2
:104320002AE330E0A20EB31E59C0D50192962D911A
:104330003C91939797963C932E939697F90170969C
:1043400094968D919C9195976AE0C62ED12CCA0CBB
:10435000DB1CE817F90704F55FEDE52EF12CEC0EF8
:10436000FD1EC701B601A901215F3F4F0E94674EA4
:104370008E010B511F4FC801B7010E94C94EC801E1
:104380006EE30E947C4DBC01C4010E94AC4EC8018A
:104390000E94D64EC7010EC08E0105511F4FC801A5
:1043A000B601A9019F010E94674EC401B8010E9495
:1043B000AC4EC8010E94D14E85EE99E060E142E02A
:1043C00020E044D685EE99E03BD685EE99E060E0AA
:1043D00040E008D6EAE3F0E0AE0EBF1E85EE99E0BD
:1043E000B5010E94A74985EE99E060E041E0FAD569
:1043F00085EE99E0BE0161557F4F0E94A74940C0FC
:10440000D50113962D913C91149721153105C1F1D9
:104410002150304014963C932E9313978E010F50E9
:104420001F4FC901880F991F820F931F880F991F73
:1044300015966D917C91169718C0F50123813481F2
:104440008181928128173907D9F02F5F3F4F34833C
:1044500023838E0109501F4FC901880F991F820FB6
:10446000931F880F991F65817681680F791FC80196
:104470000E94C14EC501B80127D8C8010E94D14E83
:10448000CE0181559F4F0E94D14E13C0D501929607
:104490004D915C91939790962D913C919197969622
:1044A0008D919C919797841B950B8217930708F029
:1044B0002FCCC450DF4F0FB6F894DEBF0FBECDBF78
:1044C000CF91DF911F910F91FF90EF90DF90CF90F0
:1044D000BF90AF909F908F900895BF92CF92DF9240
:1044E000EF92FF920F931F93DF93CF9300D000D0F2
:1044F000CDB7DEB77C01B62E6901FC0116830583BA
:104500008E96BA010E94AC4EF70114821382F1E03C
:10451000CF16D10419F00894C108D108F701D2824E
:10452000C182F701B18686E490E0E80EF91EF7013A
:1045300010828AEB9FEFE80EF91EF7016581768104
:104540008E010F5F1F4FC8010E94C14EC701B80105
:104550000E94641AC8010E94D14E26960FB6F894A4
:10456000DEBF0FBECDBFCF91DF911F910F91FF90A6
:10457000EF90DF90CF90BF900895CF92DF92EF92AF
:10458000FF920F931F93DF93CF93CDB7DEB7C75939
:10459000D0400FB6F894DEBF0FBECDBF87E299E0E2
:1045A0000E94963D8091930A813061F41092930AA3
:1045B0006091960A7091970A6115710519F08EE95C
:1045C0009AE023D98091E40A813009F052C28CEC40
:1045D0009AE063E177E00E940B4C882309F4A0C0C5
:1045E00082ED9AE06BE177E00E940B4C882309F49E
:1045F00089C08EED9AE061E277E00E940B4C88233F
:1046000009F45DC062E0E62EF12CEC0EFD1EC70140
:1046100065E277E00E94D84D8EE99AE060E0A7015C
:1046200025E030E00DE21AE058DFC7010E94D14ECC
:104630008E01085F1F4FC8016FE277E00E94D84DDE
:104640008EE99AE067E07AE0A80121E00E9408196B
:10465000C8010E94D14E5EE0E52EF12CEC0EFD1E4D
:10466000C70161E07AE040E050E025E030E00E94E0
:10467000674E8E010C5E1F4FC80164E377E00E9415
:10468000D84D8EE99AE0B701A80121E00E94F91700
:10469000C8010E94D14EC7010E94D14E8E01065E14
:1046A0001F4FC80169E377E00E94D84D8EE99AE078
:1046B0006DE07AE0A80121E00E94EA16D7C18EEDF4
:1046C0009AE06DE377E00E940B4C882329F080E4A8
:1046D00095E161E471E00CC08EED9AE069E477E069
:1046E0000E940B4C882339F080E495E163E271E08D
:1046F0000E94D949BEC18E01005E1F4FC80165E509
:1047000077E0AFC18E010A5D1F4FC80163E977E012
:104710000E94D84DC8010E946209C8010E94D14E72
:104720008CEC9AE065E277E00E940B4C882309F458
:1047300092C180E495E162ED7AE00E94EB4982ED5E
:104740009AE06AEC77E00E940B4C882309F460C180
:104750008EED9AE061ED77E00E940B4C882309F41E
:104760002DC180E495E16AE071E00E94D94980E4BE
:1047700095E16DEF70E00E9484496091C9157091D8
:10478000CA15CE0101966115710521F4BC016D5C5D
:10479000754104C09C01261B370BB90180E495E1EB
:1047A0004AE050E00E94994ACE018C9660E072E0A7
:1047B0000E94D84D42E3C42ED12CCC0EDD1EC60182
:1047C00060E072E00E94D84DCE01C89660E072E0D1
:1047D0000E94D84D3EE3E32EF12CEC0EFD1EC701E6
:1047E00060E072E00E94D84D8E010C5B1F4FC80143
:1047F0006FE277E00E94D84D8EE99AE0B601A801F9
:1048000020E00E940819C8010E94D14E8E01065B6B
:104810001F4FC801B60140E050E022E030E00E94A6
:10482000674EC701B8010E94AC4EC8010E94D14E2C
:10483000C7010E94534B6093FF098E01005B1F4F1D
:10484000C801B60143E050E025E030E00E94674E29
:10485000C701B8010E94AC4EC8010E94D14EC701E9
:104860000E94534B6093FE098E010A5A1F4F2EA9D6
:104870003FA9C801B60146E050E00E94674EC7015B
:10488000B8010E94AC4EC8010E94D14EC7010E94DF
:10489000534B625B6093000A8E01045A1F4FC8019C
:1048A00064E377E00E94D84D8EE99AE061E07AE017
:1048B000A80120E00E94F917C8010E94D14E8E0184
:1048C0000E591F4FC80161E07AE040E050E022E05D
:1048D00030E00E94674EC701B8010E94AC4EC8018B
:1048E0000E94D14EC7010E94534B6093FC098E0178
:1048F00008591F4FC80161E07AE043E050E025E02D
:1049000030E00E94674EC701B8010E94AC4EC8015A
:104910000E94D14EC7010E94534B6093FB09109235
:10492000FA098E0102591F4FC80169E377E00E941E
:10493000D84D8EE99AE06DE07AE0A80120E00E946F
:10494000EA16C8010E94D14E00E010E0C801880FAD
:10495000991F800F911F880F991F8952904F6DE00A
:104960007AE00E94614C882329F40F5F1F4F0730C3
:10497000110561F70093FD098AEF99E082D1882340
:1049800071F48E010C581F4FC80168ED77E00E944A
:10499000D84DC8010E946209C8010E94D14ECE01C3
:1049A000CE960E94D14ECE01C8960E94D14ECE0125
:1049B000C2960E94D14ECE018C9636C08EED9AE002
:1049C00069EE77E00E940B4C8823D9F080E495E1F2
:1049D00064EE70E00E94D949AAE7EA2EF12CEC0EB1
:1049E000FD1EC70163E177E00E94D84D8EE99AE091
:1049F00061E0A70124E030E005E11AE06EDDC701C7
:104A000013C08E0100581F4FC80160EF77E006C049
:104A10008E010A571F4FC80163E378E00E94D84D0A
:104A2000C8010E946209C8010E94D14EFCE8EF2E25
:104A3000F12CEC0EFD1EC70163E177E00E94D84D1A
:104A40008EE99AE061E0A70124E030E005E11AE098
:104A500044DDC7010CC08E010E561F4FC80169E628
:104A600078E00E94D84DC8010E946209C8010E94E6
:104A7000D14E1092E40AC956DF4F0FB6F894DEBF4C
:104A80000FBECDBFCF91DF911F910F91FF90EF909F
:104A9000DF90CF900895EF92FF920F931F93DF93D3
:104AA000CF93CDB7DEB7E0970FB6F894DEBF0FBE59
:104AB000CDBFCE01019660E072E00E94D84D80E447
:104AC00095E140E855E260E070E00E94E246CE01E8
:104AD000079661E978E00E94D84DCE010D966CE909
:104AE00078E00E94D84DCE01439667EA78E00E94B4
:104AF000D84D85E361E00E94774285E090E165E36F
:104B00000E94972D882329F480E495E16DEA71E0F5
:104B100004C080E495E168E971E00E94D9497E0112
:104B20000894E11CF11CC70163E177E00E94084E84
:104B30008E01075E1F4FC801B7010E94C14EC80118
:104B400064E070E045E15AE00E94F612C8010E945C
:104B5000D14E80E495E160E871E00E94D9498E0170
:104B6000015E1F4FC801B7010E94C14EC80164E039
:104B70000E94F211F82EC8010E94D14E80E495E106
:104B80006FE571E00E94844980E495E16F2D70E04B
:104B90004AE050E00E940E4B81E00E94BB1181E090
:104BA0000E94DC1081E080939E0A75E2E72EF12CD2
:104BB000EC0EFD1EC70163E177E00E94D84D8EE93F
:104BC0009AE061E0A70124E030E005E11AE085DC2D
:104BD000C7010E94D14E89E08093FF0987E080934E
:104BE000FE098DE28093000A80E18093FC098FE04A
:104BF0008093FB098BE18093FA0982E08093FD09A1
:104C00008AEF99E03ED0882371F48E01055D1F4F35
:104C1000C80168ED77E00E94D84DC8010E94620982
:104C2000C8010E94D14ECE0143960E94D14ECE01C2
:104C30000D960E94D14ECE0107960E94D14ECE0114
:104C400001960E94D14EE0960FB6F894DEBF0FBEDB
:104C5000CDBFCF91DF911F910F91FF90EF900895FD
:104C6000482F6AE00E94DB4F282F30E084E0220FBB
:104C7000331F8A95E1F7842F0E94DB4F892F820F23
:104C800008950F931F938C018DE992E168E670E01F
:104C90000E943C3E8DE992E160E00E94BD3EF80139
:104CA0008081DEDF682F8DE992E10E94BD3EF80130
:104CB0008181D6DF682F8DE992E10E94BD3EF80127
:104CC0008281CEDF682F8DE992E10E94BD3EF8011E
:104CD0008381C6DF682F8DE992E10E94BD3EF80115
:104CE0008481BEDF682F8DE992E10E94BD3EF8010C
:104CF0008581B6DF682F8DE992E10E94BD3EF80103
:104D000086818E51ADDF682F8DE992E10E94BD3E14
:104D10008DE992E10E94FE3E882321F0109204105A
:104D200080E003C081E0809304101F910F910895EB
:104D30000F931F93CF93DF93EC018DE992E168E627
:104D400070E00E943C3E8DE992E160E00E94BD3E31
:104D50008DE992E10E94FE3E882319F01092041022
:104D600011C081E0809304108DE992E168E670E063
:104D700047E050E00E940C3F8DE992E10E94463EE0
:104D8000079714F480E065C08DE992E10E944F3EE0
:104D9000082F8F7782958F701AE0819FC0011124B0
:104DA000202F2F70280F28838DE992E10E944F3E1B
:104DB000282F22952F70219F900111248F70820F30
:104DC00089838DE992E10E944F3E282F2F7322950F
:104DD0002F70219F900111248F70820F8A838DE99B
:104DE00092E10E944F3E282F22952F70219F900123
:104DF00011248F70820F8B838DE992E10E944F3EC8
:104E0000282F22952F70219F900111248F70820FDF
:104E10008C838DE992E10E944F3E282F22952F70BE
:104E2000219F900111248F70820F8D838DE992E173
:104E30000E944F3E282F2F70225E82958F70819F97
:104E4000C0011124280F2E83802F8095881F88276A
:104E5000881FDF91CF911F910F9108958DE992E105
:104E60000C940E3F0F931F938C01FC01868160E030
:104E70000E942A4381E090E00E94D741F801868198
:104E800061E00E942A4381E090E00E94D741F8014E
:104E9000868160E00E942A4384E690E00E94D74128
:104EA0001F910F910895CF92DF92EF92FF920F938F
:104EB0001F93CF93DF93D82EC92E282F392FC901E6
:104EC0008C01C0E0D0E0E62EFF24F801878161E08C
:104ED0000E947742B7010C2E02C0759567950A941F
:104EE000E2F76170F80187810E942A4321960F5FE3
:104EF0001F4FC830D10549F78D2D9C2DB3DFDF91B1
:104F0000CF911F910F91FF90EF90DF90CF90089578
:104F1000CF92DF92EF92FF920F931F93CF93DF9385
:104F2000D82EC92E282F392FC9018C01C0E0D0E01E
:104F3000E62EFF24F801878161E00E947742B701E5
:104F40000C2E02C0759567950A94E2F76170F8011E
:104F500087810E942A4321960F5F1F4FC430D105DD
:104F600049F78D2D9C2D7EDFDF91CF911F910F9101
:104F7000FF90EF90DF90CF9008951F93CF93DF9332
:104F8000EC01162F8C81642F0E942A438D818F3F64
:104F900019F060E00E942A438F8584FF04C0CE018F
:104FA000612F81DF0CC0612F70E084E075956795FB
:104FB0008A95E1F7CE01ACDFCE01612FA9DFDF9149
:104FC000CF911F91089541E0D8DF81E090E00895EE
:104FD00040E0D3CFFC016089862F8460808B6C60B9
:104FE000CF01F6CFDF93CF93CDB7DEB728970FB6BB
:104FF000F894DEBF0FBECDBF9C01FE013196ABEC35
:10500000B8E088E00D9001928150E1F7F9018389C1
:10501000481710F0482F4150E42FF0E0EE0FFF1F2B
:10502000EC0FFD1F8181680F6068C901D1DF2896F0
:105030000FB6F894DEBF0FBECDBFCF91DF910895BC
:1050400061E0C6DF80ED97E00C94D741CF93DF930A
:10505000EC01423018F08F8588608F874B8B1C8A5B
:10506000222329F0413019F48F8584608F8780E5F1
:1050700093EC0E94D7418C8160E00E942A438E818C
:1050800060E00E942A438D818F3F19F060E00E940A
:105090002A436F8564FD19C0CE0163E039DF84E9DE
:1050A00091E10E94D741CE0163E032DF84E991E1D2
:1050B0000E94D741CE0163E02BDF86E990E00E9499
:1050C000D741CE0162E024DF13C06062CE0180DFF1
:1050D00084E991E10E94D7416F856062CE0178DF5B
:1050E00086E990E00E94D7416F856062CE0170DF53
:1050F0006F856062CE016CDF84E0888BCE016ADF51
:10510000CE019EDF82E0898BCE0166E061DFDF9118
:10511000CF9108956F927F928F92AF92CF92EF923C
:105120000F931F93DF93CF93CDB7DEB73C01162FBC
:10513000842FF301448325830683E782C086A186FA
:1051400082869E8593879F8594879889958799897C
:10515000968761E00E947742F30185818F3F19F0C5
:1051600061E00E947742F301868161E00E9477420C
:10517000112319F0F301178603C080E1F30187873B
:10518000C30160E141E020E061DFCF91DF911F9139
:105190000F91EF90CF90AF908F907F906F90089588
:1051A0008F92AF92CF92EF920F931F93CF93DF9393
:1051B000DC01362F542F722F102FAE2C8C2C13960F
:1051C0001C921E92129787EC98E011969C938E93F6
:1051D00000D00F92EDB7FEB73196CDB7DEB719828A
:1051E000118212821382CD0161E0432F2FEF052F30
:1051F000E72EC12E8FDF0F900F900F900F90DF9151
:10520000CF911F910F91EF90CF90AF908F90089515
:10521000FC011382128288EE93E0A0E0B0E0848368
:105220009583A683B78387ED98E091838083128E60
:10523000118E14860895DF93CF930F92CDB7DEB70A
:10524000FC016983A081B18112962D913C91139745
:10525000BE016F5F7F4F41E050E0F90119950F905B
:10526000CF91DF910895DC015996ED91FC915A9709
:10527000309719F420E030E018C02389348945893B
:10528000568982859385A485B585281B390B4A0BE1
:105290005B0B2030B0E83B07B0E04B07B0E05B07AA
:1052A00020F02FEF3FE740E050E0C9010895DC0116
:1052B0005996ED91FC915A97309711F480E008953A
:1052C0008581811181E00895CF93DF93EC01898D71
:1052D0009A8D009741F00E940432898D9A8D0E9428
:1052E000F9431A8E198EDF91CF910895FC01818DBB
:1052F000928D009711F00C94BC310895DF93CF93F9
:105300000F92CDB7DEB7FC01818D928D009749F0E9
:10531000BE016F5F7F4F41E050E00E94EF32019786
:1053200019F02FEF3FEF03C08981282F30E0C9012A
:105330000F90CF91DF910895EF92FF920F931F93FB
:10534000DF93CF930F92CDB7DEB77C01DC01599686
:105350008D919C915A97009719F400E010E01EC0BF
:10536000BE016F5F7F4F41E050E00E94EF32019736
:1053700019F00FEF1FEF12C08981082F10E0D7013D
:105380005996ED91FC915A974285538564857585B0
:105390004150504060407040CF0129D7C8010F9064
:1053A000CF91DF911F910F91FF90EF900895CF93D0
:1053B000DF93EC01E98DFA8D309761F01382128250
:1053C000CF010E942C359C01E98DFA8D8281938159
:1053D000892B31F081E090E09B838A8320E030E0EC
:1053E000C901DF91CF910895EF92FF920F931F9320
:1053F000CF93DF93EC01F62EE72E8A011B821A82EF
:1054000088EE93E0A0E0B0E08C839D83AE83BF8301
:1054100087ED98E0998388838DE190E00E945C435A
:105420009A8F898F009791F0DC018F2D9E2D9C0122
:10543000F9018DE101900D928150E1F7CE010C96BA
:10544000B8014CE050E00E944402188EDF91CF91E9
:105450001F910F91FF90EF9008950F931F93CF939B
:10546000DF938C01FB01C081D181FC01EC0FFD1F9A
:1054700080818F3209F4219698012C0F3D1FA0E006
:10548000B0E00BC0FA01EA0FFB1F80831196219652
:105490002F5F3F4FAC30B10531F0F90180818F3281
:1054A00011F0882379F7A40FB51F1C92F801EC0FB7
:1054B000FD1F80818F3209F42196FB01D183C083C7
:1054C000C00FD11F8881811181E0DF91CF911F91A1
:1054D0000F91089510920A1010920B1010920E1056
:1054E0001092101082E090E0A0E0B0E080931110E4
:1054F00090931210A0931310B093141010922810D0
:10550000109232101092311087EE98E09093301084
:1055100080932F10109234100895EF92FF921F93F2
:10552000DF93CF93CDB7DEB76D970FB6F894DEBF9C
:105530000FBECDBF9C01AB011C821B8287EE98E0A1
:105540009A8389831E827E010894E11CF11CC701A5
:10555000B90121E00E944E37182F882311F0C701AE
:1055600053D7812F6D960FB6F894DEBF0FBECDBF17
:10557000CF91DF911F91FF90EF9008952F923F926E
:105580004F925F926F927F928F929F92BF92CF9233
:10559000DF92EF92FF920F931F93DF93CF93CDB7DC
:1055A000DEB7C954D0400FB6F894DEBF0FBECDBFF2
:1055B0001C017B012A0139011B8A1A8A87EE98E0B7
:1055C000998B888B1D8A18AA1FA69EA78DA71AAA39
:1055D0001A8219828B0120E1C22ED12CCC0EDD1E45
:1055E00093E0892E912C8C0E9D1E03C0C80186016C
:1055F0006C01C101BE016F5F7F4FA4012EDFB82E89
:1056000040E0882309F441E0C801B4019301F201AC
:105610001995882331F40E151F0501F1C801F4D640
:105620001DC0BB20A1F0C601B801A40121E00E9469
:105630004E37B82E0E151F0511F0C801E5D6BB2058
:1056400069F00E151F0591F6CE018D96D0CF0E157F
:105650001F0511F0C801D8D681E001C080E0C75B0A
:10566000DF4F0FB6F894DEBF0FBECDBFCF91DF91F5
:105670001F910F91FF90EF90DF90CF90BF909F9080
:105680008F907F906F905F904F903F902F900895F4
:105690009B01BC01665D7F4FC90140EC5DE220E0EB
:1056A00030E06CCF9B01BC01665D7F4FC9014DE8C6
:1056B0005AE220E030E062CF2F923F924F925F9209
:1056C0006F927F928F929F92AF92BF92CF92DF9212
:1056D000EF92FF920F931F93DF93CF93CDB7DEB777
:1056E000C754D0400FB6F894DEBF0FBECDBF582EC2
:1056F000492EFB013A01190184A595A5998B888B48
:1057000027EE38E03F872E8786A58A8B87A58B8B6F
:1057100080A991A9A2A9B3A98C8B9D8BAE8BBF8BBD
:1057200084A995A9A6A9B7A9888F998FAA8FBB8F9D
:1057300080AD91ADA2ADB3AD8C8F9D8FAE8FBF8F7D
:1057400084AD88A3FD9681919191A191B19189A396
:105750009AA3ABA3BCA381919191A191B1918DA387
:105760009EA3AFA3B8A7808191819AA789A71EA6FF
:105770001DA63CA72BA718AA7A018E01025F1F4F16
:105780003BE2A32EB12CAC0EBD1E4E010894811C31
:10579000911C33C0D7018C918F3221F40894E11C05
:1057A000F11C2BC0422F4E194D3008F04CE0C42E96
:1057B000DD24C401B701A6010E944402F401EC0DEE
:1057C000FD1D1082C50120D6C501B801A40121E04C
:1057D0000E944E37882351F4E52DF42D1382128256
:1057E00087EE98E091838083158265C0EC0CFD1CE8
:1057F000C8010AD6C50158018C01C7016FE270E0EB
:105800000E941B029C01009729F6E618F708F10197
:10581000F182E082E52DF42DD80112968D919C91B4
:1058200013979383828387EE98E091838083149605
:105830008C911497848315968C9115978583169671
:105840002D913D914D915C91199726833783408727
:1058500051871A962D913D914D915C911D9722870C
:105860003387448755871E962D913D914D915C91CC
:10587000519726873787408B518B52968C91529740
:10588000828B53962D913D914D915C915697238B30
:10589000348B458B568B57962D913D914D915C9154
:1058A0005A97278B308F418F528F5B968D919C91A9
:1058B0005C97948F838F852D942DC95BDF4F0FB636
:1058C000F894DEBF0FBECDBFCF91DF911F910F9136
:1058D000FF90EF90DF90CF90BF90AF909F908F9010
:1058E0007F906F905F904F903F902F9008959F9280
:1058F000AF92BF92CF92DF92EF92FF920F931F93DE
:10590000DF93CF93CDB7DEB7C657D0400FB6F8942C
:10591000DEBF0FBECDBFC82E992E8A01D22E43E026
:10592000A42EB12CAC0EBD1EC501A8019E012F5F97
:105930003F4FC2DEE980FA80E00EF11EF701808160
:1059400047EE58E02885882309F03FC08D819E816D
:105950009BA38AA359A348A38F818CA32DA38985D8
:105960009A85AB85BC858EA39FA3A8A7B9A78D8573
:105970009E85AF85B8898AA79BA7ACA7BDA7898953
:105980009A89AB89BC898EA79FA7A8ABB9AB8D8933
:105990008AAB8E899F89A88DB98D8BAB9CABADAB43
:1059A000BEAB8A8D9B8DAC8DBD8D8FAB98AFA9AFF3
:1059B000BAAF8E8D9F8D9CAF8BAF8C2D992DBE0174
:1059C000605E7F4F44EB58E09CC0FE01FF96118261
:1059D00010825EAF4DAFFE01EE5BFF4F10822223BF
:1059E000A9F02250CE01CD96223048F46FE270E14A
:1059F000A7012D2D0E944E37882371F407C0B501F1
:105A0000A7012D2D0E944E37882321F48C2D992D2E
:105A1000FFDB78C0C501F8D4F6E0DF2251F0FE01CB
:105A2000E05BFF4F4081518162817381CE01CD9651
:105A3000DED39E01265A3F4FFE01FF968081918161
:105A4000F9019383828387EE98E091838083FE013E
:105A5000EF5BFF4F8081F9018483FE01EE5BFF4F16
:105A60008081F9018583FE01ED5BFF4F808191818B
:105A7000A281B381F90186839783A087B187FE0154
:105A8000E95BFF4F80819181A281B381F901828717
:105A90009387A487B587FE01E55BFF4F80819181E5
:105AA000A281B381F90186879787A08BB18BFE0114
:105AB000E15BFF4F8081F901828BFE01E05BFF4FCC
:105AC00080819181A281B381F901838B948BA58B15
:105AD000B68BFE01EC5AFF4F80819181A281B38188
