:100000006DC1000098C1000096C1000094C10000BD
:1000100092C1000090C100008EC100008CC10000A0
:100020008AC1000088C1000086C1000084C10000B0
:1000300082C1000080C100007EC100007CC10000C0
:100040007AC1000078C1000076C1000074C10000D0
:1000500072C1000070C100006EC100000C94D53F59
:100060006AC100000C94E6420C943A4464C100005A
:1000700062C1000060C100005EC100005CC1000000
:100080005AC1000058C1000056C1000054C1000010
:100090000C9426430C9479444EC100000C94243EE9
:1000A0004AC1000048C1000046C1000044C1000030
:1000B00042C1000040C100003EC100003CC1000040
:1000C0003AC1000038C1000036C100000C946643FC
:1000D0000C94B84430C100000C94A6430C94F7442F
:1000E0002AC100005254435F75692D2D3E6163742F
:1000F000696F6E2D2D3E43616E63656C00467265BF
:100100006520536372616D203D005254435F7569F1
:100110002D2D3E616374696F6E2D2D3E7570646187
:100120007465004D61696E5F55492D2D3E536574B0
:1001300055702D2D3E466C6F775F73656E736F72D1
:10014000004D61696E5F55492D2D3E5365745570A4
:100150002D2D3E54656D705F73656E736F7200690F
:100160006E697469616C697A6174696F6E20646F1D
:100170006E652E00696E697469616C697A61746973
:100180006F6E206661696C656421006572726F72C2
:10019000206F70656E696E6720534446696C650018
:1001A0007C3C3E5E2B3D3F2F5B5D3B2C2A225C005E
:1001B00000002100240027002A002D003000330019
:1001C00001010000040107010A01000022002500CE
:1001D00028002B002E003100340002010000050130
:1001E00008010B01000020002300260029002C003C
:1001F0002F0032000001000003010601090105057E
:100200000505070508080808020202020A0A08088C
:1002100004040404010101010101010103030303BA
:1002200003030303040707070C0C0C0C0C0C0C0C49
:100230000202020206060606060606060B0B0B0B5A
:100240000B0B0B0B0102102020080810204010207F
:10025000408002010201080402010102040810208A
:100260004080804020100804020180040201804088
:1002700020100804020108040201010204081020F1
:10028000408001020408102040800000090A020892
:100290000B0C0D0706030401000000000000000025
:1002A000000000000000000000000000000000004E
:1002B00000000000000011100F000000000000000E
:1002C000000000000000000000000000000000002E
:1002D000E0088225BE28CA3C6946DB0811241FBEFF
:1002E000CFEFD1E2DEBFCDBF00E00CBF18E0A0E051
:1002F000B2E0EAE0FDE900E00BBF02C007900D921A
:10030000A43BB107D9F71BBE15E1A4EBB8E001C0CF
:100310001D92A933B107E1F712E0CAEDD2E004C0A3
:100320002297FE010E946A4EC03DD107C9F70E9484
:10033000A0470C94794E64CE1F93FC01992788271F
:10034000BC01E89411911032E9F3193010F01E301D
:10035000C8F31B3249F01D3241F4689405C080D0C7
:10036000610F711D811D911D119110531A30B8F349
:100370003EF490958095709561957F4F8F4F9F4F7C
:100380001F910895FB01DC0104C08D91019080193B
:1003900021F441505040C8F7881B990B0895FB0188
:1003A000DC0102C001900D9241505040D8F70895F1
:1003B000FC018191861721F08823D9F799270895A8
:1003C0003197CF010895FB01DC018D9101908019D7
:1003D0000110D9F3990B0895FB01DC0101900D92F6
:1003E0000020E1F70895FB01DC014150504030F05E
:1003F0008D910190801919F40020B9F7881B990B91
:100400000895FB01DC014150504048F001900D92ED
:100410000020C9F701C01D9241505040E0F70895F7
:10042000FB019F01E8944230C4F04532B4F44A30F5
:1004300029F497FB1EF4909581959F4F642F7727A1
:100440000E94544E805D8A330CF0895D8193CB010C
:100450000097A1F716F45DE251931082C9012AC0FA
:10046000592F482F372F262F660F771F881F991F68
:10047000660F771F881F991F620F731F841F951FB8
:10048000660F771F881F991F0895FB019F01423057
:1004900074F0453264F4642F77270E94544E805DD7
:1004A0008A330CF0895D8193CB010097A1F710820C
:1004B000C90100C0DC01FC01672F71917723E1F7CE
:1004C000329704C07C916D9370836291AE17BF0721
:1004D000C8F30895EF92FF920F931F937C0100E001
:1004E00012E00A96B8010E94104CC7014096B8016C
:1004F0000E94104CC7014696B8010E94104CC701DB
:100500004C96B8010E94104CC7018E96B8010E940B
:10051000104CC701C496B8010E94104CC701CA967E
:10052000B8010E94104CC701805C9F4FB8010E9427
:10053000104CF70117A216A21F910F91FF90EF9098
:100540000895CF92EF920F93CF93DF93813091056F
:1005500009F08CC56F5F7F4F09F027C684EB98E0E8
:100560000E945C278FEC98E00E947B3C8DE899E02C
:1005700068E049E024E005E056E0E52E37E0C32ED0
:100580000E94242789EA99E060E072E00E94104C02
:100590008FEA99E060E072E00E94104C85EB99E0F0
:1005A00060E072E00E94104C8DEB99E061E072E037
:1005B0000E94104C83EC99E068E372E00E94104CBA
:1005C00089EC99E061E872E00E94104C8FEC99E0B0
:1005D0006AEC72E00E94104C85ED99E060EF72E0E9
:1005E0000E94104C8BED99E067E473E00E94104C80
:1005F00081EE99E06BE773E00E94104C87EE99E082
:1006000065EA73E00E94104C8DEE99E06DEC73E0AA
:100610000E94104C83EF99E066EF73E00E94104C4B
:1006200089EF99E06CE374E00E94104C8AE09AE054
:1006300051DF81E59AE062E774E00E94104C87E5A3
:100640009AE065E774E00E94104C8DE59AE068E757
:1006500074E00E94104C83E69AE06BE774E00E941D
:10066000104C89E69AE06EE774E00E94104C8FE629
:100670009AE061E874E00E94104C85E79AE064E833
:1006800074E00E94104C8BE79AE067E874E00E94E7
:10069000104C81E89AE06AE874E00E94104C87E808
:1006A0009AE06DE874E00E94104C8DE89AE060E9F1
:1006B00074E00E94104C83E99AE063E974E00E94C0
:1006C000104C89E99AE062E774E00E94104C8FE9CF
:1006D0009AE065E774E00E94104C85EA9AE068E7CA
:1006E00074E00E94104C8BEA9AE06BE774E00E9481
:1006F000104C81EB9AE06EE774E00E94104C87EB9F
:100700009AE061E874E00E94104C8DEB9AE064E896
:1007100074E00E94104C83EC9AE067E874E00E9459
:10072000104C89EC9AE06AE874E00E94104C8FEC5F
:100730009AE06DE874E00E94104C85ED9AE060E963
:1007400074E00E94104C8BED9AE063E974E00E9423
:10075000104C81EE9AE066E974E00E94104C87EE3E
:100760009AE069E974E00E94104C8DEE9AE06CE921
:1007700074E00E94104C83EF9AE06FE974E00E94ED
:10078000104C89EF9AE062EA74E00E94104C8FEFFF
:100790009AE065EA74E00E94104C85E09BE068EA0C
:1007A00074E00E94104C8BE09BE06BEA74E00E94C6
:1007B000104C81E19BE06EEA74E00E94104C87E1EE
:1007C0009BE061EB74E00E94104C8DE19BE064EBD8
:1007D00074E00E94104C83E29BE067EB74E00E949F
:1007E000104C89E29BE06AEB74E00E94104C8FE2AF
:1007F0009BE06DEB74E00E94104C85E39BE060ECA5
:1008000074E00E94104C8BE39BE063EC74E00E9468
:10081000104C81E49BE066EC74E00E94104C87E48D
:100820009BE069EC74E00E94104C8DE49BE06CEC62
:1008300074E00E94104C83E59BE06FEC74E00E9432
:10084000104C89E59BE061ED74E00E94104C8FE54F
:100850009BE063ED74E00E94104C85E69BE065ED43
:1008600074E00E94104C8BE69BE067ED74E00E9400
:10087000104C81E79BE069ED74E00E94104C87E723
:100880009BE06BED74E00E94104C8DE79BE06DEDFA
:1008900074E00E94104C83E89BE06FED74E00E94CE
:1008A000104C89E89BE061EE74E00E94104C8FE8E8
:1008B0009BE063EE74E00E94104C85E99BE062E7E8
:1008C00074E00E94104C8BE99BE065E774E00E94A5
:1008D000104C81EA9BE068E774E00E94104C87EAC4
:1008E0009BE06BE774E00E94104C8DEA9BE06EE7A2
:1008F00074E00E94104C83EB9BE061E874E00E947E
:10090000104C89EB9BE064E874E00E94104C8FEB84
:100910009BE067E874E00E94104C85EC9BE06AE87D
:1009200074E00E94104C8BEC9BE06DE874E00E9438
:10093000104C81ED9BE060E974E00E94104C87ED63
:100940009BE063E974E00E94104C8DED9BE066E94A
:1009500074E00E94104C83EE9BE069E974E00E9411
:10096000104C89EE9BE06CE974E00E94104C8FEE15
:100970009BE06FE974E00E94104C85EF9BE062EA17
:1009800074E00E94104C8BEF9BE065EA74E00E94DB
:10099000104C81E09CE068EA74E00E94104C87E013
:1009A0009CE06BEA74E00E94104C8DE09CE06EEAE3
:1009B00074E00E94104C83E19CE061EB74E00E94C3
:1009C000104C89E19CE064EB74E00E94104C8FE1D4
:1009D0009CE063EE74E00E94104C85E29CE062E7CC
:1009E00074E00E94104C8BE29CE065E774E00E948A
:1009F000104C81E39CE068E774E00E94104C87E3B0
:100A00009CE06BE774E00E94104C8DE39CE06EE785
:100A100074E00E94104C83E49CE061E874E00E9462
:100A2000104C89E49CE064E874E00E94104C8FE470
:100A30009CE067E874E00E94104C85E59CE06AE861
:100A400074E00E94104C8BE59CE06DE874E00E941D
:100A5000104C81E69CE060E974E00E94104C87E64F
:100A60009CE063E974E00E94104C8DE69CE066E92E
:100A700074E00E94104C83E79CE069E974E00E94F6
:100A8000104C89E79CE06CE974E00E94104C8FE701
:100A90009CE06FE974E00E94104C85E89CE062EAFB
:100AA00074E00E94104C8BE89CE065EA74E00E94C0
:100AB000104C81E99CE068EA74E00E94104C87E9E0
:100AC0009CE06BEA74E00E94104C8DE99CE06EEAB9
:100AD00074E00E94104C83EA9CE061EB74E00E9499
:100AE000104C89EA9CE064EB74E00E94104C8FEAA1
:100AF0009CE067EB74E00E94104C85EB9CE06AEB95
:100B000074E00E94104C8BEB9CE06DEB74E00E9453
:100B1000104C81EC9CE060EC74E00E94104C87EC7F
:100B20009CE063EC74E00E94104C8DEC9CE066EC61
:100B300074E00E94104C83ED9CE069EC74E00E942C
:100B4000104C89ED9CE06CEC74E00E94104C8FED31
:100B50009CE066EE74E00E94104C85EE9CE069EE2D
:100B600074E00E94104C8BEE9CE06CEE74E00E94EE
:100B7000104C81EF9CE06FEE74E00E94104C87EF08
:100B80009CE062EF74E00E94104C8DEF9CE065EFFA
:100B900074E00E94104C83E09DE068EF74E00E94D6
:100BA000104C89E09DE06BEF74E00E94104C8FE0E8
:100BB0009DE06EEF74E00E94104C85E19DE061E0E5
:100BC00075E00E94104C8BE19DE064E075E00E94AE
:100BD000104C81E29DE067E075E00E94104C87E2D6
:100BE0009DE06AE075E00E94104C8DE29DE06DE0B2
:100BF00075E00E94104C83E39DE060E175E00E9487
:100C0000104C89E39DE063E175E00E94104C8FE396
:100C10009DE066E175E00E94104C85E49DE069E18D
:100C200075E00E94104C8BE49DE06CE175E00E9441
:100C3000104C81E59DE06FE175E00E94104C87E566
:100C40009DE062E275E00E94104C8DE59DE065E25A
:100C500075E00E94104C83E69DE068E275E00E941A
:100C6000104C89E69DE06BE275E00E94104C8FE627
:100C70009DE06EE275E00E94104C85E79DE061E327
:100C800075E00E94104C8BE79DE064E375E00E94E4
:100C9000104C81E89DE067E375E00E94104C87E806
:100CA0009DE06FEC74E00E94104C8DE89DE061EDDA
:100CB00074E00E94104C83E99DE063ED74E00E94B3
:100CC000104C89E99DE065ED74E00E94104C8FE9BD
:100CD0009DE067ED74E00E94104C85EA9DE069EDAF
:100CE00074E00E94104C8BEA9DE06BED74E00E9472
:100CF000104C81EB9DE06DED74E00E94104C87EB91
:100D00009DE06FED74E00E94104C8DEB9DE061EE74
:100D100074E00E94104C83EC9DE06AE375E00E9451
:100D2000104C89EC9DE06CE375E00E94104C8FEC58
:100D30009DE06EE375E00E94104C85ED9DE060E45F
:100D400075E00E94104C8BED9DE062E475E00E941E
:100D5000104C81EE9DE064E475E00E94104C87EE3B
:100D60009DE066E475E00E94104C8DEE9DE068E425
:100D700075E00E94104C83EF9DE06AE475E00E94EC
:100D8000104C89EF9DE06CE475E00E94104C8FEFF1
:100D90009DE06EE475E00E94104C85E09EE060E509
:100DA00075E00E94104C8BE09EE062E575E00E94C9
:100DB000104C81E19EE064E575E00E94104C87E1F3
:100DC0009EE066E575E00E94104C8DE19EE068E5CE
:100DD00075E00E94104C83E29EE06AE575E00E9497
:100DE000104C89E29EE06CE575E00E94104C8FE2A9
:100DF0009EE06EE575E00E94104C85E39EE060E6A3
:100E000075E00E94104C8BE39EE062E675E00E9464
:100E1000104C81E49EE064E675E00E94104C87E48B
:100E20009EE066E675E00E94104C8DE49EE068E668
:100E300075E00E94104C83E59EE06AE675E00E9432
:100E4000104C89E59EE06CE675E00E94104C8FE541
:100E50009EE06EE675E00E94104C85E69EE060E73D
:100E600075E00E94104C8BE69EE062E775E00E9400
:100E7000104C81E79EE064E775E00E94104C87E724
:100E80009EE066E775E00E94104C8DE79EE068E703
:100E900075E00E94104C83E89EE06AE775E00E94CE
:100EA000104C89E89EE06CE775E00E94104C8FE8DA
:100EB0009EE06EE775E00E94104C85E99EE060E8D8
:100EC00075E00E94104C8BE99EE062E875E00E949C
:100ED000104C81EA9EE064E875E00E94104C87EABD
:100EE0009EE066E875E00E94104C8DEA9EE068E89E
:100EF00075E00E94104C83EB9EE06AE875E00E946A
:100F0000104C89EB9EE06CE875E00E94104C8FEB72
:100F10009EE06EE875E00E94104C85EC9EE060E972
:100F200075E00E94104C8BEC9EE062E975E00E9437
:100F3000104C81ED9EE064E975E00E94104C87ED55
:100F40009EE066E975E00E94104C8DED9EE068E938
:100F500075E00E94104C83EE9EE06AE975E00E9405
:100F6000104C89EE9EE06CE975E00E94104C8FEE0B
:100F70009EE06EE975E00E94104C85EF9EE060EA0D
:100F800075E00E94104C8BEF9EE06FEC74E00E94C5
:100F9000104C81E09FE061ED74E00E94104C87E00E
:100FA0009FE063ED74E00E94104C8DE09FE065EDE2
:100FB00074E00E94104C83E19FE067ED74E00E94B2
:100FC000104C89E19FE069ED74E00E94104C8FE1C4
:100FD0009FE06BED74E00E94104C85E29FE06DEDA8
:100FE00074E00E94104C8BE29FE06FED74E00E9471
:100FF000104C81E39FE061EE74E00E94104C87E3A7
:101000009FE062EA75E00E94104C8DE39FE064EA85
:1010100075E00E94104C83E49FE066EA75E00E9450
:10102000104C89E49FE06AEA75E00E94104C8FE45E
:101030009FE06EEA75E00E94104C85E59FE062EB50
:1010400075E00E94104C8BE59FE066EB75E00E9416
:10105000104C81E69FE06AEB75E00E94104C87E639
:101060009FE06EEB75E00E94104C9FC0892B09F049
:101070009CC06F5F7F4F09F098C0C7E6DFE0CE01EC
:101080000E94094D26978FE0CD33D807C1F7CDE3F5
:10109000DFE0CE010E94094D26978DE0CD3BD807B9
:1010A000C1F7CDEBDDE0CE010E94094D26978DE022
:1010B000C138D807C1F7C1E8DDE0CE010E94094D73
:1010C00026978CE0C931D807C1F7C9E1DCE0CE0131
:1010D0000E94094D26978BE0C938D807C1F7C9E8A7
:1010E000DBE0CE010E94094D26978BE0CD34D80776
:1010F000C1F7CDE4DBE0CE010E94094D26978AE0DE
:10110000C339D807C1F7C3E9DAE0CE010E94094D1F
:1011100026978AE0CB34D807C1F78AE49AE00E9488
:10112000094D84E49AE00E94094D8EE39AE00E9402
:10113000094D88E39AE00E94094D86E29AE00E94F8
:10114000094D80E29AE00E94094D8AE19AE00E94EE
:10115000094D84E19AE00E94094D89EF99E00E94CF
:10116000094D83EF99E00E94094DCDEED9E0CE0103
:101170000E94094D269789E0CF3CD807C1F7CFECF4
:10118000D9E0CE010E94094D269789E0C73BD807D8
:10119000C1F785EB99E00E94094D8FEA99E00E9422
:1011A000094D89EA99E00E94094DDF91CF910F9195
:1011B000EF90CF90089580E090E06FEF7FEFC1C98E
:1011C00081E090E06FEF7FEFBCC9BC018CEA94E155
:1011D0000C943F48EF92FF920F931F93DF93CF93AE
:1011E000CDB7DEB7C257D0400FB6F894DEBF0FBE02
:1011F000CDBF82EA99E00E94EC24882309F47DC1E6
:10120000CE01019660E072E00E94104CB7E0EB2E38
:10121000F12CEC0EFD1EC70160E072E00E94104C44
:101220008E01035F1F4FC8016091A4094AE00E942C
:10123000574CC701B8010E94E44CC8010E94094DF7
:101240008B859C85019791F48E010D5E1F4FC8011F
:1012500060E30E94874CC801B7010E94DD4BBC01CE
:10126000C7010E94E44CC8010E940E4D8E01075E2A
:101270001F4FA7E0EA2EF12CEC0EFD1EC801B701AE
:101280000E94014DC80162EC75E00E94C34BBC0195
:1012900089EA99E00E94E44CC8010E940E4D8E013B
:1012A000015E1F4FC8016091A3094AE00E94574C9C
:1012B000C701B8010E94E44CC8010E94094D8B850A
:1012C0009C85019791F48E010B5D1F4FC80160E36F
:1012D0000E94874CC801B7010E94DD4BBC01C701C9
:1012E0000E94E44CC8010E940E4D8E01055D1F4F07
:1012F000C80169EA79E00E94014DF7E0EF2EF12C78
:10130000EC0EFD1EC801B7010E94DD4B62EC75E0DA
:101310000E94C34BBC0189EA99E00E94E44CC801D9
:101320000E940E4D8E010F5C1F4FC8016091A209F3
:101330004AE00E94574CC701B8010E94E44CC80122
:101340000E94094D8B859C85019791F48E01095C63
:101350001F4FC80160E30E94874CC801B7010E947B
:10136000DD4BBC01C7010E94E44CC8010E940E4D38
:101370008E01035C1F4FC80169EA79E00E94014DAC
:10138000E7E0EE2EF12CEC0EFD1EC801B7010E9425
:10139000DD4BBC0189EA99E00E94E44CC8010E943F
:1013A0000E4D8E010D5B1F4FC8016091A7094AE0E9
:1013B0000E94574CC701B8010E94E44CC8010E942A
:1013C000094D8B859C85019791F48E01075B1F4F1A
:1013D000C80160E30E94874CC801B7010E94DD4B41
:1013E000BC01C7010E94E44CC8010E940E4D8E0151
:1013F000015B1F4F77E0E72EF12CEC0EFD1EC801BC
:10140000B7010E94014DC80164EC75E00E94C34B16
:10141000BC018FEA99E00E94E44CC8010E940E4D85
:101420008E010B5A1F4FC8016091A6094AE00E9425
:10143000574CC701B8010E94E44CC8010E94094DF5
:101440008B859C85019791F48E01055A1F4FC80129
:1014500060E30E94874CC801B7010E94DD4BBC01CC
:10146000C7010E94E44CC8010E940E4D8E010F5925
:101470001F4FC8016FEA79E00E94014D67E0E62E38
:10148000F12CEC0EFD1EC801B7010E94DD4B64EC8F
:1014900075E00E94C34BBC018FEA99E00E94E44CC6
:1014A000C8010E940E4D8E0109591F4FC8016FEAF5
:1014B00079E00E94014D6091A80970E06E54784F68
:1014C000C8010E94A54BBC018FEA99E00E94E44C40
:1014D000C8010E940E4D6091A50986E0689FB00189
:1014E00011246D5B704F85EB99E00E94E44CC701BD
:1014F0000E94094DCE01019616C08091700F88237D
:1015000039F08CEA94E166EC75E00E9465490DC003
:101510008E0103591F4FC80165EF75E00E94104C02
:10152000C80153DEC8010E94094DCE58DF4F0FB6E7
:10153000F894DEBF0FBECDBFCF91DF911F910F9109
:10154000FF90EF9008954F925F926F927F928F92EB
:101550009F92AF92BF92CF92DF92EF92FF920F9342
:101560001F93DF93CF93CDB7DEB7A4970FB6F89450
:10157000DEBF0FBECDBF3C01A62E8E010F5F1F4FF9
:10158000C80160E072E00E94104CCE01079660E056
:1015900072E00E94104CBAE04B2E512C460C571CA6
:1015A000F30126A137A1ADE0EA2EF12CEC0EFD1ED1
:1015B000C701B201A9012F5F3F4F0E949F4CC80194
:1015C000B7010E94E44CC7010E94094DEE24FF249C
:1015D000C02E012FB701660F771F6E0D7F1D660F9E
:1015E000771F6D53724F8C2D902F0E94994A88233C
:1015F00041F4F0E4EF16F10421F00894E11CF11C31
:10160000E9CFAA2051F08FE3E816F1041CF080E046
:1016100090E00BC0C701019608C0E114F10419F471
:101620008FE390E002C0C701019757E0852E912C0F
:101630008C0E9D1EBC01660F771F680F791F660F09
:10164000771F6D53724FC4010E94E44C23E1A22E18
:10165000B12CAC0EBD1EF30126A137A1C501B2010C
:1016600040E050E00E949F4C99E1C92ED12CCC0E55
:10167000DD1EC601B5010E94014DC601B4010E94E4
:10168000DD4B8C018FE1E82EF12CEC0EFD1EF301F9
:1016900046A157A14F5F5F4F26853785C701B2012D
:1016A0000E949F4CC801B7010E94DD4BBC018E0116
:1016B0000F5F1F4FC8010E94E44CC7010E94094DF3
:1016C000C6010E940E4DC5010E94094DC201B8011C
:1016D0000E94E44CC4010E94094DC8010E94094DBA
:1016E000A4960FB6F894DEBF0FBECDBFCF91DF91A9
:1016F0001F910F91FF90EF90DF90CF90BF90AF9030
:101700009F908F907F906F905F904F9008954F9231
:101710005F926F927F928F929F92AF92BF92CF9281
:10172000DF92EF92FF920F931F93DF93CF93CDB78A
:10173000DEB7A4970FB6F894DEBF0FBECDBF3C0155
:10174000D62E7E010894E11CF11CC70160E072E016
:101750000E94104CCE01079660E072E00E94104C8F
:101760006AE0462E512C460C571CF30126A137A1E6
:101770008E01035F1F4FC801B201A9012F5F3F4FC8
:101780000E949F4CC701B8010E94E44CC8010E940E
:10179000094DC7010E948B49DD2049F06930710570
:1017A0001CF080E090E00BC0CB01019608C016163B
:1017B00017061CF089E090E002C0CB01019757E0CA
:1017C000852E912C8C0E9D1EBC01660F771F680F15
:1017D000791F660F771F6957724FC4010E94E44C4E
:1017E00023E1A22EB12CAC0EBD1EF30126A137A120
:1017F000C501B20140E050E00E949F4C99E1C92E22
:10180000D12CCC0EDD1EC601B5010E94014DC601D2
:10181000B4010E94DD4B8C018FE1E82EF12CEC0E1F
:10182000FD1EF30146A157A14F5F5F4F2685378507
:10183000C701B2010E949F4CC801B7010E94DD4B55
:10184000BC018E010F5F1F4FC8010E94E44CC7010D
:101850000E94094DC6010E940E4DC5010E94094D0E
:10186000C201B8010E94E44CC4010E94094DC801A4
:101870000E94094DA4960FB6F894DEBF0FBECDBFEF
:10188000CF91DF911F910F91FF90EF90DF90CF905C
:10189000BF90AF909F908F907F906F905F904F9090
:1018A00008954F925F926F927F928F929F92AF9224
:1018B000BF92CF92DF92EF92FF920F931F93DF932D
:1018C000CF93CDB7DEB7A4970FB6F894DEBF0FBEA7
:1018D000CDBF3C01D62E7E010894E11CF11CC7014E
:1018E00060E072E00E94104CCE01079660E072E06A
:1018F0000E94104C0AE0402E512C460C571CF3015C
:1019000026A137A18E01035F1F4FC801B201A901B3
:101910002E5F3F4F0E949F4CC701B8010E94E44CCC
:10192000C8010E94094DC7010E948B49DD2049F082
:101930006B3371051CF080E090E00BC0CB01019689
:1019400008C0161617061CF08BE390E002C0CB010E
:10195000019717E0812E912C8C0E9D1EBC01660F05
:10196000771F680F791F660F771F615E734FC40181
:101970000E94E44CF3E1AF2EB12CAC0EBD1EF3017E
:1019800026A137A1C501B20140E050E00E949F4C62
:10199000E9E1CE2ED12CCC0EDD1EC601B5010E9490
:1019A000014DC601B4010E94DD4B8C017FE1E72EA1
:1019B000F12CEC0EFD1EF30146A157A14E5F5F4FC7
:1019C00026853785C701B2010E949F4CC801B70127
:1019D0000E94DD4BBC018E010F5F1F4FC8010E94AA
:1019E000E44CC7010E94094DC6010E940E4DC5017D
:1019F0000E94094DC201B8010E94E44CC4010E943A
:101A0000094DC8010E94094DA4960FB6F894DEBF97
:101A10000FBECDBFCF91DF911F910F91FF90EF903F
:101A2000DF90CF90BF90AF909F908F907F906F90FE
:101A30005F904F9008954F925F926F927F928F9236
:101A40009F92AF92BF92CF92DF92EF92FF920F934D
:101A50001F93DF93CF93CDB7DEB7A4970FB6F8945B
:101A6000DEBF0FBECDBF3C01D62E7E010894E11C27
:101A7000F11CC70160E072E00E94104CCE01079695
:101A800060E072E00E94104C6AE0462E512C460C39
:101A9000571CF30126A137A18E01035F1F4FC80118
:101AA000B201A9012E5F3F4F0E949F4CC701B801B0
:101AB0000E94E44CC8010E94094DC7010E948B4955
:101AC000DD2049F0673171051CF080E090E00BC02B
:101AD000CB01019608C0161617061CF087E190E0AE
:101AE00002C0CB01019757E0852E912C8C0E9D1ED4
:101AF000BC01660F771F680F791F660F771F61574C
:101B0000744FC4010E94E44C23E1A22EB12CAC0E10
:101B1000BD1EF30126A137A1C501B20140E050E08E
:101B20000E949F4C99E1C92ED12CCC0EDD1EC6011E
:101B3000B5010E94014DC601B4010E94DD4B8C012C
:101B40008FE1E82EF12CEC0EFD1EF30146A157A10A
:101B50004E5F5F4F26853785C701B2010E949F4CBB
:101B6000C801B7010E94DD4BBC018E010F5F1F4F02
:101B7000C8010E94E44CC7010E94094DC6010E94A1
:101B80000E4DC5010E94094DC201B8010E94E44CEE
:101B9000C4010E94094DC8010E94094DA4960FB6C8
:101BA000F894DEBF0FBECDBFCF91DF911F910F9193
:101BB000FF90EF90DF90CF90BF90AF909F908F906D
:101BC0007F906F905F904F9008954F925F926F92C9
:101BD0007F928F929F92AF92BF92CF92DF92EF92BD
:101BE000FF920F931F93DF93CF93CDB7DEB7A497E8
:101BF0000FB6F894DEBF0FBECDBF3C01A62E8E01FE
:101C00000F5F1F4FC80160E072E00E94104CCE01D0
:101C1000079660E072E00E94104C5AE0452E512C6D
:101C2000460C571CF30126A137A14DE0E42EF12C00
:101C3000EC0EFD1EC701B201A9012D5F3F4F0E94AE
:101C40009F4CC801B7010E94E44CC7010E94094D96
:101C5000EE24FF24C02E012FB701660F771F6E0DF3
:101C60007F1D660F771F6D5B704F8C2D902F0E942C
:101C7000994A882341F4F6E0EF16F10421F0089424
:101C8000E11CF11CE9CFAA2051F086E0E816F1042E
:101C90001CF080E090E00BC0C701019608C0E11481
:101CA000F10419F486E090E002C0C701019717E043
:101CB000812E912C8C0E9D1EBC01660F771F680F24
:101CC000791F660F771F6D5B704FC4010E94E44C53
:101CD000F3E1AF2EB12CAC0EBD1EF30126A137A14E
:101CE000C501B20140E050E00E949F4CE9E1CE2ED8
:101CF000D12CCC0EDD1EC601B5010E94014DC601DE
:101D0000B4010E94DD4B8C017FE1E72EF12CEC0E3B
:101D1000FD1EF30146A157A14D5F5F4F2685378514
:101D2000C701B2010E949F4CC801B7010E94DD4B60
:101D3000BC018E010F5F1F4FC8010E94E44CC70118
:101D40000E94094DC6010E940E4DC5010E94094D19
:101D5000C201B8010E94E44CC4010E94094DC801AF
:101D60000E94094DA4960FB6F894DEBF0FBECDBFFA
:101D7000CF91DF911F910F91FF90EF90DF90CF9067
:101D8000BF90AF909F908F907F906F905F904F909B
:101D900008954F925F926F927F928F929F92AF922F
:101DA000BF92CF92DF92EF92FF920F931F93DF9338
:101DB000CF93CDB7DEB7A4970FB6F894DEBF0FBEB2
:101DC000CDBF3C01D62E7E010894E11CF11CC70159
:101DD00060E072E00E94104CCE01079660E072E075
:101DE0000E94104C1AE0412E512C460C571CF30156
:101DF00026A137A18E01035F1F4FC801B201A901BF
:101E00002F5F3F4F0E949F4CC701B8010E94E44CD6
:101E1000C8010E94094DC7010E948B49DD2049F08D
:101E2000693071051CF080E090E00BC0CB01019699
:101E300008C0161617061CF089E090E002C0CB011E
:101E40000197B7E08B2E912C8C0E9D1EBC01660F66
:101E5000771F680F791F660F771F6D5A744FC40183
:101E60000E94E44CE3E1AE2EB12CAC0EBD1EF3019A
:101E700026A137A1C501B20140E050E00E949F4C6D
:101E800079E1C72ED12CCC0EDD1EC601B5010E9412
:101E9000014DC601B4010E94DD4B8C016FE1E62EBD
:101EA000F12CEC0EFD1EF30146A157A14F5F5F4FD1
:101EB00026853785C701B2010E949F4CC801B70132
:101EC0000E94DD4BBC018E010F5F1F4FC8010E94B5
:101ED000E44CC7010E94094DC6010E940E4DC50188
:101EE0000E94094DC201B8010E94E44CC4010E9445
:101EF000094DC8010E94094DA4960FB6F894DEBFA3
:101F00000FBECDBFCF91DF911F910F91FF90EF904A
:101F1000DF90CF90BF90AF909F908F907F906F9009
:101F20005F904F9008954F925F926F927F928F9241
:101F30009F92AF92BF92CF92DF92EF92FF920F9358
:101F40001F93DF93CF93CDB7DEB7A4970FB6F89466
:101F5000DEBF0FBECDBF3C01D62E7E010894E11C32
:101F6000F11CC70160E072E00E94104CCE010796A0
:101F700060E072E00E94104C6AE0462E512C460C44
:101F8000571CF30126A137A18E01035F1F4FC80123
:101F9000B201A9012E5F3F4F0E949F4CC701B801BB
:101FA0000E94E44CC8010E94094DC7010E948B4960
:101FB0009B0121503040DD2041F02E3131051CF0D5
:101FC00080E090E00AC0CB0108C0121613061CF096
:101FD0008EE190E002C0C901019757E0852E912C57
:101FE0008C0E9D1EBC01660F771F680F791F660F50
:101FF000771F6756754FC4010E94E44C23E1A22E5F
:10200000B12CAC0EBD1EF30126A137A1C501B20152
:1020100040E050E00E949F4C99E1C92ED12CCC0E9B
:10202000DD1EC601B5010E94014DC601B4010E942A
:10203000DD4B8C018FE1E82EF12CEC0EFD1EF3013F
:1020400046A157A14E5F5F4F26853785C701B20174
:102050000E949F4CC801B7010E94DD4BBC018E015C
:102060000F5F1F4FC8010E94E44CC7010E94094D39
:10207000C6010E940E4DC5010E94094DC201B80162
:102080000E94E44CC4010E94094DC8010E94094D00
:10209000A4960FB6F894DEBF0FBECDBFCF91DF91EF
:1020A0001F910F91FF90EF90DF90CF90BF90AF9076
:1020B0009F908F907F906F905F904F9008950F93B7
:1020C0001F938823D1F08FEC98E048EE53E060E056
:1020D00070E02AEE38E003E010E00E946E3C9927A1
:1020E00087FD90959093BC098093BB098CEA94E19D
:1020F00065E276E00E94654906C08FEC98E0609149
:10210000BB090E94D43B1F910F9108950F931F9319
:1021100080916D0F6623C9F0882309F58FEC98E054
:1021200044EF51E060E070E021EF32E102E010E0C6
:102130000E946E3C992787FD909590936F0F809336
:102140006E0F81E080936D0F0AC0813041F48FECF7
:1021500098E060916E0F0E94D43B10926D0F1F911A
:102160000F9108958091000A9091010A9093050AB9
:102170008093040A80E00E9497409C019093010A9A
:102180008093000A4091040A5091050A841B950B24
:1021900005960B9798F581E08093FF09C9018C584B
:1021A0009040099718F483E090E01EC0C90185545F
:1021B0009140099718F484E090E016C0C901049694
:1021C000099718F485E090E00FC0C901855F914040
:1021D000099718F482E090E007C0225E324029306F
:1021E000310538F481E090E09093030A8093020A6D
:1021F00008951092030A1092020A04C05093010A33
:102200004093000A1092FF0908950F931F93809145
:10221000000A9091010A9093050A8093040A80E0D5
:102220000E9497409093010A8093000A2091040A2B
:102230003091050A821B930B97FF03C090958195FF
:102240009F4F0597A4F08FEC98E04AE050E060E0E3
:1022500070E022EB30E105E010E00E94613C99273C
:1022600087FD90959093090A8093080A04C03093E3
:10227000010A2093000A1F910F9108950F931F9355
:10228000882351F18FEF93E09093010A8093000A25
:102290008FEC98E044E150E060E070E025E031E14F
:1022A00002E010E00E946E3C992787FD9095909384
:1022B000070A8093060A8CEA94E16AE376E00E94BA
:1022C00063498CEA94E144E150E060E070E02AE088
:1022D00030E00E94DB4806C08FEC98E06091060A6F
:1022E0000E94D43B1F910F9108958F929F92AF92BD
:1022F000BF92CF92DF92EF92FF920F931F93DF93E3
:10230000CF93CDB7DEB7E4970FB6F894DEBF0FBE1C
:10231000CDBF6C014B015A017E010894E11CF11CF8
:10232000C701B60140E050E028E030E00E949F4C39
:102330008E01095F1F4FC801B7010E94014DC801FE
:1023400069E476E00E94C34BBC01C6010E94E44CE4
:10235000C8010E940E4DC7010E94094D8E01035F06
:102360001F4FC601B8014CE050E020E030E00E9471
:10237000F54981E79FE0B8010E94A629882329F04A
:1023800081E79FE0B8010E949C29CE014A9661E74F
:102390007FE0AE01435F5F4F23E10E94CB2A8C8D2B
:1023A0009D8D9093B7088093B6088E8D9F8DA8A1C0
:1023B000B9A18093B8089093B908A093BA08B093D4
:1023C000BB088AA19BA1ACA1BDA18093BC0890933E
:1023D000BD08A093BE08B093BF08A0ECB8E0FE0112
:1023E000B6968DE001900D928150E1F78BA99CA9E2
:1023F0009093CE088093CD0884EB98E00E94AB27A1
:102400008823F9F0EE2476E0C72E10C0EC9C800102
:1024100011240A0D1B1D8CEA94E1B8010E943F486B
:1024200084EB98E0B8010E943F48E3948E2D90E041
:10243000881599055CF384EB98E00E94B82781E049
:1024400007C08CEA94E16BE871E00E942D4880E0BF
:10245000E4960FB6F894DEBF0FBECDBFCF91DF91EB
:102460001F910F91FF90EF90DF90CF90BF90AF90B2
:102470009F908F9008954F925F926F927F928F926C
:102480009F92AF92BF92CF92DF92EF92FF920F9303
:102490001F93DF93CF93CDB7DEB768970FB6F8944D
:1024A000DEBF0FBECDBF3C018DE899E060E142E0A8
:1024B00020E00E947A268DE899E00E9474268DE83B
:1024C00099E060E040E00E944626B301665C7F4FE1
:1024D0008DE899E00E94FB478DE899E060E041E0DB
:1024E0000E94462680916008BAE04B2E512C460C83
:1024F000571CF30142A153A1882309F446C0A0E16F
:102500008A2E912C860C971C26A137A16E01089467
:10251000C11CD11CC601B2010E949F4CE7E0EE2E07
:10252000F12CEC0EFD1EC701B6010E94014DB30156
:102530006A5E7F4FC7010E94DD4B5C018E01035F25
:102540001F4FF30146A157A14F5F5F4F24A135A153
:10255000C801B2010E949F4CC501B8010E94DD4B29
:10256000BC01C4010E94E44CC8010E94094DC7018E
:102570000E940E4DC6010E94094D8DE899E0B401FC
:102580000E94FB471092600815C08E010D5E1F4F20
:10259000F30124A135A1C801B2010E949F4C8DE82E
:1025A00099E0B8010E94FB47C8010E94094D81E0F3
:1025B0008093600868960FB6F894DEBF0FBECDBF5B
:1025C000CF91DF911F910F91FF90EF90DF90CF900F
:1025D000BF90AF909F908F907F906F905F904F9043
:1025E00008958AE09AE047CF2F923F924F925F92F0
:1025F0006F927F928F929F92AF92BF92CF92DF9213
:10260000EF92FF920F931F93DF93CF93CDB7DEB777
:1026100066970FB6F894DEBF0FBECDBF2C016B01DD
:102620003A013C8B2B8B1801FE8AED8ADA011D9250
:102630001C9201E010E01FC0F301808191819C0198
:10264000220F331F280F391F220F331FD201159677
:102650008D919C911697820F931FB6010E94D14ACB
:10266000F30140815181882381F44F5F5F4F518393
:1026700040830F5F1F4FD20111968D919C9112974D
:1026800080179107CCF680E0A3C09A01220F331F78
:10269000240F351F220F331FF20185819681820F8F
:1026A000931F6CE20E94404A5C010894A11CB11C7B
:1026B000D3018D919C919C01220F331F280F391F4C
:1026C000220F331FF20185819681820F931F6CE2E6
:1026D000A5010E94224A6C014C010894811C911CA6
:1026E000D3018D919C919C01220F331F280F391F1C
:1026F000220F331FF20185819681820F931F6CE2B6
:10270000A4010E94224A7C01D3012D913C91C90170
:10271000880F991F820F931F880F991FF2016581FF
:102720007681680F791F8E010F5F1F4FC801A501C9
:1027300096010E949F4CC101B8010E94E44CC8015F
:102740000E94094D8E01095F1F4FD3012D913C91CD
:10275000C901880F991F820F931F880F991FF201DB
:1027600065817681680F791FC801A40197010E94D5
:102770009F4C8B899C89B8010E94E44CC8010E943F
:10278000094DD3012D913C91C901880F991F820FEA
:10279000931F880F991FD2011596ED91FC91169702
:1027A000E80FF91F8E01035F1F4F0894E11CF11C15
:1027B00024813581C801BF01A7010E949F4C8D89EA
:1027C0009E89B8010E94E44CC8010E94094D81E035
:1027D00066960FB6F894DEBF0FBECDBFCF91DF91E6
:1027E0001F910F91FF90EF90DF90CF90BF90AF902F
:1027F0009F908F907F906F905F904F903F902F9021
:1028000008952F923F924F925F926F927F928F9294
:102810009F92AF92BF92CF92DF92EF92FF920F936F
:102820001F93DF93CF93CDB7DEB7ED970FB6F89434
:10283000DEBF0FBECDBF9AAF89AF5B015CAF4BAFC0
:102840002DAF1A82198283E0282E312C2C0E3D1ECA
:10285000C10160E072E00E94104C09E0402E512C52
:102860004C0E5D1EC20160E072E00E94104C1FE041
:10287000812E912C8C0E9D1EC40160E072E00E949E
:10288000104CB5E1CB2ED12CCC0EDD1EC6016BADAC
:102890007CAD0E94F94C89AD9AADB601AE014F5F97
:1028A0005F4F9101820174019FDE182FC6010E94C3
:1028B000094D112309F48DC0C20161E60E94404A0E
:1028C0009C018FEF2F3F380709F483C0A3E06A2EE5
:1028D000712C620E731EEDADEE2309F468C0FBE1AE
:1028E000CF2ED12CCC0EDD1EC601B40140E050E04D
:1028F0000E949F4CE1E2EE2EF12CEC0EFD1EC70172
:10290000B6010E94014DC701B5010E94DD4B5C017B
:102910008E01095D1F4F2B893C89C801B401A301B9
:102920000E949F4CC501B8010E94DD4BBC01C4014F
:102930000E94E44CC8010E94094DC7010E940E4D3F
:10294000C6010E94094D29813A81C901880F991F4A
:10295000820F931F880F991FE9ADFAAD058116818B
:10296000080F191F5DE2E52EF12CEC0EFD1EC701CC
:102970006BAD7CAD0E94014DC7016CE20E94B44B6F
:10298000B2010E94DD4B6CE20E94B44BB1010E9487
:10299000DD4B6CE20E94B44BB4010E94DD4BBC01E4
:1029A000C8010E94E44CC7010E940E4D10C08E0168
:1029B0000D5C1F4FC801B401A90193010E949F4CF7
:1029C000C501B8010E94E44CC8010E94094D11E004
:1029D00001C010E0CE010F960E94094DCE0109966C
:1029E0000E94094DCE0103960E94094D812FED965C
:1029F0000FB6F894DEBF0FBECDBFCF91DF911F9110
:102A00000F91FF90EF90DF90CF90BF90AF909F908D
:102A10008F907F906F905F904F903F902F90089590
:102A20002F923F924F925F926F927F928F929F92DE
:102A3000AF92BF92CF92DF92EF92FF920F931F93CC
:102A4000DF93CF93CDB7DEB7ED970FB6F894DEBF27
:102A50000FBECDBF9AAF89AF5B015CAF4BAF2DAF5F
:102A60001A821982B3E02B2E312C2C0E3D1EC1018F
:102A700060E072E00E94104CA9E04A2E512C4C0EEE
:102A80005D1EC20160E072E00E94104CFFE08F2EDC
:102A9000912C8C0E9D1EC40160E072E00E94104CCF
:102AA000E5E1CE2ED12CCC0EDD1EC6016BAD7CAD8A
:102AB0000E94F94C89AD9AADB601AE014F5F5F4FF0
:102AC00091018201740190DD182FC6010E94094D09
:102AD000112309F48DC0C20168E40E94404A9C01A0
:102AE0008FEF2F3F380709F483C075E0672E712CF4
:102AF000620E731EEDADEE2309F468C06BE1C62EC5
:102B0000D12CCC0EDD1EC601B40140E050E00E9485
:102B10009F4C51E2E52EF12CEC0EFD1EC701B601D3
:102B20000E94014DC701B5010E94DD4B5C018E0181
:102B3000095D1F4F2B893C89C801B401A3010E9484
:102B40009F4CC501B8010E94DD4BBC01C4010E942D
:102B5000E44CC8010E94094DC7010E940E4DC601F8
:102B60000E94094D29813A81C901880F991F820F5E
:102B7000931F880F991FE9ADFAAD05811681080FE3
:102B8000191F9DE2E92EF12CEC0EFD1EC7016BAD65
:102B90007CAD0E94014DC7016CE20E94B44BB201B2
:102BA0000E94DD4B6CE20E94B44BB1010E94DD4BF0
:102BB0006CE20E94B44BB4010E94DD4BBC01C80121
:102BC0000E94E44CC7010E940E4D10C08E010D5CA6
:102BD0001F4FC801B401A90193010E949F4CC50178
:102BE000B8010E94E44CC8010E94094D11E001C0E7
:102BF00010E0CE010F960E94094DCE0109960E9469
:102C0000094DCE0103960E94094D812FED960FB616
:102C1000F894DEBF0FBECDBFCF91DF911F910F9112
:102C2000FF90EF90DF90CF90BF90AF909F908F90EC
:102C30007F906F905F904F903F902F9008952F92CC
:102C40003F924F925F926F927F928F929F92AF923C
:102C5000BF92CF92DF92EF92FF920F931F93DF9379
:102C6000CF93CDB7DEB7ED970FB6F894DEBF0FBEAA
:102C7000CDBF9AAF89AF5B015CAF4BAF2DAF1A826E
:102C80001982B3E02B2E312C2C0E3D1EC10160E0C9
:102C900072E00E94104CA9E04A2E512C4C0E5D1E91
:102CA000C20160E072E00E94104CFFE08F2E912C78
:102CB0008C0E9D1EC40160E072E00E94104CE5E1A4
:102CC000CE2ED12CCC0EDD1EC6016BAD7CAD0E948C
:102CD000F94C89AD9AADB601AE014F5F5F4F9101DE
:102CE0008201740181DC182FC6010E94094D112355
:102CF00009F48DC0C2016DE60E94404A9C018FEF2D
:102D00002F3F380709F483C07AE0672E712C620EDA
:102D1000731EEDADEE2309F468C06BE1C62ED12C15
:102D2000CC0EDD1EC601B40140E050E00E949F4C75
:102D300051E2E52EF12CEC0EFD1EC701B6010E94FA
:102D4000014DC701B5010E94DD4B5C018E01095D9B
:102D50001F4F2B893C89C801B401A3010E949F4CDD
:102D6000C501B8010E94DD4BBC01C4010E94E44CC6
:102D7000C8010E94094DC7010E940E4DC6010E9464
:102D8000094D29813A81C901880F991F820F931F2C
:102D9000880F991FE9ADFAAD05811681080F191F3B
:102DA0008DE2E82EF12CEC0EFD1EC7016BAD7CAD63
:102DB0000E94014DC7016CE20E94B44BB2010E9417
:102DC000DD4B6CE20E94B44BB1010E94DD4B6CE222
:102DD0000E94B44BB4010E94DD4BBC01C8010E94AB
:102DE000E44CC7010E940E4D10C08E010D5C1F4FB8
:102DF000C801B401A90193010E949F4CC501B8010B
:102E00000E94E44CC8010E94094D11E001C010E08D
:102E1000CE010F960E94094DCE0109960E94094DE0
:102E2000CE0103960E94094D812FED960FB6F894BE
:102E3000DEBF0FBECDBFCF91DF911F910F91FF90ED
:102E4000EF90DF90CF90BF90AF909F908F907F904A
:102E50006F905F904F903F902F9008950F931F9326
:102E6000CF93DF938B01EA01C801BE010E9476492E
:102E7000FC018081803221F0D7FD02C02197F4CF80
:102E8000CE01DF91CF911F910F9108950F931F9362
:102E9000CF93DF938B01EA01C801BE010E947649FE
:102EA000FC018081803221F4D7FD02C02197F4CF4C
:102EB000CE01DF91CF911F910F9108950F931F9332
:102EC000CF93DF938B01EA01C801BE010E947649CE
:102ED000FC018081803249F4F8018481958101965A
:102EE000C817D90710F42196EFCFCE01DF91CF910B
:102EF0001F910F9108952F923F924F925F926F9280
:102F00007F928F929F92AF92BF92CF92DF92EF9279
:102F1000FF920F931F93DF93CF93CDB7DEB7C254C9
:102F2000D0400FB6F894DEBF0FBECDBF3C015B01B1
:102F3000CE01019660E072E00E94104CC5016CE287
:102F40000E94404A7C018E01095F1F4FC801B501F4
:102F500040E050E097010E949F4CC301C496B80125
:102F60000E94E44CC8010E94094D0894E11CF11C28
:102F7000C5016CE2A7010E94224A6C013CE1232EAC
:102F8000312C260C371C8E01035F1F4FC801B50181
:102F9000A70196010E949F4CC101B8010E94E44C18
:102FA000C8010E94094D0894C11CD11CC5016CE2E6
:102FB000A6010E94224A7C012AE3822E912C860CD3
:102FC000971C8E010D5E1F4FC801B501A601970128
:102FD0000E949F4CC401B8010E94E44CC8010E94A9
:102FE000094D9AE0492E512C460C571C8FE1C82EF2
:102FF000D12CCC0EDD1EC60163E576E00E94284C84
:103000008E01075E1F4F0894E11CF11CF50124811D
:103010003581C801B501A7010E949F4CC601B801C6
:103020000E94DD4BBC01C2010E94E44CC8010E9419
:10303000094DC6010E940E4DF3018685978595A323
:1030400084A3C2016CE676E00E94854B8E010B5D85
:103050001F4FC801B2010E94F94CC301B80140E002
:1030600050E02CDFF30193A382A3C8010E94094D15
:10307000F30182A193A197A386A38DE899E060E173
:1030800042E020E00E947A268DE899E00E947426B2
:103090008DE899E060E040E00E9446268DE899E0E6
:1030A000B4010E94FB478DE899E060E041E00E9496
:1030B0004626F30184A195A122A133A1821B930B83
:1030C00026A137A140970CF10BE2E02EF12CEC0E7B
:1030D000FD1EC701B201A901215F3F4F0E949F4C15
:1030E0008E010F5C1F4FC801B7010E94014DC8013E
:1030F0006EE30E94B44BBC018DE899E00E94FB474F
:10310000C8010E940E4DC70110C08E01095C1F4FFF
:10311000C801B201A901205F3F4F0E949F4C8DE87A
:1031200099E0B8010E94FB47C8010E94094DC10106
:1031300061E876E00E94434A882319F081E090E03C
:1031400009C0C1016EE476E00E94434A882351F031
:1031500083E090E0F30190878783C30160E00E94E1
:1031600086104CC082E090E0F30190878783C30112
:1031700061E00E9486101DE3412E512C4C0E5D1E15
:1031800006C0F30186A197A1019697A386A3F30138
:1031900026A137A182A193A1281B390BC201B1013D
:1031A000A9012F5F3F4F0E949F4CC20162EA75E068
:1031B0000E94434A882311F400E00BC000E0F301B1
:1031C00082A193A10E9626A137A1821793070CF036
:1031D00001E0C2010E94094D002399F6F3018185A7
:1031E00093012A5E3F4F882321F0C90162EA75E00E
:1031F00003C0C90166E876E00E94404CCE0101960A
:103200000E94094DCE5BDF4F0FB6F894DEBF0FBEB4
:10321000CDBFCF91DF911F910F91FF90EF90DF9085
:10322000CF90BF90AF909F908F907F906F905F9066
:103230004F903F902F900895BF92CF92DF92EF92E0
:10324000FF920F931F93DF93CF9300D000D0CDB7A1
:10325000DEB77C01B62E6901FC01168305838E96CC
:10326000BA010E94E44CF70114821382F1E0CF16F8
:10327000D10419F00894C108D108F701D282C182A3
:10328000F701B18686E490E0E80EF91EF70110829E
:103290008AEB9FEFE80EF91EF701658176818E01BA
:1032A0000F5F1F4FC8010E94F94CC701B80123DE10
:1032B000C8010E94094D26960FB6F894DEBF0FBED6
:1032C000CDBFCF91DF911F910F91FF90EF90DF90D5
:1032D000CF90BF900895EF92FF920F931F93DF93CB
:1032E000CF93CDB7DEB7AA970FB6F894DEBF0FBE67
:1032F000CDBFCE01019660E072E00E94104C8CEAD6
:1033000094E140E855E260E070E00E943645CE016D
:10331000079668E876E00E94104CCE010D9663E9AE
:1033200076E00E94104CCE0143966EE976E00E9452
:10333000104C85E361E00E94CB4081E79FE065E3AC
:103340000E94EB2B882329F48CEA94E164E771E076
:1033500004C08CEA94E16FE571E00E942D487E0183
:103360000894E11CF11CC7016BEA76E00E94404C16
:103370008E01075E1F4FC801B7010E94F94CC801BA
:1033800064E070E04DEB59E00E947511C8010E94A5
:10339000094D81E00E943E1181E00E945F1081E0B2
:1033A00080930A0A4FE1E42EF12CEC0EFD1EC701BA
:1033B0006BEA76E00E94104C8AE09AE061E0A70197
:1033C00024E030E00DEB19E037DFC7010E94094D22
:1033D00089E08093A70987E08093A6098DE2809316
:1033E000A80980E18093A4098FE08093A3098BE171
:1033F0008093A20982E08093A50982EA99E00E9465
:103400009524882371F48E010B5D1F4FC80163EB77
:1034100076E00E94104CC8010E94E508C8010E9495
:10342000094DCE0143960E94094DCE010D960E9492
:10343000094DCE0107960E94094DCE0101960E94CA
:10344000094DAA960FB6F894DEBF0FBECDBFCF913F
:10345000DF911F910F91FF90EF9008954F925F922F
:103460006F927F928F929F92AF92BF92CF92DF9294
:10347000EF92FF920F931F93DF93CF93CDB7DEB7F9
:10348000E0970FB6F894DEBF0FBECDBF3C01D62E3D
:103490007E010894E11CF11CC70160E072E00E940B
:1034A000104CCE01079660E072E00E94104CBAE02A
:1034B0004B2E512C460C571CF30126A137A18E012F
:1034C000035F1F4FC801B201A9012E5F3F4F0E9449
:1034D0009F4CC701B8010E94E44CC8010E94094DED
:1034E0008CEA94E1B7010E943F48C7010E948B49D2
:1034F0004B015C018B01015010408CEA94E1B80152
:103500004AE050E00E944649DD2041F00B301105B1
:103510001CF080E090E00AC0C40108C0101611063B
:103520001CF08BE090E002C0C8010197A7E08A2E52
:10353000912C8C0E9D1EBC01660F771F680F791FA2
:10354000660F771F6F5A754FC4010E94E44C8CEAD6
:1035500094E1B4010E943F488CEA94E164EC76E087
:103560000E946349F30166A177A18CEA94E14AE0E5
:1035700050E00E9446498CEA94E160ED76E00E94BA
:1035800063498E010D5E1F4FF30126A137A1C801CB
:10359000B20140E050E00E949F4C8CEA94E1B801F7
:1035A0000E94FB47C8010E94094D8CEA94E16FED2F
:1035B00076E00E9463498E01075E1F4FF30146A12A
:1035C00057A14E5F5F4F26853785C801B2010E9423
:1035D0009F4C8CEA94E1B8010E94FB47C8010E940D
:1035E000094D8CEA94E166EF76E00E9465496FE14F
:1035F000A62EB12CAC0EBD1EF30126A137A1C5012C
:10360000B20140E050E00E949F4C55E2E52EF12CC3
:10361000EC0EFD1EC701B5010E94014DC701B401AA
:103620000E94DD4B6C018E01055D1F4FF30146A129
:1036300057A14E5F5F4F26853785C801B2010E94B2
:103640009F4CC601B8010E94DD4BBC016E0108947D
:10365000C11CD11CC6010E94E44CC8010E94094D46
:10366000C7010E940E4DC5010E94094D8CEA94E1EC
:1036700066EF76E00E9463498CEA94E1B2010E9411
:10368000FB478CEA94E166EF76E00E9465498CEA9C
:1036900094E166EF76E00E9463498CEA94E1B6011A
:1036A0000E94FB478CEA94E166EF76E00E94654950
:1036B000C201B6010E94E44C8CEA94E166EF76E028
:1036C0000E9463498CEA94E1B2010E94FB478CEAB4
:1036D00094E166EF76E00E946549C4010E94094DBD
:1036E000C6010E94094DE0960FB6F894DEBF0FBEEA
:1036F000CDBFCF91DF911F910F91FF90EF90DF90A1
:10370000CF90BF90AF909F908F907F906F905F9081
:103710004F9008958F929F92AF92BF92CF92DF9277
:10372000EF92FF920F931F93DF93CF93CDB7DEB746
:10373000CC5FD0400FB6F894DEBF0FBECDBF5C01AA
:10374000DC01DC90B1E0DB1609F039C6FC018781B1
:1037500090858230910509F427C28330910509F4E0
:1037600028C4019709F02BC6D50196968D909C90A0
:1037700097978091020A9091030A8330910509F48A
:10378000EDC18430910544F48130910509F4A8C15C
:10379000029709F014C6C4C08430910509F4EDC144
:1037A000059709F00CC6EAE0CE2ED12CCA0CDB1C22
:1037B0008E010F5F1F4FC801B6010E94F94CF50141
:1037C00046A157A1C80160E20E94224AD5019796FE
:1037D0009C938E939697C8010E94094DF50126A1EE
:1037E00037A184A195A1281739071CF097A286A2BA
:1037F000E6C58E01095F1F4FC801B6010E94F94C52
:10380000D50196964D915C919797C501B80156DB0D
:10381000F50197A386A3C8010E94094D8DE899E0A0
:1038200060E142E020E00E947A268DE899E00E9463
:1038300074268DE899E060E040E00E944626B501DC
:10384000665C7F4F8DE899E00E94FB478DE899E028
:1038500060E041E00E944626D50196962D913C916C
:103860009797F901709694968D919C919597929661
:103870004D915C919397E817F9071CF54217530790
:1038800084F473E1E72EF12CEC0EFD1EC7016CE30E
:103890000E94874CF50126A137A18E01035F1F4FBF
:1038A000DCC069E1E62EF12CEC0EFD1EC701B6016D
:1038B000A901215F3F4F0E949F4C8E01015E1F4F67
:1038C00069C04217530744F55BE2E52EF12CEC0E7C
:1038D000FD1EC7016CE30E94874CD50196962D9181
:1038E0003C9197978E010B5D1F4FC801B601A9014E
:1038F000215F3F4F0E949F4CC701B8010E94DD4BE2
:10390000BC018DE899E00E94FB47C8010E94094D67
:10391000C7010E940E4D53C58E010F5C1F4FD4C0CE
:103920008DE899E060E142E020E00E947A268DE88F
:1039300099E00E9474268DE899E060E040E00E94E2
:103940004626B501665C7F4F8DE899E00E94FB47F3
:103950008DE899E060E041E00E944626F50126A14D
:1039600037A182A193A14AE0C42ED12CCA0CDB1C42
:10397000821793070CF107E3E02EF12CEC0EFD1EED
:10398000C701B601A901215F3F4F0E949F4C8E01E4
:10399000035C1F4FC801B7010E94014DC8016EE3CF
:1039A0000E94B44BBC018DE899E00E94FB47C8011E
:1039B0000E940E4DC701EDC48E010D5B1F4FC80163
:1039C000B6010E94F94CD50196964D915C9197975E
:1039D00041505040C501B80159DAF50197A386A3BB
:1039E000C8010E94094D8E01075B1F4FC801B60137
:1039F0000E94F94CD50196964D915C919797C5011F
:103A0000B8012CDA0196F50197A386A3C8010E949C
:103A1000094DD50196962D913C919797F901709695
:103A200094968D919C91959792964D915C919397D8
:103A3000E817F9078CF542175307F4F415E5E12E62
:103A4000F12CEC0EFD1EC7016CE30E94874CF501C2
:103A500026A137A18E01015B1F4FC801B601A90144
:103A6000225F3F4F0E949F4CC701B8010E94DD4B6F
:103A70006EE30E94B44B44CFBBE5EB2EF12CEC0E71
:103A8000FD1EC701B601A901215F3F4F0E949F4C57
:103A90008E010F591F4F7ECF4217530794F4ADE6A6
:103AA000EA2EF12CEC0EFD1EC7016CE30E94874C40
:103AB000D50196962D913C9197978E0109591F4FEC
:103AC00014CF8E010D581F4FC801B601A9019F01E7
:103AD0000E949F4C8DE899E0B8010E94FB471AC2F2
:103AE000F50191A680A6FAE0EF2EF12CEA0CFB1C62
:103AF0008E0107581F4FC801B7010E94F94CD5012C
:103B000096964D915C919797C80160E20E94224A77
:103B1000F50193A782A7C8010E94094D8E010158A3
:103B20001F4FD50198964D915C9199979A962D913A
:103B30003C919B97C801B7010E949F4CC501805CD6
:103B40009F4FB8010E94E44CC8010E94094DE6E471
:103B5000F0E0AE0EBF1ED501DC9231C4F501238129
:103B600034812115310509F42AC4215030403483B1
:103B700023838E010B571F4FBBC1D50113962D9187
:103B80003C91149711968D919C91129728173907A3
:103B900009F415C42F5F3F4F14963C932E9313974F
:103BA0008E0105571F4F59C10091020A1091030A57
:103BB00005301105E1F5F50126A137A182A193A1F8
:103BC0000E968217930724F02F5F3F4F37A326A34B
:103BD0008501045E1F4FD50196966D917C91979754
:103BE00092968D919C919397681B790BC8010E94C6
:103BF0007649FC0180818D3209F0CEC3F50126A102
:103C000037A182A193A10E96821793070CF4C4C327
:103C10002F5F3F4F37A326A3DECF21503040240F24
:103C2000351FD50197963C932E939697C8C3F501FF
:103C300066A177A142A153A10230110559F546179B
:103C4000570724F46150704077A366A38501045E92
:103C50001F4FD50196966D917C91979792968D9175
:103C60009C919397681B790BC8010E947649FC01CF
:103C700080818D3209F0A3C3F50126A137A182A16D
:103C800093A1821793070CF09AC32150304037A3B9
:103C900026A3DFCFECE18E2E912C8A0C9B1C641B9B
:103CA000750BC4010E947649FC01E081ED36A9F450
:103CB000D50119968C91882309F081C30330110531
:103CC00029F00430110509F027C103C0C50161E0E6
:103CD00002C0C50160E0C2DB1FC1E436A9F4F501F2
:103CE0008185882309F06BC30330110529F0043066
:103CF000110509F011C103C0C50161E002C0C50191
:103D000060E00E94930F08C1E937B1F4D50119961C
:103D10008C91882309F053C30330110529F0043036
:103D2000110509F0F9C003C0C50161E002C0C50179
:103D300060E00E94C90EF0C0E136A9F4F50181856A
:103D4000882309F03CC30330110529F00430110524
:103D500009F0E2C003C0C50161E002C0C50160E036
:103D60000E94E50DD9C0E834B1F4D50119968C91C3
:103D7000882309F024C30330110529F0043011050C
:103D800009F0CAC003C0C50161E002C0C50160E01E
:103D90000E941B0DC1C0ED34A9F4F5018185882373
:103DA00009F00DC30330110529F00430110509F0A5
:103DB000B3C003C0C50161E002C0C50160E00E945C
:103DC000510CAAC0E332B1F4D50119968C91882325
:103DD00009F0F5C20330110529F00430110509F08E
:103DE0009BC003C0C50161E002C0C50160E00E9444
:103DF000870B92C0E334A9F4F5018185882309F08B
:103E0000DEC20330110529F00430110509F084C029
:103E100003C0C50161E002C0C50160E00E94A30AC1
:103E20007BC0E535B9F50330110529F004301105E3
:103E300009F0C5C21EC0D50113962D913C9114976F
:103E40002115310509F4BBC22150304014963C9332
:103E50002E9313978E010F561F4FC901880F991F7C
:103E6000820F931F880F991F15966D917C9116975D
:103E700048C0F50123813481818192812817390757
:103E800009F49DC22F5F3F4F348323838E0109566F
:103E90001F4F2EC0E43409F092C20330110529F0FF
:103EA0000430110509F08BC213C0D50113962D9172
:103EB0003C9114972115310509F481C221503040FD
:103EC00014963C932E9313978E0103561F4FC5CF24
:103ED000F50123813481818192812817390709F402
:103EE0006EC22F5F3F4F348323838E010D551F4FCA
:103EF000C901880F991F820F931F880F991F658131
:103F00007681680F791FC8010E94F94CC501B8017C
:103F10000E947B17C8013DC27FEAC72ED12CCC0E70
:103F2000DD1EB501665F7F4FC6010E94F94CC601D8
:103F30000E949C49D50113962D913C911497C9017B
:103F4000880F991F820F931F880F991F15960D9147
:103F50001C911697080F191F49EAE42EF12CEC0E5C
:103F6000FD1EE4E3F0E0AE0EBF1EC701B5010E94E6
:103F7000014DC7016CE20E94B44BB4010E94DD4BBD
:103F80006CE20E94B44B26E030E0A20EB31EB501F5
:103F90000E94DD4B6CE20E94B44BB6010E94DD4BE7
:103FA000BC01C8010E94E44CC7010E940E4DC6012D
:103FB000F0C13FEA832E912C8C0E9D1EC40160E05F
:103FC00072E00E94104C8091020A9091030A8330A3
:103FD000910509F49AC18430910524F4029709F0FF
:103FE000D5C128C18430910509F4ACC1059709F009
:103FF000CDC1D50196968D919C91979740969796B5
:104000009C938E93969794962D913C919597281713
:10401000390724F497963C932E9396972AE0C22E64
:10402000D12CCA0CDB1CF50166A177A1C6010E9448
:104030007649FC0180818032D1F0D50196966D9150
:104040007C919797C6010E947649FC01808180325D
:1040500009F43FC0F50126A137A182A193A18217DF
:104060009307BCF52150304037A326A3E6CFD501F6
:1040700096966D917C919797C6010E947649FC01B6
:104080008081803269F4F50126A137A182A193A134
:10409000821793072CF42150304037A326A3E7CF93
:1040A000D50196966D917C919797C6010E947649AD
:1040B000FC018081803269F0F50126A137A182A13F
:1040C00093A1821793072CF42150304037A326A3E5
:1040D000E7CFD50196962D913C91979792968D9129
:1040E0009C91939794964D915C91959728173907D9
:1040F000D9F5F90170969FEA892E912C8C0E9D1EA0
:10410000E417F50704F585EBE82EF12CEC0EFD1E07
:10411000C701B601A901215F3F4F0E949F4C8E014C
:1041200005541F4FC801B7010E94014DC8016EE33D
:104130000E94B44BBC01C4010E94E44CC8010E941F
:104140000E4DC7010EC08E010F531F4FC801B6019F
:10415000A9019F010E949F4CC401B8010E94E44C38
:10416000C8010E94094D53C02F5F3F4FF50137A38F
:1041700026A3205F3F4F0FEA802E912C8C0E9D1EB0
:104180002417350704F51DECE12EF12CEC0EFD1E75
:10419000C7016CE30E94874CD50196962D913C9106
:1041A00097978E0109531F4FC801B601A901225FDD
:1041B0003F4F0E949F4CC701B8010E94DD4B6EE348
:1041C0000E94B44B1AC0B9EDEB2EF12CEC0EFD1E83
:1041D000C7016CE30E94874CF50126A137A18E012F
:1041E0000D521F4FC801B601A901215F3F4F0E9428
:1041F0009F4CC701B8010E94DD4BBC01C4010E9465
:10420000E44CC8010E94094DC7010E940E4D8DE883
:1042100099E060E142E020E06DD58DE899E064D559
:104220008DE899E060E040E031D52AE330E0A20E6D
:10423000B31E59C0D50192962D913C9193979796B4
:104240003C932E939697F901709694968D919C913C
:104250009597AAE0CA2ED12CCA0CDB1CE817F907E7
:1042600004F57FEDE72EF12CEC0EFD1EC701B60123
:10427000A901215F3F4F0E949F4C8E010B511F4FA0
:10428000C801B7010E94014DC8016EE30E94B44B02
:10429000BC01C4010E94E44CC8010E940E4DC7013C
:1042A0000EC08E0105511F4FC801B601A9019F0123
:1042B0000E949F4CC401B8010E94E44CC8010E94B6
:1042C000094D8DE899E060E142E020E013D58DE8EA
:1042D00099E00AD58DE899E060E040E0D7D4EAE3C0
:1042E000F0E0AE0EBF1E8DE899E0B5010E94FB47DD
:1042F0008DE899E060E041E0C9D48DE899E0BE0125
:1043000061557F4F0E94FB4741C0D50113962D9107
:104310003C91149721153105C9F121503040149674
:104320003C932E9313978E010F501F4FC901880F96
:10433000991F820F931F880F991F15966D917C917D
:10434000169718C0F5012381348181819281281745
:104350003907E1F02F5F3F4F348323838E010950EB
:104360001F4FC901880F991F820F931F880F991F34
:1043700065817681680F791FC8010E94F94CC501DB
:10438000B8010E947B17C8010E94094DCE018155DA
:104390009F4F0E94094D13C0D50192964D915C919B
:1043A000939790962D913C91919796968D919C9193
:1043B0009797841B950B8217930708F02ECCC45057
:1043C000DF4F0FB6F894DEBF0FBECDBFCF91DF91A8
:1043D0001F910F91FF90EF90DF90CF90BF90AF9023
:1043E0009F908F900895CF92DF92EF92FF920F935C
:1043F0001F93DF93CF93CDB7DEB7C759D0400FB629
:10440000F894DEBF0FBECDBF8FEC98E00E94EA3B70
:104410008091FF09813061F41092FF096091020AD6
:104420007091030A6115710519F08AE09AE072D95A
:104430008091500A813009F055C288E39AE06BEA16
:1044400076E00E94434A882309F4A1C08EE39AE0F3
:1044500068EF76E00E94434A882309F48AC08AE420
:104460009AE06EEF76E00E94434A882309F45EC02A
:1044700062E0E62EF12CEC0EFD1EC70162E077E053
:104480000E94104C8AE09AE060E0A70125E030E04D
:1044900005ED19E00E941C19C7010E94094D8E010B
:1044A000085F1F4FC8016CE077E00E94104C8AE063
:1044B0009AE06FEA79E0A80121E00E941F16C80186
:1044C0000E94094D5EE0E52EF12CEC0EFD1EC701A9
:1044D00069EA79E040E050E025E030E00E949F4C3E
:1044E0008E010C5E1F4FC80161E177E00E94104C05
:1044F0008AE09AE0B701A80121E00E941015C801E6
:104500000E94094DC7010E94094D8E01065E1F4F92
:10451000C80166E177E00E94104C8AE09AE065EB02
:1045200079E0A80121E00E940114D9C18AE49AE04F
:104530006AE177E00E94434A882329F08CEA94E1FB
:1045400061E471E00CC08AE49AE066E277E00E94E0
:10455000434A882339F08CEA94E163E271E00E94D7
:104560002D48C0C18E01005E1F4FC80162E377E095
:10457000B1C18E010A5D1F4FC80160E777E00E945C
:10458000104CC8010E94E508C8010E94094D88E34B
:104590009AE062E077E00E94434A882309F494C1DC
:1045A0008CEA94E16EE37AE00E943F488EE39AE061
:1045B00067EA77E00E94434A882309F461C18AE4EC
:1045C0009AE06EEA77E00E94434A882309F42DC1FD
:1045D0008CEA94E16AE071E00E942D488CEA94E153
:1045E0006DEF70E00E94D8476091351570913615D7
:1045F000CE0101966115710521F4BC016953754125
:1046000004C09C01261B370BB9018CEA94E14AE0F7
:1046100050E00E94ED48CE018C9660E072E00E946E
:10462000104C42E3C42ED12CCC0EDD1EC60160E03E
:1046300072E00E94104CCE01C89660E072E00E94C9
:10464000104C3EE3E32EF12CEC0EFD1EC70160E0A2
:1046500072E00E94104C8E010C5B1F4FC8016CE091
:1046600077E00E94104C8AE09AE0B601A80120E0B1
:104670000E941F16C8010E94094D8E01065B1F4F44
:10468000C801B60140E050E022E030E00E949F4CBB
:10469000C701B8010E94E44CC8010E94094DC7013E
:1046A0000E948B496093A7098E01005B1F4FC801D0
:1046B000B60143E050E025E030E00E949F4CC70186
:1046C000B8010E94E44CC8010E94094DC7010E9434
:1046D0008B496093A6098E010A5A1F4F2EA93FA944
:1046E000C801B60146E050E00E949F4CC701B801E6
:1046F0000E94E44CC8010E94094DC7010E948B49E9
:10470000625B6093A8098E01045A1F4FC80161E1E2
:1047100077E00E94104C8AE09AE069EA79E0A8010B
:1047200020E00E941015C8010E94094D8E010E590B
:104730001F4FC80169EA79E040E050E022E030E034
:104740000E949F4CC701B8010E94E44CC8010E941E
:10475000094DC7010E948B496093A4098E01085935
:104760001F4FC80169EA79E043E050E025E030E0FE
:104770000E949F4CC701B8010E94E44CC8010E94EE
:10478000094DC7010E948B496093A3091092A209A9
:104790008E0102591F4FC80166E177E00E94104C5C
:1047A0008AE09AE065EB79E0A80120E00E9401141C
:1047B000C8010E94094D00E010E0C801880F991F50
:1047C000800F911F880F991F8D5B904F65EB79E0EB
:1047D0000E94994A882329F40F5F1F4F0730110563
:1047E00061F70093A50982EA99E09FD0882371F4CC
:1047F0008E010C581F4FC80163EB76E00E94104CED
:10480000C8010E94E508C8010E94094DCE01CE965C
:104810000E94094DCE01C8960E94094DCE01C29654
:104820000E94094DCE018C9637C08AE49AE065EB70
:1048300077E00E94434A8823E1F08CEA94E164EE39
:1048400070E00E942D48AAE7EA2EF12CEC0EFD1E26
:10485000C7016BEA76E00E94104C8AE09AE061E0C2
:10486000A70124E030E00DEB19E00E941C19C701FC
:1048700013C08E0100581F4FC8016CEB77E006C0D3
:104880008E010A571F4FC8016FEF77E00E94104C4E
:10489000C8010E94E508C8010E94094DFCE8EF2EFE
:1048A000F12CEC0EFD1EC7016BEA76E00E94104C65
:1048B0008AE09AE061E0A70124E030E00DEB19E026
:1048C0000E941C19C7010CC08E010E561F4FC80153
:1048D00065E378E00E94104CC8010E94E508C80119
:1048E0000E94094D1092500AC956DF4F0FB6F89436
:1048F000DEBF0FBECDBFCF91DF911F910F91FF9013
:10490000EF90DF90CF900895482F6AE00E94134EF9
:10491000282F30E084E0220F331F8A95E1F7842F9F
:104920000E94134E892F820F08950F931F938C01BD
:1049300089E092E168E670E00E94903C89E092E1B3
:1049400060E00E94113DF8018081DEDF682F89E080
:1049500092E10E94113DF8018181D6DF682F89E044
:1049600092E10E94113DF8018281CEDF682F89E03B
:1049700092E10E94113DF8018381C6DF682F89E032
:1049800092E10E94113DF8018481BEDF682F89E029
:1049900092E10E94113DF8018581B6DF682F89E020
:1049A00092E10E94113DF80186818E51ADDF682FA2
:1049B00089E092E10E94113D89E092E10E94523D1E
:1049C000882321F01092700F80E003C081E0809373
:1049D000700F1F910F9108950F931F93CF93DF9343
:1049E000EC0189E092E168E670E00E94903C89E089
:1049F00092E160E00E94113D89E092E10E94523D07
:104A0000882319F01092700F11C081E08093700F0D
:104A100089E092E168E670E047E050E00E94603D86
:104A200089E092E10E949A3C079714F480E065C007
:104A300089E092E10E94A33C082F8F7782958F70C6
:104A40001AE0819FC0011124202F2F70280F288386
:104A500089E092E10E94A33C282F22952F70219F8C
:104A6000900111248F70820F898389E092E10E9466
:104A7000A33C282F2F7322952F70219F9001112482
:104A80008F70820F8A8389E092E10E94A33C282FD5
:104A900022952F70219F900111248F70820F8B839C
:104AA00089E092E10E94A33C282F22952F70219F3C
:104AB000900111248F70820F8C8389E092E10E9413
:104AC000A33C282F22952F70219F900111248F70D5
:104AD000820F8D8389E092E10E94A33C282F2F70E2
:104AE000225E82958F70819FC0011124280F2E8332
:104AF000802F8095881F8827881FDF91CF911F9175
:104B00000F91089589E092E10C94623D0F931F93F9
:104B10008C01FC01868160E00E947E4181E090E092
:104B20000E942B40F801868161E00E947E4181E075
:104B300090E00E942B40F801868160E00E947E4157
:104B400084E690E00E942B401F910F910895CF9230
:104B5000DF92EF92FF920F931F93CF93DF93D82EA4
:104B6000C92E282F392FC9018C01C0E0D0E0E62ED4
:104B7000FF24F801878161E00E94CB40B7010C2E31
:104B800002C0759567950A94E2F76170F801878114
:104B90000E947E4121960F5F1F4FC830D10549F713
:104BA0008D2D9C2DB3DFDF91CF911F910F91FF9041
:104BB000EF90DF90CF900895CF92DF92EF92FF9227
:104BC0000F931F93CF93DF93D82EC92E282F392F01
:104BD000C9018C01C0E0D0E0E62EFF24F8018781F6
:104BE00061E00E94CB40B7010C2E02C0759567951D
:104BF0000A94E2F76170F80187810E947E41219654
:104C00000F5F1F4FC430D10549F78D2D9C2D7EDFDE
:104C1000DF91CF911F910F91FF90EF90DF90CF9098
:104C200008951F93CF93DF93EC01162F8C81642F8F
:104C30000E947E418D818F3F19F060E00E947E418D
:104C40008F8584FF04C0CE01612F81DF0CC0612FEE
:104C500070E084E0759567958A95E1F7CE01ACDF49
:104C6000CE01612FA9DFDF91CF911F91089541E01F
:104C7000D8DF81E090E0089540E0D3CFFC01608967
:104C8000862F8460808B6C60CF01F6CFDF93CF934B
:104C9000CDB7DEB728970FB6F894DEBF0FBECDBFF5
:104CA0009C01FE013196A4E7B8E088E00D900192E6
:104CB0008150E1F7F9018389481710F0482F4150DE
:104CC000E42FF0E0EE0FFF1FEC0FFD1F8181680F56
:104CD0006068C901D1DF28960FB6F894DEBF0FBE19
:104CE000CDBFCF91DF91089561E0C6DF80ED97E001
:104CF0000C942B40CF93DF93EC01423018F08F855A
:104D000088608F874B8B1C8A222329F0413019F44D
:104D10008F8584608F8780E593EC0E942B408C8187
:104D200060E00E947E418E8160E00E947E418D8124
:104D30008F3F19F060E00E947E416F8564FD19C0CD
:104D4000CE0163E039DF84E991E10E942B40CE017E
:104D500063E032DF84E991E10E942B40CE0163E001
:104D60002BDF86E990E00E942B40CE0162E024DF39
:104D700013C06062CE0180DF84E991E10E942B4084
:104D80006F856062CE0178DF86E990E00E942B405B
:104D90006F856062CE0170DF6F856062CE016CDF6F
:104DA00084E0888BCE016ADFCE019EDF82E0898BB2
:104DB000CE0166E061DFDF91CF9108956F927F921F
:104DC0008F92AF92CF92EF920F931F93DF93CF9377
:104DD000CDB7DEB73C01162F842FF3014483258322
:104DE0000683E782C086A18682869E8593879F85FB
:104DF0009487988995879989968761E00E94CB402E
:104E0000F30185818F3F19F061E00E94CB40F301EF
:104E1000868161E00E94CB40112319F0F3011786CF
:104E200003C080E1F3018787C30160E141E020E036
:104E300061DFCF91DF911F910F91EF90CF90AF90F5
:104E40008F907F906F9008958F92AF92CF92EF9254
:104E50000F931F93CF93DF93DC01362F542F722FC4
:104E6000102FAE2C8C2C13961C921E92129780E75A
:104E700098E011969C938E9300D00F92EDB7FEB7F9
:104E80003196CDB7DEB71982118212821382CD011D
:104E900061E0432F2FEF052FE72EC12E8FDF0F90FC
:104EA0000F900F900F90DF91CF911F910F91EF9086
:104EB000CF90AF908F900895FC011382128288EEFC
:104EC00093E0A0E0B0E084839583A683B78380E875
:104ED00098E091838083128E118E14860895DF935B
:104EE000CF930F92CDB7DEB7FC016983A081B1816A
:104EF00012962D913C911397BE016F5F7F4F41E059
:104F000050E0F90119950F90CF91DF910895DC01E0
:104F10005996ED91FC915A97309719F420E030E0C2
:104F200018C0238934894589568982859385A4854B
:104F3000B585281B390B4A0B5B0B2030B0E83B07CB
:104F4000B0E04B07B0E05B0720F02FEF3FE740E019
:104F500050E0C9010895DC015996ED91FC915A97F2
:104F6000309711F480E008958581811181E00895E2
:104F7000CF93DF93EC01898D9A8D009741F00E94C9
:104F80005830898D9A8D0E944D421A8E198EDF916C
:104F9000CF910895FC01818D928D009711F00C94B2
:104FA00010300895DF93CF930F92CDB7DEB7FC0199
:104FB000818D928D009749F0BE016F5F7F4F41E078
:104FC00050E00E944331019719F02FEF3FEF03C0EB
:104FD0008981282F30E0C9010F90CF91DF9108958A
:104FE000EF92FF920F931F93DF93CF930F92CDB762
:104FF000DEB77C01DC0159968D919C915A97009700
:1050000019F400E010E01EC0BE016F5F7F4F41E069
:1050100050E00E944331019719F00FEF1FEF12C0CB
:105020008981082F10E0D7015996ED91FC915A978C
:10503000428553856485758541505040604070407D
:10504000CF0129D7C8010F90CF91DF911F910F9108
:10505000FF90EF900895CF93DF93EC01E98DFA8DE7
:10506000309761F013821282CF010E9480339C013D
:10507000E98DFA8D82819381892B31F081E090E076
:105080009B838A8320E030E0C901DF91CF910895AE
:10509000EF92FF920F931F93CF93DF93EC01F62EC5
:1050A000E72E8A011B821A8288EE93E0A0E0B0E02E
:1050B0008C839D83AE83BF8380E898E09983888347
:1050C0008DE190E00E94B0419A8F898F009791F016
:1050D000DC018F2D9E2D9C01F9018DE101900D9237
:1050E0008150E1F7CE010C96B8014CE050E00E94EF
:1050F0000102188EDF91CF911F910F91FF90EF90D9
:1051000008950F931F93CF93DF938C01FB01C08110
:10511000D181FC01EC0FFD1F80818F3209F42196B3
:1051200098012C0F3D1FA0E0B0E00BC0FA01EA0F80
:10513000FB1F8083119621962F5F3F4FAC30B10546
:1051400031F0F90180818F3211F0882379F7A40FB3
:10515000B51F1C92F801EC0FFD1F80818F3209F4FE
:105160002196FB01D183C083C00FD11F888181119B
:1051700081E0DF91CF911F910F9108951092760FEA
:105180001092770F10927A0F10927C0F82E090E0CD
:10519000A0E0B0E080937D0F90937E0FA0937F0FEF
:1051A000B093800F1092940F10929E0F10929D0F4B
:1051B00080E998E090939C0F80939B0F1092A00F32
:1051C0000895EF92FF921F93DF93CF93CDB7DEB791
:1051D0006D970FB6F894DEBF0FBECDBF9C01AB013B
:1051E0001C821B8280E998E09A8389831E827E015B
:1051F0000894E11CF11CC701B90121E00E94A2350D
:10520000182F882311F0C70153D7812F6D960FB641
:10521000F894DEBF0FBECDBFCF91DF911F91FF90FD
:10522000EF9008952F923F924F925F926F927F92EC
:105230008F929F92BF92CF92DF92EF92FF920F9345
:105240001F93DF93CF93CDB7DEB7C954D0400FB6CD
:10525000F894DEBF0FBECDBF1C017B012A013901CE
:105260001B8A1A8A80E998E0998B888B1D8A18AA74
:105270001FA69EA78DA71AAA1A8219828B0120E168
:10528000C22ED12CCC0EDD1E93E0892E912C8C0EDB
:105290009D1E03C0C80186016C01C101BE016F5F84
:1052A0007F4FA4012EDFB82E40E0882309F441E0AF
:1052B000C801B4019301F2011995882331F40E1548
:1052C0001F0501F1C801F4D61DC0BB20A1F0C60125
:1052D000B801A40121E00E94A235B82E0E151F05C9
:1052E00011F0C801E5D6BB2069F00E151F0591F637
:1052F000CE018D96D0CF0E151F0511F0C801D8D65E
:1053000081E001C080E0C75BDF4F0FB6F894DEBFDD
:105310000FBECDBFCF91DF911F910F91FF90EF9006
:10532000DF90CF90BF909F908F907F906F905F9015
:105330004F903F902F9008959B01BC01665D7F4F79
:10534000C90144E15CE220E030E06CCF9B01BC018C
:10535000665D7F4FC90141EE58E220E030E062CF48
:105360002F923F924F925F926F927F928F929F9275
:10537000AF92BF92CF92DF92EF92FF920F931F9363
:10538000DF93CF93CDB7DEB7C754D0400FB6F894B4
:10539000DEBF0FBECDBF582E492EFB013A011901C9
:1053A00084A595A5998B888B20E938E03F872E87C7
:1053B00086A58A8B87A58B8B80A991A9A2A9B3A961
:1053C0008C8B9D8BAE8BBF8B84A995A9A6A9B7A901
:1053D000888F998FAA8FBB8F80AD91ADA2ADB3ADF1
:1053E0008C8F9D8FAE8FBF8F84AD88A3FD968191EA
:1053F0009191A191B19189A39AA3ABA3BCA38191EF
:105400009191A191B1918DA39EA3AFA3B8A78081E3
:1054100091819AA789A71EA61DA63CA72BA718AA0B
:105420007A018E01025F1F4F3BE2A32EB12CAC0E1E
:10543000BD1E4E010894811C911C33C0D7018C9174
:105440008F3221F40894E11CF11C2BC0422F4E191D
:105450004D3008F04CE0C42EDD24C401B701A60194
:105460000E940102F401EC0DFD1D1082C50120D641
:10547000C501B801A40121E00E94A235882351F49E
:10548000E52DF42D1382128280E998E091838083C8
:10549000158265C0EC0CFD1CC8010AD6C501580177
:1054A0008C01C7016FE270E00E94D8019C01009757
:1054B00029F6E618F708F101F182E082E52DF42DD6
:1054C000D80112968D919C9113979383828380E9E2
:1054D00098E09183808314968C9114978483159619
:1054E0008C911597858316962D913D914D915C91E8
:1054F000199726833783408751871A962D913D91BE
:105500004D915C911D9722873387448755871E965E
:105510002D913D914D915C91519726873787408B16
:10552000518B52968C915297828B53962D913D912F
:105530004D915C915697238B348B458B568B5796A8
:105540002D913D914D915C915A97278B308F418FD2
:10555000528F5B968D919C915C97948F838F852D54
:10556000942DC95BDF4F0FB6F894DEBF0FBECDBFE1
:10557000CF91DF911F910F91FF90EF90DF90CF902F
:10558000BF90AF909F908F907F906F905F904F9063
:105590003F902F9008959F92AF92BF92CF92DF924B
:1055A000EF92FF920F931F93DF93CF93CDB7DEB7A8
:1055B000C657D0400FB6F894DEBF0FBECDBFC82E81
:1055C000992E8A01D22E43E0A42EB12CAC0EBD1E22
:1055D000C501A8019E012F5F3F4FC2DEE980FA801E
:1055E000E00EF11EF701808140E958E0288588230C
:1055F00009F03FC08D819E819BA38AA359A348A334
:105600008F818CA32DA389859A85AB85BC858EA3BC
:105610009FA3A8A7B9A78D859E85AF85B8898AA7BE
:105620009BA7ACA7BDA789899A89AB89BC898EA79E
:105630009FA7A8ABB9AB8D898AAB8E899F89A88DAE
:10564000B98D8BAB9CABADABBEAB8A8D9B8DAC8D5E
:10565000BD8D8FAB98AFA9AFBAAF8E8D9F8D9CAF2C
:105660008BAF8C2D992DBE01605E7F4F4DE558E0CC
:105670009CC0FE01FF96118210825EAF4DAFFE010D
:10568000EE5BFF4F10822223A9F02250CE01CD966F
:10569000223048F46BE97FE0A7012D2D0E94A2354E
:1056A000882371F407C0B501A7012D2D0E94A235F2
:1056B000882321F48C2D992DFFDB78C0C501F8D407
:1056C000F6E0DF2251F0FE01E05BFF4F40815181A7
:1056D00062817381CE01CD96DED39E01265A3F4F63
:1056E000FE01FF9680819181F9019383828380E995
:1056F00098E091838083FE01EF5BFF4F8081F90189
:105700008483FE01EE5BFF4F8081F9018583FE01FA
:10571000ED5BFF4F80819181A281B381F901868386
:105720009783A087B187FE01E95BFF4F808191815C
:10573000A281B381F90182879387A487B587FE018F
:10574000E55BFF4F80819181A281B381F90186875A
:105750009787A08BB18BFE01E15BFF4F8081F90140
:10576000828BFE01E05BFF4F80819181A281B3813A
:10577000F901838B948BA58BB68BFE01EC5AFF4FFE
:1057800080819181A281B381F901878B908FA18F54
:10579000B28FFE01E85AFF4F80819181F901948F09
:1057A000838F8C2D992DB901A70172DC8C2D992D39
:1057B000CA58DF4F0FB6F894DEBF0FBECDBFCF91F2
:1057C000DF911F910F91FF90EF90DF90CF90BF90EE
:1057D000AF909F9008950F931F93CF93DF93EC01A9
:1057E000462F61E04ED28823C9F08E01045F1F4F1F
:1057F000C801BE0141E00E946637882339F4C80120
:10580000BE0140E00E946637882341F0CE018A96AF
:10581000B80194D6882319F081E001C080E0DF91BF
:10582000CF911F910F910895442311F481E00895C1
:105830000C94A336FC01673020F086E1858380E07C
:105840000895262F30E060FD02C0663019F48DB552
:105850008E7F02C08DB581608DBD8CB58C7F8CBD77
:105860004CB522FD02C090E001C092E0369527952C
:10587000822F8170842B892B8CBD81E00895FF924B
:105880000F931F93CF93DF938B010E941D40EB0179
:10589000FF24FA94FEBC0DB407FEFDCF8EB58F3FFA
:1058A00011F481E008C00E941D406C1B7D0B601745
:1058B000710780F380E0DF91CF911F910F91FF90EE
:1058C0000895FC01848160E00C947E41FC01848198
:1058D00061E00C947E41DC016EBDFA0120E030E015
:1058E0000DB407FEFDCF80818EBD0DB407FEFDCF48
:1058F00081818EBD2E5F3F4F329682E02030380787
:1059000079F70DB407FEFDCF8FEF8EBD0DB407FE06
:10591000FDCF8FEF8EBD0DB407FEFDCF8FEF8EBD97
:105920000DB407FEFDCF8EB51A968C931A978F7122
:10593000853011F481E0089581E115968C931597D7
:10594000CD01C4DF80E00895FF920F931F93CF93A2
:10595000DF93EC010E941D408B01FF24FA9409C0E3
:105960000E941D40601B710B6D52714010F08FE062
:105970000DC0FEBC0DB407FEFDCF8EB58A878F3FEC
:1059800079F38E3F11F481E005C08DE08D83CE0167
:105990009DDF80E0DF91CF911F910F91FF900895DF
:1059A000CF93DF93EC018E818823C9F08FEF8EBDFA
:1059B0002F8138854FEF04C00DB407FEFDCF4EBDDB
:1059C0002F5F3F4FC901019781509240A8F338875C
:1059D0002F830DB407FEFDCFCE0178DF1E82DF914D
:1059E000CF910895DF92EF92FF920F931F93CF9381
:1059F000DF93EC01D62E79018A01D2DFCE0161DF7F
:105A0000CE016CE271E03BDF8D2D80648EBD0DB464
:105A100007FEFDCF28E130E0D801C701022E04C007
:105A2000B695A795979587950A94D2F78EBD0DB434
:105A300007FEFDCF285030408FEF283F380761F731
:105A4000DD2011F485E906C088E0D81611F487E856
:105A500001C08FEF8EBD0DB407FEFDCF90E02FEF9C
:105A60002EBD0DB407FEFDCF8EB587FF02C091504D
:105A7000B9F78A87DF91CF911F910F91FF90EF9037
:105A8000DF900895CF92DF92EF92FF920F931F93D2
:105A9000CF93DF93EC017A018B0169014115510528
:105AA0006105710511F482E133C08B85833039F0D3
:105AB00029E0EE0CFF1C001F111F2A95D1F7CE0123
:105AC00068E1A80197018EDF882311F084E020C0EF
:105AD000CE016EEFA601FFDE8823D9F0CE0168E586
