:1000000016C2000041C200003FC200003DC2000015
:100010003BC2000039C2000037C2000035C20000F8
:1000200033C2000031C200002FC200002DC2000008
:100030002BC2000029C2000027C2000025C2000018
:1000400023C2000021C200001FC200001DC2000028
:100050001BC2000019C2000017C200000C94C3406C
:1000600013C200000C94D4430C9428450DC2000028
:100070000BC2000009C2000007C2000005C2000058
:1000800003C2000001C20000FFC10000FDC100006A
:100090000C9414440C946745F7C100000C94123F73
:1000A000F3C10000F1C10000EFC10000EDC100008C
:1000B000EBC10000E9C10000E7C10000E5C100009C
:1000C000E3C10000E1C10000DFC100000C94544412
:1000D0000C94A645D9C100000C9494440C94E545B9
:1000E000D3C100006C656E6774683D006572726F05
:1000F000722070726F63657373696E6720736574C5
:100100005254435F75692D2D3E616374696F6E3A79
:1001100020756E7265636F676E697A6564204469E5
:1001200073706C61794C696E654E616D653D0065FB
:1001300072726F722070726F63657373696E67207D
:100140007365745254435F75692D2D3E6163746904
:100150006F6E3A20756E7265636F676E697A65645B
:1001600020446973706C617953656C656374696F61
:100170006E3D005254435F75692D2D3E6163746975
:100180006F6E2D2D3E43616E63656C004672656532
:1001900020536372616D203D005254435F75692D99
:1001A0002D3E616374696F6E2D2D3E7570646174B0
:1001B00065004D61696E5F55492D2D3E536574553F
:1001C000702D2D3E466C6F775F73656E736F720096
:1001D0004D61696E5F55492D2D3E53657455702DE7
:1001E0002D3E54656D705F73656E736F720052546F
:1001F0004320696E697469616C697A6564204F4B4C
:1002000020746F206D6F6E20392F372F32303135CB
:1002100020402031363A31352000534420696E6940
:100220007469616C697A6564206F6B2E0053442099
:10023000696E697469616C697A6174696F6E206650
:1002400061696C656421006572726F7220696E204D
:1002500052656164537472696E6741727261795359
:10026000442C20646964206E6F742066696E64207B
:1002700066696C65206F7220636F756C64206E6FA9
:1002800074206F70656E2069742E20534446696C2B
:10029000653D006572726F72206F70656E696E6782
:1002A00020534446696C653D004572726F7220723E
:1002B000656164696E67206D656E7520696E2044A6
:1002C0006973706C6179436C6173733A3A44697312
:1002D000706C6179536574757000446973706C61FA
:1002E000794C696E65536574757020534352414D66
:1002F0003D007C3C3E5E2B3D3F2F5B5D3B2C2A222C
:100300005C0000002100240027002A002D0030009E
:10031000330001010000040107010A01000022006E
:10032000250028002B002E003100340002010000BF
:10033000050108010B010000200023002600290010
:100340002C002F003200000100000301060109010A
:1003500005050505070508080808020202020A0A41
:10036000080804040404010101010101010103035F
:10037000030303030303040707070C0C0C0C0C0C0A
:100380000C0C0202020206060606060606060B0B07
:100390000B0B0B0B0B0B0102102020080810204048
:1003A0001020408002010201080402010102040839
:1003B00010204080804020100804020180040201C7
:1003C0008040201008040201080402010102040810
:1003D0001020408001020408102040800000090A1B
:1003E00002080B0C0D0706030401000000000000CA
:1003F00000000000000000000000000000000000FD
:10040000000000000000000011100F0000000000BC
:1004100000000000000000000000000000000000DC
:100420000000F911C426002AB83D5747F4111124E1
:100430001FBECFEFD1E2DEBFCDBF00E00CBF17E0A3
:10044000A0E0B2E0E6EEFEE900E00BBF02C00790DC
:100450000D92A635B107D9F71BBE13E1A6E5B7E0AB
:1004600001C01D92AD3BB107E1F714E0CCE2D4E04E
:1004700004C02297FE010E94584FC232D107C9F72B
:100480000E948E480C94674FBBCD1F93FC019927A7
:100490008827BC01E89411911032E9F3193010F06B
:1004A0001E30C8F31B3249F01D3241F4689405C078
:1004B00080D0610F711D811D911D119110531A3053
:1004C000B8F33EF490958095709561957F4F8F4F6E
:1004D0009F4F1F910895FB01DC0104C08D91019095
:1004E000801921F441505040C8F7881B990B08959A
:1004F000FB01DC0102C001900D9241505040D8F741
:100500000895FC018191861721F08823D9F7992756
:1005100008953197CF010895FB01DC018D91019081
:1005200080190110D9F3990B0895FB01DC010190AA
:100530000D920020E1F70895FB01DC01415050408D
:1005400030F08D910190801919F40020B9F7881BC3
:10055000990B0895FB01DC014150504048F0019097
:100560000D920020C9F701C01D9241505040E0F7A4
:100570000895FB019F01E8944230C4F04532B4F481
:100580004A3029F497FB1EF4909581959F4F642F74
:1005900077270E94424F805D8A330CF0895D8193FA
:1005A000CB010097A1F716F45DE251931082C901C7
:1005B0002AC0592F482F372F262F660F771F881FE5
:1005C000991F660F771F881F991F620F731F841F63
:1005D000951F660F771F881F991F0895FB019F01C4
:1005E000423074F0453264F4642F77270E94424F02
:1005F000805D8A330CF0895D8193CB010097A1F770
:100600001082C90100C0DC01FC01672F71917723C2
:10061000E1F7329704C07C916D9370836291AE17BD
:10062000BF07C8F30895BC0180E393E10C942D4902
:10063000EF92FF920F931F93DF93CF93CDB7DEB767
:10064000C257D0400FB6F894DEBF0FBECDBF84E4D2
:1006500098E00E942E26882309F47DC1CE010196E0
:1006600060E072E00E94FE4C57E0E52EF12CEC0EAB
:10067000FD1EC70160E072E00E94FE4C8E01035F28
:100680001F4FC801609146084AE00E94454DC701CE
:10069000B8010E94D24DC8010E94F74D8B859C8500
:1006A000019791F48E010D5E1F4FC80160E30E9417
:1006B000754DC801B7010E94CB4CBC01C7010E9417
:1006C000D24DC8010E94FC4D8E01075E1F4F47E0CE
:1006D000E42EF12CEC0EFD1EC801B7010E94EF4D77
:1006E000C80161E072E00E94B14CBC018BE498E06B
:1006F0000E94D24DC8010E94FC4D8E01015E1F4F29
:10070000C801609145084AE00E94454DC701B80103
:100710000E94D24DC8010E94F74D8B859C850197A0
:1007200091F48E010B5D1F4FC80160E30E94754D6F
:10073000C801B7010E94CB4CBC01C7010E94D24D39
:10074000C8010E94FC4D8E01055D1F4FC8016BE47E
:1007500078E00E94EF4D37E0E32EF12CEC0EFD1E09
:10076000C801B7010E94CB4C61E072E00E94B14C1D
:10077000BC018BE498E00E94D24DC8010E94FC4D60
:100780008E010F5C1F4FC801609144084AE00E942F
:10079000454DC701B8010E94D24DC8010E94F74DD6
:1007A0008B859C85019791F48E01095C1F4FC801D0
:1007B00060E30E94754DC801B7010E94CB4CBC019B
:1007C000C7010E94D24DC8010E94FC4D8E01035CFE
:1007D0001F4FC8016BE478E00E94EF4D27E0E22E46
:1007E000F12CEC0EFD1EC801B7010E94CB4CBC01E0
:1007F0008BE498E00E94D24DC8010E94FC4D8E010E
:100800000D5B1F4FC801609149084AE00E94454DA9
:10081000C701B8010E94D24DC8010E94F74D8B85D7
:100820009C85019791F48E01075B1F4FC80160E31F
:100830000E94754DC801B7010E94CB4CBC01C70195
:100840000E94D24DC8010E94FC4D8E01015B1F4FDA
:1008500097E0E92EF12CEC0EFD1EC801B7010E94B5
:10086000EF4DC80163E072E00E94B14CBC0181E52C
:1008700098E00E94D24DC8010E94FC4D8E010B5A97
:100880001F4FC801609148084AE00E94454DC701CA
:10089000B8010E94D24DC8010E94F74D8B859C85FE
:1008A000019791F48E01055A1F4FC80160E30E9421
:1008B000754DC801B7010E94CB4CBC01C7010E9415
:1008C000D24DC8010E94FC4D8E010F591F4FC80127
:1008D00061E578E00E94EF4D87E0E82EF12CEC0E08
:1008E000FD1EC801B7010E94CB4C63E072E00E947C
:1008F000B14CBC0181E598E00E94D24DC8010E9434
:10090000FC4D8E0109591F4FC80161E578E00E9436
:10091000EF4D60914A0870E06E54784FC8010E9414
:10092000934CBC0181E598E00E94D24DC8010E9421
:10093000FC4D6091470886E0689FB001112469531F
:10094000724F87E598E00E94D24DC7010E94F74D93
:10095000CE01019616C08091F40D882339F080E312
:1009600093E165E072E00E94534A0DC08E01035985
:100970001F4FC80164E372E00E94FE4CC80153DEC1
:10098000C8010E94F74DCE58DF4F0FB6F894DEBF76
:100990000FBECDBFCF91DF911F910F91FF90EF90D0
:1009A00008954F925F926F927F928F929F92AF9233
:1009B000BF92CF92DF92EF92FF920F931F93DF933C
:1009C000CF93CDB7DEB7A4970FB6F894DEBF0FBEB6
:1009D000CDBF3C01A62E8E010F5F1F4FC80160E006
:1009E00072E00E94FE4CCE01079660E072E00E9429
:1009F000FE4C2AE0422E512C460C571CF30126A136
:100A000037A19DE0E92EF12CEC0EFD1EC701B201CD
:100A1000A9012F5F3F4F0E948D4DC801B7010E9471
:100A2000D24DC7010E94F74DEE24FF24C02E012FA6
:100A3000B701660F771F6E0D7F1D660F771F695B0D
:100A4000734F8C2D902F0E94874B882341F4F0E444
:100A5000EF16F10421F00894E11CF11CE9CFAA2063
:100A600051F08FE3E816F1041CF080E090E00BC039
:100A7000C701019608C0E114F10419F48FE390E076
:100A800002C0C7010197B7E08B2E912C8C0E9D1EE2
:100A9000BC01660F771F680F791F660F771F695BB0
:100AA000734FC4010E94D24DE3E1AE2EB12CAC0EC7
:100AB000BD1EF30126A137A1C501B20140E050E0FF
:100AC0000E948D4D79E1C72ED12CCC0EDD1EC601C2
:100AD000B5010E94EF4DC601B4010E94CB4C8C01C0
:100AE0006FE1E62EF12CEC0EFD1EF30146A157A19D
:100AF0004F5F5F4F26853785C701B2010E948D4D3C
:100B0000C801B7010E94CB4CBC018E010F5F1F4F83
:100B1000C8010E94D24DC7010E94F74DC6010E9434
:100B2000FC4DC5010E94F74DC201B8010E94D24D93
:100B3000C4010E94F74DC8010E94F74DA4960FB65C
:100B4000F894DEBF0FBECDBFCF91DF911F910F9103
:100B5000FF90EF90DF90CF90BF90AF909F908F90DD
:100B60007F906F905F904F9008954F925F926F9239
:100B70007F928F929F92AF92BF92CF92DF92EF922D
:100B8000FF920F931F93DF93CF93CDB7DEB7A49758
:100B90000FB6F894DEBF0FBECDBF3C01D62E7E014E
:100BA0000894E11CF11CC70160E072E00E94FE4C59
:100BB000CE01079660E072E00E94FE4CBAE04B2E38
:100BC000512C460C571CF30126A137A18E01035F5F
:100BD0001F4FC801B201A9012F5F3F4F0E948D4DE9
:100BE000C701B8010E94D24DC8010E94F74DC7014C
:100BF0000E94794ADD2049F0693071051CF080E0DF
:100C000090E00BC0CB01019608C0161617061CF029
:100C100089E090E002C0CB010197A7E08A2E912CD9
:100C20008C0E9D1EBC01660F771F680F791F660F23
:100C3000771F655F734FC4010E94D24D53E1A52E0B
:100C4000B12CAC0EBD1EF30126A137A1C501B20126
:100C500040E050E00E948D4D49E1C42ED12CCC0ED5
:100C6000DD1EC601B5010E94EF4DC601B4010E9410
:100C7000CB4C8C013FE1E32EF12CEC0EFD1EF30179
:100C800046A157A14F5F5F4F26853785C701B20147
:100C90000E948D4DC801B7010E94CB4CBC018E0152
:100CA0000F5F1F4FC8010E94D24DC7010E94F74D30
:100CB000C6010E94FC4DC5010E94F74DC201B8015A
:100CC0000E94D24DC4010E94F74DC8010E94F74D09
:100CD000A4960FB6F894DEBF0FBECDBFCF91DF91C3
:100CE0001F910F91FF90EF90DF90CF90BF90AF904A
:100CF0009F908F907F906F905F904F9008954F924C
:100D00005F926F927F928F929F92AF92BF92CF929B
:100D1000DF92EF92FF920F931F93DF93CF93CDB7A4
:100D2000DEB7A4970FB6F894DEBF0FBECDBF3C016F
:100D3000D62E7E010894E11CF11CC70160E072E030
:100D40000E94FE4CCE01079660E072E00E94FE4CCD
:100D50006AE0462E512C460C571CF30126A137A100
:100D60008E01035F1F4FC801B201A9012E5F3F4FE3
:100D70000E948D4DC701B8010E94D24DC8010E944A
:100D8000F74DC7010E94794ADD2049F06B337105A8
:100D90001CF080E090E00BC0CB01019608C0161655
:100DA00017061CF08BE390E002C0CB01019757E0DF
:100DB000852E912C8C0E9D1EBC01660F771F680F2F
:100DC000791F660F771F6D55754FC4010E94D24D74
:100DD00023E1A22EB12CAC0EBD1EF30126A137A13A
:100DE000C501B20140E050E00E948D4D99E1C92E4D
:100DF000D12CCC0EDD1EC601B5010E94EF4DC601FF
:100E0000B4010E94CB4C8C018FE1E82EF12CEC0E4A
:100E1000FD1EF30146A157A14E5F5F4F2685378522
:100E2000C701B2010E948D4DC801B7010E94CB4C91
:100E3000BC018E010F5F1F4FC8010E94D24DC70138
:100E40000E94F74DC6010E94FC4DC5010E94F74D5E
:100E5000C201B8010E94D24DC4010E94F74DC801E1
:100E60000E94F74DA4960FB6F894DEBF0FBECDBF1B
:100E7000CF91DF911F910F91FF90EF90DF90CF9076
:100E8000BF90AF909F908F907F906F905F904F90AA
:100E900008954F925F926F927F928F929F92AF923E
:100EA000BF92CF92DF92EF92FF920F931F93DF9347
:100EB000CF93CDB7DEB7A4970FB6F894DEBF0FBEC1
:100EC000CDBF3C01D62E7E010894E11CF11CC70168
:100ED00060E072E00E94FE4CCE01079660E072E096
:100EE0000E94FE4C0AE0402E512C460C571CF30188
:100EF00026A137A18E01035F1F4FC801B201A901CE
:100F00002E5F3F4F0E948D4DC701B8010E94D24D08
:100F1000C8010E94F74DC7010E94794ADD2049F0BF
:100F2000673171051CF080E090E00BC0CB010196A9
:100F300008C0161617061CF087E190E002C0CB012E
:100F4000019717E0812E912C8C0E9D1EBC01660F1F
:100F5000771F680F791F660F771F6D5E754FC4018D
:100F60000E94D24DF3E1AF2EB12CAC0EBD1EF301A9
:100F700026A137A1C501B20140E050E00E948D4D8D
:100F8000E9E1CE2ED12CCC0EDD1EC601B5010E94AA
:100F9000EF4DC601B4010E94CB4C8C017FE1E72EDE
:100FA000F12CEC0EFD1EF30146A157A14E5F5F4FE1
:100FB00026853785C701B2010E948D4DC801B70152
:100FC0000E94CB4CBC018E010F5F1F4FC8010E94D5
:100FD000D24DC7010E94F74DC6010E94FC4DC501CC
:100FE0000E94F74DC201B8010E94D24DC4010E9477
:100FF000F74DC8010E94F74DA4960FB6F894DEBFD6
:101000000FBECDBFCF91DF911F910F91FF90EF9059
:10101000DF90CF90BF90AF909F908F907F906F9018
:101020005F904F9008954F925F926F927F928F9250
:101030009F92AF92BF92CF92DF92EF92FF920F9367
:101040001F93DF93CF93CDB7DEB7A4970FB6F89475
:10105000DEBF0FBECDBF3C01A62E8E010F5F1F4F1E
:10106000C80160E072E00E94FE4CCE01079660E08D
:1010700072E00E94FE4CBAE04B2E512C460C571CDD
:10108000F30126A137A1ADE0EA2EF12CEC0EFD1EF6
:10109000C701B201A9012D5F3F4F0E948D4DC801CC
:1010A000B7010E94D24DC7010E94F74DEE24FF24E4
:1010B000C02E012FB701660F771F6E0D7F1D660FC3
:1010C000771F6953724F8C2D902F0E94874B882376
:1010D00041F4F6E0EF16F10421F00894E11CF11C54
:1010E000E9CFAA2051F086E0E816F1041CF080E078
:1010F00090E00BC0C701019608C0E114F10419F497
:1011000086E090E002C0C701019757E0852E912C40
:101110008C0E9D1EBC01660F771F680F791F660F2E
:10112000771F6953724FC4010E94D24D23E1A22E52
:10113000B12CAC0EBD1EF30126A137A1C501B20131
:1011400040E050E00E948D4D99E1C92ED12CCC0E8B
:10115000DD1EC601B5010E94EF4DC601B4010E941B
:10116000CB4C8C018FE1E82EF12CEC0EFD1EF3012F
:1011700046A157A14D5F5F4F26853785C701B20154
:101180000E948D4DC801B7010E94CB4CBC018E015D
:101190000F5F1F4FC8010E94D24DC7010E94F74D3B
:1011A000C6010E94FC4DC5010E94F74DC201B80165
:1011B0000E94D24DC4010E94F74DC8010E94F74D14
:1011C000A4960FB6F894DEBF0FBECDBFCF91DF91CE
:1011D0001F910F91FF90EF90DF90CF90BF90AF9055
:1011E0009F908F907F906F905F904F9008954F9257
:1011F0005F926F927F928F929F92AF92BF92CF92A7
:10120000DF92EF92FF920F931F93DF93CF93CDB7AF
:10121000DEB7A4970FB6F894DEBF0FBECDBF3C017A
:10122000D62E7E010894E11CF11CC70160E072E03B
:101230000E94FE4CCE01079660E072E00E94FE4CD8
:101240006AE0462E512C460C571CF30126A137A10B
:101250008E01035F1F4FC801B201A9012F5F3F4FED
:101260000E948D4DC701B8010E94D24DC8010E9455
:10127000F74DC7010E94794ADD2049F069307105B8
:101280001CF080E090E00BC0CB01019608C0161660
:1012900017061CF089E090E002C0CB01019757E0EF
:1012A000852E912C8C0E9D1EBC01660F771F680F3A
:1012B000791F660F771F6952764FC4010E94D24D85
:1012C00023E1A22EB12CAC0EBD1EF30126A137A145
:1012D000C501B20140E050E00E948D4D99E1C92E58
:1012E000D12CCC0EDD1EC601B5010E94EF4DC6010A
:1012F000B4010E94CB4C8C018FE1E82EF12CEC0E56
:10130000FD1EF30146A157A14F5F5F4F268537852C
:10131000C701B2010E948D4DC801B7010E94CB4C9C
:10132000BC018E010F5F1F4FC8010E94D24DC70143
:101330000E94F74DC6010E94FC4DC5010E94F74D69
:10134000C201B8010E94D24DC4010E94F74DC801EC
:101350000E94F74DA4960FB6F894DEBF0FBECDBF26
:10136000CF91DF911F910F91FF90EF90DF90CF9081
:10137000BF90AF909F908F907F906F905F904F90B5
:1013800008954F925F926F927F928F929F92AF9249
:10139000BF92CF92DF92EF92FF920F931F93DF9352
:1013A000CF93CDB7DEB7A4970FB6F894DEBF0FBECC
:1013B000CDBF3C01D62E7E010894E11CF11CC70173
:1013C00060E072E00E94FE4CCE01079660E072E0A1
:1013D0000E94FE4C0AE0402E512C460C571CF30193
:1013E00026A137A18E01035F1F4FC801B201A901D9
:1013F0002E5F3F4F0E948D4DC701B8010E94D24D14
:10140000C8010E94F74DC7010E94794A9B012150F3
:101410003040DD2041F02E3131051CF080E090E0BD
:101420000AC0CB0108C0121613061CF08EE190E032
:1014300002C0C901019717E0812E912C8C0E9D1ED0
:10144000BC01660F771F680F791F660F771F635EF9
:10145000764FC4010E94D24DF3E1AF2EB12CAC0EF9
:10146000BD1EF30126A137A1C501B20140E050E045
:101470000E948D4DE9E1CE2ED12CCC0EDD1EC60191
:10148000B5010E94EF4DC601B4010E94CB4C8C0106
:101490007FE1E72EF12CEC0EFD1EF30146A157A1D2
:1014A0004E5F5F4F26853785C701B2010E948D4D83
:1014B000C801B7010E94CB4CBC018E010F5F1F4FCA
:1014C000C8010E94D24DC7010E94F74DC6010E947B
:1014D000FC4DC5010E94F74DC201B8010E94D24DDA
:1014E000C4010E94F74DC8010E94F74DA4960FB6A3
:1014F000F894DEBF0FBECDBFCF91DF911F910F914A
:10150000FF90EF90DF90CF90BF90AF909F908F9023
:101510007F906F905F904F9008950F931F93882353
:10152000D1F081E797E048EE53E060E070E028E119
:1015300033E003E010E00E945C3D992787FD909521
:1015400090935E0880935D0880E393E164E672E027
:101550000E94534A06C081E797E060915D080E94AF
:10156000C23C1F910F9108950F931F938091F10D2D
:101570006623C9F0882309F581E797E044EF51E03D
:1015800060E070E028EA33E102E010E00E945C3D98
:10159000992787FD90959093F30D8093F20D81E04C
:1015A0008093F10D0AC0813041F481E797E06091AA
:1015B000F20D0E94C23C1092F10D1F910F910895FF
:1015C0008091840890918508909389088093880879
:1015D00080E00E9485419C01909385088093840857
:1015E0004091880850918908841B950B05960B97AC
:1015F00098F581E080938308C9018C589040099741
:1016000018F483E090E01EC0C90185549140099709
:1016100018F484E090E016C0C9010496099718F404
:1016200085E090E00FC0C901855F9140099718F4EB
:1016300082E090E007C0225E32402930310538F464
:1016400081E090E090938708809386080895109237
:1016500087081092860804C0509385084093840838
:101660001092830808950F931F938091840890919E
:101670008508909389088093880880E00E948541BE
:101680009093850880938408209188083091890878
:10169000821B930B97FF03C0909581959F4F0597F1
:1016A000A4F081E797E04AE050E060E070E020EECF
:1016B0003AE005E010E00E944F3D992787FD9095A4
:1016C00090938D0880938C0804C0309385082093F4
:1016D00084081F910F9108950F931F93882351F150
:1016E0008FEF93E0909385088093840881E797E0DB
:1016F00044E150E060E070E023E33BE002E010E012
:101700000E945C3D992787FD909590938B0880936C
:101710008A0880E393E169E772E00E94514A80E31E
:1017200093E144E150E060E070E02AE030E00E94A4
:10173000C94906C081E797E060918A080E94C23CCF
:101740001F910F910895CF92DF92EF92FF920F9326
:101750001F938C019AE0C92ED12CC00ED11E80E0BF
:10176000E82E82E0F82EC601B7010E94FE4CC801A7
:101770004096B7010E94FE4CC8014696B7010E94F0
:10178000FE4CC8014C96B7010E94FE4CC8018E96D3
:10179000B7010E94FE4CC801C496B7010E94FE4CDE
:1017A000C801CA96B7010E94FE4CC801805C9F4FD9
:1017B000B7010E94FE4CF80117A216A2C60168E804
:1017C00072E00E942E4D1F910F91FF90EF90DF90DD
:1017D000CF900895CF92EF920F93CF93DF93813004
:1017E000910509F06EC56F5F7F4F09F0F7C586E57B
:1017F00097E00E949E2881E797E00E94693D8FE272
:1018000098E068E049E024E005E056E0E52E37E0A6
:10181000C32E0E9466288BE498E060E072E00E948C
:10182000FE4C81E598E060E072E00E94FE4C87E5A6
:1018300098E060E072E00E94FE4C8FE598E068E17D
:1018400073E00E94FE4C85E698E068E173E00E9438
:10185000FE4C8BE698E068E173E00E94FE4C81E765
:1018600098E068E173E00E94FE4C87E798E068E149
:1018700073E00E94FE4C8DE798E068E173E00E94FF
:10188000FE4C8EE898E05FDF85ED98E069E673E056
:101890000E94FE4C8BED98E06CE673E00E94FE4CDB
:1018A00081EE98E06FE673E00E94FE4C87EE98E0D0
:1018B00062E773E00E94FE4C8DEE98E065E773E00E
:1018C0000E94FE4C83EF98E068E773E00E94FE4CB4
:1018D00089EF98E06BE773E00E94FE4C8FEF98E091
:1018E0006EE773E00E94FE4C85E099E061E873E0EA
:1018F0000E94FE4C8BE099E064E873E00E94FE4C8D
:1019000081E199E067E873E00E94FE4C87E199E08D
:101910006AE873E00E94FE4C8DE199E069E673E0AD
:101920000E94FE4C83E299E06CE673E00E94FE4C5C
:1019300089E299E06FE673E00E94FE4C8FE299E045
:1019400062E773E00E94FE4C85E399E065E773E08F
:101950000E94FE4C8BE399E068E773E00E94FE4C26
:1019600081E499E06BE773E00E94FE4C87E499E024
:101970006EE773E00E94FE4C8DE499E061E873E04D
:101980000E94FE4C83E599E064E873E00E94FE4CFF
:1019900089E599E067E873E00E94FE4C8FE599E0E5
:1019A0006AE873E00E94FE4C85E699E06DE873E01A
:1019B0000E94FE4C8BE699E060E973E00E94FE4CC9
:1019C00081E799E063E973E00E94FE4C87E799E0C4
:1019D00066E973E00E94FE4C8DE799E069E973E0E7
:1019E0000E94FE4C83E899E06CE973E00E94FE4C93
:1019F00089E899E06FE973E00E94FE4C8FE899E076
:101A000062EA73E00E94FE4C85E999E065EA73E0C2
:101A10000E94FE4C8BE999E068EA73E00E94FE4C5C
:101A200081EA99E06BEA73E00E94FE4C87EA99E054
:101A30006EEA73E00E94FE4C8DEA99E061EB73E080
:101A40000E94FE4C83EB99E064EB73E00E94FE4C35
:101A500089EB99E067EB73E00E94FE4C8FEB99E015
:101A60006AEB73E00E94FE4C85EC99E06DEB73E04D
:101A70000E94FE4C8BEC99E060EC73E00E94FE4CFF
:101A800081ED99E063EC73E00E94FE4C87ED99E0F4
:101A900066EC73E00E94FE4C8DED99E068EC73E01B
:101AA0000E94FE4C83EE99E06AEC73E00E94FE4CCB
:101AB00089EE99E06CEC73E00E94FE4C8FEE99E0A9
:101AC0006EEC73E00E94FE4C85EF99E060ED73E0F0
:101AD0000E94FE4C8BEF99E062ED73E00E94FE4C99
:101AE00081E09AE064ED73E00E94FE4C87E09AE0AA
:101AF00066ED73E00E94FE4C8DE09AE068ED73E0C5
:101B00000E94FE4C83E19AE06AED73E00E94FE4C75
:101B100089E19AE069E673E00E94FE4C8FE19AE069
:101B20006CE673E00E94FE4C85E29AE06FE673E09B
:101B30000E94FE4C8BE29AE062E773E00E94FE4C4A
:101B400081E39AE065E773E00E94FE4C87E39AE048
:101B500068E773E00E94FE4C8DE39AE06BE773E068
:101B60000E94FE4C83E49AE06EE773E00E94FE4C14
:101B700089E49AE061E873E00E94FE4C8FE49AE009
:101B800064E873E00E94FE4C85E59AE067E873E044
:101B90000E94FE4C8BE59AE06AE873E00E94FE4CDE
:101BA00081E69AE06DE873E00E94FE4C87E69AE0D9
:101BB00060E973E00E94FE4C8DE69AE063E973E011
:101BC0000E94FE4C83E79AE066E973E00E94FE4CB7
:101BD00089E79AE069E973E00E94FE4C8FE79AE09A
:101BE0006CE973E00E94FE4C85E89AE06FE973E0CF
:101BF0000E94FE4C8BE89AE062EA73E00E94FE4C81
:101C000081E99AE065EA73E00E94FE4C87E99AE078
:101C100068EA73E00E94FE4C8DE99AE06BEA73E09B
:101C20000E94FE4C83EA9AE06AED73E00E94FE4C4B
:101C300089EA9AE069E673E00E94FE4C8FEA9AE036
:101C40006CE673E00E94FE4C85EB9AE06FE673E071
:101C50000E94FE4C8BEB9AE062E773E00E94FE4C20
:101C600081EC9AE065E773E00E94FE4C87EC9AE015
:101C700068E773E00E94FE4C8DEC9AE06BE773E03E
:101C80000E94FE4C83ED9AE06EE773E00E94FE4CEA
:101C900089ED9AE061E873E00E94FE4C8FED9AE0D6
:101CA00064E873E00E94FE4C85EE9AE067E873E01A
:101CB0000E94FE4C8BEE9AE06AE873E00E94FE4CB4
:101CC00081EF9AE06DE873E00E94FE4C87EF9AE0A6
:101CD00060E973E00E94FE4C8DEF9AE063E973E0E7
:101CE0000E94FE4C83E09BE066E973E00E94FE4C9C
:101CF00089E09BE069E973E00E94FE4C8FE09BE085
:101D00006CE973E00E94FE4C85E19BE06FE973E0B3
:101D10000E94FE4C8BE19BE062EA73E00E94FE4C65
:101D200081E29BE065EA73E00E94FE4C87E29BE063
:101D300068EA73E00E94FE4C8DE29BE06BEA73E080
:101D40000E94FE4C83E39BE06EEA73E00E94FE4C2F
:101D500089E39BE061EB73E00E94FE4C8FE39BE024
:101D600064EB73E00E94FE4C85E49BE067EB73E05C
:101D70000E94FE4C8BE49BE06AEB73E00E94FE4CF9
:101D800081E59BE06DEB73E00E94FE4C87E59BE0F4
:101D900060EC73E00E94FE4C8DE59BE063EC73E029
:101DA0000E94FE4C83E69BE06DED73E00E94FE4CCA
:101DB00089E69BE060EE73E00E94FE4C8FE69BE0BC
:101DC00063EE73E00E94FE4C85E79BE066EE73E0F5
:101DD0000E94FE4C8BE79BE069EE73E00E94FE4C94
:101DE00081E89BE06CEE73E00E94FE4C87E89BE08C
:101DF0006FEE73E00E94FE4C8DE89BE062EF73E0B3
:101E00000E94FE4C83E99BE065EF73E00E94FE4C6C
:101E100089E99BE068EF73E00E94FE4C8FE99BE04C
:101E20006BEF73E00E94FE4C85EA9BE06EEF73E07F
:101E30000E94FE4C8BEA9BE061E074E00E94FE4C45
:101E400081EB9BE064E074E00E94FE4C87EB9BE03A
:101E500067E074E00E94FE4C8DEB9BE06AE074E06A
:101E60000E94FE4C83EC9BE06DE074E00E94FE4C0F
:101E700089EC9BE060E174E00E94FE4C8FEC9BE0FB
:101E800063E174E00E94FE4C85ED9BE066E174E046
:101E90000E94FE4C8BED9BE069E174E00E94FE4CD9
:101EA00081EE9BE06CE174E00E94FE4C87EE9BE0CB
:101EB0006FE174E00E94FE4C8DEE9BE062E274E004
:101EC0000E94FE4C83EF9BE065E274E00E94FE4CB2
:101ED00089EF9BE068E274E00E94FE4C8FEF9BE08C
:101EE0006BE274E00E94FE4C85E09CE06EE274E0E0
:101EF0000E94FE4C8BE09CE066EC73E00E94FE4C7E
:101F000081E19CE068EC73E00E94FE4C87E19CE07C
:101F10006AEC73E00E94FE4C8DE19CE06CEC73E097
:101F20000E94FE4C83E29CE06EEC73E00E94FE4C4B
:101F300089E29CE060ED73E00E94FE4C8FE29CE041
:101F400062ED73E00E94FE4C85E39CE064ED73E07B
:101F50000E94FE4C8BE39CE066ED73E00E94FE4C19
:101F600081E49CE068ED73E00E94FE4C87E49CE015
:101F700061E374E00E94FE4C8DE49CE063E374E056
:101F80000E94FE4C83E59CE065E374E00E94FE4CF9
:101F900089E59CE067E374E00E94FE4C8FE59CE0DD
:101FA00069E374E00E94FE4C85E69CE06BE374E01C
:101FB0000E94FE4C8BE69CE06DE374E00E94FE4CB8
:101FC00081E79CE06FE374E00E94FE4C87E79CE0B1
:101FD00061E474E00E94FE4C8DE79CE063E474E0F1
:101FE0000E94FE4C83E89CE065E474E00E94FE4C95
:101FF00089E89CE067E474E00E94FE4C8FE89CE076
:1020000069E474E00E94FE4C85E99CE06BE474E0B6
:102010000E94FE4C8BE99CE06DE474E00E94FE4C53
:1020200081EA9CE06FE474E00E94FE4C87EA9CE049
:1020300061E574E00E94FE4C8DEA9CE063E574E08B
:102040000E94FE4C83EB9CE065E574E00E94FE4C30
:1020500089EB9CE067E574E00E94FE4C8FEB9CE00E
:1020600069E574E00E94FE4C85EC9CE06BE574E051
:102070000E94FE4C8BEC9CE06DE574E00E94FE4CEF
:1020800081ED9CE06FE574E00E94FE4C87ED9CE0E2
:1020900061E674E00E94FE4C8DED9CE063E674E026
:1020A0000E94FE4C83EE9CE065E674E00E94FE4CCC
:1020B00089EE9CE067E674E00E94FE4C8FEE9CE0A7
:1020C00069E674E00E94FE4C85EF9CE06BE674E0EC
:1020D0000E94FE4C8BEF9CE06DE674E00E94FE4C8B
:1020E00081E09DE06FE674E00E94FE4C87E09DE099
:1020F00061E774E00E94FE4C8DE09DE063E774E0D0
:102100000E94FE4C83E19DE065E774E00E94FE4C76
:1021100089E19DE067E774E00E94FE4C8FE19DE05D
:1021200069E774E00E94FE4C85E29DE06BE774E095
:102130000E94FE4C8BE29DE06DE774E00E94FE4C35
:1021400081E39DE06FE774E00E94FE4C87E39DE031
:1021500061E874E00E94FE4C8DE39DE063E874E06A
:102160000E94FE4C83E49DE065E874E00E94FE4C12
:1021700089E49DE067E874E00E94FE4C8FE49DE0F6
:1021800069E874E00E94FE4C85E59DE06BE874E030
:102190000E94FE4C8BE59DE06DE874E00E94FE4CD1
:1021A00081E69DE06FE874E00E94FE4C87E69DE0CA
:1021B00061E974E00E94FE4C8DE69DE063E974E005
:1021C0000E94FE4C83E79DE065E974E00E94FE4CAE
:1021D00089E79DE067E974E00E94FE4C8FE79DE08F
:1021E00066EC73E00E94FE4C85E89DE068EC73E0CD
:1021F0000E94FE4C8BE89DE06AEC73E00E94FE4C6E
:1022000081E99DE06CEC73E00E94FE4C87E99DE063
:102210006EEC73E00E94FE4C8DE99DE060ED73E092
:102220000E94FE4C83EA9DE062ED73E00E94FE4C4A
:1022300089EA9DE064ED73E00E94FE4C8FEA9DE028
:1022400066ED73E00E94FE4C85EB9DE068ED73E067
:102250000E94FE4C8BEB9DE069E974E00E94FE4C0D
:1022600081EC9DE06BE974E00E94FE4C87EC9DE000
:102270006DE974E00E94FE4C8DEC9DE061EA74E033
:102280000E94FE4C83ED9DE065EA74E00E94FE4CE6
:1022900089ED9DE069EA74E00E94FE4C8FED9DE0BF
:1022A0006DEA74E00E94FE4C85EE9DE061EB74E007
:1022B0000E94FE4C8BEE9DE065EB74E00E94FE4CAC
:1022C0008DC0892B09F08AC06F5F7F4F09F086C0EF
:1022D000CBEEDDE0CE010E94F74D26978DE0C13CAC
:1022E000D807C1F7C1ECDDE0CE010E94F74D26977B
:1022F0008CE0C134D807C1F7C1E4DCE0CE010E9414
:10230000F74D26978CE0C530D807C1F7C5E0DCE073
:10231000CE010E94F74D26978AE0CD39D807C1F744
:10232000CDE9DAE0CE010E94F74D26978AE0CD3064
:10233000D807C1F7CDE0DAE0CE010E94F74D26972D
:1023400089E0C13DD807C1F7C1EDD9E0CE010E94B7
:10235000F74D269789E0C731D807C1F7C7E1D9E023
:10236000CE010E94F74D269788E0CF3CD807C1F7F1
:102370008EEC98E00E94F74D88EC98E00E94F74DB3
:1023800082EC98E00E94F74D8CEB98E00E94F74DAC
:102390008AEA98E00E94F74D84EA98E00E94F74D9F
:1023A0008EE998E00E94F74D88E998E00E94F74D89
:1023B000CDE7D8E0CE010E94F74D269788E0C935D9
:1023C000D807C1F787E598E00E94F74D81E598E0CE
:1023D0000E94F74D8BE498E00E94F74DDF91CF917A
:1023E0000F91EF90CF90089580E090E06FEF7FEF36
:1023F000F1C981E090E06FEF7FEFECC99F92AF925F
:10240000BF92CF92DF92EF92FF920F931F93DF93D1
:10241000CF93CDB7DEB7C054D0400FB6F894DEBF2F
:102420000FBECDBF6C01962EA7E0EA2EF12CEC0E6C
:10243000FD1EC70169EB74E00E94164D8E010F5F0F
:102440001F4FC801B60140E050E028E030E00E9494
:102450008D4DC701B8010E94CB4C6FEB74E00E9418
:10246000B14CBC01C6010E94D24DC8010E94F74D7B
:10247000C7010E94FC4D8E010D5E1F4FC601B801C1
:1024800042E150E020E030E00E94E34A85EF9DE029
:10249000B8010E94DE2A882309F495C0CE018696F1
:1024A00065EF7DE0A80121E00E94032C88A599A595
:1024B00090935907809358078AA59BA5ACA5BDA505
:1024C00080935A0790935B07A0935C07B0935D07D6
:1024D0008EA59FA5A8A9B9A980935E0790935F07D1
:1024E000A0936007B0936107A2E6B7E0FE01F29601
:1024F0008DE001900D928150E1F7FE01FF96808101
:1025000091819093700780936F0786E597E00E9412
:10251000ED28882309F457C0CC24F6E0DF2EEDE047
:10252000AE2EB12CAC0EBD1E33C0CD9C800111244B
:10253000015A174FC80160E072E00E942E4DEE2450
:1025400086E597E00E941429F82E992787FD90953B
:102550008D309105E1F02FE42E15A8F08032910521
:1025600094F08F37910579F0C501B8010E94EF4DC5
:10257000C5016F2D0E94A24CBC01C8010E94D24D22
:10258000C5010E94FC4DE39488ECE816C9F6C3949B
:10259000C91458F286E597E00E94FA28692D862F23
:1025A000C05CDF4F0FB6F894DEBF0FBECDBFCF913A
:1025B000DF911F910F91FF90EF90DF90CF90BF9030
:1025C000AF909F90089580E393E167E472E00E94EA
:1025D000C64880E393E1BE016D5E7F4F0E94534A7F
:1025E00060E0DDCF4F925F926F927F928F929F92C9
:1025F000AF92BF92CF92DF92EF92FF920F931F9311
:10260000DF93CF93CDB7DEB768970FB6F894DEBFF0
:102610000FBECDBF3C018FE298E060E142E020E0D8
:102620000E94BC278FE298E00E94B6278FE298E0D4
:1026300060E040E00E948827B301665C7F4F8FE234
:1026400098E00E94E9488FE298E060E041E00E9453
:102650008827809101079AE0492E512C460C571C7F
:10266000F30142A153A1882309F446C080E1882EDA
:10267000912C860C971C26A137A16E010894C11CD1
:10268000D11CC601B2010E948D4D07E0E02EF12C55
:10269000EC0EFD1EC701B6010E94EF4DB3016A5E4C
:1026A0007F4FC7010E94CB4C5C018E01035F1F4F1F
:1026B000F30146A157A14F5F5F4F24A135A1C80187
:1026C000B2010E948D4DC501B8010E94CB4CBC01E6
:1026D000C4010E94D24DC8010E94F74DC7010E945B
:1026E000FC4DC6010E94F74D8FE298E0B4010E94B4
:1026F000E9481092010715C08E010D5E1F4FF301CE
:1027000024A135A1C801B2010E948D4D8FE298E04D
:10271000B8010E94E948C8010E94F74D81E080930A
:10272000010768960FB6F894DEBF0FBECDBFCF91FC
:10273000DF911F910F91FF90EF90DF90CF90BF90AE
:10274000AF909F908F907F906F905F904F90089583
:102750008EE898E047CF2F923F924F925F926F9210
:102760007F928F929F92AF92BF92CF92DF92EF9221
:10277000FF920F931F93DF93CF93CDB7DEB766978A
:102780000FB6F894DEBF0FBECDBF2C016B013A012E
:102790003C8B2B8B1801FE8AED8ADA011D921C926C
:1027A00001E010E01FC0F301808191819C01220FA4
:1027B000331F280F391F220F331FD20115968D9119
:1027C0009C911697820F931FB6010E94BF4BF30195
:1027D00040815181882381F44F5F5F4F5183408353
:1027E0000F5F1F4FD20111968D919C911297801708
:1027F0009107CCF680E0A3C09A01220F331F240F6B
:10280000351F220F331FF20185819681820F931F9E
:102810006CE20E942E4B5C010894A11CB11CD301F8
:102820008D919C919C01220F331F280F391F220F7D
:10283000331FF20185819681820F931F6CE2A501FF
:102840000E94104B6C014C010894811C911CD30117
:102850008D919C919C01220F331F280F391F220F4D
:10286000331FF20185819681820F931F6CE2A401D0
:102870000E94104B7C01D3012D913C91C901880F1E
:10288000991F820F931F880F991FF201658176812E
:10289000680F791F8E010F5F1F4FC801A5019601B8
:1028A0000E948D4DC101B8010E94D24DC8010E9405
:1028B000F74D8E01095F1F4FD3012D913C91C90146
:1028C000880F991F820F931F880F991FF20165814E
:1028D0007681680F791FC801A40197010E948D4D70
:1028E0008B899C89B8010E94D24DC8010E94F74D86
:1028F000D3012D913C91C901880F991F820F931F1D
:10290000880F991FD2011596ED91FC911697E80F4B
:10291000F91F8E01035F1F4F0894E11CF11C2481F5
:102920003581C801BF01A7010E948D4D8D899E8907
:10293000B8010E94D24DC8010E94F74D81E0669611
:102940000FB6F894DEBF0FBECDBFCF91DF911F91C0
:102950000F91FF90EF90DF90CF90BF90AF909F903E
:102960008F907F906F905F904F903F902F90089541
:102970002F923F924F925F926F927F928F929F928F
:10298000AF92BF92CF92DF92EF92FF920F931F937D
:10299000DF93CF93CDB7DEB7ED970FB6F894DEBFD8
:1029A0000FBECDBF9AAF89AF5B015CAF4BAF2DAF10
:1029B0001A82198283E0282E312C2C0E3D1EC10173
:1029C00060E072E00E94FE4C09E0402E512C4C0E5B
:1029D0005D1EC20160E072E00E94FE4C1FE0812E8D
:1029E000912C8C0E9D1EC40160E072E00E94FE4C92
:1029F000B5E1CB2ED12CCC0EDD1EC6016BAD7CAD6E
:102A00000E94E74D89AD9AADB601AE014F5F5F4FB1
:102A10009101820174019FDE182FC6010E94F74DBB
:102A2000112309F48DC0C20161E60E942E4B9C0166
:102A30008FEF2F3F380709F483C0A3E06A2E712C73
:102A4000620E731EEDADEE2309F468C0FBE1CF2EDC
:102A5000D12CCC0EDD1EC601B40140E050E00E9436
:102A60008D4DE1E2EE2EF12CEC0EFD1EC701B601FC
:102A70000E94EF4DC701B5010E94CB4C5C018E0155
:102A8000095D1F4F2B893C89C801B401A3010E9435
:102A90008D4DC501B8010E94CB4CBC01C4010E9400
:102AA000D24DC8010E94F74DC7010E94FC4DC601DE
:102AB0000E94F74D29813A81C901880F991F820F21
:102AC000931F880F991FE9ADFAAD05811681080F94
:102AD000191F5DE2E52EF12CEC0EFD1EC7016BAD5A
:102AE0007CAD0E94EF4DC7016CE20E94A24CB20186
:102AF0000E94CB4C6CE20E94A24CB1010E94CB4CD4
:102B00006CE20E94A24CB4010E94CB4CBC01C801F3
:102B10000E94D24DC7010E94FC4D10C08E010D5C79
:102B20001F4FC801B401A90193010E948D4DC50139
:102B3000B8010E94D24DC8010E94F74D11E001C0BA
:102B400010E0CE010F960E94F74DCE0109960E942B
:102B5000F74DCE0103960E94F74D812FED960FB6EB
:102B6000F894DEBF0FBECDBFCF91DF911F910F91C3
:102B7000FF90EF90DF90CF90BF90AF909F908F909D
:102B80007F906F905F904F903F902F9008952F927D
:102B90003F924F925F926F927F928F929F92AF92ED
:102BA000BF92CF92DF92EF92FF920F931F93DF932A
:102BB000CF93CDB7DEB7ED970FB6F894DEBF0FBE5B
:102BC000CDBF9AAF89AF5B015CAF4BAF2DAF1A821F
:102BD0001982B3E02B2E312C2C0E3D1EC10160E07A
:102BE00072E00E94FE4CA9E04A2E512C4C0E5D1E54
:102BF000C20160E072E00E94FE4CFFE08F2E912C3B
:102C00008C0E9D1EC40160E072E00E94FE4CE5E166
:102C1000CE2ED12CCC0EDD1EC6016BAD7CAD0E943C
:102C2000E74D89AD9AADB601AE014F5F5F4F91019F
:102C30008201740190DD182FC6010E94F74D112307
:102C400009F48DC0C20168E40E942E4B9C018FEFF5
:102C50002F3F380709F483C075E0672E712C620E90
:102C6000731EEDADEE2309F468C06BE1C62ED12CC6
:102C7000CC0EDD1EC601B40140E050E00E948D4D37
:102C800051E2E52EF12CEC0EFD1EC701B6010E94AB
:102C9000EF4DC701B5010E94CB4C5C018E01095D6F
:102CA0001F4F2B893C89C801B401A3010E948D4D9F
:102CB000C501B8010E94CB4CBC01C4010E94D24D99
:102CC000C8010E94F74DC7010E94FC4DC6010E9439
:102CD000F74D29813A81C901880F991F820F931FEF
:102CE000880F991FE9ADFAAD05811681080F191FEC
:102CF0009DE2E92EF12CEC0EFD1EC7016BAD7CAD03
:102D00000E94EF4DC7016CE20E94A24CB2010E94EA
:102D1000CB4C6CE20E94A24CB1010E94CB4C6CE205
:102D20000E94A24CB4010E94CB4CBC01C8010E947D
:102D3000D24DC7010E94FC4D10C08E010D5C1F4F8B
:102D4000C801B401A90193010E948D4DC501B801CC
:102D50000E94D24DC8010E94F74D11E001C010E061
:102D6000CE010F960E94F74DCE0109960E94F74DB5
:102D7000CE0103960E94F74D812FED960FB6F89481
:102D8000DEBF0FBECDBFCF91DF911F910F91FF909E
:102D9000EF90DF90CF90BF90AF909F908F907F90FB
:102DA0006F905F904F903F902F9008952F923F9299
:102DB0004F925F926F927F928F929F92AF92BF924B
:102DC000CF92DF92EF92FF920F931F93DF93CF93F7
:102DD000CDB7DEB7ED970FB6F894DEBF0FBECDBF0F
:102DE0009AAF89AF5B015CAF4BAF2DAF1A821982EE
:102DF000B3E02B2E312C2C0E3D1EC10160E072E0A1
:102E00000E94FE4CA9E04A2E512C4C0E5D1EC201C0
:102E100060E072E00E94FE4CFFE08F2E912C8C0E41
:102E20009D1EC40160E072E00E94FE4CE5E1CE2EE2
:102E3000D12CCC0EDD1EC6016BAD7CAD0E94E74DE2
:102E400089AD9AADB601AE014F5F5F4F910182012E
:102E5000740181DC182FC6010E94F74D112309F47B
:102E60008DC0C2016DE60E942E4B9C018FEF2F3F5B
:102E7000380709F483C07AE0672E712C620E731E46
:102E8000EDADEE2309F468C06BE1C62ED12CCC0E5B
:102E9000DD1EC601B40140E050E00E948D4D51E2BC
:102EA000E52EF12CEC0EFD1EC701B6010E94EF4D80
:102EB000C701B5010E94CB4C5C018E01095D1F4F1B
:102EC0002B893C89C801B401A3010E948D4DC50125
:102ED000B8010E94CB4CBC01C4010E94D24DC80174
:102EE0000E94F74DC7010E94FC4DC6010E94F74D9C
:102EF00029813A81C901880F991F820F931F880F7A
:102F0000991FE9ADFAAD05811681080F191F8DE2F1
:102F1000E82EF12CEC0EFD1EC7016BAD7CAD0E94BE
:102F2000EF4DC7016CE20E94A24CB2010E94CB4C53
:102F30006CE20E94A24CB1010E94CB4C6CE20E9458
:102F4000A24CB4010E94CB4CBC01C8010E94D24DDE
:102F5000C7010E94FC4D10C08E010D5C1F4FC801BF
:102F6000B401A90193010E948D4DC501B8010E94D1
:102F7000D24DC8010E94F74D11E001C010E0CE0112
:102F80000F960E94F74DCE0109960E94F74DCE0193
:102F900003960E94F74D812FED960FB6F894DEBF91
:102FA0000FBECDBFCF91DF911F910F91FF90EF909A
:102FB000DF90CF90BF90AF909F908F907F906F9059
:102FC0005F904F903F902F9008950F931F93CF9352
:102FD000DF938B01EA01C801BE010E94644AFC0133
:102FE0008081803221F0D7FD02C02197F4CFCE013D
:102FF000DF91CF911F910F9108950F931F93CF935E
:10300000DF938B01EA01C801BE010E94644AFC0102
:103010008081803221F4D7FD02C02197F4CFCE0108
:10302000DF91CF911F910F9108950F931F93CF932D
:10303000DF938B01EA01C801BE010E94644AFC01D2
:103040008081803249F4F801848195810196C81706
:10305000D90710F42196EFCFCE01DF91CF911F91C8
:103060000F9108952F923F924F925F926F927F92AD
:103070008F929F92AF92BF92CF92DF92EF92FF9288
:103080000F931F93DF93CF93CDB7DEB7C354D040D8
:103090000FB6F894DEBF0FBECDBF4C013B0180E3FD
:1030A00093E16AED72E00E94C6486091B913709195
:1030B000BA13CE0101966115710521F4BC016D5B57
:1030C000734104C09C01261B370BB90180E393E1D7
:1030D0004AE050E00E94DB49CE01029660E072E0D7
:1030E0000E94FE4CC3016CE20E942E4B7C018E01BB
:1030F000085F1F4FC801B30140E050E097010E94F4
:103100008D4DC401C496B8010E94D24DC8010E94E1
:10311000F74D0894E11CF11CC3016CE2A7010E9469
:10312000104B6C013CE1232E312C280C391C8E01F4
:10313000025F1F4FC801B301A70196010E948D4D88
:10314000C101B8010E94D24DC8010E94F74D0894F8
:10315000C11CD11CC3016CE2A6010E94104B7C0172
:103160002AE3A22EB12CA80CB91C8E010C5E1F4FB5
:10317000C801B301A60197010E948D4DC501B80198
:103180000E94D24DC8010E94F74D9AE0492E512C61
:10319000480C591C80E2C82ED12CCC0EDD1EC60175
:1031A00069EC74E00E94164D8E01065E1F4F089474
:1031B000E11CF11CF30124813581C801B301A70191
:1031C0000E948D4DC601B8010E94CB4CBC01C201CA
:1031D0000E94D24DC8010E94F74DC6010E94FC4DCD
:1031E000F4018685978595A384A3C20162EE74E0FD
:1031F0000E94734C8E010A5D1F4FC801B2010E94EC
:10320000E74DC401B80140E050E00FDFF40193A3A3
:1032100082A3C8010E94F74DF40182A193A197A354
:1032200086A38FE298E060E142E020E00E94BC27A4
:103230008FE298E00E94B6278FE298E060E040E0DD
:103240000E9488278FE298E0B5010E94E9488FE24A
:1032500098E060E041E00E948827F40184A195A1F4
:1032600022A133A1821B930B26A137A140970CF119
:103270000CE2E02EF12CEC0EFD1EC701B201A901FB
:10328000215F3F4F0E948D4D8E010E5C1F4FC80184
:10329000B7010E94EF4DC8016EE30E94A24CBC0131
:1032A0008FE298E00E94E948C8010E94FC4DC701E6
:1032B00010C08E01085C1F4FC801B201A901205F38
:1032C0003F4F0E948D4D8FE298E0B8010E94E9487F
:1032D000C8010E94F74DC10167EF74E00E94314BB5
:1032E000882319F081E090E009C0C10164EC74E02A
:1032F0000E94314B882351F083E090E0F4019087E5
:103300008783C40160E00E94B40A4CC082E090E070
:10331000F40190878783C40161E00E94B40A1EE330
:10332000612E712C6C0E7D1E06C0F40186A197A142
:10333000019697A386A3F40126A137A182A193A1A8
:10334000281B390BC301B101A9012F5F3F4F0E9418
:103350008D4DC30169E974E00E94314B882311F45B
:1033600000E00BC000E0F40182A193A10E9626A11B
:1033700037A1821793070CF001E0C3010E94F74DBB
:10338000002399F6F401818594012A5E3F4F88233A
:1033900021F0C90169E974E003C0C9016CEF74E070
:1033A0000E942E4DCE0102960E94F74DCD5BDF4F5D
:1033B0000FB6F894DEBF0FBECDBFCF91DF911F9146
:1033C0000F91FF90EF90DF90CF90BF90AF909F90C4
:1033D0008F907F906F905F904F903F902F900895C7
:1033E0007F928F929F92AF92BF92CF92DF92EF9295
:1033F000FF920F931F93DF93CF93CDB7DEB72C9738
:103400000FB6F894DEBF0FBECDBF6C01762E49011A
:103410005801442301F18FE598E0F60196838583F6
:103420007E010894E11CF11CC701B9010E94E74D1F
:10343000C701602F0E94FE11082FC7010E94F74D9F
:1034400010E00A151B0551F080E393E169EA72E090
:103450000E941B4903C0FC01F682E582C6018E96DC
:10346000B4010E94D24DF60114821382F1E0AF162E
:10347000B10419F00894A108B108F601B282A18242
:10348000F601718686E490E0C80ED91EF60110821E
:103490008AEB9FEFC80ED91E8E01095F1F4FF60100
:1034A00065817681C8010E94E74DC601B801DADD69
:1034B000C8010E94F74D2C960FB6F894DEBF0FBEE0
:1034C000CDBFCF91DF911F910F91FF90EF90DF90D3
:1034D000CF90BF90AF909F908F907F900895CF92A4
:1034E000DF92EF92FF920F931F93DF93CF93CDB7AD
:1034F000DEB7A4970FB6F894DEBF0FBECDBFCE01E6
:10350000019660E072E00E94FE4C80E393E140E8A7
:1035100055E260E070E00E942446CE0107966EEF0F
:1035200074E00E94FE4CCE010D9669E075E00E94A9
:10353000FE4CCE01439664E175E00E94FE4C85E3AB
:1035400061E00E94B94185EF9DE065E30E94232D73
:10355000882329F480E393E16DE272E004C080E304
:1035600093E16AE172E00E941B4981E00E946C0BCA
:1035700081E00E948D0A81E080938E0869E1C62E69
:10358000D12CCC0EDD1EC60161E275E00E94FE4C1E
:103590008EE898E061E041E0960104E010E05FE52C
:1035A000E52E58E0F52E1CDFC6010E94F74D89E09C
:1035B0008093490887E0809348088DE280934A0809
:1035C00080E1809346088FE0809345088BE18093EB
:1035D000440882E08093470884E498E00E94D7255D
:1035E000882339F080E393E16EEE71E00E941B497D
:1035F0000EC08E01015E1F4FC80169E275E00E9496
:10360000FE4CC8010E941303C8010E94F74DCE0171
:1036100043960E94F74DCE010D960E94F74DCE01C4
:1036200007960E94F74DCE0101960E94F74DA49691
:103630000FB6F894DEBF0FBECDBFCF91DF911F91C3
:103640000F91FF90EF90DF90CF9008954F925F928F
:103650006F927F928F929F92AF92BF92CF92DF92A2
:10366000EF92FF920F931F93DF93CF93CDB7DEB707
:10367000E0970FB6F894DEBF0FBECDBF3C01D62E4B
:103680007E010894E11CF11CC70160E072E00E9419
:10369000FE4CCE01079660E072E00E94FE4C1AE0FC
:1036A000412E512C460C571CF30126A137A18E0147
:1036B000035F1F4FC801B201A9012E5F3F4F0E9457
:1036C0008D4DC701B8010E94D24DC8010E94F74D2F
:1036D00080E393E1B7010E942D49C7010E94794A16
:1036E0004B015C018B010150104080E393E1B80174
:1036F0004AE050E00E94344ADD2041F00B301105D1
:103700001CF080E090E00AC0C40108C01016110649
:103710001CF08BE090E002C0C8010197B7E08B2E4F
:10372000912C8C0E9D1EBC01660F771F680F791FB0
:10373000660F771F6B52774FC4010E94D24D80E312
:1037400093E1B4010E942D4980E393E16CE475E0BC
:103750000E94514AF30166A177A180E393E14AE018
:1037600050E00E94344A80E393E168E575E00E94EE
:10377000514A8E010D5E1F4FF30126A137A1C801EA
:10378000B20140E050E00E948D4D80E393E1B8012A
:103790000E94E948C8010E94F74D80E393E167E683
:1037A00075E00E94514A8E01075E1F4FF30146A14A
:1037B00057A14E5F5F4F26853785C801B2010E9431
:1037C0008D4D80E393E1B8010E94E948C8010E9451
:1037D000F74D80E393E16EE775E00E94534AEFE115
:1037E000AE2EB12CAC0EBD1EF30126A137A1C50132
:1037F000B20140E050E00E948D4D75E2E72EF12CC1
:10380000EC0EFD1EC701B5010E94EF4DC701B401CA
:103810000E94CB4C6C018E01055D1F4FF30146A148
:1038200057A14E5F5F4F26853785C801B2010E94C0
:103830008D4DC601B8010E94CB4CBC016E010894AD
:10384000C11CD11CC6010E94D24DC8010E94F74D77
:10385000C7010E94FC4DC5010E94F74D80E393E132
:103860006EE775E00E94514A80E393E1B2010E9445
:10387000E94880E393E16EE775E00E94534A80E3F4
:1038800093E16EE775E00E94514A80E393E1B6014F
:103890000E94E94880E393E16EE775E00E94534A95
:1038A000C201B6010E94D24D80E393E16EE775E05C
:1038B0000E94514A80E393E1B2010E94E94880E30B
:1038C00093E16EE775E00E94534AC4010E94F74DF0
:1038D000C6010E94F74DE0960FB6F894DEBF0FBE0A
:1038E000CDBFCF91DF911F910F91FF90EF90DF90AF
:1038F000CF90BF90AF909F908F907F906F905F9090
:103900004F9008958F929F92AF92BF92CF92DF9285
:10391000EF92FF920F931F93DF93CF93CDB7DEB754
:10392000CC5FD0400FB6F894DEBF0FBECDBF5C01B8
:10393000DC01DC90B1E0DB1609F048C6FC018781B0
:1039400090858230910509F453C28330910509F4C2
:1039500063C4019709F03AC6D50196968D909C9064
:10396000979780918608909187088330910509F494
:10397000EDC18430910544F48130910509F4A8C16A
:10398000029709F023C6C4C08430910509F4EDC143
:10399000059709F01BC68AE0C82ED12CCA0CDB1C87
:1039A0008E010F5F1F4FC801B6010E94E74DF50160
:1039B00046A157A1C80160E20E94104BD50197961D
:1039C0009C938E939697C8010E94F74DF50126A10E
:1039D00037A184A195A1281739071CF097A286A2C8
:1039E000F5C58E01095F1F4FC801B6010E94E74D62
:1039F000D50196964D915C919797C501B80115DB5D
:103A0000F50197A386A3C8010E94F74D8FE298E0C5
:103A100060E142E020E00E94BC278FE298E00E9433
:103A2000B6278FE298E060E040E00E948827B50169
:103A3000665C7F4F8FE298E00E94E9488FE298E051
:103A400060E041E00E948827D50196962D913C9137
:103A50009797F901709694968D919C91959792966F
:103A60004D915C919397E817F9071CF5421753079E
:103A700084F403E1E02EF12CEC0EFD1EC7016CE393
:103A80000E94754DF50126A137A18E01035F1F4FDE
:103A9000DCC019E1E12EF12CEC0EFD1EC701B601D0
:103AA000A901215F3F4F0E948D4D8E01015E1F4F86
:103AB00069C04217530744F5BBE2EB2EF12CEC0E24
:103AC000FD1EC7016CE30E94754DD50196962D91A0
:103AD0003C9197978E010B5D1F4FC801B601A9015C
:103AE000215F3F4F0E948D4DC701B8010E94CB4C12
:103AF000BC018FE298E00E94E948C8010E94F74D9E
:103B0000C7010E94FC4D62C58E010F5C1F4FD4C0DF
:103B10008FE298E060E142E020E00E94BC278FE263
:103B200098E00E94B6278FE298E060E040E00E94B3
:103B30008827B501665C7F4F8FE298E00E94E948D4
:103B40008FE298E060E041E00E948827F50126A11D
:103B500037A182A193A1AAE0CA2ED12CCA0CDB1CEA
:103B6000821793070CF1F7E3EF2EF12CEC0EFD1EFC
:103B7000C701B601A901215F3F4F0E948D4D8E0103
:103B8000035C1F4FC801B7010E94EF4DC8016EE3EF
:103B90000E94A24CBC018FE298E00E94E948C80153
:103BA0000E94FC4DC701FCC48E010D5B1F4FC80174
:103BB000B6010E94E74DD50196964D915C9197977D
:103BC00041505040C501B80118DAF50197A386A30A
:103BD000C8010E94F74D8E01075B1F4FC801B60157
:103BE0000E94E74DD50196964D915C919797C5013E
:103BF000B801EBD90196F50197A386A3C8010E94ED
:103C0000F74DD50196962D913C919797F9017096B5
:103C100094968D919C91959792964D915C919397E6
:103C2000E817F9078CF542175307F4F4E5E5EE2E93
:103C3000F12CEC0EFD1EC7016CE30E94754DF501E1
:103C400026A137A18E01015B1F4FC801B601A90152
:103C5000225F3F4F0E948D4DC701B8010E94CB4C9F
:103C60006EE30E94A24C44CF7BE5E72EF12CEC0ED4
:103C7000FD1EC701B601A901215F3F4F0E948D4D76
:103C80008E010F591F4F7ECF4217530794F46DE6F4
:103C9000E62EF12CEC0EFD1EC7016CE30E94754D63
:103CA000D50196962D913C9197978E0109591F4FFA
:103CB00014CF8E010D581F4FC801B601A9019F01F5
:103CC0000E948D4D8FE298E0B8010E94E94859C2E8
:103CD000F50191A680A65AE0E52EF12CEA0CFB1C1A
:103CE0008E0107581F4FC801B7010E94E74DD5014B
:103CF00096964D915C919797C80160E20E94104B97
:103D0000F50193A782A7C8010E94F74D8E010158C3
:103D10001F4FD50198964D915C9199979A962D9148
:103D20003C919B97C801B7010E948D4DC501805CF5
:103D30009F4FB8010E94D24DC8010E94F74DE6E4A2
:103D4000F0E0AE0EBF1ED501DC9240C4F501238128
:103D500034812115310509F439C4215030403483B0
:103D600023838E010B571F4FA7C1D50113962D91A9
:103D70003C91149711968D919C91129728173907B1
:103D800009F424C42F5F3F4F14963C932E9313974E
:103D90008E0105571F4FC901880F991F820F931F6E
:103DA000880F991F15966D917C911697680F791F52
:103DB000C8010E94E74DC501B80154D9C8010E944D
:103DC000F74D80E393E160E875E00E94534AF50106
:103DD00083819481BC01660F771F680F791F660F7E
:103DE000771F615A774F80E393E10E942D49EEC31C
:103DF00000918608109187080530110509F042C02E
:103E0000D50196962D913C91979792968D919C9184
:103E100093970E968217930734F02F5F3F4F979634
:103E20003C932E9396978501045E1F4FF50166A182
:103E300077A182A193A1681B790BC8010E94644AF3
:103E4000FC0180818D3209F0AEC3D50196962D918B
:103E50003C91979792968D919C9193970E9682178D
:103E600093070CF4A0C32F5F3F4F97963C932E937C
:103E70009697DCCF21503040240F351FF50137A332
:103E800026A3A4C3D50196966D917C91979792969F
:103E90004D915C9193970230110579F546175707BC
:103EA00034F46150704097967C936E939697850199
:103EB000045E1F4FF50166A177A182A193A1681B43
:103EC000790BC8010E94644AFC0180818D3209F09F
:103ED0007DC3D50196962D913C91979792968D91A1
:103EE0009C919397821793070CF070C32150304038
:103EF00097963C932E939697DDCF8CE1882E912C4C
:103F00008A0C9B1C641B750BC4010E94644AFC0153
:103F1000E081ED36A1F4F5018185882309F056C3CF
:103F20000330110529F00430110509F02CC103C03C
:103F3000C50161E002C0C50160E088DB24C1E43650
:103F4000B1F4D50119968C91882309F03FC3033051
:103F5000110529F00430110509F015C103C0C50190
:103F600061E002C0C50160E00E94C1090CC1E937EF
:103F7000A9F4F5018185882309F028C303301105D0
:103F800029F00430110509F0FEC003C0C50161E04D
:103F900002C0C50160E00E94F708F5C0E136B1F447
:103FA000D50119968C91882309F010C303301105AF
:103FB00029F00430110509F0E6C003C0C50161E035
:103FC00002C0C50160E00E941308DDC0E834A9F416
:103FD000F5018185882309F0F9C20330110529F024
:103FE0000430110509F0CFC003C0C50161E002C073
:103FF000C50160E00E944907C6C0ED34B1F4D501A7
:1040000019968C91882309F0E1C20330110529F03B
:104010000430110509F0B7C003C0C50161E002C05A
:10402000C50160E00E947F06AEC0E332A9F4F5014D
:104030008185882309F0CAC20330110529F00430B4
:10404000110509F0A0C003C0C50161E002C0C501AF
:1040500060E00E94B50597C0E334B1F4D50119962C
:104060008C91882309F0B2C20330110529F0043085
:10407000110509F088C003C0C50161E002C0C50197
:1040800060E00E94D1047FC0E535B9F50330110529
:1040900029F00430110509F099C218C0F5012381F7
:1040A00034812115310509F491C221503040348307
:1040B00023838E010F561F4FC901880F991F820F4E
:1040C000931F880F991F6581768152C0D501139681
:1040D0002D913C91149711968D919C9112972817D0
:1040E000390709F473C22F5F3F4F14963C932E9308
:1040F00013978E0109561F4F30C0E43409F066C291
:104100000330110529F00430110509F05FC20FC01A
:10411000F501238134812115310509F457C221505D
:104120003040348323838E0103561F4FC5CFD50102
:1041300013962D913C91149711968D919C91129705
:104140002817390709F442C22F5F3F4F14963C935A
:104150002E9313978E010D551F4FC901880F991F7C
:10416000820F931F880F991F15966D917C9116975A
:10417000680F791FC8010E94E74DC501B8010E9470
:104180003218C8010DC27FEAC72ED12CCC0EDD1E1D
:10419000B501665F7F4FC6010E94E74DC6010E94D0
:1041A0008A4AF50123813481C901880F991F820F42
:1041B000931F880F991F05811681080F191F49EA5F
:1041C000E42EF12CEC0EFD1E24E330E0A20EB31E13
:1041D000C701B5010E94EF4DC7016CE20E94A24CDD
:1041E000B4010E94CB4C6CE20E94A24CA6E0B0E06D
:1041F000AA0EBB1EB5010E94CB4C6CE20E94A24CE1
:10420000B6010E94CB4CBC01C8010E94D24DC7012F
:104210000E94FC4DC601C4C13FEA832E912C8C0E36
:104220009D1EC40160E072E00E94FE4C80918608F1
:10423000909187088330910509F46EC1843091050F
:1042400024F4029709F0A9C1FCC08430910509F457
:1042500080C1059709F0A1C1F50186A197A14096FB
:1042600097A386A324A135A12817390714F437A3EF
:1042700026A32AE0C22ED12CCA0CDB1CD5019696AF
:104280006D917C919797C6010E94644AFC018081E0
:104290008032F9F0F50166A177A1C6010E94644A57
:1042A000FC018081803209F44EC0D50196962D9193
:1042B0003C91979792968D919C9193978217930733
:1042C0000CF041C02150304097963C932E93969726
:1042D000E1CFF50166A177A1C6010E94644AFC0105
:1042E0008081803299F4D50196962D913C919797D3
:1042F00092968D919C919397821793073CF421504D
:10430000304097963C932E939697E3CFF50166A1A4
:1043100077A1C6010E94644AFC018081803299F035
:10432000D50196962D913C91979792968D919C915F
:104330009397821793073CF42150304097963C9313
:104340002E939697E3CFF50126A137A182A193A1E1
:1043500044A155A128173907F1F4F90170969FEA95
:10436000892E912C8C0E9D1EE417F50784F485EBA5
:10437000E82EF12CEC0EFD1EC701B601A901215F4C
:104380003F4F0E948D4D8E0105541F4F80C08E01FE
:104390000F531F4F90C02F5F3F4FD50197963C930F
:1043A0002E939697205F3F4F0FEA802E912C8C0E14
:1043B0009D1E24173507F4F41DECE12EF12CEC0EB4
:1043C000FD1EC7016CE30E94754DF50126A137A1C2
:1043D0008E0109531F4FC801B601A901225F3F4F4B
:1043E0000E948D4DC701B8010E94CB4C6EE30E9424
:1043F000A24C1CC0B9EDEB2EF12CEC0EFD1EC7013A
:104400006CE30E94754DD50196962D913C9197973E
:104410008E010D521F4FC801B601A901215F3F4F08
:104420000E948D4DC701B8010E94CB4CBC01C40154
:104430000E94D24DC8010E94F74DC7010E94FC4D59
:1044400047C0D50192962D913C91939797963C93B6
:104450002E939697F901709694968D919C919597CD
:10446000AAE0CA2ED12CCA0CDB1CE817F90704F508
:104470007FEDE72EF12CEC0EFD1EC701B601A90160
:10448000215F3F4F0E948D4D8E010B511F4FC80180
:10449000B7010E94EF4DC8016EE30E94A24CBC011F
:1044A000C4010E94D24DC8010E94FC4DC7010EC03C
:1044B0008E0105511F4FC801B601A9019F010E943D
:1044C0008D4DC401B8010E94D24DC8010E94F74D24
:1044D0008FE298E060E142E020E04ED58FE298E084
:1044E00045D58FE298E060E040E012D5EAE3F0E0E5
:1044F000AE0EBF1E8FE298E0B5010E94E9488FE240
:1045000098E060E041E004D58FE298E0BE0161559B
:104510007F4F0E94E94841C0D50113962D913C91EF
:10452000149721153105C9F12150304014963C9360
:104530002E9313978E010F501F4FC901880F991F9B
:10454000820F931F880F991F15966D917C91169776
:1045500018C0F501238134818181928128173907A0
:10456000E1F02F5F3F4F348323838E0109501F4FAB
:10457000C901880F991F820F931F880F991F6581AA
:104580007681680F791FC8010E94E74DC501B80107
:104590000E943218C8010E94F74DCE0181559F4FED
:1045A0000E94F74D13C0D50192964D915C9193975F
:1045B00090962D913C91919796968D919C9197977D
:1045C000841B950B8217930708F054CCC450DF4F1F
:1045D0000FB6F894DEBF0FBECDBFCF91DF911F9114
:1045E0000F91FF90EF90DF90CF90BF90AF909F9092
:1045F0008F900895CF92DF92EF92FF920F931F93C7
:10460000DF93CF93CDB7DEB7C759D0400FB6F8943C
:10461000DEBF0FBECDBF81E797E00E94D83C8091FE
:104620008308813061F4109283086091860870914C
:1046300087086115710519F08EE898E063D98091BB
:10464000D408813009F090C28CEB98E061E275E00B
:104650000E94314B882309F4A4C082EC98E068E8FA
:1046600075E00E94314B882309F48DC08EEC98E0F0
:104670006EE875E00E94314B882309F461C062E066
:10468000C62ED12CCC0EDD1EC60162E975E00E945B
:10469000FE4C8EE898E060E041E0960105E010E015
:1046A0005FE5E52E58E0F52E0E94F019C6010E9444
:1046B000F74D8E01085F1F4FC8016CE975E00E943D
:1046C000FE4C8EE898E061E578E0A80121E00E94C8
:1046D000D616C8010E94F74D0EE0E02EF12CEC0E2C
:1046E000FD1EC7016BE478E040E050E025E030E0DB
:1046F0000E948D4D8E010C5E1F4FC80161EA75E06E
:104700000E94FE4C8EE898E0B701A80121E00E94CB
:10471000C715C8010E94F74DC7010E94F74D8E01D1
:10472000065E1F4FC80166EA75E00E94FE4C8EE8E7
:1047300098E067E578E0A80121E00E94B81411C272
:104740008EEC98E06AEA75E00E94314B882329F0EC
:1047500080E393E160ED71E00CC08EEC98E066EBD5
:1047600075E00E94314B882339F080E393E162EBDE
:1047700071E00E941B49F8C18E01005E1F4FC80105
:1047800062EC75E0E9C18E010A5D1F4FC80160E06F
:1047900076E00E94FE4CC8010E941303C8010E94EB
:1047A000F74D8CEB98E062E975E00E94314B88236D
:1047B00009F4CCC180E393E162EC78E00E942D49DA
:1047C00082EC98E067E376E00E94314B882309F49D
:1047D0007AC18EEC98E06EE376E00E94314B88233C
:1047E00009F42DC180E393E169E971E00E941B495E
:1047F00080E393E16CE871E00E94C6486091B913D0
:104800007091BA13CE0101966115710521F4BC01B6
:104810006D5B734104C09C01261B370BB90180E31B
:1048200093E14AE050E00E94DB49CE018C9660E0C3
:1048300072E00E94FE4C12E3C12ED12CCC0EDD1E84
:10484000C60160E072E00E94FE4CCE01C89660E0B6
:1048500072E00E94FE4CBEE3EB2EF12CEC0EFD1E2E
:10486000C70160E072E00E94FE4C8E010C5B1F4F9E
:10487000C8016CE975E00E94FE4C8EE898E0B60134
:10488000A80120E00E94D616C8010E94F74D8E01B3
:10489000065B1F4FC801B60140E050E022E030E067
:1048A0000E948D4DC701B8010E94D24DC8010E94DF
:1048B000F74DC7010E94794A609349088E01005B59
:1048C0001F4FC801B60143E050E025E030E00E94F0
:1048D0008D4DC701B8010E94D24DC8010E94F74D0D
:1048E000C7010E94794A609348088E010A5A1F4FF7
:1048F0002EA93FA9C801B60146E050E00E948D4DA7
:10490000C701B8010E94D24DC8010E94F74DC701EE
:104910000E94794A625B60934A088E01045A1F4FD5
:10492000C80161EA75E00E94FE4C8EE898E06BE4F5
:1049300078E0A80120E00E94C715C8010E94F74D49
:104940008E010E591F4FC8016BE478E040E050E043
:1049500022E030E00E948D4DC701B8010E94D24D87
:10496000C8010E94F74DC7010E94794A609346082A
:104970008E0108591F4FC8016BE478E043E050E016
:1049800025E030E00E948D4DC701B8010E94D24D54
:10499000C8010E94F74DC7010E94794A60934508FB
:1049A000109244088E0102591F4FC80166EA75E053
:1049B0000E94FE4C8EE898E067E578E0A80120E0D0
:1049C0000E94B814C8010E94F74D00E010E0C80131
:1049D000880F991F800F911F880F991F8953924F3D
:1049E00067E578E00E94874B882329F40F5F1F4F0B
:1049F0000730110561F70093470884E498E0D7D0A9
:104A0000882371F48E010C581F4FC80165E476E0CD
:104A10000E94FE4CC8010E941303C8010E94F74D7A
:104A2000CE01CE960E94F74DCE01C8960E94F74D5A
:104A3000CE01C2960E94F74DCE018C9626C08EEC18
:104A400098E066E576E00E94314B882309F180E327
:104A500093E163E771E00E941B49EAE7CE2ED12C77
:104A6000CC0EDD1EC60161E275E00E94FE4C8EE8B0
:104A700098E061E041E0960104E010E07FE5E72E78
:104A800078E0F72E0E94F019C6010E94F74D45C04C
:104A90008E0100581F4FC8016DE576E00E94FE4C64
:104AA000C8010E941303C8010E94F74D80E393E1FF
:104AB0006FE271E00E94C64880E393E16EEC78E01B
:104AC0000E942D492AC08E010A571F4FC80160EA73
:104AD00076E00E94FE4CC8010E941303C8010E94A8
:104AE000F74D80E393E16CEE70E00E94C64880E3EE
:104AF00093E162EC78E00E942D4980E393E164EE5B
:104B000070E00E94C6486091C6087091C70880E3B3
:104B100093E14AE050E00E94DB496CE8C62ED12CBC
:104B2000CC0EDD1EC60161E275E00E94FE4C8EE8EF
:104B300098E061E041E0960104E010E05FE5E52ED9
:104B400058E0F52E0E94F019C6010CC08E010E56D9
:104B50001F4FC80166ED76E00E94FE4CC8010E941E
:104B60001303C8010E94F74D1092D408C956DF4FB5
:104B70000FB6F894DEBF0FBECDBFCF91DF911F916E
:104B80000F91FF90EF90DF90CF900895482F6AE04B
:104B90000E94014F282F30E084E0220F331F8A95B6
:104BA000E1F7842F0E94014F892F820F08950F9300
:104BB0001F938C018DE890E168E670E00E947E3DD5
:104BC0008DE890E160E00E94FF3DF8018081DEDF2A
:104BD000682F8DE890E10E94FF3DF8018181D6DFCA
:104BE000682F8DE890E10E94FF3DF8018281CEDFC1
:104BF000682F8DE890E10E94FF3DF8018381C6DFB8
:104C0000682F8DE890E10E94FF3DF8018481BEDFAE
:104C1000682F8DE890E10E94FF3DF8018581B6DFA5
:104C2000682F8DE890E10E94FF3DF80186818E514A
:104C3000ADDF682F8DE890E10E94FF3D8DE890E1A7
:104C40000E94403E882321F01092F40D80E003C0C2
:104C500081E08093F40D1F910F9108950F931F939E
:104C6000CF93DF93EC018DE890E168E670E00E945D
:104C70007E3D8DE890E160E00E94FF3D8DE890E18F
:104C80000E94403E882319F01092F40D11C081E07B
:104C90008093F40D8DE890E168E670E047E050E025
:104CA0000E944E3E8DE890E10E94883D079714F4E3
:104CB00080E065C08DE890E10E94913D082F8F77DC
:104CC00082958F701AE0819FC0011124202F2F70D0
:104CD000280F28838DE890E10E94913D282F22958E
:104CE0002F70219F900111248F70820F89838DE88E
:104CF00090E10E94913D282F2F7322952F70219FC4
:104D0000900111248F70820F8A838DE890E10E94B8
:104D1000913D282F22952F70219F900111248F7093
:104D2000820F8B838DE890E10E94913D282F229580
:104D30002F70219F900111248F70820F8C838DE83A
:104D400090E10E94913D282F22952F70219F900184
:104D500011248F70820F8D838DE890E10E94913D28
:104D6000282F2F70225E82958F70819FC0011124A1
:104D7000280F2E83802F8095881F8827881FDF911A
:104D8000CF911F910F9108958DE890E10C94503EC2
:104D90000F931F938C01FC01868160E00E946C429E
:104DA00081E090E00E941941F801868161E00E9453
:104DB0006C4281E090E00E941941F801868160E038
:104DC0000E946C4284E690E00E9419411F910F916D
:104DD0000895CF92DF92EF92FF920F931F93CF939C
:104DE000DF93D82EC92E282F392FC9018C01C0E09E
:104DF000D0E0E62EFF24F801878161E00E94B941EE
:104E0000B7010C2E02C0759567950A94E2F76170A0
:104E1000F80187810E946C4221960F5F1F4FC830B6
:104E2000D10549F78D2D9C2DB3DFDF91CF911F91D7
:104E30000F91FF90EF90DF90CF900895CF92DF9287
:104E4000EF92FF920F931F93CF93DF93D82EC92E2B
:104E5000282F392FC9018C01C0E0D0E0E62EFF24B5
:104E6000F801878161E00E94B941B7010C2E02C0B0
:104E7000759567950A94E2F76170F80187810E9441
:104E80006C4221960F5F1F4FC430D10549F78D2D1D
:104E90009C2D7EDFDF91CF911F910F91FF90EF90BE
:104EA000DF90CF9008951F93CF93DF93EC01162FDF
:104EB0008C81642F0E946C428D818F3F19F060E0DD
:104EC0000E946C428F8584FF04C0CE01612F81DF78
:104ED0000CC0612F70E084E0759567958A95E1F7C5
:104EE000CE01ACDFCE01612FA9DFDF91CF911F9101
:104EF000089541E0D8DF81E090E0089540E0D3CF0D
:104F0000FC016089862F8460808B6C60CF01F6CFB6
:104F1000DF93CF93CDB7DEB728970FB6F894DEBFF7
:104F20000FBECDBF9C01FE013196A5E1B7E088E040
:104F30000D9001928150E1F7F9018389481710F033
:104F4000482F4150E42FF0E0EE0FFF1FEC0FFD1F44
:104F50008181680F6068C901D1DF28960FB6F89487
:104F6000DEBF0FBECDBFCF91DF91089561E0C6DFF8
:104F700080ED97E00C941941CF93DF93EC01423020
:104F800018F08F8588608F874B8B1C8A222329F02D
:104F9000413019F48F8584608F8780E593EC0E94FF
:104FA00019418C8160E00E946C428E8160E00E9419
:104FB0006C428D818F3F19F060E00E946C426F85DA
:104FC00064FD19C0CE0163E039DF84E991E10E94FC
:104FD0001941CE0163E032DF84E991E10E94194179
:104FE000CE0163E02BDF86E990E00E941941CE01FB
:104FF00062E024DF13C06062CE0180DF84E991E1CA
:105000000E9419416F856062CE0178DF86E990E0E9
:105010000E9419416F856062CE0170DF6F8560620A
:10502000CE016CDF84E0888BCE016ADFCE019EDF8B
:1050300082E0898BCE0166E061DFDF91CF91089538
:105040006F927F928F92AF92CF92EF920F931F93B6
:10505000DF93CF93CDB7DEB73C01162F842FF3013A
:10506000448325830683E782C086A18682869E8547
:1050700093879F859487988995879989968761E01A
:105080000E94B941F30185818F3F19F061E00E94D0
:10509000B941F301868161E00E94B941112319F001
:1050A000F301178603C080E1F3018787C30160E144
:1050B00041E020E061DFCF91DF911F910F91EF90F0
:1050C000CF90AF908F907F906F9008958F92AF9216
:1050D000CF92EF920F931F93CF93DF93DC01362F84
:1050E000542F722F102FAE2C8C2C13961C921E92C4
:1050F000129781E197E011969C938E9300D00F92C6
:10510000EDB7FEB73196CDB7DEB7198211821282A4
:105110001382CD0161E0432F2FEF052FE72EC12E23
:105120008FDF0F900F900F900F90DF91CF911F9115
:105130000F91EF90CF90AF908F900895FC01138264
:10514000128288EE93E0A0E0B0E084839583A6838A
:10515000B78381E297E091838083128E118E14864B
:105160000895DF93CF930F92CDB7DEB7FC0169832B
:10517000A081B18112962D913C911397BE016F5F72
:105180007F4F41E050E0F90119950F90CF91DF91E9
:105190000895DC015996ED91FC915A97309719F4D6
:1051A00020E030E018C023893489458956898285FA
:1051B0009385A485B585281B390B4A0B5B0B2030E2
:1051C000B0E83B07B0E04B07B0E05B0720F02FEF03
:1051D0003FE740E050E0C9010895DC015996ED91A8
:1051E000FC915A97309711F480E0089585818111E0
:1051F00081E00895CF93DF93EC01898D9A8D00971C
:1052000041F00E948A31898D9A8D0E943B431A8E0B
:10521000198EDF91CF910895FC01818D928D0097B9
:1052200011F00C9442310895DF93CF930F92CDB7D4
:10523000DEB7FC01818D928D009749F0BE016F5F52
:105240007F4F41E050E00E945C32019719F02FEF50
:105250003FEF03C08981282F30E0C9010F90CF9123
:10526000DF910895EF92FF920F931F93DF93CF93F7
:105270000F92CDB7DEB77C01DC0159968D919C91E0
:105280005A97009719F400E010E01EC0BE016F5F4E
:105290007F4F41E050E00E945C32019719F00FEF20
:1052A0001FEF12C08981082F10E0D7015996ED91A8
:1052B000FC915A97428553856485758541505040CD
:1052C00060407040CF0119D7C8010F90CF91DF9196
:1052D0001F910F91FF90EF900895CF93DF93EC0112
:1052E000E98DFA8D309761F013821282CF010E940E
:1052F00099349C01E98DFA8D82819381892B31F05B
:1053000081E090E09B838A8320E030E0C901DF9157
:10531000CF910895EF92FF920F931F93CF93DF9356
:10532000EC01F62EE72E8A011B821A8288EE93E0AA
:10533000A0E0B0E08C839D83AE83BF8381E297E0E1
:10534000998388838DE190E00E949E429A8F898F95
:10535000009791F0DC018F2D9E2D9C01F9018DE1CC
:1053600001900D928150E1F7CE010C96B8014CE00E
:1053700050E00E94AA02188EDF91CF911F910F91E9
:10538000FF90EF9008950F931F93CF93DF938C01BD
:10539000FB01C081D181FC01EC0FFD1F80818F32A8
:1053A00009F4219698012C0F3D1FA0E0B0E00BC03E
:1053B000FA01EA0FFB1F8083119621962F5F3F4F62
:1053C000AC30B10531F0F90180818F3211F08823C2
:1053D00079F7A40FB51F1C92F801EC0FFD1F808117
:1053E0008F3209F42196FB01D183C083C00FD11FF6
:1053F0008881811181E0DF91CF911F910F910895F4
:105400001092FA0D1092FB0D1092FE0D1092000EEC
:1054100082E090E0A0E0B0E08093010E9093020E55
:10542000A093030EB093040E1092180E1092220E49
:105430001092210E81E397E09093200E80931F0E2F
:105440001092240E0895EF92FF921F93DF93CF9353
:10545000CDB7DEB76D970FB6F894DEBF0FBECDBFE8
:105460009C01AB011C821B8281E397E09A838983B4
:105470001E827E010894E11CF11CC701B90121E0E4
:105480000E94BB36182F882311F0C70143D7812F04
:105490006D960FB6F894DEBF0FBECDBFCF91DF91F2
:1054A0001F91FF90EF9008952F923F924F925F923D
:1054B0006F927F928F929F92BF92CF92DF92EF92E4
:1054C000FF920F931F93DF93CF93CDB7DEB7C954ED
:1054D000D0400FB6F894DEBF0FBECDBF1C017B01DC
:1054E0002A0139011B8A1A8A81E397E0998B888BFC
:1054F0001D8A18AA1FA69EA78DA71AAA1A8219820A
:105500008B0120E1C22ED12CCC0EDD1E93E0892E22
:10551000912C8C0E9D1E03C0C80186016C01C10137
:10552000BE016F5F7F4FA4012EDFB82E40E08823BD
:1055300009F441E0C801B4019301F20119958823EF
:1055400031F40E151F0501F1C801E4D61DC0BB20C2
:10555000A1F0C601B801A40121E00E94BB36B82E1B
:105560000E151F0511F0C801D5D6BB2069F00E1528
:105570001F0591F6CE018D96D0CF0E151F0511F0A7
:10558000C801C8D681E001C080E0C75BDF4F0FB61D
:10559000F894DEBF0FBECDBFCF91DF911F910F9169
:1055A000FF90EF90DF90CF90BF909F908F907F9073
:1055B0006F905F904F903F902F9008959B01BC019A
:1055C000665D7F4FC90143E25AE220E030E06CCFD4
:1055D0002F923F924F925F926F927F928F929F9203
:1055E000AF92BF92CF92DF92EF92FF920F931F93F1
:1055F000DF93CF93CDB7DEB7C754D0400FB6F89442
:10560000DEBF0FBECDBF582E492EFB013A01190156
:1056100084A595A5998B888B21E337E03F872E875A
:1056200086A58A8B87A58B8B80A991A9A2A9B3A9EE
:105630008C8B9D8BAE8BBF8B84A995A9A6A9B7A98E
:10564000888F998FAA8FBB8F80AD91ADA2ADB3AD7E
:105650008C8F9D8FAE8FBF8F84AD88A3FD96819177
:105660009191A191B19189A39AA3ABA3BCA381917C
:105670009191A191B1918DA39EA3AFA3B8A7808171
:1056800091819AA789A71EA61DA63CA72BA718AA99
:105690007A018E01025F1F4F3BE2A32EB12CAC0EAC
:1056A000BD1E4E010894811C911C33C0D7018C9102
:1056B0008F3221F40894E11CF11C2BC0422F4E19AB
:1056C0004D3008F04CE0C42EDD24C401B701A60122
:1056D0000E94AA02F401EC0DFD1D1082C5011AD62C
:1056E000C501B801A40121E00E94BB36882351F412
:1056F000E52DF42D1382128281E397E0918380835C
:10570000158265C0EC0CFD1CC80104D6C50158010A
:105710008C01C7016FE270E00E9481029C0100973A
:1057200029F6E618F708F101F182E082E52DF42D63
:10573000D80112968D919C9113979383828381E374
:1057400097E09183808314968C91149784831596A7
:105750008C911597858316962D913D914D915C9175
:10576000199726833783408751871A962D913D914B
:105770004D915C911D9722873387448755871E96EC
:105780002D913D914D915C91519726873787408BA4
:10579000518B52968C915297828B53962D913D91BD
:1057A0004D915C915697238B348B458B568B579636
:1057B0002D913D914D915C915A97278B308F418F60
:1057C000528F5B968D919C915C97948F838F852DE2
:1057D000942DC95BDF4F0FB6F894DEBF0FBECDBF6F
:1057E000CF91DF911F910F91FF90EF90DF90CF90BD
:1057F000BF90AF909F908F907F906F905F904F90F1
:105800003F902F9008959F92AF92BF92CF92DF92D8
:10581000EF92FF920F931F93DF93CF93CDB7DEB735
:10582000C657D0400FB6F894DEBF0FBECDBFC82E0E
:10583000992E8A01D22E43E0A42EB12CAC0EBD1EAF
:10584000C501A8019E012F5F3F4FC2DEE980FA80AB
:10585000E00EF11EF701808141E357E0288588239F
:1058600009F03FC08D819E819BA38AA359A348A3C1
:105870008F818CA32DA389859A85AB85BC858EA34A
:105880009FA3A8A7B9A78D859E85AF85B8898AA74C
:105890009BA7ACA7BDA789899A89AB89BC898EA72C
:1058A0009FA7A8ABB9AB8D898AAB8E899F89A88D3C
:1058B000B98D8BAB9CABADABBEAB8A8D9B8DAC8DEC
:1058C000BD8D8FAB98AFA9AFBAAF8E8D9F8D9CAFBA
:1058D0008BAF8C2D992DBE01605E7F4F4EEF56E051
:1058E0009CC0FE01FF96118210825EAF4DAFFE019B
:1058F000EE5BFF4F10822223A9F02250CE01CD96FD
:10590000223048F46FE17EE0A7012D2D0E94BB36C6
:10591000882371F407C0B501A7012D2D0E94BB3665
:10592000882321F48C2D992D09DC78C0C501F2D48F
:10593000F6E0DF2251F0FE01E05BFF4F4081518134
:1059400062817381CE01CD96D8D39E01265A3F4FF6
:10595000FE01FF9680819181F9019383828381E327
:1059600097E091838083FE01EF5BFF4F8081F90117
:105970008483FE01EE5BFF4F8081F9018583FE0188
:10598000ED5BFF4F80819181A281B381F901868314
:105990009783A087B187FE01E95BFF4F80819181EA
:1059A000A281B381F90182879387A487B587FE011D
:1059B000E55BFF4F80819181A281B381F9018687E8
:1059C0009787A08BB18BFE01E15BFF4F8081F901CE
:1059D000828BFE01E05BFF4F80819181A281B381C8
:1059E000F901838B948BA58BB68BFE01EC5AFF4F8C
:1059F00080819181A281B381F901878B908FA18FE2
:105A0000B28FFE01E85AFF4F80819181F901948F96
:105A1000838F8C2D992DB901A7017CDC8C2D992DBC
:105A2000CA58DF4F0FB6F894DEBF0FBECDBFCF917F
:105A3000DF911F910F91FF90EF90DF90CF90BF907B
:105A4000AF909F9008950F931F93CF93DF93EC0136
:105A5000462F61E048D28823C9F08E01045F1F4FB2
:105A6000C801BE0141E00E945438882339F4C801BE
:105A7000BE0140E00E945438882341F0CE018A964E
:105A8000B80175D6882319F081E001C080E0DF916C
:105A9000CF911F910F910895FC01673020F086E1AE
:105AA000858380E00895262F30E060FD02C06630D7
:105AB00019F48DB58E7F02C08DB581608DBD8CB51A
:105AC0008C7F8CBD4CB522FD02C090E001C092E0FD
:105AD00036952795822F8170842B892B8CBD81E090
